{
    "randomStatetestDEFAULT-Tue_07_58_41-15153-575192_d0g0v0_Cancun" : {
        "_info" : {
            "comment" : "This is a canon example of a test found by fuzzing with EVMlab, demoing how a suicide-created-but-empty account has a non-zero codehash in geth",
            "filling-rpc-server" : "evmone-t8n 0.14.0-13+commit.4d363c36",
            "filling-tool-version" : "retesteth-0.3.2-legacy+commit.ca7f4c79.Linux.g++",
            "fixture-format" : "blockchain_test",
            "generatedTestHash" : "2530e0c34a332c442473a661d1cc20fde0d6c11aec5591f5ddeccb9c718eb2c9",
            "lllcversion" : "Version: 0.5.14-develop.2024.11.5+commit.b2b86751.mod.Linux.g++",
            "hyperion" : "Version: 0.8.24+commit.e11b9ed9.Linux.g++",
            "source" : "src/GeneralStateTestsFiller/stBugs/randomStatetestDEFAULT-Tue_07_58_41-15153-575192Filler.json",
            "sourceHash" : "d7dfe3179a269f44a7d5ab42b4feae2a1cb15a4c123582d3c53afd86780b0a34"
        },
        "blocks" : [
            {
                "blockHeader" : {
                    "baseFeePerGas" : "0x0a",
                    "bloom" : "0x00000000000000000000000000000000000000000000000000000000000000000000000000000000000000000000000000000000000000000000000000000000000000000000000000000000000000000000000000000000000000000000000000000000000000000000000000000000000000000000000000000000000000000000000000000000000000000000000000000000000000000000000000000000000000000000000000000000000000000000000000000000000000000000000000000000000000000000000000000000000000000000000000000000000000000000000000000000000000000000000000000000000000000000000000000000",
                    "coinbase" : "Z1000000000000000000000000000000000000000",
                    "extraData" : "0x00",
                    "gasLimit" : "0x01312d00",
                    "gasUsed" : "0x82fc",
                    "hash" : "0x3511e423158e3147a3647149434d710e16044e689c8a6ae8c2648435377ce35c",
                    "mixHash" : "0x0000000000000000000000000000000000000000000000000000000000020000",
                    "nonce" : "0x0000000000000000",
                    "number" : "0x01",
                    "parentHash" : "0xa15ebec280d19ca269ebb2c1964c0ed10c45f743fd79ba75be955f6259c0e6f7",
                    "receiptTrie" : "0x0a45fba26693a9264ffd0e1259cd68f0bb79a52fa286c3317676bd76265b76eb",
                    "stateRoot" : "0x94e66e157675d78d45e237dfb9eedf17db923094f50e46c01d4512b4c7a81531",
                    "timestamp" : "0x03e8",
                    "transactionsTrie" : "0x16d1db4b305df64bfe8b157131ebade6a6aacbdc4be3219f94315ebfbfb3be4a",
                    "withdrawalsRoot" : "0x56e81f171bcc55a6ff8345e692c0f86e5b48e01b996cadc001622fb5e363b421"
                },
                "rlp" : "0xf902a3f9023aa0a15ebec280d19ca269ebb2c1964c0ed10c45f743fd79ba75be955f6259c0e6f7a01dcc4de8dec75d7aab85b567b6ccd41ad312451b948a7413f0a142fd40d49347941000000000000000000000000000000000000000a094e66e157675d78d45e237dfb9eedf17db923094f50e46c01d4512b4c7a81531a016d1db4b305df64bfe8b157131ebade6a6aacbdc4be3219f94315ebfbfb3be4aa00a45fba26693a9264ffd0e1259cd68f0bb79a52fa286c3317676bd76265b76ebb901000000000000000000000000000000000000000000000000000000000000000000000000000000000000000000000000000000000000000000000000000000000000000000000000000000000000000000000000000000000000000000000000000000000000000000000000000000000000000000000000000000000000000000000000000000000000000000000000000000000000000000000000000000000000000000000000000000000000000000000000000000000000000000000000000000000000000000000000000000000000000000000000000000000000000000000000000000000000000000000000000000000000000000000000000000000080018401312d008282fc8203e800a000000000000000000000000000000000000000000000000000000000000200008800000000000000000aa056e81f171bcc55a6ff8345e692c0f86e5b48e01b996cadc001622fb5e363b4218080a00000000000000000000000000000000000000000000000000000000000000000f862f8601c0b835fde0794100000000000000000000000000000000000000080801ba05bcf308f6e13f1d310f7bf7c07d23668bfa84384314330c375849619d8bca497a07f8b3303b6d5daf687b482dec689a32d1829d573854757e3dd2e6f101ab36b4ac0c0",
                "transactions" : [
                    {
                        "data" : "0x",
                        "gasLimit" : "0x5fde07",
                        "gasPrice" : "0x0b",
                        "nonce" : "0x1c",
                        "signature" : "0x5bcf308f6e13f1d310f7bf7c07d23668bfa84384314330c375849619d8bca497",
                        "s" : "0x7f8b3303b6d5daf687b482dec689a32d1829d573854757e3dd2e6f101ab36b4a",
                        "sender" : "Za94f5374fce5edbc8e2a8697c15331677e6ebf0b",
                        "to" : "0x1000000000000000000000000000000000000000",
                        "v" : "0x1b",
                        "value" : "0x00"
                    }
                ],
                "uncleHeaders" : [
                ],
                "withdrawals" : [
                ]
            }
        ],
        "config" : {
            "blobSchedule" : {
                "Cancun" : {
                    "baseFeeUpdateFraction" : "0x32f0ed",
                    "max" : "0x06",
                    "target" : "0x03"
                }
            },
            "chainid" : "0x01",
            "network" : "Cancun"
        },
        "genesisBlockHeader" : {
            "baseFeePerGas" : "0x0b",
            "bloom" : "0x00000000000000000000000000000000000000000000000000000000000000000000000000000000000000000000000000000000000000000000000000000000000000000000000000000000000000000000000000000000000000000000000000000000000000000000000000000000000000000000000000000000000000000000000000000000000000000000000000000000000000000000000000000000000000000000000000000000000000000000000000000000000000000000000000000000000000000000000000000000000000000000000000000000000000000000000000000000000000000000000000000000000000000000000000000000",
            "coinbase" : "Z1000000000000000000000000000000000000000",
            "extraData" : "0x00",
            "gasLimit" : "0x01312d00",
            "gasUsed" : "0x00",
            "hash" : "0xa15ebec280d19ca269ebb2c1964c0ed10c45f743fd79ba75be955f6259c0e6f7",
            "mixHash" : "0x0000000000000000000000000000000000000000000000000000000000020000",
            "nonce" : "0x0000000000000000",
            "number" : "0x00",
            "parentHash" : "0x0000000000000000000000000000000000000000000000000000000000000000",
            "receiptTrie" : "0x56e81f171bcc55a6ff8345e692c0f86e5b48e01b996cadc001622fb5e363b421",
            "stateRoot" : "0x86bf74eca4a89b632a85874dd6ceb6bde66fd97d8b12f79256fe3a1811bc4dde",
            "timestamp" : "0x00",
            "transactionsTrie" : "0x56e81f171bcc55a6ff8345e692c0f86e5b48e01b996cadc001622fb5e363b421",
            "withdrawalsRoot" : "0x56e81f171bcc55a6ff8345e692c0f86e5b48e01b996cadc001622fb5e363b421"
        },
        "genesisRLP" : "0xf9023ff90239a00000000000000000000000000000000000000000000000000000000000000000a01dcc4de8dec75d7aab85b567b6ccd41ad312451b948a7413f0a142fd40d49347941000000000000000000000000000000000000000a086bf74eca4a89b632a85874dd6ceb6bde66fd97d8b12f79256fe3a1811bc4ddea056e81f171bcc55a6ff8345e692c0f86e5b48e01b996cadc001622fb5e363b421a056e81f171bcc55a6ff8345e692c0f86e5b48e01b996cadc001622fb5e363b421b901000000000000000000000000000000000000000000000000000000000000000000000000000000000000000000000000000000000000000000000000000000000000000000000000000000000000000000000000000000000000000000000000000000000000000000000000000000000000000000000000000000000000000000000000000000000000000000000000000000000000000000000000000000000000000000000000000000000000000000000000000000000000000000000000000000000000000000000000000000000000000000000000000000000000000000000000000000000000000000000000000000000000000000000000000000000080808401312d00808000a000000000000000000000000000000000000000000000000000000000000200008800000000000000000ba056e81f171bcc55a6ff8345e692c0f86e5b48e01b996cadc001622fb5e363b4218083060000a00000000000000000000000000000000000000000000000000000000000000000c0c0c0",
        "lastblockhash" : "0x3511e423158e3147a3647149434d710e16044e689c8a6ae8c2648435377ce35c",
        "network" : "Cancun",
        "postState" : {
            "0x000000000000000000000000000000000000dead" : {
                "balance" : "0x00",
                "code" : "0x62abcdefff",
                "nonce" : "0x1c",
                "storage" : {
                }
            },
            "0x000f3df6d732807ef1319fb7b8bb8522d0beac02" : {
                "balance" : "0x00",
                "code" : "0x3373fffffffffffffffffffffffffffffffffffffffe14604d57602036146024575f5ffd5b5f35801560495762001fff810690815414603c575f5ffd5b62001fff01545f5260205ff35b5f5ffd5b62001fff42064281555f359062001fff015500",
                "nonce" : "0x01",
                "storage" : {
                    "0x03e8" : "0x03e8"
                }
            },
            "0x1000000000000000000000000000000000000000" : {
                "balance" : "0x82fc",
                "code" : "0x61dead6000600060006000600061dead5af162abcdef3f600155",
                "nonce" : "0x1c",
                "storage" : {
                }
            },
            "0xa94f5374fce5edbc8e2a8697c15331677e6ebf0b" : {
                "balance" : "0x5d8fdd3ff53cf7e0",
                "code" : "0x",
                "nonce" : "0x1d",
                "storage" : {
                }
            }
        },
        "pre" : {
            "0x000000000000000000000000000000000000dead" : {
                "balance" : "0x00",
                "code" : "0x62abcdefff",
                "nonce" : "0x1c",
                "storage" : {
                }
            },
            "0x000f3df6d732807ef1319fb7b8bb8522d0beac02" : {
                "balance" : "0x00",
                "code" : "0x3373fffffffffffffffffffffffffffffffffffffffe14604d57602036146024575f5ffd5b5f35801560495762001fff810690815414603c575f5ffd5b62001fff01545f5260205ff35b5f5ffd5b62001fff42064281555f359062001fff015500",
                "nonce" : "0x01",
                "storage" : {
                }
            },
            "0x1000000000000000000000000000000000000000" : {
                "balance" : "0x00",
                "code" : "0x61dead6000600060006000600061dead5af162abcdef3f600155",
                "nonce" : "0x1c",
                "storage" : {
                }
            },
            "0xa94f5374fce5edbc8e2a8697c15331677e6ebf0b" : {
                "balance" : "0x5d8fdd3ff54298b4",
                "code" : "0x",
                "nonce" : "0x1c",
                "storage" : {
                }
            }
        },
        "sealEngine" : "NoProof"
    },
    "randomStatetestDEFAULT-Tue_07_58_41-15153-575192_d0g0v0_Prague" : {
        "_info" : {
            "comment" : "This is a canon example of a test found by fuzzing with EVMlab, demoing how a suicide-created-but-empty account has a non-zero codehash in geth",
            "filling-rpc-server" : "evmone-t8n 0.14.0-13+commit.4d363c36",
            "filling-tool-version" : "retesteth-0.3.2-legacy+commit.ca7f4c79.Linux.g++",
            "fixture-format" : "blockchain_test",
            "generatedTestHash" : "ac11a19bb39c933a1beeeeffe0e9a7e8d1d4e4463a85c5d04017baae61e4cb63",
            "lllcversion" : "Version: 0.5.14-develop.2024.11.5+commit.b2b86751.mod.Linux.g++",
            "hyperion" : "Version: 0.8.24+commit.e11b9ed9.Linux.g++",
            "source" : "src/GeneralStateTestsFiller/stBugs/randomStatetestDEFAULT-Tue_07_58_41-15153-575192Filler.json",
            "sourceHash" : "d7dfe3179a269f44a7d5ab42b4feae2a1cb15a4c123582d3c53afd86780b0a34"
        },
        "blocks" : [
            {
                "blockHeader" : {
                    "baseFeePerGas" : "0x0a",
                    "bloom" : "0x00000000000000000000000000000000000000000000000000000000000000000000000000000000000000000000000000000000000000000000000000000000000000000000000000000000000000000000000000000000000000000000000000000000000000000000000000000000000000000000000000000000000000000000000000000000000000000000000000000000000000000000000000000000000000000000000000000000000000000000000000000000000000000000000000000000000000000000000000000000000000000000000000000000000000000000000000000000000000000000000000000000000000000000000000000000",
                    "coinbase" : "Z1000000000000000000000000000000000000000",
                    "extraData" : "0x00",
                    "gasLimit" : "0x01312d00",
                    "gasUsed" : "0x82fc",
                    "hash" : "0x19ddbc4c34019d985773027d46fe099a82bbc8b7ea1b8311ca1d1a6a0c766b5e",
                    "mixHash" : "0x0000000000000000000000000000000000000000000000000000000000020000",
                    "nonce" : "0x0000000000000000",
                    "number" : "0x01",
                    "parentHash" : "0x7b91085064cd363325e7f93da68a57ffe9d3cf62c6654d8fc88184b2c25cadfe",
                    "receiptTrie" : "0x0a45fba26693a9264ffd0e1259cd68f0bb79a52fa286c3317676bd76265b76eb",
                    "requestsHash" : "0xe3b0c44298fc1c149afbf4c8996fb92427ae41e4649b934ca495991b7852b855",
                    "stateRoot" : "0x016722a260eabb17f85268491643c6bdaacaae34f053b544c5a410c84989caff",
                    "timestamp" : "0x03e8",
                    "transactionsTrie" : "0x16d1db4b305df64bfe8b157131ebade6a6aacbdc4be3219f94315ebfbfb3be4a",
                    "withdrawalsRoot" : "0x56e81f171bcc55a6ff8345e692c0f86e5b48e01b996cadc001622fb5e363b421"
                },
                "rlp" : "0xf902c4f9025ba07b91085064cd363325e7f93da68a57ffe9d3cf62c6654d8fc88184b2c25cadfea01dcc4de8dec75d7aab85b567b6ccd41ad312451b948a7413f0a142fd40d49347941000000000000000000000000000000000000000a0016722a260eabb17f85268491643c6bdaacaae34f053b544c5a410c84989caffa016d1db4b305df64bfe8b157131ebade6a6aacbdc4be3219f94315ebfbfb3be4aa00a45fba26693a9264ffd0e1259cd68f0bb79a52fa286c3317676bd76265b76ebb901000000000000000000000000000000000000000000000000000000000000000000000000000000000000000000000000000000000000000000000000000000000000000000000000000000000000000000000000000000000000000000000000000000000000000000000000000000000000000000000000000000000000000000000000000000000000000000000000000000000000000000000000000000000000000000000000000000000000000000000000000000000000000000000000000000000000000000000000000000000000000000000000000000000000000000000000000000000000000000000000000000000000000000000000000000000080018401312d008282fc8203e800a000000000000000000000000000000000000000000000000000000000000200008800000000000000000aa056e81f171bcc55a6ff8345e692c0f86e5b48e01b996cadc001622fb5e363b4218080a00000000000000000000000000000000000000000000000000000000000000000a0e3b0c44298fc1c149afbf4c8996fb92427ae41e4649b934ca495991b7852b855f862f8601c0b835fde0794100000000000000000000000000000000000000080801ba05bcf308f6e13f1d310f7bf7c07d23668bfa84384314330c375849619d8bca497a07f8b3303b6d5daf687b482dec689a32d1829d573854757e3dd2e6f101ab36b4ac0c0",
                "transactions" : [
                    {
                        "data" : "0x",
                        "gasLimit" : "0x5fde07",
                        "gasPrice" : "0x0b",
                        "nonce" : "0x1c",
                        "signature" : "0x5bcf308f6e13f1d310f7bf7c07d23668bfa84384314330c375849619d8bca497",
                        "s" : "0x7f8b3303b6d5daf687b482dec689a32d1829d573854757e3dd2e6f101ab36b4a",
                        "sender" : "Za94f5374fce5edbc8e2a8697c15331677e6ebf0b",
                        "to" : "0x1000000000000000000000000000000000000000",
                        "v" : "0x1b",
                        "value" : "0x00"
                    }
                ],
                "uncleHeaders" : [
                ],
                "withdrawals" : [
                ]
            }
        ],
        "config" : {
            "blobSchedule" : {
                "Prague" : {
                    "baseFeeUpdateFraction" : "0x4c6964",
                    "max" : "0x09",
                    "target" : "0x06"
                }
            },
            "chainid" : "0x01",
            "network" : "Prague"
        },
        "genesisBlockHeader" : {
            "baseFeePerGas" : "0x0b",
            "bloom" : "0x00000000000000000000000000000000000000000000000000000000000000000000000000000000000000000000000000000000000000000000000000000000000000000000000000000000000000000000000000000000000000000000000000000000000000000000000000000000000000000000000000000000000000000000000000000000000000000000000000000000000000000000000000000000000000000000000000000000000000000000000000000000000000000000000000000000000000000000000000000000000000000000000000000000000000000000000000000000000000000000000000000000000000000000000000000000",
            "coinbase" : "Z1000000000000000000000000000000000000000",
            "extraData" : "0x00",
            "gasLimit" : "0x01312d00",
            "gasUsed" : "0x00",
            "hash" : "0x7b91085064cd363325e7f93da68a57ffe9d3cf62c6654d8fc88184b2c25cadfe",
            "mixHash" : "0x0000000000000000000000000000000000000000000000000000000000020000",
            "nonce" : "0x0000000000000000",
            "number" : "0x00",
            "parentHash" : "0x0000000000000000000000000000000000000000000000000000000000000000",
            "receiptTrie" : "0x56e81f171bcc55a6ff8345e692c0f86e5b48e01b996cadc001622fb5e363b421",
            "requestsHash" : "0xe3b0c44298fc1c149afbf4c8996fb92427ae41e4649b934ca495991b7852b855",
            "stateRoot" : "0xe1e4fca8c9a5b2df8aef96917a163c81479b14c9bede99c16d7bb1dfbee2923f",
            "timestamp" : "0x00",
            "transactionsTrie" : "0x56e81f171bcc55a6ff8345e692c0f86e5b48e01b996cadc001622fb5e363b421",
            "withdrawalsRoot" : "0x56e81f171bcc55a6ff8345e692c0f86e5b48e01b996cadc001622fb5e363b421"
        },
        "genesisRLP" : "0xf90260f9025aa00000000000000000000000000000000000000000000000000000000000000000a01dcc4de8dec75d7aab85b567b6ccd41ad312451b948a7413f0a142fd40d49347941000000000000000000000000000000000000000a0e1e4fca8c9a5b2df8aef96917a163c81479b14c9bede99c16d7bb1dfbee2923fa056e81f171bcc55a6ff8345e692c0f86e5b48e01b996cadc001622fb5e363b421a056e81f171bcc55a6ff8345e692c0f86e5b48e01b996cadc001622fb5e363b421b901000000000000000000000000000000000000000000000000000000000000000000000000000000000000000000000000000000000000000000000000000000000000000000000000000000000000000000000000000000000000000000000000000000000000000000000000000000000000000000000000000000000000000000000000000000000000000000000000000000000000000000000000000000000000000000000000000000000000000000000000000000000000000000000000000000000000000000000000000000000000000000000000000000000000000000000000000000000000000000000000000000000000000000000000000000000080808401312d00808000a000000000000000000000000000000000000000000000000000000000000200008800000000000000000ba056e81f171bcc55a6ff8345e692c0f86e5b48e01b996cadc001622fb5e363b4218083060000a00000000000000000000000000000000000000000000000000000000000000000a0e3b0c44298fc1c149afbf4c8996fb92427ae41e4649b934ca495991b7852b855c0c0c0",
        "lastblockhash" : "0x19ddbc4c34019d985773027d46fe099a82bbc8b7ea1b8311ca1d1a6a0c766b5e",
        "network" : "Prague",
        "postState" : {
            "0x000000000000000000000000000000000000dead" : {
                "balance" : "0x00",
                "code" : "0x62abcdefff",
                "nonce" : "0x1c",
                "storage" : {
                }
            },
            "0x0000f90827f1c53a10cb7a02335b175320002935" : {
                "balance" : "0x00",
                "code" : "0x3373fffffffffffffffffffffffffffffffffffffffe14604657602036036042575f35600143038111604257611fff81430311604257611fff9006545f5260205ff35b5f5ffd5b5f35611fff60014303065500",
                "nonce" : "0x01",
                "storage" : {
                    "0x00" : "0x7b91085064cd363325e7f93da68a57ffe9d3cf62c6654d8fc88184b2c25cadfe"
                }
            },
            "0x000f3df6d732807ef1319fb7b8bb8522d0beac02" : {
                "balance" : "0x00",
                "code" : "0x3373fffffffffffffffffffffffffffffffffffffffe14604d57602036146024575f5ffd5b5f35801560495762001fff810690815414603c575f5ffd5b62001fff01545f5260205ff35b5f5ffd5b62001fff42064281555f359062001fff015500",
                "nonce" : "0x01",
                "storage" : {
                    "0x03e8" : "0x03e8"
                }
            },
            "0x1000000000000000000000000000000000000000" : {
                "balance" : "0x82fc",
                "code" : "0x61dead6000600060006000600061dead5af162abcdef3f600155",
                "nonce" : "0x1c",
                "storage" : {
                }
            },
            "0xa94f5374fce5edbc8e2a8697c15331677e6ebf0b" : {
                "balance" : "0x5d8fdd3ff53cf7e0",
                "code" : "0x",
                "nonce" : "0x1d",
                "storage" : {
                }
            }
        },
        "pre" : {
            "0x000000000000000000000000000000000000dead" : {
                "balance" : "0x00",
                "code" : "0x62abcdefff",
                "nonce" : "0x1c",
                "storage" : {
                }
            },
            "0x0000f90827f1c53a10cb7a02335b175320002935" : {
                "balance" : "0x00",
                "code" : "0x3373fffffffffffffffffffffffffffffffffffffffe14604657602036036042575f35600143038111604257611fff81430311604257611fff9006545f5260205ff35b5f5ffd5b5f35611fff60014303065500",
                "nonce" : "0x01",
                "storage" : {
                }
            },
            "0x000f3df6d732807ef1319fb7b8bb8522d0beac02" : {
                "balance" : "0x00",
                "code" : "0x3373fffffffffffffffffffffffffffffffffffffffe14604d57602036146024575f5ffd5b5f35801560495762001fff810690815414603c575f5ffd5b62001fff01545f5260205ff35b5f5ffd5b62001fff42064281555f359062001fff015500",
                "nonce" : "0x01",
                "storage" : {
                }
            },
            "0x1000000000000000000000000000000000000000" : {
                "balance" : "0x00",
                "code" : "0x61dead6000600060006000600061dead5af162abcdef3f600155",
                "nonce" : "0x1c",
                "storage" : {
                }
            },
            "0xa94f5374fce5edbc8e2a8697c15331677e6ebf0b" : {
                "balance" : "0x5d8fdd3ff54298b4",
                "code" : "0x",
                "nonce" : "0x1c",
                "storage" : {
                }
            }
        },
        "sealEngine" : "NoProof"
    }
}