{
    "staticcall_createfails_d0g0v0_Cancun" : {
        "_info" : {
            "comment" : "",
            "filling-rpc-server" : "evmone-t8n 0.14.0-13+commit.4d363c36",
            "filling-tool-version" : "retesteth-0.3.2-legacy+commit.ca7f4c79.Linux.g++",
            "fixture-format" : "blockchain_test",
            "generatedTestHash" : "6eaf17c5eb61806571ca0ecd1c3669147840052b72576c40b2ea29aae2d7dbe1",
            "lllcversion" : "Version: 0.5.14-develop.2024.11.5+commit.b2b86751.mod.Linux.g++",
            "hyperion" : "Version: 0.8.24+commit.e11b9ed9.Linux.g++",
            "source" : "src/GeneralStateTestsFiller/stBugs/staticcall_createfailsFiller.json",
            "sourceHash" : "130e8f94e78586a1127d23d55160e86b54a7bbe1d0d544c87e31e870788cc1ed"
        },
        "blocks" : [
            {
                "blockHeader" : {
                    "baseFeePerGas" : "0x0a",
                    "bloom" : "0x00000000000000000000000000000000000000000000000000000000000000000000000000000000000000000000000000000000000000000000000000000000000000000000000000000000000000000000000000000000000000000000000000000000000000000000000000000000000000000000000000000000000000000000000000000000000000000000000000000000000000000000000000000000000000000000000000000000000000000000000000000000000000000000000000000000000000000000000000000000000000000000000000000000000000000000000000000000000000000000000000000000000000000000000000000000",
                    "coinbase" : "0x1000000000000000000000000000000000000000",
                    "extraData" : "0x00",
                    "gasLimit" : "0x54a60a4202e088",
                    "gasUsed" : "0x016ff0",
                    "hash" : "0xc6f85c5885fa80a048db79d7583ac9b55dbf946d63ccd4fb984145ae09bded5a",
                    "mixHash" : "0x0000000000000000000000000000000000000000000000000000000000020000",
                    "nonce" : "0x0000000000000000",
                    "number" : "0x01",
                    "parentHash" : "0xa4db713514082059bfa13ceaf5ecc54f8e5374a7da1a8cf2f67926be642f64f3",
                    "receiptTrie" : "0xb7722323bc8ac69deecb829f6689e6d7a139c8b6fc95c181aefc90ef7df9fb70",
                    "stateRoot" : "0x641a4afaefcc9c16858243d4213f2e7149c702345e7e10e6243adff221a6c0ad",
                    "timestamp" : "0x03e8",
                    "transactionsTrie" : "0x7ee0e215caf5e0b867a53cd6e2fa31c705838d8c0450ab63049408cc2674e4b6",
                    "withdrawalsRoot" : "0x56e81f171bcc55a6ff8345e692c0f86e5b48e01b996cadc001622fb5e363b421"
                },
                "rlp" : "0xf902c7f9023ea0a4db713514082059bfa13ceaf5ecc54f8e5374a7da1a8cf2f67926be642f64f3a01dcc4de8dec75d7aab85b567b6ccd41ad312451b948a7413f0a142fd40d49347941000000000000000000000000000000000000000a0641a4afaefcc9c16858243d4213f2e7149c702345e7e10e6243adff221a6c0ada07ee0e215caf5e0b867a53cd6e2fa31c705838d8c0450ab63049408cc2674e4b6a0b7722323bc8ac69deecb829f6689e6d7a139c8b6fc95c181aefc90ef7df9fb70b901000000000000000000000000000000000000000000000000000000000000000000000000000000000000000000000000000000000000000000000000000000000000000000000000000000000000000000000000000000000000000000000000000000000000000000000000000000000000000000000000000000000000000000000000000000000000000000000000000000000000000000000000000000000000000000000000000000000000000000000000000000000000000000000000000000000000000000000000000000000000000000000000000000000000000000000000000000000000000000000000000000000000000000000000000000000080018754a60a4202e08883016ff08203e800a000000000000000000000000000000000000000000000000000000000000200008800000000000000000aa056e81f171bcc55a6ff8345e692c0f86e5b48e01b996cadc001622fb5e363b4218080a00000000000000000000000000000000000000000000000000000000000000000f882f880800a8301d4c094b94f5374fce5edbc8e2a8697c15331677e6ebf0b80a0000000000000000000000000c94f5374fce5edbc8e2a8697c15331677e6ebf0b1ba009e63b5e4eb0b681fbdb4e912b508ad3d73338b9323ff26e50c6ff405668c3eda02b546184882273ef66c9961f085171d5b5679293a65a80776baecb30fda1db2bc0c0",
                "transactions" : [
                    {
                        "data" : "0x000000000000000000000000c94f5374fce5edbc8e2a8697c15331677e6ebf0b",
                        "gasLimit" : "0x01d4c0",
                        "gasPrice" : "0x0a",
                        "nonce" : "0x00",
                        "r" : "0x09e63b5e4eb0b681fbdb4e912b508ad3d73338b9323ff26e50c6ff405668c3ed",
                        "s" : "0x2b546184882273ef66c9961f085171d5b5679293a65a80776baecb30fda1db2b",
                        "sender" : "0xa94f5374fce5edbc8e2a8697c15331677e6ebf0b",
                        "to" : "0xb94f5374fce5edbc8e2a8697c15331677e6ebf0b",
                        "v" : "0x1b",
                        "value" : "0x00"
                    }
                ],
                "uncleHeaders" : [
                ],
                "withdrawals" : [
                ]
            }
        ],
        "config" : {
            "blobSchedule" : {
                "Cancun" : {
                    "baseFeeUpdateFraction" : "0x32f0ed",
                    "max" : "0x06",
                    "target" : "0x03"
                }
            },
            "chainid" : "0x01",
            "network" : "Cancun"
        },
        "genesisBlockHeader" : {
            "baseFeePerGas" : "0x0b",
            "bloom" : "0x00000000000000000000000000000000000000000000000000000000000000000000000000000000000000000000000000000000000000000000000000000000000000000000000000000000000000000000000000000000000000000000000000000000000000000000000000000000000000000000000000000000000000000000000000000000000000000000000000000000000000000000000000000000000000000000000000000000000000000000000000000000000000000000000000000000000000000000000000000000000000000000000000000000000000000000000000000000000000000000000000000000000000000000000000000000",
            "coinbase" : "0x1000000000000000000000000000000000000000",
            "extraData" : "0x00",
            "gasLimit" : "0x54a60a4202e088",
            "gasUsed" : "0x00",
            "hash" : "0xa4db713514082059bfa13ceaf5ecc54f8e5374a7da1a8cf2f67926be642f64f3",
            "mixHash" : "0x0000000000000000000000000000000000000000000000000000000000020000",
            "nonce" : "0x0000000000000000",
            "number" : "0x00",
            "parentHash" : "0x0000000000000000000000000000000000000000000000000000000000000000",
            "receiptTrie" : "0x56e81f171bcc55a6ff8345e692c0f86e5b48e01b996cadc001622fb5e363b421",
            "stateRoot" : "0xd2313105aff5e501dd8911655d7dce6869586ea8cfff652944d4f04046c7a492",
            "timestamp" : "0x00",
            "transactionsTrie" : "0x56e81f171bcc55a6ff8345e692c0f86e5b48e01b996cadc001622fb5e363b421",
            "withdrawalsRoot" : "0x56e81f171bcc55a6ff8345e692c0f86e5b48e01b996cadc001622fb5e363b421"
        },
        "genesisRLP" : "0xf90242f9023ca00000000000000000000000000000000000000000000000000000000000000000a01dcc4de8dec75d7aab85b567b6ccd41ad312451b948a7413f0a142fd40d49347941000000000000000000000000000000000000000a0d2313105aff5e501dd8911655d7dce6869586ea8cfff652944d4f04046c7a492a056e81f171bcc55a6ff8345e692c0f86e5b48e01b996cadc001622fb5e363b421a056e81f171bcc55a6ff8345e692c0f86e5b48e01b996cadc001622fb5e363b421b901000000000000000000000000000000000000000000000000000000000000000000000000000000000000000000000000000000000000000000000000000000000000000000000000000000000000000000000000000000000000000000000000000000000000000000000000000000000000000000000000000000000000000000000000000000000000000000000000000000000000000000000000000000000000000000000000000000000000000000000000000000000000000000000000000000000000000000000000000000000000000000000000000000000000000000000000000000000000000000000000000000000000000000000000000000000080808754a60a4202e088808000a000000000000000000000000000000000000000000000000000000000000200008800000000000000000ba056e81f171bcc55a6ff8345e692c0f86e5b48e01b996cadc001622fb5e363b4218083060000a00000000000000000000000000000000000000000000000000000000000000000c0c0c0",
        "lastblockhash" : "0xc6f85c5885fa80a048db79d7583ac9b55dbf946d63ccd4fb984145ae09bded5a",
        "network" : "Cancun",
        "postState" : {
            "0x000f3df6d732807ef1319fb7b8bb8522d0beac02" : {
                "balance" : "0x00",
                "code" : "0x3373fffffffffffffffffffffffffffffffffffffffe14604d57602036146024575f5ffd5b5f35801560495762001fff810690815414603c575f5ffd5b62001fff01545f5260205ff35b5f5ffd5b62001fff42064281555f359062001fff015500",
                "nonce" : "0x01",
                "storage" : {
                    "0x03e8" : "0x03e8"
                }
            },
            "0xa94f5374fce5edbc8e2a8697c15331677e6ebf0b" : {
                "balance" : "0x38beec8feebbc638",
                "code" : "0x",
                "nonce" : "0x01",
                "storage" : {
                }
            },
            "0xb94f5374fce5edbc8e2a8697c15331677e6ebf0b" : {
                "balance" : "0x00",
                "code" : "0x600060006000600060003562011170fa60015500",
                "nonce" : "0x3f",
                "storage" : {
                }
            },
            "0xc94f5374fce5edbc8e2a8697c15331677e6ebf0b" : {
                "balance" : "0x00",
                "code" : "0x6001600152600160016001f060025500",
                "nonce" : "0x3f",
                "storage" : {
                }
            },
            "0xd94f5374fce5edbc8e2a8697c15331677e6ebf0b" : {
                "balance" : "0x00",
                "code" : "0x60006000f0",
                "nonce" : "0x3f",
                "storage" : {
                }
            }
        },
        "pre" : {
            "0x000f3df6d732807ef1319fb7b8bb8522d0beac02" : {
                "balance" : "0x00",
                "code" : "0x3373fffffffffffffffffffffffffffffffffffffffe14604d57602036146024575f5ffd5b5f35801560495762001fff810690815414603c575f5ffd5b62001fff01545f5260205ff35b5f5ffd5b62001fff42064281555f359062001fff015500",
                "nonce" : "0x01",
                "storage" : {
                }
            },
            "0xa94f5374fce5edbc8e2a8697c15331677e6ebf0b" : {
                "balance" : "0x38beec8feeca2598",
                "code" : "0x",
                "nonce" : "0x00",
                "storage" : {
                }
            },
            "0xb94f5374fce5edbc8e2a8697c15331677e6ebf0b" : {
                "balance" : "0x00",
                "code" : "0x600060006000600060003562011170fa60015500",
                "nonce" : "0x3f",
                "storage" : {
                    "0x01" : "0x01"
                }
            },
            "0xc94f5374fce5edbc8e2a8697c15331677e6ebf0b" : {
                "balance" : "0x00",
                "code" : "0x6001600152600160016001f060025500",
                "nonce" : "0x3f",
                "storage" : {
                }
            },
            "0xd94f5374fce5edbc8e2a8697c15331677e6ebf0b" : {
                "balance" : "0x00",
                "code" : "0x60006000f0",
                "nonce" : "0x3f",
                "storage" : {
                }
            }
        },
        "sealEngine" : "NoProof"
    },
    "staticcall_createfails_d0g0v0_Prague" : {
        "_info" : {
            "comment" : "",
            "filling-rpc-server" : "evmone-t8n 0.14.0-13+commit.4d363c36",
            "filling-tool-version" : "retesteth-0.3.2-legacy+commit.ca7f4c79.Linux.g++",
            "fixture-format" : "blockchain_test",
            "generatedTestHash" : "0290beb929a907085e4c729abb313ee3d3eccd4f474675b9ed79f837db66ccaa",
            "lllcversion" : "Version: 0.5.14-develop.2024.11.5+commit.b2b86751.mod.Linux.g++",
            "hyperion" : "Version: 0.8.24+commit.e11b9ed9.Linux.g++",
            "source" : "src/GeneralStateTestsFiller/stBugs/staticcall_createfailsFiller.json",
            "sourceHash" : "130e8f94e78586a1127d23d55160e86b54a7bbe1d0d544c87e31e870788cc1ed"
        },
        "blocks" : [
            {
                "blockHeader" : {
                    "baseFeePerGas" : "0x0a",
                    "bloom" : "0x00000000000000000000000000000000000000000000000000000000000000000000000000000000000000000000000000000000000000000000000000000000000000000000000000000000000000000000000000000000000000000000000000000000000000000000000000000000000000000000000000000000000000000000000000000000000000000000000000000000000000000000000000000000000000000000000000000000000000000000000000000000000000000000000000000000000000000000000000000000000000000000000000000000000000000000000000000000000000000000000000000000000000000000000000000000",
                    "coinbase" : "0x1000000000000000000000000000000000000000",
                    "extraData" : "0x00",
                    "gasLimit" : "0x54a60a4202e088",
                    "gasUsed" : "0x016ff0",
                    "hash" : "0x21446450e31c3c066ff86b3f9c9f7bf2b579ba4dc03a412ad3f894da7686c1fa",
                    "mixHash" : "0x0000000000000000000000000000000000000000000000000000000000020000",
                    "nonce" : "0x0000000000000000",
                    "number" : "0x01",
                    "parentHash" : "0x08a5d0c4c417040ca5f6c766a17aaeacc40ba9aff111600426e7772a0a7a6f6f",
                    "receiptTrie" : "0xb7722323bc8ac69deecb829f6689e6d7a139c8b6fc95c181aefc90ef7df9fb70",
                    "requestsHash" : "0xe3b0c44298fc1c149afbf4c8996fb92427ae41e4649b934ca495991b7852b855",
                    "stateRoot" : "0xab23d22287c44b8a85166e0c3159d3ddd2747f751ec29b37199a089631223c0b",
                    "timestamp" : "0x03e8",
                    "transactionsTrie" : "0x7ee0e215caf5e0b867a53cd6e2fa31c705838d8c0450ab63049408cc2674e4b6",
                    "withdrawalsRoot" : "0x56e81f171bcc55a6ff8345e692c0f86e5b48e01b996cadc001622fb5e363b421"
                },
                "rlp" : "0xf902e8f9025fa008a5d0c4c417040ca5f6c766a17aaeacc40ba9aff111600426e7772a0a7a6f6fa01dcc4de8dec75d7aab85b567b6ccd41ad312451b948a7413f0a142fd40d49347941000000000000000000000000000000000000000a0ab23d22287c44b8a85166e0c3159d3ddd2747f751ec29b37199a089631223c0ba07ee0e215caf5e0b867a53cd6e2fa31c705838d8c0450ab63049408cc2674e4b6a0b7722323bc8ac69deecb829f6689e6d7a139c8b6fc95c181aefc90ef7df9fb70b901000000000000000000000000000000000000000000000000000000000000000000000000000000000000000000000000000000000000000000000000000000000000000000000000000000000000000000000000000000000000000000000000000000000000000000000000000000000000000000000000000000000000000000000000000000000000000000000000000000000000000000000000000000000000000000000000000000000000000000000000000000000000000000000000000000000000000000000000000000000000000000000000000000000000000000000000000000000000000000000000000000000000000000000000000000000080018754a60a4202e08883016ff08203e800a000000000000000000000000000000000000000000000000000000000000200008800000000000000000aa056e81f171bcc55a6ff8345e692c0f86e5b48e01b996cadc001622fb5e363b4218080a00000000000000000000000000000000000000000000000000000000000000000a0e3b0c44298fc1c149afbf4c8996fb92427ae41e4649b934ca495991b7852b855f882f880800a8301d4c094b94f5374fce5edbc8e2a8697c15331677e6ebf0b80a0000000000000000000000000c94f5374fce5edbc8e2a8697c15331677e6ebf0b1ba009e63b5e4eb0b681fbdb4e912b508ad3d73338b9323ff26e50c6ff405668c3eda02b546184882273ef66c9961f085171d5b5679293a65a80776baecb30fda1db2bc0c0",
                "transactions" : [
                    {
                        "data" : "0x000000000000000000000000c94f5374fce5edbc8e2a8697c15331677e6ebf0b",
                        "gasLimit" : "0x01d4c0",
                        "gasPrice" : "0x0a",
                        "nonce" : "0x00",
                        "r" : "0x09e63b5e4eb0b681fbdb4e912b508ad3d73338b9323ff26e50c6ff405668c3ed",
                        "s" : "0x2b546184882273ef66c9961f085171d5b5679293a65a80776baecb30fda1db2b",
                        "sender" : "0xa94f5374fce5edbc8e2a8697c15331677e6ebf0b",
                        "to" : "0xb94f5374fce5edbc8e2a8697c15331677e6ebf0b",
                        "v" : "0x1b",
                        "value" : "0x00"
                    }
                ],
                "uncleHeaders" : [
                ],
                "withdrawals" : [
                ]
            }
        ],
        "config" : {
            "blobSchedule" : {
                "Prague" : {
                    "baseFeeUpdateFraction" : "0x4c6964",
                    "max" : "0x09",
                    "target" : "0x06"
                }
            },
            "chainid" : "0x01",
            "network" : "Prague"
        },
        "genesisBlockHeader" : {
            "baseFeePerGas" : "0x0b",
            "bloom" : "0x00000000000000000000000000000000000000000000000000000000000000000000000000000000000000000000000000000000000000000000000000000000000000000000000000000000000000000000000000000000000000000000000000000000000000000000000000000000000000000000000000000000000000000000000000000000000000000000000000000000000000000000000000000000000000000000000000000000000000000000000000000000000000000000000000000000000000000000000000000000000000000000000000000000000000000000000000000000000000000000000000000000000000000000000000000000",
            "coinbase" : "0x1000000000000000000000000000000000000000",
            "extraData" : "0x00",
            "gasLimit" : "0x54a60a4202e088",
            "gasUsed" : "0x00",
            "hash" : "0x08a5d0c4c417040ca5f6c766a17aaeacc40ba9aff111600426e7772a0a7a6f6f",
            "mixHash" : "0x0000000000000000000000000000000000000000000000000000000000020000",
            "nonce" : "0x0000000000000000",
            "number" : "0x00",
            "parentHash" : "0x0000000000000000000000000000000000000000000000000000000000000000",
            "receiptTrie" : "0x56e81f171bcc55a6ff8345e692c0f86e5b48e01b996cadc001622fb5e363b421",
            "requestsHash" : "0xe3b0c44298fc1c149afbf4c8996fb92427ae41e4649b934ca495991b7852b855",
            "stateRoot" : "0x5f07bed95ff51acb69606ea7f729dbf07c74f47a91b2824fea76939734b2bc91",
            "timestamp" : "0x00",
            "transactionsTrie" : "0x56e81f171bcc55a6ff8345e692c0f86e5b48e01b996cadc001622fb5e363b421",
            "withdrawalsRoot" : "0x56e81f171bcc55a6ff8345e692c0f86e5b48e01b996cadc001622fb5e363b421"
        },
        "genesisRLP" : "0xf90263f9025da00000000000000000000000000000000000000000000000000000000000000000a01dcc4de8dec75d7aab85b567b6ccd41ad312451b948a7413f0a142fd40d49347941000000000000000000000000000000000000000a05f07bed95ff51acb69606ea7f729dbf07c74f47a91b2824fea76939734b2bc91a056e81f171bcc55a6ff8345e692c0f86e5b48e01b996cadc001622fb5e363b421a056e81f171bcc55a6ff8345e692c0f86e5b48e01b996cadc001622fb5e363b421b901000000000000000000000000000000000000000000000000000000000000000000000000000000000000000000000000000000000000000000000000000000000000000000000000000000000000000000000000000000000000000000000000000000000000000000000000000000000000000000000000000000000000000000000000000000000000000000000000000000000000000000000000000000000000000000000000000000000000000000000000000000000000000000000000000000000000000000000000000000000000000000000000000000000000000000000000000000000000000000000000000000000000000000000000000000000080808754a60a4202e088808000a000000000000000000000000000000000000000000000000000000000000200008800000000000000000ba056e81f171bcc55a6ff8345e692c0f86e5b48e01b996cadc001622fb5e363b4218083060000a00000000000000000000000000000000000000000000000000000000000000000a0e3b0c44298fc1c149afbf4c8996fb92427ae41e4649b934ca495991b7852b855c0c0c0",
        "lastblockhash" : "0x21446450e31c3c066ff86b3f9c9f7bf2b579ba4dc03a412ad3f894da7686c1fa",
        "network" : "Prague",
        "postState" : {
            "0x0000f90827f1c53a10cb7a02335b175320002935" : {
                "balance" : "0x00",
                "code" : "0x3373fffffffffffffffffffffffffffffffffffffffe14604657602036036042575f35600143038111604257611fff81430311604257611fff9006545f5260205ff35b5f5ffd5b5f35611fff60014303065500",
                "nonce" : "0x01",
                "storage" : {
                    "0x00" : "0x08a5d0c4c417040ca5f6c766a17aaeacc40ba9aff111600426e7772a0a7a6f6f"
                }
            },
            "0x000f3df6d732807ef1319fb7b8bb8522d0beac02" : {
                "balance" : "0x00",
                "code" : "0x3373fffffffffffffffffffffffffffffffffffffffe14604d57602036146024575f5ffd5b5f35801560495762001fff810690815414603c575f5ffd5b62001fff01545f5260205ff35b5f5ffd5b62001fff42064281555f359062001fff015500",
                "nonce" : "0x01",
                "storage" : {
                    "0x03e8" : "0x03e8"
                }
            },
            "0xa94f5374fce5edbc8e2a8697c15331677e6ebf0b" : {
                "balance" : "0x38beec8feebbc638",
                "code" : "0x",
                "nonce" : "0x01",
                "storage" : {
                }
            },
            "0xb94f5374fce5edbc8e2a8697c15331677e6ebf0b" : {
                "balance" : "0x00",
                "code" : "0x600060006000600060003562011170fa60015500",
                "nonce" : "0x3f",
                "storage" : {
                }
            },
            "0xc94f5374fce5edbc8e2a8697c15331677e6ebf0b" : {
                "balance" : "0x00",
                "code" : "0x6001600152600160016001f060025500",
                "nonce" : "0x3f",
                "storage" : {
                }
            },
            "0xd94f5374fce5edbc8e2a8697c15331677e6ebf0b" : {
                "balance" : "0x00",
                "code" : "0x60006000f0",
                "nonce" : "0x3f",
                "storage" : {
                }
            }
        },
        "pre" : {
            "0x0000f90827f1c53a10cb7a02335b175320002935" : {
                "balance" : "0x00",
                "code" : "0x3373fffffffffffffffffffffffffffffffffffffffe14604657602036036042575f35600143038111604257611fff81430311604257611fff9006545f5260205ff35b5f5ffd5b5f35611fff60014303065500",
                "nonce" : "0x01",
                "storage" : {
                }
            },
            "0x000f3df6d732807ef1319fb7b8bb8522d0beac02" : {
                "balance" : "0x00",
                "code" : "0x3373fffffffffffffffffffffffffffffffffffffffe14604d57602036146024575f5ffd5b5f35801560495762001fff810690815414603c575f5ffd5b62001fff01545f5260205ff35b5f5ffd5b62001fff42064281555f359062001fff015500",
                "nonce" : "0x01",
                "storage" : {
                }
            },
            "0xa94f5374fce5edbc8e2a8697c15331677e6ebf0b" : {
                "balance" : "0x38beec8feeca2598",
                "code" : "0x",
                "nonce" : "0x00",
                "storage" : {
                }
            },
            "0xb94f5374fce5edbc8e2a8697c15331677e6ebf0b" : {
                "balance" : "0x00",
                "code" : "0x600060006000600060003562011170fa60015500",
                "nonce" : "0x3f",
                "storage" : {
                    "0x01" : "0x01"
                }
            },
            "0xc94f5374fce5edbc8e2a8697c15331677e6ebf0b" : {
                "balance" : "0x00",
                "code" : "0x6001600152600160016001f060025500",
                "nonce" : "0x3f",
                "storage" : {
                }
            },
            "0xd94f5374fce5edbc8e2a8697c15331677e6ebf0b" : {
                "balance" : "0x00",
                "code" : "0x60006000f0",
                "nonce" : "0x3f",
                "storage" : {
                }
            }
        },
        "sealEngine" : "NoProof"
    },
    "staticcall_createfails_d1g0v0_Cancun" : {
        "_info" : {
            "comment" : "",
            "filling-rpc-server" : "evmone-t8n 0.14.0-13+commit.4d363c36",
            "filling-tool-version" : "retesteth-0.3.2-legacy+commit.ca7f4c79.Linux.g++",
            "fixture-format" : "blockchain_test",
            "generatedTestHash" : "b2392a1438cdefa3433f21bcc4f15ac29632ce7207828031182e43e3d26aa999",
            "lllcversion" : "Version: 0.5.14-develop.2024.11.5+commit.b2b86751.mod.Linux.g++",
            "hyperion" : "Version: 0.8.24+commit.e11b9ed9.Linux.g++",
            "source" : "src/GeneralStateTestsFiller/stBugs/staticcall_createfailsFiller.json",
            "sourceHash" : "130e8f94e78586a1127d23d55160e86b54a7bbe1d0d544c87e31e870788cc1ed"
        },
        "blocks" : [
            {
                "blockHeader" : {
                    "baseFeePerGas" : "0x0a",
                    "bloom" : "0x00000000000000000000000000000000000000000000000000000000000000000000000000000000000000000000000000000000000000000000000000000000000000000000000000000000000000000000000000000000000000000000000000000000000000000000000000000000000000000000000000000000000000000000000000000000000000000000000000000000000000000000000000000000000000000000000000000000000000000000000000000000000000000000000000000000000000000000000000000000000000000000000000000000000000000000000000000000000000000000000000000000000000000000000000000000",
                    "coinbase" : "0x1000000000000000000000000000000000000000",
                    "extraData" : "0x00",
                    "gasLimit" : "0x54a60a4202e088",
                    "gasUsed" : "0x016ff0",
                    "hash" : "0xbe37d3eda42b464c282011bf66d4f8b79b82792cf13f0f80a04760655c929e6a",
                    "mixHash" : "0x0000000000000000000000000000000000000000000000000000000000020000",
                    "nonce" : "0x0000000000000000",
                    "number" : "0x01",
                    "parentHash" : "0xa4db713514082059bfa13ceaf5ecc54f8e5374a7da1a8cf2f67926be642f64f3",
                    "receiptTrie" : "0xb7722323bc8ac69deecb829f6689e6d7a139c8b6fc95c181aefc90ef7df9fb70",
                    "stateRoot" : "0x641a4afaefcc9c16858243d4213f2e7149c702345e7e10e6243adff221a6c0ad",
                    "timestamp" : "0x03e8",
                    "transactionsTrie" : "0x36d449cc4fc711cc644a1219172c4e1c5bcd91e69846ea907bf079dae3907981",
                    "withdrawalsRoot" : "0x56e81f171bcc55a6ff8345e692c0f86e5b48e01b996cadc001622fb5e363b421"
                },
                "rlp" : "0xf902c7f9023ea0a4db713514082059bfa13ceaf5ecc54f8e5374a7da1a8cf2f67926be642f64f3a01dcc4de8dec75d7aab85b567b6ccd41ad312451b948a7413f0a142fd40d49347941000000000000000000000000000000000000000a0641a4afaefcc9c16858243d4213f2e7149c702345e7e10e6243adff221a6c0ada036d449cc4fc711cc644a1219172c4e1c5bcd91e69846ea907bf079dae3907981a0b7722323bc8ac69deecb829f6689e6d7a139c8b6fc95c181aefc90ef7df9fb70b901000000000000000000000000000000000000000000000000000000000000000000000000000000000000000000000000000000000000000000000000000000000000000000000000000000000000000000000000000000000000000000000000000000000000000000000000000000000000000000000000000000000000000000000000000000000000000000000000000000000000000000000000000000000000000000000000000000000000000000000000000000000000000000000000000000000000000000000000000000000000000000000000000000000000000000000000000000000000000000000000000000000000000000000000000000000080018754a60a4202e08883016ff08203e800a000000000000000000000000000000000000000000000000000000000000200008800000000000000000aa056e81f171bcc55a6ff8345e692c0f86e5b48e01b996cadc001622fb5e363b4218080a00000000000000000000000000000000000000000000000000000000000000000f882f880800a8301d4c094b94f5374fce5edbc8e2a8697c15331677e6ebf0b80a0000000000000000000000000d94f5374fce5edbc8e2a8697c15331677e6ebf0b1ca0844567c660a6723df62f98f3128a2a836402265567f7cf94e4786a607abc50f5a021b48a2aa1f650049631c01b6dcf2524764c604c78bee31bd3319cdcb370675bc0c0",
                "transactions" : [
                    {
                        "data" : "0x000000000000000000000000d94f5374fce5edbc8e2a8697c15331677e6ebf0b",
                        "gasLimit" : "0x01d4c0",
                        "gasPrice" : "0x0a",
                        "nonce" : "0x00",
                        "r" : "0x844567c660a6723df62f98f3128a2a836402265567f7cf94e4786a607abc50f5",
                        "s" : "0x21b48a2aa1f650049631c01b6dcf2524764c604c78bee31bd3319cdcb370675b",
                        "sender" : "0xa94f5374fce5edbc8e2a8697c15331677e6ebf0b",
                        "to" : "0xb94f5374fce5edbc8e2a8697c15331677e6ebf0b",
                        "v" : "0x1c",
                        "value" : "0x00"
                    }
                ],
                "uncleHeaders" : [
                ],
                "withdrawals" : [
                ]
            }
        ],
        "config" : {
            "blobSchedule" : {
                "Cancun" : {
                    "baseFeeUpdateFraction" : "0x32f0ed",
                    "max" : "0x06",
                    "target" : "0x03"
                }
            },
            "chainid" : "0x01",
            "network" : "Cancun"
        },
        "genesisBlockHeader" : {
            "baseFeePerGas" : "0x0b",
            "bloom" : "0x00000000000000000000000000000000000000000000000000000000000000000000000000000000000000000000000000000000000000000000000000000000000000000000000000000000000000000000000000000000000000000000000000000000000000000000000000000000000000000000000000000000000000000000000000000000000000000000000000000000000000000000000000000000000000000000000000000000000000000000000000000000000000000000000000000000000000000000000000000000000000000000000000000000000000000000000000000000000000000000000000000000000000000000000000000000",
            "coinbase" : "0x1000000000000000000000000000000000000000",
            "extraData" : "0x00",
            "gasLimit" : "0x54a60a4202e088",
            "gasUsed" : "0x00",
            "hash" : "0xa4db713514082059bfa13ceaf5ecc54f8e5374a7da1a8cf2f67926be642f64f3",
            "mixHash" : "0x0000000000000000000000000000000000000000000000000000000000020000",
            "nonce" : "0x0000000000000000",
            "number" : "0x00",
            "parentHash" : "0x0000000000000000000000000000000000000000000000000000000000000000",
            "receiptTrie" : "0x56e81f171bcc55a6ff8345e692c0f86e5b48e01b996cadc001622fb5e363b421",
            "stateRoot" : "0xd2313105aff5e501dd8911655d7dce6869586ea8cfff652944d4f04046c7a492",
            "timestamp" : "0x00",
            "transactionsTrie" : "0x56e81f171bcc55a6ff8345e692c0f86e5b48e01b996cadc001622fb5e363b421",
            "withdrawalsRoot" : "0x56e81f171bcc55a6ff8345e692c0f86e5b48e01b996cadc001622fb5e363b421"
        },
        "genesisRLP" : "0xf90242f9023ca00000000000000000000000000000000000000000000000000000000000000000a01dcc4de8dec75d7aab85b567b6ccd41ad312451b948a7413f0a142fd40d49347941000000000000000000000000000000000000000a0d2313105aff5e501dd8911655d7dce6869586ea8cfff652944d4f04046c7a492a056e81f171bcc55a6ff8345e692c0f86e5b48e01b996cadc001622fb5e363b421a056e81f171bcc55a6ff8345e692c0f86e5b48e01b996cadc001622fb5e363b421b901000000000000000000000000000000000000000000000000000000000000000000000000000000000000000000000000000000000000000000000000000000000000000000000000000000000000000000000000000000000000000000000000000000000000000000000000000000000000000000000000000000000000000000000000000000000000000000000000000000000000000000000000000000000000000000000000000000000000000000000000000000000000000000000000000000000000000000000000000000000000000000000000000000000000000000000000000000000000000000000000000000000000000000000000000000000080808754a60a4202e088808000a000000000000000000000000000000000000000000000000000000000000200008800000000000000000ba056e81f171bcc55a6ff8345e692c0f86e5b48e01b996cadc001622fb5e363b4218083060000a00000000000000000000000000000000000000000000000000000000000000000c0c0c0",
        "lastblockhash" : "0xbe37d3eda42b464c282011bf66d4f8b79b82792cf13f0f80a04760655c929e6a",
        "network" : "Cancun",
        "postState" : {
            "0x000f3df6d732807ef1319fb7b8bb8522d0beac02" : {
                "balance" : "0x00",
                "code" : "0x3373fffffffffffffffffffffffffffffffffffffffe14604d57602036146024575f5ffd5b5f35801560495762001fff810690815414603c575f5ffd5b62001fff01545f5260205ff35b5f5ffd5b62001fff42064281555f359062001fff015500",
                "nonce" : "0x01",
                "storage" : {
                    "0x03e8" : "0x03e8"
                }
            },
            "0xa94f5374fce5edbc8e2a8697c15331677e6ebf0b" : {
                "balance" : "0x38beec8feebbc638",
                "code" : "0x",
                "nonce" : "0x01",
                "storage" : {
                }
            },
            "0xb94f5374fce5edbc8e2a8697c15331677e6ebf0b" : {
                "balance" : "0x00",
                "code" : "0x600060006000600060003562011170fa60015500",
                "nonce" : "0x3f",
                "storage" : {
                }
            },
            "0xc94f5374fce5edbc8e2a8697c15331677e6ebf0b" : {
                "balance" : "0x00",
                "code" : "0x6001600152600160016001f060025500",
                "nonce" : "0x3f",
                "storage" : {
                }
            },
            "0xd94f5374fce5edbc8e2a8697c15331677e6ebf0b" : {
                "balance" : "0x00",
                "code" : "0x60006000f0",
                "nonce" : "0x3f",
                "storage" : {
                }
            }
        },
        "pre" : {
            "0x000f3df6d732807ef1319fb7b8bb8522d0beac02" : {
                "balance" : "0x00",
                "code" : "0x3373fffffffffffffffffffffffffffffffffffffffe14604d57602036146024575f5ffd5b5f35801560495762001fff810690815414603c575f5ffd5b62001fff01545f5260205ff35b5f5ffd5b62001fff42064281555f359062001fff015500",
                "nonce" : "0x01",
                "storage" : {
                }
            },
            "0xa94f5374fce5edbc8e2a8697c15331677e6ebf0b" : {
                "balance" : "0x38beec8feeca2598",
                "code" : "0x",
                "nonce" : "0x00",
                "storage" : {
                }
            },
            "0xb94f5374fce5edbc8e2a8697c15331677e6ebf0b" : {
                "balance" : "0x00",
                "code" : "0x600060006000600060003562011170fa60015500",
                "nonce" : "0x3f",
                "storage" : {
                    "0x01" : "0x01"
                }
            },
            "0xc94f5374fce5edbc8e2a8697c15331677e6ebf0b" : {
                "balance" : "0x00",
                "code" : "0x6001600152600160016001f060025500",
                "nonce" : "0x3f",
                "storage" : {
                }
            },
            "0xd94f5374fce5edbc8e2a8697c15331677e6ebf0b" : {
                "balance" : "0x00",
                "code" : "0x60006000f0",
                "nonce" : "0x3f",
                "storage" : {
                }
            }
        },
        "sealEngine" : "NoProof"
    },
    "staticcall_createfails_d1g0v0_Prague" : {
        "_info" : {
            "comment" : "",
            "filling-rpc-server" : "evmone-t8n 0.14.0-13+commit.4d363c36",
            "filling-tool-version" : "retesteth-0.3.2-legacy+commit.ca7f4c79.Linux.g++",
            "fixture-format" : "blockchain_test",
            "generatedTestHash" : "96b968d59c21e959f5b5a01f908ea3bf9c18bd89ff6cb93938da3545fb003a7c",
            "lllcversion" : "Version: 0.5.14-develop.2024.11.5+commit.b2b86751.mod.Linux.g++",
            "hyperion" : "Version: 0.8.24+commit.e11b9ed9.Linux.g++",
            "source" : "src/GeneralStateTestsFiller/stBugs/staticcall_createfailsFiller.json",
            "sourceHash" : "130e8f94e78586a1127d23d55160e86b54a7bbe1d0d544c87e31e870788cc1ed"
        },
        "blocks" : [
            {
                "blockHeader" : {
                    "baseFeePerGas" : "0x0a",
                    "bloom" : "0x00000000000000000000000000000000000000000000000000000000000000000000000000000000000000000000000000000000000000000000000000000000000000000000000000000000000000000000000000000000000000000000000000000000000000000000000000000000000000000000000000000000000000000000000000000000000000000000000000000000000000000000000000000000000000000000000000000000000000000000000000000000000000000000000000000000000000000000000000000000000000000000000000000000000000000000000000000000000000000000000000000000000000000000000000000000",
                    "coinbase" : "0x1000000000000000000000000000000000000000",
                    "extraData" : "0x00",
                    "gasLimit" : "0x54a60a4202e088",
                    "gasUsed" : "0x016ff0",
                    "hash" : "0x04c12246c080661ff001147c7d9f8e67802eec55fed963f7725c96c6a7f88ac9",
                    "mixHash" : "0x0000000000000000000000000000000000000000000000000000000000020000",
                    "nonce" : "0x0000000000000000",
                    "number" : "0x01",
                    "parentHash" : "0x08a5d0c4c417040ca5f6c766a17aaeacc40ba9aff111600426e7772a0a7a6f6f",
                    "receiptTrie" : "0xb7722323bc8ac69deecb829f6689e6d7a139c8b6fc95c181aefc90ef7df9fb70",
                    "requestsHash" : "0xe3b0c44298fc1c149afbf4c8996fb92427ae41e4649b934ca495991b7852b855",
                    "stateRoot" : "0xab23d22287c44b8a85166e0c3159d3ddd2747f751ec29b37199a089631223c0b",
                    "timestamp" : "0x03e8",
                    "transactionsTrie" : "0x36d449cc4fc711cc644a1219172c4e1c5bcd91e69846ea907bf079dae3907981",
                    "withdrawalsRoot" : "0x56e81f171bcc55a6ff8345e692c0f86e5b48e01b996cadc001622fb5e363b421"
                },
                "rlp" : "0xf902e8f9025fa008a5d0c4c417040ca5f6c766a17aaeacc40ba9aff111600426e7772a0a7a6f6fa01dcc4de8dec75d7aab85b567b6ccd41ad312451b948a7413f0a142fd40d49347941000000000000000000000000000000000000000a0ab23d22287c44b8a85166e0c3159d3ddd2747f751ec29b37199a089631223c0ba036d449cc4fc711cc644a1219172c4e1c5bcd91e69846ea907bf079dae3907981a0b7722323bc8ac69deecb829f6689e6d7a139c8b6fc95c181aefc90ef7df9fb70b901000000000000000000000000000000000000000000000000000000000000000000000000000000000000000000000000000000000000000000000000000000000000000000000000000000000000000000000000000000000000000000000000000000000000000000000000000000000000000000000000000000000000000000000000000000000000000000000000000000000000000000000000000000000000000000000000000000000000000000000000000000000000000000000000000000000000000000000000000000000000000000000000000000000000000000000000000000000000000000000000000000000000000000000000000000000080018754a60a4202e08883016ff08203e800a000000000000000000000000000000000000000000000000000000000000200008800000000000000000aa056e81f171bcc55a6ff8345e692c0f86e5b48e01b996cadc001622fb5e363b4218080a00000000000000000000000000000000000000000000000000000000000000000a0e3b0c44298fc1c149afbf4c8996fb92427ae41e4649b934ca495991b7852b855f882f880800a8301d4c094b94f5374fce5edbc8e2a8697c15331677e6ebf0b80a0000000000000000000000000d94f5374fce5edbc8e2a8697c15331677e6ebf0b1ca0844567c660a6723df62f98f3128a2a836402265567f7cf94e4786a607abc50f5a021b48a2aa1f650049631c01b6dcf2524764c604c78bee31bd3319cdcb370675bc0c0",
                "transactions" : [
                    {
                        "data" : "0x000000000000000000000000d94f5374fce5edbc8e2a8697c15331677e6ebf0b",
                        "gasLimit" : "0x01d4c0",
                        "gasPrice" : "0x0a",
                        "nonce" : "0x00",
                        "r" : "0x844567c660a6723df62f98f3128a2a836402265567f7cf94e4786a607abc50f5",
                        "s" : "0x21b48a2aa1f650049631c01b6dcf2524764c604c78bee31bd3319cdcb370675b",
                        "sender" : "0xa94f5374fce5edbc8e2a8697c15331677e6ebf0b",
                        "to" : "0xb94f5374fce5edbc8e2a8697c15331677e6ebf0b",
                        "v" : "0x1c",
                        "value" : "0x00"
                    }
                ],
                "uncleHeaders" : [
                ],
                "withdrawals" : [
                ]
            }
        ],
        "config" : {
            "blobSchedule" : {
                "Prague" : {
                    "baseFeeUpdateFraction" : "0x4c6964",
                    "max" : "0x09",
                    "target" : "0x06"
                }
            },
            "chainid" : "0x01",
            "network" : "Prague"
        },
        "genesisBlockHeader" : {
            "baseFeePerGas" : "0x0b",
            "bloom" : "0x00000000000000000000000000000000000000000000000000000000000000000000000000000000000000000000000000000000000000000000000000000000000000000000000000000000000000000000000000000000000000000000000000000000000000000000000000000000000000000000000000000000000000000000000000000000000000000000000000000000000000000000000000000000000000000000000000000000000000000000000000000000000000000000000000000000000000000000000000000000000000000000000000000000000000000000000000000000000000000000000000000000000000000000000000000000",
            "coinbase" : "0x1000000000000000000000000000000000000000",
            "extraData" : "0x00",
            "gasLimit" : "0x54a60a4202e088",
            "gasUsed" : "0x00",
            "hash" : "0x08a5d0c4c417040ca5f6c766a17aaeacc40ba9aff111600426e7772a0a7a6f6f",
            "mixHash" : "0x0000000000000000000000000000000000000000000000000000000000020000",
            "nonce" : "0x0000000000000000",
            "number" : "0x00",
            "parentHash" : "0x0000000000000000000000000000000000000000000000000000000000000000",
            "receiptTrie" : "0x56e81f171bcc55a6ff8345e692c0f86e5b48e01b996cadc001622fb5e363b421",
            "requestsHash" : "0xe3b0c44298fc1c149afbf4c8996fb92427ae41e4649b934ca495991b7852b855",
            "stateRoot" : "0x5f07bed95ff51acb69606ea7f729dbf07c74f47a91b2824fea76939734b2bc91",
            "timestamp" : "0x00",
            "transactionsTrie" : "0x56e81f171bcc55a6ff8345e692c0f86e5b48e01b996cadc001622fb5e363b421",
            "withdrawalsRoot" : "0x56e81f171bcc55a6ff8345e692c0f86e5b48e01b996cadc001622fb5e363b421"
        },
        "genesisRLP" : "0xf90263f9025da00000000000000000000000000000000000000000000000000000000000000000a01dcc4de8dec75d7aab85b567b6ccd41ad312451b948a7413f0a142fd40d49347941000000000000000000000000000000000000000a05f07bed95ff51acb69606ea7f729dbf07c74f47a91b2824fea76939734b2bc91a056e81f171bcc55a6ff8345e692c0f86e5b48e01b996cadc001622fb5e363b421a056e81f171bcc55a6ff8345e692c0f86e5b48e01b996cadc001622fb5e363b421b901000000000000000000000000000000000000000000000000000000000000000000000000000000000000000000000000000000000000000000000000000000000000000000000000000000000000000000000000000000000000000000000000000000000000000000000000000000000000000000000000000000000000000000000000000000000000000000000000000000000000000000000000000000000000000000000000000000000000000000000000000000000000000000000000000000000000000000000000000000000000000000000000000000000000000000000000000000000000000000000000000000000000000000000000000000000080808754a60a4202e088808000a000000000000000000000000000000000000000000000000000000000000200008800000000000000000ba056e81f171bcc55a6ff8345e692c0f86e5b48e01b996cadc001622fb5e363b4218083060000a00000000000000000000000000000000000000000000000000000000000000000a0e3b0c44298fc1c149afbf4c8996fb92427ae41e4649b934ca495991b7852b855c0c0c0",
        "lastblockhash" : "0x04c12246c080661ff001147c7d9f8e67802eec55fed963f7725c96c6a7f88ac9",
        "network" : "Prague",
        "postState" : {
            "0x0000f90827f1c53a10cb7a02335b175320002935" : {
                "balance" : "0x00",
                "code" : "0x3373fffffffffffffffffffffffffffffffffffffffe14604657602036036042575f35600143038111604257611fff81430311604257611fff9006545f5260205ff35b5f5ffd5b5f35611fff60014303065500",
                "nonce" : "0x01",
                "storage" : {
                    "0x00" : "0x08a5d0c4c417040ca5f6c766a17aaeacc40ba9aff111600426e7772a0a7a6f6f"
                }
            },
            "0x000f3df6d732807ef1319fb7b8bb8522d0beac02" : {
                "balance" : "0x00",
                "code" : "0x3373fffffffffffffffffffffffffffffffffffffffe14604d57602036146024575f5ffd5b5f35801560495762001fff810690815414603c575f5ffd5b62001fff01545f5260205ff35b5f5ffd5b62001fff42064281555f359062001fff015500",
                "nonce" : "0x01",
                "storage" : {
                    "0x03e8" : "0x03e8"
                }
            },
            "0xa94f5374fce5edbc8e2a8697c15331677e6ebf0b" : {
                "balance" : "0x38beec8feebbc638",
                "code" : "0x",
                "nonce" : "0x01",
                "storage" : {
                }
            },
            "0xb94f5374fce5edbc8e2a8697c15331677e6ebf0b" : {
                "balance" : "0x00",
                "code" : "0x600060006000600060003562011170fa60015500",
                "nonce" : "0x3f",
                "storage" : {
                }
            },
            "0xc94f5374fce5edbc8e2a8697c15331677e6ebf0b" : {
                "balance" : "0x00",
                "code" : "0x6001600152600160016001f060025500",
                "nonce" : "0x3f",
                "storage" : {
                }
            },
            "0xd94f5374fce5edbc8e2a8697c15331677e6ebf0b" : {
                "balance" : "0x00",
                "code" : "0x60006000f0",
                "nonce" : "0x3f",
                "storage" : {
                }
            }
        },
        "pre" : {
            "0x0000f90827f1c53a10cb7a02335b175320002935" : {
                "balance" : "0x00",
                "code" : "0x3373fffffffffffffffffffffffffffffffffffffffe14604657602036036042575f35600143038111604257611fff81430311604257611fff9006545f5260205ff35b5f5ffd5b5f35611fff60014303065500",
                "nonce" : "0x01",
                "storage" : {
                }
            },
            "0x000f3df6d732807ef1319fb7b8bb8522d0beac02" : {
                "balance" : "0x00",
                "code" : "0x3373fffffffffffffffffffffffffffffffffffffffe14604d57602036146024575f5ffd5b5f35801560495762001fff810690815414603c575f5ffd5b62001fff01545f5260205ff35b5f5ffd5b62001fff42064281555f359062001fff015500",
                "nonce" : "0x01",
                "storage" : {
                }
            },
            "0xa94f5374fce5edbc8e2a8697c15331677e6ebf0b" : {
                "balance" : "0x38beec8feeca2598",
                "code" : "0x",
                "nonce" : "0x00",
                "storage" : {
                }
            },
            "0xb94f5374fce5edbc8e2a8697c15331677e6ebf0b" : {
                "balance" : "0x00",
                "code" : "0x600060006000600060003562011170fa60015500",
                "nonce" : "0x3f",
                "storage" : {
                    "0x01" : "0x01"
                }
            },
            "0xc94f5374fce5edbc8e2a8697c15331677e6ebf0b" : {
                "balance" : "0x00",
                "code" : "0x6001600152600160016001f060025500",
                "nonce" : "0x3f",
                "storage" : {
                }
            },
            "0xd94f5374fce5edbc8e2a8697c15331677e6ebf0b" : {
                "balance" : "0x00",
                "code" : "0x60006000f0",
                "nonce" : "0x3f",
                "storage" : {
                }
            }
        },
        "sealEngine" : "NoProof"
    }
}