{
    "createInitCodeSizeLimit_d0g0v0_Cancun" : {
        "_info" : {
            "comment" : "",
            "filling-rpc-server" : "evmone-t8n 0.14.0-13+commit.4d363c36",
            "filling-tool-version" : "retesteth-0.3.2-legacy+commit.ca7f4c79.Linux.g++",
            "fixture-format" : "blockchain_test",
            "generatedTestHash" : "d94b0a7176ee3395567be6e2c23146118df5e135d1a5e9827422ef1d04b1df19",
            "lllcversion" : "Version: 0.5.14-develop.2024.11.5+commit.b2b86751.mod.Linux.g++",
            "hyperion" : "Version: 0.8.24+commit.e11b9ed9.Linux.g++",
            "source" : "src/GeneralStateTestsFiller/Shanghai/stEIP3860-limitmeterinitcode/createInitCodeSizeLimitFiller.yml",
            "sourceHash" : "60491adb8a70f263af3464aba6926855ce69a02c95a69d22adfc07ddb987d819"
        },
        "blocks" : [
            {
                "blockHeader" : {
                    "baseFeePerGas" : "0x0a",
                    "bloom" : "0x00000000000000000000000000000000000000000000000000000000000000000000000000000000000000000000000000000000000000000000000000000000000000000000000000000000000000000000000000000000000000000000000000000000000000000000000000000000000000000000000000000000000000000000000000000000000000000000000000000000000000000000000000000000000000000000000000000000000000000000000000000000000000000000000000000000000000000000000000000000000000000000000000000000000000000000000000000000000000000000000000000000000000000000000000000000",
                    "coinbase" : "0x2adc25665018aa1fe0e6bc666dac8fc2697ff9ba",
                    "extraData" : "0x00",
                    "gasLimit" : "0x01312d00",
                    "gasUsed" : "0x026b54",
                    "hash" : "0xb946379d7e8aa87b1f0cc5fc2c754756c66ed723e3e9e48aba57aa52ff9730ef",
                    "mixHash" : "0x0000000000000000000000000000000000000000000000000000000000020000",
                    "nonce" : "0x0000000000000000",
                    "number" : "0x01",
                    "parentHash" : "0xf2217055817677b5532dbb9990c08fe452df65dce540623056201a791c880446",
                    "receiptTrie" : "0xa0f4a797e832009287e53a1a8fe2f10d0965334fd1af8e4263bf229df0fc653c",
                    "stateRoot" : "0x93b3fd7ccf9a0ee8653cafede97d63e88c0d7c1ee2aa8c59a04100f03c63f3a3",
                    "timestamp" : "0x03e8",
                    "transactionsTrie" : "0x273c7787821876c7e4de1c6d186269b7654020dd31536c52caf96fd1a5ba6c64",
                    "withdrawalsRoot" : "0x56e81f171bcc55a6ff8345e692c0f86e5b48e01b996cadc001622fb5e363b421"
                },
                "rlp" : "0xf902c4f9023ba0f2217055817677b5532dbb9990c08fe452df65dce540623056201a791c880446a01dcc4de8dec75d7aab85b567b6ccd41ad312451b948a7413f0a142fd40d49347942adc25665018aa1fe0e6bc666dac8fc2697ff9baa093b3fd7ccf9a0ee8653cafede97d63e88c0d7c1ee2aa8c59a04100f03c63f3a3a0273c7787821876c7e4de1c6d186269b7654020dd31536c52caf96fd1a5ba6c64a0a0f4a797e832009287e53a1a8fe2f10d0965334fd1af8e4263bf229df0fc653cb901000000000000000000000000000000000000000000000000000000000000000000000000000000000000000000000000000000000000000000000000000000000000000000000000000000000000000000000000000000000000000000000000000000000000000000000000000000000000000000000000000000000000000000000000000000000000000000000000000000000000000000000000000000000000000000000000000000000000000000000000000000000000000000000000000000000000000000000000000000000000000000000000000000000000000000000000000000000000000000000000000000000000000000000000000000000080018401312d0083026b548203e800a000000000000000000000000000000000000000000000000000000000000200008800000000000000000aa056e81f171bcc55a6ff8345e692c0f86e5b48e01b996cadc001622fb5e363b4218080a00000000000000000000000000000000000000000000000000000000000000000f882f880010a83e4e1c094bbbbbbbbbbbbbbbbbbbbbbbbbbbbbbbbbbbbbbbb80a0000000000000000000000000000000000000000000000000000000000000c0001ca09c4a169aaa70e40d510a89157262c5a22b69aee3e9ad825b0b3ee27200a9bb01a052fe2384e2c813557c2f0c9cb274f5b76c6fc8640505c32f3c255d56e4432ae1c0c0",
                "transactions" : [
                    {
                        "data" : "0x000000000000000000000000000000000000000000000000000000000000c000",
                        "gasLimit" : "0xe4e1c0",
                        "gasPrice" : "0x0a",
                        "nonce" : "0x01",
                        "signature" : "0x9c4a169aaa70e40d510a89157262c5a22b69aee3e9ad825b0b3ee27200a9bb01",
                        "publicKey" : "0x52fe2384e2c813557c2f0c9cb274f5b76c6fc8640505c32f3c255d56e4432ae1",
                        "sender" : "Za94f5374fce5edbc8e2a8697c15331677e6ebf0b",
                        "to" : "0xbbbbbbbbbbbbbbbbbbbbbbbbbbbbbbbbbbbbbbbb",
                        "v" : "0x1c",
                        "value" : "0x00"
                    }
                ],
                "uncleHeaders" : [
                ],
                "withdrawals" : [
                ]
            }
        ],
        "config" : {
            "blobSchedule" : {
                "Cancun" : {
                    "baseFeeUpdateFraction" : "0x32f0ed",
                    "max" : "0x06",
                    "target" : "0x03"
                }
            },
            "chainid" : "0x01",
            "network" : "Cancun"
        },
        "genesisBlockHeader" : {
            "baseFeePerGas" : "0x0b",
            "bloom" : "0x00000000000000000000000000000000000000000000000000000000000000000000000000000000000000000000000000000000000000000000000000000000000000000000000000000000000000000000000000000000000000000000000000000000000000000000000000000000000000000000000000000000000000000000000000000000000000000000000000000000000000000000000000000000000000000000000000000000000000000000000000000000000000000000000000000000000000000000000000000000000000000000000000000000000000000000000000000000000000000000000000000000000000000000000000000000",
            "coinbase" : "0x2adc25665018aa1fe0e6bc666dac8fc2697ff9ba",
            "extraData" : "0x00",
            "gasLimit" : "0x01312d00",
            "gasUsed" : "0x00",
            "hash" : "0xf2217055817677b5532dbb9990c08fe452df65dce540623056201a791c880446",
            "mixHash" : "0x0000000000000000000000000000000000000000000000000000000000020000",
            "nonce" : "0x0000000000000000",
            "number" : "0x00",
            "parentHash" : "0x0000000000000000000000000000000000000000000000000000000000000000",
            "receiptTrie" : "0x56e81f171bcc55a6ff8345e692c0f86e5b48e01b996cadc001622fb5e363b421",
            "stateRoot" : "0xdd176971265b31e5d43d7619e1c9af4b6a652732118c3db91a26bdf59052512f",
            "timestamp" : "0x00",
            "transactionsTrie" : "0x56e81f171bcc55a6ff8345e692c0f86e5b48e01b996cadc001622fb5e363b421",
            "withdrawalsRoot" : "0x56e81f171bcc55a6ff8345e692c0f86e5b48e01b996cadc001622fb5e363b421"
        },
        "genesisRLP" : "0xf9023ff90239a00000000000000000000000000000000000000000000000000000000000000000a01dcc4de8dec75d7aab85b567b6ccd41ad312451b948a7413f0a142fd40d49347942adc25665018aa1fe0e6bc666dac8fc2697ff9baa0dd176971265b31e5d43d7619e1c9af4b6a652732118c3db91a26bdf59052512fa056e81f171bcc55a6ff8345e692c0f86e5b48e01b996cadc001622fb5e363b421a056e81f171bcc55a6ff8345e692c0f86e5b48e01b996cadc001622fb5e363b421b901000000000000000000000000000000000000000000000000000000000000000000000000000000000000000000000000000000000000000000000000000000000000000000000000000000000000000000000000000000000000000000000000000000000000000000000000000000000000000000000000000000000000000000000000000000000000000000000000000000000000000000000000000000000000000000000000000000000000000000000000000000000000000000000000000000000000000000000000000000000000000000000000000000000000000000000000000000000000000000000000000000000000000000000000000000000080808401312d00808000a000000000000000000000000000000000000000000000000000000000000200008800000000000000000ba056e81f171bcc55a6ff8345e692c0f86e5b48e01b996cadc001622fb5e363b4218083060000a00000000000000000000000000000000000000000000000000000000000000000c0c0c0",
        "lastblockhash" : "0xb946379d7e8aa87b1f0cc5fc2c754756c66ed723e3e9e48aba57aa52ff9730ef",
        "network" : "Cancun",
        "postState" : {
            "Z000000000000000000000000000000000000c0de" : {
                "balance" : "0x00",
                "code" : "0x69600a80600080396000f360b01b6000908152355a90600080f0905a9003600a5560005500",
                "nonce" : "0x02",
                "storage" : {
                    "0x00" : "0x5f6baaeb5b7c97725f84d1569c4abc85135f4716",
                    "0x0a" : "0xb4f3"
                }
            },
            "0x000f3df6d732807ef1319fb7b8bb8522d0beac02" : {
                "balance" : "0x00",
                "code" : "0x3373fffffffffffffffffffffffffffffffffffffffe14604d57602036146024575f5ffd5b5f35801560495762001fff810690815414603c575f5ffd5b62001fff01545f5260205ff35b5f5ffd5b62001fff42064281555f359062001fff015500",
                "nonce" : "0x01",
                "storage" : {
                    "0x03e8" : "0x03e8"
                }
            },
            "0x5f6baaeb5b7c97725f84d1569c4abc85135f4716" : {
                "balance" : "0x00",
                "code" : "0x600a80600080396000f3",
                "nonce" : "0x01",
                "storage" : {
                }
            },
            "0xa94f5374fce5edbc8e2a8697c15331677e6ebf0b" : {
                "balance" : "0x0bd390b8",
                "code" : "0x",
                "nonce" : "0x02",
                "storage" : {
                }
            },
            "0xbbbbbbbbbbbbbbbbbbbbbbbbbbbbbbbbbbbbbbbb" : {
                "balance" : "0x00",
                "code" : "0x60003560005260008036818061c0de62989680f16000556001805500",
                "nonce" : "0x01",
                "storage" : {
                    "0x00" : "0x01",
                    "0x01" : "0x01"
                }
            }
        },
        "pre" : {
            "Z000000000000000000000000000000000000c0de" : {
                "balance" : "0x00",
                "code" : "0x69600a80600080396000f360b01b6000908152355a90600080f0905a9003600a5560005500",
                "nonce" : "0x01",
                "storage" : {
                }
            },
            "0x000f3df6d732807ef1319fb7b8bb8522d0beac02" : {
                "balance" : "0x00",
                "code" : "0x3373fffffffffffffffffffffffffffffffffffffffe14604d57602036146024575f5ffd5b5f35801560495762001fff810690815414603c575f5ffd5b62001fff01545f5260205ff35b5f5ffd5b62001fff42064281555f359062001fff015500",
                "nonce" : "0x01",
                "storage" : {
                }
            },
            "0xa94f5374fce5edbc8e2a8697c15331677e6ebf0b" : {
                "balance" : "0x0bebc200",
                "code" : "0x",
                "nonce" : "0x01",
                "storage" : {
                }
            },
            "0xbbbbbbbbbbbbbbbbbbbbbbbbbbbbbbbbbbbbbbbb" : {
                "balance" : "0x00",
                "code" : "0x60003560005260008036818061c0de62989680f16000556001805500",
                "nonce" : "0x01",
                "storage" : {
                }
            }
        },
        "sealEngine" : "NoProof"
    },
    "createInitCodeSizeLimit_d0g0v0_Prague" : {
        "_info" : {
            "comment" : "",
            "filling-rpc-server" : "evmone-t8n 0.14.0-13+commit.4d363c36",
            "filling-tool-version" : "retesteth-0.3.2-legacy+commit.ca7f4c79.Linux.g++",
            "fixture-format" : "blockchain_test",
            "generatedTestHash" : "6cbfee2a00e6d0f839cfc63422c475f4cc63890ba39c5ec974386d01aacc1280",
            "lllcversion" : "Version: 0.5.14-develop.2024.11.5+commit.b2b86751.mod.Linux.g++",
            "hyperion" : "Version: 0.8.24+commit.e11b9ed9.Linux.g++",
            "source" : "src/GeneralStateTestsFiller/Shanghai/stEIP3860-limitmeterinitcode/createInitCodeSizeLimitFiller.yml",
            "sourceHash" : "60491adb8a70f263af3464aba6926855ce69a02c95a69d22adfc07ddb987d819"
        },
        "blocks" : [
            {
                "blockHeader" : {
                    "baseFeePerGas" : "0x0a",
                    "bloom" : "0x00000000000000000000000000000000000000000000000000000000000000000000000000000000000000000000000000000000000000000000000000000000000000000000000000000000000000000000000000000000000000000000000000000000000000000000000000000000000000000000000000000000000000000000000000000000000000000000000000000000000000000000000000000000000000000000000000000000000000000000000000000000000000000000000000000000000000000000000000000000000000000000000000000000000000000000000000000000000000000000000000000000000000000000000000000000",
                    "coinbase" : "0x2adc25665018aa1fe0e6bc666dac8fc2697ff9ba",
                    "extraData" : "0x00",
                    "gasLimit" : "0x01312d00",
                    "gasUsed" : "0x026b54",
                    "hash" : "0x43785c3466faf6bf971ec7fd82adc131ef8a6a06f80816757ca0f9798b1cd4c6",
                    "mixHash" : "0x0000000000000000000000000000000000000000000000000000000000020000",
                    "nonce" : "0x0000000000000000",
                    "number" : "0x01",
                    "parentHash" : "0x0bb7cbeae8c107b40f57cdbe4ac9b0800e55c09ceb4b3d6a39b8461f9841557d",
                    "receiptTrie" : "0xa0f4a797e832009287e53a1a8fe2f10d0965334fd1af8e4263bf229df0fc653c",
                    "requestsHash" : "0xe3b0c44298fc1c149afbf4c8996fb92427ae41e4649b934ca495991b7852b855",
                    "stateRoot" : "0xcaab0340e1f8ea913ba30989edfd227ef22b62cb23914da9be575b3caf4608a7",
                    "timestamp" : "0x03e8",
                    "transactionsTrie" : "0x273c7787821876c7e4de1c6d186269b7654020dd31536c52caf96fd1a5ba6c64",
                    "withdrawalsRoot" : "0x56e81f171bcc55a6ff8345e692c0f86e5b48e01b996cadc001622fb5e363b421"
                },
                "rlp" : "0xf902e5f9025ca00bb7cbeae8c107b40f57cdbe4ac9b0800e55c09ceb4b3d6a39b8461f9841557da01dcc4de8dec75d7aab85b567b6ccd41ad312451b948a7413f0a142fd40d49347942adc25665018aa1fe0e6bc666dac8fc2697ff9baa0caab0340e1f8ea913ba30989edfd227ef22b62cb23914da9be575b3caf4608a7a0273c7787821876c7e4de1c6d186269b7654020dd31536c52caf96fd1a5ba6c64a0a0f4a797e832009287e53a1a8fe2f10d0965334fd1af8e4263bf229df0fc653cb901000000000000000000000000000000000000000000000000000000000000000000000000000000000000000000000000000000000000000000000000000000000000000000000000000000000000000000000000000000000000000000000000000000000000000000000000000000000000000000000000000000000000000000000000000000000000000000000000000000000000000000000000000000000000000000000000000000000000000000000000000000000000000000000000000000000000000000000000000000000000000000000000000000000000000000000000000000000000000000000000000000000000000000000000000000000080018401312d0083026b548203e800a000000000000000000000000000000000000000000000000000000000000200008800000000000000000aa056e81f171bcc55a6ff8345e692c0f86e5b48e01b996cadc001622fb5e363b4218080a00000000000000000000000000000000000000000000000000000000000000000a0e3b0c44298fc1c149afbf4c8996fb92427ae41e4649b934ca495991b7852b855f882f880010a83e4e1c094bbbbbbbbbbbbbbbbbbbbbbbbbbbbbbbbbbbbbbbb80a0000000000000000000000000000000000000000000000000000000000000c0001ca09c4a169aaa70e40d510a89157262c5a22b69aee3e9ad825b0b3ee27200a9bb01a052fe2384e2c813557c2f0c9cb274f5b76c6fc8640505c32f3c255d56e4432ae1c0c0",
                "transactions" : [
                    {
                        "data" : "0x000000000000000000000000000000000000000000000000000000000000c000",
                        "gasLimit" : "0xe4e1c0",
                        "gasPrice" : "0x0a",
                        "nonce" : "0x01",
                        "signature" : "0x9c4a169aaa70e40d510a89157262c5a22b69aee3e9ad825b0b3ee27200a9bb01",
                        "publicKey" : "0x52fe2384e2c813557c2f0c9cb274f5b76c6fc8640505c32f3c255d56e4432ae1",
                        "sender" : "Za94f5374fce5edbc8e2a8697c15331677e6ebf0b",
                        "to" : "0xbbbbbbbbbbbbbbbbbbbbbbbbbbbbbbbbbbbbbbbb",
                        "v" : "0x1c",
                        "value" : "0x00"
                    }
                ],
                "uncleHeaders" : [
                ],
                "withdrawals" : [
                ]
            }
        ],
        "config" : {
            "blobSchedule" : {
                "Prague" : {
                    "baseFeeUpdateFraction" : "0x4c6964",
                    "max" : "0x09",
                    "target" : "0x06"
                }
            },
            "chainid" : "0x01",
            "network" : "Prague"
        },
        "genesisBlockHeader" : {
            "baseFeePerGas" : "0x0b",
            "bloom" : "0x00000000000000000000000000000000000000000000000000000000000000000000000000000000000000000000000000000000000000000000000000000000000000000000000000000000000000000000000000000000000000000000000000000000000000000000000000000000000000000000000000000000000000000000000000000000000000000000000000000000000000000000000000000000000000000000000000000000000000000000000000000000000000000000000000000000000000000000000000000000000000000000000000000000000000000000000000000000000000000000000000000000000000000000000000000000",
            "coinbase" : "0x2adc25665018aa1fe0e6bc666dac8fc2697ff9ba",
            "extraData" : "0x00",
            "gasLimit" : "0x01312d00",
            "gasUsed" : "0x00",
            "hash" : "0x0bb7cbeae8c107b40f57cdbe4ac9b0800e55c09ceb4b3d6a39b8461f9841557d",
            "mixHash" : "0x0000000000000000000000000000000000000000000000000000000000020000",
            "nonce" : "0x0000000000000000",
            "number" : "0x00",
            "parentHash" : "0x0000000000000000000000000000000000000000000000000000000000000000",
            "receiptTrie" : "0x56e81f171bcc55a6ff8345e692c0f86e5b48e01b996cadc001622fb5e363b421",
            "requestsHash" : "0xe3b0c44298fc1c149afbf4c8996fb92427ae41e4649b934ca495991b7852b855",
            "stateRoot" : "0x5bfa4d1673170bdb7b770d6837b9f1ee54fba97a502629affa9099a12419fec8",
            "timestamp" : "0x00",
            "transactionsTrie" : "0x56e81f171bcc55a6ff8345e692c0f86e5b48e01b996cadc001622fb5e363b421",
            "withdrawalsRoot" : "0x56e81f171bcc55a6ff8345e692c0f86e5b48e01b996cadc001622fb5e363b421"
        },
        "genesisRLP" : "0xf90260f9025aa00000000000000000000000000000000000000000000000000000000000000000a01dcc4de8dec75d7aab85b567b6ccd41ad312451b948a7413f0a142fd40d49347942adc25665018aa1fe0e6bc666dac8fc2697ff9baa05bfa4d1673170bdb7b770d6837b9f1ee54fba97a502629affa9099a12419fec8a056e81f171bcc55a6ff8345e692c0f86e5b48e01b996cadc001622fb5e363b421a056e81f171bcc55a6ff8345e692c0f86e5b48e01b996cadc001622fb5e363b421b901000000000000000000000000000000000000000000000000000000000000000000000000000000000000000000000000000000000000000000000000000000000000000000000000000000000000000000000000000000000000000000000000000000000000000000000000000000000000000000000000000000000000000000000000000000000000000000000000000000000000000000000000000000000000000000000000000000000000000000000000000000000000000000000000000000000000000000000000000000000000000000000000000000000000000000000000000000000000000000000000000000000000000000000000000000000080808401312d00808000a000000000000000000000000000000000000000000000000000000000000200008800000000000000000ba056e81f171bcc55a6ff8345e692c0f86e5b48e01b996cadc001622fb5e363b4218083060000a00000000000000000000000000000000000000000000000000000000000000000a0e3b0c44298fc1c149afbf4c8996fb92427ae41e4649b934ca495991b7852b855c0c0c0",
        "lastblockhash" : "0x43785c3466faf6bf971ec7fd82adc131ef8a6a06f80816757ca0f9798b1cd4c6",
        "network" : "Prague",
        "postState" : {
            "Z000000000000000000000000000000000000c0de" : {
                "balance" : "0x00",
                "code" : "0x69600a80600080396000f360b01b6000908152355a90600080f0905a9003600a5560005500",
                "nonce" : "0x02",
                "storage" : {
                    "0x00" : "0x5f6baaeb5b7c97725f84d1569c4abc85135f4716",
                    "0x0a" : "0xb4f3"
                }
            },
            "0x0000f90827f1c53a10cb7a02335b175320002935" : {
                "balance" : "0x00",
                "code" : "0x3373fffffffffffffffffffffffffffffffffffffffe14604657602036036042575f35600143038111604257611fff81430311604257611fff9006545f5260205ff35b5f5ffd5b5f35611fff60014303065500",
                "nonce" : "0x01",
                "storage" : {
                    "0x00" : "0x0bb7cbeae8c107b40f57cdbe4ac9b0800e55c09ceb4b3d6a39b8461f9841557d"
                }
            },
            "0x000f3df6d732807ef1319fb7b8bb8522d0beac02" : {
                "balance" : "0x00",
                "code" : "0x3373fffffffffffffffffffffffffffffffffffffffe14604d57602036146024575f5ffd5b5f35801560495762001fff810690815414603c575f5ffd5b62001fff01545f5260205ff35b5f5ffd5b62001fff42064281555f359062001fff015500",
                "nonce" : "0x01",
                "storage" : {
                    "0x03e8" : "0x03e8"
                }
            },
            "0x5f6baaeb5b7c97725f84d1569c4abc85135f4716" : {
                "balance" : "0x00",
                "code" : "0x600a80600080396000f3",
                "nonce" : "0x01",
                "storage" : {
                }
            },
            "0xa94f5374fce5edbc8e2a8697c15331677e6ebf0b" : {
                "balance" : "0x0bd390b8",
                "code" : "0x",
                "nonce" : "0x02",
                "storage" : {
                }
            },
            "0xbbbbbbbbbbbbbbbbbbbbbbbbbbbbbbbbbbbbbbbb" : {
                "balance" : "0x00",
                "code" : "0x60003560005260008036818061c0de62989680f16000556001805500",
                "nonce" : "0x01",
                "storage" : {
                    "0x00" : "0x01",
                    "0x01" : "0x01"
                }
            }
        },
        "pre" : {
            "Z000000000000000000000000000000000000c0de" : {
                "balance" : "0x00",
                "code" : "0x69600a80600080396000f360b01b6000908152355a90600080f0905a9003600a5560005500",
                "nonce" : "0x01",
                "storage" : {
                }
            },
            "0x0000f90827f1c53a10cb7a02335b175320002935" : {
                "balance" : "0x00",
                "code" : "0x3373fffffffffffffffffffffffffffffffffffffffe14604657602036036042575f35600143038111604257611fff81430311604257611fff9006545f5260205ff35b5f5ffd5b5f35611fff60014303065500",
                "nonce" : "0x01",
                "storage" : {
                }
            },
            "0x000f3df6d732807ef1319fb7b8bb8522d0beac02" : {
                "balance" : "0x00",
                "code" : "0x3373fffffffffffffffffffffffffffffffffffffffe14604d57602036146024575f5ffd5b5f35801560495762001fff810690815414603c575f5ffd5b62001fff01545f5260205ff35b5f5ffd5b62001fff42064281555f359062001fff015500",
                "nonce" : "0x01",
                "storage" : {
                }
            },
            "0xa94f5374fce5edbc8e2a8697c15331677e6ebf0b" : {
                "balance" : "0x0bebc200",
                "code" : "0x",
                "nonce" : "0x01",
                "storage" : {
                }
            },
            "0xbbbbbbbbbbbbbbbbbbbbbbbbbbbbbbbbbbbbbbbb" : {
                "balance" : "0x00",
                "code" : "0x60003560005260008036818061c0de62989680f16000556001805500",
                "nonce" : "0x01",
                "storage" : {
                }
            }
        },
        "sealEngine" : "NoProof"
    },
    "createInitCodeSizeLimit_d1g0v0_Cancun" : {
        "_info" : {
            "comment" : "",
            "filling-rpc-server" : "evmone-t8n 0.14.0-13+commit.4d363c36",
            "filling-tool-version" : "retesteth-0.3.2-legacy+commit.ca7f4c79.Linux.g++",
            "fixture-format" : "blockchain_test",
            "generatedTestHash" : "4aca93b4639ac191b7b1f803f05d5018166207441f79f6ea9f1d1e3ec1148677",
            "lllcversion" : "Version: 0.5.14-develop.2024.11.5+commit.b2b86751.mod.Linux.g++",
            "hyperion" : "Version: 0.8.24+commit.e11b9ed9.Linux.g++",
            "source" : "src/GeneralStateTestsFiller/Shanghai/stEIP3860-limitmeterinitcode/createInitCodeSizeLimitFiller.yml",
            "sourceHash" : "60491adb8a70f263af3464aba6926855ce69a02c95a69d22adfc07ddb987d819"
        },
        "blocks" : [
            {
                "blockHeader" : {
                    "baseFeePerGas" : "0x0a",
                    "bloom" : "0x00000000000000000000000000000000000000000000000000000000000000000000000000000000000000000000000000000000000000000000000000000000000000000000000000000000000000000000000000000000000000000000000000000000000000000000000000000000000000000000000000000000000000000000000000000000000000000000000000000000000000000000000000000000000000000000000000000000000000000000000000000000000000000000000000000000000000000000000000000000000000000000000000000000000000000000000000000000000000000000000000000000000000000000000000000000",
                    "coinbase" : "0x2adc25665018aa1fe0e6bc666dac8fc2697ff9ba",
                    "extraData" : "0x00",
                    "gasLimit" : "0x01312d00",
                    "gasUsed" : "0x995260",
                    "hash" : "0x52b953b0bd99f6e678e06a2247f30c90c7be5f30e50b0130b63f3a6db2fa4754",
                    "mixHash" : "0x0000000000000000000000000000000000000000000000000000000000020000",
                    "nonce" : "0x0000000000000000",
                    "number" : "0x01",
                    "parentHash" : "0xf2217055817677b5532dbb9990c08fe452df65dce540623056201a791c880446",
                    "receiptTrie" : "0xecba10fbf1bca2fde39dcf1d00ef6c78716f7a486d4928ebaf0246ec27e3a4e8",
                    "stateRoot" : "0xf1523a84bfd716f669660fd078700321445f1bbc48843d56e259e1b1248bad2e",
                    "timestamp" : "0x03e8",
                    "transactionsTrie" : "0xfdc8efef8d254f8a53a881a6dc251713c0d7ab2d4313ea5ac148a8ac43901965",
                    "withdrawalsRoot" : "0x56e81f171bcc55a6ff8345e692c0f86e5b48e01b996cadc001622fb5e363b421"
                },
                "rlp" : "0xf902c4f9023ba0f2217055817677b5532dbb9990c08fe452df65dce540623056201a791c880446a01dcc4de8dec75d7aab85b567b6ccd41ad312451b948a7413f0a142fd40d49347942adc25665018aa1fe0e6bc666dac8fc2697ff9baa0f1523a84bfd716f669660fd078700321445f1bbc48843d56e259e1b1248bad2ea0fdc8efef8d254f8a53a881a6dc251713c0d7ab2d4313ea5ac148a8ac43901965a0ecba10fbf1bca2fde39dcf1d00ef6c78716f7a486d4928ebaf0246ec27e3a4e8b901000000000000000000000000000000000000000000000000000000000000000000000000000000000000000000000000000000000000000000000000000000000000000000000000000000000000000000000000000000000000000000000000000000000000000000000000000000000000000000000000000000000000000000000000000000000000000000000000000000000000000000000000000000000000000000000000000000000000000000000000000000000000000000000000000000000000000000000000000000000000000000000000000000000000000000000000000000000000000000000000000000000000000000000000000000000080018401312d00839952608203e800a000000000000000000000000000000000000000000000000000000000000200008800000000000000000aa056e81f171bcc55a6ff8345e692c0f86e5b48e01b996cadc001622fb5e363b4218080a00000000000000000000000000000000000000000000000000000000000000000f882f880010a83e4e1c094bbbbbbbbbbbbbbbbbbbbbbbbbbbbbbbbbbbbbbbb80a0000000000000000000000000000000000000000000000000000000000000c0011ba03c803b1d3ec8d1cb3d369b7b80bc55f80f584816f772d23f62cc0469823b3974a0047a204016a0970ff2999a2ae517eea953df6e72a3182e7ec60da8ff59f8c522c0c0",
                "transactions" : [
                    {
                        "data" : "0x000000000000000000000000000000000000000000000000000000000000c001",
                        "gasLimit" : "0xe4e1c0",
                        "gasPrice" : "0x0a",
                        "nonce" : "0x01",
                        "signature" : "0x3c803b1d3ec8d1cb3d369b7b80bc55f80f584816f772d23f62cc0469823b3974",
                        "publicKey" : "0x047a204016a0970ff2999a2ae517eea953df6e72a3182e7ec60da8ff59f8c522",
                        "sender" : "Za94f5374fce5edbc8e2a8697c15331677e6ebf0b",
                        "to" : "0xbbbbbbbbbbbbbbbbbbbbbbbbbbbbbbbbbbbbbbbb",
                        "v" : "0x1b",
                        "value" : "0x00"
                    }
                ],
                "uncleHeaders" : [
                ],
                "withdrawals" : [
                ]
            }
        ],
        "config" : {
            "blobSchedule" : {
                "Cancun" : {
                    "baseFeeUpdateFraction" : "0x32f0ed",
                    "max" : "0x06",
                    "target" : "0x03"
                }
            },
            "chainid" : "0x01",
            "network" : "Cancun"
        },
        "genesisBlockHeader" : {
            "baseFeePerGas" : "0x0b",
            "bloom" : "0x00000000000000000000000000000000000000000000000000000000000000000000000000000000000000000000000000000000000000000000000000000000000000000000000000000000000000000000000000000000000000000000000000000000000000000000000000000000000000000000000000000000000000000000000000000000000000000000000000000000000000000000000000000000000000000000000000000000000000000000000000000000000000000000000000000000000000000000000000000000000000000000000000000000000000000000000000000000000000000000000000000000000000000000000000000000",
            "coinbase" : "0x2adc25665018aa1fe0e6bc666dac8fc2697ff9ba",
            "extraData" : "0x00",
            "gasLimit" : "0x01312d00",
            "gasUsed" : "0x00",
            "hash" : "0xf2217055817677b5532dbb9990c08fe452df65dce540623056201a791c880446",
            "mixHash" : "0x0000000000000000000000000000000000000000000000000000000000020000",
            "nonce" : "0x0000000000000000",
            "number" : "0x00",
            "parentHash" : "0x0000000000000000000000000000000000000000000000000000000000000000",
            "receiptTrie" : "0x56e81f171bcc55a6ff8345e692c0f86e5b48e01b996cadc001622fb5e363b421",
            "stateRoot" : "0xdd176971265b31e5d43d7619e1c9af4b6a652732118c3db91a26bdf59052512f",
            "timestamp" : "0x00",
            "transactionsTrie" : "0x56e81f171bcc55a6ff8345e692c0f86e5b48e01b996cadc001622fb5e363b421",
            "withdrawalsRoot" : "0x56e81f171bcc55a6ff8345e692c0f86e5b48e01b996cadc001622fb5e363b421"
        },
        "genesisRLP" : "0xf9023ff90239a00000000000000000000000000000000000000000000000000000000000000000a01dcc4de8dec75d7aab85b567b6ccd41ad312451b948a7413f0a142fd40d49347942adc25665018aa1fe0e6bc666dac8fc2697ff9baa0dd176971265b31e5d43d7619e1c9af4b6a652732118c3db91a26bdf59052512fa056e81f171bcc55a6ff8345e692c0f86e5b48e01b996cadc001622fb5e363b421a056e81f171bcc55a6ff8345e692c0f86e5b48e01b996cadc001622fb5e363b421b901000000000000000000000000000000000000000000000000000000000000000000000000000000000000000000000000000000000000000000000000000000000000000000000000000000000000000000000000000000000000000000000000000000000000000000000000000000000000000000000000000000000000000000000000000000000000000000000000000000000000000000000000000000000000000000000000000000000000000000000000000000000000000000000000000000000000000000000000000000000000000000000000000000000000000000000000000000000000000000000000000000000000000000000000000000000080808401312d00808000a000000000000000000000000000000000000000000000000000000000000200008800000000000000000ba056e81f171bcc55a6ff8345e692c0f86e5b48e01b996cadc001622fb5e363b4218083060000a00000000000000000000000000000000000000000000000000000000000000000c0c0c0",
        "lastblockhash" : "0x52b953b0bd99f6e678e06a2247f30c90c7be5f30e50b0130b63f3a6db2fa4754",
        "network" : "Cancun",
        "postState" : {
            "Z000000000000000000000000000000000000c0de" : {
                "balance" : "0x00",
                "code" : "0x69600a80600080396000f360b01b6000908152355a90600080f0905a9003600a5560005500",
                "nonce" : "0x01",
                "storage" : {
                }
            },
            "0x000f3df6d732807ef1319fb7b8bb8522d0beac02" : {
                "balance" : "0x00",
                "code" : "0x3373fffffffffffffffffffffffffffffffffffffffe14604d57602036146024575f5ffd5b5f35801560495762001fff810690815414603c575f5ffd5b62001fff01545f5260205ff35b5f5ffd5b62001fff42064281555f359062001fff015500",
                "nonce" : "0x01",
                "storage" : {
                    "0x03e8" : "0x03e8"
                }
            },
            "0xa94f5374fce5edbc8e2a8697c15331677e6ebf0b" : {
                "balance" : "0x05ee8a40",
                "code" : "0x",
                "nonce" : "0x02",
                "storage" : {
                }
            },
            "0xbbbbbbbbbbbbbbbbbbbbbbbbbbbbbbbbbbbbbbbb" : {
                "balance" : "0x00",
                "code" : "0x60003560005260008036818061c0de62989680f16000556001805500",
                "nonce" : "0x01",
                "storage" : {
                    "0x01" : "0x01"
                }
            }
        },
        "pre" : {
            "Z000000000000000000000000000000000000c0de" : {
                "balance" : "0x00",
                "code" : "0x69600a80600080396000f360b01b6000908152355a90600080f0905a9003600a5560005500",
                "nonce" : "0x01",
                "storage" : {
                }
            },
            "0x000f3df6d732807ef1319fb7b8bb8522d0beac02" : {
                "balance" : "0x00",
                "code" : "0x3373fffffffffffffffffffffffffffffffffffffffe14604d57602036146024575f5ffd5b5f35801560495762001fff810690815414603c575f5ffd5b62001fff01545f5260205ff35b5f5ffd5b62001fff42064281555f359062001fff015500",
                "nonce" : "0x01",
                "storage" : {
                }
            },
            "0xa94f5374fce5edbc8e2a8697c15331677e6ebf0b" : {
                "balance" : "0x0bebc200",
                "code" : "0x",
                "nonce" : "0x01",
                "storage" : {
                }
            },
            "0xbbbbbbbbbbbbbbbbbbbbbbbbbbbbbbbbbbbbbbbb" : {
                "balance" : "0x00",
                "code" : "0x60003560005260008036818061c0de62989680f16000556001805500",
                "nonce" : "0x01",
                "storage" : {
                }
            }
        },
        "sealEngine" : "NoProof"
    },
    "createInitCodeSizeLimit_d1g0v0_Prague" : {
        "_info" : {
            "comment" : "",
            "filling-rpc-server" : "evmone-t8n 0.14.0-13+commit.4d363c36",
            "filling-tool-version" : "retesteth-0.3.2-legacy+commit.ca7f4c79.Linux.g++",
            "fixture-format" : "blockchain_test",
            "generatedTestHash" : "c42b266952756ed6490e560348e6d53c11750a64eea226dfcdeddc5a69ef4ad6",
            "lllcversion" : "Version: 0.5.14-develop.2024.11.5+commit.b2b86751.mod.Linux.g++",
            "hyperion" : "Version: 0.8.24+commit.e11b9ed9.Linux.g++",
            "source" : "src/GeneralStateTestsFiller/Shanghai/stEIP3860-limitmeterinitcode/createInitCodeSizeLimitFiller.yml",
            "sourceHash" : "60491adb8a70f263af3464aba6926855ce69a02c95a69d22adfc07ddb987d819"
        },
        "blocks" : [
            {
                "blockHeader" : {
                    "baseFeePerGas" : "0x0a",
                    "bloom" : "0x00000000000000000000000000000000000000000000000000000000000000000000000000000000000000000000000000000000000000000000000000000000000000000000000000000000000000000000000000000000000000000000000000000000000000000000000000000000000000000000000000000000000000000000000000000000000000000000000000000000000000000000000000000000000000000000000000000000000000000000000000000000000000000000000000000000000000000000000000000000000000000000000000000000000000000000000000000000000000000000000000000000000000000000000000000000",
                    "coinbase" : "0x2adc25665018aa1fe0e6bc666dac8fc2697ff9ba",
                    "extraData" : "0x00",
                    "gasLimit" : "0x01312d00",
                    "gasUsed" : "0x995260",
                    "hash" : "0xa8f80298ba1369d35e317833ed74c12190cfee78c55ff184bb1ec442a5529c2d",
                    "mixHash" : "0x0000000000000000000000000000000000000000000000000000000000020000",
                    "nonce" : "0x0000000000000000",
                    "number" : "0x01",
                    "parentHash" : "0x0bb7cbeae8c107b40f57cdbe4ac9b0800e55c09ceb4b3d6a39b8461f9841557d",
                    "receiptTrie" : "0xecba10fbf1bca2fde39dcf1d00ef6c78716f7a486d4928ebaf0246ec27e3a4e8",
                    "requestsHash" : "0xe3b0c44298fc1c149afbf4c8996fb92427ae41e4649b934ca495991b7852b855",
                    "stateRoot" : "0xd9114275c0f067bb80278aae8aa22a7dc356b4e2092b72f403cf18d4cf5200ff",
                    "timestamp" : "0x03e8",
                    "transactionsTrie" : "0xfdc8efef8d254f8a53a881a6dc251713c0d7ab2d4313ea5ac148a8ac43901965",
                    "withdrawalsRoot" : "0x56e81f171bcc55a6ff8345e692c0f86e5b48e01b996cadc001622fb5e363b421"
                },
                "rlp" : "0xf902e5f9025ca00bb7cbeae8c107b40f57cdbe4ac9b0800e55c09ceb4b3d6a39b8461f9841557da01dcc4de8dec75d7aab85b567b6ccd41ad312451b948a7413f0a142fd40d49347942adc25665018aa1fe0e6bc666dac8fc2697ff9baa0d9114275c0f067bb80278aae8aa22a7dc356b4e2092b72f403cf18d4cf5200ffa0fdc8efef8d254f8a53a881a6dc251713c0d7ab2d4313ea5ac148a8ac43901965a0ecba10fbf1bca2fde39dcf1d00ef6c78716f7a486d4928ebaf0246ec27e3a4e8b901000000000000000000000000000000000000000000000000000000000000000000000000000000000000000000000000000000000000000000000000000000000000000000000000000000000000000000000000000000000000000000000000000000000000000000000000000000000000000000000000000000000000000000000000000000000000000000000000000000000000000000000000000000000000000000000000000000000000000000000000000000000000000000000000000000000000000000000000000000000000000000000000000000000000000000000000000000000000000000000000000000000000000000000000000000000080018401312d00839952608203e800a000000000000000000000000000000000000000000000000000000000000200008800000000000000000aa056e81f171bcc55a6ff8345e692c0f86e5b48e01b996cadc001622fb5e363b4218080a00000000000000000000000000000000000000000000000000000000000000000a0e3b0c44298fc1c149afbf4c8996fb92427ae41e4649b934ca495991b7852b855f882f880010a83e4e1c094bbbbbbbbbbbbbbbbbbbbbbbbbbbbbbbbbbbbbbbb80a0000000000000000000000000000000000000000000000000000000000000c0011ba03c803b1d3ec8d1cb3d369b7b80bc55f80f584816f772d23f62cc0469823b3974a0047a204016a0970ff2999a2ae517eea953df6e72a3182e7ec60da8ff59f8c522c0c0",
                "transactions" : [
                    {
                        "data" : "0x000000000000000000000000000000000000000000000000000000000000c001",
                        "gasLimit" : "0xe4e1c0",
                        "gasPrice" : "0x0a",
                        "nonce" : "0x01",
                        "signature" : "0x3c803b1d3ec8d1cb3d369b7b80bc55f80f584816f772d23f62cc0469823b3974",
                        "publicKey" : "0x047a204016a0970ff2999a2ae517eea953df6e72a3182e7ec60da8ff59f8c522",
                        "sender" : "Za94f5374fce5edbc8e2a8697c15331677e6ebf0b",
                        "to" : "0xbbbbbbbbbbbbbbbbbbbbbbbbbbbbbbbbbbbbbbbb",
                        "v" : "0x1b",
                        "value" : "0x00"
                    }
                ],
                "uncleHeaders" : [
                ],
                "withdrawals" : [
                ]
            }
        ],
        "config" : {
            "blobSchedule" : {
                "Prague" : {
                    "baseFeeUpdateFraction" : "0x4c6964",
                    "max" : "0x09",
                    "target" : "0x06"
                }
            },
            "chainid" : "0x01",
            "network" : "Prague"
        },
        "genesisBlockHeader" : {
            "baseFeePerGas" : "0x0b",
            "bloom" : "0x00000000000000000000000000000000000000000000000000000000000000000000000000000000000000000000000000000000000000000000000000000000000000000000000000000000000000000000000000000000000000000000000000000000000000000000000000000000000000000000000000000000000000000000000000000000000000000000000000000000000000000000000000000000000000000000000000000000000000000000000000000000000000000000000000000000000000000000000000000000000000000000000000000000000000000000000000000000000000000000000000000000000000000000000000000000",
            "coinbase" : "0x2adc25665018aa1fe0e6bc666dac8fc2697ff9ba",
            "extraData" : "0x00",
            "gasLimit" : "0x01312d00",
            "gasUsed" : "0x00",
            "hash" : "0x0bb7cbeae8c107b40f57cdbe4ac9b0800e55c09ceb4b3d6a39b8461f9841557d",
            "mixHash" : "0x0000000000000000000000000000000000000000000000000000000000020000",
            "nonce" : "0x0000000000000000",
            "number" : "0x00",
            "parentHash" : "0x0000000000000000000000000000000000000000000000000000000000000000",
            "receiptTrie" : "0x56e81f171bcc55a6ff8345e692c0f86e5b48e01b996cadc001622fb5e363b421",
            "requestsHash" : "0xe3b0c44298fc1c149afbf4c8996fb92427ae41e4649b934ca495991b7852b855",
            "stateRoot" : "0x5bfa4d1673170bdb7b770d6837b9f1ee54fba97a502629affa9099a12419fec8",
            "timestamp" : "0x00",
            "transactionsTrie" : "0x56e81f171bcc55a6ff8345e692c0f86e5b48e01b996cadc001622fb5e363b421",
            "withdrawalsRoot" : "0x56e81f171bcc55a6ff8345e692c0f86e5b48e01b996cadc001622fb5e363b421"
        },
        "genesisRLP" : "0xf90260f9025aa00000000000000000000000000000000000000000000000000000000000000000a01dcc4de8dec75d7aab85b567b6ccd41ad312451b948a7413f0a142fd40d49347942adc25665018aa1fe0e6bc666dac8fc2697ff9baa05bfa4d1673170bdb7b770d6837b9f1ee54fba97a502629affa9099a12419fec8a056e81f171bcc55a6ff8345e692c0f86e5b48e01b996cadc001622fb5e363b421a056e81f171bcc55a6ff8345e692c0f86e5b48e01b996cadc001622fb5e363b421b901000000000000000000000000000000000000000000000000000000000000000000000000000000000000000000000000000000000000000000000000000000000000000000000000000000000000000000000000000000000000000000000000000000000000000000000000000000000000000000000000000000000000000000000000000000000000000000000000000000000000000000000000000000000000000000000000000000000000000000000000000000000000000000000000000000000000000000000000000000000000000000000000000000000000000000000000000000000000000000000000000000000000000000000000000000000080808401312d00808000a000000000000000000000000000000000000000000000000000000000000200008800000000000000000ba056e81f171bcc55a6ff8345e692c0f86e5b48e01b996cadc001622fb5e363b4218083060000a00000000000000000000000000000000000000000000000000000000000000000a0e3b0c44298fc1c149afbf4c8996fb92427ae41e4649b934ca495991b7852b855c0c0c0",
        "lastblockhash" : "0xa8f80298ba1369d35e317833ed74c12190cfee78c55ff184bb1ec442a5529c2d",
        "network" : "Prague",
        "postState" : {
            "Z000000000000000000000000000000000000c0de" : {
                "balance" : "0x00",
                "code" : "0x69600a80600080396000f360b01b6000908152355a90600080f0905a9003600a5560005500",
                "nonce" : "0x01",
                "storage" : {
                }
            },
            "0x0000f90827f1c53a10cb7a02335b175320002935" : {
                "balance" : "0x00",
                "code" : "0x3373fffffffffffffffffffffffffffffffffffffffe14604657602036036042575f35600143038111604257611fff81430311604257611fff9006545f5260205ff35b5f5ffd5b5f35611fff60014303065500",
                "nonce" : "0x01",
                "storage" : {
                    "0x00" : "0x0bb7cbeae8c107b40f57cdbe4ac9b0800e55c09ceb4b3d6a39b8461f9841557d"
                }
            },
            "0x000f3df6d732807ef1319fb7b8bb8522d0beac02" : {
                "balance" : "0x00",
                "code" : "0x3373fffffffffffffffffffffffffffffffffffffffe14604d57602036146024575f5ffd5b5f35801560495762001fff810690815414603c575f5ffd5b62001fff01545f5260205ff35b5f5ffd5b62001fff42064281555f359062001fff015500",
                "nonce" : "0x01",
                "storage" : {
                    "0x03e8" : "0x03e8"
                }
            },
            "0xa94f5374fce5edbc8e2a8697c15331677e6ebf0b" : {
                "balance" : "0x05ee8a40",
                "code" : "0x",
                "nonce" : "0x02",
                "storage" : {
                }
            },
            "0xbbbbbbbbbbbbbbbbbbbbbbbbbbbbbbbbbbbbbbbb" : {
                "balance" : "0x00",
                "code" : "0x60003560005260008036818061c0de62989680f16000556001805500",
                "nonce" : "0x01",
                "storage" : {
                    "0x01" : "0x01"
                }
            }
        },
        "pre" : {
            "Z000000000000000000000000000000000000c0de" : {
                "balance" : "0x00",
                "code" : "0x69600a80600080396000f360b01b6000908152355a90600080f0905a9003600a5560005500",
                "nonce" : "0x01",
                "storage" : {
                }
            },
            "0x0000f90827f1c53a10cb7a02335b175320002935" : {
                "balance" : "0x00",
                "code" : "0x3373fffffffffffffffffffffffffffffffffffffffe14604657602036036042575f35600143038111604257611fff81430311604257611fff9006545f5260205ff35b5f5ffd5b5f35611fff60014303065500",
                "nonce" : "0x01",
                "storage" : {
                }
            },
            "0x000f3df6d732807ef1319fb7b8bb8522d0beac02" : {
                "balance" : "0x00",
                "code" : "0x3373fffffffffffffffffffffffffffffffffffffffe14604d57602036146024575f5ffd5b5f35801560495762001fff810690815414603c575f5ffd5b62001fff01545f5260205ff35b5f5ffd5b62001fff42064281555f359062001fff015500",
                "nonce" : "0x01",
                "storage" : {
                }
            },
            "0xa94f5374fce5edbc8e2a8697c15331677e6ebf0b" : {
                "balance" : "0x0bebc200",
                "code" : "0x",
                "nonce" : "0x01",
                "storage" : {
                }
            },
            "0xbbbbbbbbbbbbbbbbbbbbbbbbbbbbbbbbbbbbbbbb" : {
                "balance" : "0x00",
                "code" : "0x60003560005260008036818061c0de62989680f16000556001805500",
                "nonce" : "0x01",
                "storage" : {
                }
            }
        },
        "sealEngine" : "NoProof"
    }
}