{
    "ecrecoverShortBuff_d0g0v0_Cancun" : {
        "_info" : {
            "comment" : "",
            "filling-rpc-server" : "evmone-t8n 0.14.0-13+commit.4d363c36",
            "filling-tool-version" : "retesteth-0.3.2-legacy+commit.ca7f4c79.Linux.g++",
            "fixture-format" : "blockchain_test",
            "generatedTestHash" : "39444495bd68cec15bf04f52abc708ca8a4ae6961ccd43ef6d427357d8ff9755",
            "lllcversion" : "Version: 0.5.14-develop.2024.11.5+commit.b2b86751.mod.Linux.g++",
            "hyperion" : "Version: 0.8.24+commit.e11b9ed9.Linux.g++",
            "source" : "src/GeneralStateTestsFiller/stPreCompiledContracts2/ecrecoverShortBuffFiller.yml",
            "sourceHash" : "28793e36d2c2c951e51ff88e353f29e4743ed49bde6ce57ae50da5bfb311a04a"
        },
        "blocks" : [
            {
                "blockHeader" : {
                    "baseFeePerGas" : "0x0a",
                    "bloom" : "0x00000000000000000000000000000000000000000000000000000000000000000000000000000000000000000000000000000000000000000000000000000000000000000000000000000000000000000000000000000000000000000000000000000000000000000000000000000000000000000000000000000000000000000000000000000000000000000000000000000000000000000000000000000000000000000000000000000000000000000000000000000000000000000000000000000000000000000000000000000000000000000000000000000000000000000000000000000000000000000000000000000000000000000000000000000000",
                    "coinbase" : "0x2adc25665018aa1fe0e6bc666dac8fc2697ff9ba",
                    "extraData" : "0x00",
                    "gasLimit" : "0xff112233445566",
                    "gasUsed" : "0x592644",
                    "hash" : "0x7ec68d17d9a30ee806754170c5aabb0162a62e62ab0aa16427cfdcfd44cec29e",
                    "mixHash" : "0x0000000000000000000000000000000000000000000000000000000000020000",
                    "nonce" : "0x0000000000000000",
                    "number" : "0x01",
                    "parentHash" : "0x4151015f0bd14b58eb699bc0dcb2bafd860654d237ae974a7ffbfaa90493cfd5",
                    "receiptTrie" : "0x77770698f13a5fc4491a882f7cb8c9e40d8b9208ddfae395c3111ed97e4cd506",
                    "stateRoot" : "0x7dc13145946f8d36b93e017977832ed36b094db9ce94de15f9e36d97ecdef4bd",
                    "timestamp" : "0x03e8",
                    "transactionsTrie" : "0xa9055769aa4960bebfc195500b324c15d6a172590bf4e693e7991899460d0401",
                    "withdrawalsRoot" : "0x56e81f171bcc55a6ff8345e692c0f86e5b48e01b996cadc001622fb5e363b421"
                },
                "rlp" : "0xf902acf9023ea04151015f0bd14b58eb699bc0dcb2bafd860654d237ae974a7ffbfaa90493cfd5a01dcc4de8dec75d7aab85b567b6ccd41ad312451b948a7413f0a142fd40d49347942adc25665018aa1fe0e6bc666dac8fc2697ff9baa07dc13145946f8d36b93e017977832ed36b094db9ce94de15f9e36d97ecdef4bda0a9055769aa4960bebfc195500b324c15d6a172590bf4e693e7991899460d0401a077770698f13a5fc4491a882f7cb8c9e40d8b9208ddfae395c3111ed97e4cd506b9010000000000000000000000000000000000000000000000000000000000000000000000000000000000000000000000000000000000000000000000000000000000000000000000000000000000000000000000000000000000000000000000000000000000000000000000000000000000000000000000000000000000000000000000000000000000000000000000000000000000000000000000000000000000000000000000000000000000000000000000000000000000000000000000000000000000000000000000000000000000000000000000000000000000000000000000000000000000000000000000000000000000000000000000000000000000800187ff112233445566835926448203e800a000000000000000000000000000000000000000000000000000000000000200008800000000000000000aa056e81f171bcc55a6ff8345e692c0f86e5b48e01b996cadc001622fb5e363b4218080a00000000000000000000000000000000000000000000000000000000000000000f867f865010a85f00000000094cccccccccccccccccccccccccccccccccccccccc830186a0001ba0dd4cbdafe797bfbdc6cb89ed58ece4d487081d745dce72e37175fd79dcbafdd1a0657260753fd478470034d615f9e6b99e26aae6dc0e6f893926036e18106a863fc0c0",
                "transactions" : [
                    {
                        "data" : "0x00",
                        "gasLimit" : "0xf000000000",
                        "gasPrice" : "0x0a",
                        "nonce" : "0x01",
                        "r" : "0xdd4cbdafe797bfbdc6cb89ed58ece4d487081d745dce72e37175fd79dcbafdd1",
                        "s" : "0x657260753fd478470034d615f9e6b99e26aae6dc0e6f893926036e18106a863f",
                        "sender" : "0xa94f5374fce5edbc8e2a8697c15331677e6ebf0b",
                        "to" : "0xcccccccccccccccccccccccccccccccccccccccc",
                        "v" : "0x1b",
                        "value" : "0x0186a0"
                    }
                ],
                "uncleHeaders" : [
                ],
                "withdrawals" : [
                ]
            }
        ],
        "config" : {
            "blobSchedule" : {
                "Cancun" : {
                    "baseFeeUpdateFraction" : "0x32f0ed",
                    "max" : "0x06",
                    "target" : "0x03"
                }
            },
            "chainid" : "0x01",
            "network" : "Cancun"
        },
        "genesisBlockHeader" : {
            "baseFeePerGas" : "0x0b",
            "bloom" : "0x00000000000000000000000000000000000000000000000000000000000000000000000000000000000000000000000000000000000000000000000000000000000000000000000000000000000000000000000000000000000000000000000000000000000000000000000000000000000000000000000000000000000000000000000000000000000000000000000000000000000000000000000000000000000000000000000000000000000000000000000000000000000000000000000000000000000000000000000000000000000000000000000000000000000000000000000000000000000000000000000000000000000000000000000000000000",
            "coinbase" : "0x2adc25665018aa1fe0e6bc666dac8fc2697ff9ba",
            "extraData" : "0x00",
            "gasLimit" : "0xff112233445566",
            "gasUsed" : "0x00",
            "hash" : "0x4151015f0bd14b58eb699bc0dcb2bafd860654d237ae974a7ffbfaa90493cfd5",
            "mixHash" : "0x0000000000000000000000000000000000000000000000000000000000020000",
            "nonce" : "0x0000000000000000",
            "number" : "0x00",
            "parentHash" : "0x0000000000000000000000000000000000000000000000000000000000000000",
            "receiptTrie" : "0x56e81f171bcc55a6ff8345e692c0f86e5b48e01b996cadc001622fb5e363b421",
            "stateRoot" : "0x5e53f6b3985ad3efcc5bb90b9786ae9f0ca32f4049fd18e5467a1d0a025f2e88",
            "timestamp" : "0x00",
            "transactionsTrie" : "0x56e81f171bcc55a6ff8345e692c0f86e5b48e01b996cadc001622fb5e363b421",
            "withdrawalsRoot" : "0x56e81f171bcc55a6ff8345e692c0f86e5b48e01b996cadc001622fb5e363b421"
        },
        "genesisRLP" : "0xf90242f9023ca00000000000000000000000000000000000000000000000000000000000000000a01dcc4de8dec75d7aab85b567b6ccd41ad312451b948a7413f0a142fd40d49347942adc25665018aa1fe0e6bc666dac8fc2697ff9baa05e53f6b3985ad3efcc5bb90b9786ae9f0ca32f4049fd18e5467a1d0a025f2e88a056e81f171bcc55a6ff8345e692c0f86e5b48e01b996cadc001622fb5e363b421a056e81f171bcc55a6ff8345e692c0f86e5b48e01b996cadc001622fb5e363b421b9010000000000000000000000000000000000000000000000000000000000000000000000000000000000000000000000000000000000000000000000000000000000000000000000000000000000000000000000000000000000000000000000000000000000000000000000000000000000000000000000000000000000000000000000000000000000000000000000000000000000000000000000000000000000000000000000000000000000000000000000000000000000000000000000000000000000000000000000000000000000000000000000000000000000000000000000000000000000000000000000000000000000000000000000000000000000808087ff112233445566808000a000000000000000000000000000000000000000000000000000000000000200008800000000000000000ba056e81f171bcc55a6ff8345e692c0f86e5b48e01b996cadc001622fb5e363b4218083060000a00000000000000000000000000000000000000000000000000000000000000000c0c0c0",
        "lastblockhash" : "0x7ec68d17d9a30ee806754170c5aabb0162a62e62ab0aa16427cfdcfd44cec29e",
        "network" : "Cancun",
        "postState" : {
            "0x000f3df6d732807ef1319fb7b8bb8522d0beac02" : {
                "balance" : "0x00",
                "code" : "0x3373fffffffffffffffffffffffffffffffffffffffe14604d57602036146024575f5ffd5b5f35801560495762001fff810690815414603c575f5ffd5b62001fff01545f5260205ff35b5f5ffd5b62001fff42064281555f359062001fff015500",
                "nonce" : "0x01",
                "storage" : {
                    "0x03e8" : "0x03e8"
                }
            },
            "0xa94f5374fce5edbc8e2a8697c15331677e6ebf0b" : {
                "balance" : "0x0de0b6b3a3e6fab8",
                "code" : "0x",
                "nonce" : "0x02",
                "storage" : {
                }
            },
            "0xcccccccccccccccccccccccccccccccccccccccc" : {
                "balance" : "0x0186a0",
                "code" : "0x60a060005b818110608a575060008052601b6020527f184870a8e4faa6065ddf65c873935d3e48e3d1c7b7853f25cd79b8247f7719106040527f226140b6b66554c7fcfa38589e433cc148ebe5c8482eb3093ab1d9a932c96f5860605260005b818110606757005b806020610100600193600080865af182900381556101005161100082015501605f565b63dead60a7808255611000820155600101600456",
                "nonce" : "0x01",
                "storage" : {
                    "0x1061" : "0x8e5817968f74ffb0255ae41eefa6f89dd0183fa1",
                    "0x1062" : "0xb7529ed60a10291754a635ed9fd67c1723f4d83b",
                    "0x1063" : "0x0669457ce81442f235ffc4123662ba14a72b3d68",
                    "0x1064" : "0xdcc53a4a0719101437e8791abf273af5893cb174",
                    "0x1065" : "0xa1889691e30136d95c0543f516bf2357b282d835",
                    "0x1066" : "0x06642c4fd062a12b980d2bf28334e48ffe609248",
                    "0x1067" : "0x628f176bc4c64973abaf9acb6bd8bb8d9b1ae97c",
                    "0x1068" : "0x16fe7fa0cb8a861f855039c2eda9251ca7cc79d0",
                    "0x1069" : "0x01c954021193a220878900cf5f7db5b3ea4c2b24",
                    "0x106a" : "0x5c4725e00d8f9415e2b77630543fe41dcdaaa304",
                    "0x106b" : "0xf6defd0f92f2a018ba20bf6051698a8dde7cc949",
                    "0x106c" : "0x99cd51158e59da36ba48b457c02db77c17a6b91a",
                    "0x106d" : "0xfc4539330fee551b296f9396d01ab7643521d5df",
                    "0x106e" : "0x389a57ba1c546578b67167c6571d92e047bd4029",
                    "0x106f" : "0x294091b609877b020b4f5a01357936fc0a877a3f",
                    "0x1070" : "0xad5a9fc193dcf16041d4e96433ef3a6d82d36b16",
                    "0x1071" : "0x8324683aaae32ccebdeb758e2777ab2b1ce3d3f1",
                    "0x1072" : "0x295ad34cb312eaf9574511208848caf57b7429e0",
                    "0x1073" : "0x0a74178ec0a865b84eed705e85ddf9b5002389ab",
                    "0x1074" : "0xd1d3bc125318dd71176248d9c86f41a842d4bec9",
                    "0x1075" : "0xe8e2d3e49d1bb0ddf5beeff311456f251dae9ea9",
                    "0x1076" : "0xd8765900c0f467df6bc4f514ed39c568497a8ead",
                    "0x1077" : "0xdb658a31f5a174be0e3fc0d0ce05dd6a76084910",
                    "0x1078" : "0x1387af122c1e31a2dd1dac303b3f20ad83f0ed1b",
                    "0x1079" : "0x9ca540e3f00347324bd94a94ce8e3a34b97c8244",
                    "0x107a" : "0x8d682238981c4940830fa6971d25e036d1fb3d27",
                    "0x107b" : "0xf571eb5abd7da99c6b32b3f3ed0740f6fac7d14b",
                    "0x107c" : "0x79e727f2f0f816efd56fc2af37d98af6798551df",
                    "0x107d" : "0x0f00d6a30e65104b909aa43d947ef2010e09446a",
                    "0x107e" : "0x4c78739de03a70dbcf9b94bc21daf2bf46d44375",
                    "0x107f" : "0x364a9dae48110760306b009bf2297819176be559",
                    "0x1080" : "0x3f9ecb7b25fa567afb2a4c7b633749bda578b593",
                    "0x1081" : "0x3f9ecb7b25fa567afb2a4c7b633749bda578b593",
                    "0x1082" : "0x3f9ecb7b25fa567afb2a4c7b633749bda578b593",
                    "0x1083" : "0x3f9ecb7b25fa567afb2a4c7b633749bda578b593",
                    "0x1084" : "0x3f9ecb7b25fa567afb2a4c7b633749bda578b593",
                    "0x1085" : "0x3f9ecb7b25fa567afb2a4c7b633749bda578b593",
                    "0x1086" : "0x3f9ecb7b25fa567afb2a4c7b633749bda578b593",
                    "0x1087" : "0x3f9ecb7b25fa567afb2a4c7b633749bda578b593",
                    "0x1088" : "0x3f9ecb7b25fa567afb2a4c7b633749bda578b593",
                    "0x1089" : "0x3f9ecb7b25fa567afb2a4c7b633749bda578b593",
                    "0x108a" : "0x3f9ecb7b25fa567afb2a4c7b633749bda578b593",
                    "0x108b" : "0x3f9ecb7b25fa567afb2a4c7b633749bda578b593",
                    "0x108c" : "0x3f9ecb7b25fa567afb2a4c7b633749bda578b593",
                    "0x108d" : "0x3f9ecb7b25fa567afb2a4c7b633749bda578b593",
                    "0x108e" : "0x3f9ecb7b25fa567afb2a4c7b633749bda578b593",
                    "0x108f" : "0x3f9ecb7b25fa567afb2a4c7b633749bda578b593",
                    "0x1090" : "0x3f9ecb7b25fa567afb2a4c7b633749bda578b593",
                    "0x1091" : "0x3f9ecb7b25fa567afb2a4c7b633749bda578b593",
                    "0x1092" : "0x3f9ecb7b25fa567afb2a4c7b633749bda578b593",
                    "0x1093" : "0x3f9ecb7b25fa567afb2a4c7b633749bda578b593",
                    "0x1094" : "0x3f9ecb7b25fa567afb2a4c7b633749bda578b593",
                    "0x1095" : "0x3f9ecb7b25fa567afb2a4c7b633749bda578b593",
                    "0x1096" : "0x3f9ecb7b25fa567afb2a4c7b633749bda578b593",
                    "0x1097" : "0x3f9ecb7b25fa567afb2a4c7b633749bda578b593",
                    "0x1098" : "0x3f9ecb7b25fa567afb2a4c7b633749bda578b593",
                    "0x1099" : "0x3f9ecb7b25fa567afb2a4c7b633749bda578b593",
                    "0x109a" : "0x3f9ecb7b25fa567afb2a4c7b633749bda578b593",
                    "0x109b" : "0x3f9ecb7b25fa567afb2a4c7b633749bda578b593",
                    "0x109c" : "0x3f9ecb7b25fa567afb2a4c7b633749bda578b593",
                    "0x109d" : "0x3f9ecb7b25fa567afb2a4c7b633749bda578b593",
                    "0x109e" : "0x3f9ecb7b25fa567afb2a4c7b633749bda578b593",
                    "0x109f" : "0x3f9ecb7b25fa567afb2a4c7b633749bda578b593"
                }
            }
        },
        "pre" : {
            "0x000f3df6d732807ef1319fb7b8bb8522d0beac02" : {
                "balance" : "0x00",
                "code" : "0x3373fffffffffffffffffffffffffffffffffffffffe14604d57602036146024575f5ffd5b5f35801560495762001fff810690815414603c575f5ffd5b62001fff01545f5260205ff35b5f5ffd5b62001fff42064281555f359062001fff015500",
                "nonce" : "0x01",
                "storage" : {
                }
            },
            "0xa94f5374fce5edbc8e2a8697c15331677e6ebf0b" : {
                "balance" : "0x0de0b6b3a7640000",
                "code" : "0x",
                "nonce" : "0x01",
                "storage" : {
                }
            },
            "0xcccccccccccccccccccccccccccccccccccccccc" : {
                "balance" : "0x00",
                "code" : "0x60a060005b818110608a575060008052601b6020527f184870a8e4faa6065ddf65c873935d3e48e3d1c7b7853f25cd79b8247f7719106040527f226140b6b66554c7fcfa38589e433cc148ebe5c8482eb3093ab1d9a932c96f5860605260005b818110606757005b806020610100600193600080865af182900381556101005161100082015501605f565b63dead60a7808255611000820155600101600456",
                "nonce" : "0x01",
                "storage" : {
                    "0x00" : "0x60a7",
                    "0x1000" : "0x60a7",
                    "0x1011" : "0x60a7",
                    "0x1022" : "0x60a7",
                    "0x1033" : "0x60a7",
                    "0x1044" : "0x60a7",
                    "0x1055" : "0x60a7",
                    "0x1066" : "0x60a7",
                    "0x1077" : "0x60a7",
                    "0x1080" : "0x60a7",
                    "0x1099" : "0x60a7",
                    "0x11" : "0x60a7",
                    "0x22" : "0x60a7",
                    "0x33" : "0x60a7",
                    "0x44" : "0x60a7",
                    "0x55" : "0x60a7",
                    "0x66" : "0x60a7",
                    "0x77" : "0x60a7",
                    "0x80" : "0x60a7",
                    "0x99" : "0x60a7"
                }
            }
        },
        "sealEngine" : "NoProof"
    },
    "ecrecoverShortBuff_d0g0v0_Prague" : {
        "_info" : {
            "comment" : "",
            "filling-rpc-server" : "evmone-t8n 0.14.0-13+commit.4d363c36",
            "filling-tool-version" : "retesteth-0.3.2-legacy+commit.ca7f4c79.Linux.g++",
            "fixture-format" : "blockchain_test",
            "generatedTestHash" : "53e9701971a570de10c5ddf27afb8f8d1649972bcfd667e6e53c6c15f5a54858",
            "lllcversion" : "Version: 0.5.14-develop.2024.11.5+commit.b2b86751.mod.Linux.g++",
            "hyperion" : "Version: 0.8.24+commit.e11b9ed9.Linux.g++",
            "source" : "src/GeneralStateTestsFiller/stPreCompiledContracts2/ecrecoverShortBuffFiller.yml",
            "sourceHash" : "28793e36d2c2c951e51ff88e353f29e4743ed49bde6ce57ae50da5bfb311a04a"
        },
        "blocks" : [
            {
                "blockHeader" : {
                    "baseFeePerGas" : "0x0a",
                    "bloom" : "0x00000000000000000000000000000000000000000000000000000000000000000000000000000000000000000000000000000000000000000000000000000000000000000000000000000000000000000000000000000000000000000000000000000000000000000000000000000000000000000000000000000000000000000000000000000000000000000000000000000000000000000000000000000000000000000000000000000000000000000000000000000000000000000000000000000000000000000000000000000000000000000000000000000000000000000000000000000000000000000000000000000000000000000000000000000000",
                    "coinbase" : "0x2adc25665018aa1fe0e6bc666dac8fc2697ff9ba",
                    "extraData" : "0x00",
                    "gasLimit" : "0xff112233445566",
                    "gasUsed" : "0x592644",
                    "hash" : "0xf437b11ac07b39a595b74fc0d905947288ce1cb5c01ddd21f4e47afa0c65f4cb",
                    "mixHash" : "0x0000000000000000000000000000000000000000000000000000000000020000",
                    "nonce" : "0x0000000000000000",
                    "number" : "0x01",
                    "parentHash" : "0xa53da223a0eb8e429cd973a731e0521247cd1e8fc6e8a644cb7b298a8b3d7e6d",
                    "receiptTrie" : "0x77770698f13a5fc4491a882f7cb8c9e40d8b9208ddfae395c3111ed97e4cd506",
                    "requestsHash" : "0xe3b0c44298fc1c149afbf4c8996fb92427ae41e4649b934ca495991b7852b855",
                    "stateRoot" : "0x0e717f3249680902f95dca1ffbfdbc5f6d186e34ae9673ee90441c00306df125",
                    "timestamp" : "0x03e8",
                    "transactionsTrie" : "0xa9055769aa4960bebfc195500b324c15d6a172590bf4e693e7991899460d0401",
                    "withdrawalsRoot" : "0x56e81f171bcc55a6ff8345e692c0f86e5b48e01b996cadc001622fb5e363b421"
                },
                "rlp" : "0xf902cdf9025fa0a53da223a0eb8e429cd973a731e0521247cd1e8fc6e8a644cb7b298a8b3d7e6da01dcc4de8dec75d7aab85b567b6ccd41ad312451b948a7413f0a142fd40d49347942adc25665018aa1fe0e6bc666dac8fc2697ff9baa00e717f3249680902f95dca1ffbfdbc5f6d186e34ae9673ee90441c00306df125a0a9055769aa4960bebfc195500b324c15d6a172590bf4e693e7991899460d0401a077770698f13a5fc4491a882f7cb8c9e40d8b9208ddfae395c3111ed97e4cd506b9010000000000000000000000000000000000000000000000000000000000000000000000000000000000000000000000000000000000000000000000000000000000000000000000000000000000000000000000000000000000000000000000000000000000000000000000000000000000000000000000000000000000000000000000000000000000000000000000000000000000000000000000000000000000000000000000000000000000000000000000000000000000000000000000000000000000000000000000000000000000000000000000000000000000000000000000000000000000000000000000000000000000000000000000000000000000800187ff112233445566835926448203e800a000000000000000000000000000000000000000000000000000000000000200008800000000000000000aa056e81f171bcc55a6ff8345e692c0f86e5b48e01b996cadc001622fb5e363b4218080a00000000000000000000000000000000000000000000000000000000000000000a0e3b0c44298fc1c149afbf4c8996fb92427ae41e4649b934ca495991b7852b855f867f865010a85f00000000094cccccccccccccccccccccccccccccccccccccccc830186a0001ba0dd4cbdafe797bfbdc6cb89ed58ece4d487081d745dce72e37175fd79dcbafdd1a0657260753fd478470034d615f9e6b99e26aae6dc0e6f893926036e18106a863fc0c0",
                "transactions" : [
                    {
                        "data" : "0x00",
                        "gasLimit" : "0xf000000000",
                        "gasPrice" : "0x0a",
                        "nonce" : "0x01",
                        "r" : "0xdd4cbdafe797bfbdc6cb89ed58ece4d487081d745dce72e37175fd79dcbafdd1",
                        "s" : "0x657260753fd478470034d615f9e6b99e26aae6dc0e6f893926036e18106a863f",
                        "sender" : "0xa94f5374fce5edbc8e2a8697c15331677e6ebf0b",
                        "to" : "0xcccccccccccccccccccccccccccccccccccccccc",
                        "v" : "0x1b",
                        "value" : "0x0186a0"
                    }
                ],
                "uncleHeaders" : [
                ],
                "withdrawals" : [
                ]
            }
        ],
        "config" : {
            "blobSchedule" : {
                "Prague" : {
                    "baseFeeUpdateFraction" : "0x4c6964",
                    "max" : "0x09",
                    "target" : "0x06"
                }
            },
            "chainid" : "0x01",
            "network" : "Prague"
        },
        "genesisBlockHeader" : {
            "baseFeePerGas" : "0x0b",
            "bloom" : "0x00000000000000000000000000000000000000000000000000000000000000000000000000000000000000000000000000000000000000000000000000000000000000000000000000000000000000000000000000000000000000000000000000000000000000000000000000000000000000000000000000000000000000000000000000000000000000000000000000000000000000000000000000000000000000000000000000000000000000000000000000000000000000000000000000000000000000000000000000000000000000000000000000000000000000000000000000000000000000000000000000000000000000000000000000000000",
            "coinbase" : "0x2adc25665018aa1fe0e6bc666dac8fc2697ff9ba",
            "extraData" : "0x00",
            "gasLimit" : "0xff112233445566",
            "gasUsed" : "0x00",
            "hash" : "0xa53da223a0eb8e429cd973a731e0521247cd1e8fc6e8a644cb7b298a8b3d7e6d",
            "mixHash" : "0x0000000000000000000000000000000000000000000000000000000000020000",
            "nonce" : "0x0000000000000000",
            "number" : "0x00",
            "parentHash" : "0x0000000000000000000000000000000000000000000000000000000000000000",
            "receiptTrie" : "0x56e81f171bcc55a6ff8345e692c0f86e5b48e01b996cadc001622fb5e363b421",
            "requestsHash" : "0xe3b0c44298fc1c149afbf4c8996fb92427ae41e4649b934ca495991b7852b855",
            "stateRoot" : "0x016bde47694b82b892e6b8c1b2a0a105ab257f35603010e7e28b41c23eaed9f5",
            "timestamp" : "0x00",
            "transactionsTrie" : "0x56e81f171bcc55a6ff8345e692c0f86e5b48e01b996cadc001622fb5e363b421",
            "withdrawalsRoot" : "0x56e81f171bcc55a6ff8345e692c0f86e5b48e01b996cadc001622fb5e363b421"
        },
        "genesisRLP" : "0xf90263f9025da00000000000000000000000000000000000000000000000000000000000000000a01dcc4de8dec75d7aab85b567b6ccd41ad312451b948a7413f0a142fd40d49347942adc25665018aa1fe0e6bc666dac8fc2697ff9baa0016bde47694b82b892e6b8c1b2a0a105ab257f35603010e7e28b41c23eaed9f5a056e81f171bcc55a6ff8345e692c0f86e5b48e01b996cadc001622fb5e363b421a056e81f171bcc55a6ff8345e692c0f86e5b48e01b996cadc001622fb5e363b421b9010000000000000000000000000000000000000000000000000000000000000000000000000000000000000000000000000000000000000000000000000000000000000000000000000000000000000000000000000000000000000000000000000000000000000000000000000000000000000000000000000000000000000000000000000000000000000000000000000000000000000000000000000000000000000000000000000000000000000000000000000000000000000000000000000000000000000000000000000000000000000000000000000000000000000000000000000000000000000000000000000000000000000000000000000000000000808087ff112233445566808000a000000000000000000000000000000000000000000000000000000000000200008800000000000000000ba056e81f171bcc55a6ff8345e692c0f86e5b48e01b996cadc001622fb5e363b4218083060000a00000000000000000000000000000000000000000000000000000000000000000a0e3b0c44298fc1c149afbf4c8996fb92427ae41e4649b934ca495991b7852b855c0c0c0",
        "lastblockhash" : "0xf437b11ac07b39a595b74fc0d905947288ce1cb5c01ddd21f4e47afa0c65f4cb",
        "network" : "Prague",
        "postState" : {
            "0x0000f90827f1c53a10cb7a02335b175320002935" : {
                "balance" : "0x00",
                "code" : "0x3373fffffffffffffffffffffffffffffffffffffffe14604657602036036042575f35600143038111604257611fff81430311604257611fff9006545f5260205ff35b5f5ffd5b5f35611fff60014303065500",
                "nonce" : "0x01",
                "storage" : {
                    "0x00" : "0xa53da223a0eb8e429cd973a731e0521247cd1e8fc6e8a644cb7b298a8b3d7e6d"
                }
            },
            "0x000f3df6d732807ef1319fb7b8bb8522d0beac02" : {
                "balance" : "0x00",
                "code" : "0x3373fffffffffffffffffffffffffffffffffffffffe14604d57602036146024575f5ffd5b5f35801560495762001fff810690815414603c575f5ffd5b62001fff01545f5260205ff35b5f5ffd5b62001fff42064281555f359062001fff015500",
                "nonce" : "0x01",
                "storage" : {
                    "0x03e8" : "0x03e8"
                }
            },
            "0xa94f5374fce5edbc8e2a8697c15331677e6ebf0b" : {
                "balance" : "0x0de0b6b3a3e6fab8",
                "code" : "0x",
                "nonce" : "0x02",
                "storage" : {
                }
            },
            "0xcccccccccccccccccccccccccccccccccccccccc" : {
                "balance" : "0x0186a0",
                "code" : "0x60a060005b818110608a575060008052601b6020527f184870a8e4faa6065ddf65c873935d3e48e3d1c7b7853f25cd79b8247f7719106040527f226140b6b66554c7fcfa38589e433cc148ebe5c8482eb3093ab1d9a932c96f5860605260005b818110606757005b806020610100600193600080865af182900381556101005161100082015501605f565b63dead60a7808255611000820155600101600456",
                "nonce" : "0x01",
                "storage" : {
                    "0x1061" : "0x8e5817968f74ffb0255ae41eefa6f89dd0183fa1",
                    "0x1062" : "0xb7529ed60a10291754a635ed9fd67c1723f4d83b",
                    "0x1063" : "0x0669457ce81442f235ffc4123662ba14a72b3d68",
                    "0x1064" : "0xdcc53a4a0719101437e8791abf273af5893cb174",
                    "0x1065" : "0xa1889691e30136d95c0543f516bf2357b282d835",
                    "0x1066" : "0x06642c4fd062a12b980d2bf28334e48ffe609248",
                    "0x1067" : "0x628f176bc4c64973abaf9acb6bd8bb8d9b1ae97c",
                    "0x1068" : "0x16fe7fa0cb8a861f855039c2eda9251ca7cc79d0",
                    "0x1069" : "0x01c954021193a220878900cf5f7db5b3ea4c2b24",
                    "0x106a" : "0x5c4725e00d8f9415e2b77630543fe41dcdaaa304",
                    "0x106b" : "0xf6defd0f92f2a018ba20bf6051698a8dde7cc949",
                    "0x106c" : "0x99cd51158e59da36ba48b457c02db77c17a6b91a",
                    "0x106d" : "0xfc4539330fee551b296f9396d01ab7643521d5df",
                    "0x106e" : "0x389a57ba1c546578b67167c6571d92e047bd4029",
                    "0x106f" : "0x294091b609877b020b4f5a01357936fc0a877a3f",
                    "0x1070" : "0xad5a9fc193dcf16041d4e96433ef3a6d82d36b16",
                    "0x1071" : "0x8324683aaae32ccebdeb758e2777ab2b1ce3d3f1",
                    "0x1072" : "0x295ad34cb312eaf9574511208848caf57b7429e0",
                    "0x1073" : "0x0a74178ec0a865b84eed705e85ddf9b5002389ab",
                    "0x1074" : "0xd1d3bc125318dd71176248d9c86f41a842d4bec9",
                    "0x1075" : "0xe8e2d3e49d1bb0ddf5beeff311456f251dae9ea9",
                    "0x1076" : "0xd8765900c0f467df6bc4f514ed39c568497a8ead",
                    "0x1077" : "0xdb658a31f5a174be0e3fc0d0ce05dd6a76084910",
                    "0x1078" : "0x1387af122c1e31a2dd1dac303b3f20ad83f0ed1b",
                    "0x1079" : "0x9ca540e3f00347324bd94a94ce8e3a34b97c8244",
                    "0x107a" : "0x8d682238981c4940830fa6971d25e036d1fb3d27",
                    "0x107b" : "0xf571eb5abd7da99c6b32b3f3ed0740f6fac7d14b",
                    "0x107c" : "0x79e727f2f0f816efd56fc2af37d98af6798551df",
                    "0x107d" : "0x0f00d6a30e65104b909aa43d947ef2010e09446a",
                    "0x107e" : "0x4c78739de03a70dbcf9b94bc21daf2bf46d44375",
                    "0x107f" : "0x364a9dae48110760306b009bf2297819176be559",
                    "0x1080" : "0x3f9ecb7b25fa567afb2a4c7b633749bda578b593",
                    "0x1081" : "0x3f9ecb7b25fa567afb2a4c7b633749bda578b593",
                    "0x1082" : "0x3f9ecb7b25fa567afb2a4c7b633749bda578b593",
                    "0x1083" : "0x3f9ecb7b25fa567afb2a4c7b633749bda578b593",
                    "0x1084" : "0x3f9ecb7b25fa567afb2a4c7b633749bda578b593",
                    "0x1085" : "0x3f9ecb7b25fa567afb2a4c7b633749bda578b593",
                    "0x1086" : "0x3f9ecb7b25fa567afb2a4c7b633749bda578b593",
                    "0x1087" : "0x3f9ecb7b25fa567afb2a4c7b633749bda578b593",
                    "0x1088" : "0x3f9ecb7b25fa567afb2a4c7b633749bda578b593",
                    "0x1089" : "0x3f9ecb7b25fa567afb2a4c7b633749bda578b593",
                    "0x108a" : "0x3f9ecb7b25fa567afb2a4c7b633749bda578b593",
                    "0x108b" : "0x3f9ecb7b25fa567afb2a4c7b633749bda578b593",
                    "0x108c" : "0x3f9ecb7b25fa567afb2a4c7b633749bda578b593",
                    "0x108d" : "0x3f9ecb7b25fa567afb2a4c7b633749bda578b593",
                    "0x108e" : "0x3f9ecb7b25fa567afb2a4c7b633749bda578b593",
                    "0x108f" : "0x3f9ecb7b25fa567afb2a4c7b633749bda578b593",
                    "0x1090" : "0x3f9ecb7b25fa567afb2a4c7b633749bda578b593",
                    "0x1091" : "0x3f9ecb7b25fa567afb2a4c7b633749bda578b593",
                    "0x1092" : "0x3f9ecb7b25fa567afb2a4c7b633749bda578b593",
                    "0x1093" : "0x3f9ecb7b25fa567afb2a4c7b633749bda578b593",
                    "0x1094" : "0x3f9ecb7b25fa567afb2a4c7b633749bda578b593",
                    "0x1095" : "0x3f9ecb7b25fa567afb2a4c7b633749bda578b593",
                    "0x1096" : "0x3f9ecb7b25fa567afb2a4c7b633749bda578b593",
                    "0x1097" : "0x3f9ecb7b25fa567afb2a4c7b633749bda578b593",
                    "0x1098" : "0x3f9ecb7b25fa567afb2a4c7b633749bda578b593",
                    "0x1099" : "0x3f9ecb7b25fa567afb2a4c7b633749bda578b593",
                    "0x109a" : "0x3f9ecb7b25fa567afb2a4c7b633749bda578b593",
                    "0x109b" : "0x3f9ecb7b25fa567afb2a4c7b633749bda578b593",
                    "0x109c" : "0x3f9ecb7b25fa567afb2a4c7b633749bda578b593",
                    "0x109d" : "0x3f9ecb7b25fa567afb2a4c7b633749bda578b593",
                    "0x109e" : "0x3f9ecb7b25fa567afb2a4c7b633749bda578b593",
                    "0x109f" : "0x3f9ecb7b25fa567afb2a4c7b633749bda578b593"
                }
            }
        },
        "pre" : {
            "0x0000f90827f1c53a10cb7a02335b175320002935" : {
                "balance" : "0x00",
                "code" : "0x3373fffffffffffffffffffffffffffffffffffffffe14604657602036036042575f35600143038111604257611fff81430311604257611fff9006545f5260205ff35b5f5ffd5b5f35611fff60014303065500",
                "nonce" : "0x01",
                "storage" : {
                }
            },
            "0x000f3df6d732807ef1319fb7b8bb8522d0beac02" : {
                "balance" : "0x00",
                "code" : "0x3373fffffffffffffffffffffffffffffffffffffffe14604d57602036146024575f5ffd5b5f35801560495762001fff810690815414603c575f5ffd5b62001fff01545f5260205ff35b5f5ffd5b62001fff42064281555f359062001fff015500",
                "nonce" : "0x01",
                "storage" : {
                }
            },
            "0xa94f5374fce5edbc8e2a8697c15331677e6ebf0b" : {
                "balance" : "0x0de0b6b3a7640000",
                "code" : "0x",
                "nonce" : "0x01",
                "storage" : {
                }
            },
            "0xcccccccccccccccccccccccccccccccccccccccc" : {
                "balance" : "0x00",
                "code" : "0x60a060005b818110608a575060008052601b6020527f184870a8e4faa6065ddf65c873935d3e48e3d1c7b7853f25cd79b8247f7719106040527f226140b6b66554c7fcfa38589e433cc148ebe5c8482eb3093ab1d9a932c96f5860605260005b818110606757005b806020610100600193600080865af182900381556101005161100082015501605f565b63dead60a7808255611000820155600101600456",
                "nonce" : "0x01",
                "storage" : {
                    "0x00" : "0x60a7",
                    "0x1000" : "0x60a7",
                    "0x1011" : "0x60a7",
                    "0x1022" : "0x60a7",
                    "0x1033" : "0x60a7",
                    "0x1044" : "0x60a7",
                    "0x1055" : "0x60a7",
                    "0x1066" : "0x60a7",
                    "0x1077" : "0x60a7",
                    "0x1080" : "0x60a7",
                    "0x1099" : "0x60a7",
                    "0x11" : "0x60a7",
                    "0x22" : "0x60a7",
                    "0x33" : "0x60a7",
                    "0x44" : "0x60a7",
                    "0x55" : "0x60a7",
                    "0x66" : "0x60a7",
                    "0x77" : "0x60a7",
                    "0x80" : "0x60a7",
                    "0x99" : "0x60a7"
                }
            }
        },
        "sealEngine" : "NoProof"
    }
}