{
    "CREATE2_CallData" : {
        "_info" : {
            "comment" : "Test if calldata is empty in initcode context.\n",
            "filling-rpc-server" : "evmone-t8n 0.14.0-13+commit.4d363c36",
            "filling-tool-version" : "retesteth-0.3.2-legacy+commit.ca7f4c79.Linux.g++",
            "fixture-format" : "state_test",
            "generatedTestHash" : "80d142ba4eaa79b310e7bd9aecb2e647e01eca99eb3469029adc6deccaa6d2b5",
            "lllcversion" : "Version: 0.5.14-develop.2024.11.5+commit.b2b86751.mod.Linux.g++",
            "solidity" : "Version: 0.8.24+commit.e11b9ed9.Linux.g++",
            "source" : "src/GeneralStateTestsFiller/stCreateTest/CREATE2_CallDataFiller.yml",
            "sourceHash" : "8a6a13dd886e115dbeac814ee34d931088994567cc419cff7d508afdc7a3ffce"
        },
        "config" : {
            "blobSchedule" : {
                "Cancun" : {
                    "baseFeeUpdateFraction" : "0x32f0ed",
                    "max" : "0x06",
                    "target" : "0x03"
                },
                "Prague" : {
                    "baseFeeUpdateFraction" : "0x4c6964",
                    "max" : "0x09",
                    "target" : "0x06"
                }
            },
            "chainid" : "0x01"
        },
        "env" : {
            "currentBaseFee" : "0x0a",
            "currentCoinbase" : "Za94f5374fce5edbc8e2a8697c15331677e6ebf0b",
            "currentGasLimit" : "0x0f4240",
            "currentNumber" : "0x01",
            "currentRandom" : "0x0000000000000000000000000000000000000000000000000000000000000001",
            "currentTimestamp" : "0x03e8"
        },
        "post" : {
            "Cancun" : [
                {
                    "hash" : "0xa75c23430d770d67e8995232504ff9bea92ba264ec4004a8b4c6dd8880b09c2e",
                    "indexes" : {
                        "data" : 0,
                        "gas" : 0,
                        "value" : 0
                    },
                    "logs" : "0x1dcc4de8dec75d7aab85b567b6ccd41ad312451b948a7413f0a142fd40d49347",
                    "state" : {
                        "0x000000000000000000000000000000000c5ea705" : {
                            "balance" : "0x00",
                            "code" : "0x6000601080601183398180f560005500fe600035600055604060008037596000f3",
                            "nonce" : "0x01",
                            "storage" : {
                                "0x00" : "0x7f8330ad7bc2afe0dffb2fdc76bbad8bc326296a"
                            }
                        },
                        "0x7f8330ad7bc2afe0dffb2fdc76bbad8bc326296a" : {
                            "balance" : "0x00",
                            "code" : "0x00000000000000000000000000000000000000000000000000000000000000000000000000000000000000000000000000000000000000000000000000000000",
                            "nonce" : "0x01",
                            "storage" : {
                            }
                        },
                        "0xa94f5374fce5edbc8e2a8697c15331677e6ebf0b" : {
                            "balance" : "0x5af3106c7d62",
                            "code" : "0x",
                            "nonce" : "0x01",
                            "storage" : {
                            }
                        }
                    },
                    "txbytes" : "0xf860800a830186a094000000000000000000000000000000000c5ea70580801ba0be1a87855d5fb33c626d3ffe010a72025f2e49bbdfea9990f7673e0accac0106a07772ddb064c02f526a94d0efbc15f386f98524e3d23a36400835a66121dde245"
                }
            ],
            "Shanghai" : [
                {
                    "hash" : "0xa75c23430d770d67e8995232504ff9bea92ba264ec4004a8b4c6dd8880b09c2e",
                    "indexes" : {
                        "data" : 0,
                        "gas" : 0,
                        "value" : 0
                    },
                    "logs" : "0x1dcc4de8dec75d7aab85b567b6ccd41ad312451b948a7413f0a142fd40d49347",
                    "state" : {
                        "0x000000000000000000000000000000000c5ea705" : {
                            "balance" : "0x00",
                            "code" : "0x6000601080601183398180f560005500fe600035600055604060008037596000f3",
                            "nonce" : "0x01",
                            "storage" : {
                                "0x00" : "0x7f8330ad7bc2afe0dffb2fdc76bbad8bc326296a"
                            }
                        },
                        "0x7f8330ad7bc2afe0dffb2fdc76bbad8bc326296a" : {
                            "balance" : "0x00",
                            "code" : "0x00000000000000000000000000000000000000000000000000000000000000000000000000000000000000000000000000000000000000000000000000000000",
                            "nonce" : "0x01",
                            "storage" : {
                            }
                        },
                        "0xa94f5374fce5edbc8e2a8697c15331677e6ebf0b" : {
                            "balance" : "0x5af3106c7d62",
                            "code" : "0x",
                            "nonce" : "0x01",
                            "storage" : {
                            }
                        }
                    },
                    "txbytes" : "0xf860800a830186a094000000000000000000000000000000000c5ea70580801ba0be1a87855d5fb33c626d3ffe010a72025f2e49bbdfea9990f7673e0accac0106a07772ddb064c02f526a94d0efbc15f386f98524e3d23a36400835a66121dde245"
                }
            ]
        },
        "pre" : {
            "Z000000000000000000000000000000000c5ea705" : {
                "balance" : "0x00",
                "code" : "0x6000601080601183398180f560005500fe600035600055604060008037596000f3",
                "nonce" : "0x00",
                "storage" : {
                }
            },
            "Za94f5374fce5edbc8e2a8697c15331677e6ebf0b" : {
                "balance" : "0x5af3107a4000",
                "code" : "0x",
                "nonce" : "0x00",
                "storage" : {
                }
            }
        },
        "transaction" : {
            "data" : [
                "0x"
            ],
            "gasLimit" : [
                "0x0186a0"
            ],
            "gasPrice" : "0x0a",
            "nonce" : "0x00",
            "secretKey" : "0x45a915e4d060149eb4365960e6a7a45f334393093061116b197e3240065ff2d8",
            "sender" : "Za94f5374fce5edbc8e2a8697c15331677e6ebf0b",
            "to" : "Z000000000000000000000000000000000c5ea705",
            "value" : [
                "0x00"
            ]
        }
    }
}