{
    "ContractInheritance_d0g0v0_Cancun" : {
        "_info" : {
            "comment" : "",
            "filling-rpc-server" : "evmone-t8n 0.14.0-13+commit.4d363c36",
            "filling-tool-version" : "retesteth-0.3.2-legacy+commit.ca7f4c79.Linux.g++",
            "fixture-format" : "blockchain_test",
            "generatedTestHash" : "a19698a23cd4fc7ffb62a0e2ff9c6c6e6412f5390b39d10367eca7976331fe5f",
            "lllcversion" : "Version: 0.5.14-develop.2024.11.5+commit.b2b86751.mod.Linux.g++",
            "hyperion" : "Version: 0.8.24+commit.e11b9ed9.Linux.g++",
            "source" : "src/GeneralStateTestsFiller/stSolidityTest/ContractInheritanceFiller.json",
            "sourceHash" : "4945923a90b5fecd566b753b22863b031361067b930c1a3bb40f407929ac7cee"
        },
        "blocks" : [
            {
                "blockHeader" : {
                    "baseFeePerGas" : "0x0a",
                    "bloom" : "0x00000000000000000000000000000000000000000000000000000000000000000000000000000000000000000000000000000000000000000000000000000000000000000000000000000000000000000000000000000000000000000000000000000000000000000000000000000000000000000000000000000000000000000000000000000000000000000000000000000000000000000000000000000000000000000000000000000000000000000000000000000000000000000000000000000000000000000000000000000000000000000000000000000000000000000000000000000000000000000000000000000000000000000000000000000000",
                    "coinbase" : "Z2adc25665018aa1fe0e6bc666dac8fc2697ff9ba",
                    "extraData" : "0x00",
                    "gasLimit" : "0x7fffffffffffffff",
                    "gasUsed" : "0x01ff0e",
                    "hash" : "0xc28d08f2b9af7e43d3c529ff1163073d70288eb527698d22c5a4582bd73d7298",
                    "mixHash" : "0x0000000000000000000000000000000000000000000000000000000000020000",
                    "nonce" : "0x0000000000000000",
                    "number" : "0x01",
                    "parentHash" : "0xfe28db4dcc517764595cc6d70bd37ddccd524727f53845ab62de74a43ece48db",
                    "receiptTrie" : "0x2eecdb5d2444190b3df1086212afb1417ba218a9b69207346737499126bddc6f",
                    "stateRoot" : "0x2aafcf632ed854c142e7c8511e06cdcba49b0e3b0eacc341c4b1e73d4dfd15a1",
                    "timestamp" : "0x03e8",
                    "transactionsTrie" : "0x2269f0e009021df2c94773fbd57f13bbde3a485209afb1d057acffcf881a5b15",
                    "withdrawalsRoot" : "0x56e81f171bcc55a6ff8345e692c0f86e5b48e01b996cadc001622fb5e363b421"
                },
                "rlp" : "0xf902adf9023fa0fe28db4dcc517764595cc6d70bd37ddccd524727f53845ab62de74a43ece48dba01dcc4de8dec75d7aab85b567b6ccd41ad312451b948a7413f0a142fd40d49347942adc25665018aa1fe0e6bc666dac8fc2697ff9baa02aafcf632ed854c142e7c8511e06cdcba49b0e3b0eacc341c4b1e73d4dfd15a1a02269f0e009021df2c94773fbd57f13bbde3a485209afb1d057acffcf881a5b15a02eecdb5d2444190b3df1086212afb1417ba218a9b69207346737499126bddc6fb90100000000000000000000000000000000000000000000000000000000000000000000000000000000000000000000000000000000000000000000000000000000000000000000000000000000000000000000000000000000000000000000000000000000000000000000000000000000000000000000000000000000000000000000000000000000000000000000000000000000000000000000000000000000000000000000000000000000000000000000000000000000000000000000000000000000000000000000000000000000000000000000000000000000000000000000000000000000000000000000000000000000000000000000000000000000008001887fffffffffffffff8301ff0e8203e800a000000000000000000000000000000000000000000000000000000000000200008800000000000000000aa056e81f171bcc55a6ff8345e692c0f86e5b48e01b996cadc001622fb5e363b4218080a00000000000000000000000000000000000000000000000000000000000000000f867f865800a8402160ec094095e7baea6a6c7c4c2dfeb977efac326af552d878084c04062261ba05c9f6682cbd74880521a7cb74b8c3cb10a3ae0d786e21c4ec5fb597017864705a00235ca04e7ea09fe3064096f11df1b9faa97788564acf6a768f3d295e48bfb83c0c0",
                "transactions" : [
                    {
                        "data" : "0xc0406226",
                        "gasLimit" : "0x02160ec0",
                        "gasPrice" : "0x0a",
                        "nonce" : "0x00",
                        "signature" : "0x5c9f6682cbd74880521a7cb74b8c3cb10a3ae0d786e21c4ec5fb597017864705",
                        "publicKey" : "0x0235ca04e7ea09fe3064096f11df1b9faa97788564acf6a768f3d295e48bfb83",
                        "sender" : "Za94f5374fce5edbc8e2a8697c15331677e6ebf0b",
                        "to" : "Z095e7baea6a6c7c4c2dfeb977efac326af552d87",
                        "v" : "0x1b",
                        "value" : "0x00"
                    }
                ],

                "withdrawals" : [
                ]
            }
        ],
        "config" : {
            "blobSchedule" : {
                "Cancun" : {
                    "baseFeeUpdateFraction" : "0x32f0ed",
                    "max" : "0x06",
                    "target" : "0x03"
                }
            },
            "chainid" : "0x01",
            "network" : "Shanghai"
        },
        "genesisBlockHeader" : {
            "baseFeePerGas" : "0x0b",
            "bloom" : "0x00000000000000000000000000000000000000000000000000000000000000000000000000000000000000000000000000000000000000000000000000000000000000000000000000000000000000000000000000000000000000000000000000000000000000000000000000000000000000000000000000000000000000000000000000000000000000000000000000000000000000000000000000000000000000000000000000000000000000000000000000000000000000000000000000000000000000000000000000000000000000000000000000000000000000000000000000000000000000000000000000000000000000000000000000000000",
            "coinbase" : "Z2adc25665018aa1fe0e6bc666dac8fc2697ff9ba",
            "extraData" : "0x00",
            "gasLimit" : "0x7fffffffffffffff",
            "gasUsed" : "0x00",
            "hash" : "0xfe28db4dcc517764595cc6d70bd37ddccd524727f53845ab62de74a43ece48db",
            "mixHash" : "0x0000000000000000000000000000000000000000000000000000000000020000",
            "nonce" : "0x0000000000000000",
            "number" : "0x00",
            "parentHash" : "0x0000000000000000000000000000000000000000000000000000000000000000",
            "receiptTrie" : "0x56e81f171bcc55a6ff8345e692c0f86e5b48e01b996cadc001622fb5e363b421",
            "stateRoot" : "0x5bcda1787a934adf00e47e05d748bba454250ab125cd094f740465d90495a06b",
            "timestamp" : "0x00",
            "transactionsTrie" : "0x56e81f171bcc55a6ff8345e692c0f86e5b48e01b996cadc001622fb5e363b421",
            "withdrawalsRoot" : "0x56e81f171bcc55a6ff8345e692c0f86e5b48e01b996cadc001622fb5e363b421"
        },
        "genesisRLP" : "0xf90243f9023da00000000000000000000000000000000000000000000000000000000000000000a01dcc4de8dec75d7aab85b567b6ccd41ad312451b948a7413f0a142fd40d49347942adc25665018aa1fe0e6bc666dac8fc2697ff9baa05bcda1787a934adf00e47e05d748bba454250ab125cd094f740465d90495a06ba056e81f171bcc55a6ff8345e692c0f86e5b48e01b996cadc001622fb5e363b421a056e81f171bcc55a6ff8345e692c0f86e5b48e01b996cadc001622fb5e363b421b90100000000000000000000000000000000000000000000000000000000000000000000000000000000000000000000000000000000000000000000000000000000000000000000000000000000000000000000000000000000000000000000000000000000000000000000000000000000000000000000000000000000000000000000000000000000000000000000000000000000000000000000000000000000000000000000000000000000000000000000000000000000000000000000000000000000000000000000000000000000000000000000000000000000000000000000000000000000000000000000000000000000000000000000000000000000008080887fffffffffffffff808000a000000000000000000000000000000000000000000000000000000000000200008800000000000000000ba056e81f171bcc55a6ff8345e692c0f86e5b48e01b996cadc001622fb5e363b4218083060000a00000000000000000000000000000000000000000000000000000000000000000c0c0c0",
        "lastblockhash" : "0xc28d08f2b9af7e43d3c529ff1163073d70288eb527698d22c5a4582bd73d7298",
        "network" : "Shanghai",
        "postState" : {
            "Z000f3df6d732807ef1319fb7b8bb8522d0beac02" : {
                "balance" : "0x00",
                "code" : "0x3373fffffffffffffffffffffffffffffffffffffffe14604d57602036146024575f5ffd5b5f35801560495762001fff810690815414603c575f5ffd5b62001fff01545f5260205ff35b5f5ffd5b62001fff42064281555f359062001fff015500",
                "nonce" : "0x01",
                "storage" : {
                    "0x03e8" : "0x03e8"
                }
            },
            "0x095e7baea6a6c7c4c2dfeb977efac326af552d87" : {
                "balance" : "0x0186a0",
                "code" : "0x7c010000000000000000000000000000000000000000000000000000000060003504633e0bca3b8114610039578063c0406226146100a857005b6100b55b600160008060456101ec8339604560006000f091508173ffffffffffffffffffffffffffffffffffffffff166381bda09b60206000827c010000000000000000000000000000000000000000000000000000000002600052600460006000866161da5a03f161011957005b6100bf60006100c961003d565b8060005260206000f35b8060005260206000f35b600080547fffffffffffffffffffffffffffffffffffffffffffffffffffffffffffffff0016919091179081905560ff16919050565b505060005163ffffffff166002141561019d575b5b505090565b505060005163ffffffff1660011415610194575b60456101a7600039604560006000f090508073ffffffffffffffffffffffffffffffffffffffff166381bda09b60206000827c010000000000000000000000000000000000000000000000000000000002600052600460006000866161da5a03f16100ff57005b60009250610114565b600092506101145600603980600c6000396000f3007c0100000000000000000000000000000000000000000000000000000000600035046381bda09b8114602d57005b60026000818152602090f3603980600c6000396000f3007c0100000000000000000000000000000000000000000000000000000000600035046381bda09b8114602d57005b60016000818152602090f3",
                "nonce" : "0x02",
                "storage" : {
                    "0x00" : "0x01"
                }
            },
            "0xa94f5374fce5edbc8e2a8697c15331677e6ebf0b" : {
                "balance" : "0x0129f1fb74",
                "code" : "0x",
                "nonce" : "0x01",
                "storage" : {
                }
            },
            "0xb88de88b35ecbf3c141e3caae2baf35834d18f63" : {
                "balance" : "0x00",
                "code" : "0x7c0100000000000000000000000000000000000000000000000000000000600035046381bda09b8114602d57005b60026000818152602090f3",
                "nonce" : "0x01",
                "storage" : {
                }
            },
            "0xd2571607e241ecf590ed94b12d87c94babe36db6" : {
                "balance" : "0x00",
                "code" : "0x7c0100000000000000000000000000000000000000000000000000000000600035046381bda09b8114602d57005b60016000818152602090f3",
                "nonce" : "0x01",
                "storage" : {
                }
            }
        },
        "pre" : {
            "Z000f3df6d732807ef1319fb7b8bb8522d0beac02" : {
                "balance" : "0x00",
                "code" : "0x3373fffffffffffffffffffffffffffffffffffffffe14604d57602036146024575f5ffd5b5f35801560495762001fff810690815414603c575f5ffd5b62001fff01545f5260205ff35b5f5ffd5b62001fff42064281555f359062001fff015500",
                "nonce" : "0x01",
                "storage" : {
                }
            },
            "0x095e7baea6a6c7c4c2dfeb977efac326af552d87" : {
                "balance" : "0x0186a0",
                "code" : "0x7c010000000000000000000000000000000000000000000000000000000060003504633e0bca3b8114610039578063c0406226146100a857005b6100b55b600160008060456101ec8339604560006000f091508173ffffffffffffffffffffffffffffffffffffffff166381bda09b60206000827c010000000000000000000000000000000000000000000000000000000002600052600460006000866161da5a03f161011957005b6100bf60006100c961003d565b8060005260206000f35b8060005260206000f35b600080547fffffffffffffffffffffffffffffffffffffffffffffffffffffffffffffff0016919091179081905560ff16919050565b505060005163ffffffff166002141561019d575b5b505090565b505060005163ffffffff1660011415610194575b60456101a7600039604560006000f090508073ffffffffffffffffffffffffffffffffffffffff166381bda09b60206000827c010000000000000000000000000000000000000000000000000000000002600052600460006000866161da5a03f16100ff57005b60009250610114565b600092506101145600603980600c6000396000f3007c0100000000000000000000000000000000000000000000000000000000600035046381bda09b8114602d57005b60026000818152602090f3603980600c6000396000f3007c0100000000000000000000000000000000000000000000000000000000600035046381bda09b8114602d57005b60016000818152602090f3",
                "nonce" : "0x00",
                "storage" : {
                }
            },
            "0xa94f5374fce5edbc8e2a8697c15331677e6ebf0b" : {
                "balance" : "0x012a05f200",
                "code" : "0x",
                "nonce" : "0x00",
                "storage" : {
                }
            }
        },
        "sealEngine" : "NoProof"
    },
    "ContractInheritance_d0g0v0_Prague" : {
        "_info" : {
            "comment" : "",
            "filling-rpc-server" : "evmone-t8n 0.14.0-13+commit.4d363c36",
            "filling-tool-version" : "retesteth-0.3.2-legacy+commit.ca7f4c79.Linux.g++",
            "fixture-format" : "blockchain_test",
            "generatedTestHash" : "d3bb1ef310c0cda4d4c3b66bd0a9c05493167a7a9d6c9487dbbe1abb8054085a",
            "lllcversion" : "Version: 0.5.14-develop.2024.11.5+commit.b2b86751.mod.Linux.g++",
            "hyperion" : "Version: 0.8.24+commit.e11b9ed9.Linux.g++",
            "source" : "src/GeneralStateTestsFiller/stSolidityTest/ContractInheritanceFiller.json",
            "sourceHash" : "4945923a90b5fecd566b753b22863b031361067b930c1a3bb40f407929ac7cee"
        },
        "blocks" : [
            {
                "blockHeader" : {
                    "baseFeePerGas" : "0x0a",
                    "bloom" : "0x00000000000000000000000000000000000000000000000000000000000000000000000000000000000000000000000000000000000000000000000000000000000000000000000000000000000000000000000000000000000000000000000000000000000000000000000000000000000000000000000000000000000000000000000000000000000000000000000000000000000000000000000000000000000000000000000000000000000000000000000000000000000000000000000000000000000000000000000000000000000000000000000000000000000000000000000000000000000000000000000000000000000000000000000000000000",
                    "coinbase" : "Z2adc25665018aa1fe0e6bc666dac8fc2697ff9ba",
                    "extraData" : "0x00",
                    "gasLimit" : "0x7fffffffffffffff",
                    "gasUsed" : "0x01ff0e",
                    "hash" : "0x9e394c9fdc507675097109f0bc611ab07c330a1020183d344584246c52850b0e",
                    "mixHash" : "0x0000000000000000000000000000000000000000000000000000000000020000",
                    "nonce" : "0x0000000000000000",
                    "number" : "0x01",
                    "parentHash" : "0xf627e52af71c8aad2e34177b4f5c5a1279992ff1b2fe63d6ce7fb8682c18e755",
                    "receiptTrie" : "0x2eecdb5d2444190b3df1086212afb1417ba218a9b69207346737499126bddc6f",
                    "requestsHash" : "0xe3b0c44298fc1c149afbf4c8996fb92427ae41e4649b934ca495991b7852b855",
                    "stateRoot" : "0x4c1f487816f9834b836ae58726c64772b7a9fe75e260b6b5168ab3563afc737a",
                    "timestamp" : "0x03e8",
                    "transactionsTrie" : "0x2269f0e009021df2c94773fbd57f13bbde3a485209afb1d057acffcf881a5b15",
                    "withdrawalsRoot" : "0x56e81f171bcc55a6ff8345e692c0f86e5b48e01b996cadc001622fb5e363b421"
                },
                "rlp" : "0xf902cef90260a0f627e52af71c8aad2e34177b4f5c5a1279992ff1b2fe63d6ce7fb8682c18e755a01dcc4de8dec75d7aab85b567b6ccd41ad312451b948a7413f0a142fd40d49347942adc25665018aa1fe0e6bc666dac8fc2697ff9baa04c1f487816f9834b836ae58726c64772b7a9fe75e260b6b5168ab3563afc737aa02269f0e009021df2c94773fbd57f13bbde3a485209afb1d057acffcf881a5b15a02eecdb5d2444190b3df1086212afb1417ba218a9b69207346737499126bddc6fb90100000000000000000000000000000000000000000000000000000000000000000000000000000000000000000000000000000000000000000000000000000000000000000000000000000000000000000000000000000000000000000000000000000000000000000000000000000000000000000000000000000000000000000000000000000000000000000000000000000000000000000000000000000000000000000000000000000000000000000000000000000000000000000000000000000000000000000000000000000000000000000000000000000000000000000000000000000000000000000000000000000000000000000000000000000000008001887fffffffffffffff8301ff0e8203e800a000000000000000000000000000000000000000000000000000000000000200008800000000000000000aa056e81f171bcc55a6ff8345e692c0f86e5b48e01b996cadc001622fb5e363b4218080a00000000000000000000000000000000000000000000000000000000000000000a0e3b0c44298fc1c149afbf4c8996fb92427ae41e4649b934ca495991b7852b855f867f865800a8402160ec094095e7baea6a6c7c4c2dfeb977efac326af552d878084c04062261ba05c9f6682cbd74880521a7cb74b8c3cb10a3ae0d786e21c4ec5fb597017864705a00235ca04e7ea09fe3064096f11df1b9faa97788564acf6a768f3d295e48bfb83c0c0",
                "transactions" : [
                    {
                        "data" : "0xc0406226",
                        "gasLimit" : "0x02160ec0",
                        "gasPrice" : "0x0a",
                        "nonce" : "0x00",
                        "signature" : "0x5c9f6682cbd74880521a7cb74b8c3cb10a3ae0d786e21c4ec5fb597017864705",
                        "publicKey" : "0x0235ca04e7ea09fe3064096f11df1b9faa97788564acf6a768f3d295e48bfb83",
                        "sender" : "Za94f5374fce5edbc8e2a8697c15331677e6ebf0b",
                        "to" : "Z095e7baea6a6c7c4c2dfeb977efac326af552d87",
                        "v" : "0x1b",
                        "value" : "0x00"
                    }
                ],

                "withdrawals" : [
                ]
            }
        ],
        "config" : {
            "blobSchedule" : {
                "Prague" : {
                    "baseFeeUpdateFraction" : "0x4c6964",
                    "max" : "0x09",
                    "target" : "0x06"
                }
            },
            "chainid" : "0x01",
            "network" : "Shanghai"
        },
        "genesisBlockHeader" : {
            "baseFeePerGas" : "0x0b",
            "bloom" : "0x00000000000000000000000000000000000000000000000000000000000000000000000000000000000000000000000000000000000000000000000000000000000000000000000000000000000000000000000000000000000000000000000000000000000000000000000000000000000000000000000000000000000000000000000000000000000000000000000000000000000000000000000000000000000000000000000000000000000000000000000000000000000000000000000000000000000000000000000000000000000000000000000000000000000000000000000000000000000000000000000000000000000000000000000000000000",
            "coinbase" : "Z2adc25665018aa1fe0e6bc666dac8fc2697ff9ba",
            "extraData" : "0x00",
            "gasLimit" : "0x7fffffffffffffff",
            "gasUsed" : "0x00",
            "hash" : "0xf627e52af71c8aad2e34177b4f5c5a1279992ff1b2fe63d6ce7fb8682c18e755",
            "mixHash" : "0x0000000000000000000000000000000000000000000000000000000000020000",
            "nonce" : "0x0000000000000000",
            "number" : "0x00",
            "parentHash" : "0x0000000000000000000000000000000000000000000000000000000000000000",
            "receiptTrie" : "0x56e81f171bcc55a6ff8345e692c0f86e5b48e01b996cadc001622fb5e363b421",
            "requestsHash" : "0xe3b0c44298fc1c149afbf4c8996fb92427ae41e4649b934ca495991b7852b855",
            "stateRoot" : "0x47811e73de71de956d54c755b318842fbd909aac3b5e3df35a530c5a43e61fe7",
            "timestamp" : "0x00",
            "transactionsTrie" : "0x56e81f171bcc55a6ff8345e692c0f86e5b48e01b996cadc001622fb5e363b421",
            "withdrawalsRoot" : "0x56e81f171bcc55a6ff8345e692c0f86e5b48e01b996cadc001622fb5e363b421"
        },
        "genesisRLP" : "0xf90264f9025ea00000000000000000000000000000000000000000000000000000000000000000a01dcc4de8dec75d7aab85b567b6ccd41ad312451b948a7413f0a142fd40d49347942adc25665018aa1fe0e6bc666dac8fc2697ff9baa047811e73de71de956d54c755b318842fbd909aac3b5e3df35a530c5a43e61fe7a056e81f171bcc55a6ff8345e692c0f86e5b48e01b996cadc001622fb5e363b421a056e81f171bcc55a6ff8345e692c0f86e5b48e01b996cadc001622fb5e363b421b90100000000000000000000000000000000000000000000000000000000000000000000000000000000000000000000000000000000000000000000000000000000000000000000000000000000000000000000000000000000000000000000000000000000000000000000000000000000000000000000000000000000000000000000000000000000000000000000000000000000000000000000000000000000000000000000000000000000000000000000000000000000000000000000000000000000000000000000000000000000000000000000000000000000000000000000000000000000000000000000000000000000000000000000000000000000008080887fffffffffffffff808000a000000000000000000000000000000000000000000000000000000000000200008800000000000000000ba056e81f171bcc55a6ff8345e692c0f86e5b48e01b996cadc001622fb5e363b4218083060000a00000000000000000000000000000000000000000000000000000000000000000a0e3b0c44298fc1c149afbf4c8996fb92427ae41e4649b934ca495991b7852b855c0c0c0",
        "lastblockhash" : "0x9e394c9fdc507675097109f0bc611ab07c330a1020183d344584246c52850b0e",
        "network" : "Shanghai",
        "postState" : {
            "Z0000f90827f1c53a10cb7a02335b175320002935" : {
                "balance" : "0x00",
                "code" : "0x3373fffffffffffffffffffffffffffffffffffffffe14604657602036036042575f35600143038111604257611fff81430311604257611fff9006545f5260205ff35b5f5ffd5b5f35611fff60014303065500",
                "nonce" : "0x01",
                "storage" : {
                    "0x00" : "0xf627e52af71c8aad2e34177b4f5c5a1279992ff1b2fe63d6ce7fb8682c18e755"
                }
            },
            "0x000f3df6d732807ef1319fb7b8bb8522d0beac02" : {
                "balance" : "0x00",
                "code" : "0x3373fffffffffffffffffffffffffffffffffffffffe14604d57602036146024575f5ffd5b5f35801560495762001fff810690815414603c575f5ffd5b62001fff01545f5260205ff35b5f5ffd5b62001fff42064281555f359062001fff015500",
                "nonce" : "0x01",
                "storage" : {
                    "0x03e8" : "0x03e8"
                }
            },
            "0x095e7baea6a6c7c4c2dfeb977efac326af552d87" : {
                "balance" : "0x0186a0",
                "code" : "0x7c010000000000000000000000000000000000000000000000000000000060003504633e0bca3b8114610039578063c0406226146100a857005b6100b55b600160008060456101ec8339604560006000f091508173ffffffffffffffffffffffffffffffffffffffff166381bda09b60206000827c010000000000000000000000000000000000000000000000000000000002600052600460006000866161da5a03f161011957005b6100bf60006100c961003d565b8060005260206000f35b8060005260206000f35b600080547fffffffffffffffffffffffffffffffffffffffffffffffffffffffffffffff0016919091179081905560ff16919050565b505060005163ffffffff166002141561019d575b5b505090565b505060005163ffffffff1660011415610194575b60456101a7600039604560006000f090508073ffffffffffffffffffffffffffffffffffffffff166381bda09b60206000827c010000000000000000000000000000000000000000000000000000000002600052600460006000866161da5a03f16100ff57005b60009250610114565b600092506101145600603980600c6000396000f3007c0100000000000000000000000000000000000000000000000000000000600035046381bda09b8114602d57005b60026000818152602090f3603980600c6000396000f3007c0100000000000000000000000000000000000000000000000000000000600035046381bda09b8114602d57005b60016000818152602090f3",
                "nonce" : "0x02",
                "storage" : {
                    "0x00" : "0x01"
                }
            },
            "0xa94f5374fce5edbc8e2a8697c15331677e6ebf0b" : {
                "balance" : "0x0129f1fb74",
                "code" : "0x",
                "nonce" : "0x01",
                "storage" : {
                }
            },
            "0xb88de88b35ecbf3c141e3caae2baf35834d18f63" : {
                "balance" : "0x00",
                "code" : "0x7c0100000000000000000000000000000000000000000000000000000000600035046381bda09b8114602d57005b60026000818152602090f3",
                "nonce" : "0x01",
                "storage" : {
                }
            },
            "0xd2571607e241ecf590ed94b12d87c94babe36db6" : {
                "balance" : "0x00",
                "code" : "0x7c0100000000000000000000000000000000000000000000000000000000600035046381bda09b8114602d57005b60016000818152602090f3",
                "nonce" : "0x01",
                "storage" : {
                }
            }
        },
        "pre" : {
            "Z0000f90827f1c53a10cb7a02335b175320002935" : {
                "balance" : "0x00",
                "code" : "0x3373fffffffffffffffffffffffffffffffffffffffe14604657602036036042575f35600143038111604257611fff81430311604257611fff9006545f5260205ff35b5f5ffd5b5f35611fff60014303065500",
                "nonce" : "0x01",
                "storage" : {
                }
            },
            "0x000f3df6d732807ef1319fb7b8bb8522d0beac02" : {
                "balance" : "0x00",
                "code" : "0x3373fffffffffffffffffffffffffffffffffffffffe14604d57602036146024575f5ffd5b5f35801560495762001fff810690815414603c575f5ffd5b62001fff01545f5260205ff35b5f5ffd5b62001fff42064281555f359062001fff015500",
                "nonce" : "0x01",
                "storage" : {
                }
            },
            "0x095e7baea6a6c7c4c2dfeb977efac326af552d87" : {
                "balance" : "0x0186a0",
                "code" : "0x7c010000000000000000000000000000000000000000000000000000000060003504633e0bca3b8114610039578063c0406226146100a857005b6100b55b600160008060456101ec8339604560006000f091508173ffffffffffffffffffffffffffffffffffffffff166381bda09b60206000827c010000000000000000000000000000000000000000000000000000000002600052600460006000866161da5a03f161011957005b6100bf60006100c961003d565b8060005260206000f35b8060005260206000f35b600080547fffffffffffffffffffffffffffffffffffffffffffffffffffffffffffffff0016919091179081905560ff16919050565b505060005163ffffffff166002141561019d575b5b505090565b505060005163ffffffff1660011415610194575b60456101a7600039604560006000f090508073ffffffffffffffffffffffffffffffffffffffff166381bda09b60206000827c010000000000000000000000000000000000000000000000000000000002600052600460006000866161da5a03f16100ff57005b60009250610114565b600092506101145600603980600c6000396000f3007c0100000000000000000000000000000000000000000000000000000000600035046381bda09b8114602d57005b60026000818152602090f3603980600c6000396000f3007c0100000000000000000000000000000000000000000000000000000000600035046381bda09b8114602d57005b60016000818152602090f3",
                "nonce" : "0x00",
                "storage" : {
                }
            },
            "0xa94f5374fce5edbc8e2a8697c15331677e6ebf0b" : {
                "balance" : "0x012a05f200",
                "code" : "0x",
                "nonce" : "0x00",
                "storage" : {
                }
            }
        },
        "sealEngine" : "NoProof"
    }
}