{
    "TestContractSuicide_d0g0v0_Cancun" : {
        "_info" : {
            "comment" : "",
            "filling-rpc-server" : "evmone-t8n 0.14.0-13+commit.4d363c36",
            "filling-tool-version" : "retesteth-0.3.2-legacy+commit.ca7f4c79.Linux.g++",
            "fixture-format" : "blockchain_test",
            "generatedTestHash" : "ad458178f39f525ac3442130b073d70fe9a98e9d9a7216794683c32cd0320e7b",
            "lllcversion" : "Version: 0.5.14-develop.2024.11.5+commit.b2b86751.mod.Linux.g++",
            "hyperion" : "Version: 0.8.24+commit.e11b9ed9.Linux.g++",
            "source" : "src/GeneralStateTestsFiller/stSolidityTest/TestContractSuicideFiller.json",
            "sourceHash" : "b06dc16219eaf15e4f773da368dced3e19807b5af1714d82fb4c34f14a870dc8"
        },
        "blocks" : [
            {
                "blockHeader" : {
                    "baseFeePerGas" : "0x0a",
                    "bloom" : "0x00000000000000000000000000000000000000000000000000000000000000000000000000000000000000000000000000000000000000000000000000000000000000000000000000000000000000000000000000000000000000000000000000000000000000000000000000000000000000000000000000000000000000000000000000000000000000000000000000000000000000000000000000000000000000000000000000000000000000000000000000000000000000000000000000000000000000000000000000000000000000000000000000000000000000000000000000000000000000000000000000000000000000000000000000000000",
                    "coinbase" : "Z2adc25665018aa1fe0e6bc666dac8fc2697ff9ba",
                    "extraData" : "0x00",
                    "gasLimit" : "0x05f5e100",
                    "gasUsed" : "0x019871",
                    "hash" : "0xa7ae52e8f09965836b75f79d9a56683a20ee1ca4dd39fdbf263821cf8b162df5",
                    "mixHash" : "0x0000000000000000000000000000000000000000000000000000000000020000",
                    "nonce" : "0x0000000000000000",
                    "number" : "0x01",
                    "parentHash" : "0xd51de2a7728b7d46499ebdcefa3475feab245f057c1303dea2dce5e8ef8e7bc8",
                    "receiptTrie" : "0x7bf4d14e5789a8127318322984e59211320cec6546e4fb240df9f987df603943",
                    "stateRoot" : "0x8860ddc7dd75156c6a7b4ed4e7a3d6e3d3d0e030b93fe7cc9e5c7e067ae3fbd7",
                    "timestamp" : "0x03e8",
                    "transactionsTrie" : "0x1804b05fa542c8e297a7272aae401af5508637b5d406a87debad4b20638d7be2",
                    "withdrawalsRoot" : "0x56e81f171bcc55a6ff8345e692c0f86e5b48e01b996cadc001622fb5e363b421"
                },
                "rlp" : "0xf902a8f9023ba0d51de2a7728b7d46499ebdcefa3475feab245f057c1303dea2dce5e8ef8e7bc8a01dcc4de8dec75d7aab85b567b6ccd41ad312451b948a7413f0a142fd40d49347942adc25665018aa1fe0e6bc666dac8fc2697ff9baa08860ddc7dd75156c6a7b4ed4e7a3d6e3d3d0e030b93fe7cc9e5c7e067ae3fbd7a01804b05fa542c8e297a7272aae401af5508637b5d406a87debad4b20638d7be2a07bf4d14e5789a8127318322984e59211320cec6546e4fb240df9f987df603943b901000000000000000000000000000000000000000000000000000000000000000000000000000000000000000000000000000000000000000000000000000000000000000000000000000000000000000000000000000000000000000000000000000000000000000000000000000000000000000000000000000000000000000000000000000000000000000000000000000000000000000000000000000000000000000000000000000000000000000000000000000000000000000000000000000000000000000000000000000000000000000000000000000000000000000000000000000000000000000000000000000000000000000000000000000000000080018405f5e100830198718203e800a000000000000000000000000000000000000000000000000000000000000200008800000000000000000aa056e81f171bcc55a6ff8345e692c0f86e5b48e01b996cadc001622fb5e363b4218080a00000000000000000000000000000000000000000000000000000000000000000f866f864800a8305573094095e7baea6a6c7c4c2dfeb977efac326af552d870184c04062261ca08ace2d28de65f8c8518280a42df3cb6691db78cd335dd296a5e805dd6e19f8b0a0473dc62994ef0bc26438486640fd602903e2076ec6af601c728ba1f1fa8aab64c0c0",
                "transactions" : [
                    {
                        "data" : "0xc0406226",
                        "gasLimit" : "0x055730",
                        "gasPrice" : "0x0a",
                        "nonce" : "0x00",
                        "signature" : "0x8ace2d28de65f8c8518280a42df3cb6691db78cd335dd296a5e805dd6e19f8b0",
                        "publicKey" : "0x473dc62994ef0bc26438486640fd602903e2076ec6af601c728ba1f1fa8aab64",
                        "sender" : "Za94f5374fce5edbc8e2a8697c15331677e6ebf0b",
                        "to" : "Z095e7baea6a6c7c4c2dfeb977efac326af552d87",
                        "v" : "0x1c",
                        "value" : "0x01"
                    }
                ],

                "withdrawals" : [
                ]
            }
        ],
        "config" : {
            "blobSchedule" : {
                "Cancun" : {
                    "baseFeeUpdateFraction" : "0x32f0ed",
                    "max" : "0x06",
                    "target" : "0x03"
                }
            },
            "chainid" : "0x01",
            "network" : "Cancun"
        },
        "genesisBlockHeader" : {
            "baseFeePerGas" : "0x0b",
            "bloom" : "0x00000000000000000000000000000000000000000000000000000000000000000000000000000000000000000000000000000000000000000000000000000000000000000000000000000000000000000000000000000000000000000000000000000000000000000000000000000000000000000000000000000000000000000000000000000000000000000000000000000000000000000000000000000000000000000000000000000000000000000000000000000000000000000000000000000000000000000000000000000000000000000000000000000000000000000000000000000000000000000000000000000000000000000000000000000000",
            "coinbase" : "Z2adc25665018aa1fe0e6bc666dac8fc2697ff9ba",
            "extraData" : "0x00",
            "gasLimit" : "0x05f5e100",
            "gasUsed" : "0x00",
            "hash" : "0xd51de2a7728b7d46499ebdcefa3475feab245f057c1303dea2dce5e8ef8e7bc8",
            "mixHash" : "0x0000000000000000000000000000000000000000000000000000000000020000",
            "nonce" : "0x0000000000000000",
            "number" : "0x00",
            "parentHash" : "0x0000000000000000000000000000000000000000000000000000000000000000",
            "receiptTrie" : "0x56e81f171bcc55a6ff8345e692c0f86e5b48e01b996cadc001622fb5e363b421",
            "stateRoot" : "0x193cf2a764340fede9110d103027e288f69ca4e846fb0fa24c50b5818feccb02",
            "timestamp" : "0x00",
            "transactionsTrie" : "0x56e81f171bcc55a6ff8345e692c0f86e5b48e01b996cadc001622fb5e363b421",
            "withdrawalsRoot" : "0x56e81f171bcc55a6ff8345e692c0f86e5b48e01b996cadc001622fb5e363b421"
        },
        "genesisRLP" : "0xf9023ff90239a00000000000000000000000000000000000000000000000000000000000000000a01dcc4de8dec75d7aab85b567b6ccd41ad312451b948a7413f0a142fd40d49347942adc25665018aa1fe0e6bc666dac8fc2697ff9baa0193cf2a764340fede9110d103027e288f69ca4e846fb0fa24c50b5818feccb02a056e81f171bcc55a6ff8345e692c0f86e5b48e01b996cadc001622fb5e363b421a056e81f171bcc55a6ff8345e692c0f86e5b48e01b996cadc001622fb5e363b421b901000000000000000000000000000000000000000000000000000000000000000000000000000000000000000000000000000000000000000000000000000000000000000000000000000000000000000000000000000000000000000000000000000000000000000000000000000000000000000000000000000000000000000000000000000000000000000000000000000000000000000000000000000000000000000000000000000000000000000000000000000000000000000000000000000000000000000000000000000000000000000000000000000000000000000000000000000000000000000000000000000000000000000000000000000000000080808405f5e100808000a000000000000000000000000000000000000000000000000000000000000200008800000000000000000ba056e81f171bcc55a6ff8345e692c0f86e5b48e01b996cadc001622fb5e363b4218083060000a00000000000000000000000000000000000000000000000000000000000000000c0c0c0",
        "lastblockhash" : "0xa7ae52e8f09965836b75f79d9a56683a20ee1ca4dd39fdbf263821cf8b162df5",
        "network" : "Cancun",
        "postState" : {
            "Z000f3df6d732807ef1319fb7b8bb8522d0beac02" : {
                "balance" : "0x00",
                "code" : "0x3373fffffffffffffffffffffffffffffffffffffffe14604d57602036146024575f5ffd5b5f35801560495762001fff810690815414603c575f5ffd5b62001fff01545f5260205ff35b5f5ffd5b62001fff42064281555f359062001fff015500",
                "nonce" : "0x01",
                "storage" : {
                    "0x03e8" : "0x03e8"
                }
            },
            "0x095e7baea6a6c7c4c2dfeb977efac326af552d87" : {
                "balance" : "0x0186a1",
                "code" : "0x7c01000000000000000000000000000000000000000000000000000000006000350463a60eedda8114610039578063c04062261461004b57005b61004161005d565b8060005260206000f35b61005361015a565b8060005260206000f35b60006000608161018a600039608160006000f0905073ffffffffffffffffffffffffffffffffffffffff811662f55d9d6000807ef55d9d00000000000000000000000000000000000000000000000000000000825260044173ffffffffffffffffffffffffffffffffffffffff168152602001600060008660325a03f16100e057005b505073ffffffffffffffffffffffffffffffffffffffff811663b9c3d0a5602060007fb9c3d0a50000000000000000000000000000000000000000000000000000000081526004600060008660325a03f161013757005b505060005160e11461014857610151565b60019150610156565b600091505b5090565b600061016461005d565b600060006101000a81548160ff0219169083021790555060ff600160005404169050905600607580600c6000396000f3007c01000000000000000000000000000000000000000000000000000000006000350462f55d9d81146036578063b9c3d0a514604557005b603f600435605a565b60006000f35b604b6055565b8060005260206000f35b60e190565b8073ffffffffffffffffffffffffffffffffffffffff16ff5056",
                "nonce" : "0x01",
                "storage" : {
                    "0x00" : "0x01"
                }
            },
            "0xa94f5374fce5edbc8e2a8697c15331677e6ebf0b" : {
                "balance" : "0x05e5ec95",
                "code" : "0x",
                "nonce" : "0x01",
                "storage" : {
                }
            }
        },
        "pre" : {
            "Z000f3df6d732807ef1319fb7b8bb8522d0beac02" : {
                "balance" : "0x00",
                "code" : "0x3373fffffffffffffffffffffffffffffffffffffffe14604d57602036146024575f5ffd5b5f35801560495762001fff810690815414603c575f5ffd5b62001fff01545f5260205ff35b5f5ffd5b62001fff42064281555f359062001fff015500",
                "nonce" : "0x01",
                "storage" : {
                }
            },
            "0x095e7baea6a6c7c4c2dfeb977efac326af552d87" : {
                "balance" : "0x0186a0",
                "code" : "0x7c01000000000000000000000000000000000000000000000000000000006000350463a60eedda8114610039578063c04062261461004b57005b61004161005d565b8060005260206000f35b61005361015a565b8060005260206000f35b60006000608161018a600039608160006000f0905073ffffffffffffffffffffffffffffffffffffffff811662f55d9d6000807ef55d9d00000000000000000000000000000000000000000000000000000000825260044173ffffffffffffffffffffffffffffffffffffffff168152602001600060008660325a03f16100e057005b505073ffffffffffffffffffffffffffffffffffffffff811663b9c3d0a5602060007fb9c3d0a50000000000000000000000000000000000000000000000000000000081526004600060008660325a03f161013757005b505060005160e11461014857610151565b60019150610156565b600091505b5090565b600061016461005d565b600060006101000a81548160ff0219169083021790555060ff600160005404169050905600607580600c6000396000f3007c01000000000000000000000000000000000000000000000000000000006000350462f55d9d81146036578063b9c3d0a514604557005b603f600435605a565b60006000f35b604b6055565b8060005260206000f35b60e190565b8073ffffffffffffffffffffffffffffffffffffffff16ff5056",
                "nonce" : "0x00",
                "storage" : {
                }
            },
            "0xa94f5374fce5edbc8e2a8697c15331677e6ebf0b" : {
                "balance" : "0x05f5e100",
                "code" : "0x",
                "nonce" : "0x00",
                "storage" : {
                }
            }
        },
        "sealEngine" : "NoProof"
    },
    "TestContractSuicide_d0g0v0_Prague" : {
        "_info" : {
            "comment" : "",
            "filling-rpc-server" : "evmone-t8n 0.14.0-13+commit.4d363c36",
            "filling-tool-version" : "retesteth-0.3.2-legacy+commit.ca7f4c79.Linux.g++",
            "fixture-format" : "blockchain_test",
            "generatedTestHash" : "4015783b79919b7a6b5700a96d3fd68f9611e17b8cd98b0b970fcd4b8846569c",
            "lllcversion" : "Version: 0.5.14-develop.2024.11.5+commit.b2b86751.mod.Linux.g++",
            "hyperion" : "Version: 0.8.24+commit.e11b9ed9.Linux.g++",
            "source" : "src/GeneralStateTestsFiller/stSolidityTest/TestContractSuicideFiller.json",
            "sourceHash" : "b06dc16219eaf15e4f773da368dced3e19807b5af1714d82fb4c34f14a870dc8"
        },
        "blocks" : [
            {
                "blockHeader" : {
                    "baseFeePerGas" : "0x0a",
                    "bloom" : "0x00000000000000000000000000000000000000000000000000000000000000000000000000000000000000000000000000000000000000000000000000000000000000000000000000000000000000000000000000000000000000000000000000000000000000000000000000000000000000000000000000000000000000000000000000000000000000000000000000000000000000000000000000000000000000000000000000000000000000000000000000000000000000000000000000000000000000000000000000000000000000000000000000000000000000000000000000000000000000000000000000000000000000000000000000000000",
                    "coinbase" : "Z2adc25665018aa1fe0e6bc666dac8fc2697ff9ba",
                    "extraData" : "0x00",
                    "gasLimit" : "0x05f5e100",
                    "gasUsed" : "0x019871",
                    "hash" : "0x2f6a2915ce37be124255259dda9681491eabd71450b1daec554cee539a23958b",
                    "mixHash" : "0x0000000000000000000000000000000000000000000000000000000000020000",
                    "nonce" : "0x0000000000000000",
                    "number" : "0x01",
                    "parentHash" : "0x471474be58032369a40c54dd783af1ab3bdcbe4274bde0140bd288fb4fdb181d",
                    "receiptTrie" : "0x7bf4d14e5789a8127318322984e59211320cec6546e4fb240df9f987df603943",
                    "requestsHash" : "0xe3b0c44298fc1c149afbf4c8996fb92427ae41e4649b934ca495991b7852b855",
                    "stateRoot" : "0x273c73a6e052baac0bcb87bb0916d6cb5bea1d21d3c4337bdde2cb53a2d5779e",
                    "timestamp" : "0x03e8",
                    "transactionsTrie" : "0x1804b05fa542c8e297a7272aae401af5508637b5d406a87debad4b20638d7be2",
                    "withdrawalsRoot" : "0x56e81f171bcc55a6ff8345e692c0f86e5b48e01b996cadc001622fb5e363b421"
                },
                "rlp" : "0xf902c9f9025ca0471474be58032369a40c54dd783af1ab3bdcbe4274bde0140bd288fb4fdb181da01dcc4de8dec75d7aab85b567b6ccd41ad312451b948a7413f0a142fd40d49347942adc25665018aa1fe0e6bc666dac8fc2697ff9baa0273c73a6e052baac0bcb87bb0916d6cb5bea1d21d3c4337bdde2cb53a2d5779ea01804b05fa542c8e297a7272aae401af5508637b5d406a87debad4b20638d7be2a07bf4d14e5789a8127318322984e59211320cec6546e4fb240df9f987df603943b901000000000000000000000000000000000000000000000000000000000000000000000000000000000000000000000000000000000000000000000000000000000000000000000000000000000000000000000000000000000000000000000000000000000000000000000000000000000000000000000000000000000000000000000000000000000000000000000000000000000000000000000000000000000000000000000000000000000000000000000000000000000000000000000000000000000000000000000000000000000000000000000000000000000000000000000000000000000000000000000000000000000000000000000000000000000080018405f5e100830198718203e800a000000000000000000000000000000000000000000000000000000000000200008800000000000000000aa056e81f171bcc55a6ff8345e692c0f86e5b48e01b996cadc001622fb5e363b4218080a00000000000000000000000000000000000000000000000000000000000000000a0e3b0c44298fc1c149afbf4c8996fb92427ae41e4649b934ca495991b7852b855f866f864800a8305573094095e7baea6a6c7c4c2dfeb977efac326af552d870184c04062261ca08ace2d28de65f8c8518280a42df3cb6691db78cd335dd296a5e805dd6e19f8b0a0473dc62994ef0bc26438486640fd602903e2076ec6af601c728ba1f1fa8aab64c0c0",
                "transactions" : [
                    {
                        "data" : "0xc0406226",
                        "gasLimit" : "0x055730",
                        "gasPrice" : "0x0a",
                        "nonce" : "0x00",
                        "signature" : "0x8ace2d28de65f8c8518280a42df3cb6691db78cd335dd296a5e805dd6e19f8b0",
                        "publicKey" : "0x473dc62994ef0bc26438486640fd602903e2076ec6af601c728ba1f1fa8aab64",
                        "sender" : "Za94f5374fce5edbc8e2a8697c15331677e6ebf0b",
                        "to" : "Z095e7baea6a6c7c4c2dfeb977efac326af552d87",
                        "v" : "0x1c",
                        "value" : "0x01"
                    }
                ],

                "withdrawals" : [
                ]
            }
        ],
        "config" : {
            "blobSchedule" : {
                "Prague" : {
                    "baseFeeUpdateFraction" : "0x4c6964",
                    "max" : "0x09",
                    "target" : "0x06"
                }
            },
            "chainid" : "0x01",
            "network" : "Prague"
        },
        "genesisBlockHeader" : {
            "baseFeePerGas" : "0x0b",
            "bloom" : "0x00000000000000000000000000000000000000000000000000000000000000000000000000000000000000000000000000000000000000000000000000000000000000000000000000000000000000000000000000000000000000000000000000000000000000000000000000000000000000000000000000000000000000000000000000000000000000000000000000000000000000000000000000000000000000000000000000000000000000000000000000000000000000000000000000000000000000000000000000000000000000000000000000000000000000000000000000000000000000000000000000000000000000000000000000000000",
            "coinbase" : "Z2adc25665018aa1fe0e6bc666dac8fc2697ff9ba",
            "extraData" : "0x00",
            "gasLimit" : "0x05f5e100",
            "gasUsed" : "0x00",
            "hash" : "0x471474be58032369a40c54dd783af1ab3bdcbe4274bde0140bd288fb4fdb181d",
            "mixHash" : "0x0000000000000000000000000000000000000000000000000000000000020000",
            "nonce" : "0x0000000000000000",
            "number" : "0x00",
            "parentHash" : "0x0000000000000000000000000000000000000000000000000000000000000000",
            "receiptTrie" : "0x56e81f171bcc55a6ff8345e692c0f86e5b48e01b996cadc001622fb5e363b421",
            "requestsHash" : "0xe3b0c44298fc1c149afbf4c8996fb92427ae41e4649b934ca495991b7852b855",
            "stateRoot" : "0x70c9025bfdadd490c3b67c8e77a457cedeed9a71f025a5f4135ba7d0771b0e2e",
            "timestamp" : "0x00",
            "transactionsTrie" : "0x56e81f171bcc55a6ff8345e692c0f86e5b48e01b996cadc001622fb5e363b421",
            "withdrawalsRoot" : "0x56e81f171bcc55a6ff8345e692c0f86e5b48e01b996cadc001622fb5e363b421"
        },
        "genesisRLP" : "0xf90260f9025aa00000000000000000000000000000000000000000000000000000000000000000a01dcc4de8dec75d7aab85b567b6ccd41ad312451b948a7413f0a142fd40d49347942adc25665018aa1fe0e6bc666dac8fc2697ff9baa070c9025bfdadd490c3b67c8e77a457cedeed9a71f025a5f4135ba7d0771b0e2ea056e81f171bcc55a6ff8345e692c0f86e5b48e01b996cadc001622fb5e363b421a056e81f171bcc55a6ff8345e692c0f86e5b48e01b996cadc001622fb5e363b421b901000000000000000000000000000000000000000000000000000000000000000000000000000000000000000000000000000000000000000000000000000000000000000000000000000000000000000000000000000000000000000000000000000000000000000000000000000000000000000000000000000000000000000000000000000000000000000000000000000000000000000000000000000000000000000000000000000000000000000000000000000000000000000000000000000000000000000000000000000000000000000000000000000000000000000000000000000000000000000000000000000000000000000000000000000000000080808405f5e100808000a000000000000000000000000000000000000000000000000000000000000200008800000000000000000ba056e81f171bcc55a6ff8345e692c0f86e5b48e01b996cadc001622fb5e363b4218083060000a00000000000000000000000000000000000000000000000000000000000000000a0e3b0c44298fc1c149afbf4c8996fb92427ae41e4649b934ca495991b7852b855c0c0c0",
        "lastblockhash" : "0x2f6a2915ce37be124255259dda9681491eabd71450b1daec554cee539a23958b",
        "network" : "Prague",
        "postState" : {
            "Z0000f90827f1c53a10cb7a02335b175320002935" : {
                "balance" : "0x00",
                "code" : "0x3373fffffffffffffffffffffffffffffffffffffffe14604657602036036042575f35600143038111604257611fff81430311604257611fff9006545f5260205ff35b5f5ffd5b5f35611fff60014303065500",
                "nonce" : "0x01",
                "storage" : {
                    "0x00" : "0x471474be58032369a40c54dd783af1ab3bdcbe4274bde0140bd288fb4fdb181d"
                }
            },
            "0x000f3df6d732807ef1319fb7b8bb8522d0beac02" : {
                "balance" : "0x00",
                "code" : "0x3373fffffffffffffffffffffffffffffffffffffffe14604d57602036146024575f5ffd5b5f35801560495762001fff810690815414603c575f5ffd5b62001fff01545f5260205ff35b5f5ffd5b62001fff42064281555f359062001fff015500",
                "nonce" : "0x01",
                "storage" : {
                    "0x03e8" : "0x03e8"
                }
            },
            "0x095e7baea6a6c7c4c2dfeb977efac326af552d87" : {
                "balance" : "0x0186a1",
                "code" : "0x7c01000000000000000000000000000000000000000000000000000000006000350463a60eedda8114610039578063c04062261461004b57005b61004161005d565b8060005260206000f35b61005361015a565b8060005260206000f35b60006000608161018a600039608160006000f0905073ffffffffffffffffffffffffffffffffffffffff811662f55d9d6000807ef55d9d00000000000000000000000000000000000000000000000000000000825260044173ffffffffffffffffffffffffffffffffffffffff168152602001600060008660325a03f16100e057005b505073ffffffffffffffffffffffffffffffffffffffff811663b9c3d0a5602060007fb9c3d0a50000000000000000000000000000000000000000000000000000000081526004600060008660325a03f161013757005b505060005160e11461014857610151565b60019150610156565b600091505b5090565b600061016461005d565b600060006101000a81548160ff0219169083021790555060ff600160005404169050905600607580600c6000396000f3007c01000000000000000000000000000000000000000000000000000000006000350462f55d9d81146036578063b9c3d0a514604557005b603f600435605a565b60006000f35b604b6055565b8060005260206000f35b60e190565b8073ffffffffffffffffffffffffffffffffffffffff16ff5056",
                "nonce" : "0x01",
                "storage" : {
                    "0x00" : "0x01"
                }
            },
            "0xa94f5374fce5edbc8e2a8697c15331677e6ebf0b" : {
                "balance" : "0x05e5ec95",
                "code" : "0x",
                "nonce" : "0x01",
                "storage" : {
                }
            }
        },
        "pre" : {
            "Z0000f90827f1c53a10cb7a02335b175320002935" : {
                "balance" : "0x00",
                "code" : "0x3373fffffffffffffffffffffffffffffffffffffffe14604657602036036042575f35600143038111604257611fff81430311604257611fff9006545f5260205ff35b5f5ffd5b5f35611fff60014303065500",
                "nonce" : "0x01",
                "storage" : {
                }
            },
            "0x000f3df6d732807ef1319fb7b8bb8522d0beac02" : {
                "balance" : "0x00",
                "code" : "0x3373fffffffffffffffffffffffffffffffffffffffe14604d57602036146024575f5ffd5b5f35801560495762001fff810690815414603c575f5ffd5b62001fff01545f5260205ff35b5f5ffd5b62001fff42064281555f359062001fff015500",
                "nonce" : "0x01",
                "storage" : {
                }
            },
            "0x095e7baea6a6c7c4c2dfeb977efac326af552d87" : {
                "balance" : "0x0186a0",
                "code" : "0x7c01000000000000000000000000000000000000000000000000000000006000350463a60eedda8114610039578063c04062261461004b57005b61004161005d565b8060005260206000f35b61005361015a565b8060005260206000f35b60006000608161018a600039608160006000f0905073ffffffffffffffffffffffffffffffffffffffff811662f55d9d6000807ef55d9d00000000000000000000000000000000000000000000000000000000825260044173ffffffffffffffffffffffffffffffffffffffff168152602001600060008660325a03f16100e057005b505073ffffffffffffffffffffffffffffffffffffffff811663b9c3d0a5602060007fb9c3d0a50000000000000000000000000000000000000000000000000000000081526004600060008660325a03f161013757005b505060005160e11461014857610151565b60019150610156565b600091505b5090565b600061016461005d565b600060006101000a81548160ff0219169083021790555060ff600160005404169050905600607580600c6000396000f3007c01000000000000000000000000000000000000000000000000000000006000350462f55d9d81146036578063b9c3d0a514604557005b603f600435605a565b60006000f35b604b6055565b8060005260206000f35b60e190565b8073ffffffffffffffffffffffffffffffffffffffff16ff5056",
                "nonce" : "0x00",
                "storage" : {
                }
            },
            "0xa94f5374fce5edbc8e2a8697c15331677e6ebf0b" : {
                "balance" : "0x05f5e100",
                "code" : "0x",
                "nonce" : "0x00",
                "storage" : {
                }
            }
        },
        "sealEngine" : "NoProof"
    }
}