{
    "tloadDoesNotPersistAcrossBlocks_Cancun" : {
        "_info" : {
            "comment" : "",
            "filling-rpc-server" : "evmone-t8n 0.14.0-13+commit.4d363c36",
            "filling-tool-version" : "retesteth-0.3.2-legacy+commit.ca7f4c79.Linux.g++",
            "fixture-format" : "blockchain_test",
            "generatedTestHash" : "6817daa201176f0c230008793f3f40440f4319ae4836b1acdcd5d0d223d1ed01",
            "lllcversion" : "Version: 0.5.14-develop.2024.11.5+commit.b2b86751.mod.Linux.g++",
            "solidity" : "Version: 0.8.24+commit.e11b9ed9.Linux.g++",
            "source" : "src/BlockchainTestsFiller/ValidBlocks/bcEIP1153-transientStorage/tloadDoesNotPersistAcrossBlocksFiller.yml",
            "sourceHash" : "3b5ffa8be609cd1811b64659b88f4088ed196dd60b0415359ab66a592399f602"
        },
        "blocks" : [
            {
                "blockHeader" : {
                    "baseFeePerGas" : "0x036b",
                    "blobGasUsed" : "0x00",
                    "bloom" : "0x00000000000000000000000000000000000000000000000000000000000000000000000000000000000000000000000000000000000000000000000000000000000000000000000000000000000000000000000000000000000000000000000000000000000000000000000000000000000000000000000000000000000000000000000000000000000000000000000000000000000000000000000000000000000000000000000000000000000000000000000000000000000000000000000000000000000000000000000000000000000000000000000000000000000000000000000000000000000000000000000000000000000000000000000000000000",
                    "coinbase" : "0xba5e000000000000000000000000000000000000",
                    "difficulty" : "0x00",
                    "excessBlobGas" : "0x00",
                    "extraData" : "0x42",
                    "gasLimit" : "0x016345785d8a0000",
                    "gasUsed" : "0xa99d",
                    "hash" : "0x3d315cf5e9064bfe33f12890d979ddd43536d3cbf2c1366d2579458e3d3a0c8f",
                    "mixHash" : "0x0000000000000000000000000000000000000000000000000000000000020000",
                    "nonce" : "0x0000000000000000",
                    "number" : "0x01",
                    "parentBeaconBlockRoot" : "0x0000000000000000000000000000000000000000000000000000000000000000",
                    "parentHash" : "0x7c02fe22f5a0e400450ea8565b4a3dc8b28c45b1ced7921724645b2bc47f3a17",
                    "receiptTrie" : "0x58a52fa6e669cfe203a132e9901f5b278e07f6264673e478c0dd8bcce4e4d2a0",
                    "stateRoot" : "0xbbe5e20caae47d71bb409a5b33c2d10b69bedf26ec2f45c470eaeaec3ec6eafc",
                    "timestamp" : "0x079e",
                    "transactionsTrie" : "0x3e8d270b4eb4fafa4155b74a7daefb4738a3c28c62c4301390ec22e7d11ffad9",
                    "uncleHash" : "0x1dcc4de8dec75d7aab85b567b6ccd41ad312451b948a7413f0a142fd40d49347",
                    "withdrawalsRoot" : "0x56e81f171bcc55a6ff8345e692c0f86e5b48e01b996cadc001622fb5e363b421"
                },
                "blocknumber" : "1",
                "chainname" : "default",
                "rlp" : "0xf902b7f90240a07c02fe22f5a0e400450ea8565b4a3dc8b28c45b1ced7921724645b2bc47f3a17a01dcc4de8dec75d7aab85b567b6ccd41ad312451b948a7413f0a142fd40d4934794ba5e000000000000000000000000000000000000a0bbe5e20caae47d71bb409a5b33c2d10b69bedf26ec2f45c470eaeaec3ec6eafca03e8d270b4eb4fafa4155b74a7daefb4738a3c28c62c4301390ec22e7d11ffad9a058a52fa6e669cfe203a132e9901f5b278e07f6264673e478c0dd8bcce4e4d2a0b9010000000000000000000000000000000000000000000000000000000000000000000000000000000000000000000000000000000000000000000000000000000000000000000000000000000000000000000000000000000000000000000000000000000000000000000000000000000000000000000000000000000000000000000000000000000000000000000000000000000000000000000000000000000000000000000000000000000000000000000000000000000000000000000000000000000000000000000000000000000000000000000000000000000000000000000000000000000000000000000000000000000000000000000000000000000000800188016345785d8a000082a99d82079e42a0000000000000000000000000000000000000000000000000000000000002000088000000000000000082036ba056e81f171bcc55a6ff8345e692c0f86e5b48e01b996cadc001622fb5e363b4218080a00000000000000000000000000000000000000000000000000000000000000000f870b86e02f86b0180018203e885e8d4a5100094a00000000000000000000000000000000000000a80840accf739c001a06d9dae9e1b4da0990b7fcb659dcbb0c9e54127ed39646fca5ec8540ac48c4d64a04d4e513632de3617df9c35d97ffbd7607045f58d97624842399bdd0c9ca6683cc0c0",
                "transactions" : [
                    {
                        "accessList" : [
                        ],
                        "chainId" : "0x01",
                        "data" : "0x0accf739",
                        "gasLimit" : "0xe8d4a51000",
                        "maxFeePerGas" : "0x03e8",
                        "maxPriorityFeePerGas" : "0x01",
                        "nonce" : "0x00",
                        "r" : "0x6d9dae9e1b4da0990b7fcb659dcbb0c9e54127ed39646fca5ec8540ac48c4d64",
                        "s" : "0x4d4e513632de3617df9c35d97ffbd7607045f58d97624842399bdd0c9ca6683c",
                        "sender" : "0xa94f5374fce5edbc8e2a8697c15331677e6ebf0b",
                        "to" : "0xa00000000000000000000000000000000000000a",
                        "type" : "0x02",
                        "v" : "0x01",
                        "value" : "0x00"
                    }
                ],
                "uncleHeaders" : [
                ],
                "withdrawals" : [
                ]
            },
            {
                "blockHeader" : {
                    "baseFeePerGas" : "0x02fe",
                    "blobGasUsed" : "0x00",
                    "bloom" : "0x00000000000000000000000000000000000000000000000000000000000000000000000000000000000000000000000000000000000000000000000000000000000000000000000000000000000000000000000000000000000000000000000000000000000000000000000000000000000000000000000000000000000000000000000000000000000000000000000000000000000000000000000000000000000000000000000000000000000000000000000000000000000000000000000000000000000000000000000000000000000000000000000000000000000000000000000000000000000000000000000000000000000000000000000000000000",
                    "coinbase" : "0xba5e000000000000000000000000000000000000",
                    "difficulty" : "0x00",
                    "excessBlobGas" : "0x00",
                    "extraData" : "0x42",
                    "gasLimit" : "0x016345785d8a0000",
                    "gasUsed" : "0x53c6",
                    "hash" : "0x2b2c7d860b13047b7098f76194f23aa2f0d378bd33be9b6e43f27c86b34b0ca1",
                    "mixHash" : "0x0000000000000000000000000000000000000000000000000000000000020000",
                    "nonce" : "0x0000000000000000",
                    "number" : "0x02",
                    "parentBeaconBlockRoot" : "0x0000000000000000000000000000000000000000000000000000000000000000",
                    "parentHash" : "0x3d315cf5e9064bfe33f12890d979ddd43536d3cbf2c1366d2579458e3d3a0c8f",
                    "receiptTrie" : "0xd2102bca083a657c0105eb2dbb71cf7491da54bf8d1e0a4c4226e6761a112112",
                    "stateRoot" : "0xa60c55d330978965f1df4131d13190c23bf6c9958b1bf67dbc7c63bd6ce8cc26",
                    "timestamp" : "0x0b86",
                    "transactionsTrie" : "0x4e205360311a5556060bf6f201fe65ca227caa18510bb0072d5b65a29606e31f",
                    "uncleHash" : "0x1dcc4de8dec75d7aab85b567b6ccd41ad312451b948a7413f0a142fd40d49347",
                    "withdrawalsRoot" : "0x56e81f171bcc55a6ff8345e692c0f86e5b48e01b996cadc001622fb5e363b421"
                },
                "blocknumber" : "2",
                "chainname" : "default",
                "rlp" : "0xf902b7f90240a03d315cf5e9064bfe33f12890d979ddd43536d3cbf2c1366d2579458e3d3a0c8fa01dcc4de8dec75d7aab85b567b6ccd41ad312451b948a7413f0a142fd40d4934794ba5e000000000000000000000000000000000000a0a60c55d330978965f1df4131d13190c23bf6c9958b1bf67dbc7c63bd6ce8cc26a04e205360311a5556060bf6f201fe65ca227caa18510bb0072d5b65a29606e31fa0d2102bca083a657c0105eb2dbb71cf7491da54bf8d1e0a4c4226e6761a112112b9010000000000000000000000000000000000000000000000000000000000000000000000000000000000000000000000000000000000000000000000000000000000000000000000000000000000000000000000000000000000000000000000000000000000000000000000000000000000000000000000000000000000000000000000000000000000000000000000000000000000000000000000000000000000000000000000000000000000000000000000000000000000000000000000000000000000000000000000000000000000000000000000000000000000000000000000000000000000000000000000000000000000000000000000000000000000800288016345785d8a00008253c6820b8642a000000000000000000000000000000000000000000000000000000000000200008800000000000000008202fea056e81f171bcc55a6ff8345e692c0f86e5b48e01b996cadc001622fb5e363b4218080a00000000000000000000000000000000000000000000000000000000000000000f870b86e02f86b0101018203e885e8d4a5100094a00000000000000000000000000000000000000a808443ac1c39c001a07892e78bcbd493f71100ee7796fee2ba9f8a0206fe02215e5b3065547c867726a01f23874841264e5a94ebb8d3ea2370ad51e0c806e5dce5204454ab0a2c27b8edc0c0",
                "transactions" : [
                    {
                        "accessList" : [
                        ],
                        "chainId" : "0x01",
                        "data" : "0x43ac1c39",
                        "gasLimit" : "0xe8d4a51000",
                        "maxFeePerGas" : "0x03e8",
                        "maxPriorityFeePerGas" : "0x01",
                        "nonce" : "0x01",
                        "r" : "0x7892e78bcbd493f71100ee7796fee2ba9f8a0206fe02215e5b3065547c867726",
                        "s" : "0x1f23874841264e5a94ebb8d3ea2370ad51e0c806e5dce5204454ab0a2c27b8ed",
                        "sender" : "0xa94f5374fce5edbc8e2a8697c15331677e6ebf0b",
                        "to" : "0xa00000000000000000000000000000000000000a",
                        "type" : "0x02",
                        "v" : "0x01",
                        "value" : "0x00"
                    }
                ],
                "uncleHeaders" : [
                ],
                "withdrawals" : [
                ]
            }
        ],
        "config" : {
            "blobSchedule" : {
                "Cancun" : {
                    "baseFeeUpdateFraction" : "0x32f0ed",
                    "max" : "0x06",
                    "target" : "0x03"
                }
            },
            "chainid" : "0x01",
            "network" : "Cancun"
        },
        "genesisBlockHeader" : {
            "baseFeePerGas" : "0x03e8",
            "blobGasUsed" : "0x00",
            "bloom" : "0x00000000000000000000000000000000000000000000000000000000000000000000000000000000000000000000000000000000000000000000000000000000000000000000000000000000000000000000000000000000000000000000000000000000000000000000000000000000000000000000000000000000000000000000000000000000000000000000000000000000000000000000000000000000000000000000000000000000000000000000000000000000000000000000000000000000000000000000000000000000000000000000000000000000000000000000000000000000000000000000000000000000000000000000000000000000",
            "coinbase" : "0xba5e000000000000000000000000000000000000",
            "difficulty" : "0x00",
            "excessBlobGas" : "0x00",
            "extraData" : "0x42",
            "gasLimit" : "0x016345785d8a0000",
            "gasUsed" : "0x00",
            "hash" : "0x7c02fe22f5a0e400450ea8565b4a3dc8b28c45b1ced7921724645b2bc47f3a17",
            "mixHash" : "0x0000000000000000000000000000000000000000000000000000000000020000",
            "nonce" : "0x0000000000000000",
            "number" : "0x00",
            "parentBeaconBlockRoot" : "0x0000000000000000000000000000000000000000000000000000000000000000",
            "parentHash" : "0x0000000000000000000000000000000000000000000000000000000000000000",
            "receiptTrie" : "0x56e81f171bcc55a6ff8345e692c0f86e5b48e01b996cadc001622fb5e363b421",
            "stateRoot" : "0xed15108d8b3310992540d450c98826887e50649a327121f4590e347f01080b17",
            "timestamp" : "0x03b6",
            "transactionsTrie" : "0x56e81f171bcc55a6ff8345e692c0f86e5b48e01b996cadc001622fb5e363b421",
            "uncleHash" : "0x1dcc4de8dec75d7aab85b567b6ccd41ad312451b948a7413f0a142fd40d49347",
            "withdrawalsRoot" : "0x56e81f171bcc55a6ff8345e692c0f86e5b48e01b996cadc001622fb5e363b421"
        },
        "genesisRLP" : "0xf90244f9023ea00000000000000000000000000000000000000000000000000000000000000000a01dcc4de8dec75d7aab85b567b6ccd41ad312451b948a7413f0a142fd40d4934794ba5e000000000000000000000000000000000000a0ed15108d8b3310992540d450c98826887e50649a327121f4590e347f01080b17a056e81f171bcc55a6ff8345e692c0f86e5b48e01b996cadc001622fb5e363b421a056e81f171bcc55a6ff8345e692c0f86e5b48e01b996cadc001622fb5e363b421b9010000000000000000000000000000000000000000000000000000000000000000000000000000000000000000000000000000000000000000000000000000000000000000000000000000000000000000000000000000000000000000000000000000000000000000000000000000000000000000000000000000000000000000000000000000000000000000000000000000000000000000000000000000000000000000000000000000000000000000000000000000000000000000000000000000000000000000000000000000000000000000000000000000000000000000000000000000000000000000000000000000000000000000000000000000000000808088016345785d8a0000808203b642a000000000000000000000000000000000000000000000000000000000000200008800000000000000008203e8a056e81f171bcc55a6ff8345e692c0f86e5b48e01b996cadc001622fb5e363b4218080a00000000000000000000000000000000000000000000000000000000000000000c0c0c0",
        "lastblockhash" : "0x2b2c7d860b13047b7098f76194f23aa2f0d378bd33be9b6e43f27c86b34b0ca1",
        "network" : "Cancun",
        "postState" : {
            "0x000f3df6d732807ef1319fb7b8bb8522d0beac02" : {
                "balance" : "0x00",
                "code" : "0x3373fffffffffffffffffffffffffffffffffffffffe14604d57602036146024575f5ffd5b5f35801560495762001fff810690815414603c575f5ffd5b62001fff01545f5260205ff35b5f5ffd5b62001fff42064281555f359062001fff015500",
                "nonce" : "0x01",
                "storage" : {
                    "0x03b6" : "0x03b6",
                    "0x079e" : "0x079e",
                    "0x0b86" : "0x0b86"
                }
            },
            "0xa00000000000000000000000000000000000000a" : {
                "balance" : "0x01000000000000000000",
                "code" : "0x5f3560e01c80630accf739146021576343ac1c3914601957005b601f602e565b005b50601f605a5f5d5f5c5f55565b5f5c60015556",
                "nonce" : "0x00",
                "storage" : {
                    "0x00" : "0x5a"
                }
            },
            "0xa94f5374fce5edbc8e2a8697c15331677e6ebf0b" : {
                "balance" : "0xfffffffffffcc09c8a",
                "code" : "0x",
                "nonce" : "0x02",
                "storage" : {
                }
            },
            "0xba5e000000000000000000000000000000000000" : {
                "balance" : "0xfd63",
                "code" : "0x",
                "nonce" : "0x00",
                "storage" : {
                }
            }
        },
        "pre" : {
            "0x000f3df6d732807ef1319fb7b8bb8522d0beac02" : {
                "balance" : "0x00",
                "code" : "0x3373fffffffffffffffffffffffffffffffffffffffe14604d57602036146024575f5ffd5b5f35801560495762001fff810690815414603c575f5ffd5b62001fff01545f5260205ff35b5f5ffd5b62001fff42064281555f359062001fff015500",
                "nonce" : "0x01",
                "storage" : {
                    "0x03b6" : "0x03b6"
                }
            },
            "0xa00000000000000000000000000000000000000a" : {
                "balance" : "0x01000000000000000000",
                "code" : "0x5f3560e01c80630accf739146021576343ac1c3914601957005b601f602e565b005b50601f605a5f5d5f5c5f55565b5f5c60015556",
                "nonce" : "0x00",
                "storage" : {
                    "0x01" : "0xffff"
                }
            },
            "0xa94f5374fce5edbc8e2a8697c15331677e6ebf0b" : {
                "balance" : "0x01000000000000000000",
                "code" : "0x",
                "nonce" : "0x00",
                "storage" : {
                }
            }
        },
        "sealEngine" : "NoProof"
    },
    "tloadDoesNotPersistAcrossBlocks_Prague" : {
        "_info" : {
            "comment" : "",
            "filling-rpc-server" : "evmone-t8n 0.14.0-13+commit.4d363c36",
            "filling-tool-version" : "retesteth-0.3.2-legacy+commit.ca7f4c79.Linux.g++",
            "fixture-format" : "blockchain_test",
            "generatedTestHash" : "f3a29c929c01e98017b4b7ce689d30602a4b7250cd10bcce79a019a0a3b1b5ce",
            "lllcversion" : "Version: 0.5.14-develop.2024.11.5+commit.b2b86751.mod.Linux.g++",
            "solidity" : "Version: 0.8.24+commit.e11b9ed9.Linux.g++",
            "source" : "src/BlockchainTestsFiller/ValidBlocks/bcEIP1153-transientStorage/tloadDoesNotPersistAcrossBlocksFiller.yml",
            "sourceHash" : "3b5ffa8be609cd1811b64659b88f4088ed196dd60b0415359ab66a592399f602"
        },
        "blocks" : [
            {
                "blockHeader" : {
                    "baseFeePerGas" : "0x036b",
                    "blobGasUsed" : "0x00",
                    "bloom" : "0x00000000000000000000000000000000000000000000000000000000000000000000000000000000000000000000000000000000000000000000000000000000000000000000000000000000000000000000000000000000000000000000000000000000000000000000000000000000000000000000000000000000000000000000000000000000000000000000000000000000000000000000000000000000000000000000000000000000000000000000000000000000000000000000000000000000000000000000000000000000000000000000000000000000000000000000000000000000000000000000000000000000000000000000000000000000",
                    "coinbase" : "0xba5e000000000000000000000000000000000000",
                    "difficulty" : "0x00",
                    "excessBlobGas" : "0x00",
                    "extraData" : "0x42",
                    "gasLimit" : "0x016345785d8a0000",
                    "gasUsed" : "0xa99d",
                    "hash" : "0xa26a8888cae900df91065e4b3569bde6441951ae272ddded34d07cc4e8c145fb",
                    "mixHash" : "0x0000000000000000000000000000000000000000000000000000000000020000",
                    "nonce" : "0x0000000000000000",
                    "number" : "0x01",
                    "parentBeaconBlockRoot" : "0x0000000000000000000000000000000000000000000000000000000000000000",
                    "parentHash" : "0x0c47921d7fd0e614e1f14d84ded6d18725e9325681d3f6bda31a1d9afa8e2f40",
                    "receiptTrie" : "0x58a52fa6e669cfe203a132e9901f5b278e07f6264673e478c0dd8bcce4e4d2a0",
                    "requestsHash" : "0xe3b0c44298fc1c149afbf4c8996fb92427ae41e4649b934ca495991b7852b855",
                    "stateRoot" : "0xcf7d372c04344ab9c1d93854418d3ee25dd599e5342c2be720102615e33b79fc",
                    "timestamp" : "0x079e",
                    "transactionsTrie" : "0x3e8d270b4eb4fafa4155b74a7daefb4738a3c28c62c4301390ec22e7d11ffad9",
                    "uncleHash" : "0x1dcc4de8dec75d7aab85b567b6ccd41ad312451b948a7413f0a142fd40d49347",
                    "withdrawalsRoot" : "0x56e81f171bcc55a6ff8345e692c0f86e5b48e01b996cadc001622fb5e363b421"
                },
                "blocknumber" : "1",
                "chainname" : "default",
                "rlp" : "0xf902d8f90261a00c47921d7fd0e614e1f14d84ded6d18725e9325681d3f6bda31a1d9afa8e2f40a01dcc4de8dec75d7aab85b567b6ccd41ad312451b948a7413f0a142fd40d4934794ba5e000000000000000000000000000000000000a0cf7d372c04344ab9c1d93854418d3ee25dd599e5342c2be720102615e33b79fca03e8d270b4eb4fafa4155b74a7daefb4738a3c28c62c4301390ec22e7d11ffad9a058a52fa6e669cfe203a132e9901f5b278e07f6264673e478c0dd8bcce4e4d2a0b9010000000000000000000000000000000000000000000000000000000000000000000000000000000000000000000000000000000000000000000000000000000000000000000000000000000000000000000000000000000000000000000000000000000000000000000000000000000000000000000000000000000000000000000000000000000000000000000000000000000000000000000000000000000000000000000000000000000000000000000000000000000000000000000000000000000000000000000000000000000000000000000000000000000000000000000000000000000000000000000000000000000000000000000000000000000000800188016345785d8a000082a99d82079e42a0000000000000000000000000000000000000000000000000000000000002000088000000000000000082036ba056e81f171bcc55a6ff8345e692c0f86e5b48e01b996cadc001622fb5e363b4218080a00000000000000000000000000000000000000000000000000000000000000000a0e3b0c44298fc1c149afbf4c8996fb92427ae41e4649b934ca495991b7852b855f870b86e02f86b0180018203e885e8d4a5100094a00000000000000000000000000000000000000a80840accf739c001a06d9dae9e1b4da0990b7fcb659dcbb0c9e54127ed39646fca5ec8540ac48c4d64a04d4e513632de3617df9c35d97ffbd7607045f58d97624842399bdd0c9ca6683cc0c0",
                "transactions" : [
                    {
                        "accessList" : [
                        ],
                        "chainId" : "0x01",
                        "data" : "0x0accf739",
                        "gasLimit" : "0xe8d4a51000",
                        "maxFeePerGas" : "0x03e8",
                        "maxPriorityFeePerGas" : "0x01",
                        "nonce" : "0x00",
                        "r" : "0x6d9dae9e1b4da0990b7fcb659dcbb0c9e54127ed39646fca5ec8540ac48c4d64",
                        "s" : "0x4d4e513632de3617df9c35d97ffbd7607045f58d97624842399bdd0c9ca6683c",
                        "sender" : "0xa94f5374fce5edbc8e2a8697c15331677e6ebf0b",
                        "to" : "0xa00000000000000000000000000000000000000a",
                        "type" : "0x02",
                        "v" : "0x01",
                        "value" : "0x00"
                    }
                ],
                "uncleHeaders" : [
                ],
                "withdrawals" : [
                ]
            },
            {
                "blockHeader" : {
                    "baseFeePerGas" : "0x02fe",
                    "blobGasUsed" : "0x00",
                    "bloom" : "0x00000000000000000000000000000000000000000000000000000000000000000000000000000000000000000000000000000000000000000000000000000000000000000000000000000000000000000000000000000000000000000000000000000000000000000000000000000000000000000000000000000000000000000000000000000000000000000000000000000000000000000000000000000000000000000000000000000000000000000000000000000000000000000000000000000000000000000000000000000000000000000000000000000000000000000000000000000000000000000000000000000000000000000000000000000000",
                    "coinbase" : "0xba5e000000000000000000000000000000000000",
                    "difficulty" : "0x00",
                    "excessBlobGas" : "0x00",
                    "extraData" : "0x42",
                    "gasLimit" : "0x016345785d8a0000",
                    "gasUsed" : "0x53c6",
                    "hash" : "0xa1e66c3d2fee5c8c16fd404960254112aecc72e7921d112d564a98aba0fb44bd",
                    "mixHash" : "0x0000000000000000000000000000000000000000000000000000000000020000",
                    "nonce" : "0x0000000000000000",
                    "number" : "0x02",
                    "parentBeaconBlockRoot" : "0x0000000000000000000000000000000000000000000000000000000000000000",
                    "parentHash" : "0xa26a8888cae900df91065e4b3569bde6441951ae272ddded34d07cc4e8c145fb",
                    "receiptTrie" : "0xd2102bca083a657c0105eb2dbb71cf7491da54bf8d1e0a4c4226e6761a112112",
                    "requestsHash" : "0xe3b0c44298fc1c149afbf4c8996fb92427ae41e4649b934ca495991b7852b855",
                    "stateRoot" : "0xad1f71b8da5c79d64bd8f2b07cd9166105b7857fcd2fc788db402df96be0c127",
                    "timestamp" : "0x0b86",
                    "transactionsTrie" : "0x4e205360311a5556060bf6f201fe65ca227caa18510bb0072d5b65a29606e31f",
                    "uncleHash" : "0x1dcc4de8dec75d7aab85b567b6ccd41ad312451b948a7413f0a142fd40d49347",
                    "withdrawalsRoot" : "0x56e81f171bcc55a6ff8345e692c0f86e5b48e01b996cadc001622fb5e363b421"
                },
                "blocknumber" : "2",
                "chainname" : "default",
                "rlp" : "0xf902d8f90261a0a26a8888cae900df91065e4b3569bde6441951ae272ddded34d07cc4e8c145fba01dcc4de8dec75d7aab85b567b6ccd41ad312451b948a7413f0a142fd40d4934794ba5e000000000000000000000000000000000000a0ad1f71b8da5c79d64bd8f2b07cd9166105b7857fcd2fc788db402df96be0c127a04e205360311a5556060bf6f201fe65ca227caa18510bb0072d5b65a29606e31fa0d2102bca083a657c0105eb2dbb71cf7491da54bf8d1e0a4c4226e6761a112112b9010000000000000000000000000000000000000000000000000000000000000000000000000000000000000000000000000000000000000000000000000000000000000000000000000000000000000000000000000000000000000000000000000000000000000000000000000000000000000000000000000000000000000000000000000000000000000000000000000000000000000000000000000000000000000000000000000000000000000000000000000000000000000000000000000000000000000000000000000000000000000000000000000000000000000000000000000000000000000000000000000000000000000000000000000000000000800288016345785d8a00008253c6820b8642a000000000000000000000000000000000000000000000000000000000000200008800000000000000008202fea056e81f171bcc55a6ff8345e692c0f86e5b48e01b996cadc001622fb5e363b4218080a00000000000000000000000000000000000000000000000000000000000000000a0e3b0c44298fc1c149afbf4c8996fb92427ae41e4649b934ca495991b7852b855f870b86e02f86b0101018203e885e8d4a5100094a00000000000000000000000000000000000000a808443ac1c39c001a07892e78bcbd493f71100ee7796fee2ba9f8a0206fe02215e5b3065547c867726a01f23874841264e5a94ebb8d3ea2370ad51e0c806e5dce5204454ab0a2c27b8edc0c0",
                "transactions" : [
                    {
                        "accessList" : [
                        ],
                        "chainId" : "0x01",
                        "data" : "0x43ac1c39",
                        "gasLimit" : "0xe8d4a51000",
                        "maxFeePerGas" : "0x03e8",
                        "maxPriorityFeePerGas" : "0x01",
                        "nonce" : "0x01",
                        "r" : "0x7892e78bcbd493f71100ee7796fee2ba9f8a0206fe02215e5b3065547c867726",
                        "s" : "0x1f23874841264e5a94ebb8d3ea2370ad51e0c806e5dce5204454ab0a2c27b8ed",
                        "sender" : "0xa94f5374fce5edbc8e2a8697c15331677e6ebf0b",
                        "to" : "0xa00000000000000000000000000000000000000a",
                        "type" : "0x02",
                        "v" : "0x01",
                        "value" : "0x00"
                    }
                ],
                "uncleHeaders" : [
                ],
                "withdrawals" : [
                ]
            }
        ],
        "config" : {
            "blobSchedule" : {
                "Prague" : {
                    "baseFeeUpdateFraction" : "0x4c6964",
                    "max" : "0x09",
                    "target" : "0x06"
                }
            },
            "chainid" : "0x01",
            "network" : "Prague"
        },
        "genesisBlockHeader" : {
            "baseFeePerGas" : "0x03e8",
            "blobGasUsed" : "0x00",
            "bloom" : "0x00000000000000000000000000000000000000000000000000000000000000000000000000000000000000000000000000000000000000000000000000000000000000000000000000000000000000000000000000000000000000000000000000000000000000000000000000000000000000000000000000000000000000000000000000000000000000000000000000000000000000000000000000000000000000000000000000000000000000000000000000000000000000000000000000000000000000000000000000000000000000000000000000000000000000000000000000000000000000000000000000000000000000000000000000000000",
            "coinbase" : "0xba5e000000000000000000000000000000000000",
            "difficulty" : "0x00",
            "excessBlobGas" : "0x00",
            "extraData" : "0x42",
            "gasLimit" : "0x016345785d8a0000",
            "gasUsed" : "0x00",
            "hash" : "0x0c47921d7fd0e614e1f14d84ded6d18725e9325681d3f6bda31a1d9afa8e2f40",
            "mixHash" : "0x0000000000000000000000000000000000000000000000000000000000020000",
            "nonce" : "0x0000000000000000",
            "number" : "0x00",
            "parentBeaconBlockRoot" : "0x0000000000000000000000000000000000000000000000000000000000000000",
            "parentHash" : "0x0000000000000000000000000000000000000000000000000000000000000000",
            "receiptTrie" : "0x56e81f171bcc55a6ff8345e692c0f86e5b48e01b996cadc001622fb5e363b421",
            "requestsHash" : "0xe3b0c44298fc1c149afbf4c8996fb92427ae41e4649b934ca495991b7852b855",
            "stateRoot" : "0xd2b8498bffcea32cae23969e3f024c29680d8d2195550fcada1b38fb98350e10",
            "timestamp" : "0x03b6",
            "transactionsTrie" : "0x56e81f171bcc55a6ff8345e692c0f86e5b48e01b996cadc001622fb5e363b421",
            "uncleHash" : "0x1dcc4de8dec75d7aab85b567b6ccd41ad312451b948a7413f0a142fd40d49347",
            "withdrawalsRoot" : "0x56e81f171bcc55a6ff8345e692c0f86e5b48e01b996cadc001622fb5e363b421"
        },
        "genesisRLP" : "0xf90265f9025fa00000000000000000000000000000000000000000000000000000000000000000a01dcc4de8dec75d7aab85b567b6ccd41ad312451b948a7413f0a142fd40d4934794ba5e000000000000000000000000000000000000a0d2b8498bffcea32cae23969e3f024c29680d8d2195550fcada1b38fb98350e10a056e81f171bcc55a6ff8345e692c0f86e5b48e01b996cadc001622fb5e363b421a056e81f171bcc55a6ff8345e692c0f86e5b48e01b996cadc001622fb5e363b421b9010000000000000000000000000000000000000000000000000000000000000000000000000000000000000000000000000000000000000000000000000000000000000000000000000000000000000000000000000000000000000000000000000000000000000000000000000000000000000000000000000000000000000000000000000000000000000000000000000000000000000000000000000000000000000000000000000000000000000000000000000000000000000000000000000000000000000000000000000000000000000000000000000000000000000000000000000000000000000000000000000000000000000000000000000000000000808088016345785d8a0000808203b642a000000000000000000000000000000000000000000000000000000000000200008800000000000000008203e8a056e81f171bcc55a6ff8345e692c0f86e5b48e01b996cadc001622fb5e363b4218080a00000000000000000000000000000000000000000000000000000000000000000a0e3b0c44298fc1c149afbf4c8996fb92427ae41e4649b934ca495991b7852b855c0c0c0",
        "lastblockhash" : "0xa1e66c3d2fee5c8c16fd404960254112aecc72e7921d112d564a98aba0fb44bd",
        "network" : "Prague",
        "postState" : {
            "0x0000f90827f1c53a10cb7a02335b175320002935" : {
                "balance" : "0x00",
                "code" : "0x3373fffffffffffffffffffffffffffffffffffffffe14604657602036036042575f35600143038111604257611fff81430311604257611fff9006545f5260205ff35b5f5ffd5b5f35611fff60014303065500",
                "nonce" : "0x01",
                "storage" : {
                    "0x00" : "0x0c47921d7fd0e614e1f14d84ded6d18725e9325681d3f6bda31a1d9afa8e2f40",
                    "0x01" : "0xa26a8888cae900df91065e4b3569bde6441951ae272ddded34d07cc4e8c145fb"
                }
            },
            "0x000f3df6d732807ef1319fb7b8bb8522d0beac02" : {
                "balance" : "0x00",
                "code" : "0x3373fffffffffffffffffffffffffffffffffffffffe14604d57602036146024575f5ffd5b5f35801560495762001fff810690815414603c575f5ffd5b62001fff01545f5260205ff35b5f5ffd5b62001fff42064281555f359062001fff015500",
                "nonce" : "0x01",
                "storage" : {
                    "0x03b6" : "0x03b6",
                    "0x079e" : "0x079e",
                    "0x0b86" : "0x0b86"
                }
            },
            "0xa00000000000000000000000000000000000000a" : {
                "balance" : "0x01000000000000000000",
                "code" : "0x5f3560e01c80630accf739146021576343ac1c3914601957005b601f602e565b005b50601f605a5f5d5f5c5f55565b5f5c60015556",
                "nonce" : "0x00",
                "storage" : {
                    "0x00" : "0x5a"
                }
            },
            "0xa94f5374fce5edbc8e2a8697c15331677e6ebf0b" : {
                "balance" : "0xfffffffffffcc09c8a",
                "code" : "0x",
                "nonce" : "0x02",
                "storage" : {
                }
            },
            "0xba5e000000000000000000000000000000000000" : {
                "balance" : "0xfd63",
                "code" : "0x",
                "nonce" : "0x00",
                "storage" : {
                }
            }
        },
        "pre" : {
            "0x0000f90827f1c53a10cb7a02335b175320002935" : {
                "balance" : "0x00",
                "code" : "0x3373fffffffffffffffffffffffffffffffffffffffe14604657602036036042575f35600143038111604257611fff81430311604257611fff9006545f5260205ff35b5f5ffd5b5f35611fff60014303065500",
                "nonce" : "0x01",
                "storage" : {
                }
            },
            "0x000f3df6d732807ef1319fb7b8bb8522d0beac02" : {
                "balance" : "0x00",
                "code" : "0x3373fffffffffffffffffffffffffffffffffffffffe14604d57602036146024575f5ffd5b5f35801560495762001fff810690815414603c575f5ffd5b62001fff01545f5260205ff35b5f5ffd5b62001fff42064281555f359062001fff015500",
                "nonce" : "0x01",
                "storage" : {
                    "0x03b6" : "0x03b6"
                }
            },
            "0xa00000000000000000000000000000000000000a" : {
                "balance" : "0x01000000000000000000",
                "code" : "0x5f3560e01c80630accf739146021576343ac1c3914601957005b601f602e565b005b50601f605a5f5d5f5c5f55565b5f5c60015556",
                "nonce" : "0x00",
                "storage" : {
                    "0x01" : "0xffff"
                }
            },
            "0xa94f5374fce5edbc8e2a8697c15331677e6ebf0b" : {
                "balance" : "0x01000000000000000000",
                "code" : "0x",
                "nonce" : "0x00",
                "storage" : {
                }
            }
        },
        "sealEngine" : "NoProof"
    }
}