{
    "tloadDoesNotPersistCrossTxn_Cancun" : {
        "_info" : {
            "comment" : "",
            "filling-rpc-server" : "evmone-t8n 0.14.0-13+commit.4d363c36",
            "filling-tool-version" : "retesteth-0.3.2-legacy+commit.ca7f4c79.Linux.g++",
            "fixture-format" : "blockchain_test",
            "generatedTestHash" : "6cb08342ebed812eb13a978afb85160130c4e8d370556bd8e484ec7c37c097c6",
            "lllcversion" : "Version: 0.5.14-develop.2024.11.5+commit.b2b86751.mod.Linux.g++",
            "hyperion" : "Version: 0.8.24+commit.e11b9ed9.Linux.g++",
            "source" : "src/BlockchainTestsFiller/ValidBlocks/bcEIP1153-transientStorage/tloadDoesNotPersistCrossTxnFiller.yml",
            "sourceHash" : "e624b0d0cf3feda1953a8f46f0f9f3c10a0be93064eb3d67eeac5c6cf2dc4123"
        },
        "blocks" : [
            {
                "blockHeader" : {
                    "baseFeePerGas" : "0x036b",
                    "bloom" : "0x00000000000000000000000000000000000000000000000000000000000000000000000000000000000000000000000000000000000000000000000000000000000000000000000000000000000000000000000000000000000000000000000000000000000000000000000000000000000000000000000000000000000000000000000000000000000000000000000000000000000000000000000000000000000000000000000000000000000000000000000000000000000000000000000000000000000000000000000000000000000000000000000000000000000000000000000000000000000000000000000000000000000000000000000000000000",
                    "coinbase" : "0xba5e000000000000000000000000000000000000",
                    "extraData" : "0x42",
                    "gasLimit" : "0x016345785d8a0000",
                    "gasUsed" : "0xfd63",
                    "hash" : "0x7fb34842944c64a559f18cf9e49a73f5c7c4b1fe38bde633f43dbe1e31e733f0",
                    "mixHash" : "0x0000000000000000000000000000000000000000000000000000000000020000",
                    "nonce" : "0x0000000000000000",
                    "number" : "0x01",
                    "parentHash" : "0x7c02fe22f5a0e400450ea8565b4a3dc8b28c45b1ced7921724645b2bc47f3a17",
                    "receiptTrie" : "0x12962d3361f1bf3e04e4dfe85b28671280f3cc38f7f56b55934d91bd83727869",
                    "stateRoot" : "0x55238a901fb3deeff52a9939dae4f9b71160562810c808d77d36ff6559a0f2c8",
                    "timestamp" : "0x079e",
                    "transactionsTrie" : "0x7cf0d9c0910fc290d77c62c857d611181946cd9291aa28aa7ba9f5beb45c9d74",
                    "withdrawalsRoot" : "0x56e81f171bcc55a6ff8345e692c0f86e5b48e01b996cadc001622fb5e363b421"
                },
                "blocknumber" : "1",
                "chainname" : "default",
                "rlp" : "0xf90327f90240a07c02fe22f5a0e400450ea8565b4a3dc8b28c45b1ced7921724645b2bc47f3a17a01dcc4de8dec75d7aab85b567b6ccd41ad312451b948a7413f0a142fd40d4934794ba5e000000000000000000000000000000000000a055238a901fb3deeff52a9939dae4f9b71160562810c808d77d36ff6559a0f2c8a07cf0d9c0910fc290d77c62c857d611181946cd9291aa28aa7ba9f5beb45c9d74a012962d3361f1bf3e04e4dfe85b28671280f3cc38f7f56b55934d91bd83727869b9010000000000000000000000000000000000000000000000000000000000000000000000000000000000000000000000000000000000000000000000000000000000000000000000000000000000000000000000000000000000000000000000000000000000000000000000000000000000000000000000000000000000000000000000000000000000000000000000000000000000000000000000000000000000000000000000000000000000000000000000000000000000000000000000000000000000000000000000000000000000000000000000000000000000000000000000000000000000000000000000000000000000000000000000000000000000800188016345785d8a000082fd6382079e42a0000000000000000000000000000000000000000000000000000000000002000088000000000000000082036ba056e81f171bcc55a6ff8345e692c0f86e5b48e01b996cadc001622fb5e363b4218080a00000000000000000000000000000000000000000000000000000000000000000f8e0b86e02f86b0180018203e885e8d4a5100094a00000000000000000000000000000000000000a80840accf739c001a06d9dae9e1b4da0990b7fcb659dcbb0c9e54127ed39646fca5ec8540ac48c4d64a04d4e513632de3617df9c35d97ffbd7607045f58d97624842399bdd0c9ca6683cb86e02f86b0101018203e885e8d4a5100094a00000000000000000000000000000000000000a808443ac1c39c001a07892e78bcbd493f71100ee7796fee2ba9f8a0206fe02215e5b3065547c867726a01f23874841264e5a94ebb8d3ea2370ad51e0c806e5dce5204454ab0a2c27b8edc0c0",
                "transactions" : [
                    {
                        "accessList" : [
                        ],
                        "chainId" : "0x01",
                        "data" : "0x0accf739",
                        "gasLimit" : "0xe8d4a51000",
                        "maxFeePerGas" : "0x03e8",
                        "maxPriorityFeePerGas" : "0x01",
                        "nonce" : "0x00",
                        "r" : "0x6d9dae9e1b4da0990b7fcb659dcbb0c9e54127ed39646fca5ec8540ac48c4d64",
                        "s" : "0x4d4e513632de3617df9c35d97ffbd7607045f58d97624842399bdd0c9ca6683c",
                        "sender" : "0xa94f5374fce5edbc8e2a8697c15331677e6ebf0b",
                        "to" : "0xa00000000000000000000000000000000000000a",
                        "type" : "0x02",
                        "v" : "0x01",
                        "value" : "0x00"
                    },
                    {
                        "accessList" : [
                        ],
                        "chainId" : "0x01",
                        "data" : "0x43ac1c39",
                        "gasLimit" : "0xe8d4a51000",
                        "maxFeePerGas" : "0x03e8",
                        "maxPriorityFeePerGas" : "0x01",
                        "nonce" : "0x01",
                        "r" : "0x7892e78bcbd493f71100ee7796fee2ba9f8a0206fe02215e5b3065547c867726",
                        "s" : "0x1f23874841264e5a94ebb8d3ea2370ad51e0c806e5dce5204454ab0a2c27b8ed",
                        "sender" : "0xa94f5374fce5edbc8e2a8697c15331677e6ebf0b",
                        "to" : "0xa00000000000000000000000000000000000000a",
                        "type" : "0x02",
                        "v" : "0x01",
                        "value" : "0x00"
                    }
                ],
                "uncleHeaders" : [
                ],
                "withdrawals" : [
                ]
            }
        ],
        "config" : {
            "blobSchedule" : {
                "Cancun" : {
                    "baseFeeUpdateFraction" : "0x32f0ed",
                    "max" : "0x06",
                    "target" : "0x03"
                }
            },
            "chainid" : "0x01",
            "network" : "Cancun"
        },
        "genesisBlockHeader" : {
            "baseFeePerGas" : "0x03e8",
            "bloom" : "0x00000000000000000000000000000000000000000000000000000000000000000000000000000000000000000000000000000000000000000000000000000000000000000000000000000000000000000000000000000000000000000000000000000000000000000000000000000000000000000000000000000000000000000000000000000000000000000000000000000000000000000000000000000000000000000000000000000000000000000000000000000000000000000000000000000000000000000000000000000000000000000000000000000000000000000000000000000000000000000000000000000000000000000000000000000000",
            "coinbase" : "0xba5e000000000000000000000000000000000000",
            "extraData" : "0x42",
            "gasLimit" : "0x016345785d8a0000",
            "gasUsed" : "0x00",
            "hash" : "0x7c02fe22f5a0e400450ea8565b4a3dc8b28c45b1ced7921724645b2bc47f3a17",
            "mixHash" : "0x0000000000000000000000000000000000000000000000000000000000020000",
            "nonce" : "0x0000000000000000",
            "number" : "0x00",
            "parentHash" : "0x0000000000000000000000000000000000000000000000000000000000000000",
            "receiptTrie" : "0x56e81f171bcc55a6ff8345e692c0f86e5b48e01b996cadc001622fb5e363b421",
            "stateRoot" : "0xed15108d8b3310992540d450c98826887e50649a327121f4590e347f01080b17",
            "timestamp" : "0x03b6",
            "transactionsTrie" : "0x56e81f171bcc55a6ff8345e692c0f86e5b48e01b996cadc001622fb5e363b421",
            "withdrawalsRoot" : "0x56e81f171bcc55a6ff8345e692c0f86e5b48e01b996cadc001622fb5e363b421"
        },
        "genesisRLP" : "0xf90244f9023ea00000000000000000000000000000000000000000000000000000000000000000a01dcc4de8dec75d7aab85b567b6ccd41ad312451b948a7413f0a142fd40d4934794ba5e000000000000000000000000000000000000a0ed15108d8b3310992540d450c98826887e50649a327121f4590e347f01080b17a056e81f171bcc55a6ff8345e692c0f86e5b48e01b996cadc001622fb5e363b421a056e81f171bcc55a6ff8345e692c0f86e5b48e01b996cadc001622fb5e363b421b9010000000000000000000000000000000000000000000000000000000000000000000000000000000000000000000000000000000000000000000000000000000000000000000000000000000000000000000000000000000000000000000000000000000000000000000000000000000000000000000000000000000000000000000000000000000000000000000000000000000000000000000000000000000000000000000000000000000000000000000000000000000000000000000000000000000000000000000000000000000000000000000000000000000000000000000000000000000000000000000000000000000000000000000000000000000000808088016345785d8a0000808203b642a000000000000000000000000000000000000000000000000000000000000200008800000000000000008203e8a056e81f171bcc55a6ff8345e692c0f86e5b48e01b996cadc001622fb5e363b4218080a00000000000000000000000000000000000000000000000000000000000000000c0c0c0",
        "lastblockhash" : "0x7fb34842944c64a559f18cf9e49a73f5c7c4b1fe38bde633f43dbe1e31e733f0",
        "network" : "Cancun",
        "postState" : {
            "0x000f3df6d732807ef1319fb7b8bb8522d0beac02" : {
                "balance" : "0x00",
                "code" : "0x3373fffffffffffffffffffffffffffffffffffffffe14604d57602036146024575f5ffd5b5f35801560495762001fff810690815414603c575f5ffd5b62001fff01545f5260205ff35b5f5ffd5b62001fff42064281555f359062001fff015500",
                "nonce" : "0x01",
                "storage" : {
                    "0x03b6" : "0x03b6",
                    "0x079e" : "0x079e"
                }
            },
            "0xa00000000000000000000000000000000000000a" : {
                "balance" : "0x01000000000000000000",
                "code" : "0x5f3560e01c80630accf739146021576343ac1c3914601957005b601f602e565b005b50601f605a5f5d5f5c5f55565b5f5c60015556",
                "nonce" : "0x00",
                "storage" : {
                    "0x00" : "0x5a"
                }
            },
            "0xa94f5374fce5edbc8e2a8697c15331677e6ebf0b" : {
                "balance" : "0xfffffffffffc9cf13c",
                "code" : "0x",
                "nonce" : "0x02",
                "storage" : {
                }
            },
            "0xba5e000000000000000000000000000000000000" : {
                "balance" : "0xfd63",
                "code" : "0x",
                "nonce" : "0x00",
                "storage" : {
                }
            }
        },
        "pre" : {
            "0x000f3df6d732807ef1319fb7b8bb8522d0beac02" : {
                "balance" : "0x00",
                "code" : "0x3373fffffffffffffffffffffffffffffffffffffffe14604d57602036146024575f5ffd5b5f35801560495762001fff810690815414603c575f5ffd5b62001fff01545f5260205ff35b5f5ffd5b62001fff42064281555f359062001fff015500",
                "nonce" : "0x01",
                "storage" : {
                    "0x03b6" : "0x03b6"
                }
            },
            "0xa00000000000000000000000000000000000000a" : {
                "balance" : "0x01000000000000000000",
                "code" : "0x5f3560e01c80630accf739146021576343ac1c3914601957005b601f602e565b005b50601f605a5f5d5f5c5f55565b5f5c60015556",
                "nonce" : "0x00",
                "storage" : {
                    "0x01" : "0xffff"
                }
            },
            "0xa94f5374fce5edbc8e2a8697c15331677e6ebf0b" : {
                "balance" : "0x01000000000000000000",
                "code" : "0x",
                "nonce" : "0x00",
                "storage" : {
                }
            }
        },
        "sealEngine" : "NoProof"
    },
    "tloadDoesNotPersistCrossTxn_Prague" : {
        "_info" : {
            "comment" : "",
            "filling-rpc-server" : "evmone-t8n 0.14.0-13+commit.4d363c36",
            "filling-tool-version" : "retesteth-0.3.2-legacy+commit.ca7f4c79.Linux.g++",
            "fixture-format" : "blockchain_test",
            "generatedTestHash" : "bdac030a9c23757be435b88e1802010932c10c5491c6839a191085dce7411dfb",
            "lllcversion" : "Version: 0.5.14-develop.2024.11.5+commit.b2b86751.mod.Linux.g++",
            "hyperion" : "Version: 0.8.24+commit.e11b9ed9.Linux.g++",
            "source" : "src/BlockchainTestsFiller/ValidBlocks/bcEIP1153-transientStorage/tloadDoesNotPersistCrossTxnFiller.yml",
            "sourceHash" : "e624b0d0cf3feda1953a8f46f0f9f3c10a0be93064eb3d67eeac5c6cf2dc4123"
        },
        "blocks" : [
            {
                "blockHeader" : {
                    "baseFeePerGas" : "0x036b",
                    "bloom" : "0x00000000000000000000000000000000000000000000000000000000000000000000000000000000000000000000000000000000000000000000000000000000000000000000000000000000000000000000000000000000000000000000000000000000000000000000000000000000000000000000000000000000000000000000000000000000000000000000000000000000000000000000000000000000000000000000000000000000000000000000000000000000000000000000000000000000000000000000000000000000000000000000000000000000000000000000000000000000000000000000000000000000000000000000000000000000",
                    "coinbase" : "0xba5e000000000000000000000000000000000000",
                    "extraData" : "0x42",
                    "gasLimit" : "0x016345785d8a0000",
                    "gasUsed" : "0xfd63",
                    "hash" : "0x2e62678e52fc09693903d220d91a3c8af6f0b9d20b2e3614263fc4bbc3b18ea5",
                    "mixHash" : "0x0000000000000000000000000000000000000000000000000000000000020000",
                    "nonce" : "0x0000000000000000",
                    "number" : "0x01",
                    "parentHash" : "0x0c47921d7fd0e614e1f14d84ded6d18725e9325681d3f6bda31a1d9afa8e2f40",
                    "receiptTrie" : "0x12962d3361f1bf3e04e4dfe85b28671280f3cc38f7f56b55934d91bd83727869",
                    "requestsHash" : "0xe3b0c44298fc1c149afbf4c8996fb92427ae41e4649b934ca495991b7852b855",
                    "stateRoot" : "0x46e9be63d74f76d0b91f3828641f75f3dacbabaab75f941042341f9f24c0ce95",
                    "timestamp" : "0x079e",
                    "transactionsTrie" : "0x7cf0d9c0910fc290d77c62c857d611181946cd9291aa28aa7ba9f5beb45c9d74",
                    "withdrawalsRoot" : "0x56e81f171bcc55a6ff8345e692c0f86e5b48e01b996cadc001622fb5e363b421"
                },
                "blocknumber" : "1",
                "chainname" : "default",
                "rlp" : "0xf90348f90261a00c47921d7fd0e614e1f14d84ded6d18725e9325681d3f6bda31a1d9afa8e2f40a01dcc4de8dec75d7aab85b567b6ccd41ad312451b948a7413f0a142fd40d4934794ba5e000000000000000000000000000000000000a046e9be63d74f76d0b91f3828641f75f3dacbabaab75f941042341f9f24c0ce95a07cf0d9c0910fc290d77c62c857d611181946cd9291aa28aa7ba9f5beb45c9d74a012962d3361f1bf3e04e4dfe85b28671280f3cc38f7f56b55934d91bd83727869b9010000000000000000000000000000000000000000000000000000000000000000000000000000000000000000000000000000000000000000000000000000000000000000000000000000000000000000000000000000000000000000000000000000000000000000000000000000000000000000000000000000000000000000000000000000000000000000000000000000000000000000000000000000000000000000000000000000000000000000000000000000000000000000000000000000000000000000000000000000000000000000000000000000000000000000000000000000000000000000000000000000000000000000000000000000000000800188016345785d8a000082fd6382079e42a0000000000000000000000000000000000000000000000000000000000002000088000000000000000082036ba056e81f171bcc55a6ff8345e692c0f86e5b48e01b996cadc001622fb5e363b4218080a00000000000000000000000000000000000000000000000000000000000000000a0e3b0c44298fc1c149afbf4c8996fb92427ae41e4649b934ca495991b7852b855f8e0b86e02f86b0180018203e885e8d4a5100094a00000000000000000000000000000000000000a80840accf739c001a06d9dae9e1b4da0990b7fcb659dcbb0c9e54127ed39646fca5ec8540ac48c4d64a04d4e513632de3617df9c35d97ffbd7607045f58d97624842399bdd0c9ca6683cb86e02f86b0101018203e885e8d4a5100094a00000000000000000000000000000000000000a808443ac1c39c001a07892e78bcbd493f71100ee7796fee2ba9f8a0206fe02215e5b3065547c867726a01f23874841264e5a94ebb8d3ea2370ad51e0c806e5dce5204454ab0a2c27b8edc0c0",
                "transactions" : [
                    {
                        "accessList" : [
                        ],
                        "chainId" : "0x01",
                        "data" : "0x0accf739",
                        "gasLimit" : "0xe8d4a51000",
                        "maxFeePerGas" : "0x03e8",
                        "maxPriorityFeePerGas" : "0x01",
                        "nonce" : "0x00",
                        "r" : "0x6d9dae9e1b4da0990b7fcb659dcbb0c9e54127ed39646fca5ec8540ac48c4d64",
                        "s" : "0x4d4e513632de3617df9c35d97ffbd7607045f58d97624842399bdd0c9ca6683c",
                        "sender" : "0xa94f5374fce5edbc8e2a8697c15331677e6ebf0b",
                        "to" : "0xa00000000000000000000000000000000000000a",
                        "type" : "0x02",
                        "v" : "0x01",
                        "value" : "0x00"
                    },
                    {
                        "accessList" : [
                        ],
                        "chainId" : "0x01",
                        "data" : "0x43ac1c39",
                        "gasLimit" : "0xe8d4a51000",
                        "maxFeePerGas" : "0x03e8",
                        "maxPriorityFeePerGas" : "0x01",
                        "nonce" : "0x01",
                        "r" : "0x7892e78bcbd493f71100ee7796fee2ba9f8a0206fe02215e5b3065547c867726",
                        "s" : "0x1f23874841264e5a94ebb8d3ea2370ad51e0c806e5dce5204454ab0a2c27b8ed",
                        "sender" : "0xa94f5374fce5edbc8e2a8697c15331677e6ebf0b",
                        "to" : "0xa00000000000000000000000000000000000000a",
                        "type" : "0x02",
                        "v" : "0x01",
                        "value" : "0x00"
                    }
                ],
                "uncleHeaders" : [
                ],
                "withdrawals" : [
                ]
            }
        ],
        "config" : {
            "blobSchedule" : {
                "Prague" : {
                    "baseFeeUpdateFraction" : "0x4c6964",
                    "max" : "0x09",
                    "target" : "0x06"
                }
            },
            "chainid" : "0x01",
            "network" : "Prague"
        },
        "genesisBlockHeader" : {
            "baseFeePerGas" : "0x03e8",
            "bloom" : "0x00000000000000000000000000000000000000000000000000000000000000000000000000000000000000000000000000000000000000000000000000000000000000000000000000000000000000000000000000000000000000000000000000000000000000000000000000000000000000000000000000000000000000000000000000000000000000000000000000000000000000000000000000000000000000000000000000000000000000000000000000000000000000000000000000000000000000000000000000000000000000000000000000000000000000000000000000000000000000000000000000000000000000000000000000000000",
            "coinbase" : "0xba5e000000000000000000000000000000000000",
            "extraData" : "0x42",
            "gasLimit" : "0x016345785d8a0000",
            "gasUsed" : "0x00",
            "hash" : "0x0c47921d7fd0e614e1f14d84ded6d18725e9325681d3f6bda31a1d9afa8e2f40",
            "mixHash" : "0x0000000000000000000000000000000000000000000000000000000000020000",
            "nonce" : "0x0000000000000000",
            "number" : "0x00",
            "parentHash" : "0x0000000000000000000000000000000000000000000000000000000000000000",
            "receiptTrie" : "0x56e81f171bcc55a6ff8345e692c0f86e5b48e01b996cadc001622fb5e363b421",
            "requestsHash" : "0xe3b0c44298fc1c149afbf4c8996fb92427ae41e4649b934ca495991b7852b855",
            "stateRoot" : "0xd2b8498bffcea32cae23969e3f024c29680d8d2195550fcada1b38fb98350e10",
            "timestamp" : "0x03b6",
            "transactionsTrie" : "0x56e81f171bcc55a6ff8345e692c0f86e5b48e01b996cadc001622fb5e363b421",
            "withdrawalsRoot" : "0x56e81f171bcc55a6ff8345e692c0f86e5b48e01b996cadc001622fb5e363b421"
        },
        "genesisRLP" : "0xf90265f9025fa00000000000000000000000000000000000000000000000000000000000000000a01dcc4de8dec75d7aab85b567b6ccd41ad312451b948a7413f0a142fd40d4934794ba5e000000000000000000000000000000000000a0d2b8498bffcea32cae23969e3f024c29680d8d2195550fcada1b38fb98350e10a056e81f171bcc55a6ff8345e692c0f86e5b48e01b996cadc001622fb5e363b421a056e81f171bcc55a6ff8345e692c0f86e5b48e01b996cadc001622fb5e363b421b9010000000000000000000000000000000000000000000000000000000000000000000000000000000000000000000000000000000000000000000000000000000000000000000000000000000000000000000000000000000000000000000000000000000000000000000000000000000000000000000000000000000000000000000000000000000000000000000000000000000000000000000000000000000000000000000000000000000000000000000000000000000000000000000000000000000000000000000000000000000000000000000000000000000000000000000000000000000000000000000000000000000000000000000000000000000000808088016345785d8a0000808203b642a000000000000000000000000000000000000000000000000000000000000200008800000000000000008203e8a056e81f171bcc55a6ff8345e692c0f86e5b48e01b996cadc001622fb5e363b4218080a00000000000000000000000000000000000000000000000000000000000000000a0e3b0c44298fc1c149afbf4c8996fb92427ae41e4649b934ca495991b7852b855c0c0c0",
        "lastblockhash" : "0x2e62678e52fc09693903d220d91a3c8af6f0b9d20b2e3614263fc4bbc3b18ea5",
        "network" : "Prague",
        "postState" : {
            "0x0000f90827f1c53a10cb7a02335b175320002935" : {
                "balance" : "0x00",
                "code" : "0x3373fffffffffffffffffffffffffffffffffffffffe14604657602036036042575f35600143038111604257611fff81430311604257611fff9006545f5260205ff35b5f5ffd5b5f35611fff60014303065500",
                "nonce" : "0x01",
                "storage" : {
                    "0x00" : "0x0c47921d7fd0e614e1f14d84ded6d18725e9325681d3f6bda31a1d9afa8e2f40"
                }
            },
            "0x000f3df6d732807ef1319fb7b8bb8522d0beac02" : {
                "balance" : "0x00",
                "code" : "0x3373fffffffffffffffffffffffffffffffffffffffe14604d57602036146024575f5ffd5b5f35801560495762001fff810690815414603c575f5ffd5b62001fff01545f5260205ff35b5f5ffd5b62001fff42064281555f359062001fff015500",
                "nonce" : "0x01",
                "storage" : {
                    "0x03b6" : "0x03b6",
                    "0x079e" : "0x079e"
                }
            },
            "0xa00000000000000000000000000000000000000a" : {
                "balance" : "0x01000000000000000000",
                "code" : "0x5f3560e01c80630accf739146021576343ac1c3914601957005b601f602e565b005b50601f605a5f5d5f5c5f55565b5f5c60015556",
                "nonce" : "0x00",
                "storage" : {
                    "0x00" : "0x5a"
                }
            },
            "0xa94f5374fce5edbc8e2a8697c15331677e6ebf0b" : {
                "balance" : "0xfffffffffffc9cf13c",
                "code" : "0x",
                "nonce" : "0x02",
                "storage" : {
                }
            },
            "0xba5e000000000000000000000000000000000000" : {
                "balance" : "0xfd63",
                "code" : "0x",
                "nonce" : "0x00",
                "storage" : {
                }
            }
        },
        "pre" : {
            "0x0000f90827f1c53a10cb7a02335b175320002935" : {
                "balance" : "0x00",
                "code" : "0x3373fffffffffffffffffffffffffffffffffffffffe14604657602036036042575f35600143038111604257611fff81430311604257611fff9006545f5260205ff35b5f5ffd5b5f35611fff60014303065500",
                "nonce" : "0x01",
                "storage" : {
                }
            },
            "0x000f3df6d732807ef1319fb7b8bb8522d0beac02" : {
                "balance" : "0x00",
                "code" : "0x3373fffffffffffffffffffffffffffffffffffffffe14604d57602036146024575f5ffd5b5f35801560495762001fff810690815414603c575f5ffd5b62001fff01545f5260205ff35b5f5ffd5b62001fff42064281555f359062001fff015500",
                "nonce" : "0x01",
                "storage" : {
                    "0x03b6" : "0x03b6"
                }
            },
            "0xa00000000000000000000000000000000000000a" : {
                "balance" : "0x01000000000000000000",
                "code" : "0x5f3560e01c80630accf739146021576343ac1c3914601957005b601f602e565b005b50601f605a5f5d5f5c5f55565b5f5c60015556",
                "nonce" : "0x00",
                "storage" : {
                    "0x01" : "0xffff"
                }
            },
            "0xa94f5374fce5edbc8e2a8697c15331677e6ebf0b" : {
                "balance" : "0x01000000000000000000",
                "code" : "0x",
                "nonce" : "0x00",
                "storage" : {
                }
            }
        },
        "sealEngine" : "NoProof"
    }
}