{
    "delegatecall09Undefined" : {
        "_info" : {
            "comment" : "This test invokes delegatecall to the Blake2b (09) precompile in the revision it has been\ndefined (Istanbul) and in the one before it (ConstantinopleFix). For the defined precompile\nthe call should result in a failure and the single gas unit provided should be consumed.\nIn case the precompile is undefined, the call should succeed and no gas should be consumed.\n",
            "filling-rpc-server" : "evmone-t8n 0.14.0-13+commit.4d363c36",
            "filling-tool-version" : "retesteth-0.3.2-legacy+commit.ca7f4c79.Linux.g++",
            "fixture-format" : "state_test",
            "generatedTestHash" : "2a8a8d37b88cc464029e930b5bc31441dbef99394e7023e8fadf300731d482ff",
            "lllcversion" : "Version: 0.5.14-develop.2024.11.5+commit.b2b86751.mod.Linux.g++",
            "solidity" : "Version: 0.8.24+commit.e11b9ed9.Linux.g++",
            "source" : "src/GeneralStateTestsFiller/stPreCompiledContracts/delegatecall09UndefinedFiller.yml",
            "sourceHash" : "25675c8a352d3598aba794fb70249ce976da31e1903a57f5e03f853b1f8db8c8"
        },
        "config" : {
            "blobSchedule" : {
                "Cancun" : {
                    "baseFeeUpdateFraction" : "0x32f0ed",
                    "max" : "0x06",
                    "target" : "0x03"
                },
                "Prague" : {
                    "baseFeeUpdateFraction" : "0x4c6964",
                    "max" : "0x09",
                    "target" : "0x06"
                }
            },
            "chainid" : "0x01"
        },
        "env" : {
            "currentBaseFee" : "0x0a",
            "currentCoinbase" : "Za94f5374fce5edbc8e2a8697c15331677e6ebf0b",
            "currentExcessBlobGas" : "0x00",
            "currentGasLimit" : "0x0f4240",
            "currentNumber" : "0x01",
            "currentRandom" : "0x0000000000000000000000000000000000000000000000000000000000000001",
            "currentTimestamp" : "0x03e8"
        },
        "post" : {
            "Cancun" : [
                {
                    "hash" : "0xb222db2ac9351828b823592091cca066966668f88c00077a38bb282cf91422b5",
                    "indexes" : {
                        "data" : 0,
                        "gas" : 0,
                        "value" : 0
                    },
                    "logs" : "0x1dcc4de8dec75d7aab85b567b6ccd41ad312451b948a7413f0a142fd40d49347",
                    "state" : {
                        "0x095e7baea6a6c7c4c2dfeb977efac326af552d87" : {
                            "balance" : "0x00",
                            "code" : "0x600080808060096001f460005500",
                            "nonce" : "0x00",
                            "storage" : {
                            }
                        },
                        "0xa94f5374fce5edbc8e2a8697c15331677e6ebf0b" : {
                            "balance" : "0x5af31076ff1c",
                            "code" : "0x",
                            "nonce" : "0x01",
                            "storage" : {
                            }
                        }
                    },
                    "txbytes" : "0xf860800a83015f9094095e7baea6a6c7c4c2dfeb977efac326af552d8780801ca068457e376cce29e874412dd14e38d8b4049b4b2d6d6a33b349fda5d6d9e76ba3a05f77f62f7141c2e0b656b233d52af342a6227325215772b6d810c3d0ca71ea58"
                }
            ],
            "Prague" : [
                {
                    "hash" : "0xb222db2ac9351828b823592091cca066966668f88c00077a38bb282cf91422b5",
                    "indexes" : {
                        "data" : 0,
                        "gas" : 0,
                        "value" : 0
                    },
                    "logs" : "0x1dcc4de8dec75d7aab85b567b6ccd41ad312451b948a7413f0a142fd40d49347",
                    "state" : {
                        "0x095e7baea6a6c7c4c2dfeb977efac326af552d87" : {
                            "balance" : "0x00",
                            "code" : "0x600080808060096001f460005500",
                            "nonce" : "0x00",
                            "storage" : {
                            }
                        },
                        "0xa94f5374fce5edbc8e2a8697c15331677e6ebf0b" : {
                            "balance" : "0x5af31076ff1c",
                            "code" : "0x",
                            "nonce" : "0x01",
                            "storage" : {
                            }
                        }
                    },
                    "txbytes" : "0xf860800a83015f9094095e7baea6a6c7c4c2dfeb977efac326af552d8780801ca068457e376cce29e874412dd14e38d8b4049b4b2d6d6a33b349fda5d6d9e76ba3a05f77f62f7141c2e0b656b233d52af342a6227325215772b6d810c3d0ca71ea58"
                }
            ]
        },
        "pre" : {
            "0x095e7baea6a6c7c4c2dfeb977efac326af552d87" : {
                "balance" : "0x00",
                "code" : "0x600080808060096001f460005500",
                "nonce" : "0x00",
                "storage" : {
                    "0x00" : "0xfe"
                }
            },
            "Za94f5374fce5edbc8e2a8697c15331677e6ebf0b" : {
                "balance" : "0x5af3107a4000",
                "code" : "0x",
                "nonce" : "0x00",
                "storage" : {
                }
            }
        },
        "transaction" : {
            "data" : [
                "0x"
            ],
            "gasLimit" : [
                "0x015f90"
            ],
            "gasPrice" : "0x0a",
            "nonce" : "0x00",
            "secretKey" : "0x45a915e4d060149eb4365960e6a7a45f334393093061116b197e3240065ff2d8",
            "sender" : "0xa94f5374fce5edbc8e2a8697c15331677e6ebf0b",
            "to" : "Z095e7baea6a6c7c4c2dfeb977efac326af552d87",
            "value" : [
                "0x00"
            ]
        }
    }
}