{
    "callcallcallcode_001_OOGMBefore_d0g0v0_Cancun" : {
        "_info" : {
            "comment" : "call -> call -> oog callcode -> code ",
            "filling-rpc-server" : "evmone-t8n 0.14.0-13+commit.4d363c36",
            "filling-tool-version" : "retesteth-0.3.2-legacy+commit.ca7f4c79.Linux.g++",
            "fixture-format" : "blockchain_test",
            "generatedTestHash" : "7bffae103a25f0bb88d33988e26a4e0ef3dc4d83adf93132b07eb25f3afe0178",
            "lllcversion" : "Version: 0.5.14-develop.2024.11.5+commit.b2b86751.mod.Linux.g++",
            "hyperion" : "Version: 0.8.24+commit.e11b9ed9.Linux.g++",
            "source" : "src/GeneralStateTestsFiller/stCallCodes/callcallcallcode_001_OOGMBeforeFiller.json",
            "sourceHash" : "bb0fe11cfc13e1358b18dd800a6679014fb71702e22ca937dade1aab72eb0e5b"
        },
        "blocks" : [
            {
                "blockHeader" : {
                    "baseFeePerGas" : "0x0a",
                    "bloom" : "0x00000000000000000000000000000000000000000000000000000000000000000000000000000000000000000000000000000000000000000000000000000000000000000000000000000000000000000000000000000000000000000000000000000000000000000000000000000000000000000000000000000000000000000000000000000000000000000000000000000000000000000000000000000000000000000000000000000000000000000000000000000000000000000000000000000000000000000000000000000000000000000000000000000000000000000000000000000000000000000000000000000000000000000000000000000000",
                    "coinbase" : "Z2adc25665018aa1fe0e6bc666dac8fc2697ff9ba",
                    "extraData" : "0x00",
                    "gasLimit" : "0x01c9c380",
                    "gasUsed" : "0x0a439a",
                    "hash" : "0x861e604b216afe68a8c4247d56c3ae9c9f38c902c42f2fa6cb354007c3b71a63",
                    "mixHash" : "0x0000000000000000000000000000000000000000000000000000000000020000",
                    "nonce" : "0x0000000000000000",
                    "number" : "0x01",
                    "parentHash" : "0x4cc6ca817d7fe8ea18031036e561e9aade1a23b3878ff2c0abf1367017ada554",
                    "receiptTrie" : "0xec9f6a1878d88cdf986955b72798456bbf3a45aa4f1aec745f7983918ff28aa0",
                    "stateRoot" : "0x3926affa02b7df7d6e6efd3e6007cb441a8ceca2b4d4090d7df33020d1a41177",
                    "timestamp" : "0x03e8",
                    "transactionsTrie" : "0xc8dd60985c2897fe775f0c88b53a0cef6fafa1e2295cee6e65cd8df4b9df6930",
                    "withdrawalsRoot" : "0x56e81f171bcc55a6ff8345e692c0f86e5b48e01b996cadc001622fb5e363b421"
                },
                "rlp" : "0xf902a4f9023ba04cc6ca817d7fe8ea18031036e561e9aade1a23b3878ff2c0abf1367017ada554a01dcc4de8dec75d7aab85b567b6ccd41ad312451b948a7413f0a142fd40d49347942adc25665018aa1fe0e6bc666dac8fc2697ff9baa03926affa02b7df7d6e6efd3e6007cb441a8ceca2b4d4090d7df33020d1a41177a0c8dd60985c2897fe775f0c88b53a0cef6fafa1e2295cee6e65cd8df4b9df6930a0ec9f6a1878d88cdf986955b72798456bbf3a45aa4f1aec745f7983918ff28aa0b901000000000000000000000000000000000000000000000000000000000000000000000000000000000000000000000000000000000000000000000000000000000000000000000000000000000000000000000000000000000000000000000000000000000000000000000000000000000000000000000000000000000000000000000000000000000000000000000000000000000000000000000000000000000000000000000000000000000000000000000000000000000000000000000000000000000000000000000000000000000000000000000000000000000000000000000000000000000000000000000000000000000000000000000000000000000080018401c9c380830a439a8203e800a000000000000000000000000000000000000000000000000000000000000200008800000000000000000aa056e81f171bcc55a6ff8345e692c0f86e5b48e01b996cadc001622fb5e363b4218080a00000000000000000000000000000000000000000000000000000000000000000f862f860800a830f424094100000000000000000000000000000000000000080801ba0878fccf1801724b1bfb5b0a67d68454b9c56fe9e3753200bc36cd66eed5636eca00dc53455b0e859433799ddbe3c16f98e70c52b6bf684992d9907dc9d1ccb03f1c0c0",
                "transactions" : [
                    {
                        "data" : "0x",
                        "gasLimit" : "0x0f4240",
                        "gasPrice" : "0x0a",
                        "nonce" : "0x00",
                        "signature" : "0x878fccf1801724b1bfb5b0a67d68454b9c56fe9e3753200bc36cd66eed5636ec",
                        "s" : "0x0dc53455b0e859433799ddbe3c16f98e70c52b6bf684992d9907dc9d1ccb03f1",
                        "sender" : "Za94f5374fce5edbc8e2a8697c15331677e6ebf0b",
                        "to" : "0x1000000000000000000000000000000000000000",
                        "v" : "0x1b",
                        "value" : "0x00"
                    }
                ],
                "uncleHeaders" : [
                ],
                "withdrawals" : [
                ]
            }
        ],
        "config" : {
            "blobSchedule" : {
                "Cancun" : {
                    "baseFeeUpdateFraction" : "0x32f0ed",
                    "max" : "0x06",
                    "target" : "0x03"
                }
            },
            "chainid" : "0x01",
            "network" : "Cancun"
        },
        "genesisBlockHeader" : {
            "baseFeePerGas" : "0x0b",
            "bloom" : "0x00000000000000000000000000000000000000000000000000000000000000000000000000000000000000000000000000000000000000000000000000000000000000000000000000000000000000000000000000000000000000000000000000000000000000000000000000000000000000000000000000000000000000000000000000000000000000000000000000000000000000000000000000000000000000000000000000000000000000000000000000000000000000000000000000000000000000000000000000000000000000000000000000000000000000000000000000000000000000000000000000000000000000000000000000000000",
            "coinbase" : "Z2adc25665018aa1fe0e6bc666dac8fc2697ff9ba",
            "extraData" : "0x00",
            "gasLimit" : "0x01c9c380",
            "gasUsed" : "0x00",
            "hash" : "0x4cc6ca817d7fe8ea18031036e561e9aade1a23b3878ff2c0abf1367017ada554",
            "mixHash" : "0x0000000000000000000000000000000000000000000000000000000000020000",
            "nonce" : "0x0000000000000000",
            "number" : "0x00",
            "parentHash" : "0x0000000000000000000000000000000000000000000000000000000000000000",
            "receiptTrie" : "0x56e81f171bcc55a6ff8345e692c0f86e5b48e01b996cadc001622fb5e363b421",
            "stateRoot" : "0xe3271717eb21155749dd80170623937819b58810f8888cdc0c16850377003e4c",
            "timestamp" : "0x00",
            "transactionsTrie" : "0x56e81f171bcc55a6ff8345e692c0f86e5b48e01b996cadc001622fb5e363b421",
            "withdrawalsRoot" : "0x56e81f171bcc55a6ff8345e692c0f86e5b48e01b996cadc001622fb5e363b421"
        },
        "genesisRLP" : "0xf9023ff90239a00000000000000000000000000000000000000000000000000000000000000000a01dcc4de8dec75d7aab85b567b6ccd41ad312451b948a7413f0a142fd40d49347942adc25665018aa1fe0e6bc666dac8fc2697ff9baa0e3271717eb21155749dd80170623937819b58810f8888cdc0c16850377003e4ca056e81f171bcc55a6ff8345e692c0f86e5b48e01b996cadc001622fb5e363b421a056e81f171bcc55a6ff8345e692c0f86e5b48e01b996cadc001622fb5e363b421b901000000000000000000000000000000000000000000000000000000000000000000000000000000000000000000000000000000000000000000000000000000000000000000000000000000000000000000000000000000000000000000000000000000000000000000000000000000000000000000000000000000000000000000000000000000000000000000000000000000000000000000000000000000000000000000000000000000000000000000000000000000000000000000000000000000000000000000000000000000000000000000000000000000000000000000000000000000000000000000000000000000000000000000000000000000000080808401c9c380808000a000000000000000000000000000000000000000000000000000000000000200008800000000000000000ba056e81f171bcc55a6ff8345e692c0f86e5b48e01b996cadc001622fb5e363b4218083060000a00000000000000000000000000000000000000000000000000000000000000000c0c0c0",
        "lastblockhash" : "0x861e604b216afe68a8c4247d56c3ae9c9f38c902c42f2fa6cb354007c3b71a63",
        "network" : "Cancun",
        "postState" : {
            "0x000f3df6d732807ef1319fb7b8bb8522d0beac02" : {
                "balance" : "0x00",
                "code" : "0x3373fffffffffffffffffffffffffffffffffffffffe14604d57602036146024575f5ffd5b5f35801560495762001fff810690815414603c575f5ffd5b62001fff01545f5260205ff35b5f5ffd5b62001fff42064281555f359062001fff015500",
                "nonce" : "0x01",
                "storage" : {
                    "0x03e8" : "0x03e8"
                }
            },
            "0x1000000000000000000000000000000000000000" : {
                "balance" : "0x0de0b6b3a7640000",
                "code" : "0x60406000604060006000731000000000000000000000000000000000000001620c3500f160005500",
                "nonce" : "0x00",
                "storage" : {
                    "0x00" : "0x01"
                }
            },
            "0x1000000000000000000000000000000000000001" : {
                "balance" : "0x00",
                "code" : "0x60406000604060006000731000000000000000000000000000000000000002620927c0f16001556001600b5500",
                "nonce" : "0x00",
                "storage" : {
                    "0x0b" : "0x01"
                }
            },
            "0x1000000000000000000000000000000000000002" : {
                "balance" : "0x00",
                "code" : "0x622fffff600020506040600060406000600073100000000000000000000000000000000000000362061a80f260025500",
                "nonce" : "0x00",
                "storage" : {
                }
            },
            "0x1000000000000000000000000000000000000003" : {
                "balance" : "0x00",
                "code" : "0x600160035500",
                "nonce" : "0x00",
                "storage" : {
                }
            },
            "0xa94f5374fce5edbc8e2a8697c15331677e6ebf0b" : {
                "balance" : "0x0de0b6b3a6fd5bfc",
                "code" : "0x",
                "nonce" : "0x01",
                "storage" : {
                }
            }
        },
        "pre" : {
            "0x000f3df6d732807ef1319fb7b8bb8522d0beac02" : {
                "balance" : "0x00",
                "code" : "0x3373fffffffffffffffffffffffffffffffffffffffe14604d57602036146024575f5ffd5b5f35801560495762001fff810690815414603c575f5ffd5b62001fff01545f5260205ff35b5f5ffd5b62001fff42064281555f359062001fff015500",
                "nonce" : "0x01",
                "storage" : {
                }
            },
            "0x1000000000000000000000000000000000000000" : {
                "balance" : "0x0de0b6b3a7640000",
                "code" : "0x60406000604060006000731000000000000000000000000000000000000001620c3500f160005500",
                "nonce" : "0x00",
                "storage" : {
                }
            },
            "0x1000000000000000000000000000000000000001" : {
                "balance" : "0x00",
                "code" : "0x60406000604060006000731000000000000000000000000000000000000002620927c0f16001556001600b5500",
                "nonce" : "0x00",
                "storage" : {
                }
            },
            "0x1000000000000000000000000000000000000002" : {
                "balance" : "0x00",
                "code" : "0x622fffff600020506040600060406000600073100000000000000000000000000000000000000362061a80f260025500",
                "nonce" : "0x00",
                "storage" : {
                }
            },
            "0x1000000000000000000000000000000000000003" : {
                "balance" : "0x00",
                "code" : "0x600160035500",
                "nonce" : "0x00",
                "storage" : {
                }
            },
            "0xa94f5374fce5edbc8e2a8697c15331677e6ebf0b" : {
                "balance" : "0x0de0b6b3a7640000",
                "code" : "0x",
                "nonce" : "0x00",
                "storage" : {
                }
            }
        },
        "sealEngine" : "NoProof"
    },
    "callcallcallcode_001_OOGMBefore_d0g0v0_Prague" : {
        "_info" : {
            "comment" : "call -> call -> oog callcode -> code ",
            "filling-rpc-server" : "evmone-t8n 0.14.0-13+commit.4d363c36",
            "filling-tool-version" : "retesteth-0.3.2-legacy+commit.ca7f4c79.Linux.g++",
            "fixture-format" : "blockchain_test",
            "generatedTestHash" : "ff079837a5d135dc096fd60545f08a8017061b8be80d5513ce54b04eb1eeb244",
            "lllcversion" : "Version: 0.5.14-develop.2024.11.5+commit.b2b86751.mod.Linux.g++",
            "hyperion" : "Version: 0.8.24+commit.e11b9ed9.Linux.g++",
            "source" : "src/GeneralStateTestsFiller/stCallCodes/callcallcallcode_001_OOGMBeforeFiller.json",
            "sourceHash" : "bb0fe11cfc13e1358b18dd800a6679014fb71702e22ca937dade1aab72eb0e5b"
        },
        "blocks" : [
            {
                "blockHeader" : {
                    "baseFeePerGas" : "0x0a",
                    "bloom" : "0x00000000000000000000000000000000000000000000000000000000000000000000000000000000000000000000000000000000000000000000000000000000000000000000000000000000000000000000000000000000000000000000000000000000000000000000000000000000000000000000000000000000000000000000000000000000000000000000000000000000000000000000000000000000000000000000000000000000000000000000000000000000000000000000000000000000000000000000000000000000000000000000000000000000000000000000000000000000000000000000000000000000000000000000000000000000",
                    "coinbase" : "Z2adc25665018aa1fe0e6bc666dac8fc2697ff9ba",
                    "extraData" : "0x00",
                    "gasLimit" : "0x01c9c380",
                    "gasUsed" : "0x0a439a",
                    "hash" : "0xeb6ddf5bacb826570c2bae306b2bfb53e40a8e54c5d77dd8e282162bb9d6c37e",
                    "mixHash" : "0x0000000000000000000000000000000000000000000000000000000000020000",
                    "nonce" : "0x0000000000000000",
                    "number" : "0x01",
                    "parentHash" : "0x1b69cafe6cfcb8ed26b844402f8c7e4666a8694dd11127269b4029be792d2036",
                    "receiptTrie" : "0xec9f6a1878d88cdf986955b72798456bbf3a45aa4f1aec745f7983918ff28aa0",
                    "requestsHash" : "0xe3b0c44298fc1c149afbf4c8996fb92427ae41e4649b934ca495991b7852b855",
                    "stateRoot" : "0xb322aea0486e7797511ced830e4caf6173691bfb850852adeffd44011093d933",
                    "timestamp" : "0x03e8",
                    "transactionsTrie" : "0xc8dd60985c2897fe775f0c88b53a0cef6fafa1e2295cee6e65cd8df4b9df6930",
                    "withdrawalsRoot" : "0x56e81f171bcc55a6ff8345e692c0f86e5b48e01b996cadc001622fb5e363b421"
                },
                "rlp" : "0xf902c5f9025ca01b69cafe6cfcb8ed26b844402f8c7e4666a8694dd11127269b4029be792d2036a01dcc4de8dec75d7aab85b567b6ccd41ad312451b948a7413f0a142fd40d49347942adc25665018aa1fe0e6bc666dac8fc2697ff9baa0b322aea0486e7797511ced830e4caf6173691bfb850852adeffd44011093d933a0c8dd60985c2897fe775f0c88b53a0cef6fafa1e2295cee6e65cd8df4b9df6930a0ec9f6a1878d88cdf986955b72798456bbf3a45aa4f1aec745f7983918ff28aa0b901000000000000000000000000000000000000000000000000000000000000000000000000000000000000000000000000000000000000000000000000000000000000000000000000000000000000000000000000000000000000000000000000000000000000000000000000000000000000000000000000000000000000000000000000000000000000000000000000000000000000000000000000000000000000000000000000000000000000000000000000000000000000000000000000000000000000000000000000000000000000000000000000000000000000000000000000000000000000000000000000000000000000000000000000000000000080018401c9c380830a439a8203e800a000000000000000000000000000000000000000000000000000000000000200008800000000000000000aa056e81f171bcc55a6ff8345e692c0f86e5b48e01b996cadc001622fb5e363b4218080a00000000000000000000000000000000000000000000000000000000000000000a0e3b0c44298fc1c149afbf4c8996fb92427ae41e4649b934ca495991b7852b855f862f860800a830f424094100000000000000000000000000000000000000080801ba0878fccf1801724b1bfb5b0a67d68454b9c56fe9e3753200bc36cd66eed5636eca00dc53455b0e859433799ddbe3c16f98e70c52b6bf684992d9907dc9d1ccb03f1c0c0",
                "transactions" : [
                    {
                        "data" : "0x",
                        "gasLimit" : "0x0f4240",
                        "gasPrice" : "0x0a",
                        "nonce" : "0x00",
                        "signature" : "0x878fccf1801724b1bfb5b0a67d68454b9c56fe9e3753200bc36cd66eed5636ec",
                        "s" : "0x0dc53455b0e859433799ddbe3c16f98e70c52b6bf684992d9907dc9d1ccb03f1",
                        "sender" : "Za94f5374fce5edbc8e2a8697c15331677e6ebf0b",
                        "to" : "0x1000000000000000000000000000000000000000",
                        "v" : "0x1b",
                        "value" : "0x00"
                    }
                ],
                "uncleHeaders" : [
                ],
                "withdrawals" : [
                ]
            }
        ],
        "config" : {
            "blobSchedule" : {
                "Prague" : {
                    "baseFeeUpdateFraction" : "0x4c6964",
                    "max" : "0x09",
                    "target" : "0x06"
                }
            },
            "chainid" : "0x01",
            "network" : "Prague"
        },
        "genesisBlockHeader" : {
            "baseFeePerGas" : "0x0b",
            "bloom" : "0x00000000000000000000000000000000000000000000000000000000000000000000000000000000000000000000000000000000000000000000000000000000000000000000000000000000000000000000000000000000000000000000000000000000000000000000000000000000000000000000000000000000000000000000000000000000000000000000000000000000000000000000000000000000000000000000000000000000000000000000000000000000000000000000000000000000000000000000000000000000000000000000000000000000000000000000000000000000000000000000000000000000000000000000000000000000",
            "coinbase" : "Z2adc25665018aa1fe0e6bc666dac8fc2697ff9ba",
            "extraData" : "0x00",
            "gasLimit" : "0x01c9c380",
            "gasUsed" : "0x00",
            "hash" : "0x1b69cafe6cfcb8ed26b844402f8c7e4666a8694dd11127269b4029be792d2036",
            "mixHash" : "0x0000000000000000000000000000000000000000000000000000000000020000",
            "nonce" : "0x0000000000000000",
            "number" : "0x00",
            "parentHash" : "0x0000000000000000000000000000000000000000000000000000000000000000",
            "receiptTrie" : "0x56e81f171bcc55a6ff8345e692c0f86e5b48e01b996cadc001622fb5e363b421",
            "requestsHash" : "0xe3b0c44298fc1c149afbf4c8996fb92427ae41e4649b934ca495991b7852b855",
            "stateRoot" : "0xc0d25aa4668eb32cd48977db7011bce8bf84cd1e967f90e90cdbeecb65ce7411",
            "timestamp" : "0x00",
            "transactionsTrie" : "0x56e81f171bcc55a6ff8345e692c0f86e5b48e01b996cadc001622fb5e363b421",
            "withdrawalsRoot" : "0x56e81f171bcc55a6ff8345e692c0f86e5b48e01b996cadc001622fb5e363b421"
        },
        "genesisRLP" : "0xf90260f9025aa00000000000000000000000000000000000000000000000000000000000000000a01dcc4de8dec75d7aab85b567b6ccd41ad312451b948a7413f0a142fd40d49347942adc25665018aa1fe0e6bc666dac8fc2697ff9baa0c0d25aa4668eb32cd48977db7011bce8bf84cd1e967f90e90cdbeecb65ce7411a056e81f171bcc55a6ff8345e692c0f86e5b48e01b996cadc001622fb5e363b421a056e81f171bcc55a6ff8345e692c0f86e5b48e01b996cadc001622fb5e363b421b901000000000000000000000000000000000000000000000000000000000000000000000000000000000000000000000000000000000000000000000000000000000000000000000000000000000000000000000000000000000000000000000000000000000000000000000000000000000000000000000000000000000000000000000000000000000000000000000000000000000000000000000000000000000000000000000000000000000000000000000000000000000000000000000000000000000000000000000000000000000000000000000000000000000000000000000000000000000000000000000000000000000000000000000000000000000080808401c9c380808000a000000000000000000000000000000000000000000000000000000000000200008800000000000000000ba056e81f171bcc55a6ff8345e692c0f86e5b48e01b996cadc001622fb5e363b4218083060000a00000000000000000000000000000000000000000000000000000000000000000a0e3b0c44298fc1c149afbf4c8996fb92427ae41e4649b934ca495991b7852b855c0c0c0",
        "lastblockhash" : "0xeb6ddf5bacb826570c2bae306b2bfb53e40a8e54c5d77dd8e282162bb9d6c37e",
        "network" : "Prague",
        "postState" : {
            "0x0000f90827f1c53a10cb7a02335b175320002935" : {
                "balance" : "0x00",
                "code" : "0x3373fffffffffffffffffffffffffffffffffffffffe14604657602036036042575f35600143038111604257611fff81430311604257611fff9006545f5260205ff35b5f5ffd5b5f35611fff60014303065500",
                "nonce" : "0x01",
                "storage" : {
                    "0x00" : "0x1b69cafe6cfcb8ed26b844402f8c7e4666a8694dd11127269b4029be792d2036"
                }
            },
            "0x000f3df6d732807ef1319fb7b8bb8522d0beac02" : {
                "balance" : "0x00",
                "code" : "0x3373fffffffffffffffffffffffffffffffffffffffe14604d57602036146024575f5ffd5b5f35801560495762001fff810690815414603c575f5ffd5b62001fff01545f5260205ff35b5f5ffd5b62001fff42064281555f359062001fff015500",
                "nonce" : "0x01",
                "storage" : {
                    "0x03e8" : "0x03e8"
                }
            },
            "0x1000000000000000000000000000000000000000" : {
                "balance" : "0x0de0b6b3a7640000",
                "code" : "0x60406000604060006000731000000000000000000000000000000000000001620c3500f160005500",
                "nonce" : "0x00",
                "storage" : {
                    "0x00" : "0x01"
                }
            },
            "0x1000000000000000000000000000000000000001" : {
                "balance" : "0x00",
                "code" : "0x60406000604060006000731000000000000000000000000000000000000002620927c0f16001556001600b5500",
                "nonce" : "0x00",
                "storage" : {
                    "0x0b" : "0x01"
                }
            },
            "0x1000000000000000000000000000000000000002" : {
                "balance" : "0x00",
                "code" : "0x622fffff600020506040600060406000600073100000000000000000000000000000000000000362061a80f260025500",
                "nonce" : "0x00",
                "storage" : {
                }
            },
            "0x1000000000000000000000000000000000000003" : {
                "balance" : "0x00",
                "code" : "0x600160035500",
                "nonce" : "0x00",
                "storage" : {
                }
            },
            "0xa94f5374fce5edbc8e2a8697c15331677e6ebf0b" : {
                "balance" : "0x0de0b6b3a6fd5bfc",
                "code" : "0x",
                "nonce" : "0x01",
                "storage" : {
                }
            }
        },
        "pre" : {
            "0x0000f90827f1c53a10cb7a02335b175320002935" : {
                "balance" : "0x00",
                "code" : "0x3373fffffffffffffffffffffffffffffffffffffffe14604657602036036042575f35600143038111604257611fff81430311604257611fff9006545f5260205ff35b5f5ffd5b5f35611fff60014303065500",
                "nonce" : "0x01",
                "storage" : {
                }
            },
            "0x000f3df6d732807ef1319fb7b8bb8522d0beac02" : {
                "balance" : "0x00",
                "code" : "0x3373fffffffffffffffffffffffffffffffffffffffe14604d57602036146024575f5ffd5b5f35801560495762001fff810690815414603c575f5ffd5b62001fff01545f5260205ff35b5f5ffd5b62001fff42064281555f359062001fff015500",
                "nonce" : "0x01",
                "storage" : {
                }
            },
            "0x1000000000000000000000000000000000000000" : {
                "balance" : "0x0de0b6b3a7640000",
                "code" : "0x60406000604060006000731000000000000000000000000000000000000001620c3500f160005500",
                "nonce" : "0x00",
                "storage" : {
                }
            },
            "0x1000000000000000000000000000000000000001" : {
                "balance" : "0x00",
                "code" : "0x60406000604060006000731000000000000000000000000000000000000002620927c0f16001556001600b5500",
                "nonce" : "0x00",
                "storage" : {
                }
            },
            "0x1000000000000000000000000000000000000002" : {
                "balance" : "0x00",
                "code" : "0x622fffff600020506040600060406000600073100000000000000000000000000000000000000362061a80f260025500",
                "nonce" : "0x00",
                "storage" : {
                }
            },
            "0x1000000000000000000000000000000000000003" : {
                "balance" : "0x00",
                "code" : "0x600160035500",
                "nonce" : "0x00",
                "storage" : {
                }
            },
            "0xa94f5374fce5edbc8e2a8697c15331677e6ebf0b" : {
                "balance" : "0x0de0b6b3a7640000",
                "code" : "0x",
                "nonce" : "0x00",
                "storage" : {
                }
            }
        },
        "sealEngine" : "NoProof"
    }
}