{
    "gasLimitTooLow_Cancun" : {
        "_info" : {
            "comment" : "",
            "filling-rpc-server" : "evmone-t8n 0.14.0-13+commit.4d363c36",
            "filling-tool-version" : "retesteth-0.3.2-legacy+commit.ca7f4c79.Linux.g++",
            "fixture-format" : "blockchain_test",
            "generatedTestHash" : "c4d7d0a865ee3450425e749675c602ca3fdcd53f237b399b3efa89772d0bf267",
            "lllcversion" : "Version: 0.5.14-develop.2024.11.5+commit.b2b86751.mod.Linux.g++",
            "hyperion" : "Version: 0.8.24+commit.e11b9ed9.Linux.g++",
            "source" : "src/BlockchainTestsFiller/InvalidBlocks/bcUncleHeaderValidity/gasLimitTooLowFiller.json",
            "sourceHash" : "f2160384069bd0fc1b7f2b777f2abb1ed36622c3521449ab35e50ba84c050350"
        },
        "blocks" : [
            {
                "blockHeader" : {
                    "baseFeePerGas" : "0x0e",
                    "bloom" : "0x00000000000000000000000000000000000000000000000000000000000000000000000000000000000000000000000000000000000000000000000000000000000000000000000000000000000000000000000000000000000000000000000000000000000000000000000000000000000000000000000000000000000000000000000000000000000000000000000000000000000000000000000000000000000000000000000000000000000000000000000000000000000000000000000000000000000000000000000000000000000000000000000000000000000000000000000000000000000000000000000000000000000000000000000000000000",
                    "coinbase" : "0x8888f1f195afa192cfee860698584c030f4c9db1",
                    "extraData" : "0x42",
                    "gasLimit" : "0x2fefd8",
                    "gasUsed" : "0x5208",
                    "hash" : "0xc5a489e9fa5b946aed40f09ed0074d3cfef7e28bddcc9f3996e2934155e79639",
                    "mixHash" : "0x0000000000000000000000000000000000000000000000000000000000020000",
                    "nonce" : "0x0000000000000000",
                    "number" : "0x01",
                    "parentHash" : "0xfc96de622c494ad156bddd8953449830246ebf75564ef37aaf9142db066497c0",
                    "receiptTrie" : "0x056b23fbba480696b65fe5a59b8f2148a1299103c4f57df839233af2cf4ca2d2",
                    "stateRoot" : "0x2fa1423842b5120b16df86e1ba1cc83d442f2b1c4d3338f37ce1e0b4d8836990",
                    "timestamp" : "0x54c99069",
                    "transactionsTrie" : "0xffaa3736dfb643087cb20308a8b016ebba03684b555114d6533b5c2f9951e252",
                    "withdrawalsRoot" : "0x56e81f171bcc55a6ff8345e692c0f86e5b48e01b996cadc001622fb5e363b421"
                },
                "blocknumber" : "1",
                "chainname" : "default",
                "rlp" : "0xf902a5f9023ba0fc96de622c494ad156bddd8953449830246ebf75564ef37aaf9142db066497c0a01dcc4de8dec75d7aab85b567b6ccd41ad312451b948a7413f0a142fd40d49347948888f1f195afa192cfee860698584c030f4c9db1a02fa1423842b5120b16df86e1ba1cc83d442f2b1c4d3338f37ce1e0b4d8836990a0ffaa3736dfb643087cb20308a8b016ebba03684b555114d6533b5c2f9951e252a0056b23fbba480696b65fe5a59b8f2148a1299103c4f57df839233af2cf4ca2d2b90100000000000000000000000000000000000000000000000000000000000000000000000000000000000000000000000000000000000000000000000000000000000000000000000000000000000000000000000000000000000000000000000000000000000000000000000000000000000000000000000000000000000000000000000000000000000000000000000000000000000000000000000000000000000000000000000000000000000000000000000000000000000000000000000000000000000000000000000000000000000000000000000000000000000000000000000000000000000000000000000000000000000000000000000000000000008001832fefd88252088454c9906942a000000000000000000000000000000000000000000000000000000000000200008800000000000000000ea056e81f171bcc55a6ff8345e692c0f86e5b48e01b996cadc001622fb5e363b4218080a00000000000000000000000000000000000000000000000000000000000000000f863f861808203e88304cb2f94095e7baea6a6c7c4c2dfeb977efac326af552d870a801ba025d49a54362b5ae38cf895fa9a1d3ded6f7d5577e572c9a93cdebff6e33ceaf79f773806df18e22db29acde1dd96c0418e28738af7f520e5e2c5c673494029e5c0c0",
                "transactions" : [
                    {
                        "data" : "0x",
                        "gasLimit" : "0x04cb2f",
                        "gasPrice" : "0x03e8",
                        "nonce" : "0x00",
                        "r" : "0x25d49a54362b5ae38cf895fa9a1d3ded6f7d5577e572c9a93cdebff6e33ceaf7",
                        "s" : "0x773806df18e22db29acde1dd96c0418e28738af7f520e5e2c5c673494029e5",
                        "sender" : "Za94f5374fce5edbc8e2a8697c15331677e6ebf0b",
                        "to" : "Z095e7baea6a6c7c4c2dfeb977efac326af552d87",
                        "v" : "0x1b",
                        "value" : "0x0a"
                    }
                ],
                "uncleHeaders" : [
                ],
                "withdrawals" : [
                ]
            },
            {
                "blockHeader" : {
                    "baseFeePerGas" : "0x0d",
                    "bloom" : "0x00000000000000000000000000000000000000000000000000000000000000000000000000000000000000000000000000000000000000000000000000000000000000000000000000000000000000000000000000000000000000000000000000000000000000000000000000000000000000000000000000000000000000000000000000000000000000000000000000000000000000000000000000000000000000000000000000000000000000000000000000000000000000000000000000000000000000000000000000000000000000000000000000000000000000000000000000000000000000000000000000000000000000000000000000000000",
                    "coinbase" : "0x8888f1f195afa192cfee860698584c030f4c9db1",
                    "extraData" : "0x42",
                    "gasLimit" : "0x2fefd8",
                    "gasUsed" : "0x5208",
                    "hash" : "0x6f26d659fba2ddcb59d19cd8bbf35a66c480adcd054b7b7a1fcae86737d586e1",
                    "mixHash" : "0x0000000000000000000000000000000000000000000000000000000000020000",
                    "nonce" : "0x0000000000000000",
                    "number" : "0x02",
                    "parentHash" : "0xc5a489e9fa5b946aed40f09ed0074d3cfef7e28bddcc9f3996e2934155e79639",
                    "receiptTrie" : "0x056b23fbba480696b65fe5a59b8f2148a1299103c4f57df839233af2cf4ca2d2",
                    "stateRoot" : "0x2a41bca85bbddaaee0ae0b4518cb06afc1deb4dccbba169d0547a4535fa9e69f",
                    "timestamp" : "0x54c99451",
                    "transactionsTrie" : "0x508bee09f3e9744100c2bfde8429a2acad7e1221a3d76fc462168b5e0826d350",
                    "withdrawalsRoot" : "0x56e81f171bcc55a6ff8345e692c0f86e5b48e01b996cadc001622fb5e363b421"
                },
                "blocknumber" : "2",
                "chainname" : "default",
                "rlp" : "0xf902a6f9023ba0c5a489e9fa5b946aed40f09ed0074d3cfef7e28bddcc9f3996e2934155e79639a01dcc4de8dec75d7aab85b567b6ccd41ad312451b948a7413f0a142fd40d49347948888f1f195afa192cfee860698584c030f4c9db1a02a41bca85bbddaaee0ae0b4518cb06afc1deb4dccbba169d0547a4535fa9e69fa0508bee09f3e9744100c2bfde8429a2acad7e1221a3d76fc462168b5e0826d350a0056b23fbba480696b65fe5a59b8f2148a1299103c4f57df839233af2cf4ca2d2b90100000000000000000000000000000000000000000000000000000000000000000000000000000000000000000000000000000000000000000000000000000000000000000000000000000000000000000000000000000000000000000000000000000000000000000000000000000000000000000000000000000000000000000000000000000000000000000000000000000000000000000000000000000000000000000000000000000000000000000000000000000000000000000000000000000000000000000000000000000000000000000000000000000000000000000000000000000000000000000000000000000000000000000000000000000000008002832fefd88252088454c9945142a000000000000000000000000000000000000000000000000000000000000200008800000000000000000da056e81f171bcc55a6ff8345e692c0f86e5b48e01b996cadc001622fb5e363b4218080a00000000000000000000000000000000000000000000000000000000000000000f864f862018203e88304cb2f9400000000000000000000000000000000000000000a801ca033f1b7ed16cfd4eb4c46824fbb98427edb3bd170ba34222400548a14d8906047a03f1dcea859ab6676c5c6c9c72e46606b3ff0d453bea052bc4abdaa743b8a07d0c0c0",
                "transactions" : [
                    {
                        "data" : "0x",
                        "gasLimit" : "0x04cb2f",
                        "gasPrice" : "0x03e8",
                        "nonce" : "0x01",
                        "r" : "0x33f1b7ed16cfd4eb4c46824fbb98427edb3bd170ba34222400548a14d8906047",
                        "s" : "0x3f1dcea859ab6676c5c6c9c72e46606b3ff0d453bea052bc4abdaa743b8a07d0",
                        "sender" : "Za94f5374fce5edbc8e2a8697c15331677e6ebf0b",
                        "to" : "Z0000000000000000000000000000000000000000",
                        "v" : "0x1c",
                        "value" : "0x0a"
                    }
                ],
                "uncleHeaders" : [
                ],
                "withdrawals" : [
                ]
            },
            {
                "blocknumber" : "3",
                "chainname" : "default",
                "expectException" : "BlockException.IMPORT_IMPOSSIBLE_UNCLES_OVER_PARIS",
                "rlp" : "0xf904e4f9023ba06f26d659fba2ddcb59d19cd8bbf35a66c480adcd054b7b7a1fcae86737d586e1a0318d7094c4a0f206325fb5c4856420589c60f8e4264e5c6fd0ed07653a7c4923948888f1f195afa192cfee860698584c030f4c9db1a00be6148c44ab0260788897c8a3e6840d60102ae9d5119917b73b5f6233ce3a15a08c8775e959d553f9f991a21a8502dbe6819c53c518711f2cbbbd7ed998f65647a0056b23fbba480696b65fe5a59b8f2148a1299103c4f57df839233af2cf4ca2d2b90100000000000000000000000000000000000000000000000000000000000000000000000000000000000000000000000000000000000000000000000000000000000000000000000000000000000000000000000000000000000000000000000000000000000000000000000000000000000000000000000000000000000000000000000000000000000000000000000000000000000000000000000000000000000000000000000000000000000000000000000000000000000000000000000000000000000000000000000000000000000000000000000000000000000000000000000000000000000000000000000000000000000000000000000000000000008003832fefd88252088454c9983942a000000000000000000000000000000000000000000000000000000000000200008800000000000000000ca056e81f171bcc55a6ff8345e692c0f86e5b48e01b996cadc001622fb5e363b4218080a00000000000000000000000000000000000000000000000000000000000000000f864f862028203e88304cb2f94095e7baea6a6c7c4c2dfeb977efac326af552d870a801ba039ec4047c2bd7a6c32b764b7067c9becd83668856736e3d85b3994eb2adaa7cea020650892ef41b613656e25663a0d990436198c3ef617a8d820658db19aab1b56f9023cf90239a0c5a489e9fa5b946aed40f09ed0074d3cfef7e28bddcc9f3996e2934155e79639a01dcc4de8dec75d7aab85b567b6ccd41ad312451b948a7413f0a142fd40d4934794b94f5374fce5ed0000000097c15331677e6ebf0ba0d7ab579e705e48c5c81aef4ff3c724902249f44cbf36e065a1d0691e1e1ed093a056e81f171bcc55a6ff8345e692c0f86e5b48e01b996cadc001622fb5e363b421a056e81f171bcc55a6ff8345e692c0f86e5b48e01b996cadc001622fb5e363b421b9010000000000000000000000000000000000000000000000000000000000000000000000000000000000000000000000000000000000000000000000000000000000000000000000000000000000000000000000000000000000000000000000000000000000000000000000000000000000000000000000000000000000000000000000000000000000000000000000000000000000000000000000000000000000000000000000000000000000000000000000000000000000000000000000000000000000000000000000000000000000000000000000000000000000000000000000000000000000000000000000000000000000000000000000000000000000800283021d1c808454c9945142a000000000000000000000000000000000000000000000000000000000000200008800000000000000000da056e81f171bcc55a6ff8345e692c0f86e5b48e01b996cadc001622fb5e363b4218080a00000000000000000000000000000000000000000000000000000000000000000c0",
                "rlp_decoded" : {
                    "blockHeader" : {
                        "baseFeePerGas" : "0x0c",
                        "bloom" : "0x00000000000000000000000000000000000000000000000000000000000000000000000000000000000000000000000000000000000000000000000000000000000000000000000000000000000000000000000000000000000000000000000000000000000000000000000000000000000000000000000000000000000000000000000000000000000000000000000000000000000000000000000000000000000000000000000000000000000000000000000000000000000000000000000000000000000000000000000000000000000000000000000000000000000000000000000000000000000000000000000000000000000000000000000000000000",
                        "coinbase" : "0x8888f1f195afa192cfee860698584c030f4c9db1",
                        "extraData" : "0x42",
                        "gasLimit" : "0x2fefd8",
                        "gasUsed" : "0x5208",
                        "hash" : "0xa974c65adff2664ec66cacc622e3161ff5da20597634365636298b8d74f79f5e",
                        "mixHash" : "0x0000000000000000000000000000000000000000000000000000000000020000",
                        "nonce" : "0x0000000000000000",
                        "number" : "0x03",
                        "parentHash" : "0x6f26d659fba2ddcb59d19cd8bbf35a66c480adcd054b7b7a1fcae86737d586e1",
                        "receiptTrie" : "0x056b23fbba480696b65fe5a59b8f2148a1299103c4f57df839233af2cf4ca2d2",
                        "stateRoot" : "0x0be6148c44ab0260788897c8a3e6840d60102ae9d5119917b73b5f6233ce3a15",
                        "timestamp" : "0x54c99839",
                        "transactionsTrie" : "0x8c8775e959d553f9f991a21a8502dbe6819c53c518711f2cbbbd7ed998f65647",
                        "withdrawalsRoot" : "0x56e81f171bcc55a6ff8345e692c0f86e5b48e01b996cadc001622fb5e363b421"
                    },
                    "transactions" : [
                        {
                            "data" : "0x",
                            "gasLimit" : "0x04cb2f",
                            "gasPrice" : "0x03e8",
                            "nonce" : "0x02",
                            "r" : "0x39ec4047c2bd7a6c32b764b7067c9becd83668856736e3d85b3994eb2adaa7ce",
                            "s" : "0x20650892ef41b613656e25663a0d990436198c3ef617a8d820658db19aab1b56",
                            "to" : "Z095e7baea6a6c7c4c2dfeb977efac326af552d87",
                            "v" : "0x1b",
                            "value" : "0x0a"
                        }
                    ],
                    "uncleHeaders" : [
                        {
                            "baseFeePerGas" : "0x0d",
                            "bloom" : "0x00000000000000000000000000000000000000000000000000000000000000000000000000000000000000000000000000000000000000000000000000000000000000000000000000000000000000000000000000000000000000000000000000000000000000000000000000000000000000000000000000000000000000000000000000000000000000000000000000000000000000000000000000000000000000000000000000000000000000000000000000000000000000000000000000000000000000000000000000000000000000000000000000000000000000000000000000000000000000000000000000000000000000000000000000000000",
                            "coinbase" : "0xb94f5374fce5ed0000000097c15331677e6ebf0b",
                            "extraData" : "0x42",
                            "gasLimit" : "0x021d1c",
                            "gasUsed" : "0x00",
                            "hash" : "0x557a52019fa7ea06412b3b1b514717d524f9e9dab60874c0db6c5315f998d920",
                            "mixHash" : "0x0000000000000000000000000000000000000000000000000000000000020000",
                            "nonce" : "0x0000000000000000",
                            "number" : "0x02",
                            "parentHash" : "0xc5a489e9fa5b946aed40f09ed0074d3cfef7e28bddcc9f3996e2934155e79639",
                            "receiptTrie" : "0x56e81f171bcc55a6ff8345e692c0f86e5b48e01b996cadc001622fb5e363b421",
                            "stateRoot" : "0xd7ab579e705e48c5c81aef4ff3c724902249f44cbf36e065a1d0691e1e1ed093",
                            "timestamp" : "0x54c99451",
                            "transactionsTrie" : "0x56e81f171bcc55a6ff8345e692c0f86e5b48e01b996cadc001622fb5e363b421",
                            "withdrawalsRoot" : "0x56e81f171bcc55a6ff8345e692c0f86e5b48e01b996cadc001622fb5e363b421"
                        }
                    ],
                    "withdrawals" : [
                    ]
                }
            }
        ],
        "config" : {
            "blobSchedule" : {
                "Cancun" : {
                    "baseFeeUpdateFraction" : "0x32f0ed",
                    "max" : "0x06",
                    "target" : "0x03"
                }
            },
            "chainid" : "0x01",
            "network" : "Cancun"
        },
        "genesisBlockHeader" : {
            "baseFeePerGas" : "0x10",
            "bloom" : "0x00000000000000000000000000000000000000000000000000000000000000000000000000000000000000000000000000000000000000000000000000000000000000000000000000000000000000000000000000000000000000000000000000000000000000000000000000000000000000000000000000000000000000000000000000000000000000000000000000000000000000000000000000000000000000000000000000000000000000000000000000000000000000000000000000000000000000000000000000000000000000000000000000000000000000000000000000000000000000000000000000000000000000000000000000000000",
            "coinbase" : "0x8888f1f195afa192cfee860698584c030f4c9db1",
            "extraData" : "0x42",
            "gasLimit" : "0x2fefd8",
            "gasUsed" : "0x00",
            "hash" : "0xfc96de622c494ad156bddd8953449830246ebf75564ef37aaf9142db066497c0",
            "mixHash" : "0x0000000000000000000000000000000000000000000000000000000000020000",
            "nonce" : "0x0000000000000000",
            "number" : "0x00",
            "parentHash" : "0x0000000000000000000000000000000000000000000000000000000000000000",
            "receiptTrie" : "0x56e81f171bcc55a6ff8345e692c0f86e5b48e01b996cadc001622fb5e363b421",
            "stateRoot" : "0x5fc38a0c9f4d4df3e0db7e905d6737fa029d9949848831534a245e1121bb2dba",
            "timestamp" : "0x54c98c81",
            "transactionsTrie" : "0x56e81f171bcc55a6ff8345e692c0f86e5b48e01b996cadc001622fb5e363b421",
            "withdrawalsRoot" : "0x56e81f171bcc55a6ff8345e692c0f86e5b48e01b996cadc001622fb5e363b421"
        },
        "genesisRLP" : "0xf9023ff90239a00000000000000000000000000000000000000000000000000000000000000000a01dcc4de8dec75d7aab85b567b6ccd41ad312451b948a7413f0a142fd40d49347948888f1f195afa192cfee860698584c030f4c9db1a05fc38a0c9f4d4df3e0db7e905d6737fa029d9949848831534a245e1121bb2dbaa056e81f171bcc55a6ff8345e692c0f86e5b48e01b996cadc001622fb5e363b421a056e81f171bcc55a6ff8345e692c0f86e5b48e01b996cadc001622fb5e363b421b90100000000000000000000000000000000000000000000000000000000000000000000000000000000000000000000000000000000000000000000000000000000000000000000000000000000000000000000000000000000000000000000000000000000000000000000000000000000000000000000000000000000000000000000000000000000000000000000000000000000000000000000000000000000000000000000000000000000000000000000000000000000000000000000000000000000000000000000000000000000000000000000000000000000000000000000000000000000000000000000000000000000000000000000000000000000008080832fefd8808454c98c8142a0000000000000000000000000000000000000000000000000000000000002000088000000000000000010a056e81f171bcc55a6ff8345e692c0f86e5b48e01b996cadc001622fb5e363b4218080a00000000000000000000000000000000000000000000000000000000000000000c0c0c0",
        "lastblockhash" : "0x6f26d659fba2ddcb59d19cd8bbf35a66c480adcd054b7b7a1fcae86737d586e1",
        "network" : "Cancun",
        "postState" : {
            "0x0000000000000000000000000000000000000000" : {
                "balance" : "0x0a",
                "code" : "0x",
                "nonce" : "0x00",
                "storage" : {
                }
            },
            "0x000f3df6d732807ef1319fb7b8bb8522d0beac02" : {
                "balance" : "0x00",
                "code" : "0x3373fffffffffffffffffffffffffffffffffffffffe14604d57602036146024575f5ffd5b5f35801560495762001fff810690815414603c575f5ffd5b62001fff01545f5260205ff35b5f5ffd5b62001fff42064281555f359062001fff015500",
                "nonce" : "0x01",
                "storage" : {
                    "0x12e2" : "0x54c98c81",
                    "0x16ca" : "0x54c99069",
                    "0x1ab2" : "0x54c99451"
                }
            },
            "0x095e7baea6a6c7c4c2dfeb977efac326af552d87" : {
                "balance" : "0x0a",
                "code" : "0x",
                "nonce" : "0x00",
                "storage" : {
                }
            },
            "0x8888f1f195afa192cfee860698584c030f4c9db1" : {
                "balance" : "0x027837a8",
                "code" : "0x",
                "nonce" : "0x00",
                "storage" : {
                }
            },
            "0xa94f5374fce5edbc8e2a8697c15331677e6ebf0b" : {
                "balance" : "0x09184bf1c16c",
                "code" : "0x",
                "nonce" : "0x02",
                "storage" : {
                }
            }
        },
        "pre" : {
            "0x000f3df6d732807ef1319fb7b8bb8522d0beac02" : {
                "balance" : "0x00",
                "code" : "0x3373fffffffffffffffffffffffffffffffffffffffe14604d57602036146024575f5ffd5b5f35801560495762001fff810690815414603c575f5ffd5b62001fff01545f5260205ff35b5f5ffd5b62001fff42064281555f359062001fff015500",
                "nonce" : "0x01",
                "storage" : {
                    "0x12e2" : "0x54c98c81"
                }
            },
            "0xa94f5374fce5edbc8e2a8697c15331677e6ebf0b" : {
                "balance" : "0x09184e72a000",
                "code" : "0x",
                "nonce" : "0x00",
                "storage" : {
                }
            }
        },
        "sealEngine" : "NoProof"
    },
    "gasLimitTooLow_Prague" : {
        "_info" : {
            "comment" : "",
            "filling-rpc-server" : "evmone-t8n 0.14.0-13+commit.4d363c36",
            "filling-tool-version" : "retesteth-0.3.2-legacy+commit.ca7f4c79.Linux.g++",
            "fixture-format" : "blockchain_test",
            "generatedTestHash" : "aae2d7a6082969eb46a7d026e73a069caa64ee6cf8ab7fb2e4d916df20550d1e",
            "lllcversion" : "Version: 0.5.14-develop.2024.11.5+commit.b2b86751.mod.Linux.g++",
            "hyperion" : "Version: 0.8.24+commit.e11b9ed9.Linux.g++",
            "source" : "src/BlockchainTestsFiller/InvalidBlocks/bcUncleHeaderValidity/gasLimitTooLowFiller.json",
            "sourceHash" : "f2160384069bd0fc1b7f2b777f2abb1ed36622c3521449ab35e50ba84c050350"
        },
        "blocks" : [
            {
                "blockHeader" : {
                    "baseFeePerGas" : "0x0e",
                    "bloom" : "0x00000000000000000000000000000000000000000000000000000000000000000000000000000000000000000000000000000000000000000000000000000000000000000000000000000000000000000000000000000000000000000000000000000000000000000000000000000000000000000000000000000000000000000000000000000000000000000000000000000000000000000000000000000000000000000000000000000000000000000000000000000000000000000000000000000000000000000000000000000000000000000000000000000000000000000000000000000000000000000000000000000000000000000000000000000000",
                    "coinbase" : "0x8888f1f195afa192cfee860698584c030f4c9db1",
                    "extraData" : "0x42",
                    "gasLimit" : "0x2fefd8",
                    "gasUsed" : "0x5208",
                    "hash" : "0x4dfa0aea107e6a4eceb02a9a0da05c0010659ef6488efa2c887a32ffce119862",
                    "mixHash" : "0x0000000000000000000000000000000000000000000000000000000000020000",
                    "nonce" : "0x0000000000000000",
                    "number" : "0x01",
                    "parentHash" : "0x335f62eb1c883fcfb0793b87d41f58f72f6ba58dda3758cc6468b25fd11e7e8b",
                    "receiptTrie" : "0x056b23fbba480696b65fe5a59b8f2148a1299103c4f57df839233af2cf4ca2d2",
                    "requestsHash" : "0xe3b0c44298fc1c149afbf4c8996fb92427ae41e4649b934ca495991b7852b855",
                    "stateRoot" : "0x4cce09b17f50b6c4def4283c1584466b67298369a374e8286264ddc1092c5fc8",
                    "timestamp" : "0x54c99069",
                    "transactionsTrie" : "0xffaa3736dfb643087cb20308a8b016ebba03684b555114d6533b5c2f9951e252",
                    "withdrawalsRoot" : "0x56e81f171bcc55a6ff8345e692c0f86e5b48e01b996cadc001622fb5e363b421"
                },
                "blocknumber" : "1",
                "chainname" : "default",
                "rlp" : "0xf902c6f9025ca0335f62eb1c883fcfb0793b87d41f58f72f6ba58dda3758cc6468b25fd11e7e8ba01dcc4de8dec75d7aab85b567b6ccd41ad312451b948a7413f0a142fd40d49347948888f1f195afa192cfee860698584c030f4c9db1a04cce09b17f50b6c4def4283c1584466b67298369a374e8286264ddc1092c5fc8a0ffaa3736dfb643087cb20308a8b016ebba03684b555114d6533b5c2f9951e252a0056b23fbba480696b65fe5a59b8f2148a1299103c4f57df839233af2cf4ca2d2b90100000000000000000000000000000000000000000000000000000000000000000000000000000000000000000000000000000000000000000000000000000000000000000000000000000000000000000000000000000000000000000000000000000000000000000000000000000000000000000000000000000000000000000000000000000000000000000000000000000000000000000000000000000000000000000000000000000000000000000000000000000000000000000000000000000000000000000000000000000000000000000000000000000000000000000000000000000000000000000000000000000000000000000000000000000000008001832fefd88252088454c9906942a000000000000000000000000000000000000000000000000000000000000200008800000000000000000ea056e81f171bcc55a6ff8345e692c0f86e5b48e01b996cadc001622fb5e363b4218080a00000000000000000000000000000000000000000000000000000000000000000a0e3b0c44298fc1c149afbf4c8996fb92427ae41e4649b934ca495991b7852b855f863f861808203e88304cb2f94095e7baea6a6c7c4c2dfeb977efac326af552d870a801ba025d49a54362b5ae38cf895fa9a1d3ded6f7d5577e572c9a93cdebff6e33ceaf79f773806df18e22db29acde1dd96c0418e28738af7f520e5e2c5c673494029e5c0c0",
                "transactions" : [
                    {
                        "data" : "0x",
                        "gasLimit" : "0x04cb2f",
                        "gasPrice" : "0x03e8",
                        "nonce" : "0x00",
                        "r" : "0x25d49a54362b5ae38cf895fa9a1d3ded6f7d5577e572c9a93cdebff6e33ceaf7",
                        "s" : "0x773806df18e22db29acde1dd96c0418e28738af7f520e5e2c5c673494029e5",
                        "sender" : "Za94f5374fce5edbc8e2a8697c15331677e6ebf0b",
                        "to" : "Z095e7baea6a6c7c4c2dfeb977efac326af552d87",
                        "v" : "0x1b",
                        "value" : "0x0a"
                    }
                ],
                "uncleHeaders" : [
                ],
                "withdrawals" : [
                ]
            },
            {
                "blockHeader" : {
                    "baseFeePerGas" : "0x0d",
                    "bloom" : "0x00000000000000000000000000000000000000000000000000000000000000000000000000000000000000000000000000000000000000000000000000000000000000000000000000000000000000000000000000000000000000000000000000000000000000000000000000000000000000000000000000000000000000000000000000000000000000000000000000000000000000000000000000000000000000000000000000000000000000000000000000000000000000000000000000000000000000000000000000000000000000000000000000000000000000000000000000000000000000000000000000000000000000000000000000000000",
                    "coinbase" : "0x8888f1f195afa192cfee860698584c030f4c9db1",
                    "extraData" : "0x42",
                    "gasLimit" : "0x2fefd8",
                    "gasUsed" : "0x5208",
                    "hash" : "0x0f25a89ebec359302456e5031846b10ba37197ef18e7f0dff028ab7dadd1b11b",
                    "mixHash" : "0x0000000000000000000000000000000000000000000000000000000000020000",
                    "nonce" : "0x0000000000000000",
                    "number" : "0x02",
                    "parentHash" : "0x4dfa0aea107e6a4eceb02a9a0da05c0010659ef6488efa2c887a32ffce119862",
                    "receiptTrie" : "0x056b23fbba480696b65fe5a59b8f2148a1299103c4f57df839233af2cf4ca2d2",
                    "requestsHash" : "0xe3b0c44298fc1c149afbf4c8996fb92427ae41e4649b934ca495991b7852b855",
                    "stateRoot" : "0xa77700bce927b01ba9618dc9c35c807f6b498dfdc45164979bb6179227bc7857",
                    "timestamp" : "0x54c99451",
                    "transactionsTrie" : "0x508bee09f3e9744100c2bfde8429a2acad7e1221a3d76fc462168b5e0826d350",
                    "withdrawalsRoot" : "0x56e81f171bcc55a6ff8345e692c0f86e5b48e01b996cadc001622fb5e363b421"
                },
                "blocknumber" : "2",
                "chainname" : "default",
                "rlp" : "0xf902c7f9025ca04dfa0aea107e6a4eceb02a9a0da05c0010659ef6488efa2c887a32ffce119862a01dcc4de8dec75d7aab85b567b6ccd41ad312451b948a7413f0a142fd40d49347948888f1f195afa192cfee860698584c030f4c9db1a0a77700bce927b01ba9618dc9c35c807f6b498dfdc45164979bb6179227bc7857a0508bee09f3e9744100c2bfde8429a2acad7e1221a3d76fc462168b5e0826d350a0056b23fbba480696b65fe5a59b8f2148a1299103c4f57df839233af2cf4ca2d2b90100000000000000000000000000000000000000000000000000000000000000000000000000000000000000000000000000000000000000000000000000000000000000000000000000000000000000000000000000000000000000000000000000000000000000000000000000000000000000000000000000000000000000000000000000000000000000000000000000000000000000000000000000000000000000000000000000000000000000000000000000000000000000000000000000000000000000000000000000000000000000000000000000000000000000000000000000000000000000000000000000000000000000000000000000000000008002832fefd88252088454c9945142a000000000000000000000000000000000000000000000000000000000000200008800000000000000000da056e81f171bcc55a6ff8345e692c0f86e5b48e01b996cadc001622fb5e363b4218080a00000000000000000000000000000000000000000000000000000000000000000a0e3b0c44298fc1c149afbf4c8996fb92427ae41e4649b934ca495991b7852b855f864f862018203e88304cb2f9400000000000000000000000000000000000000000a801ca033f1b7ed16cfd4eb4c46824fbb98427edb3bd170ba34222400548a14d8906047a03f1dcea859ab6676c5c6c9c72e46606b3ff0d453bea052bc4abdaa743b8a07d0c0c0",
                "transactions" : [
                    {
                        "data" : "0x",
                        "gasLimit" : "0x04cb2f",
                        "gasPrice" : "0x03e8",
                        "nonce" : "0x01",
                        "r" : "0x33f1b7ed16cfd4eb4c46824fbb98427edb3bd170ba34222400548a14d8906047",
                        "s" : "0x3f1dcea859ab6676c5c6c9c72e46606b3ff0d453bea052bc4abdaa743b8a07d0",
                        "sender" : "Za94f5374fce5edbc8e2a8697c15331677e6ebf0b",
                        "to" : "Z0000000000000000000000000000000000000000",
                        "v" : "0x1c",
                        "value" : "0x0a"
                    }
                ],
                "uncleHeaders" : [
                ],
                "withdrawals" : [
                ]
            },
            {
                "blocknumber" : "3",
                "chainname" : "default",
                "expectException" : "BlockException.IMPORT_IMPOSSIBLE_UNCLES_OVER_PARIS",
                "rlp" : "0xf90526f9025ca00f25a89ebec359302456e5031846b10ba37197ef18e7f0dff028ab7dadd1b11ba03d961ec9e6ba94f8c8f82323ca7c8446cbe8749b5a21f43fcc02c5487ab1c835948888f1f195afa192cfee860698584c030f4c9db1a0fbfd3b7d86c442a5e226feb24b2c4f80136500f58f6fd9463a995dcfb7b41fada08c8775e959d553f9f991a21a8502dbe6819c53c518711f2cbbbd7ed998f65647a0056b23fbba480696b65fe5a59b8f2148a1299103c4f57df839233af2cf4ca2d2b90100000000000000000000000000000000000000000000000000000000000000000000000000000000000000000000000000000000000000000000000000000000000000000000000000000000000000000000000000000000000000000000000000000000000000000000000000000000000000000000000000000000000000000000000000000000000000000000000000000000000000000000000000000000000000000000000000000000000000000000000000000000000000000000000000000000000000000000000000000000000000000000000000000000000000000000000000000000000000000000000000000000000000000000000000000000008003832fefd88252088454c9983942a000000000000000000000000000000000000000000000000000000000000200008800000000000000000ca056e81f171bcc55a6ff8345e692c0f86e5b48e01b996cadc001622fb5e363b4218080a00000000000000000000000000000000000000000000000000000000000000000a0e3b0c44298fc1c149afbf4c8996fb92427ae41e4649b934ca495991b7852b855f864f862028203e88304cb2f94095e7baea6a6c7c4c2dfeb977efac326af552d870a801ba039ec4047c2bd7a6c32b764b7067c9becd83668856736e3d85b3994eb2adaa7cea020650892ef41b613656e25663a0d990436198c3ef617a8d820658db19aab1b56f9025df9025aa04dfa0aea107e6a4eceb02a9a0da05c0010659ef6488efa2c887a32ffce119862a01dcc4de8dec75d7aab85b567b6ccd41ad312451b948a7413f0a142fd40d4934794b94f5374fce5ed0000000097c15331677e6ebf0ba042cd40047380f19447590bfabd9ac588170c4b9098cd6d2e8beb6e3fd72add06a056e81f171bcc55a6ff8345e692c0f86e5b48e01b996cadc001622fb5e363b421a056e81f171bcc55a6ff8345e692c0f86e5b48e01b996cadc001622fb5e363b421b9010000000000000000000000000000000000000000000000000000000000000000000000000000000000000000000000000000000000000000000000000000000000000000000000000000000000000000000000000000000000000000000000000000000000000000000000000000000000000000000000000000000000000000000000000000000000000000000000000000000000000000000000000000000000000000000000000000000000000000000000000000000000000000000000000000000000000000000000000000000000000000000000000000000000000000000000000000000000000000000000000000000000000000000000000000000000800283021d1c808454c9945142a000000000000000000000000000000000000000000000000000000000000200008800000000000000000da056e81f171bcc55a6ff8345e692c0f86e5b48e01b996cadc001622fb5e363b4218080a00000000000000000000000000000000000000000000000000000000000000000a0e3b0c44298fc1c149afbf4c8996fb92427ae41e4649b934ca495991b7852b855c0",
                "rlp_decoded" : {
                    "blockHeader" : {
                        "baseFeePerGas" : "0x0c",
                        "bloom" : "0x00000000000000000000000000000000000000000000000000000000000000000000000000000000000000000000000000000000000000000000000000000000000000000000000000000000000000000000000000000000000000000000000000000000000000000000000000000000000000000000000000000000000000000000000000000000000000000000000000000000000000000000000000000000000000000000000000000000000000000000000000000000000000000000000000000000000000000000000000000000000000000000000000000000000000000000000000000000000000000000000000000000000000000000000000000000",
                        "coinbase" : "0x8888f1f195afa192cfee860698584c030f4c9db1",
                        "extraData" : "0x42",
                        "gasLimit" : "0x2fefd8",
                        "gasUsed" : "0x5208",
                        "hash" : "0x2cd5b8f878eaa9fd8048ae91fde6749cfbf0c798ec0a4a01c5657cda6f29c4c0",
                        "mixHash" : "0x0000000000000000000000000000000000000000000000000000000000020000",
                        "nonce" : "0x0000000000000000",
                        "number" : "0x03",
                        "parentHash" : "0x0f25a89ebec359302456e5031846b10ba37197ef18e7f0dff028ab7dadd1b11b",
                        "receiptTrie" : "0x056b23fbba480696b65fe5a59b8f2148a1299103c4f57df839233af2cf4ca2d2",
                        "requestsHash" : "0xe3b0c44298fc1c149afbf4c8996fb92427ae41e4649b934ca495991b7852b855",
                        "stateRoot" : "0xfbfd3b7d86c442a5e226feb24b2c4f80136500f58f6fd9463a995dcfb7b41fad",
                        "timestamp" : "0x54c99839",
                        "transactionsTrie" : "0x8c8775e959d553f9f991a21a8502dbe6819c53c518711f2cbbbd7ed998f65647",
                        "withdrawalsRoot" : "0x56e81f171bcc55a6ff8345e692c0f86e5b48e01b996cadc001622fb5e363b421"
                    },
                    "transactions" : [
                        {
                            "data" : "0x",
                            "gasLimit" : "0x04cb2f",
                            "gasPrice" : "0x03e8",
                            "nonce" : "0x02",
                            "r" : "0x39ec4047c2bd7a6c32b764b7067c9becd83668856736e3d85b3994eb2adaa7ce",
                            "s" : "0x20650892ef41b613656e25663a0d990436198c3ef617a8d820658db19aab1b56",
                            "to" : "Z095e7baea6a6c7c4c2dfeb977efac326af552d87",
                            "v" : "0x1b",
                            "value" : "0x0a"
                        }
                    ],
                    "uncleHeaders" : [
                        {
                            "baseFeePerGas" : "0x0d",
                            "bloom" : "0x00000000000000000000000000000000000000000000000000000000000000000000000000000000000000000000000000000000000000000000000000000000000000000000000000000000000000000000000000000000000000000000000000000000000000000000000000000000000000000000000000000000000000000000000000000000000000000000000000000000000000000000000000000000000000000000000000000000000000000000000000000000000000000000000000000000000000000000000000000000000000000000000000000000000000000000000000000000000000000000000000000000000000000000000000000000",
                            "coinbase" : "0xb94f5374fce5ed0000000097c15331677e6ebf0b",
                            "extraData" : "0x42",
                            "gasLimit" : "0x021d1c",
                            "gasUsed" : "0x00",
                            "hash" : "0xd81458fae3db518c590b7efbdca5beab1f5b866baaf82e86807361d7135bc11b",
                            "mixHash" : "0x0000000000000000000000000000000000000000000000000000000000020000",
                            "nonce" : "0x0000000000000000",
                            "number" : "0x02",
                            "parentHash" : "0x4dfa0aea107e6a4eceb02a9a0da05c0010659ef6488efa2c887a32ffce119862",
                            "receiptTrie" : "0x56e81f171bcc55a6ff8345e692c0f86e5b48e01b996cadc001622fb5e363b421",
                            "requestsHash" : "0xe3b0c44298fc1c149afbf4c8996fb92427ae41e4649b934ca495991b7852b855",
                            "stateRoot" : "0x42cd40047380f19447590bfabd9ac588170c4b9098cd6d2e8beb6e3fd72add06",
                            "timestamp" : "0x54c99451",
                            "transactionsTrie" : "0x56e81f171bcc55a6ff8345e692c0f86e5b48e01b996cadc001622fb5e363b421",
                            "withdrawalsRoot" : "0x56e81f171bcc55a6ff8345e692c0f86e5b48e01b996cadc001622fb5e363b421"
                        }
                    ],
                    "withdrawals" : [
                    ]
                }
            }
        ],
        "config" : {
            "blobSchedule" : {
                "Prague" : {
                    "baseFeeUpdateFraction" : "0x4c6964",
                    "max" : "0x09",
                    "target" : "0x06"
                }
            },
            "chainid" : "0x01",
            "network" : "Prague"
        },
        "genesisBlockHeader" : {
            "baseFeePerGas" : "0x10",
            "bloom" : "0x00000000000000000000000000000000000000000000000000000000000000000000000000000000000000000000000000000000000000000000000000000000000000000000000000000000000000000000000000000000000000000000000000000000000000000000000000000000000000000000000000000000000000000000000000000000000000000000000000000000000000000000000000000000000000000000000000000000000000000000000000000000000000000000000000000000000000000000000000000000000000000000000000000000000000000000000000000000000000000000000000000000000000000000000000000000",
            "coinbase" : "0x8888f1f195afa192cfee860698584c030f4c9db1",
            "extraData" : "0x42",
            "gasLimit" : "0x2fefd8",
            "gasUsed" : "0x00",
            "hash" : "0x335f62eb1c883fcfb0793b87d41f58f72f6ba58dda3758cc6468b25fd11e7e8b",
            "mixHash" : "0x0000000000000000000000000000000000000000000000000000000000020000",
            "nonce" : "0x0000000000000000",
            "number" : "0x00",
            "parentHash" : "0x0000000000000000000000000000000000000000000000000000000000000000",
            "receiptTrie" : "0x56e81f171bcc55a6ff8345e692c0f86e5b48e01b996cadc001622fb5e363b421",
            "requestsHash" : "0xe3b0c44298fc1c149afbf4c8996fb92427ae41e4649b934ca495991b7852b855",
            "stateRoot" : "0x24404bc632098ebbd62b766a4ee0759197ec063578de068eae38bee31debe231",
            "timestamp" : "0x54c98c81",
            "transactionsTrie" : "0x56e81f171bcc55a6ff8345e692c0f86e5b48e01b996cadc001622fb5e363b421",
            "withdrawalsRoot" : "0x56e81f171bcc55a6ff8345e692c0f86e5b48e01b996cadc001622fb5e363b421"
        },
        "genesisRLP" : "0xf90260f9025aa00000000000000000000000000000000000000000000000000000000000000000a01dcc4de8dec75d7aab85b567b6ccd41ad312451b948a7413f0a142fd40d49347948888f1f195afa192cfee860698584c030f4c9db1a024404bc632098ebbd62b766a4ee0759197ec063578de068eae38bee31debe231a056e81f171bcc55a6ff8345e692c0f86e5b48e01b996cadc001622fb5e363b421a056e81f171bcc55a6ff8345e692c0f86e5b48e01b996cadc001622fb5e363b421b90100000000000000000000000000000000000000000000000000000000000000000000000000000000000000000000000000000000000000000000000000000000000000000000000000000000000000000000000000000000000000000000000000000000000000000000000000000000000000000000000000000000000000000000000000000000000000000000000000000000000000000000000000000000000000000000000000000000000000000000000000000000000000000000000000000000000000000000000000000000000000000000000000000000000000000000000000000000000000000000000000000000000000000000000000000000008080832fefd8808454c98c8142a0000000000000000000000000000000000000000000000000000000000002000088000000000000000010a056e81f171bcc55a6ff8345e692c0f86e5b48e01b996cadc001622fb5e363b4218080a00000000000000000000000000000000000000000000000000000000000000000a0e3b0c44298fc1c149afbf4c8996fb92427ae41e4649b934ca495991b7852b855c0c0c0",
        "lastblockhash" : "0x0f25a89ebec359302456e5031846b10ba37197ef18e7f0dff028ab7dadd1b11b",
        "network" : "Prague",
        "postState" : {
            "0x0000000000000000000000000000000000000000" : {
                "balance" : "0x0a",
                "code" : "0x",
                "nonce" : "0x00",
                "storage" : {
                }
            },
            "0x0000f90827f1c53a10cb7a02335b175320002935" : {
                "balance" : "0x00",
                "code" : "0x3373fffffffffffffffffffffffffffffffffffffffe14604657602036036042575f35600143038111604257611fff81430311604257611fff9006545f5260205ff35b5f5ffd5b5f35611fff60014303065500",
                "nonce" : "0x01",
                "storage" : {
                    "0x00" : "0x335f62eb1c883fcfb0793b87d41f58f72f6ba58dda3758cc6468b25fd11e7e8b",
                    "0x01" : "0x4dfa0aea107e6a4eceb02a9a0da05c0010659ef6488efa2c887a32ffce119862"
                }
            },
            "0x000f3df6d732807ef1319fb7b8bb8522d0beac02" : {
                "balance" : "0x00",
                "code" : "0x3373fffffffffffffffffffffffffffffffffffffffe14604d57602036146024575f5ffd5b5f35801560495762001fff810690815414603c575f5ffd5b62001fff01545f5260205ff35b5f5ffd5b62001fff42064281555f359062001fff015500",
                "nonce" : "0x01",
                "storage" : {
                    "0x12e2" : "0x54c98c81",
                    "0x16ca" : "0x54c99069",
                    "0x1ab2" : "0x54c99451"
                }
            },
            "0x095e7baea6a6c7c4c2dfeb977efac326af552d87" : {
                "balance" : "0x0a",
                "code" : "0x",
                "nonce" : "0x00",
                "storage" : {
                }
            },
            "0x8888f1f195afa192cfee860698584c030f4c9db1" : {
                "balance" : "0x027837a8",
                "code" : "0x",
                "nonce" : "0x00",
                "storage" : {
                }
            },
            "0xa94f5374fce5edbc8e2a8697c15331677e6ebf0b" : {
                "balance" : "0x09184bf1c16c",
                "code" : "0x",
                "nonce" : "0x02",
                "storage" : {
                }
            }
        },
        "pre" : {
            "0x0000f90827f1c53a10cb7a02335b175320002935" : {
                "balance" : "0x00",
                "code" : "0x3373fffffffffffffffffffffffffffffffffffffffe14604657602036036042575f35600143038111604257611fff81430311604257611fff9006545f5260205ff35b5f5ffd5b5f35611fff60014303065500",
                "nonce" : "0x01",
                "storage" : {
                }
            },
            "0x000f3df6d732807ef1319fb7b8bb8522d0beac02" : {
                "balance" : "0x00",
                "code" : "0x3373fffffffffffffffffffffffffffffffffffffffe14604d57602036146024575f5ffd5b5f35801560495762001fff810690815414603c575f5ffd5b62001fff01545f5260205ff35b5f5ffd5b62001fff42064281555f359062001fff015500",
                "nonce" : "0x01",
                "storage" : {
                    "0x12e2" : "0x54c98c81"
                }
            },
            "0xa94f5374fce5edbc8e2a8697c15331677e6ebf0b" : {
                "balance" : "0x09184e72a000",
                "code" : "0x",
                "nonce" : "0x00",
                "storage" : {
                }
            }
        },
        "sealEngine" : "NoProof"
    }
}