{
    "randomStatetest408" : {
        "_info" : {
            "comment" : "",
            "filling-rpc-server" : "evmone-t8n 0.14.0-13+commit.4d363c36",
            "filling-tool-version" : "retesteth-0.3.2-legacy+commit.ca7f4c79.Linux.g++",
            "fixture-format" : "state_test",
            "generatedTestHash" : "adedd634abbff7d7cdd62e51d535d3a6ae6f9df961ca740e5739d776c94f7f8a",
            "lllcversion" : "Version: 0.5.14-develop.2024.11.5+commit.b2b86751.mod.Linux.g++",
            "solidity" : "Version: 0.8.24+commit.e11b9ed9.Linux.g++",
            "source" : "src/GeneralStateTestsFiller/stRandom2/randomStatetest408Filler.json",
            "sourceHash" : "67b2342466487f6d392216c3715cb7aed16d95c6f59120207d573c58b9fe91ba"
        },
        "config" : {
            "blobSchedule" : {
                "Cancun" : {
                    "baseFeeUpdateFraction" : "0x32f0ed",
                    "max" : "0x06",
                    "target" : "0x03"
                },
                "Prague" : {
                    "baseFeeUpdateFraction" : "0x4c6964",
                    "max" : "0x09",
                    "target" : "0x06"
                }
            },
            "chainid" : "0x01"
        },
        "env" : {
            "currentBaseFee" : "0x0a",
            "currentCoinbase" : "Z945304eb96065b2a98b57a48a06ae28d285a71b5",
            "currentGasLimit" : "0x7fffffffffffffff",
            "currentNumber" : "0x01",
            "currentRandom" : "0x0000000000000000000000000000000000000000000000000000000000020000",
            "currentTimestamp" : "0x03e8"
        },
        "post" : {
            "Cancun" : [
                {
                    "hash" : "0x89644f6385499252bccfe82fc13cdac88e44f0c1f719e043808c9973edad0df6",
                    "indexes" : {
                        "data" : 0,
                        "gas" : 0,
                        "value" : 0
                    },
                    "logs" : "0x1dcc4de8dec75d7aab85b567b6ccd41ad312451b948a7413f0a142fd40d49347",
                    "state" : {
                        "0x095e7baea6a6c7c4c2dfeb977efac326af552d87" : {
                            "balance" : "0x63ad417f",
                            "code" : "0x7ffffffffffffffffffffffffffffffffffffffffffffffffffffffffffffffffe447f000000000000000000000000945304eb96065b2a98b57a48a06ae28d285a71b57fffffffffffffffffffffffffffffffffffffffffffffffffffffffffffffffff7f00000000000000000000000000000000000000000000000000000000000000017f000000000000000000000000000000000000000000000000000000000000c3507ffffffffffffffffffffffffffffffffffffffffffffffffffffffffffffffffe7f000000000000000000000000ffffffffffffffffffffffffffffffffffffffff6f80656e8e6478946a323482135a8bf75560005155",
                            "nonce" : "0x00",
                            "storage" : {
                                "0x00" : "0x80656e8e6478946a323482135a8bf755"
                            }
                        },
                        "0x945304eb96065b2a98b57a48a06ae28d285a71b5" : {
                            "balance" : "0x2e",
                            "code" : "0x6000355415600957005b60203560003555",
                            "nonce" : "0x00",
                            "storage" : {
                            }
                        },
                        "0xa94f5374fce5edbc8e2a8697c15331677e6ebf0b" : {
                            "balance" : "0x0de0b6b343afb663",
                            "code" : "0x",
                            "nonce" : "0x01",
                            "storage" : {
                            }
                        }
                    },
                    "txbytes" : "0xf9015e800a84735c9a8094095e7baea6a6c7c4c2dfeb977efac326af552d878463ad417fb8f87ffffffffffffffffffffffffffffffffffffffffffffffffffffffffffffffffe447f000000000000000000000000945304eb96065b2a98b57a48a06ae28d285a71b57fffffffffffffffffffffffffffffffffffffffffffffffffffffffffffffffff7f00000000000000000000000000000000000000000000000000000000000000017f000000000000000000000000000000000000000000000000000000000000c3507ffffffffffffffffffffffffffffffffffffffffffffffffffffffffffffffffe7f000000000000000000000000ffffffffffffffffffffffffffffffffffffffff6f80656e8e6478946a323482135a8bf71ba033eb5c9304c1d0ee43a4e8838f9437fe959f719c5e15b224b86318d0b97cb330a00eac2465305bd4f24ceda123366ce6246c58d4292cd8986d034314683f263fe7"
                }
            ],
            "Shanghai" : [
                {
                    "hash" : "0x89644f6385499252bccfe82fc13cdac88e44f0c1f719e043808c9973edad0df6",
                    "indexes" : {
                        "data" : 0,
                        "gas" : 0,
                        "value" : 0
                    },
                    "logs" : "0x1dcc4de8dec75d7aab85b567b6ccd41ad312451b948a7413f0a142fd40d49347",
                    "state" : {
                        "0x095e7baea6a6c7c4c2dfeb977efac326af552d87" : {
                            "balance" : "0x63ad417f",
                            "code" : "0x7ffffffffffffffffffffffffffffffffffffffffffffffffffffffffffffffffe447f000000000000000000000000945304eb96065b2a98b57a48a06ae28d285a71b57fffffffffffffffffffffffffffffffffffffffffffffffffffffffffffffffff7f00000000000000000000000000000000000000000000000000000000000000017f000000000000000000000000000000000000000000000000000000000000c3507ffffffffffffffffffffffffffffffffffffffffffffffffffffffffffffffffe7f000000000000000000000000ffffffffffffffffffffffffffffffffffffffff6f80656e8e6478946a323482135a8bf75560005155",
                            "nonce" : "0x00",
                            "storage" : {
                                "0x00" : "0x80656e8e6478946a323482135a8bf755"
                            }
                        },
                        "0x945304eb96065b2a98b57a48a06ae28d285a71b5" : {
                            "balance" : "0x2e",
                            "code" : "0x6000355415600957005b60203560003555",
                            "nonce" : "0x00",
                            "storage" : {
                            }
                        },
                        "0xa94f5374fce5edbc8e2a8697c15331677e6ebf0b" : {
                            "balance" : "0x0de0b6b343afb663",
                            "code" : "0x",
                            "nonce" : "0x01",
                            "storage" : {
                            }
                        }
                    },
                    "txbytes" : "0xf9015e800a84735c9a8094095e7baea6a6c7c4c2dfeb977efac326af552d878463ad417fb8f87ffffffffffffffffffffffffffffffffffffffffffffffffffffffffffffffffe447f000000000000000000000000945304eb96065b2a98b57a48a06ae28d285a71b57fffffffffffffffffffffffffffffffffffffffffffffffffffffffffffffffff7f00000000000000000000000000000000000000000000000000000000000000017f000000000000000000000000000000000000000000000000000000000000c3507ffffffffffffffffffffffffffffffffffffffffffffffffffffffffffffffffe7f000000000000000000000000ffffffffffffffffffffffffffffffffffffffff6f80656e8e6478946a323482135a8bf71ba033eb5c9304c1d0ee43a4e8838f9437fe959f719c5e15b224b86318d0b97cb330a00eac2465305bd4f24ceda123366ce6246c58d4292cd8986d034314683f263fe7"
                }
            ]
        },
        "pre" : {
            "Z095e7baea6a6c7c4c2dfeb977efac326af552d87" : {
                "balance" : "0x00",
                "code" : "0x7ffffffffffffffffffffffffffffffffffffffffffffffffffffffffffffffffe447f000000000000000000000000945304eb96065b2a98b57a48a06ae28d285a71b57fffffffffffffffffffffffffffffffffffffffffffffffffffffffffffffffff7f00000000000000000000000000000000000000000000000000000000000000017f000000000000000000000000000000000000000000000000000000000000c3507ffffffffffffffffffffffffffffffffffffffffffffffffffffffffffffffffe7f000000000000000000000000ffffffffffffffffffffffffffffffffffffffff6f80656e8e6478946a323482135a8bf75560005155",
                "nonce" : "0x00",
                "storage" : {
                }
            },
            "Z945304eb96065b2a98b57a48a06ae28d285a71b5" : {
                "balance" : "0x2e",
                "code" : "0x6000355415600957005b60203560003555",
                "nonce" : "0x00",
                "storage" : {
                }
            },
            "Za94f5374fce5edbc8e2a8697c15331677e6ebf0b" : {
                "balance" : "0x0de0b6b3a7640000",
                "code" : "0x",
                "nonce" : "0x00",
                "storage" : {
                }
            }
        },
        "transaction" : {
            "data" : [
                "0x7ffffffffffffffffffffffffffffffffffffffffffffffffffffffffffffffffe447f000000000000000000000000945304eb96065b2a98b57a48a06ae28d285a71b57fffffffffffffffffffffffffffffffffffffffffffffffffffffffffffffffff7f00000000000000000000000000000000000000000000000000000000000000017f000000000000000000000000000000000000000000000000000000000000c3507ffffffffffffffffffffffffffffffffffffffffffffffffffffffffffffffffe7f000000000000000000000000ffffffffffffffffffffffffffffffffffffffff6f80656e8e6478946a323482135a8bf7"
            ],
            "gasLimit" : [
                "0x735c9a80"
            ],
            "gasPrice" : "0x0a",
            "nonce" : "0x00",
            "secretKey" : "0x45a915e4d060149eb4365960e6a7a45f334393093061116b197e3240065ff2d8",
            "sender" : "Za94f5374fce5edbc8e2a8697c15331677e6ebf0b",
            "to" : "Z095e7baea6a6c7c4c2dfeb977efac326af552d87",
            "value" : [
                "0x63ad417f"
            ]
        }
    }
}