{
    "failed_tx_xcf416c53_Paris_d0g0v0_Cancun" : {
        "_info" : {
            "comment" : "",
            "filling-rpc-server" : "evmone-t8n 0.14.0-13+commit.4d363c36",
            "filling-tool-version" : "retesteth-0.3.2-legacy+commit.ca7f4c79.Linux.g++",
            "fixture-format" : "blockchain_test",
            "generatedTestHash" : "ccc3c19556fd6ff15cf68a5682ed5c7dc394be93383e50c6f8cd99afbe8b7e77",
            "lllcversion" : "Version: 0.5.14-develop.2024.11.5+commit.b2b86751.mod.Linux.g++",
            "hyperion" : "Version: 0.8.24+commit.e11b9ed9.Linux.g++",
            "source" : "src/GeneralStateTestsFiller/stSpecialTest/failed_tx_xcf416c53_ParisFiller.json",
            "sourceHash" : "fb8eebaa430b54e7f17c5dab8d11d78a3cca9cc02e2a1ccbf392a7356e34e12b"
        },
        "blocks" : [
            {
                "blockHeader" : {
                    "baseFeePerGas" : "0x0a",
                    "bloom" : "0x00000000000000000000000000000000000000000000000000000000000000000000000000000000000000000000000000000000000000000000000000000000000000000000000000000000000000000000000000000000000000000000000000000000000000000000000000000000000000000000000000000000000000000000000000000000000000000000000000000000000000000000000000000000000000000000000000000000000000000000000000000000000000000000000000000000000000000000000000000000000000000000000000000000000000000000000000000000000000000000000000000000000000000000000000000000",
                    "coinbase" : "0x68795c4aa09d6f4ed3e5deddf8c2ad3049a601da",
                    "extraData" : "0x00",
                    "gasLimit" : "0x0bebc200",
                    "gasUsed" : "0x1c81e9",
                    "hash" : "0xc9066c59658ba78d621006b132ad6386f69b40d1dcaa244335ba1f7929f99c2f",
                    "mixHash" : "0x0000000000000000000000000000000000000000000000000000000000020000",
                    "nonce" : "0x0000000000000000",
                    "number" : "0x01",
                    "parentHash" : "0x42e1fd8a212e9275eff3c915f75756e6dc7b7b5c7471c21abf89d6743ba099a9",
                    "receiptTrie" : "0x89e4fb24a0de1984532671cbbde374d4962de7110319f0f2b230146eb393f0c6",
                    "stateRoot" : "0xe518d01aed24565bf45b4c56933493877326baa69bf617b6f3b6ca55002dad14",
                    "timestamp" : "0x03e8",
                    "transactionsTrie" : "0xbc8d11625ad3004f4f63123d0efd97b7798ba258b68eb313e9aadd87f5594291",
                    "withdrawalsRoot" : "0x56e81f171bcc55a6ff8345e692c0f86e5b48e01b996cadc001622fb5e363b421"
                },
                "rlp" : "0xf902e9f9023ba042e1fd8a212e9275eff3c915f75756e6dc7b7b5c7471c21abf89d6743ba099a9a01dcc4de8dec75d7aab85b567b6ccd41ad312451b948a7413f0a142fd40d493479468795c4aa09d6f4ed3e5deddf8c2ad3049a601daa0e518d01aed24565bf45b4c56933493877326baa69bf617b6f3b6ca55002dad14a0bc8d11625ad3004f4f63123d0efd97b7798ba258b68eb313e9aadd87f5594291a089e4fb24a0de1984532671cbbde374d4962de7110319f0f2b230146eb393f0c6b90100000000000000000000000000000000000000000000000000000000000000000000000000000000000000000000000000000000000000000000000000000000000000000000000000000000000000000000000000000000000000000000000000000000000000000000000000000000000000000000000000000000000000000000000000000000000000000000000000000000000000000000000000000000000000000000000000000000000000000000000000000000000000000000000000000000000000000000000000000000000000000000000000000000000000000000000000000000000000000000000000000000000000000000000000000000008001840bebc200831c81e98203e800a000000000000000000000000000000000000000000000000000000000000200008800000000000000000aa056e81f171bcc55a6ff8345e692c0f86e5b48e01b996cadc001622fb5e363b4218080a00000000000000000000000000000000000000000000000000000000000000000f8a7f8a5010a83f8b7e0940e879ae28cdddeb31a405a9db354505a5560b0bd80b84497dd3054000000000000000000000000000000000000000000000000000000000000000000000000000000000000000000000000000000000000000000000000000002bc1ca0c7168521175d9b3646f818d187da084790eb4353e0a01fe9beecd2e280a08fd7a0416e5ea499289dbf68e105e6c4f2881a2b87b73eca68a47b52d3476bf98a536bc0c0",
                "transactions" : [
                    {
                        "data" : "0x97dd3054000000000000000000000000000000000000000000000000000000000000000000000000000000000000000000000000000000000000000000000000000002bc",
                        "gasLimit" : "0xf8b7e0",
                        "gasPrice" : "0x0a",
                        "nonce" : "0x01",
                        "r" : "0xc7168521175d9b3646f818d187da084790eb4353e0a01fe9beecd2e280a08fd7",
                        "s" : "0x416e5ea499289dbf68e105e6c4f2881a2b87b73eca68a47b52d3476bf98a536b",
                        "sender" : "0xa94f5374fce5edbc8e2a8697c15331677e6ebf0b",
                        "to" : "0x0e879ae28cdddeb31a405a9db354505a5560b0bd",
                        "v" : "0x1c",
                        "value" : "0x00"
                    }
                ],

                "withdrawals" : [
                ]
            }
        ],
        "config" : {
            "blobSchedule" : {
                "Cancun" : {
                    "baseFeeUpdateFraction" : "0x32f0ed",
                    "max" : "0x06",
                    "target" : "0x03"
                }
            },
            "chainid" : "0x01",
            "network" : "Cancun"
        },
        "genesisBlockHeader" : {
            "baseFeePerGas" : "0x0b",
            "bloom" : "0x00000000000000000000000000000000000000000000000000000000000000000000000000000000000000000000000000000000000000000000000000000000000000000000000000000000000000000000000000000000000000000000000000000000000000000000000000000000000000000000000000000000000000000000000000000000000000000000000000000000000000000000000000000000000000000000000000000000000000000000000000000000000000000000000000000000000000000000000000000000000000000000000000000000000000000000000000000000000000000000000000000000000000000000000000000000",
            "coinbase" : "0x68795c4aa09d6f4ed3e5deddf8c2ad3049a601da",
            "extraData" : "0x00",
            "gasLimit" : "0x0bebc200",
            "gasUsed" : "0x00",
            "hash" : "0x42e1fd8a212e9275eff3c915f75756e6dc7b7b5c7471c21abf89d6743ba099a9",
            "mixHash" : "0x0000000000000000000000000000000000000000000000000000000000020000",
            "nonce" : "0x0000000000000000",
            "number" : "0x00",
            "parentHash" : "0x0000000000000000000000000000000000000000000000000000000000000000",
            "receiptTrie" : "0x56e81f171bcc55a6ff8345e692c0f86e5b48e01b996cadc001622fb5e363b421",
            "stateRoot" : "0x6dc508293cf47a0002614aab01bedca2e3bd1a6a09ed269d0d8afff2f5b084a0",
            "timestamp" : "0x00",
            "transactionsTrie" : "0x56e81f171bcc55a6ff8345e692c0f86e5b48e01b996cadc001622fb5e363b421",
            "withdrawalsRoot" : "0x56e81f171bcc55a6ff8345e692c0f86e5b48e01b996cadc001622fb5e363b421"
        },
        "genesisRLP" : "0xf9023ff90239a00000000000000000000000000000000000000000000000000000000000000000a01dcc4de8dec75d7aab85b567b6ccd41ad312451b948a7413f0a142fd40d493479468795c4aa09d6f4ed3e5deddf8c2ad3049a601daa06dc508293cf47a0002614aab01bedca2e3bd1a6a09ed269d0d8afff2f5b084a0a056e81f171bcc55a6ff8345e692c0f86e5b48e01b996cadc001622fb5e363b421a056e81f171bcc55a6ff8345e692c0f86e5b48e01b996cadc001622fb5e363b421b90100000000000000000000000000000000000000000000000000000000000000000000000000000000000000000000000000000000000000000000000000000000000000000000000000000000000000000000000000000000000000000000000000000000000000000000000000000000000000000000000000000000000000000000000000000000000000000000000000000000000000000000000000000000000000000000000000000000000000000000000000000000000000000000000000000000000000000000000000000000000000000000000000000000000000000000000000000000000000000000000000000000000000000000000000000000008080840bebc200808000a000000000000000000000000000000000000000000000000000000000000200008800000000000000000ba056e81f171bcc55a6ff8345e692c0f86e5b48e01b996cadc001622fb5e363b4218083060000a00000000000000000000000000000000000000000000000000000000000000000c0c0c0",
        "lastblockhash" : "0xc9066c59658ba78d621006b132ad6386f69b40d1dcaa244335ba1f7929f99c2f",
        "network" : "Cancun",
        "postState" : {
            "0x0000000000000000000000000000000000000003" : {
                "balance" : "0x0a",
                "code" : "0x",
                "nonce" : "0x00",
                "storage" : {
                }
            },
            "0x000f3df6d732807ef1319fb7b8bb8522d0beac02" : {
                "balance" : "0x00",
                "code" : "0x3373fffffffffffffffffffffffffffffffffffffffe14604d57602036146024575f5ffd5b5f35801560495762001fff810690815414603c575f5ffd5b62001fff01545f5260205ff35b5f5ffd5b62001fff42064281555f359062001fff015500",
                "nonce" : "0x01",
                "storage" : {
                    "0x03e8" : "0x03e8"
                }
            },
            "0x0e879ae28cdddeb31a405a9db354505a5560b0bd" : {
                "balance" : "0x00",
                "code" : "0x7c0100000000000000000000000000000000000000000000000000000000600035046397dd3054811415610065576004356040526024356060526040516060515b808212156100625760006000600060006000866000f150600182019150610040565b50505b50",
                "nonce" : "0x00",
                "storage" : {
                }
            },
            "0xa94f5374fce5edbc8e2a8697c15331677e6ebf0b" : {
                "balance" : "0x0de0b6b3a646ece6",
                "code" : "0x",
                "nonce" : "0x02",
                "storage" : {
                }
            }
        },
        "pre" : {
            "0x0000000000000000000000000000000000000003" : {
                "balance" : "0x0a",
                "code" : "0x",
                "nonce" : "0x00",
                "storage" : {
                }
            },
            "0x000f3df6d732807ef1319fb7b8bb8522d0beac02" : {
                "balance" : "0x00",
                "code" : "0x3373fffffffffffffffffffffffffffffffffffffffe14604d57602036146024575f5ffd5b5f35801560495762001fff810690815414603c575f5ffd5b62001fff01545f5260205ff35b5f5ffd5b62001fff42064281555f359062001fff015500",
                "nonce" : "0x01",
                "storage" : {
                }
            },
            "0x0e879ae28cdddeb31a405a9db354505a5560b0bd" : {
                "balance" : "0x00",
                "code" : "0x7c0100000000000000000000000000000000000000000000000000000000600035046397dd3054811415610065576004356040526024356060526040516060515b808212156100625760006000600060006000866000f150600182019150610040565b50505b50",
                "nonce" : "0x00",
                "storage" : {
                }
            },
            "0xa94f5374fce5edbc8e2a8697c15331677e6ebf0b" : {
                "balance" : "0x0de0b6b3a7640000",
                "code" : "0x",
                "nonce" : "0x01",
                "storage" : {
                }
            }
        },
        "sealEngine" : "NoProof"
    },
    "failed_tx_xcf416c53_Paris_d0g0v0_Prague" : {
        "_info" : {
            "comment" : "",
            "filling-rpc-server" : "evmone-t8n 0.14.0-13+commit.4d363c36",
            "filling-tool-version" : "retesteth-0.3.2-legacy+commit.ca7f4c79.Linux.g++",
            "fixture-format" : "blockchain_test",
            "generatedTestHash" : "711c6d7f1fa54faeb40bac369dfab920e2a224d2c637a9c19b7dcbc6770fd0bc",
            "lllcversion" : "Version: 0.5.14-develop.2024.11.5+commit.b2b86751.mod.Linux.g++",
            "hyperion" : "Version: 0.8.24+commit.e11b9ed9.Linux.g++",
            "source" : "src/GeneralStateTestsFiller/stSpecialTest/failed_tx_xcf416c53_ParisFiller.json",
            "sourceHash" : "fb8eebaa430b54e7f17c5dab8d11d78a3cca9cc02e2a1ccbf392a7356e34e12b"
        },
        "blocks" : [
            {
                "blockHeader" : {
                    "baseFeePerGas" : "0x0a",
                    "bloom" : "0x00000000000000000000000000000000000000000000000000000000000000000000000000000000000000000000000000000000000000000000000000000000000000000000000000000000000000000000000000000000000000000000000000000000000000000000000000000000000000000000000000000000000000000000000000000000000000000000000000000000000000000000000000000000000000000000000000000000000000000000000000000000000000000000000000000000000000000000000000000000000000000000000000000000000000000000000000000000000000000000000000000000000000000000000000000000",
                    "coinbase" : "0x68795c4aa09d6f4ed3e5deddf8c2ad3049a601da",
                    "extraData" : "0x00",
                    "gasLimit" : "0x0bebc200",
                    "gasUsed" : "0x1c3d8d",
                    "hash" : "0xfa642f4f0958232fac14352526a92edbee90574817b37b0725b539af6eeecf50",
                    "mixHash" : "0x0000000000000000000000000000000000000000000000000000000000020000",
                    "nonce" : "0x0000000000000000",
                    "number" : "0x01",
                    "parentHash" : "0x8f997c65744c1e2232bbaab71a4001d71f3782247cb91727f7d80219c085e093",
                    "receiptTrie" : "0xd69bf7e828be9489deca92d49cda0f10f86a8d1aa3d8a11adc363f427ac9b2cc",
                    "requestsHash" : "0xe3b0c44298fc1c149afbf4c8996fb92427ae41e4649b934ca495991b7852b855",
                    "stateRoot" : "0x7d15befb39412c4aa9171943aec94c7920aac019770e0889427fee2de2a9f549",
                    "timestamp" : "0x03e8",
                    "transactionsTrie" : "0xbc8d11625ad3004f4f63123d0efd97b7798ba258b68eb313e9aadd87f5594291",
                    "withdrawalsRoot" : "0x56e81f171bcc55a6ff8345e692c0f86e5b48e01b996cadc001622fb5e363b421"
                },
                "rlp" : "0xf9030af9025ca08f997c65744c1e2232bbaab71a4001d71f3782247cb91727f7d80219c085e093a01dcc4de8dec75d7aab85b567b6ccd41ad312451b948a7413f0a142fd40d493479468795c4aa09d6f4ed3e5deddf8c2ad3049a601daa07d15befb39412c4aa9171943aec94c7920aac019770e0889427fee2de2a9f549a0bc8d11625ad3004f4f63123d0efd97b7798ba258b68eb313e9aadd87f5594291a0d69bf7e828be9489deca92d49cda0f10f86a8d1aa3d8a11adc363f427ac9b2ccb90100000000000000000000000000000000000000000000000000000000000000000000000000000000000000000000000000000000000000000000000000000000000000000000000000000000000000000000000000000000000000000000000000000000000000000000000000000000000000000000000000000000000000000000000000000000000000000000000000000000000000000000000000000000000000000000000000000000000000000000000000000000000000000000000000000000000000000000000000000000000000000000000000000000000000000000000000000000000000000000000000000000000000000000000000000000008001840bebc200831c3d8d8203e800a000000000000000000000000000000000000000000000000000000000000200008800000000000000000aa056e81f171bcc55a6ff8345e692c0f86e5b48e01b996cadc001622fb5e363b4218080a00000000000000000000000000000000000000000000000000000000000000000a0e3b0c44298fc1c149afbf4c8996fb92427ae41e4649b934ca495991b7852b855f8a7f8a5010a83f8b7e0940e879ae28cdddeb31a405a9db354505a5560b0bd80b84497dd3054000000000000000000000000000000000000000000000000000000000000000000000000000000000000000000000000000000000000000000000000000002bc1ca0c7168521175d9b3646f818d187da084790eb4353e0a01fe9beecd2e280a08fd7a0416e5ea499289dbf68e105e6c4f2881a2b87b73eca68a47b52d3476bf98a536bc0c0",
                "transactions" : [
                    {
                        "data" : "0x97dd3054000000000000000000000000000000000000000000000000000000000000000000000000000000000000000000000000000000000000000000000000000002bc",
                        "gasLimit" : "0xf8b7e0",
                        "gasPrice" : "0x0a",
                        "nonce" : "0x01",
                        "r" : "0xc7168521175d9b3646f818d187da084790eb4353e0a01fe9beecd2e280a08fd7",
                        "s" : "0x416e5ea499289dbf68e105e6c4f2881a2b87b73eca68a47b52d3476bf98a536b",
                        "sender" : "0xa94f5374fce5edbc8e2a8697c15331677e6ebf0b",
                        "to" : "0x0e879ae28cdddeb31a405a9db354505a5560b0bd",
                        "v" : "0x1c",
                        "value" : "0x00"
                    }
                ],

                "withdrawals" : [
                ]
            }
        ],
        "config" : {
            "blobSchedule" : {
                "Prague" : {
                    "baseFeeUpdateFraction" : "0x4c6964",
                    "max" : "0x09",
                    "target" : "0x06"
                }
            },
            "chainid" : "0x01",
            "network" : "Prague"
        },
        "genesisBlockHeader" : {
            "baseFeePerGas" : "0x0b",
            "bloom" : "0x00000000000000000000000000000000000000000000000000000000000000000000000000000000000000000000000000000000000000000000000000000000000000000000000000000000000000000000000000000000000000000000000000000000000000000000000000000000000000000000000000000000000000000000000000000000000000000000000000000000000000000000000000000000000000000000000000000000000000000000000000000000000000000000000000000000000000000000000000000000000000000000000000000000000000000000000000000000000000000000000000000000000000000000000000000000",
            "coinbase" : "0x68795c4aa09d6f4ed3e5deddf8c2ad3049a601da",
            "extraData" : "0x00",
            "gasLimit" : "0x0bebc200",
            "gasUsed" : "0x00",
            "hash" : "0x8f997c65744c1e2232bbaab71a4001d71f3782247cb91727f7d80219c085e093",
            "mixHash" : "0x0000000000000000000000000000000000000000000000000000000000020000",
            "nonce" : "0x0000000000000000",
            "number" : "0x00",
            "parentHash" : "0x0000000000000000000000000000000000000000000000000000000000000000",
            "receiptTrie" : "0x56e81f171bcc55a6ff8345e692c0f86e5b48e01b996cadc001622fb5e363b421",
            "requestsHash" : "0xe3b0c44298fc1c149afbf4c8996fb92427ae41e4649b934ca495991b7852b855",
            "stateRoot" : "0x9647caa4e4158aff919830e2b22875876b3c8e63974794f859a9653a29adb15c",
            "timestamp" : "0x00",
            "transactionsTrie" : "0x56e81f171bcc55a6ff8345e692c0f86e5b48e01b996cadc001622fb5e363b421",
            "withdrawalsRoot" : "0x56e81f171bcc55a6ff8345e692c0f86e5b48e01b996cadc001622fb5e363b421"
        },
        "genesisRLP" : "0xf90260f9025aa00000000000000000000000000000000000000000000000000000000000000000a01dcc4de8dec75d7aab85b567b6ccd41ad312451b948a7413f0a142fd40d493479468795c4aa09d6f4ed3e5deddf8c2ad3049a601daa09647caa4e4158aff919830e2b22875876b3c8e63974794f859a9653a29adb15ca056e81f171bcc55a6ff8345e692c0f86e5b48e01b996cadc001622fb5e363b421a056e81f171bcc55a6ff8345e692c0f86e5b48e01b996cadc001622fb5e363b421b90100000000000000000000000000000000000000000000000000000000000000000000000000000000000000000000000000000000000000000000000000000000000000000000000000000000000000000000000000000000000000000000000000000000000000000000000000000000000000000000000000000000000000000000000000000000000000000000000000000000000000000000000000000000000000000000000000000000000000000000000000000000000000000000000000000000000000000000000000000000000000000000000000000000000000000000000000000000000000000000000000000000000000000000000000000000008080840bebc200808000a000000000000000000000000000000000000000000000000000000000000200008800000000000000000ba056e81f171bcc55a6ff8345e692c0f86e5b48e01b996cadc001622fb5e363b4218083060000a00000000000000000000000000000000000000000000000000000000000000000a0e3b0c44298fc1c149afbf4c8996fb92427ae41e4649b934ca495991b7852b855c0c0c0",
        "lastblockhash" : "0xfa642f4f0958232fac14352526a92edbee90574817b37b0725b539af6eeecf50",
        "network" : "Prague",
        "postState" : {
            "0x0000000000000000000000000000000000000003" : {
                "balance" : "0x0a",
                "code" : "0x",
                "nonce" : "0x00",
                "storage" : {
                }
            },
            "0x0000f90827f1c53a10cb7a02335b175320002935" : {
                "balance" : "0x00",
                "code" : "0x3373fffffffffffffffffffffffffffffffffffffffe14604657602036036042575f35600143038111604257611fff81430311604257611fff9006545f5260205ff35b5f5ffd5b5f35611fff60014303065500",
                "nonce" : "0x01",
                "storage" : {
                    "0x00" : "0x8f997c65744c1e2232bbaab71a4001d71f3782247cb91727f7d80219c085e093"
                }
            },
            "0x000f3df6d732807ef1319fb7b8bb8522d0beac02" : {
                "balance" : "0x00",
                "code" : "0x3373fffffffffffffffffffffffffffffffffffffffe14604d57602036146024575f5ffd5b5f35801560495762001fff810690815414603c575f5ffd5b62001fff01545f5260205ff35b5f5ffd5b62001fff42064281555f359062001fff015500",
                "nonce" : "0x01",
                "storage" : {
                    "0x03e8" : "0x03e8"
                }
            },
            "0x0e879ae28cdddeb31a405a9db354505a5560b0bd" : {
                "balance" : "0x00",
                "code" : "0x7c0100000000000000000000000000000000000000000000000000000000600035046397dd3054811415610065576004356040526024356060526040516060515b808212156100625760006000600060006000866000f150600182019150610040565b50505b50",
                "nonce" : "0x00",
                "storage" : {
                }
            },
            "0xa94f5374fce5edbc8e2a8697c15331677e6ebf0b" : {
                "balance" : "0x0de0b6b3a649987e",
                "code" : "0x",
                "nonce" : "0x02",
                "storage" : {
                }
            }
        },
        "pre" : {
            "0x0000000000000000000000000000000000000003" : {
                "balance" : "0x0a",
                "code" : "0x",
                "nonce" : "0x00",
                "storage" : {
                }
            },
            "0x0000f90827f1c53a10cb7a02335b175320002935" : {
                "balance" : "0x00",
                "code" : "0x3373fffffffffffffffffffffffffffffffffffffffe14604657602036036042575f35600143038111604257611fff81430311604257611fff9006545f5260205ff35b5f5ffd5b5f35611fff60014303065500",
                "nonce" : "0x01",
                "storage" : {
                }
            },
            "0x000f3df6d732807ef1319fb7b8bb8522d0beac02" : {
                "balance" : "0x00",
                "code" : "0x3373fffffffffffffffffffffffffffffffffffffffe14604d57602036146024575f5ffd5b5f35801560495762001fff810690815414603c575f5ffd5b62001fff01545f5260205ff35b5f5ffd5b62001fff42064281555f359062001fff015500",
                "nonce" : "0x01",
                "storage" : {
                }
            },
            "0x0e879ae28cdddeb31a405a9db354505a5560b0bd" : {
                "balance" : "0x00",
                "code" : "0x7c0100000000000000000000000000000000000000000000000000000000600035046397dd3054811415610065576004356040526024356060526040516060515b808212156100625760006000600060006000866000f150600182019150610040565b50505b50",
                "nonce" : "0x00",
                "storage" : {
                }
            },
            "0xa94f5374fce5edbc8e2a8697c15331677e6ebf0b" : {
                "balance" : "0x0de0b6b3a7640000",
                "code" : "0x",
                "nonce" : "0x01",
                "storage" : {
                }
            }
        },
        "sealEngine" : "NoProof"
    }
}