{
    "selfdestructEIP2929_d0g0v0_Cancun" : {
        "_info" : {
            "comment" : "Martin: @tkstanczak requested a state-test regarding selfdestructs in relation to EIP-2929. I made one, which tests different variants of hot/cold accounts, and even precompile beneficiaries. https://github.com/holiman/goevmlab/blob/selfdestruct_2929/examples/selfdestruct_2929/main.go#L94",
            "filling-rpc-server" : "evmone-t8n 0.14.0-13+commit.4d363c36",
            "filling-tool-version" : "retesteth-0.3.2-legacy+commit.ca7f4c79.Linux.g++",
            "fixture-format" : "blockchain_test",
            "generatedTestHash" : "6a0d3969ba44baa7c68e32eef92fe054119f703acb42acb511eb454b0be8edfc",
            "lllcversion" : "Version: 0.5.14-develop.2024.11.5+commit.b2b86751.mod.Linux.g++",
            "solidity" : "Version: 0.8.24+commit.e11b9ed9.Linux.g++",
            "source" : "src/GeneralStateTestsFiller/stSpecialTest/selfdestructEIP2929Filler.json",
            "sourceHash" : "79d608a36dbc6baad46c87cd808d652fbef511a3d3d384e4b62181e46af74f8b"
        },
        "blocks" : [
            {
                "blockHeader" : {
                    "baseFeePerGas" : "0x0a",
                    "blobGasUsed" : "0x00",
                    "bloom" : "0x00000000000000000000000000000000000000000000000000000000000000000000000000000000000000000000000000000000000000000000000000000000000000000000000000000000000000000000000000000000000000000000000000000000000000000000000000000000000000000000000000000000000000000000000000000000000000000000000000000000000000000000000000000000000000000000000000000000000000000000000000000000000000000000000000000000000000000000000000000000000000000000000000000000000000000000000000000000000000000000000000000000000000000000000000000000",
                    "coinbase" : "0xb94f5374fce5edbc8e2a8697c15331677e6ebf0b",
                    "difficulty" : "0x00",
                    "excessBlobGas" : "0x00",
                    "extraData" : "0x00",
                    "gasLimit" : "0x26e1f476fe1e22",
                    "gasUsed" : "0x01e09d",
                    "hash" : "0x7ab57f0f8c0a6e5e38bbfd3833de2c6b036af2c08f41096702f5d4ed514c0577",
                    "mixHash" : "0x0000000000000000000000000000000000000000000000000000000000020000",
                    "nonce" : "0x0000000000000000",
                    "number" : "0x01",
                    "parentBeaconBlockRoot" : "0x0000000000000000000000000000000000000000000000000000000000000000",
                    "parentHash" : "0xa4fa051dc1f0838253f7a165153169258bec1a663a531c18722ce1db49cca2fe",
                    "receiptTrie" : "0x53a9cc957901fb44f94253b2a2f80a34405405ae16fb881cf010b28c942884db",
                    "stateRoot" : "0x8a296c2a07c3fa42ce7e9e76e1abb282298936d88fb2f412d600c18eb6288fdd",
                    "timestamp" : "0x03e8",
                    "transactionsTrie" : "0x4f1506d0fbbcbc390d81c14dd130285862335028156f29b243cd0bb21b70296a",
                    "uncleHash" : "0x1dcc4de8dec75d7aab85b567b6ccd41ad312451b948a7413f0a142fd40d49347",
                    "withdrawalsRoot" : "0x56e81f171bcc55a6ff8345e692c0f86e5b48e01b996cadc001622fb5e363b421"
                },
                "rlp" : "0xf902a7f9023ea0a4fa051dc1f0838253f7a165153169258bec1a663a531c18722ce1db49cca2fea01dcc4de8dec75d7aab85b567b6ccd41ad312451b948a7413f0a142fd40d4934794b94f5374fce5edbc8e2a8697c15331677e6ebf0ba08a296c2a07c3fa42ce7e9e76e1abb282298936d88fb2f412d600c18eb6288fdda04f1506d0fbbcbc390d81c14dd130285862335028156f29b243cd0bb21b70296aa053a9cc957901fb44f94253b2a2f80a34405405ae16fb881cf010b28c942884dbb901000000000000000000000000000000000000000000000000000000000000000000000000000000000000000000000000000000000000000000000000000000000000000000000000000000000000000000000000000000000000000000000000000000000000000000000000000000000000000000000000000000000000000000000000000000000000000000000000000000000000000000000000000000000000000000000000000000000000000000000000000000000000000000000000000000000000000000000000000000000000000000000000000000000000000000000000000000000000000000000000000000000000000000000000000000000080018726e1f476fe1e228301e09d8203e800a000000000000000000000000000000000000000000000000000000000000200008800000000000000000aa056e81f171bcc55a6ff8345e692c0f86e5b48e01b996cadc001622fb5e363b4218080a00000000000000000000000000000000000000000000000000000000000000000f862f860800a837a120094000000000000000000000000000000000000c41180801ba0ae5df8f4eecd8f8e17f7629ca1afc2c3d17d472d00c43b01f5bcae355171d931a036135f53a87fe3acbf7a588ca1cfd1b69cfe82f122404abedef18b0a779053b6c0c0",
                "transactions" : [
                    {
                        "data" : "0x",
                        "gasLimit" : "0x7a1200",
                        "gasPrice" : "0x0a",
                        "nonce" : "0x00",
                        "r" : "0xae5df8f4eecd8f8e17f7629ca1afc2c3d17d472d00c43b01f5bcae355171d931",
                        "s" : "0x36135f53a87fe3acbf7a588ca1cfd1b69cfe82f122404abedef18b0a779053b6",
                        "sender" : "0xa94f5374fce5edbc8e2a8697c15331677e6ebf0b",
                        "to" : "0x000000000000000000000000000000000000c411",
                        "v" : "0x1b",
                        "value" : "0x00"
                    }
                ],
                "uncleHeaders" : [
                ],
                "withdrawals" : [
                ]
            }
        ],
        "config" : {
            "blobSchedule" : {
                "Cancun" : {
                    "baseFeeUpdateFraction" : "0x32f0ed",
                    "max" : "0x06",
                    "target" : "0x03"
                }
            },
            "chainid" : "0x01",
            "network" : "Cancun"
        },
        "genesisBlockHeader" : {
            "baseFeePerGas" : "0x0b",
            "blobGasUsed" : "0x00",
            "bloom" : "0x00000000000000000000000000000000000000000000000000000000000000000000000000000000000000000000000000000000000000000000000000000000000000000000000000000000000000000000000000000000000000000000000000000000000000000000000000000000000000000000000000000000000000000000000000000000000000000000000000000000000000000000000000000000000000000000000000000000000000000000000000000000000000000000000000000000000000000000000000000000000000000000000000000000000000000000000000000000000000000000000000000000000000000000000000000000",
            "coinbase" : "0xb94f5374fce5edbc8e2a8697c15331677e6ebf0b",
            "difficulty" : "0x00",
            "excessBlobGas" : "0x060000",
            "extraData" : "0x00",
            "gasLimit" : "0x26e1f476fe1e22",
            "gasUsed" : "0x00",
            "hash" : "0xa4fa051dc1f0838253f7a165153169258bec1a663a531c18722ce1db49cca2fe",
            "mixHash" : "0x0000000000000000000000000000000000000000000000000000000000020000",
            "nonce" : "0x0000000000000000",
            "number" : "0x00",
            "parentBeaconBlockRoot" : "0x0000000000000000000000000000000000000000000000000000000000000000",
            "parentHash" : "0x0000000000000000000000000000000000000000000000000000000000000000",
            "receiptTrie" : "0x56e81f171bcc55a6ff8345e692c0f86e5b48e01b996cadc001622fb5e363b421",
            "stateRoot" : "0xd8585b24c758be18637743772cb52e4efe16d5a21d496b90a6ca13d2cc101996",
            "timestamp" : "0x00",
            "transactionsTrie" : "0x56e81f171bcc55a6ff8345e692c0f86e5b48e01b996cadc001622fb5e363b421",
            "uncleHash" : "0x1dcc4de8dec75d7aab85b567b6ccd41ad312451b948a7413f0a142fd40d49347",
            "withdrawalsRoot" : "0x56e81f171bcc55a6ff8345e692c0f86e5b48e01b996cadc001622fb5e363b421"
        },
        "genesisRLP" : "0xf90242f9023ca00000000000000000000000000000000000000000000000000000000000000000a01dcc4de8dec75d7aab85b567b6ccd41ad312451b948a7413f0a142fd40d4934794b94f5374fce5edbc8e2a8697c15331677e6ebf0ba0d8585b24c758be18637743772cb52e4efe16d5a21d496b90a6ca13d2cc101996a056e81f171bcc55a6ff8345e692c0f86e5b48e01b996cadc001622fb5e363b421a056e81f171bcc55a6ff8345e692c0f86e5b48e01b996cadc001622fb5e363b421b901000000000000000000000000000000000000000000000000000000000000000000000000000000000000000000000000000000000000000000000000000000000000000000000000000000000000000000000000000000000000000000000000000000000000000000000000000000000000000000000000000000000000000000000000000000000000000000000000000000000000000000000000000000000000000000000000000000000000000000000000000000000000000000000000000000000000000000000000000000000000000000000000000000000000000000000000000000000000000000000000000000000000000000000000000000000080808726e1f476fe1e22808000a000000000000000000000000000000000000000000000000000000000000200008800000000000000000ba056e81f171bcc55a6ff8345e692c0f86e5b48e01b996cadc001622fb5e363b4218083060000a00000000000000000000000000000000000000000000000000000000000000000c0c0c0",
        "lastblockhash" : "0x7ab57f0f8c0a6e5e38bbfd3833de2c6b036af2c08f41096702f5d4ed514c0577",
        "network" : "Cancun",
        "postState" : {
            "0x00000000000000000000000000000000000000aa" : {
                "balance" : "0x01",
                "code" : "0x",
                "nonce" : "0x01",
                "storage" : {
                }
            },
            "0x00000000000000000000000000000000000000cc" : {
                "balance" : "0x00",
                "code" : "0x",
                "nonce" : "0x01",
                "storage" : {
                }
            },
            "0x000000000000000000000000000000000000c411" : {
                "balance" : "0x01",
                "code" : "0x6000600060006000600060cc6000f1506000600060006000600060dd6000f1506000600060006000600060036000f15060aa6000526000600060206000600061dead5af15060aa6000526000600060206000600061dead5af15060bb6000526000600060206000600061dead5af15060bb6000526000600060206000600061dead5af15060cc6000526000600060206000600061dead5af15060cc6000526000600060206000600061dead5af15060dd6000526000600060206000600061dead5af15060dd6000526000600060206000600061dead5af15060016000526000600060206000600061dead5af15060016000526000600060206000600061dead5af15060026000526000600060206000600061dead5af15060026000526000600060206000600061dead5af15060036000526000600060206000600061dead5af1506001600155",
                "nonce" : "0x01",
                "storage" : {
                    "0x01" : "0x01"
                }
            },
            "0x000000000000000000000000000000000000dead" : {
                "balance" : "0x00",
                "code" : "0x60003574ffffffffffffffffffffffffffffffffffffffffff16ff",
                "nonce" : "0x01",
                "storage" : {
                }
            },
            "0x000f3df6d732807ef1319fb7b8bb8522d0beac02" : {
                "balance" : "0x00",
                "code" : "0x3373fffffffffffffffffffffffffffffffffffffffe14604d57602036146024575f5ffd5b5f35801560495762001fff810690815414603c575f5ffd5b62001fff01545f5260205ff35b5f5ffd5b62001fff42064281555f359062001fff015500",
                "nonce" : "0x01",
                "storage" : {
                    "0x03e8" : "0x03e8"
                }
            },
            "0xa94f5374fce5edbc8e2a8697c15331677e6ebf0b" : {
                "balance" : "0x0de0b6b3a75139de",
                "code" : "0x",
                "nonce" : "0x01",
                "storage" : {
                }
            }
        },
        "pre" : {
            "0x00000000000000000000000000000000000000aa" : {
                "balance" : "0x00",
                "code" : "0x",
                "nonce" : "0x01",
                "storage" : {
                }
            },
            "0x00000000000000000000000000000000000000cc" : {
                "balance" : "0x00",
                "code" : "0x",
                "nonce" : "0x01",
                "storage" : {
                }
            },
            "0x000000000000000000000000000000000000c411" : {
                "balance" : "0x01",
                "code" : "0x6000600060006000600060cc6000f1506000600060006000600060dd6000f1506000600060006000600060036000f15060aa6000526000600060206000600061dead5af15060aa6000526000600060206000600061dead5af15060bb6000526000600060206000600061dead5af15060bb6000526000600060206000600061dead5af15060cc6000526000600060206000600061dead5af15060cc6000526000600060206000600061dead5af15060dd6000526000600060206000600061dead5af15060dd6000526000600060206000600061dead5af15060016000526000600060206000600061dead5af15060016000526000600060206000600061dead5af15060026000526000600060206000600061dead5af15060026000526000600060206000600061dead5af15060036000526000600060206000600061dead5af1506001600155",
                "nonce" : "0x01",
                "storage" : {
                }
            },
            "0x000000000000000000000000000000000000dead" : {
                "balance" : "0x01",
                "code" : "0x60003574ffffffffffffffffffffffffffffffffffffffffff16ff",
                "nonce" : "0x01",
                "storage" : {
                }
            },
            "0x000f3df6d732807ef1319fb7b8bb8522d0beac02" : {
                "balance" : "0x00",
                "code" : "0x3373fffffffffffffffffffffffffffffffffffffffe14604d57602036146024575f5ffd5b5f35801560495762001fff810690815414603c575f5ffd5b62001fff01545f5260205ff35b5f5ffd5b62001fff42064281555f359062001fff015500",
                "nonce" : "0x01",
                "storage" : {
                }
            },
            "0xa94f5374fce5edbc8e2a8697c15331677e6ebf0b" : {
                "balance" : "0x0de0b6b3a7640000",
                "code" : "0x",
                "nonce" : "0x00",
                "storage" : {
                }
            }
        },
        "sealEngine" : "NoProof"
    },
    "selfdestructEIP2929_d0g0v0_Prague" : {
        "_info" : {
            "comment" : "Martin: @tkstanczak requested a state-test regarding selfdestructs in relation to EIP-2929. I made one, which tests different variants of hot/cold accounts, and even precompile beneficiaries. https://github.com/holiman/goevmlab/blob/selfdestruct_2929/examples/selfdestruct_2929/main.go#L94",
            "filling-rpc-server" : "evmone-t8n 0.14.0-13+commit.4d363c36",
            "filling-tool-version" : "retesteth-0.3.2-legacy+commit.ca7f4c79.Linux.g++",
            "fixture-format" : "blockchain_test",
            "generatedTestHash" : "9a8b2e5f7a929dd2409d9824831d092be19938a81f01a2e8d2d09e9cd6a35739",
            "lllcversion" : "Version: 0.5.14-develop.2024.11.5+commit.b2b86751.mod.Linux.g++",
            "solidity" : "Version: 0.8.24+commit.e11b9ed9.Linux.g++",
            "source" : "src/GeneralStateTestsFiller/stSpecialTest/selfdestructEIP2929Filler.json",
            "sourceHash" : "79d608a36dbc6baad46c87cd808d652fbef511a3d3d384e4b62181e46af74f8b"
        },
        "blocks" : [
            {
                "blockHeader" : {
                    "baseFeePerGas" : "0x0a",
                    "blobGasUsed" : "0x00",
                    "bloom" : "0x00000000000000000000000000000000000000000000000000000000000000000000000000000000000000000000000000000000000000000000000000000000000000000000000000000000000000000000000000000000000000000000000000000000000000000000000000000000000000000000000000000000000000000000000000000000000000000000000000000000000000000000000000000000000000000000000000000000000000000000000000000000000000000000000000000000000000000000000000000000000000000000000000000000000000000000000000000000000000000000000000000000000000000000000000000000",
                    "coinbase" : "0xb94f5374fce5edbc8e2a8697c15331677e6ebf0b",
                    "difficulty" : "0x00",
                    "excessBlobGas" : "0x00",
                    "extraData" : "0x00",
                    "gasLimit" : "0x26e1f476fe1e22",
                    "gasUsed" : "0x01e09d",
                    "hash" : "0x460e48f0ca793b8dddd240ba5ddad66a8e9d69cab0a284326de6045cd80138d5",
                    "mixHash" : "0x0000000000000000000000000000000000000000000000000000000000020000",
                    "nonce" : "0x0000000000000000",
                    "number" : "0x01",
                    "parentBeaconBlockRoot" : "0x0000000000000000000000000000000000000000000000000000000000000000",
                    "parentHash" : "0xec436923c5bd0aa31d55806a46522738d48fe25ca8f57c265c8c10a89c7e0f1b",
                    "receiptTrie" : "0x53a9cc957901fb44f94253b2a2f80a34405405ae16fb881cf010b28c942884db",
                    "requestsHash" : "0xe3b0c44298fc1c149afbf4c8996fb92427ae41e4649b934ca495991b7852b855",
                    "stateRoot" : "0x24425c7c3085f036a577b0e567df92c60050bcda7ff0615ee4da79e494cd0bee",
                    "timestamp" : "0x03e8",
                    "transactionsTrie" : "0x4f1506d0fbbcbc390d81c14dd130285862335028156f29b243cd0bb21b70296a",
                    "uncleHash" : "0x1dcc4de8dec75d7aab85b567b6ccd41ad312451b948a7413f0a142fd40d49347",
                    "withdrawalsRoot" : "0x56e81f171bcc55a6ff8345e692c0f86e5b48e01b996cadc001622fb5e363b421"
                },
                "rlp" : "0xf902c8f9025fa0ec436923c5bd0aa31d55806a46522738d48fe25ca8f57c265c8c10a89c7e0f1ba01dcc4de8dec75d7aab85b567b6ccd41ad312451b948a7413f0a142fd40d4934794b94f5374fce5edbc8e2a8697c15331677e6ebf0ba024425c7c3085f036a577b0e567df92c60050bcda7ff0615ee4da79e494cd0beea04f1506d0fbbcbc390d81c14dd130285862335028156f29b243cd0bb21b70296aa053a9cc957901fb44f94253b2a2f80a34405405ae16fb881cf010b28c942884dbb901000000000000000000000000000000000000000000000000000000000000000000000000000000000000000000000000000000000000000000000000000000000000000000000000000000000000000000000000000000000000000000000000000000000000000000000000000000000000000000000000000000000000000000000000000000000000000000000000000000000000000000000000000000000000000000000000000000000000000000000000000000000000000000000000000000000000000000000000000000000000000000000000000000000000000000000000000000000000000000000000000000000000000000000000000000000080018726e1f476fe1e228301e09d8203e800a000000000000000000000000000000000000000000000000000000000000200008800000000000000000aa056e81f171bcc55a6ff8345e692c0f86e5b48e01b996cadc001622fb5e363b4218080a00000000000000000000000000000000000000000000000000000000000000000a0e3b0c44298fc1c149afbf4c8996fb92427ae41e4649b934ca495991b7852b855f862f860800a837a120094000000000000000000000000000000000000c41180801ba0ae5df8f4eecd8f8e17f7629ca1afc2c3d17d472d00c43b01f5bcae355171d931a036135f53a87fe3acbf7a588ca1cfd1b69cfe82f122404abedef18b0a779053b6c0c0",
                "transactions" : [
                    {
                        "data" : "0x",
                        "gasLimit" : "0x7a1200",
                        "gasPrice" : "0x0a",
                        "nonce" : "0x00",
                        "r" : "0xae5df8f4eecd8f8e17f7629ca1afc2c3d17d472d00c43b01f5bcae355171d931",
                        "s" : "0x36135f53a87fe3acbf7a588ca1cfd1b69cfe82f122404abedef18b0a779053b6",
                        "sender" : "0xa94f5374fce5edbc8e2a8697c15331677e6ebf0b",
                        "to" : "0x000000000000000000000000000000000000c411",
                        "v" : "0x1b",
                        "value" : "0x00"
                    }
                ],
                "uncleHeaders" : [
                ],
                "withdrawals" : [
                ]
            }
        ],
        "config" : {
            "blobSchedule" : {
                "Prague" : {
                    "baseFeeUpdateFraction" : "0x4c6964",
                    "max" : "0x09",
                    "target" : "0x06"
                }
            },
            "chainid" : "0x01",
            "network" : "Prague"
        },
        "genesisBlockHeader" : {
            "baseFeePerGas" : "0x0b",
            "blobGasUsed" : "0x00",
            "bloom" : "0x00000000000000000000000000000000000000000000000000000000000000000000000000000000000000000000000000000000000000000000000000000000000000000000000000000000000000000000000000000000000000000000000000000000000000000000000000000000000000000000000000000000000000000000000000000000000000000000000000000000000000000000000000000000000000000000000000000000000000000000000000000000000000000000000000000000000000000000000000000000000000000000000000000000000000000000000000000000000000000000000000000000000000000000000000000000",
            "coinbase" : "0xb94f5374fce5edbc8e2a8697c15331677e6ebf0b",
            "difficulty" : "0x00",
            "excessBlobGas" : "0x060000",
            "extraData" : "0x00",
            "gasLimit" : "0x26e1f476fe1e22",
            "gasUsed" : "0x00",
            "hash" : "0xec436923c5bd0aa31d55806a46522738d48fe25ca8f57c265c8c10a89c7e0f1b",
            "mixHash" : "0x0000000000000000000000000000000000000000000000000000000000020000",
            "nonce" : "0x0000000000000000",
            "number" : "0x00",
            "parentBeaconBlockRoot" : "0x0000000000000000000000000000000000000000000000000000000000000000",
            "parentHash" : "0x0000000000000000000000000000000000000000000000000000000000000000",
            "receiptTrie" : "0x56e81f171bcc55a6ff8345e692c0f86e5b48e01b996cadc001622fb5e363b421",
            "requestsHash" : "0xe3b0c44298fc1c149afbf4c8996fb92427ae41e4649b934ca495991b7852b855",
            "stateRoot" : "0x2cd34c8b5df7fef4482bc7761277e924f35369ef63e28422ef10237bc9e289a8",
            "timestamp" : "0x00",
            "transactionsTrie" : "0x56e81f171bcc55a6ff8345e692c0f86e5b48e01b996cadc001622fb5e363b421",
            "uncleHash" : "0x1dcc4de8dec75d7aab85b567b6ccd41ad312451b948a7413f0a142fd40d49347",
            "withdrawalsRoot" : "0x56e81f171bcc55a6ff8345e692c0f86e5b48e01b996cadc001622fb5e363b421"
        },
        "genesisRLP" : "0xf90263f9025da00000000000000000000000000000000000000000000000000000000000000000a01dcc4de8dec75d7aab85b567b6ccd41ad312451b948a7413f0a142fd40d4934794b94f5374fce5edbc8e2a8697c15331677e6ebf0ba02cd34c8b5df7fef4482bc7761277e924f35369ef63e28422ef10237bc9e289a8a056e81f171bcc55a6ff8345e692c0f86e5b48e01b996cadc001622fb5e363b421a056e81f171bcc55a6ff8345e692c0f86e5b48e01b996cadc001622fb5e363b421b901000000000000000000000000000000000000000000000000000000000000000000000000000000000000000000000000000000000000000000000000000000000000000000000000000000000000000000000000000000000000000000000000000000000000000000000000000000000000000000000000000000000000000000000000000000000000000000000000000000000000000000000000000000000000000000000000000000000000000000000000000000000000000000000000000000000000000000000000000000000000000000000000000000000000000000000000000000000000000000000000000000000000000000000000000000000080808726e1f476fe1e22808000a000000000000000000000000000000000000000000000000000000000000200008800000000000000000ba056e81f171bcc55a6ff8345e692c0f86e5b48e01b996cadc001622fb5e363b4218083060000a00000000000000000000000000000000000000000000000000000000000000000a0e3b0c44298fc1c149afbf4c8996fb92427ae41e4649b934ca495991b7852b855c0c0c0",
        "lastblockhash" : "0x460e48f0ca793b8dddd240ba5ddad66a8e9d69cab0a284326de6045cd80138d5",
        "network" : "Prague",
        "postState" : {
            "0x00000000000000000000000000000000000000aa" : {
                "balance" : "0x01",
                "code" : "0x",
                "nonce" : "0x01",
                "storage" : {
                }
            },
            "0x00000000000000000000000000000000000000cc" : {
                "balance" : "0x00",
                "code" : "0x",
                "nonce" : "0x01",
                "storage" : {
                }
            },
            "0x000000000000000000000000000000000000c411" : {
                "balance" : "0x01",
                "code" : "0x6000600060006000600060cc6000f1506000600060006000600060dd6000f1506000600060006000600060036000f15060aa6000526000600060206000600061dead5af15060aa6000526000600060206000600061dead5af15060bb6000526000600060206000600061dead5af15060bb6000526000600060206000600061dead5af15060cc6000526000600060206000600061dead5af15060cc6000526000600060206000600061dead5af15060dd6000526000600060206000600061dead5af15060dd6000526000600060206000600061dead5af15060016000526000600060206000600061dead5af15060016000526000600060206000600061dead5af15060026000526000600060206000600061dead5af15060026000526000600060206000600061dead5af15060036000526000600060206000600061dead5af1506001600155",
                "nonce" : "0x01",
                "storage" : {
                    "0x01" : "0x01"
                }
            },
            "0x000000000000000000000000000000000000dead" : {
                "balance" : "0x00",
                "code" : "0x60003574ffffffffffffffffffffffffffffffffffffffffff16ff",
                "nonce" : "0x01",
                "storage" : {
                }
            },
            "0x0000f90827f1c53a10cb7a02335b175320002935" : {
                "balance" : "0x00",
                "code" : "0x3373fffffffffffffffffffffffffffffffffffffffe14604657602036036042575f35600143038111604257611fff81430311604257611fff9006545f5260205ff35b5f5ffd5b5f35611fff60014303065500",
                "nonce" : "0x01",
                "storage" : {
                    "0x00" : "0xec436923c5bd0aa31d55806a46522738d48fe25ca8f57c265c8c10a89c7e0f1b"
                }
            },
            "0x000f3df6d732807ef1319fb7b8bb8522d0beac02" : {
                "balance" : "0x00",
                "code" : "0x3373fffffffffffffffffffffffffffffffffffffffe14604d57602036146024575f5ffd5b5f35801560495762001fff810690815414603c575f5ffd5b62001fff01545f5260205ff35b5f5ffd5b62001fff42064281555f359062001fff015500",
                "nonce" : "0x01",
                "storage" : {
                    "0x03e8" : "0x03e8"
                }
            },
            "0xa94f5374fce5edbc8e2a8697c15331677e6ebf0b" : {
                "balance" : "0x0de0b6b3a75139de",
                "code" : "0x",
                "nonce" : "0x01",
                "storage" : {
                }
            }
        },
        "pre" : {
            "0x00000000000000000000000000000000000000aa" : {
                "balance" : "0x00",
                "code" : "0x",
                "nonce" : "0x01",
                "storage" : {
                }
            },
            "0x00000000000000000000000000000000000000cc" : {
                "balance" : "0x00",
                "code" : "0x",
                "nonce" : "0x01",
                "storage" : {
                }
            },
            "0x000000000000000000000000000000000000c411" : {
                "balance" : "0x01",
                "code" : "0x6000600060006000600060cc6000f1506000600060006000600060dd6000f1506000600060006000600060036000f15060aa6000526000600060206000600061dead5af15060aa6000526000600060206000600061dead5af15060bb6000526000600060206000600061dead5af15060bb6000526000600060206000600061dead5af15060cc6000526000600060206000600061dead5af15060cc6000526000600060206000600061dead5af15060dd6000526000600060206000600061dead5af15060dd6000526000600060206000600061dead5af15060016000526000600060206000600061dead5af15060016000526000600060206000600061dead5af15060026000526000600060206000600061dead5af15060026000526000600060206000600061dead5af15060036000526000600060206000600061dead5af1506001600155",
                "nonce" : "0x01",
                "storage" : {
                }
            },
            "0x000000000000000000000000000000000000dead" : {
                "balance" : "0x01",
                "code" : "0x60003574ffffffffffffffffffffffffffffffffffffffffff16ff",
                "nonce" : "0x01",
                "storage" : {
                }
            },
            "0x0000f90827f1c53a10cb7a02335b175320002935" : {
                "balance" : "0x00",
                "code" : "0x3373fffffffffffffffffffffffffffffffffffffffe14604657602036036042575f35600143038111604257611fff81430311604257611fff9006545f5260205ff35b5f5ffd5b5f35611fff60014303065500",
                "nonce" : "0x01",
                "storage" : {
                }
            },
            "0x000f3df6d732807ef1319fb7b8bb8522d0beac02" : {
                "balance" : "0x00",
                "code" : "0x3373fffffffffffffffffffffffffffffffffffffffe14604d57602036146024575f5ffd5b5f35801560495762001fff810690815414603c575f5ffd5b62001fff01545f5260205ff35b5f5ffd5b62001fff42064281555f359062001fff015500",
                "nonce" : "0x01",
                "storage" : {
                }
            },
            "0xa94f5374fce5edbc8e2a8697c15331677e6ebf0b" : {
                "balance" : "0x0de0b6b3a7640000",
                "code" : "0x",
                "nonce" : "0x00",
                "storage" : {
                }
            }
        },
        "sealEngine" : "NoProof"
    }
}