{
    "randomStatetest154_d0g0v0_Cancun" : {
        "_info" : {
            "comment" : "",
            "filling-rpc-server" : "evmone-t8n 0.14.0-13+commit.4d363c36",
            "filling-tool-version" : "retesteth-0.3.2-legacy+commit.ca7f4c79.Linux.g++",
            "fixture-format" : "blockchain_test",
            "generatedTestHash" : "febb266aa6d13b40b4cd539d911074a3a485369d81d5b3ba68806a97b1b86c83",
            "lllcversion" : "Version: 0.5.14-develop.2024.11.5+commit.b2b86751.mod.Linux.g++",
            "solidity" : "Version: 0.8.24+commit.e11b9ed9.Linux.g++",
            "source" : "src/GeneralStateTestsFiller/stRandom/randomStatetest154Filler.json",
            "sourceHash" : "938bdbc55618f8e7972555c0a24bbae5b2b92e7ba85c3ce051ee8fecb7d01532"
        },
        "blocks" : [
            {
                "blockHeader" : {
                    "baseFeePerGas" : "0x0a",
                    "blobGasUsed" : "0x00",
                    "bloom" : "0x00000000000000001000000000000000000000000000000000000000000000000000000000000000000000000000000000000000000000000000000000102000000000000000000000000000000000000100000000000000000000000000000000000000000000000000000000000000000004000000000000000000000000000000000000000000000000000000000000000000000000000000000000000000000000000000000004000000000000000000000000000000000000000000000000000000000000000000000000000000000000000000000000000000000000000018000040000000000000000000000000000000000000000000000000000000",
                    "coinbase" : "0x945304eb96065b2a98b57a48a06ae28d285a71b5",
                    "difficulty" : "0x00",
                    "excessBlobGas" : "0x00",
                    "extraData" : "0x00",
                    "gasLimit" : "0x7fffffffffffffff",
                    "gasUsed" : "0x4c3350",
                    "hash" : "0xb9fa4f8773858a9c63418fb8018207ab11d587198181457273d66e0029bf3a07",
                    "mixHash" : "0x0000000000000000000000000000000000000000000000000000000000020000",
                    "nonce" : "0x0000000000000000",
                    "number" : "0x01",
                    "parentBeaconBlockRoot" : "0x0000000000000000000000000000000000000000000000000000000000000000",
                    "parentHash" : "0x0bc291f0f155a477f3eb91318e61e8a674472b5417fbcfb8f6c8d1ed5cc1c9bc",
                    "receiptTrie" : "0x31cb4b4991ae4eb28c558789f3c4b3ec206c6badf5762fc7e78dc17537296244",
                    "stateRoot" : "0x2b58b2510545556a312a2b7caa22f287dbf7f18891e64b5cf5347193fb4a2f29",
                    "timestamp" : "0x03e8",
                    "transactionsTrie" : "0x98636d641a449319ae80856cd6e4783f2701f610fcd4a22ee879ad4b7fd81045",
                    "uncleHash" : "0x1dcc4de8dec75d7aab85b567b6ccd41ad312451b948a7413f0a142fd40d49347",
                    "withdrawalsRoot" : "0x56e81f171bcc55a6ff8345e692c0f86e5b48e01b996cadc001622fb5e363b421"
                },
                "rlp" : "0xf90467f9023fa00bc291f0f155a477f3eb91318e61e8a674472b5417fbcfb8f6c8d1ed5cc1c9bca01dcc4de8dec75d7aab85b567b6ccd41ad312451b948a7413f0a142fd40d4934794945304eb96065b2a98b57a48a06ae28d285a71b5a02b58b2510545556a312a2b7caa22f287dbf7f18891e64b5cf5347193fb4a2f29a098636d641a449319ae80856cd6e4783f2701f610fcd4a22ee879ad4b7fd81045a031cb4b4991ae4eb28c558789f3c4b3ec206c6badf5762fc7e78dc17537296244b90100000000000000000010000000000000000000000000000000000000000000000000000000000000000000000000000000000000000000000000000000001020000000000000000000000000000000000001000000000000000000000000000000000000000000000000000000000000000000040000000000000000000000000000000000000000000000000000000000000000000000000000000000000000000000000000000000040000000000000000000000000000000000000000000000000000000000000000000000000000000000000000000000000000000000000000180000400000000000000000000000000000000000000000000000000000008001887fffffffffffffff834c33508203e800a000000000000000000000000000000000000000000000000000000000000200008800000000000000000aa056e81f171bcc55a6ff8345e692c0f86e5b48e01b996cadc001622fb5e363b4218080a00000000000000000000000000000000000000000000000000000000000000000f90220f9021d800a846065bf3a94095e7baea6a6c7c4c2dfeb977efac326af552d8784651c295bb901b67767cc78eeac8d9db5297bde12b635c487b138a0dd4601a9236656945997db45a668500a3ba6eac5489fca6a1a60998fdd14d1f8b6df2f71d56852c0f085c7c3ba826a746e9dce4335b97488b092df3db7c8097366963ffc1f51e7f4740935567fc404dab22917cbb1e5cf6252d6e99952a889ec687e6bcdb9b3358f2b287d5d38793a6e6105063e96947760c35c317e5798e9a5f3cfef9030ea32917ec50268953856b1eae69744b4815f4808e2bcceaa482030b32689f51807af6e6840942dae7592985e688975e0ee12dbdc39eedbf43aabc2563df850d6781ed002fe78bd48083bb42742ee243eea1ecd201eef18f00f330fee8836df1234700f5824b76290232dd1863a69ca84d2786e74eed98d42b740cc037b156dd261441220cfaf15857c6e8b6f5e1eb9aee8d63ad473477df11660ac765fa5eebfccfed05bacf2809818d01db511686cde018f146e78fee9bff3ffe90a1b54cdc57ec52b6fda22f7f81fc1d9724b375ce206d29176797f9e42c2ec1ef6b468f7f8fbdb5011c4ddcddd72a6adde7d3d077cf96f9d13893a46aaaf5acc241eabd8712b6a2deea63f6f91cf162e2d6d65579257a17d7c66e07570d11280dc991ba0128d11ade94a99802fd217d1c4eeb58d7ebe4b6361da09670c455cc3ed6a03e3a01709e6c90fe1fb4998d4feff2b392daed739e76100063dcf4c3c97d176bfcf68c0c0",
                "transactions" : [
                    {
                        "data" : "0x7767cc78eeac8d9db5297bde12b635c487b138a0dd4601a9236656945997db45a668500a3ba6eac5489fca6a1a60998fdd14d1f8b6df2f71d56852c0f085c7c3ba826a746e9dce4335b97488b092df3db7c8097366963ffc1f51e7f4740935567fc404dab22917cbb1e5cf6252d6e99952a889ec687e6bcdb9b3358f2b287d5d38793a6e6105063e96947760c35c317e5798e9a5f3cfef9030ea32917ec50268953856b1eae69744b4815f4808e2bcceaa482030b32689f51807af6e6840942dae7592985e688975e0ee12dbdc39eedbf43aabc2563df850d6781ed002fe78bd48083bb42742ee243eea1ecd201eef18f00f330fee8836df1234700f5824b76290232dd1863a69ca84d2786e74eed98d42b740cc037b156dd261441220cfaf15857c6e8b6f5e1eb9aee8d63ad473477df11660ac765fa5eebfccfed05bacf2809818d01db511686cde018f146e78fee9bff3ffe90a1b54cdc57ec52b6fda22f7f81fc1d9724b375ce206d29176797f9e42c2ec1ef6b468f7f8fbdb5011c4ddcddd72a6adde7d3d077cf96f9d13893a46aaaf5acc241eabd8712b6a2deea63f6f91cf162e2d6d65579257a17d7c66e07570d11280dc99",
                        "gasLimit" : "0x6065bf3a",
                        "gasPrice" : "0x0a",
                        "nonce" : "0x00",
                        "r" : "0x128d11ade94a99802fd217d1c4eeb58d7ebe4b6361da09670c455cc3ed6a03e3",
                        "s" : "0x1709e6c90fe1fb4998d4feff2b392daed739e76100063dcf4c3c97d176bfcf68",
                        "sender" : "0xa94f5374fce5edbc8e2a8697c15331677e6ebf0b",
                        "to" : "0x095e7baea6a6c7c4c2dfeb977efac326af552d87",
                        "v" : "0x1b",
                        "value" : "0x651c295b"
                    }
                ],
                "uncleHeaders" : [
                ],
                "withdrawals" : [
                ]
            }
        ],
        "config" : {
            "blobSchedule" : {
                "Cancun" : {
                    "baseFeeUpdateFraction" : "0x32f0ed",
                    "max" : "0x06",
                    "target" : "0x03"
                }
            },
            "chainid" : "0x01",
            "network" : "Cancun"
        },
        "genesisBlockHeader" : {
            "baseFeePerGas" : "0x0b",
            "blobGasUsed" : "0x00",
            "bloom" : "0x00000000000000000000000000000000000000000000000000000000000000000000000000000000000000000000000000000000000000000000000000000000000000000000000000000000000000000000000000000000000000000000000000000000000000000000000000000000000000000000000000000000000000000000000000000000000000000000000000000000000000000000000000000000000000000000000000000000000000000000000000000000000000000000000000000000000000000000000000000000000000000000000000000000000000000000000000000000000000000000000000000000000000000000000000000000",
            "coinbase" : "0x945304eb96065b2a98b57a48a06ae28d285a71b5",
            "difficulty" : "0x00",
            "excessBlobGas" : "0x060000",
            "extraData" : "0x00",
            "gasLimit" : "0x7fffffffffffffff",
            "gasUsed" : "0x00",
            "hash" : "0x0bc291f0f155a477f3eb91318e61e8a674472b5417fbcfb8f6c8d1ed5cc1c9bc",
            "mixHash" : "0x0000000000000000000000000000000000000000000000000000000000020000",
            "nonce" : "0x0000000000000000",
            "number" : "0x00",
            "parentBeaconBlockRoot" : "0x0000000000000000000000000000000000000000000000000000000000000000",
            "parentHash" : "0x0000000000000000000000000000000000000000000000000000000000000000",
            "receiptTrie" : "0x56e81f171bcc55a6ff8345e692c0f86e5b48e01b996cadc001622fb5e363b421",
            "stateRoot" : "0x2df14cfd59c59dafd838cf518bdbb0615e6d69cd175949d57a1413fbd53da0d1",
            "timestamp" : "0x00",
            "transactionsTrie" : "0x56e81f171bcc55a6ff8345e692c0f86e5b48e01b996cadc001622fb5e363b421",
            "uncleHash" : "0x1dcc4de8dec75d7aab85b567b6ccd41ad312451b948a7413f0a142fd40d49347",
            "withdrawalsRoot" : "0x56e81f171bcc55a6ff8345e692c0f86e5b48e01b996cadc001622fb5e363b421"
        },
        "genesisRLP" : "0xf90243f9023da00000000000000000000000000000000000000000000000000000000000000000a01dcc4de8dec75d7aab85b567b6ccd41ad312451b948a7413f0a142fd40d4934794945304eb96065b2a98b57a48a06ae28d285a71b5a02df14cfd59c59dafd838cf518bdbb0615e6d69cd175949d57a1413fbd53da0d1a056e81f171bcc55a6ff8345e692c0f86e5b48e01b996cadc001622fb5e363b421a056e81f171bcc55a6ff8345e692c0f86e5b48e01b996cadc001622fb5e363b421b90100000000000000000000000000000000000000000000000000000000000000000000000000000000000000000000000000000000000000000000000000000000000000000000000000000000000000000000000000000000000000000000000000000000000000000000000000000000000000000000000000000000000000000000000000000000000000000000000000000000000000000000000000000000000000000000000000000000000000000000000000000000000000000000000000000000000000000000000000000000000000000000000000000000000000000000000000000000000000000000000000000000000000000000000000000000008080887fffffffffffffff808000a000000000000000000000000000000000000000000000000000000000000200008800000000000000000ba056e81f171bcc55a6ff8345e692c0f86e5b48e01b996cadc001622fb5e363b4218083060000a00000000000000000000000000000000000000000000000000000000000000000c0c0c0",
        "lastblockhash" : "0xb9fa4f8773858a9c63418fb8018207ab11d587198181457273d66e0029bf3a07",
        "network" : "Cancun",
        "postState" : {
            "0x000f3df6d732807ef1319fb7b8bb8522d0beac02" : {
                "balance" : "0x00",
                "code" : "0x3373fffffffffffffffffffffffffffffffffffffffe14604d57602036146024575f5ffd5b5f35801560495762001fff810690815414603c575f5ffd5b62001fff01545f5260205ff35b5f5ffd5b62001fff42064281555f359062001fff015500",
                "nonce" : "0x01",
                "storage" : {
                    "0x03e8" : "0x03e8"
                }
            },
            "0x095e7baea6a6c7c4c2dfeb977efac326af552d87" : {
                "balance" : "0x651c295b",
                "code" : "0x7db1267c8bba268d1408f7b3e269afee3fea86c5bc8aec8108fd6aaa954f5173b7d0e2328333e94698e0d570db9b316cba0adbae609d611ba1a2326004600d6005600f632de40a2773095e7baea6a6c7c4c2dfeb977efac326af552d87635c2491eef1",
                "nonce" : "0x00",
                "storage" : {
                }
            },
            "0x945304eb96065b2a98b57a48a06ae28d285a71b5" : {
                "balance" : "0x2e",
                "code" : "0x6000355415600957005b60203560003555",
                "nonce" : "0x00",
                "storage" : {
                }
            },
            "0xa94f5374fce5edbc8e2a8697c15331677e6ebf0b" : {
                "balance" : "0x0de0b6b33f4dd585",
                "code" : "0x",
                "nonce" : "0x01",
                "storage" : {
                }
            }
        },
        "pre" : {
            "0x000f3df6d732807ef1319fb7b8bb8522d0beac02" : {
                "balance" : "0x00",
                "code" : "0x3373fffffffffffffffffffffffffffffffffffffffe14604d57602036146024575f5ffd5b5f35801560495762001fff810690815414603c575f5ffd5b62001fff01545f5260205ff35b5f5ffd5b62001fff42064281555f359062001fff015500",
                "nonce" : "0x01",
                "storage" : {
                }
            },
            "0x095e7baea6a6c7c4c2dfeb977efac326af552d87" : {
                "balance" : "0x00",
                "code" : "0x7db1267c8bba268d1408f7b3e269afee3fea86c5bc8aec8108fd6aaa954f5173b7d0e2328333e94698e0d570db9b316cba0adbae609d611ba1a2326004600d6005600f632de40a2773095e7baea6a6c7c4c2dfeb977efac326af552d87635c2491eef1",
                "nonce" : "0x00",
                "storage" : {
                }
            },
            "0x945304eb96065b2a98b57a48a06ae28d285a71b5" : {
                "balance" : "0x2e",
                "code" : "0x6000355415600957005b60203560003555",
                "nonce" : "0x00",
                "storage" : {
                }
            },
            "0xa94f5374fce5edbc8e2a8697c15331677e6ebf0b" : {
                "balance" : "0x0de0b6b3a7640000",
                "code" : "0x",
                "nonce" : "0x00",
                "storage" : {
                }
            }
        },
        "sealEngine" : "NoProof"
    },
    "randomStatetest154_d0g0v0_Prague" : {
        "_info" : {
            "comment" : "",
            "filling-rpc-server" : "evmone-t8n 0.14.0-13+commit.4d363c36",
            "filling-tool-version" : "retesteth-0.3.2-legacy+commit.ca7f4c79.Linux.g++",
            "fixture-format" : "blockchain_test",
            "generatedTestHash" : "a4ca3c0429271ba2073891023dbdacd211c1bb026b18cdc9e085bf8903f80f0f",
            "lllcversion" : "Version: 0.5.14-develop.2024.11.5+commit.b2b86751.mod.Linux.g++",
            "solidity" : "Version: 0.8.24+commit.e11b9ed9.Linux.g++",
            "source" : "src/GeneralStateTestsFiller/stRandom/randomStatetest154Filler.json",
            "sourceHash" : "938bdbc55618f8e7972555c0a24bbae5b2b92e7ba85c3ce051ee8fecb7d01532"
        },
        "blocks" : [
            {
                "blockHeader" : {
                    "baseFeePerGas" : "0x0a",
                    "blobGasUsed" : "0x00",
                    "bloom" : "0x00000000000000001000000000000000000000000000000000000000000000000000000000000000000000000000000000000000000000000000000000102000000000000000000000000000000000000100000000000000000000000000000000000000000000000000000000000000000004000000000000000000000000000000000000000000000000000000000000000000000000000000000000000000000000000000000004000000000000000000000000000000000000000000000000000000000000000000000000000000000000000000000000000000000000000018000040000000000000000000000000000000000000000000000000000000",
                    "coinbase" : "0x945304eb96065b2a98b57a48a06ae28d285a71b5",
                    "difficulty" : "0x00",
                    "excessBlobGas" : "0x00",
                    "extraData" : "0x00",
                    "gasLimit" : "0x7fffffffffffffff",
                    "gasUsed" : "0x4c3350",
                    "hash" : "0x5f04b351443f045435e188fbab33536ff8eec1c2361cf9c67d338a3547c799e5",
                    "mixHash" : "0x0000000000000000000000000000000000000000000000000000000000020000",
                    "nonce" : "0x0000000000000000",
                    "number" : "0x01",
                    "parentBeaconBlockRoot" : "0x0000000000000000000000000000000000000000000000000000000000000000",
                    "parentHash" : "0x95ad0508667d741b6b10ad005b77dcd6292accde1fead93ae2d7c8d30a458365",
                    "receiptTrie" : "0x31cb4b4991ae4eb28c558789f3c4b3ec206c6badf5762fc7e78dc17537296244",
                    "requestsHash" : "0xe3b0c44298fc1c149afbf4c8996fb92427ae41e4649b934ca495991b7852b855",
                    "stateRoot" : "0x8a7b6f64db426e3b5c4fba6de7e7610972d934d707760cce2432739cc4e56d88",
                    "timestamp" : "0x03e8",
                    "transactionsTrie" : "0x98636d641a449319ae80856cd6e4783f2701f610fcd4a22ee879ad4b7fd81045",
                    "uncleHash" : "0x1dcc4de8dec75d7aab85b567b6ccd41ad312451b948a7413f0a142fd40d49347",
                    "withdrawalsRoot" : "0x56e81f171bcc55a6ff8345e692c0f86e5b48e01b996cadc001622fb5e363b421"
                },
                "rlp" : "0xf90488f90260a095ad0508667d741b6b10ad005b77dcd6292accde1fead93ae2d7c8d30a458365a01dcc4de8dec75d7aab85b567b6ccd41ad312451b948a7413f0a142fd40d4934794945304eb96065b2a98b57a48a06ae28d285a71b5a08a7b6f64db426e3b5c4fba6de7e7610972d934d707760cce2432739cc4e56d88a098636d641a449319ae80856cd6e4783f2701f610fcd4a22ee879ad4b7fd81045a031cb4b4991ae4eb28c558789f3c4b3ec206c6badf5762fc7e78dc17537296244b90100000000000000000010000000000000000000000000000000000000000000000000000000000000000000000000000000000000000000000000000000001020000000000000000000000000000000000001000000000000000000000000000000000000000000000000000000000000000000040000000000000000000000000000000000000000000000000000000000000000000000000000000000000000000000000000000000040000000000000000000000000000000000000000000000000000000000000000000000000000000000000000000000000000000000000000180000400000000000000000000000000000000000000000000000000000008001887fffffffffffffff834c33508203e800a000000000000000000000000000000000000000000000000000000000000200008800000000000000000aa056e81f171bcc55a6ff8345e692c0f86e5b48e01b996cadc001622fb5e363b4218080a00000000000000000000000000000000000000000000000000000000000000000a0e3b0c44298fc1c149afbf4c8996fb92427ae41e4649b934ca495991b7852b855f90220f9021d800a846065bf3a94095e7baea6a6c7c4c2dfeb977efac326af552d8784651c295bb901b67767cc78eeac8d9db5297bde12b635c487b138a0dd4601a9236656945997db45a668500a3ba6eac5489fca6a1a60998fdd14d1f8b6df2f71d56852c0f085c7c3ba826a746e9dce4335b97488b092df3db7c8097366963ffc1f51e7f4740935567fc404dab22917cbb1e5cf6252d6e99952a889ec687e6bcdb9b3358f2b287d5d38793a6e6105063e96947760c35c317e5798e9a5f3cfef9030ea32917ec50268953856b1eae69744b4815f4808e2bcceaa482030b32689f51807af6e6840942dae7592985e688975e0ee12dbdc39eedbf43aabc2563df850d6781ed002fe78bd48083bb42742ee243eea1ecd201eef18f00f330fee8836df1234700f5824b76290232dd1863a69ca84d2786e74eed98d42b740cc037b156dd261441220cfaf15857c6e8b6f5e1eb9aee8d63ad473477df11660ac765fa5eebfccfed05bacf2809818d01db511686cde018f146e78fee9bff3ffe90a1b54cdc57ec52b6fda22f7f81fc1d9724b375ce206d29176797f9e42c2ec1ef6b468f7f8fbdb5011c4ddcddd72a6adde7d3d077cf96f9d13893a46aaaf5acc241eabd8712b6a2deea63f6f91cf162e2d6d65579257a17d7c66e07570d11280dc991ba0128d11ade94a99802fd217d1c4eeb58d7ebe4b6361da09670c455cc3ed6a03e3a01709e6c90fe1fb4998d4feff2b392daed739e76100063dcf4c3c97d176bfcf68c0c0",
                "transactions" : [
                    {
                        "data" : "0x7767cc78eeac8d9db5297bde12b635c487b138a0dd4601a9236656945997db45a668500a3ba6eac5489fca6a1a60998fdd14d1f8b6df2f71d56852c0f085c7c3ba826a746e9dce4335b97488b092df3db7c8097366963ffc1f51e7f4740935567fc404dab22917cbb1e5cf6252d6e99952a889ec687e6bcdb9b3358f2b287d5d38793a6e6105063e96947760c35c317e5798e9a5f3cfef9030ea32917ec50268953856b1eae69744b4815f4808e2bcceaa482030b32689f51807af6e6840942dae7592985e688975e0ee12dbdc39eedbf43aabc2563df850d6781ed002fe78bd48083bb42742ee243eea1ecd201eef18f00f330fee8836df1234700f5824b76290232dd1863a69ca84d2786e74eed98d42b740cc037b156dd261441220cfaf15857c6e8b6f5e1eb9aee8d63ad473477df11660ac765fa5eebfccfed05bacf2809818d01db511686cde018f146e78fee9bff3ffe90a1b54cdc57ec52b6fda22f7f81fc1d9724b375ce206d29176797f9e42c2ec1ef6b468f7f8fbdb5011c4ddcddd72a6adde7d3d077cf96f9d13893a46aaaf5acc241eabd8712b6a2deea63f6f91cf162e2d6d65579257a17d7c66e07570d11280dc99",
                        "gasLimit" : "0x6065bf3a",
                        "gasPrice" : "0x0a",
                        "nonce" : "0x00",
                        "r" : "0x128d11ade94a99802fd217d1c4eeb58d7ebe4b6361da09670c455cc3ed6a03e3",
                        "s" : "0x1709e6c90fe1fb4998d4feff2b392daed739e76100063dcf4c3c97d176bfcf68",
                        "sender" : "0xa94f5374fce5edbc8e2a8697c15331677e6ebf0b",
                        "to" : "0x095e7baea6a6c7c4c2dfeb977efac326af552d87",
                        "v" : "0x1b",
                        "value" : "0x651c295b"
                    }
                ],
                "uncleHeaders" : [
                ],
                "withdrawals" : [
                ]
            }
        ],
        "config" : {
            "blobSchedule" : {
                "Prague" : {
                    "baseFeeUpdateFraction" : "0x4c6964",
                    "max" : "0x09",
                    "target" : "0x06"
                }
            },
            "chainid" : "0x01",
            "network" : "Prague"
        },
        "genesisBlockHeader" : {
            "baseFeePerGas" : "0x0b",
            "blobGasUsed" : "0x00",
            "bloom" : "0x00000000000000000000000000000000000000000000000000000000000000000000000000000000000000000000000000000000000000000000000000000000000000000000000000000000000000000000000000000000000000000000000000000000000000000000000000000000000000000000000000000000000000000000000000000000000000000000000000000000000000000000000000000000000000000000000000000000000000000000000000000000000000000000000000000000000000000000000000000000000000000000000000000000000000000000000000000000000000000000000000000000000000000000000000000000",
            "coinbase" : "0x945304eb96065b2a98b57a48a06ae28d285a71b5",
            "difficulty" : "0x00",
            "excessBlobGas" : "0x060000",
            "extraData" : "0x00",
            "gasLimit" : "0x7fffffffffffffff",
            "gasUsed" : "0x00",
            "hash" : "0x95ad0508667d741b6b10ad005b77dcd6292accde1fead93ae2d7c8d30a458365",
            "mixHash" : "0x0000000000000000000000000000000000000000000000000000000000020000",
            "nonce" : "0x0000000000000000",
            "number" : "0x00",
            "parentBeaconBlockRoot" : "0x0000000000000000000000000000000000000000000000000000000000000000",
            "parentHash" : "0x0000000000000000000000000000000000000000000000000000000000000000",
            "receiptTrie" : "0x56e81f171bcc55a6ff8345e692c0f86e5b48e01b996cadc001622fb5e363b421",
            "requestsHash" : "0xe3b0c44298fc1c149afbf4c8996fb92427ae41e4649b934ca495991b7852b855",
            "stateRoot" : "0xb18051f4c280579ba597877c863300eb3390313292247bbe0aba6eb708fbd0fa",
            "timestamp" : "0x00",
            "transactionsTrie" : "0x56e81f171bcc55a6ff8345e692c0f86e5b48e01b996cadc001622fb5e363b421",
            "uncleHash" : "0x1dcc4de8dec75d7aab85b567b6ccd41ad312451b948a7413f0a142fd40d49347",
            "withdrawalsRoot" : "0x56e81f171bcc55a6ff8345e692c0f86e5b48e01b996cadc001622fb5e363b421"
        },
        "genesisRLP" : "0xf90264f9025ea00000000000000000000000000000000000000000000000000000000000000000a01dcc4de8dec75d7aab85b567b6ccd41ad312451b948a7413f0a142fd40d4934794945304eb96065b2a98b57a48a06ae28d285a71b5a0b18051f4c280579ba597877c863300eb3390313292247bbe0aba6eb708fbd0faa056e81f171bcc55a6ff8345e692c0f86e5b48e01b996cadc001622fb5e363b421a056e81f171bcc55a6ff8345e692c0f86e5b48e01b996cadc001622fb5e363b421b90100000000000000000000000000000000000000000000000000000000000000000000000000000000000000000000000000000000000000000000000000000000000000000000000000000000000000000000000000000000000000000000000000000000000000000000000000000000000000000000000000000000000000000000000000000000000000000000000000000000000000000000000000000000000000000000000000000000000000000000000000000000000000000000000000000000000000000000000000000000000000000000000000000000000000000000000000000000000000000000000000000000000000000000000000000000008080887fffffffffffffff808000a000000000000000000000000000000000000000000000000000000000000200008800000000000000000ba056e81f171bcc55a6ff8345e692c0f86e5b48e01b996cadc001622fb5e363b4218083060000a00000000000000000000000000000000000000000000000000000000000000000a0e3b0c44298fc1c149afbf4c8996fb92427ae41e4649b934ca495991b7852b855c0c0c0",
        "lastblockhash" : "0x5f04b351443f045435e188fbab33536ff8eec1c2361cf9c67d338a3547c799e5",
        "network" : "Prague",
        "postState" : {
            "0x0000f90827f1c53a10cb7a02335b175320002935" : {
                "balance" : "0x00",
                "code" : "0x3373fffffffffffffffffffffffffffffffffffffffe14604657602036036042575f35600143038111604257611fff81430311604257611fff9006545f5260205ff35b5f5ffd5b5f35611fff60014303065500",
                "nonce" : "0x01",
                "storage" : {
                    "0x00" : "0x95ad0508667d741b6b10ad005b77dcd6292accde1fead93ae2d7c8d30a458365"
                }
            },
            "0x000f3df6d732807ef1319fb7b8bb8522d0beac02" : {
                "balance" : "0x00",
                "code" : "0x3373fffffffffffffffffffffffffffffffffffffffe14604d57602036146024575f5ffd5b5f35801560495762001fff810690815414603c575f5ffd5b62001fff01545f5260205ff35b5f5ffd5b62001fff42064281555f359062001fff015500",
                "nonce" : "0x01",
                "storage" : {
                    "0x03e8" : "0x03e8"
                }
            },
            "0x095e7baea6a6c7c4c2dfeb977efac326af552d87" : {
                "balance" : "0x651c295b",
                "code" : "0x7db1267c8bba268d1408f7b3e269afee3fea86c5bc8aec8108fd6aaa954f5173b7d0e2328333e94698e0d570db9b316cba0adbae609d611ba1a2326004600d6005600f632de40a2773095e7baea6a6c7c4c2dfeb977efac326af552d87635c2491eef1",
                "nonce" : "0x00",
                "storage" : {
                }
            },
            "0x945304eb96065b2a98b57a48a06ae28d285a71b5" : {
                "balance" : "0x2e",
                "code" : "0x6000355415600957005b60203560003555",
                "nonce" : "0x00",
                "storage" : {
                }
            },
            "0xa94f5374fce5edbc8e2a8697c15331677e6ebf0b" : {
                "balance" : "0x0de0b6b33f4dd585",
                "code" : "0x",
                "nonce" : "0x01",
                "storage" : {
                }
            }
        },
        "pre" : {
            "0x0000f90827f1c53a10cb7a02335b175320002935" : {
                "balance" : "0x00",
                "code" : "0x3373fffffffffffffffffffffffffffffffffffffffe14604657602036036042575f35600143038111604257611fff81430311604257611fff9006545f5260205ff35b5f5ffd5b5f35611fff60014303065500",
                "nonce" : "0x01",
                "storage" : {
                }
            },
            "0x000f3df6d732807ef1319fb7b8bb8522d0beac02" : {
                "balance" : "0x00",
                "code" : "0x3373fffffffffffffffffffffffffffffffffffffffe14604d57602036146024575f5ffd5b5f35801560495762001fff810690815414603c575f5ffd5b62001fff01545f5260205ff35b5f5ffd5b62001fff42064281555f359062001fff015500",
                "nonce" : "0x01",
                "storage" : {
                }
            },
            "0x095e7baea6a6c7c4c2dfeb977efac326af552d87" : {
                "balance" : "0x00",
                "code" : "0x7db1267c8bba268d1408f7b3e269afee3fea86c5bc8aec8108fd6aaa954f5173b7d0e2328333e94698e0d570db9b316cba0adbae609d611ba1a2326004600d6005600f632de40a2773095e7baea6a6c7c4c2dfeb977efac326af552d87635c2491eef1",
                "nonce" : "0x00",
                "storage" : {
                }
            },
            "0x945304eb96065b2a98b57a48a06ae28d285a71b5" : {
                "balance" : "0x2e",
                "code" : "0x6000355415600957005b60203560003555",
                "nonce" : "0x00",
                "storage" : {
                }
            },
            "0xa94f5374fce5edbc8e2a8697c15331677e6ebf0b" : {
                "balance" : "0x0de0b6b3a7640000",
                "code" : "0x",
                "nonce" : "0x00",
                "storage" : {
                }
            }
        },
        "sealEngine" : "NoProof"
    }
}