{
    "randomStatetest83_d0g0v0_Cancun" : {
        "_info" : {
            "comment" : "",
            "filling-rpc-server" : "evmone-t8n 0.14.0-13+commit.4d363c36",
            "filling-tool-version" : "retesteth-0.3.2-legacy+commit.ca7f4c79.Linux.g++",
            "fixture-format" : "blockchain_test",
            "generatedTestHash" : "de735a5ae192342869207e1347c7d92b9a2d5cadbeefc854597d89ed4b97d8b9",
            "lllcversion" : "Version: 0.5.14-develop.2024.11.5+commit.b2b86751.mod.Linux.g++",
            "hyperion" : "Version: 0.8.24+commit.e11b9ed9.Linux.g++",
            "source" : "src/GeneralStateTestsFiller/stRandom/randomStatetest83Filler.json",
            "sourceHash" : "3022d982dffd6afd936ad5286fada85bd9291a92a78f776f2be6058540e9ed85"
        },
        "blocks" : [
            {
                "blockHeader" : {
                    "baseFeePerGas" : "0x0a",
                    "bloom" : "0x00000000000000000000000000000000000000000000000000000000000000000000000000000000000000000000000000000000000000000000000000000000000000000000000000000000000000000000000000000000000000000000000000000000000000000000000000000000000000000000000000000000000000000000000000000000000000000000000000000000000000000000000000000000000000000000000000000000000000000000000000000000000000000000000000000000000000000000000000000000000000000000000000000000000000000000000000000000000000000000000000000000000000000000000000000000",
                    "coinbase" : "Z945304eb96065b2a98b57a48a06ae28d285a71b5",
                    "extraData" : "0x00",
                    "gasLimit" : "0x7fffffffffffffff",
                    "gasUsed" : "0xb06a",
                    "hash" : "0x4428322dd2db1ea512e3c65c1f5acb12609c9ebb5df5c3d527b74c4cdbbc8ea3",
                    "mixHash" : "0x0000000000000000000000000000000000000000000000000000000000020000",
                    "nonce" : "0x0000000000000000",
                    "number" : "0x01",
                    "parentHash" : "0x8a32927348774bb46e6212cffeae11a5b9bc5865f11dd6d2bf5ce99e8ed8247d",
                    "receiptTrie" : "0x40e010fb8660a2d090d28673ac7c58063c9bff4c748f8f45a3acd439afb13eea",
                    "stateRoot" : "0x30b8113439a14bbbf7385f9aeca1b6b0353ceada2c7b1fff74a6e4a5d915b827",
                    "timestamp" : "0x03e8",
                    "transactionsTrie" : "0x5da696c7a2b2c158215cf3775f3541ca0684daf983adf6a8331142f3d05a9da9",
                    "withdrawalsRoot" : "0x56e81f171bcc55a6ff8345e692c0f86e5b48e01b996cadc001622fb5e363b421"
                },
                "rlp" : "0xf90387f9023ea08a32927348774bb46e6212cffeae11a5b9bc5865f11dd6d2bf5ce99e8ed8247da01dcc4de8dec75d7aab85b567b6ccd41ad312451b948a7413f0a142fd40d4934794945304eb96065b2a98b57a48a06ae28d285a71b5a030b8113439a14bbbf7385f9aeca1b6b0353ceada2c7b1fff74a6e4a5d915b827a05da696c7a2b2c158215cf3775f3541ca0684daf983adf6a8331142f3d05a9da9a040e010fb8660a2d090d28673ac7c58063c9bff4c748f8f45a3acd439afb13eeab90100000000000000000000000000000000000000000000000000000000000000000000000000000000000000000000000000000000000000000000000000000000000000000000000000000000000000000000000000000000000000000000000000000000000000000000000000000000000000000000000000000000000000000000000000000000000000000000000000000000000000000000000000000000000000000000000000000000000000000000000000000000000000000000000000000000000000000000000000000000000000000000000000000000000000000000000000000000000000000000000000000000000000000000000000000000008001887fffffffffffffff82b06a8203e800a000000000000000000000000000000000000000000000000000000000000200008800000000000000000aa056e81f171bcc55a6ff8345e692c0f86e5b48e01b996cadc001622fb5e363b4218080a00000000000000000000000000000000000000000000000000000000000000000f90141f9013e800a841845c69994095e7baea6a6c7c4c2dfeb977efac326af552d87843c81798cb8d87f00000000000000000000000000000000000000000000000000000000000000007f000000000000000000000000ffffffffffffffffffffffffffffffffffffffff427f00000000000000000000000000000000000000000000000000000000000000017f000000000000000000000000ffffffffffffffffffffffffffffffffffffffff7f0000000000000000000000000000000000000000000000000000000000000000307ffffffffffffffffffffffffffffffffffffffffffffffffffffffffffffffffe6fa1109af20740728e72150a7a9c09591ca07d90a8d88e82619a95a79ea77becac9245217741cd514623df703ad9e7250a0ea02bea885696471e1ebc8d48f5c44794b58b791a505ccfb429c949d83485ed2fa7c0c0",
                "transactions" : [
                    {
                        "data" : "0x7f00000000000000000000000000000000000000000000000000000000000000007f000000000000000000000000ffffffffffffffffffffffffffffffffffffffff427f00000000000000000000000000000000000000000000000000000000000000017f000000000000000000000000ffffffffffffffffffffffffffffffffffffffff7f0000000000000000000000000000000000000000000000000000000000000000307ffffffffffffffffffffffffffffffffffffffffffffffffffffffffffffffffe6fa1109af20740728e72150a7a9c0959",
                        "gasLimit" : "0x1845c699",
                        "gasPrice" : "0x0a",
                        "nonce" : "0x00",
                        "signature" : "0x7d90a8d88e82619a95a79ea77becac9245217741cd514623df703ad9e7250a0e",
                        "publicKey" : "0x2bea885696471e1ebc8d48f5c44794b58b791a505ccfb429c949d83485ed2fa7",
                        "sender" : "Za94f5374fce5edbc8e2a8697c15331677e6ebf0b",
                        "to" : "0x095e7baea6a6c7c4c2dfeb977efac326af552d87",
                        "v" : "0x1c",
                        "value" : "0x3c81798c"
                    }
                ],
                "uncleHeaders" : [
                ],
                "withdrawals" : [
                ]
            }
        ],
        "config" : {
            "blobSchedule" : {
                "Cancun" : {
                    "baseFeeUpdateFraction" : "0x32f0ed",
                    "max" : "0x06",
                    "target" : "0x03"
                }
            },
            "chainid" : "0x01",
            "network" : "Shanghai"
        },
        "genesisBlockHeader" : {
            "baseFeePerGas" : "0x0b",
            "bloom" : "0x00000000000000000000000000000000000000000000000000000000000000000000000000000000000000000000000000000000000000000000000000000000000000000000000000000000000000000000000000000000000000000000000000000000000000000000000000000000000000000000000000000000000000000000000000000000000000000000000000000000000000000000000000000000000000000000000000000000000000000000000000000000000000000000000000000000000000000000000000000000000000000000000000000000000000000000000000000000000000000000000000000000000000000000000000000000",
            "coinbase" : "Z945304eb96065b2a98b57a48a06ae28d285a71b5",
            "extraData" : "0x00",
            "gasLimit" : "0x7fffffffffffffff",
            "gasUsed" : "0x00",
            "hash" : "0x8a32927348774bb46e6212cffeae11a5b9bc5865f11dd6d2bf5ce99e8ed8247d",
            "mixHash" : "0x0000000000000000000000000000000000000000000000000000000000020000",
            "nonce" : "0x0000000000000000",
            "number" : "0x00",
            "parentHash" : "0x0000000000000000000000000000000000000000000000000000000000000000",
            "receiptTrie" : "0x56e81f171bcc55a6ff8345e692c0f86e5b48e01b996cadc001622fb5e363b421",
            "stateRoot" : "0x86379ae2eebec7eb2f667962ef722c519bf5aaa7fc1ea17f58215ca533e95fa2",
            "timestamp" : "0x00",
            "transactionsTrie" : "0x56e81f171bcc55a6ff8345e692c0f86e5b48e01b996cadc001622fb5e363b421",
            "withdrawalsRoot" : "0x56e81f171bcc55a6ff8345e692c0f86e5b48e01b996cadc001622fb5e363b421"
        },
        "genesisRLP" : "0xf90243f9023da00000000000000000000000000000000000000000000000000000000000000000a01dcc4de8dec75d7aab85b567b6ccd41ad312451b948a7413f0a142fd40d4934794945304eb96065b2a98b57a48a06ae28d285a71b5a086379ae2eebec7eb2f667962ef722c519bf5aaa7fc1ea17f58215ca533e95fa2a056e81f171bcc55a6ff8345e692c0f86e5b48e01b996cadc001622fb5e363b421a056e81f171bcc55a6ff8345e692c0f86e5b48e01b996cadc001622fb5e363b421b90100000000000000000000000000000000000000000000000000000000000000000000000000000000000000000000000000000000000000000000000000000000000000000000000000000000000000000000000000000000000000000000000000000000000000000000000000000000000000000000000000000000000000000000000000000000000000000000000000000000000000000000000000000000000000000000000000000000000000000000000000000000000000000000000000000000000000000000000000000000000000000000000000000000000000000000000000000000000000000000000000000000000000000000000000000000008080887fffffffffffffff808000a000000000000000000000000000000000000000000000000000000000000200008800000000000000000ba056e81f171bcc55a6ff8345e692c0f86e5b48e01b996cadc001622fb5e363b4218083060000a00000000000000000000000000000000000000000000000000000000000000000c0c0c0",
        "lastblockhash" : "0x4428322dd2db1ea512e3c65c1f5acb12609c9ebb5df5c3d527b74c4cdbbc8ea3",
        "network" : "Shanghai",
        "postState" : {
            "Z000f3df6d732807ef1319fb7b8bb8522d0beac02" : {
                "balance" : "0x00",
                "code" : "0x3373fffffffffffffffffffffffffffffffffffffffe14604d57602036146024575f5ffd5b5f35801560495762001fff810690815414603c575f5ffd5b62001fff01545f5260205ff35b5f5ffd5b62001fff42064281555f359062001fff015500",
                "nonce" : "0x01",
                "storage" : {
                    "0x03e8" : "0x03e8"
                }
            },
            "0x095e7baea6a6c7c4c2dfeb977efac326af552d87" : {
                "balance" : "0x3c81798c",
                "code" : "0x7f00000000000000000000000000000000000000000000000000000000000000007f000000000000000000000000ffffffffffffffffffffffffffffffffffffffff427f00000000000000000000000000000000000000000000000000000000000000017f000000000000000000000000ffffffffffffffffffffffffffffffffffffffff7f0000000000000000000000000000000000000000000000000000000000000000307ffffffffffffffffffffffffffffffffffffffffffffffffffffffffffffffffe6fa1109af20740728e72150a7a9c09595560005155",
                "nonce" : "0x00",
                "storage" : {
                    "0x00" : "0xa1109af20740728e72150a7a9c095955"
                }
            },
            "0x945304eb96065b2a98b57a48a06ae28d285a71b5" : {
                "balance" : "0x2e",
                "code" : "0x6000355415600957005b60203560003555",
                "nonce" : "0x00",
                "storage" : {
                }
            },
            "0xa94f5374fce5edbc8e2a8697c15331677e6ebf0b" : {
                "balance" : "0x0de0b6b36adba250",
                "code" : "0x",
                "nonce" : "0x01",
                "storage" : {
                }
            }
        },
        "pre" : {
            "Z000f3df6d732807ef1319fb7b8bb8522d0beac02" : {
                "balance" : "0x00",
                "code" : "0x3373fffffffffffffffffffffffffffffffffffffffe14604d57602036146024575f5ffd5b5f35801560495762001fff810690815414603c575f5ffd5b62001fff01545f5260205ff35b5f5ffd5b62001fff42064281555f359062001fff015500",
                "nonce" : "0x01",
                "storage" : {
                }
            },
            "0x095e7baea6a6c7c4c2dfeb977efac326af552d87" : {
                "balance" : "0x00",
                "code" : "0x7f00000000000000000000000000000000000000000000000000000000000000007f000000000000000000000000ffffffffffffffffffffffffffffffffffffffff427f00000000000000000000000000000000000000000000000000000000000000017f000000000000000000000000ffffffffffffffffffffffffffffffffffffffff7f0000000000000000000000000000000000000000000000000000000000000000307ffffffffffffffffffffffffffffffffffffffffffffffffffffffffffffffffe6fa1109af20740728e72150a7a9c09595560005155",
                "nonce" : "0x00",
                "storage" : {
                }
            },
            "0x945304eb96065b2a98b57a48a06ae28d285a71b5" : {
                "balance" : "0x2e",
                "code" : "0x6000355415600957005b60203560003555",
                "nonce" : "0x00",
                "storage" : {
                }
            },
            "0xa94f5374fce5edbc8e2a8697c15331677e6ebf0b" : {
                "balance" : "0x0de0b6b3a7640000",
                "code" : "0x",
                "nonce" : "0x00",
                "storage" : {
                }
            }
        },
        "sealEngine" : "NoProof"
    },
    "randomStatetest83_d0g0v0_Prague" : {
        "_info" : {
            "comment" : "",
            "filling-rpc-server" : "evmone-t8n 0.14.0-13+commit.4d363c36",
            "filling-tool-version" : "retesteth-0.3.2-legacy+commit.ca7f4c79.Linux.g++",
            "fixture-format" : "blockchain_test",
            "generatedTestHash" : "63953a9840d67b4d57afe0b505af05c975b20ccdb28f54cd1f9cf2ef32bfb6fc",
            "lllcversion" : "Version: 0.5.14-develop.2024.11.5+commit.b2b86751.mod.Linux.g++",
            "hyperion" : "Version: 0.8.24+commit.e11b9ed9.Linux.g++",
            "source" : "src/GeneralStateTestsFiller/stRandom/randomStatetest83Filler.json",
            "sourceHash" : "3022d982dffd6afd936ad5286fada85bd9291a92a78f776f2be6058540e9ed85"
        },
        "blocks" : [
            {
                "blockHeader" : {
                    "baseFeePerGas" : "0x0a",
                    "bloom" : "0x00000000000000000000000000000000000000000000000000000000000000000000000000000000000000000000000000000000000000000000000000000000000000000000000000000000000000000000000000000000000000000000000000000000000000000000000000000000000000000000000000000000000000000000000000000000000000000000000000000000000000000000000000000000000000000000000000000000000000000000000000000000000000000000000000000000000000000000000000000000000000000000000000000000000000000000000000000000000000000000000000000000000000000000000000000000",
                    "coinbase" : "Z945304eb96065b2a98b57a48a06ae28d285a71b5",
                    "extraData" : "0x00",
                    "gasLimit" : "0x7fffffffffffffff",
                    "gasUsed" : "0xb06a",
                    "hash" : "0x1fb4ab568f482beddfdf04c2bd7cfac9e21564b4d899d556f2b27b892fdbba6f",
                    "mixHash" : "0x0000000000000000000000000000000000000000000000000000000000020000",
                    "nonce" : "0x0000000000000000",
                    "number" : "0x01",
                    "parentHash" : "0x09b81719e296ee2d53db48b879bcdbe8c2c568467396c3c409b9bb36a875d501",
                    "receiptTrie" : "0x40e010fb8660a2d090d28673ac7c58063c9bff4c748f8f45a3acd439afb13eea",
                    "requestsHash" : "0xe3b0c44298fc1c149afbf4c8996fb92427ae41e4649b934ca495991b7852b855",
                    "stateRoot" : "0xefb18181987c844693aace5552307976276e8fef82b56ff9ab28af835f3c49e4",
                    "timestamp" : "0x03e8",
                    "transactionsTrie" : "0x5da696c7a2b2c158215cf3775f3541ca0684daf983adf6a8331142f3d05a9da9",
                    "withdrawalsRoot" : "0x56e81f171bcc55a6ff8345e692c0f86e5b48e01b996cadc001622fb5e363b421"
                },
                "rlp" : "0xf903a8f9025fa009b81719e296ee2d53db48b879bcdbe8c2c568467396c3c409b9bb36a875d501a01dcc4de8dec75d7aab85b567b6ccd41ad312451b948a7413f0a142fd40d4934794945304eb96065b2a98b57a48a06ae28d285a71b5a0efb18181987c844693aace5552307976276e8fef82b56ff9ab28af835f3c49e4a05da696c7a2b2c158215cf3775f3541ca0684daf983adf6a8331142f3d05a9da9a040e010fb8660a2d090d28673ac7c58063c9bff4c748f8f45a3acd439afb13eeab90100000000000000000000000000000000000000000000000000000000000000000000000000000000000000000000000000000000000000000000000000000000000000000000000000000000000000000000000000000000000000000000000000000000000000000000000000000000000000000000000000000000000000000000000000000000000000000000000000000000000000000000000000000000000000000000000000000000000000000000000000000000000000000000000000000000000000000000000000000000000000000000000000000000000000000000000000000000000000000000000000000000000000000000000000000000008001887fffffffffffffff82b06a8203e800a000000000000000000000000000000000000000000000000000000000000200008800000000000000000aa056e81f171bcc55a6ff8345e692c0f86e5b48e01b996cadc001622fb5e363b4218080a00000000000000000000000000000000000000000000000000000000000000000a0e3b0c44298fc1c149afbf4c8996fb92427ae41e4649b934ca495991b7852b855f90141f9013e800a841845c69994095e7baea6a6c7c4c2dfeb977efac326af552d87843c81798cb8d87f00000000000000000000000000000000000000000000000000000000000000007f000000000000000000000000ffffffffffffffffffffffffffffffffffffffff427f00000000000000000000000000000000000000000000000000000000000000017f000000000000000000000000ffffffffffffffffffffffffffffffffffffffff7f0000000000000000000000000000000000000000000000000000000000000000307ffffffffffffffffffffffffffffffffffffffffffffffffffffffffffffffffe6fa1109af20740728e72150a7a9c09591ca07d90a8d88e82619a95a79ea77becac9245217741cd514623df703ad9e7250a0ea02bea885696471e1ebc8d48f5c44794b58b791a505ccfb429c949d83485ed2fa7c0c0",
                "transactions" : [
                    {
                        "data" : "0x7f00000000000000000000000000000000000000000000000000000000000000007f000000000000000000000000ffffffffffffffffffffffffffffffffffffffff427f00000000000000000000000000000000000000000000000000000000000000017f000000000000000000000000ffffffffffffffffffffffffffffffffffffffff7f0000000000000000000000000000000000000000000000000000000000000000307ffffffffffffffffffffffffffffffffffffffffffffffffffffffffffffffffe6fa1109af20740728e72150a7a9c0959",
                        "gasLimit" : "0x1845c699",
                        "gasPrice" : "0x0a",
                        "nonce" : "0x00",
                        "signature" : "0x7d90a8d88e82619a95a79ea77becac9245217741cd514623df703ad9e7250a0e",
                        "publicKey" : "0x2bea885696471e1ebc8d48f5c44794b58b791a505ccfb429c949d83485ed2fa7",
                        "sender" : "Za94f5374fce5edbc8e2a8697c15331677e6ebf0b",
                        "to" : "0x095e7baea6a6c7c4c2dfeb977efac326af552d87",
                        "v" : "0x1c",
                        "value" : "0x3c81798c"
                    }
                ],
                "uncleHeaders" : [
                ],
                "withdrawals" : [
                ]
            }
        ],
        "config" : {
            "blobSchedule" : {
                "Prague" : {
                    "baseFeeUpdateFraction" : "0x4c6964",
                    "max" : "0x09",
                    "target" : "0x06"
                }
            },
            "chainid" : "0x01",
            "network" : "Shanghai"
        },
        "genesisBlockHeader" : {
            "baseFeePerGas" : "0x0b",
            "bloom" : "0x00000000000000000000000000000000000000000000000000000000000000000000000000000000000000000000000000000000000000000000000000000000000000000000000000000000000000000000000000000000000000000000000000000000000000000000000000000000000000000000000000000000000000000000000000000000000000000000000000000000000000000000000000000000000000000000000000000000000000000000000000000000000000000000000000000000000000000000000000000000000000000000000000000000000000000000000000000000000000000000000000000000000000000000000000000000",
            "coinbase" : "Z945304eb96065b2a98b57a48a06ae28d285a71b5",
            "extraData" : "0x00",
            "gasLimit" : "0x7fffffffffffffff",
            "gasUsed" : "0x00",
            "hash" : "0x09b81719e296ee2d53db48b879bcdbe8c2c568467396c3c409b9bb36a875d501",
            "mixHash" : "0x0000000000000000000000000000000000000000000000000000000000020000",
            "nonce" : "0x0000000000000000",
            "number" : "0x00",
            "parentHash" : "0x0000000000000000000000000000000000000000000000000000000000000000",
            "receiptTrie" : "0x56e81f171bcc55a6ff8345e692c0f86e5b48e01b996cadc001622fb5e363b421",
            "requestsHash" : "0xe3b0c44298fc1c149afbf4c8996fb92427ae41e4649b934ca495991b7852b855",
            "stateRoot" : "0x0a5bb7d3081b30ca10ef4db6ed9c1f84d4707dcbbd6afb2a456dd97345ae6ba0",
            "timestamp" : "0x00",
            "transactionsTrie" : "0x56e81f171bcc55a6ff8345e692c0f86e5b48e01b996cadc001622fb5e363b421",
            "withdrawalsRoot" : "0x56e81f171bcc55a6ff8345e692c0f86e5b48e01b996cadc001622fb5e363b421"
        },
        "genesisRLP" : "0xf90264f9025ea00000000000000000000000000000000000000000000000000000000000000000a01dcc4de8dec75d7aab85b567b6ccd41ad312451b948a7413f0a142fd40d4934794945304eb96065b2a98b57a48a06ae28d285a71b5a00a5bb7d3081b30ca10ef4db6ed9c1f84d4707dcbbd6afb2a456dd97345ae6ba0a056e81f171bcc55a6ff8345e692c0f86e5b48e01b996cadc001622fb5e363b421a056e81f171bcc55a6ff8345e692c0f86e5b48e01b996cadc001622fb5e363b421b90100000000000000000000000000000000000000000000000000000000000000000000000000000000000000000000000000000000000000000000000000000000000000000000000000000000000000000000000000000000000000000000000000000000000000000000000000000000000000000000000000000000000000000000000000000000000000000000000000000000000000000000000000000000000000000000000000000000000000000000000000000000000000000000000000000000000000000000000000000000000000000000000000000000000000000000000000000000000000000000000000000000000000000000000000000000008080887fffffffffffffff808000a000000000000000000000000000000000000000000000000000000000000200008800000000000000000ba056e81f171bcc55a6ff8345e692c0f86e5b48e01b996cadc001622fb5e363b4218083060000a00000000000000000000000000000000000000000000000000000000000000000a0e3b0c44298fc1c149afbf4c8996fb92427ae41e4649b934ca495991b7852b855c0c0c0",
        "lastblockhash" : "0x1fb4ab568f482beddfdf04c2bd7cfac9e21564b4d899d556f2b27b892fdbba6f",
        "network" : "Shanghai",
        "postState" : {
            "Z0000f90827f1c53a10cb7a02335b175320002935" : {
                "balance" : "0x00",
                "code" : "0x3373fffffffffffffffffffffffffffffffffffffffe14604657602036036042575f35600143038111604257611fff81430311604257611fff9006545f5260205ff35b5f5ffd5b5f35611fff60014303065500",
                "nonce" : "0x01",
                "storage" : {
                    "0x00" : "0x09b81719e296ee2d53db48b879bcdbe8c2c568467396c3c409b9bb36a875d501"
                }
            },
            "0x000f3df6d732807ef1319fb7b8bb8522d0beac02" : {
                "balance" : "0x00",
                "code" : "0x3373fffffffffffffffffffffffffffffffffffffffe14604d57602036146024575f5ffd5b5f35801560495762001fff810690815414603c575f5ffd5b62001fff01545f5260205ff35b5f5ffd5b62001fff42064281555f359062001fff015500",
                "nonce" : "0x01",
                "storage" : {
                    "0x03e8" : "0x03e8"
                }
            },
            "0x095e7baea6a6c7c4c2dfeb977efac326af552d87" : {
                "balance" : "0x3c81798c",
                "code" : "0x7f00000000000000000000000000000000000000000000000000000000000000007f000000000000000000000000ffffffffffffffffffffffffffffffffffffffff427f00000000000000000000000000000000000000000000000000000000000000017f000000000000000000000000ffffffffffffffffffffffffffffffffffffffff7f0000000000000000000000000000000000000000000000000000000000000000307ffffffffffffffffffffffffffffffffffffffffffffffffffffffffffffffffe6fa1109af20740728e72150a7a9c09595560005155",
                "nonce" : "0x00",
                "storage" : {
                    "0x00" : "0xa1109af20740728e72150a7a9c095955"
                }
            },
            "0x945304eb96065b2a98b57a48a06ae28d285a71b5" : {
                "balance" : "0x2e",
                "code" : "0x6000355415600957005b60203560003555",
                "nonce" : "0x00",
                "storage" : {
                }
            },
            "0xa94f5374fce5edbc8e2a8697c15331677e6ebf0b" : {
                "balance" : "0x0de0b6b36adba250",
                "code" : "0x",
                "nonce" : "0x01",
                "storage" : {
                }
            }
        },
        "pre" : {
            "Z0000f90827f1c53a10cb7a02335b175320002935" : {
                "balance" : "0x00",
                "code" : "0x3373fffffffffffffffffffffffffffffffffffffffe14604657602036036042575f35600143038111604257611fff81430311604257611fff9006545f5260205ff35b5f5ffd5b5f35611fff60014303065500",
                "nonce" : "0x01",
                "storage" : {
                }
            },
            "0x000f3df6d732807ef1319fb7b8bb8522d0beac02" : {
                "balance" : "0x00",
                "code" : "0x3373fffffffffffffffffffffffffffffffffffffffe14604d57602036146024575f5ffd5b5f35801560495762001fff810690815414603c575f5ffd5b62001fff01545f5260205ff35b5f5ffd5b62001fff42064281555f359062001fff015500",
                "nonce" : "0x01",
                "storage" : {
                }
            },
            "0x095e7baea6a6c7c4c2dfeb977efac326af552d87" : {
                "balance" : "0x00",
                "code" : "0x7f00000000000000000000000000000000000000000000000000000000000000007f000000000000000000000000ffffffffffffffffffffffffffffffffffffffff427f00000000000000000000000000000000000000000000000000000000000000017f000000000000000000000000ffffffffffffffffffffffffffffffffffffffff7f0000000000000000000000000000000000000000000000000000000000000000307ffffffffffffffffffffffffffffffffffffffffffffffffffffffffffffffffe6fa1109af20740728e72150a7a9c09595560005155",
                "nonce" : "0x00",
                "storage" : {
                }
            },
            "0x945304eb96065b2a98b57a48a06ae28d285a71b5" : {
                "balance" : "0x2e",
                "code" : "0x6000355415600957005b60203560003555",
                "nonce" : "0x00",
                "storage" : {
                }
            },
            "0xa94f5374fce5edbc8e2a8697c15331677e6ebf0b" : {
                "balance" : "0x0de0b6b3a7640000",
                "code" : "0x",
                "nonce" : "0x00",
                "storage" : {
                }
            }
        },
        "sealEngine" : "NoProof"
    }
}