{
    "randomStatetest138_d0g0v0_Cancun" : {
        "_info" : {
            "comment" : "",
            "filling-rpc-server" : "evmone-t8n 0.14.0-13+commit.4d363c36",
            "filling-tool-version" : "retesteth-0.3.2-legacy+commit.ca7f4c79.Linux.g++",
            "fixture-format" : "blockchain_test",
            "generatedTestHash" : "5d2b084f0579171ba5736e22cb5b416273038eef9cf0746981e518b62516aee9",
            "lllcversion" : "Version: 0.5.14-develop.2024.11.5+commit.b2b86751.mod.Linux.g++",
            "solidity" : "Version: 0.8.24+commit.e11b9ed9.Linux.g++",
            "source" : "src/GeneralStateTestsFiller/stRandom/randomStatetest138Filler.json",
            "sourceHash" : "934ebaf7737810cd57a1517936c6cf879e89723973bca526687f507ab201606a"
        },
        "blocks" : [
            {
                "blockHeader" : {
                    "baseFeePerGas" : "0x0a",
                    "blobGasUsed" : "0x00",
                    "bloom" : "0x00000000000000000000000000000000000000000000000000000000000000000000000000000000000000000000000000000000000000000000000000000000000000000000000000000000000000000000000000000000000000000000000000000000000000000000000000000000000000000000000000000000000000000000000000000000000000000000000000000000000000000000000000000000000000000000000000000000000000000000000000000000000000000000000000000000000000000000000000000000000000000000000000000000000000000000000000000000000000000000000000000000000000000000000000000000",
                    "coinbase" : "0x945304eb96065b2a98b57a48a06ae28d285a71b5",
                    "difficulty" : "0x00",
                    "excessBlobGas" : "0x00",
                    "extraData" : "0x00",
                    "gasLimit" : "0x7fffffffffffffff",
                    "gasUsed" : "0x015585",
                    "hash" : "0x50002143487f55490a791c745964db2f38fd626b86a45cac52e2f18e7de68ad0",
                    "mixHash" : "0x0000000000000000000000000000000000000000000000000000000000020000",
                    "nonce" : "0x0000000000000000",
                    "number" : "0x01",
                    "parentBeaconBlockRoot" : "0x0000000000000000000000000000000000000000000000000000000000000000",
                    "parentHash" : "0xaa395d091ce75b1486a6445b28891a10f2a6f62776ba9991b9bfdaad078faecd",
                    "receiptTrie" : "0xa65e939e6796b78e2da17996b937f1c465aaf75ea9e71c9704fc0c947c128bee",
                    "stateRoot" : "0x97a81e23a6d26e93008b7a6e86f7f9bd48d04cf37a9af524db96c404c1f582df",
                    "timestamp" : "0x03e8",
                    "transactionsTrie" : "0x911fce4b2347790edb9a058a02e26dc0447ae8d2dc09db453af771ddd3805957",
                    "uncleHash" : "0x1dcc4de8dec75d7aab85b567b6ccd41ad312451b948a7413f0a142fd40d49347",
                    "withdrawalsRoot" : "0x56e81f171bcc55a6ff8345e692c0f86e5b48e01b996cadc001622fb5e363b421"
                },
                "rlp" : "0xf9039bf9023fa0aa395d091ce75b1486a6445b28891a10f2a6f62776ba9991b9bfdaad078faecda01dcc4de8dec75d7aab85b567b6ccd41ad312451b948a7413f0a142fd40d4934794945304eb96065b2a98b57a48a06ae28d285a71b5a097a81e23a6d26e93008b7a6e86f7f9bd48d04cf37a9af524db96c404c1f582dfa0911fce4b2347790edb9a058a02e26dc0447ae8d2dc09db453af771ddd3805957a0a65e939e6796b78e2da17996b937f1c465aaf75ea9e71c9704fc0c947c128beeb90100000000000000000000000000000000000000000000000000000000000000000000000000000000000000000000000000000000000000000000000000000000000000000000000000000000000000000000000000000000000000000000000000000000000000000000000000000000000000000000000000000000000000000000000000000000000000000000000000000000000000000000000000000000000000000000000000000000000000000000000000000000000000000000000000000000000000000000000000000000000000000000000000000000000000000000000000000000000000000000000000000000000000000000000000000000008001887fffffffffffffff830155858203e800a000000000000000000000000000000000000000000000000000000000000200008800000000000000000aa056e81f171bcc55a6ff8345e692c0f86e5b48e01b996cadc001622fb5e363b4218080a00000000000000000000000000000000000000000000000000000000000000000f90154f90151800a8453e9ea8494095e7baea6a6c7c4c2dfeb977efac326af552d8784771a8daab8eb7f000000000000000000000000ffffffffffffffffffffffffffffffffffffffff7f000000000000000000000000000000000000000000000000000000000000c3507f00000000000000000000000000000000000000000000000000000000000000017f000000000000000000000000000000000000000000000000000000000000c3507f000000000000000000000000000000000000000000000000000000000000c3507f000000000000000000000000000000000000000000000000000000000000c350447f0000000000000000000000000000000000000000000000000000000000000001f159511ba026113f56397fb3a028d41d0dbf2bf90d617406a9ca579db7a1b378df8d7b66d7a01ee19ac458d1b4cdc261adb408e7631428478a6cf8336cb1529bdcbf87120d87c0c0",
                "transactions" : [
                    {
                        "data" : "0x7f000000000000000000000000ffffffffffffffffffffffffffffffffffffffff7f000000000000000000000000000000000000000000000000000000000000c3507f00000000000000000000000000000000000000000000000000000000000000017f000000000000000000000000000000000000000000000000000000000000c3507f000000000000000000000000000000000000000000000000000000000000c3507f000000000000000000000000000000000000000000000000000000000000c350447f0000000000000000000000000000000000000000000000000000000000000001f15951",
                        "gasLimit" : "0x53e9ea84",
                        "gasPrice" : "0x0a",
                        "nonce" : "0x00",
                        "r" : "0x26113f56397fb3a028d41d0dbf2bf90d617406a9ca579db7a1b378df8d7b66d7",
                        "s" : "0x1ee19ac458d1b4cdc261adb408e7631428478a6cf8336cb1529bdcbf87120d87",
                        "sender" : "0xa94f5374fce5edbc8e2a8697c15331677e6ebf0b",
                        "to" : "0x095e7baea6a6c7c4c2dfeb977efac326af552d87",
                        "v" : "0x1b",
                        "value" : "0x771a8daa"
                    }
                ],
                "uncleHeaders" : [
                ],
                "withdrawals" : [
                ]
            }
        ],
        "config" : {
            "blobSchedule" : {
                "Cancun" : {
                    "baseFeeUpdateFraction" : "0x32f0ed",
                    "max" : "0x06",
                    "target" : "0x03"
                }
            },
            "chainid" : "0x01",
            "network" : "Cancun"
        },
        "genesisBlockHeader" : {
            "baseFeePerGas" : "0x0b",
            "blobGasUsed" : "0x00",
            "bloom" : "0x00000000000000000000000000000000000000000000000000000000000000000000000000000000000000000000000000000000000000000000000000000000000000000000000000000000000000000000000000000000000000000000000000000000000000000000000000000000000000000000000000000000000000000000000000000000000000000000000000000000000000000000000000000000000000000000000000000000000000000000000000000000000000000000000000000000000000000000000000000000000000000000000000000000000000000000000000000000000000000000000000000000000000000000000000000000",
            "coinbase" : "0x945304eb96065b2a98b57a48a06ae28d285a71b5",
            "difficulty" : "0x00",
            "excessBlobGas" : "0x060000",
            "extraData" : "0x00",
            "gasLimit" : "0x7fffffffffffffff",
            "gasUsed" : "0x00",
            "hash" : "0xaa395d091ce75b1486a6445b28891a10f2a6f62776ba9991b9bfdaad078faecd",
            "mixHash" : "0x0000000000000000000000000000000000000000000000000000000000020000",
            "nonce" : "0x0000000000000000",
            "number" : "0x00",
            "parentBeaconBlockRoot" : "0x0000000000000000000000000000000000000000000000000000000000000000",
            "parentHash" : "0x0000000000000000000000000000000000000000000000000000000000000000",
            "receiptTrie" : "0x56e81f171bcc55a6ff8345e692c0f86e5b48e01b996cadc001622fb5e363b421",
            "stateRoot" : "0x0ea78ff1d3633e3a76fb242869d3e3596d260cb9a90b83998443e294e2b888c7",
            "timestamp" : "0x00",
            "transactionsTrie" : "0x56e81f171bcc55a6ff8345e692c0f86e5b48e01b996cadc001622fb5e363b421",
            "uncleHash" : "0x1dcc4de8dec75d7aab85b567b6ccd41ad312451b948a7413f0a142fd40d49347",
            "withdrawalsRoot" : "0x56e81f171bcc55a6ff8345e692c0f86e5b48e01b996cadc001622fb5e363b421"
        },
        "genesisRLP" : "0xf90243f9023da00000000000000000000000000000000000000000000000000000000000000000a01dcc4de8dec75d7aab85b567b6ccd41ad312451b948a7413f0a142fd40d4934794945304eb96065b2a98b57a48a06ae28d285a71b5a00ea78ff1d3633e3a76fb242869d3e3596d260cb9a90b83998443e294e2b888c7a056e81f171bcc55a6ff8345e692c0f86e5b48e01b996cadc001622fb5e363b421a056e81f171bcc55a6ff8345e692c0f86e5b48e01b996cadc001622fb5e363b421b90100000000000000000000000000000000000000000000000000000000000000000000000000000000000000000000000000000000000000000000000000000000000000000000000000000000000000000000000000000000000000000000000000000000000000000000000000000000000000000000000000000000000000000000000000000000000000000000000000000000000000000000000000000000000000000000000000000000000000000000000000000000000000000000000000000000000000000000000000000000000000000000000000000000000000000000000000000000000000000000000000000000000000000000000000000000008080887fffffffffffffff808000a000000000000000000000000000000000000000000000000000000000000200008800000000000000000ba056e81f171bcc55a6ff8345e692c0f86e5b48e01b996cadc001622fb5e363b4218083060000a00000000000000000000000000000000000000000000000000000000000000000c0c0c0",
        "lastblockhash" : "0x50002143487f55490a791c745964db2f38fd626b86a45cac52e2f18e7de68ad0",
        "network" : "Cancun",
        "postState" : {
            "0x0000000000000000000000000000000000020000" : {
                "balance" : "0xc350",
                "code" : "0x",
                "nonce" : "0x00",
                "storage" : {
                }
            },
            "0x000f3df6d732807ef1319fb7b8bb8522d0beac02" : {
                "balance" : "0x00",
                "code" : "0x3373fffffffffffffffffffffffffffffffffffffffe14604d57602036146024575f5ffd5b5f35801560495762001fff810690815414603c575f5ffd5b62001fff01545f5260205ff35b5f5ffd5b62001fff42064281555f359062001fff015500",
                "nonce" : "0x01",
                "storage" : {
                    "0x03e8" : "0x03e8"
                }
            },
            "0x095e7baea6a6c7c4c2dfeb977efac326af552d87" : {
                "balance" : "0x7719ca5a",
                "code" : "0x7f000000000000000000000000ffffffffffffffffffffffffffffffffffffffff7f000000000000000000000000000000000000000000000000000000000000c3507f00000000000000000000000000000000000000000000000000000000000000017f000000000000000000000000000000000000000000000000000000000000c3507f000000000000000000000000000000000000000000000000000000000000c3507f000000000000000000000000000000000000000000000000000000000000c350447f0000000000000000000000000000000000000000000000000000000000000001f1595160005155",
                "nonce" : "0x00",
                "storage" : {
                }
            },
            "0x945304eb96065b2a98b57a48a06ae28d285a71b5" : {
                "balance" : "0x2e",
                "code" : "0x6000355415600957005b60203560003555",
                "nonce" : "0x00",
                "storage" : {
                }
            },
            "0xa94f5374fce5edbc8e2a8697c15331677e6ebf0b" : {
                "balance" : "0x0de0b6b3303c1b24",
                "code" : "0x",
                "nonce" : "0x01",
                "storage" : {
                }
            }
        },
        "pre" : {
            "0x000f3df6d732807ef1319fb7b8bb8522d0beac02" : {
                "balance" : "0x00",
                "code" : "0x3373fffffffffffffffffffffffffffffffffffffffe14604d57602036146024575f5ffd5b5f35801560495762001fff810690815414603c575f5ffd5b62001fff01545f5260205ff35b5f5ffd5b62001fff42064281555f359062001fff015500",
                "nonce" : "0x01",
                "storage" : {
                }
            },
            "0x095e7baea6a6c7c4c2dfeb977efac326af552d87" : {
                "balance" : "0x00",
                "code" : "0x7f000000000000000000000000ffffffffffffffffffffffffffffffffffffffff7f000000000000000000000000000000000000000000000000000000000000c3507f00000000000000000000000000000000000000000000000000000000000000017f000000000000000000000000000000000000000000000000000000000000c3507f000000000000000000000000000000000000000000000000000000000000c3507f000000000000000000000000000000000000000000000000000000000000c350447f0000000000000000000000000000000000000000000000000000000000000001f1595160005155",
                "nonce" : "0x00",
                "storage" : {
                }
            },
            "0x945304eb96065b2a98b57a48a06ae28d285a71b5" : {
                "balance" : "0x2e",
                "code" : "0x6000355415600957005b60203560003555",
                "nonce" : "0x00",
                "storage" : {
                }
            },
            "0xa94f5374fce5edbc8e2a8697c15331677e6ebf0b" : {
                "balance" : "0x0de0b6b3a7640000",
                "code" : "0x",
                "nonce" : "0x00",
                "storage" : {
                }
            }
        },
        "sealEngine" : "NoProof"
    },
    "randomStatetest138_d0g0v0_Prague" : {
        "_info" : {
            "comment" : "",
            "filling-rpc-server" : "evmone-t8n 0.14.0-13+commit.4d363c36",
            "filling-tool-version" : "retesteth-0.3.2-legacy+commit.ca7f4c79.Linux.g++",
            "fixture-format" : "blockchain_test",
            "generatedTestHash" : "a5278e0f81d6ecbd58892dff0f0d1eea3de192277dc28109544a219b3e25335f",
            "lllcversion" : "Version: 0.5.14-develop.2024.11.5+commit.b2b86751.mod.Linux.g++",
            "solidity" : "Version: 0.8.24+commit.e11b9ed9.Linux.g++",
            "source" : "src/GeneralStateTestsFiller/stRandom/randomStatetest138Filler.json",
            "sourceHash" : "934ebaf7737810cd57a1517936c6cf879e89723973bca526687f507ab201606a"
        },
        "blocks" : [
            {
                "blockHeader" : {
                    "baseFeePerGas" : "0x0a",
                    "blobGasUsed" : "0x00",
                    "bloom" : "0x00000000000000000000000000000000000000000000000000000000000000000000000000000000000000000000000000000000000000000000000000000000000000000000000000000000000000000000000000000000000000000000000000000000000000000000000000000000000000000000000000000000000000000000000000000000000000000000000000000000000000000000000000000000000000000000000000000000000000000000000000000000000000000000000000000000000000000000000000000000000000000000000000000000000000000000000000000000000000000000000000000000000000000000000000000000",
                    "coinbase" : "0x945304eb96065b2a98b57a48a06ae28d285a71b5",
                    "difficulty" : "0x00",
                    "excessBlobGas" : "0x00",
                    "extraData" : "0x00",
                    "gasLimit" : "0x7fffffffffffffff",
                    "gasUsed" : "0x015585",
                    "hash" : "0xe341fb54f5946324f648fd0f12dec3753710d899de566bb785ddc8e016f58678",
                    "mixHash" : "0x0000000000000000000000000000000000000000000000000000000000020000",
                    "nonce" : "0x0000000000000000",
                    "number" : "0x01",
                    "parentBeaconBlockRoot" : "0x0000000000000000000000000000000000000000000000000000000000000000",
                    "parentHash" : "0x9516f4cf98627738d969e62fefed3babc370463bbb2d001a6992d2dffd2db88d",
                    "receiptTrie" : "0xa65e939e6796b78e2da17996b937f1c465aaf75ea9e71c9704fc0c947c128bee",
                    "requestsHash" : "0xe3b0c44298fc1c149afbf4c8996fb92427ae41e4649b934ca495991b7852b855",
                    "stateRoot" : "0x336437ecc74d7b06f09be4ffc74e7f88560e5c14bfbbfaeee25f20347fef01ed",
                    "timestamp" : "0x03e8",
                    "transactionsTrie" : "0x911fce4b2347790edb9a058a02e26dc0447ae8d2dc09db453af771ddd3805957",
                    "uncleHash" : "0x1dcc4de8dec75d7aab85b567b6ccd41ad312451b948a7413f0a142fd40d49347",
                    "withdrawalsRoot" : "0x56e81f171bcc55a6ff8345e692c0f86e5b48e01b996cadc001622fb5e363b421"
                },
                "rlp" : "0xf903bcf90260a09516f4cf98627738d969e62fefed3babc370463bbb2d001a6992d2dffd2db88da01dcc4de8dec75d7aab85b567b6ccd41ad312451b948a7413f0a142fd40d4934794945304eb96065b2a98b57a48a06ae28d285a71b5a0336437ecc74d7b06f09be4ffc74e7f88560e5c14bfbbfaeee25f20347fef01eda0911fce4b2347790edb9a058a02e26dc0447ae8d2dc09db453af771ddd3805957a0a65e939e6796b78e2da17996b937f1c465aaf75ea9e71c9704fc0c947c128beeb90100000000000000000000000000000000000000000000000000000000000000000000000000000000000000000000000000000000000000000000000000000000000000000000000000000000000000000000000000000000000000000000000000000000000000000000000000000000000000000000000000000000000000000000000000000000000000000000000000000000000000000000000000000000000000000000000000000000000000000000000000000000000000000000000000000000000000000000000000000000000000000000000000000000000000000000000000000000000000000000000000000000000000000000000000000000008001887fffffffffffffff830155858203e800a000000000000000000000000000000000000000000000000000000000000200008800000000000000000aa056e81f171bcc55a6ff8345e692c0f86e5b48e01b996cadc001622fb5e363b4218080a00000000000000000000000000000000000000000000000000000000000000000a0e3b0c44298fc1c149afbf4c8996fb92427ae41e4649b934ca495991b7852b855f90154f90151800a8453e9ea8494095e7baea6a6c7c4c2dfeb977efac326af552d8784771a8daab8eb7f000000000000000000000000ffffffffffffffffffffffffffffffffffffffff7f000000000000000000000000000000000000000000000000000000000000c3507f00000000000000000000000000000000000000000000000000000000000000017f000000000000000000000000000000000000000000000000000000000000c3507f000000000000000000000000000000000000000000000000000000000000c3507f000000000000000000000000000000000000000000000000000000000000c350447f0000000000000000000000000000000000000000000000000000000000000001f159511ba026113f56397fb3a028d41d0dbf2bf90d617406a9ca579db7a1b378df8d7b66d7a01ee19ac458d1b4cdc261adb408e7631428478a6cf8336cb1529bdcbf87120d87c0c0",
                "transactions" : [
                    {
                        "data" : "0x7f000000000000000000000000ffffffffffffffffffffffffffffffffffffffff7f000000000000000000000000000000000000000000000000000000000000c3507f00000000000000000000000000000000000000000000000000000000000000017f000000000000000000000000000000000000000000000000000000000000c3507f000000000000000000000000000000000000000000000000000000000000c3507f000000000000000000000000000000000000000000000000000000000000c350447f0000000000000000000000000000000000000000000000000000000000000001f15951",
                        "gasLimit" : "0x53e9ea84",
                        "gasPrice" : "0x0a",
                        "nonce" : "0x00",
                        "r" : "0x26113f56397fb3a028d41d0dbf2bf90d617406a9ca579db7a1b378df8d7b66d7",
                        "s" : "0x1ee19ac458d1b4cdc261adb408e7631428478a6cf8336cb1529bdcbf87120d87",
                        "sender" : "0xa94f5374fce5edbc8e2a8697c15331677e6ebf0b",
                        "to" : "0x095e7baea6a6c7c4c2dfeb977efac326af552d87",
                        "v" : "0x1b",
                        "value" : "0x771a8daa"
                    }
                ],
                "uncleHeaders" : [
                ],
                "withdrawals" : [
                ]
            }
        ],
        "config" : {
            "blobSchedule" : {
                "Prague" : {
                    "baseFeeUpdateFraction" : "0x4c6964",
                    "max" : "0x09",
                    "target" : "0x06"
                }
            },
            "chainid" : "0x01",
            "network" : "Prague"
        },
        "genesisBlockHeader" : {
            "baseFeePerGas" : "0x0b",
            "blobGasUsed" : "0x00",
            "bloom" : "0x00000000000000000000000000000000000000000000000000000000000000000000000000000000000000000000000000000000000000000000000000000000000000000000000000000000000000000000000000000000000000000000000000000000000000000000000000000000000000000000000000000000000000000000000000000000000000000000000000000000000000000000000000000000000000000000000000000000000000000000000000000000000000000000000000000000000000000000000000000000000000000000000000000000000000000000000000000000000000000000000000000000000000000000000000000000",
            "coinbase" : "0x945304eb96065b2a98b57a48a06ae28d285a71b5",
            "difficulty" : "0x00",
            "excessBlobGas" : "0x060000",
            "extraData" : "0x00",
            "gasLimit" : "0x7fffffffffffffff",
            "gasUsed" : "0x00",
            "hash" : "0x9516f4cf98627738d969e62fefed3babc370463bbb2d001a6992d2dffd2db88d",
            "mixHash" : "0x0000000000000000000000000000000000000000000000000000000000020000",
            "nonce" : "0x0000000000000000",
            "number" : "0x00",
            "parentBeaconBlockRoot" : "0x0000000000000000000000000000000000000000000000000000000000000000",
            "parentHash" : "0x0000000000000000000000000000000000000000000000000000000000000000",
            "receiptTrie" : "0x56e81f171bcc55a6ff8345e692c0f86e5b48e01b996cadc001622fb5e363b421",
            "requestsHash" : "0xe3b0c44298fc1c149afbf4c8996fb92427ae41e4649b934ca495991b7852b855",
            "stateRoot" : "0x20b805f847e99429b5cc8c4d2df16fd9a18e69c28b2e79a4ba0ee98fd68cd7ea",
            "timestamp" : "0x00",
            "transactionsTrie" : "0x56e81f171bcc55a6ff8345e692c0f86e5b48e01b996cadc001622fb5e363b421",
            "uncleHash" : "0x1dcc4de8dec75d7aab85b567b6ccd41ad312451b948a7413f0a142fd40d49347",
            "withdrawalsRoot" : "0x56e81f171bcc55a6ff8345e692c0f86e5b48e01b996cadc001622fb5e363b421"
        },
        "genesisRLP" : "0xf90264f9025ea00000000000000000000000000000000000000000000000000000000000000000a01dcc4de8dec75d7aab85b567b6ccd41ad312451b948a7413f0a142fd40d4934794945304eb96065b2a98b57a48a06ae28d285a71b5a020b805f847e99429b5cc8c4d2df16fd9a18e69c28b2e79a4ba0ee98fd68cd7eaa056e81f171bcc55a6ff8345e692c0f86e5b48e01b996cadc001622fb5e363b421a056e81f171bcc55a6ff8345e692c0f86e5b48e01b996cadc001622fb5e363b421b90100000000000000000000000000000000000000000000000000000000000000000000000000000000000000000000000000000000000000000000000000000000000000000000000000000000000000000000000000000000000000000000000000000000000000000000000000000000000000000000000000000000000000000000000000000000000000000000000000000000000000000000000000000000000000000000000000000000000000000000000000000000000000000000000000000000000000000000000000000000000000000000000000000000000000000000000000000000000000000000000000000000000000000000000000000000008080887fffffffffffffff808000a000000000000000000000000000000000000000000000000000000000000200008800000000000000000ba056e81f171bcc55a6ff8345e692c0f86e5b48e01b996cadc001622fb5e363b4218083060000a00000000000000000000000000000000000000000000000000000000000000000a0e3b0c44298fc1c149afbf4c8996fb92427ae41e4649b934ca495991b7852b855c0c0c0",
        "lastblockhash" : "0xe341fb54f5946324f648fd0f12dec3753710d899de566bb785ddc8e016f58678",
        "network" : "Prague",
        "postState" : {
            "0x0000000000000000000000000000000000020000" : {
                "balance" : "0xc350",
                "code" : "0x",
                "nonce" : "0x00",
                "storage" : {
                }
            },
            "0x0000f90827f1c53a10cb7a02335b175320002935" : {
                "balance" : "0x00",
                "code" : "0x3373fffffffffffffffffffffffffffffffffffffffe14604657602036036042575f35600143038111604257611fff81430311604257611fff9006545f5260205ff35b5f5ffd5b5f35611fff60014303065500",
                "nonce" : "0x01",
                "storage" : {
                    "0x00" : "0x9516f4cf98627738d969e62fefed3babc370463bbb2d001a6992d2dffd2db88d"
                }
            },
            "0x000f3df6d732807ef1319fb7b8bb8522d0beac02" : {
                "balance" : "0x00",
                "code" : "0x3373fffffffffffffffffffffffffffffffffffffffe14604d57602036146024575f5ffd5b5f35801560495762001fff810690815414603c575f5ffd5b62001fff01545f5260205ff35b5f5ffd5b62001fff42064281555f359062001fff015500",
                "nonce" : "0x01",
                "storage" : {
                    "0x03e8" : "0x03e8"
                }
            },
            "0x095e7baea6a6c7c4c2dfeb977efac326af552d87" : {
                "balance" : "0x7719ca5a",
                "code" : "0x7f000000000000000000000000ffffffffffffffffffffffffffffffffffffffff7f000000000000000000000000000000000000000000000000000000000000c3507f00000000000000000000000000000000000000000000000000000000000000017f000000000000000000000000000000000000000000000000000000000000c3507f000000000000000000000000000000000000000000000000000000000000c3507f000000000000000000000000000000000000000000000000000000000000c350447f0000000000000000000000000000000000000000000000000000000000000001f1595160005155",
                "nonce" : "0x00",
                "storage" : {
                }
            },
            "0x945304eb96065b2a98b57a48a06ae28d285a71b5" : {
                "balance" : "0x2e",
                "code" : "0x6000355415600957005b60203560003555",
                "nonce" : "0x00",
                "storage" : {
                }
            },
            "0xa94f5374fce5edbc8e2a8697c15331677e6ebf0b" : {
                "balance" : "0x0de0b6b3303c1b24",
                "code" : "0x",
                "nonce" : "0x01",
                "storage" : {
                }
            }
        },
        "pre" : {
            "0x0000f90827f1c53a10cb7a02335b175320002935" : {
                "balance" : "0x00",
                "code" : "0x3373fffffffffffffffffffffffffffffffffffffffe14604657602036036042575f35600143038111604257611fff81430311604257611fff9006545f5260205ff35b5f5ffd5b5f35611fff60014303065500",
                "nonce" : "0x01",
                "storage" : {
                }
            },
            "0x000f3df6d732807ef1319fb7b8bb8522d0beac02" : {
                "balance" : "0x00",
                "code" : "0x3373fffffffffffffffffffffffffffffffffffffffe14604d57602036146024575f5ffd5b5f35801560495762001fff810690815414603c575f5ffd5b62001fff01545f5260205ff35b5f5ffd5b62001fff42064281555f359062001fff015500",
                "nonce" : "0x01",
                "storage" : {
                }
            },
            "0x095e7baea6a6c7c4c2dfeb977efac326af552d87" : {
                "balance" : "0x00",
                "code" : "0x7f000000000000000000000000ffffffffffffffffffffffffffffffffffffffff7f000000000000000000000000000000000000000000000000000000000000c3507f00000000000000000000000000000000000000000000000000000000000000017f000000000000000000000000000000000000000000000000000000000000c3507f000000000000000000000000000000000000000000000000000000000000c3507f000000000000000000000000000000000000000000000000000000000000c350447f0000000000000000000000000000000000000000000000000000000000000001f1595160005155",
                "nonce" : "0x00",
                "storage" : {
                }
            },
            "0x945304eb96065b2a98b57a48a06ae28d285a71b5" : {
                "balance" : "0x2e",
                "code" : "0x6000355415600957005b60203560003555",
                "nonce" : "0x00",
                "storage" : {
                }
            },
            "0xa94f5374fce5edbc8e2a8697c15331677e6ebf0b" : {
                "balance" : "0x0de0b6b3a7640000",
                "code" : "0x",
                "nonce" : "0x00",
                "storage" : {
                }
            }
        },
        "sealEngine" : "NoProof"
    }
}