{
    "randomStatetest62_d0g0v0_Cancun" : {
        "_info" : {
            "comment" : "",
            "filling-rpc-server" : "evmone-t8n 0.14.0-13+commit.4d363c36",
            "filling-tool-version" : "retesteth-0.3.2-legacy+commit.ca7f4c79.Linux.g++",
            "fixture-format" : "blockchain_test",
            "generatedTestHash" : "9570f2d028196f37e178c748a5176cdfbb77d2b43dabc4d34eb4484a6a227842",
            "lllcversion" : "Version: 0.5.14-develop.2024.11.5+commit.b2b86751.mod.Linux.g++",
            "hyperion" : "Version: 0.8.24+commit.e11b9ed9.Linux.g++",
            "source" : "src/GeneralStateTestsFiller/stRandom/randomStatetest62Filler.json",
            "sourceHash" : "2e5dcaadd3f4da9fe850c159d223c1d173bad3512e646b2dbe3b3ff9b51a3330"
        },
        "blocks" : [
            {
                "blockHeader" : {
                    "baseFeePerGas" : "0x0a",
                    "bloom" : "0x00000000000000000000000000000000000000000000000000000000000000000000000000000000000000000000000000000000000000000000000000000000000000000000000000000000000000000000000000000000000000000000000000000000000000000000000000000000000000000000000000000000000000000000000000000000000000000000000000000000000000000000000000000000000000000000000000000000000000000000000000000000000000000000000000000000000000000000000000000000000000000000000000000000000000000000000000000000000000000000000000000000000000000000000000000000",
                    "coinbase" : "0x945304eb96065b2a98b57a48a06ae28d285a71b5",
                    "extraData" : "0x00",
                    "gasLimit" : "0x7fffffffffffffff",
                    "gasUsed" : "0xb35b",
                    "hash" : "0x092dfef2a1a880d07a6e9a162d3f4ae61343ba0cdbd64ce958264094cdda6d21",
                    "mixHash" : "0x0000000000000000000000000000000000000000000000000000000000020000",
                    "nonce" : "0x0000000000000000",
                    "number" : "0x01",
                    "parentHash" : "0xc4ac8c05dba023929d78f4a140a7f217d40626753317cb3f206051bff1efd6d6",
                    "receiptTrie" : "0x0fc3338dd2d58ba5d42bf7c88e26047ad61982c07715bc75307e5bfe11a136f6",
                    "stateRoot" : "0xddeeda933b89f1401f1987974362152769d9935d4520eb643af0ccc8a497f48f",
                    "timestamp" : "0x03e8",
                    "transactionsTrie" : "0x2567fda997f2567d5bcce95dfde7d21fd20f74b85caf795d4fb6c1f7c6bf88b1",
                    "withdrawalsRoot" : "0x56e81f171bcc55a6ff8345e692c0f86e5b48e01b996cadc001622fb5e363b421"
                },
                "rlp" : "0xf903a7f9023ea0c4ac8c05dba023929d78f4a140a7f217d40626753317cb3f206051bff1efd6d6a01dcc4de8dec75d7aab85b567b6ccd41ad312451b948a7413f0a142fd40d4934794945304eb96065b2a98b57a48a06ae28d285a71b5a0ddeeda933b89f1401f1987974362152769d9935d4520eb643af0ccc8a497f48fa02567fda997f2567d5bcce95dfde7d21fd20f74b85caf795d4fb6c1f7c6bf88b1a00fc3338dd2d58ba5d42bf7c88e26047ad61982c07715bc75307e5bfe11a136f6b90100000000000000000000000000000000000000000000000000000000000000000000000000000000000000000000000000000000000000000000000000000000000000000000000000000000000000000000000000000000000000000000000000000000000000000000000000000000000000000000000000000000000000000000000000000000000000000000000000000000000000000000000000000000000000000000000000000000000000000000000000000000000000000000000000000000000000000000000000000000000000000000000000000000000000000000000000000000000000000000000000000000000000000000000000000000008001887fffffffffffffff82b35b8203e800a000000000000000000000000000000000000000000000000000000000000200008800000000000000000aa056e81f171bcc55a6ff8345e692c0f86e5b48e01b996cadc001622fb5e363b4218080a00000000000000000000000000000000000000000000000000000000000000000f90161f9015e800a841e2fa4a594095e7baea6a6c7c4c2dfeb977efac326af552d8784493fbf98b8f87f00000000000000000000000000000000000000000000000000000000000000007fffffffffffffffffffffffffffffffffffffffffffffffffffffffffffffffff7f000000000000000000000000ffffffffffffffffffffffffffffffffffffffff7f000000000000000000000000945304eb96065b2a98b57a48a06ae28d285a71b57fffffffffffffffffffffffffffffffffffffffffffffffffffffffffffffffff437f000000000000000000000000ffffffffffffffffffffffffffffffffffffffff7f00000000000000000000000000000000000000000000000000000000000000016f7268713013964a96ac5758043325011ca0b2e2665fb187b892e405b12e68c355bc5460a1eeeed2527d5d22cf61a9664596a01741cc93ad7ba3aa2f2a90c848e04e7908807c60eea8eb42c1bb0a3c97309f0ac0c0",
                "transactions" : [
                    {
                        "data" : "0x7f00000000000000000000000000000000000000000000000000000000000000007fffffffffffffffffffffffffffffffffffffffffffffffffffffffffffffffff7f000000000000000000000000ffffffffffffffffffffffffffffffffffffffff7f000000000000000000000000945304eb96065b2a98b57a48a06ae28d285a71b57fffffffffffffffffffffffffffffffffffffffffffffffffffffffffffffffff437f000000000000000000000000ffffffffffffffffffffffffffffffffffffffff7f00000000000000000000000000000000000000000000000000000000000000016f7268713013964a96ac575804332501",
                        "gasLimit" : "0x1e2fa4a5",
                        "gasPrice" : "0x0a",
                        "nonce" : "0x00",
                        "r" : "0xb2e2665fb187b892e405b12e68c355bc5460a1eeeed2527d5d22cf61a9664596",
                        "s" : "0x1741cc93ad7ba3aa2f2a90c848e04e7908807c60eea8eb42c1bb0a3c97309f0a",
                        "sender" : "0xa94f5374fce5edbc8e2a8697c15331677e6ebf0b",
                        "to" : "0x095e7baea6a6c7c4c2dfeb977efac326af552d87",
                        "v" : "0x1c",
                        "value" : "0x493fbf98"
                    }
                ],
                "uncleHeaders" : [
                ],
                "withdrawals" : [
                ]
            }
        ],
        "config" : {
            "blobSchedule" : {
                "Cancun" : {
                    "baseFeeUpdateFraction" : "0x32f0ed",
                    "max" : "0x06",
                    "target" : "0x03"
                }
            },
            "chainid" : "0x01",
            "network" : "Cancun"
        },
        "genesisBlockHeader" : {
            "baseFeePerGas" : "0x0b",
            "bloom" : "0x00000000000000000000000000000000000000000000000000000000000000000000000000000000000000000000000000000000000000000000000000000000000000000000000000000000000000000000000000000000000000000000000000000000000000000000000000000000000000000000000000000000000000000000000000000000000000000000000000000000000000000000000000000000000000000000000000000000000000000000000000000000000000000000000000000000000000000000000000000000000000000000000000000000000000000000000000000000000000000000000000000000000000000000000000000000",
            "coinbase" : "0x945304eb96065b2a98b57a48a06ae28d285a71b5",
            "extraData" : "0x00",
            "gasLimit" : "0x7fffffffffffffff",
            "gasUsed" : "0x00",
            "hash" : "0xc4ac8c05dba023929d78f4a140a7f217d40626753317cb3f206051bff1efd6d6",
            "mixHash" : "0x0000000000000000000000000000000000000000000000000000000000020000",
            "nonce" : "0x0000000000000000",
            "number" : "0x00",
            "parentHash" : "0x0000000000000000000000000000000000000000000000000000000000000000",
            "receiptTrie" : "0x56e81f171bcc55a6ff8345e692c0f86e5b48e01b996cadc001622fb5e363b421",
            "stateRoot" : "0x39009be3dccac836a55c6cd6b900d4d1a6672e8ffd982a6d8e6cace41ddc76bf",
            "timestamp" : "0x00",
            "transactionsTrie" : "0x56e81f171bcc55a6ff8345e692c0f86e5b48e01b996cadc001622fb5e363b421",
            "withdrawalsRoot" : "0x56e81f171bcc55a6ff8345e692c0f86e5b48e01b996cadc001622fb5e363b421"
        },
        "genesisRLP" : "0xf90243f9023da00000000000000000000000000000000000000000000000000000000000000000a01dcc4de8dec75d7aab85b567b6ccd41ad312451b948a7413f0a142fd40d4934794945304eb96065b2a98b57a48a06ae28d285a71b5a039009be3dccac836a55c6cd6b900d4d1a6672e8ffd982a6d8e6cace41ddc76bfa056e81f171bcc55a6ff8345e692c0f86e5b48e01b996cadc001622fb5e363b421a056e81f171bcc55a6ff8345e692c0f86e5b48e01b996cadc001622fb5e363b421b90100000000000000000000000000000000000000000000000000000000000000000000000000000000000000000000000000000000000000000000000000000000000000000000000000000000000000000000000000000000000000000000000000000000000000000000000000000000000000000000000000000000000000000000000000000000000000000000000000000000000000000000000000000000000000000000000000000000000000000000000000000000000000000000000000000000000000000000000000000000000000000000000000000000000000000000000000000000000000000000000000000000000000000000000000000000008080887fffffffffffffff808000a000000000000000000000000000000000000000000000000000000000000200008800000000000000000ba056e81f171bcc55a6ff8345e692c0f86e5b48e01b996cadc001622fb5e363b4218083060000a00000000000000000000000000000000000000000000000000000000000000000c0c0c0",
        "lastblockhash" : "0x092dfef2a1a880d07a6e9a162d3f4ae61343ba0cdbd64ce958264094cdda6d21",
        "network" : "Cancun",
        "postState" : {
            "0x000f3df6d732807ef1319fb7b8bb8522d0beac02" : {
                "balance" : "0x00",
                "code" : "0x3373fffffffffffffffffffffffffffffffffffffffe14604d57602036146024575f5ffd5b5f35801560495762001fff810690815414603c575f5ffd5b62001fff01545f5260205ff35b5f5ffd5b62001fff42064281555f359062001fff015500",
                "nonce" : "0x01",
                "storage" : {
                    "0x03e8" : "0x03e8"
                }
            },
            "0x095e7baea6a6c7c4c2dfeb977efac326af552d87" : {
                "balance" : "0x493fbf98",
                "code" : "0x7f00000000000000000000000000000000000000000000000000000000000000007fffffffffffffffffffffffffffffffffffffffffffffffffffffffffffffffff7f000000000000000000000000ffffffffffffffffffffffffffffffffffffffff7f000000000000000000000000945304eb96065b2a98b57a48a06ae28d285a71b57fffffffffffffffffffffffffffffffffffffffffffffffffffffffffffffffff437f000000000000000000000000ffffffffffffffffffffffffffffffffffffffff7f00000000000000000000000000000000000000000000000000000000000000016f7268713013964a96ac5758043325015560005155",
                "nonce" : "0x00",
                "storage" : {
                    "0x00" : "0x7268713013964a96ac57580433250155"
                }
            },
            "0x945304eb96065b2a98b57a48a06ae28d285a71b5" : {
                "balance" : "0x2e",
                "code" : "0x6000355415600957005b60203560003555",
                "nonce" : "0x00",
                "storage" : {
                }
            },
            "0xa94f5374fce5edbc8e2a8697c15331677e6ebf0b" : {
                "balance" : "0x0de0b6b35e1d3eda",
                "code" : "0x",
                "nonce" : "0x01",
                "storage" : {
                }
            }
        },
        "pre" : {
            "0x000f3df6d732807ef1319fb7b8bb8522d0beac02" : {
                "balance" : "0x00",
                "code" : "0x3373fffffffffffffffffffffffffffffffffffffffe14604d57602036146024575f5ffd5b5f35801560495762001fff810690815414603c575f5ffd5b62001fff01545f5260205ff35b5f5ffd5b62001fff42064281555f359062001fff015500",
                "nonce" : "0x01",
                "storage" : {
                }
            },
            "0x095e7baea6a6c7c4c2dfeb977efac326af552d87" : {
                "balance" : "0x00",
                "code" : "0x7f00000000000000000000000000000000000000000000000000000000000000007fffffffffffffffffffffffffffffffffffffffffffffffffffffffffffffffff7f000000000000000000000000ffffffffffffffffffffffffffffffffffffffff7f000000000000000000000000945304eb96065b2a98b57a48a06ae28d285a71b57fffffffffffffffffffffffffffffffffffffffffffffffffffffffffffffffff437f000000000000000000000000ffffffffffffffffffffffffffffffffffffffff7f00000000000000000000000000000000000000000000000000000000000000016f7268713013964a96ac5758043325015560005155",
                "nonce" : "0x00",
                "storage" : {
                }
            },
            "0x945304eb96065b2a98b57a48a06ae28d285a71b5" : {
                "balance" : "0x2e",
                "code" : "0x6000355415600957005b60203560003555",
                "nonce" : "0x00",
                "storage" : {
                }
            },
            "0xa94f5374fce5edbc8e2a8697c15331677e6ebf0b" : {
                "balance" : "0x0de0b6b3a7640000",
                "code" : "0x",
                "nonce" : "0x00",
                "storage" : {
                }
            }
        },
        "sealEngine" : "NoProof"
    },
    "randomStatetest62_d0g0v0_Prague" : {
        "_info" : {
            "comment" : "",
            "filling-rpc-server" : "evmone-t8n 0.14.0-13+commit.4d363c36",
            "filling-tool-version" : "retesteth-0.3.2-legacy+commit.ca7f4c79.Linux.g++",
            "fixture-format" : "blockchain_test",
            "generatedTestHash" : "10a999160827a473a824d880841c830d8fdf2ae5692835874d150b7acc7dc780",
            "lllcversion" : "Version: 0.5.14-develop.2024.11.5+commit.b2b86751.mod.Linux.g++",
            "hyperion" : "Version: 0.8.24+commit.e11b9ed9.Linux.g++",
            "source" : "src/GeneralStateTestsFiller/stRandom/randomStatetest62Filler.json",
            "sourceHash" : "2e5dcaadd3f4da9fe850c159d223c1d173bad3512e646b2dbe3b3ff9b51a3330"
        },
        "blocks" : [
            {
                "blockHeader" : {
                    "baseFeePerGas" : "0x0a",
                    "bloom" : "0x00000000000000000000000000000000000000000000000000000000000000000000000000000000000000000000000000000000000000000000000000000000000000000000000000000000000000000000000000000000000000000000000000000000000000000000000000000000000000000000000000000000000000000000000000000000000000000000000000000000000000000000000000000000000000000000000000000000000000000000000000000000000000000000000000000000000000000000000000000000000000000000000000000000000000000000000000000000000000000000000000000000000000000000000000000000",
                    "coinbase" : "0x945304eb96065b2a98b57a48a06ae28d285a71b5",
                    "extraData" : "0x00",
                    "gasLimit" : "0x7fffffffffffffff",
                    "gasUsed" : "0xb35b",
                    "hash" : "0x3e24f30b32ec4d987afd8ffc000d5f9091436c84f1f6e162592e4aeffdc4eb0a",
                    "mixHash" : "0x0000000000000000000000000000000000000000000000000000000000020000",
                    "nonce" : "0x0000000000000000",
                    "number" : "0x01",
                    "parentHash" : "0x282244a46617e7e801bd273a94f9c985cb857228ed16438b0927579fabada87d",
                    "receiptTrie" : "0x0fc3338dd2d58ba5d42bf7c88e26047ad61982c07715bc75307e5bfe11a136f6",
                    "requestsHash" : "0xe3b0c44298fc1c149afbf4c8996fb92427ae41e4649b934ca495991b7852b855",
                    "stateRoot" : "0x8a5111fa71555d8de6c7bdc26729b284d6748869aac0b73b9f48d1fa81921ef9",
                    "timestamp" : "0x03e8",
                    "transactionsTrie" : "0x2567fda997f2567d5bcce95dfde7d21fd20f74b85caf795d4fb6c1f7c6bf88b1",
                    "withdrawalsRoot" : "0x56e81f171bcc55a6ff8345e692c0f86e5b48e01b996cadc001622fb5e363b421"
                },
                "rlp" : "0xf903c8f9025fa0282244a46617e7e801bd273a94f9c985cb857228ed16438b0927579fabada87da01dcc4de8dec75d7aab85b567b6ccd41ad312451b948a7413f0a142fd40d4934794945304eb96065b2a98b57a48a06ae28d285a71b5a08a5111fa71555d8de6c7bdc26729b284d6748869aac0b73b9f48d1fa81921ef9a02567fda997f2567d5bcce95dfde7d21fd20f74b85caf795d4fb6c1f7c6bf88b1a00fc3338dd2d58ba5d42bf7c88e26047ad61982c07715bc75307e5bfe11a136f6b90100000000000000000000000000000000000000000000000000000000000000000000000000000000000000000000000000000000000000000000000000000000000000000000000000000000000000000000000000000000000000000000000000000000000000000000000000000000000000000000000000000000000000000000000000000000000000000000000000000000000000000000000000000000000000000000000000000000000000000000000000000000000000000000000000000000000000000000000000000000000000000000000000000000000000000000000000000000000000000000000000000000000000000000000000000000008001887fffffffffffffff82b35b8203e800a000000000000000000000000000000000000000000000000000000000000200008800000000000000000aa056e81f171bcc55a6ff8345e692c0f86e5b48e01b996cadc001622fb5e363b4218080a00000000000000000000000000000000000000000000000000000000000000000a0e3b0c44298fc1c149afbf4c8996fb92427ae41e4649b934ca495991b7852b855f90161f9015e800a841e2fa4a594095e7baea6a6c7c4c2dfeb977efac326af552d8784493fbf98b8f87f00000000000000000000000000000000000000000000000000000000000000007fffffffffffffffffffffffffffffffffffffffffffffffffffffffffffffffff7f000000000000000000000000ffffffffffffffffffffffffffffffffffffffff7f000000000000000000000000945304eb96065b2a98b57a48a06ae28d285a71b57fffffffffffffffffffffffffffffffffffffffffffffffffffffffffffffffff437f000000000000000000000000ffffffffffffffffffffffffffffffffffffffff7f00000000000000000000000000000000000000000000000000000000000000016f7268713013964a96ac5758043325011ca0b2e2665fb187b892e405b12e68c355bc5460a1eeeed2527d5d22cf61a9664596a01741cc93ad7ba3aa2f2a90c848e04e7908807c60eea8eb42c1bb0a3c97309f0ac0c0",
                "transactions" : [
                    {
                        "data" : "0x7f00000000000000000000000000000000000000000000000000000000000000007fffffffffffffffffffffffffffffffffffffffffffffffffffffffffffffffff7f000000000000000000000000ffffffffffffffffffffffffffffffffffffffff7f000000000000000000000000945304eb96065b2a98b57a48a06ae28d285a71b57fffffffffffffffffffffffffffffffffffffffffffffffffffffffffffffffff437f000000000000000000000000ffffffffffffffffffffffffffffffffffffffff7f00000000000000000000000000000000000000000000000000000000000000016f7268713013964a96ac575804332501",
                        "gasLimit" : "0x1e2fa4a5",
                        "gasPrice" : "0x0a",
                        "nonce" : "0x00",
                        "r" : "0xb2e2665fb187b892e405b12e68c355bc5460a1eeeed2527d5d22cf61a9664596",
                        "s" : "0x1741cc93ad7ba3aa2f2a90c848e04e7908807c60eea8eb42c1bb0a3c97309f0a",
                        "sender" : "0xa94f5374fce5edbc8e2a8697c15331677e6ebf0b",
                        "to" : "0x095e7baea6a6c7c4c2dfeb977efac326af552d87",
                        "v" : "0x1c",
                        "value" : "0x493fbf98"
                    }
                ],
                "uncleHeaders" : [
                ],
                "withdrawals" : [
                ]
            }
        ],
        "config" : {
            "blobSchedule" : {
                "Prague" : {
                    "baseFeeUpdateFraction" : "0x4c6964",
                    "max" : "0x09",
                    "target" : "0x06"
                }
            },
            "chainid" : "0x01",
            "network" : "Prague"
        },
        "genesisBlockHeader" : {
            "baseFeePerGas" : "0x0b",
            "bloom" : "0x00000000000000000000000000000000000000000000000000000000000000000000000000000000000000000000000000000000000000000000000000000000000000000000000000000000000000000000000000000000000000000000000000000000000000000000000000000000000000000000000000000000000000000000000000000000000000000000000000000000000000000000000000000000000000000000000000000000000000000000000000000000000000000000000000000000000000000000000000000000000000000000000000000000000000000000000000000000000000000000000000000000000000000000000000000000",
            "coinbase" : "0x945304eb96065b2a98b57a48a06ae28d285a71b5",
            "extraData" : "0x00",
            "gasLimit" : "0x7fffffffffffffff",
            "gasUsed" : "0x00",
            "hash" : "0x282244a46617e7e801bd273a94f9c985cb857228ed16438b0927579fabada87d",
            "mixHash" : "0x0000000000000000000000000000000000000000000000000000000000020000",
            "nonce" : "0x0000000000000000",
            "number" : "0x00",
            "parentHash" : "0x0000000000000000000000000000000000000000000000000000000000000000",
            "receiptTrie" : "0x56e81f171bcc55a6ff8345e692c0f86e5b48e01b996cadc001622fb5e363b421",
            "requestsHash" : "0xe3b0c44298fc1c149afbf4c8996fb92427ae41e4649b934ca495991b7852b855",
            "stateRoot" : "0xdc0de4232cfc26386ac90cb9e7f9eb1ed1c6b179002c95d1f75af977134f7bea",
            "timestamp" : "0x00",
            "transactionsTrie" : "0x56e81f171bcc55a6ff8345e692c0f86e5b48e01b996cadc001622fb5e363b421",
            "withdrawalsRoot" : "0x56e81f171bcc55a6ff8345e692c0f86e5b48e01b996cadc001622fb5e363b421"
        },
        "genesisRLP" : "0xf90264f9025ea00000000000000000000000000000000000000000000000000000000000000000a01dcc4de8dec75d7aab85b567b6ccd41ad312451b948a7413f0a142fd40d4934794945304eb96065b2a98b57a48a06ae28d285a71b5a0dc0de4232cfc26386ac90cb9e7f9eb1ed1c6b179002c95d1f75af977134f7beaa056e81f171bcc55a6ff8345e692c0f86e5b48e01b996cadc001622fb5e363b421a056e81f171bcc55a6ff8345e692c0f86e5b48e01b996cadc001622fb5e363b421b90100000000000000000000000000000000000000000000000000000000000000000000000000000000000000000000000000000000000000000000000000000000000000000000000000000000000000000000000000000000000000000000000000000000000000000000000000000000000000000000000000000000000000000000000000000000000000000000000000000000000000000000000000000000000000000000000000000000000000000000000000000000000000000000000000000000000000000000000000000000000000000000000000000000000000000000000000000000000000000000000000000000000000000000000000000000008080887fffffffffffffff808000a000000000000000000000000000000000000000000000000000000000000200008800000000000000000ba056e81f171bcc55a6ff8345e692c0f86e5b48e01b996cadc001622fb5e363b4218083060000a00000000000000000000000000000000000000000000000000000000000000000a0e3b0c44298fc1c149afbf4c8996fb92427ae41e4649b934ca495991b7852b855c0c0c0",
        "lastblockhash" : "0x3e24f30b32ec4d987afd8ffc000d5f9091436c84f1f6e162592e4aeffdc4eb0a",
        "network" : "Prague",
        "postState" : {
            "0x0000f90827f1c53a10cb7a02335b175320002935" : {
                "balance" : "0x00",
                "code" : "0x3373fffffffffffffffffffffffffffffffffffffffe14604657602036036042575f35600143038111604257611fff81430311604257611fff9006545f5260205ff35b5f5ffd5b5f35611fff60014303065500",
                "nonce" : "0x01",
                "storage" : {
                    "0x00" : "0x282244a46617e7e801bd273a94f9c985cb857228ed16438b0927579fabada87d"
                }
            },
            "0x000f3df6d732807ef1319fb7b8bb8522d0beac02" : {
                "balance" : "0x00",
                "code" : "0x3373fffffffffffffffffffffffffffffffffffffffe14604d57602036146024575f5ffd5b5f35801560495762001fff810690815414603c575f5ffd5b62001fff01545f5260205ff35b5f5ffd5b62001fff42064281555f359062001fff015500",
                "nonce" : "0x01",
                "storage" : {
                    "0x03e8" : "0x03e8"
                }
            },
            "0x095e7baea6a6c7c4c2dfeb977efac326af552d87" : {
                "balance" : "0x493fbf98",
                "code" : "0x7f00000000000000000000000000000000000000000000000000000000000000007fffffffffffffffffffffffffffffffffffffffffffffffffffffffffffffffff7f000000000000000000000000ffffffffffffffffffffffffffffffffffffffff7f000000000000000000000000945304eb96065b2a98b57a48a06ae28d285a71b57fffffffffffffffffffffffffffffffffffffffffffffffffffffffffffffffff437f000000000000000000000000ffffffffffffffffffffffffffffffffffffffff7f00000000000000000000000000000000000000000000000000000000000000016f7268713013964a96ac5758043325015560005155",
                "nonce" : "0x00",
                "storage" : {
                    "0x00" : "0x7268713013964a96ac57580433250155"
                }
            },
            "0x945304eb96065b2a98b57a48a06ae28d285a71b5" : {
                "balance" : "0x2e",
                "code" : "0x6000355415600957005b60203560003555",
                "nonce" : "0x00",
                "storage" : {
                }
            },
            "0xa94f5374fce5edbc8e2a8697c15331677e6ebf0b" : {
                "balance" : "0x0de0b6b35e1d3eda",
                "code" : "0x",
                "nonce" : "0x01",
                "storage" : {
                }
            }
        },
        "pre" : {
            "0x0000f90827f1c53a10cb7a02335b175320002935" : {
                "balance" : "0x00",
                "code" : "0x3373fffffffffffffffffffffffffffffffffffffffe14604657602036036042575f35600143038111604257611fff81430311604257611fff9006545f5260205ff35b5f5ffd5b5f35611fff60014303065500",
                "nonce" : "0x01",
                "storage" : {
                }
            },
            "0x000f3df6d732807ef1319fb7b8bb8522d0beac02" : {
                "balance" : "0x00",
                "code" : "0x3373fffffffffffffffffffffffffffffffffffffffe14604d57602036146024575f5ffd5b5f35801560495762001fff810690815414603c575f5ffd5b62001fff01545f5260205ff35b5f5ffd5b62001fff42064281555f359062001fff015500",
                "nonce" : "0x01",
                "storage" : {
                }
            },
            "0x095e7baea6a6c7c4c2dfeb977efac326af552d87" : {
                "balance" : "0x00",
                "code" : "0x7f00000000000000000000000000000000000000000000000000000000000000007fffffffffffffffffffffffffffffffffffffffffffffffffffffffffffffffff7f000000000000000000000000ffffffffffffffffffffffffffffffffffffffff7f000000000000000000000000945304eb96065b2a98b57a48a06ae28d285a71b57fffffffffffffffffffffffffffffffffffffffffffffffffffffffffffffffff437f000000000000000000000000ffffffffffffffffffffffffffffffffffffffff7f00000000000000000000000000000000000000000000000000000000000000016f7268713013964a96ac5758043325015560005155",
                "nonce" : "0x00",
                "storage" : {
                }
            },
            "0x945304eb96065b2a98b57a48a06ae28d285a71b5" : {
                "balance" : "0x2e",
                "code" : "0x6000355415600957005b60203560003555",
                "nonce" : "0x00",
                "storage" : {
                }
            },
            "0xa94f5374fce5edbc8e2a8697c15331677e6ebf0b" : {
                "balance" : "0x0de0b6b3a7640000",
                "code" : "0x",
                "nonce" : "0x00",
                "storage" : {
                }
            }
        },
        "sealEngine" : "NoProof"
    }
}