{
    "randomStatetest205_d0g0v0_Cancun" : {
        "_info" : {
            "comment" : "",
            "filling-rpc-server" : "evmone-t8n 0.14.0-13+commit.4d363c36",
            "filling-tool-version" : "retesteth-0.3.2-legacy+commit.ca7f4c79.Linux.g++",
            "fixture-format" : "blockchain_test",
            "generatedTestHash" : "75b612e04d7a9559a0e61f50291c068665ce9de250600397a6b3bab6f13cbd48",
            "lllcversion" : "Version: 0.5.14-develop.2024.11.5+commit.b2b86751.mod.Linux.g++",
            "solidity" : "Version: 0.8.24+commit.e11b9ed9.Linux.g++",
            "source" : "src/GeneralStateTestsFiller/stRandom/randomStatetest205Filler.json",
            "sourceHash" : "8511de1eabe4aeba63278afa57744da874d8d830283e3287b33259721add9d2d"
        },
        "blocks" : [
            {
                "blockHeader" : {
                    "baseFeePerGas" : "0x0a",
                    "bloom" : "0x00000000000000001000000000000000000000000000000000000000000000000000000000000000000000000000000000000000000000000000000000000000000000000000000000000000000000000000000000000000000000000000000000000000000000000000000000000000000000000000000000000000000000000000000000000000000000000000000000000000000000000000000000000000000000000000000004000000000000000000000000000000000000000000000000000000000000000000000000000000000000000000000000000000000000000000000040000000000000000000000000000000000000000000000000000000",
                    "coinbase" : "0x945304eb96065b2a98b57a48a06ae28d285a71b5",
                    "extraData" : "0x00",
                    "gasLimit" : "0x7fffffffffffffff",
                    "gasUsed" : "0x26f30a",
                    "hash" : "0x1923d6996a021adc1264e3bbbb5cbd89d7153ed02b8478e7342949a09366a1ec",
                    "mixHash" : "0x0000000000000000000000000000000000000000000000000000000000020000",
                    "nonce" : "0x0000000000000000",
                    "number" : "0x01",
                    "parentBeaconBlockRoot" : "0x0000000000000000000000000000000000000000000000000000000000000000",
                    "parentHash" : "0x6ce0e8c4315531cc8364ba5057bc4afa77205e3e7c04cae5ed3a90d2b6839678",
                    "receiptTrie" : "0x366e99ce1afd85476aa6159a249eb5df8e21e3f551d1d9bf49c873d11c598507",
                    "stateRoot" : "0x1a76bffd4d8eab675e2f823309fa6c5143a896da80e2053597d290bc599e9dad",
                    "timestamp" : "0x03e8",
                    "transactionsTrie" : "0x057caeb9cf34f176e9537348046e786c1a59cf9c3f352a76c062dcff4d78aaca",
                    "withdrawalsRoot" : "0x56e81f171bcc55a6ff8345e692c0f86e5b48e01b996cadc001622fb5e363b421"
                },
                "rlp" : "0xf9036df9023fa06ce0e8c4315531cc8364ba5057bc4afa77205e3e7c04cae5ed3a90d2b6839678a01dcc4de8dec75d7aab85b567b6ccd41ad312451b948a7413f0a142fd40d4934794945304eb96065b2a98b57a48a06ae28d285a71b5a01a76bffd4d8eab675e2f823309fa6c5143a896da80e2053597d290bc599e9dada0057caeb9cf34f176e9537348046e786c1a59cf9c3f352a76c062dcff4d78aacaa0366e99ce1afd85476aa6159a249eb5df8e21e3f551d1d9bf49c873d11c598507b90100000000000000000010000000000000000000000000000000000000000000000000000000000000000000000000000000000000000000000000000000000000000000000000000000000000000000000000000000000000000000000000000000000000000000000000000000000000000000000000000000000000000000000000000000000000000000000000000000000000000000000000000000000000000000000000000000040000000000000000000000000000000000000000000000000000000000000000000000000000000000000000000000000000000000000000000000400000000000000000000000000000000000000000000000000000008001887fffffffffffffff8326f30a8203e800a000000000000000000000000000000000000000000000000000000000000200008800000000000000000aa056e81f171bcc55a6ff8345e692c0f86e5b48e01b996cadc001622fb5e363b4218080a00000000000000000000000000000000000000000000000000000000000000000f90126f90123800a845f2173d394095e7baea6a6c7c4c2dfeb977efac326af552d87844dd39b8ab8bd74ac5e422199cb842b1fdcdef502d4142d033387c6d17fe1f03f0fc4a3c05daadf323f3bb04b7e33dbad9b32f058aa6df6d54c8d7ac95568ba4a6b33a2b0ce8d8c7480ab9e818cf8998564e6d38b92aa1ecd76aa8aff266dd266c96af419778c16a109cba6976922093e50bda96ac1333a946574ad748ad839546ff861257bb6a41cab34045ea7335e1c9667c67424f9baf8781e79e002a233a622f41f2744c21b6baed43543e0dfb9aa81fd1050326b0ebad84fda176f3438d3a7f0831ba0794ab900b4f44876a647e82f2d22be89dfa994de8ca22e547de57740e8e21b7da04ef00cf624ea87d1677347d63b4daa795291766d0725008964cff1ff93de7fdec0c0",
                "transactions" : [
                    {
                        "data" : "0x74ac5e422199cb842b1fdcdef502d4142d033387c6d17fe1f03f0fc4a3c05daadf323f3bb04b7e33dbad9b32f058aa6df6d54c8d7ac95568ba4a6b33a2b0ce8d8c7480ab9e818cf8998564e6d38b92aa1ecd76aa8aff266dd266c96af419778c16a109cba6976922093e50bda96ac1333a946574ad748ad839546ff861257bb6a41cab34045ea7335e1c9667c67424f9baf8781e79e002a233a622f41f2744c21b6baed43543e0dfb9aa81fd1050326b0ebad84fda176f3438d3a7f083",
                        "gasLimit" : "0x5f2173d3",
                        "gasPrice" : "0x0a",
                        "nonce" : "0x00",
                        "r" : "0x794ab900b4f44876a647e82f2d22be89dfa994de8ca22e547de57740e8e21b7d",
                        "s" : "0x4ef00cf624ea87d1677347d63b4daa795291766d0725008964cff1ff93de7fde",
                        "sender" : "0xa94f5374fce5edbc8e2a8697c15331677e6ebf0b",
                        "to" : "0x095e7baea6a6c7c4c2dfeb977efac326af552d87",
                        "v" : "0x1b",
                        "value" : "0x4dd39b8a"
                    }
                ],
                "uncleHeaders" : [
                ],
                "withdrawals" : [
                ]
            }
        ],
        "config" : {
            "blobSchedule" : {
                "Cancun" : {
                    "baseFeeUpdateFraction" : "0x32f0ed",
                    "max" : "0x06",
                    "target" : "0x03"
                }
            },
            "chainid" : "0x01",
            "network" : "Cancun"
        },
        "genesisBlockHeader" : {
            "baseFeePerGas" : "0x0b",
            "bloom" : "0x00000000000000000000000000000000000000000000000000000000000000000000000000000000000000000000000000000000000000000000000000000000000000000000000000000000000000000000000000000000000000000000000000000000000000000000000000000000000000000000000000000000000000000000000000000000000000000000000000000000000000000000000000000000000000000000000000000000000000000000000000000000000000000000000000000000000000000000000000000000000000000000000000000000000000000000000000000000000000000000000000000000000000000000000000000000",
            "coinbase" : "0x945304eb96065b2a98b57a48a06ae28d285a71b5",
            "extraData" : "0x00",
            "gasLimit" : "0x7fffffffffffffff",
            "gasUsed" : "0x00",
            "hash" : "0x6ce0e8c4315531cc8364ba5057bc4afa77205e3e7c04cae5ed3a90d2b6839678",
            "mixHash" : "0x0000000000000000000000000000000000000000000000000000000000020000",
            "nonce" : "0x0000000000000000",
            "number" : "0x00",
            "parentBeaconBlockRoot" : "0x0000000000000000000000000000000000000000000000000000000000000000",
            "parentHash" : "0x0000000000000000000000000000000000000000000000000000000000000000",
            "receiptTrie" : "0x56e81f171bcc55a6ff8345e692c0f86e5b48e01b996cadc001622fb5e363b421",
            "stateRoot" : "0xaa05778d7b8a0eeea9982cb3b74208fa5cb6f31cae60025b9640a308148ac492",
            "timestamp" : "0x00",
            "transactionsTrie" : "0x56e81f171bcc55a6ff8345e692c0f86e5b48e01b996cadc001622fb5e363b421",
            "withdrawalsRoot" : "0x56e81f171bcc55a6ff8345e692c0f86e5b48e01b996cadc001622fb5e363b421"
        },
        "genesisRLP" : "0xf90243f9023da00000000000000000000000000000000000000000000000000000000000000000a01dcc4de8dec75d7aab85b567b6ccd41ad312451b948a7413f0a142fd40d4934794945304eb96065b2a98b57a48a06ae28d285a71b5a0aa05778d7b8a0eeea9982cb3b74208fa5cb6f31cae60025b9640a308148ac492a056e81f171bcc55a6ff8345e692c0f86e5b48e01b996cadc001622fb5e363b421a056e81f171bcc55a6ff8345e692c0f86e5b48e01b996cadc001622fb5e363b421b90100000000000000000000000000000000000000000000000000000000000000000000000000000000000000000000000000000000000000000000000000000000000000000000000000000000000000000000000000000000000000000000000000000000000000000000000000000000000000000000000000000000000000000000000000000000000000000000000000000000000000000000000000000000000000000000000000000000000000000000000000000000000000000000000000000000000000000000000000000000000000000000000000000000000000000000000000000000000000000000000000000000000000000000000000000000008080887fffffffffffffff808000a000000000000000000000000000000000000000000000000000000000000200008800000000000000000ba056e81f171bcc55a6ff8345e692c0f86e5b48e01b996cadc001622fb5e363b4218083060000a00000000000000000000000000000000000000000000000000000000000000000c0c0c0",
        "lastblockhash" : "0x1923d6996a021adc1264e3bbbb5cbd89d7153ed02b8478e7342949a09366a1ec",
        "network" : "Cancun",
        "postState" : {
            "0x000f3df6d732807ef1319fb7b8bb8522d0beac02" : {
                "balance" : "0x00",
                "code" : "0x3373fffffffffffffffffffffffffffffffffffffffe14604d57602036146024575f5ffd5b5f35801560495762001fff810690815414603c575f5ffd5b62001fff01545f5260205ff35b5f5ffd5b62001fff42064281555f359062001fff015500",
                "nonce" : "0x01",
                "storage" : {
                    "0x03e8" : "0x03e8"
                }
            },
            "0x095e7baea6a6c7c4c2dfeb977efac326af552d87" : {
                "balance" : "0x4dd39b8a",
                "code" : "0x3360b261edefa0326fdc74d570982966277b49cdb30a453fa06c34a7423da44ba2d04341af08c478b17a57318ab10ab43b3744333b0aa8864ac27b3fd022e380056735a5fcda3e9fdc25695972a076884de6d6b6b06dd45416c8110bae3c70576b433a4672777847e81823024ddd1292b929ad28e64a732b74c0ae1941d5936ecd35738e2f279273788f4aaf19907a532a6b0f117c32b6cb967aae8bdfcf86e2d4d64599986abcf65a20754f5a816c58ed669138f6a0448670b906bbf1eb145ced896c578de5aa27769006b1a784e84b6316d4e60c7053b0b6550c70a177cb7a3e88d4e83fb1897a09c2161ff6cc2679c178292687137854da672e316c66ef03dc9ac37e8e430b7c64d1939bf67383c4bafeb2f0471fe896b7c0e114bf6f152b266cc769ae4d38f3df618f5eeb9085601f601060086016632c019e2e73095e7baea6a6c7c4c2dfeb977efac326af552d87626b8a0ef179e6b62e86237845e9605d61219d97c1d0145516f5355fe73384e87a6a87cc6d2378c81797ac3746bc562e2fd1145e14781307bc4ada39732e9d0e8725fde75c5abc313c11e3238c7cd9b7186a6a14f8d5c3cad9da5339446ad1311ccc67a0691559157a674825358b301ac42d7bcae31beb8b0849903402175ca3740f3fd690ad66287d6bf67a98c09e6de5717596052d30f4b9bb8046a6b67ef51b1b13c496e97bf9a2e67aeca97fa10a266f8cf22c10cc0375b514b25de466a146576b2cb565754efc80d4b8aa5497aa0fb4cbab90ee57298d322474d276366e04eab856c9f6070c80701fa30596dd0b6ea5bc38ba64e1d16aff1b8c61caa379064465a9308dbb1465294ddcb5fa32833e4ffb049c71761ed93472c7e58f171c6c8b51e2ec704d34897b80466e826b0c1ce2488511cbb1aaad26b075ed5ebf070be6e14eaa6b973423bcb2e0541307d88ff66d1b7e29fffb10218ca75bf3f9957d6ee27a0945278d5f9303b3e3f28a325a7f17905f7467c4afcbb3a43dbbd37e9591e3f5a82841ee9cb8b23f68b4572e8cd96d0f7daacbd3ab3bd5a8f427baf6ea7ae70d98d3948eafb74e2e4a158ac116c5219403c9073a457409c6e464bae32b2c856b15bda1b2176295fd1cecfe7d794ab2692061aa79387004112272204198437fc78d1dbe0e8932ce6f47828a2bf4df47446291b99d92a90de3623954589d36",
                "nonce" : "0x00",
                "storage" : {
                }
            },
            "0x945304eb96065b2a98b57a48a06ae28d285a71b5" : {
                "balance" : "0x2e",
                "code" : "0x6000355415600957005b60203560003555",
                "nonce" : "0x00",
                "storage" : {
                }
            },
            "0xa94f5374fce5edbc8e2a8697c15331677e6ebf0b" : {
                "balance" : "0x0de0b6b3580ae612",
                "code" : "0x",
                "nonce" : "0x01",
                "storage" : {
                }
            }
        },
        "pre" : {
            "0x000f3df6d732807ef1319fb7b8bb8522d0beac02" : {
                "balance" : "0x00",
                "code" : "0x3373fffffffffffffffffffffffffffffffffffffffe14604d57602036146024575f5ffd5b5f35801560495762001fff810690815414603c575f5ffd5b62001fff01545f5260205ff35b5f5ffd5b62001fff42064281555f359062001fff015500",
                "nonce" : "0x01",
                "storage" : {
                }
            },
            "0x095e7baea6a6c7c4c2dfeb977efac326af552d87" : {
                "balance" : "0x00",
                "code" : "0x3360b261edefa0326fdc74d570982966277b49cdb30a453fa06c34a7423da44ba2d04341af08c478b17a57318ab10ab43b3744333b0aa8864ac27b3fd022e380056735a5fcda3e9fdc25695972a076884de6d6b6b06dd45416c8110bae3c70576b433a4672777847e81823024ddd1292b929ad28e64a732b74c0ae1941d5936ecd35738e2f279273788f4aaf19907a532a6b0f117c32b6cb967aae8bdfcf86e2d4d64599986abcf65a20754f5a816c58ed669138f6a0448670b906bbf1eb145ced896c578de5aa27769006b1a784e84b6316d4e60c7053b0b6550c70a177cb7a3e88d4e83fb1897a09c2161ff6cc2679c178292687137854da672e316c66ef03dc9ac37e8e430b7c64d1939bf67383c4bafeb2f0471fe896b7c0e114bf6f152b266cc769ae4d38f3df618f5eeb9085601f601060086016632c019e2e73095e7baea6a6c7c4c2dfeb977efac326af552d87626b8a0ef179e6b62e86237845e9605d61219d97c1d0145516f5355fe73384e87a6a87cc6d2378c81797ac3746bc562e2fd1145e14781307bc4ada39732e9d0e8725fde75c5abc313c11e3238c7cd9b7186a6a14f8d5c3cad9da5339446ad1311ccc67a0691559157a674825358b301ac42d7bcae31beb8b0849903402175ca3740f3fd690ad66287d6bf67a98c09e6de5717596052d30f4b9bb8046a6b67ef51b1b13c496e97bf9a2e67aeca97fa10a266f8cf22c10cc0375b514b25de466a146576b2cb565754efc80d4b8aa5497aa0fb4cbab90ee57298d322474d276366e04eab856c9f6070c80701fa30596dd0b6ea5bc38ba64e1d16aff1b8c61caa379064465a9308dbb1465294ddcb5fa32833e4ffb049c71761ed93472c7e58f171c6c8b51e2ec704d34897b80466e826b0c1ce2488511cbb1aaad26b075ed5ebf070be6e14eaa6b973423bcb2e0541307d88ff66d1b7e29fffb10218ca75bf3f9957d6ee27a0945278d5f9303b3e3f28a325a7f17905f7467c4afcbb3a43dbbd37e9591e3f5a82841ee9cb8b23f68b4572e8cd96d0f7daacbd3ab3bd5a8f427baf6ea7ae70d98d3948eafb74e2e4a158ac116c5219403c9073a457409c6e464bae32b2c856b15bda1b2176295fd1cecfe7d794ab2692061aa79387004112272204198437fc78d1dbe0e8932ce6f47828a2bf4df47446291b99d92a90de3623954589d36",
                "nonce" : "0x00",
                "storage" : {
                }
            },
            "0x945304eb96065b2a98b57a48a06ae28d285a71b5" : {
                "balance" : "0x2e",
                "code" : "0x6000355415600957005b60203560003555",
                "nonce" : "0x00",
                "storage" : {
                }
            },
            "0xa94f5374fce5edbc8e2a8697c15331677e6ebf0b" : {
                "balance" : "0x0de0b6b3a7640000",
                "code" : "0x",
                "nonce" : "0x00",
                "storage" : {
                }
            }
        },
        "sealEngine" : "NoProof"
    },
    "randomStatetest205_d0g0v0_Prague" : {
        "_info" : {
            "comment" : "",
            "filling-rpc-server" : "evmone-t8n 0.14.0-13+commit.4d363c36",
            "filling-tool-version" : "retesteth-0.3.2-legacy+commit.ca7f4c79.Linux.g++",
            "fixture-format" : "blockchain_test",
            "generatedTestHash" : "60ed6815ea67cf5356348830e519794787fccd83c48ea41950c92def1d8bbe9a",
            "lllcversion" : "Version: 0.5.14-develop.2024.11.5+commit.b2b86751.mod.Linux.g++",
            "solidity" : "Version: 0.8.24+commit.e11b9ed9.Linux.g++",
            "source" : "src/GeneralStateTestsFiller/stRandom/randomStatetest205Filler.json",
            "sourceHash" : "8511de1eabe4aeba63278afa57744da874d8d830283e3287b33259721add9d2d"
        },
        "blocks" : [
            {
                "blockHeader" : {
                    "baseFeePerGas" : "0x0a",
                    "bloom" : "0x00000000000000001000000000000000000000000000000000000000000000000000000000000000000000000000000000000000000000000000000000000000000000000000000000000000000000000000000000000000000000000000000000000000000000000000000000000000000000000000000000000000000000000000000000000000000000000000000000000000000000000000000000000000000000000000000004000000000000000000000000000000000000000000000000000000000000000000000000000000000000000000000000000000000000000000000040000000000000000000000000000000000000000000000000000000",
                    "coinbase" : "0x945304eb96065b2a98b57a48a06ae28d285a71b5",
                    "extraData" : "0x00",
                    "gasLimit" : "0x7fffffffffffffff",
                    "gasUsed" : "0x26f30a",
                    "hash" : "0xf2419e4da94f2e4179ea724fd2c5a0d87c99c0dd6e04a262acb19a67b0b137e9",
                    "mixHash" : "0x0000000000000000000000000000000000000000000000000000000000020000",
                    "nonce" : "0x0000000000000000",
                    "number" : "0x01",
                    "parentBeaconBlockRoot" : "0x0000000000000000000000000000000000000000000000000000000000000000",
                    "parentHash" : "0xf8957ea9fb11c99761698e99b929c589a25e49a3bc12e793c7aac2c8e2f1a387",
                    "receiptTrie" : "0x366e99ce1afd85476aa6159a249eb5df8e21e3f551d1d9bf49c873d11c598507",
                    "requestsHash" : "0xe3b0c44298fc1c149afbf4c8996fb92427ae41e4649b934ca495991b7852b855",
                    "stateRoot" : "0x9d1be9285fc1b4ca76c1b2ccb31c45a3f06220bc3a97fa3fc5c7af09f1621477",
                    "timestamp" : "0x03e8",
                    "transactionsTrie" : "0x057caeb9cf34f176e9537348046e786c1a59cf9c3f352a76c062dcff4d78aaca",
                    "withdrawalsRoot" : "0x56e81f171bcc55a6ff8345e692c0f86e5b48e01b996cadc001622fb5e363b421"
                },
                "rlp" : "0xf9038ef90260a0f8957ea9fb11c99761698e99b929c589a25e49a3bc12e793c7aac2c8e2f1a387a01dcc4de8dec75d7aab85b567b6ccd41ad312451b948a7413f0a142fd40d4934794945304eb96065b2a98b57a48a06ae28d285a71b5a09d1be9285fc1b4ca76c1b2ccb31c45a3f06220bc3a97fa3fc5c7af09f1621477a0057caeb9cf34f176e9537348046e786c1a59cf9c3f352a76c062dcff4d78aacaa0366e99ce1afd85476aa6159a249eb5df8e21e3f551d1d9bf49c873d11c598507b90100000000000000000010000000000000000000000000000000000000000000000000000000000000000000000000000000000000000000000000000000000000000000000000000000000000000000000000000000000000000000000000000000000000000000000000000000000000000000000000000000000000000000000000000000000000000000000000000000000000000000000000000000000000000000000000000000040000000000000000000000000000000000000000000000000000000000000000000000000000000000000000000000000000000000000000000000400000000000000000000000000000000000000000000000000000008001887fffffffffffffff8326f30a8203e800a000000000000000000000000000000000000000000000000000000000000200008800000000000000000aa056e81f171bcc55a6ff8345e692c0f86e5b48e01b996cadc001622fb5e363b4218080a00000000000000000000000000000000000000000000000000000000000000000a0e3b0c44298fc1c149afbf4c8996fb92427ae41e4649b934ca495991b7852b855f90126f90123800a845f2173d394095e7baea6a6c7c4c2dfeb977efac326af552d87844dd39b8ab8bd74ac5e422199cb842b1fdcdef502d4142d033387c6d17fe1f03f0fc4a3c05daadf323f3bb04b7e33dbad9b32f058aa6df6d54c8d7ac95568ba4a6b33a2b0ce8d8c7480ab9e818cf8998564e6d38b92aa1ecd76aa8aff266dd266c96af419778c16a109cba6976922093e50bda96ac1333a946574ad748ad839546ff861257bb6a41cab34045ea7335e1c9667c67424f9baf8781e79e002a233a622f41f2744c21b6baed43543e0dfb9aa81fd1050326b0ebad84fda176f3438d3a7f0831ba0794ab900b4f44876a647e82f2d22be89dfa994de8ca22e547de57740e8e21b7da04ef00cf624ea87d1677347d63b4daa795291766d0725008964cff1ff93de7fdec0c0",
                "transactions" : [
                    {
                        "data" : "0x74ac5e422199cb842b1fdcdef502d4142d033387c6d17fe1f03f0fc4a3c05daadf323f3bb04b7e33dbad9b32f058aa6df6d54c8d7ac95568ba4a6b33a2b0ce8d8c7480ab9e818cf8998564e6d38b92aa1ecd76aa8aff266dd266c96af419778c16a109cba6976922093e50bda96ac1333a946574ad748ad839546ff861257bb6a41cab34045ea7335e1c9667c67424f9baf8781e79e002a233a622f41f2744c21b6baed43543e0dfb9aa81fd1050326b0ebad84fda176f3438d3a7f083",
                        "gasLimit" : "0x5f2173d3",
                        "gasPrice" : "0x0a",
                        "nonce" : "0x00",
                        "r" : "0x794ab900b4f44876a647e82f2d22be89dfa994de8ca22e547de57740e8e21b7d",
                        "s" : "0x4ef00cf624ea87d1677347d63b4daa795291766d0725008964cff1ff93de7fde",
                        "sender" : "0xa94f5374fce5edbc8e2a8697c15331677e6ebf0b",
                        "to" : "0x095e7baea6a6c7c4c2dfeb977efac326af552d87",
                        "v" : "0x1b",
                        "value" : "0x4dd39b8a"
                    }
                ],
                "uncleHeaders" : [
                ],
                "withdrawals" : [
                ]
            }
        ],
        "config" : {
            "blobSchedule" : {
                "Prague" : {
                    "baseFeeUpdateFraction" : "0x4c6964",
                    "max" : "0x09",
                    "target" : "0x06"
                }
            },
            "chainid" : "0x01",
            "network" : "Prague"
        },
        "genesisBlockHeader" : {
            "baseFeePerGas" : "0x0b",
            "bloom" : "0x00000000000000000000000000000000000000000000000000000000000000000000000000000000000000000000000000000000000000000000000000000000000000000000000000000000000000000000000000000000000000000000000000000000000000000000000000000000000000000000000000000000000000000000000000000000000000000000000000000000000000000000000000000000000000000000000000000000000000000000000000000000000000000000000000000000000000000000000000000000000000000000000000000000000000000000000000000000000000000000000000000000000000000000000000000000",
            "coinbase" : "0x945304eb96065b2a98b57a48a06ae28d285a71b5",
            "extraData" : "0x00",
            "gasLimit" : "0x7fffffffffffffff",
            "gasUsed" : "0x00",
            "hash" : "0xf8957ea9fb11c99761698e99b929c589a25e49a3bc12e793c7aac2c8e2f1a387",
            "mixHash" : "0x0000000000000000000000000000000000000000000000000000000000020000",
            "nonce" : "0x0000000000000000",
            "number" : "0x00",
            "parentBeaconBlockRoot" : "0x0000000000000000000000000000000000000000000000000000000000000000",
            "parentHash" : "0x0000000000000000000000000000000000000000000000000000000000000000",
            "receiptTrie" : "0x56e81f171bcc55a6ff8345e692c0f86e5b48e01b996cadc001622fb5e363b421",
            "requestsHash" : "0xe3b0c44298fc1c149afbf4c8996fb92427ae41e4649b934ca495991b7852b855",
            "stateRoot" : "0xc20928f802e75b48c0d5e4aecfc75b9ace5cd8a0660734b0823d1cd486ca1b46",
            "timestamp" : "0x00",
            "transactionsTrie" : "0x56e81f171bcc55a6ff8345e692c0f86e5b48e01b996cadc001622fb5e363b421",
            "withdrawalsRoot" : "0x56e81f171bcc55a6ff8345e692c0f86e5b48e01b996cadc001622fb5e363b421"
        },
        "genesisRLP" : "0xf90264f9025ea00000000000000000000000000000000000000000000000000000000000000000a01dcc4de8dec75d7aab85b567b6ccd41ad312451b948a7413f0a142fd40d4934794945304eb96065b2a98b57a48a06ae28d285a71b5a0c20928f802e75b48c0d5e4aecfc75b9ace5cd8a0660734b0823d1cd486ca1b46a056e81f171bcc55a6ff8345e692c0f86e5b48e01b996cadc001622fb5e363b421a056e81f171bcc55a6ff8345e692c0f86e5b48e01b996cadc001622fb5e363b421b90100000000000000000000000000000000000000000000000000000000000000000000000000000000000000000000000000000000000000000000000000000000000000000000000000000000000000000000000000000000000000000000000000000000000000000000000000000000000000000000000000000000000000000000000000000000000000000000000000000000000000000000000000000000000000000000000000000000000000000000000000000000000000000000000000000000000000000000000000000000000000000000000000000000000000000000000000000000000000000000000000000000000000000000000000000000008080887fffffffffffffff808000a000000000000000000000000000000000000000000000000000000000000200008800000000000000000ba056e81f171bcc55a6ff8345e692c0f86e5b48e01b996cadc001622fb5e363b4218083060000a00000000000000000000000000000000000000000000000000000000000000000a0e3b0c44298fc1c149afbf4c8996fb92427ae41e4649b934ca495991b7852b855c0c0c0",
        "lastblockhash" : "0xf2419e4da94f2e4179ea724fd2c5a0d87c99c0dd6e04a262acb19a67b0b137e9",
        "network" : "Prague",
        "postState" : {
            "0x0000f90827f1c53a10cb7a02335b175320002935" : {
                "balance" : "0x00",
                "code" : "0x3373fffffffffffffffffffffffffffffffffffffffe14604657602036036042575f35600143038111604257611fff81430311604257611fff9006545f5260205ff35b5f5ffd5b5f35611fff60014303065500",
                "nonce" : "0x01",
                "storage" : {
                    "0x00" : "0xf8957ea9fb11c99761698e99b929c589a25e49a3bc12e793c7aac2c8e2f1a387"
                }
            },
            "0x000f3df6d732807ef1319fb7b8bb8522d0beac02" : {
                "balance" : "0x00",
                "code" : "0x3373fffffffffffffffffffffffffffffffffffffffe14604d57602036146024575f5ffd5b5f35801560495762001fff810690815414603c575f5ffd5b62001fff01545f5260205ff35b5f5ffd5b62001fff42064281555f359062001fff015500",
                "nonce" : "0x01",
                "storage" : {
                    "0x03e8" : "0x03e8"
                }
            },
            "0x095e7baea6a6c7c4c2dfeb977efac326af552d87" : {
                "balance" : "0x4dd39b8a",
                "code" : "0x3360b261edefa0326fdc74d570982966277b49cdb30a453fa06c34a7423da44ba2d04341af08c478b17a57318ab10ab43b3744333b0aa8864ac27b3fd022e380056735a5fcda3e9fdc25695972a076884de6d6b6b06dd45416c8110bae3c70576b433a4672777847e81823024ddd1292b929ad28e64a732b74c0ae1941d5936ecd35738e2f279273788f4aaf19907a532a6b0f117c32b6cb967aae8bdfcf86e2d4d64599986abcf65a20754f5a816c58ed669138f6a0448670b906bbf1eb145ced896c578de5aa27769006b1a784e84b6316d4e60c7053b0b6550c70a177cb7a3e88d4e83fb1897a09c2161ff6cc2679c178292687137854da672e316c66ef03dc9ac37e8e430b7c64d1939bf67383c4bafeb2f0471fe896b7c0e114bf6f152b266cc769ae4d38f3df618f5eeb9085601f601060086016632c019e2e73095e7baea6a6c7c4c2dfeb977efac326af552d87626b8a0ef179e6b62e86237845e9605d61219d97c1d0145516f5355fe73384e87a6a87cc6d2378c81797ac3746bc562e2fd1145e14781307bc4ada39732e9d0e8725fde75c5abc313c11e3238c7cd9b7186a6a14f8d5c3cad9da5339446ad1311ccc67a0691559157a674825358b301ac42d7bcae31beb8b0849903402175ca3740f3fd690ad66287d6bf67a98c09e6de5717596052d30f4b9bb8046a6b67ef51b1b13c496e97bf9a2e67aeca97fa10a266f8cf22c10cc0375b514b25de466a146576b2cb565754efc80d4b8aa5497aa0fb4cbab90ee57298d322474d276366e04eab856c9f6070c80701fa30596dd0b6ea5bc38ba64e1d16aff1b8c61caa379064465a9308dbb1465294ddcb5fa32833e4ffb049c71761ed93472c7e58f171c6c8b51e2ec704d34897b80466e826b0c1ce2488511cbb1aaad26b075ed5ebf070be6e14eaa6b973423bcb2e0541307d88ff66d1b7e29fffb10218ca75bf3f9957d6ee27a0945278d5f9303b3e3f28a325a7f17905f7467c4afcbb3a43dbbd37e9591e3f5a82841ee9cb8b23f68b4572e8cd96d0f7daacbd3ab3bd5a8f427baf6ea7ae70d98d3948eafb74e2e4a158ac116c5219403c9073a457409c6e464bae32b2c856b15bda1b2176295fd1cecfe7d794ab2692061aa79387004112272204198437fc78d1dbe0e8932ce6f47828a2bf4df47446291b99d92a90de3623954589d36",
                "nonce" : "0x00",
                "storage" : {
                }
            },
            "0x945304eb96065b2a98b57a48a06ae28d285a71b5" : {
                "balance" : "0x2e",
                "code" : "0x6000355415600957005b60203560003555",
                "nonce" : "0x00",
                "storage" : {
                }
            },
            "0xa94f5374fce5edbc8e2a8697c15331677e6ebf0b" : {
                "balance" : "0x0de0b6b3580ae612",
                "code" : "0x",
                "nonce" : "0x01",
                "storage" : {
                }
            }
        },
        "pre" : {
            "0x0000f90827f1c53a10cb7a02335b175320002935" : {
                "balance" : "0x00",
                "code" : "0x3373fffffffffffffffffffffffffffffffffffffffe14604657602036036042575f35600143038111604257611fff81430311604257611fff9006545f5260205ff35b5f5ffd5b5f35611fff60014303065500",
                "nonce" : "0x01",
                "storage" : {
                }
            },
            "0x000f3df6d732807ef1319fb7b8bb8522d0beac02" : {
                "balance" : "0x00",
                "code" : "0x3373fffffffffffffffffffffffffffffffffffffffe14604d57602036146024575f5ffd5b5f35801560495762001fff810690815414603c575f5ffd5b62001fff01545f5260205ff35b5f5ffd5b62001fff42064281555f359062001fff015500",
                "nonce" : "0x01",
                "storage" : {
                }
            },
            "0x095e7baea6a6c7c4c2dfeb977efac326af552d87" : {
                "balance" : "0x00",
                "code" : "0x3360b261edefa0326fdc74d570982966277b49cdb30a453fa06c34a7423da44ba2d04341af08c478b17a57318ab10ab43b3744333b0aa8864ac27b3fd022e380056735a5fcda3e9fdc25695972a076884de6d6b6b06dd45416c8110bae3c70576b433a4672777847e81823024ddd1292b929ad28e64a732b74c0ae1941d5936ecd35738e2f279273788f4aaf19907a532a6b0f117c32b6cb967aae8bdfcf86e2d4d64599986abcf65a20754f5a816c58ed669138f6a0448670b906bbf1eb145ced896c578de5aa27769006b1a784e84b6316d4e60c7053b0b6550c70a177cb7a3e88d4e83fb1897a09c2161ff6cc2679c178292687137854da672e316c66ef03dc9ac37e8e430b7c64d1939bf67383c4bafeb2f0471fe896b7c0e114bf6f152b266cc769ae4d38f3df618f5eeb9085601f601060086016632c019e2e73095e7baea6a6c7c4c2dfeb977efac326af552d87626b8a0ef179e6b62e86237845e9605d61219d97c1d0145516f5355fe73384e87a6a87cc6d2378c81797ac3746bc562e2fd1145e14781307bc4ada39732e9d0e8725fde75c5abc313c11e3238c7cd9b7186a6a14f8d5c3cad9da5339446ad1311ccc67a0691559157a674825358b301ac42d7bcae31beb8b0849903402175ca3740f3fd690ad66287d6bf67a98c09e6de5717596052d30f4b9bb8046a6b67ef51b1b13c496e97bf9a2e67aeca97fa10a266f8cf22c10cc0375b514b25de466a146576b2cb565754efc80d4b8aa5497aa0fb4cbab90ee57298d322474d276366e04eab856c9f6070c80701fa30596dd0b6ea5bc38ba64e1d16aff1b8c61caa379064465a9308dbb1465294ddcb5fa32833e4ffb049c71761ed93472c7e58f171c6c8b51e2ec704d34897b80466e826b0c1ce2488511cbb1aaad26b075ed5ebf070be6e14eaa6b973423bcb2e0541307d88ff66d1b7e29fffb10218ca75bf3f9957d6ee27a0945278d5f9303b3e3f28a325a7f17905f7467c4afcbb3a43dbbd37e9591e3f5a82841ee9cb8b23f68b4572e8cd96d0f7daacbd3ab3bd5a8f427baf6ea7ae70d98d3948eafb74e2e4a158ac116c5219403c9073a457409c6e464bae32b2c856b15bda1b2176295fd1cecfe7d794ab2692061aa79387004112272204198437fc78d1dbe0e8932ce6f47828a2bf4df47446291b99d92a90de3623954589d36",
                "nonce" : "0x00",
                "storage" : {
                }
            },
            "0x945304eb96065b2a98b57a48a06ae28d285a71b5" : {
                "balance" : "0x2e",
                "code" : "0x6000355415600957005b60203560003555",
                "nonce" : "0x00",
                "storage" : {
                }
            },
            "0xa94f5374fce5edbc8e2a8697c15331677e6ebf0b" : {
                "balance" : "0x0de0b6b3a7640000",
                "code" : "0x",
                "nonce" : "0x00",
                "storage" : {
                }
            }
        },
        "sealEngine" : "NoProof"
    }
}