{
    "ContractCreationSpam" : {
        "_info" : {
            "comment" : "",
            "filling-rpc-server" : "evmone-t8n 0.14.0-13+commit.4d363c36",
            "filling-tool-version" : "retesteth-0.3.2-legacy+commit.ca7f4c79.Linux.g++",
            "fixture-format" : "state_test",
            "generatedTestHash" : "d39af52836a118fc5316cdb37a4ee0deb282b0010a45ad72de068d02abc5b84f",
            "lllcversion" : "Version: 0.5.14-develop.2024.11.5+commit.b2b86751.mod.Linux.g++",
            "hyperion" : "Version: 0.8.24+commit.e11b9ed9.Linux.g++",
            "source" : "src/GeneralStateTestsFiller/stAttackTest/ContractCreationSpamFiller.json",
            "sourceHash" : "9286ffc8102f6a0d0b79d634b7ca5d6529e905bbf1341a3df3ec9d56dae20c5a"
        },
        "config" : {
            "blobSchedule" : {
                "Cancun" : {
                    "baseFeeUpdateFraction" : "0x32f0ed",
                    "max" : "0x06",
                    "target" : "0x03"
                },
                "Prague" : {
                    "baseFeeUpdateFraction" : "0x4c6964",
                    "max" : "0x09",
                    "target" : "0x06"
                }
            },
            "chainid" : "0x01"
        },
        "env" : {
            "currentBaseFee" : "0x0a",
            "currentCoinbase" : "Z2adc25665018aa1fe0e6bc666dac8fc2697ff9ba",
            "currentGasLimit" : "0x174876e800",
            "currentNumber" : "0x01",
            "currentRandom" : "0x0000000000000000000000000000000000000000000000000000000000020000",
            "currentTimestamp" : "0x03e8"
        },
        "post" : {
            "Cancun" : [
                {
                    "hash" : "0x6e88cba6d418225c0f2eda5e97c8e02688d496e230807e220e368755113e347d",
                    "indexes" : {
                        "data" : 0,
                        "gas" : 0,
                        "value" : 0
                    },
                    "logs" : "0x1dcc4de8dec75d7aab85b567b6ccd41ad312451b948a7413f0a142fd40d49347",
                    "state" : {
                        "0x6a0a0fc761c612c340a0e98d33b37a75e5268472" : {
                            "balance" : "0x0de0b6b3a7640000",
                            "code" : "0x7f6004600c60003960046000f3600035ff00000000000000000000000000000000600052602060006000f0600054805b6001018060005260008060208180876006f1506001018060005260008060208180876006f1506001018060005260008060208180876006f1506001018060005260008060208180876006f1506001018060005260008060208180876006f1506001018060005260008060208180876006f1506001018060005260008060208180876006f1506001018060005260008060208180876006f1506001018060005260008060208180876006f1506001018060005260008060208180876006f1506001018060005260008060208180876006f1506001018060005260008060208180876006f1506001018060005260008060208180876006f1506001018060005260008060208180876006f1506001018060005260008060208180876006f1506001018060005260008060208180876006f1506001018060005260008060208180876006f1506001018060005260008060208180876006f1506001018060005260008060208180876006f1506001018060005260008060208180876006f1506001018060005260008060208180876006f1506001018060005260008060208180876006f1506001018060005260008060208180876006f1506001018060005260008060208180876006f1506001018060005260008060208180876006f1506001018060005260008060208180876006f1506001018060005260008060208180876006f1506001018060005260008060208180876006f1506001018060005260008060208180876006f1506001018060005260008060208180876006f1506001018060005260008060208180876006f1506001018060005260008060208180876006f1506001018060005260008060208180876006f1506001018060005260008060208180876006f1506001018060005260008060208180876006f1506001018060005260008060208180876006f1506001018060005260008060208180876006f1506001018060005260008060208180876006f1506001018060005260008060208180876006f1506001018060005260008060208180876006f1505a616000106200002f57600055",
                            "nonce" : "0x01",
                            "storage" : {
                                "0x00" : "0x010c20"
                            }
                        },
                        "Za94f5374fce5edbc8e2a8697c15331677e6ebf0b" : {
                            "balance" : "0x0c9f2c9cd04674edea3a0a7248",
                            "code" : "0x",
                            "nonce" : "0x01",
                            "storage" : {
                            }
                        },
                        "Zcc8c7a84d4f2872441499fa72b48bd45b03923ab" : {
                            "balance" : "0x00",
                            "code" : "0x600035ff",
                            "nonce" : "0x01",
                            "storage" : {
                            }
                        }
                    },
                    "txbytes" : "0xf860800a83989680946a0a0fc761c612c340a0e98d33b37a75e526847280801ba08bb6e17e660cdefc2f6f8124e8f11cd74ac6d91ee05d3a1aa6f513335da0e4a7a01d356c9ff34a96d10ec2e0f9d708eea9da2801a37de491c5af43df7c77d56c0c"
                }
            ],
            "Shanghai" : [
                {
                    "hash" : "0x6e88cba6d418225c0f2eda5e97c8e02688d496e230807e220e368755113e347d",
                    "indexes" : {
                        "data" : 0,
                        "gas" : 0,
                        "value" : 0
                    },
                    "logs" : "0x1dcc4de8dec75d7aab85b567b6ccd41ad312451b948a7413f0a142fd40d49347",
                    "state" : {
                        "0x6a0a0fc761c612c340a0e98d33b37a75e5268472" : {
                            "balance" : "0x0de0b6b3a7640000",
                            "code" : "0x7f6004600c60003960046000f3600035ff00000000000000000000000000000000600052602060006000f0600054805b6001018060005260008060208180876006f1506001018060005260008060208180876006f1506001018060005260008060208180876006f1506001018060005260008060208180876006f1506001018060005260008060208180876006f1506001018060005260008060208180876006f1506001018060005260008060208180876006f1506001018060005260008060208180876006f1506001018060005260008060208180876006f1506001018060005260008060208180876006f1506001018060005260008060208180876006f1506001018060005260008060208180876006f1506001018060005260008060208180876006f1506001018060005260008060208180876006f1506001018060005260008060208180876006f1506001018060005260008060208180876006f1506001018060005260008060208180876006f1506001018060005260008060208180876006f1506001018060005260008060208180876006f1506001018060005260008060208180876006f1506001018060005260008060208180876006f1506001018060005260008060208180876006f1506001018060005260008060208180876006f1506001018060005260008060208180876006f1506001018060005260008060208180876006f1506001018060005260008060208180876006f1506001018060005260008060208180876006f1506001018060005260008060208180876006f1506001018060005260008060208180876006f1506001018060005260008060208180876006f1506001018060005260008060208180876006f1506001018060005260008060208180876006f1506001018060005260008060208180876006f1506001018060005260008060208180876006f1506001018060005260008060208180876006f1506001018060005260008060208180876006f1506001018060005260008060208180876006f1506001018060005260008060208180876006f1506001018060005260008060208180876006f1506001018060005260008060208180876006f1505a616000106200002f57600055",
                            "nonce" : "0x01",
                            "storage" : {
                                "0x00" : "0x010c20"
                            }
                        },
                        "Za94f5374fce5edbc8e2a8697c15331677e6ebf0b" : {
                            "balance" : "0x0c9f2c9cd04674edea3a0a7248",
                            "code" : "0x",
                            "nonce" : "0x01",
                            "storage" : {
                            }
                        },
                        "Zcc8c7a84d4f2872441499fa72b48bd45b03923ab" : {
                            "balance" : "0x00",
                            "code" : "0x600035ff",
                            "nonce" : "0x01",
                            "storage" : {
                            }
                        }
                    },
                    "txbytes" : "0xf860800a83989680946a0a0fc761c612c340a0e98d33b37a75e526847280801ba08bb6e17e660cdefc2f6f8124e8f11cd74ac6d91ee05d3a1aa6f513335da0e4a7a01d356c9ff34a96d10ec2e0f9d708eea9da2801a37de491c5af43df7c77d56c0c"
                }
            ]
        },
        "pre" : {
            "Z6a0a0fc761c612c340a0e98d33b37a75e5268472" : {
                "balance" : "0x0de0b6b3a7640000",
                "code" : "0x7f6004600c60003960046000f3600035ff00000000000000000000000000000000600052602060006000f0600054805b6001018060005260008060208180876006f1506001018060005260008060208180876006f1506001018060005260008060208180876006f1506001018060005260008060208180876006f1506001018060005260008060208180876006f1506001018060005260008060208180876006f1506001018060005260008060208180876006f1506001018060005260008060208180876006f1506001018060005260008060208180876006f1506001018060005260008060208180876006f1506001018060005260008060208180876006f1506001018060005260008060208180876006f1506001018060005260008060208180876006f1506001018060005260008060208180876006f1506001018060005260008060208180876006f1506001018060005260008060208180876006f1506001018060005260008060208180876006f1506001018060005260008060208180876006f1506001018060005260008060208180876006f1506001018060005260008060208180876006f1506001018060005260008060208180876006f1506001018060005260008060208180876006f1506001018060005260008060208180876006f1506001018060005260008060208180876006f1506001018060005260008060208180876006f1506001018060005260008060208180876006f1506001018060005260008060208180876006f1506001018060005260008060208180876006f1506001018060005260008060208180876006f1506001018060005260008060208180876006f1506001018060005260008060208180876006f1506001018060005260008060208180876006f1506001018060005260008060208180876006f1506001018060005260008060208180876006f1506001018060005260008060208180876006f1506001018060005260008060208180876006f1506001018060005260008060208180876006f1506001018060005260008060208180876006f1506001018060005260008060208180876006f1506001018060005260008060208180876006f1505a616000106200002f57600055",
                "nonce" : "0x00",
                "storage" : {
                }
            },
            "Za94f5374fce5edbc8e2a8697c15331677e6ebf0b" : {
                "balance" : "0x0c9f2c9cd04674edea40000000",
                "code" : "0x",
                "nonce" : "0x00",
                "storage" : {
                }
            }
        },
        "transaction" : {
            "data" : [
                "0x"
            ],
            "gasLimit" : [
                "0x989680"
            ],
            "gasPrice" : "0x0a",
            "nonce" : "0x00",
            "secretKey" : "0x45a915e4d060149eb4365960e6a7a45f334393093061116b197e3240065ff2d8",
            "sender" : "Za94f5374fce5edbc8e2a8697c15331677e6ebf0b",
            "to" : "Z6a0a0fc761c612c340a0e98d33b37a75e5268472",
            "value" : [
                "0x00"
            ]
        }
    }
}