{
    "blobhashListBounds7_d0g0v0_Cancun" : {
        "_info" : {
            "comment" : "BLOB006",
            "filling-rpc-server" : "evmone-t8n 0.14.0-13+commit.4d363c36",
            "filling-tool-version" : "retesteth-0.3.2-legacy+commit.ca7f4c79.Linux.g++",
            "fixture-format" : "blockchain_test",
            "generatedTestHash" : "998fda029f6a879bd36e14956c64b43f5e322304fa5833563a45048d8aaff249",
            "lllcversion" : "Version: 0.5.14-develop.2024.11.5+commit.b2b86751.mod.Linux.g++",
            "solidity" : "Version: 0.8.24+commit.e11b9ed9.Linux.g++",
            "source" : "src/GeneralStateTestsFiller/Cancun/stEIP4844-blobtransactions/blobhashListBounds7Filler.yml",
            "sourceHash" : "7e386ea41fd7af216a903492938c18d965b4cd8f606df2409949f5f4e96d9d6d"
        },
        "blocks" : [
            {
                "expectException" : "TransactionException.TYPE_3_TX_BLOB_COUNT_EXCEEDED",
                "rlp" : "0xf903f9f90239a0b34da0734addaf3940adcc2c29ba984392de5d7ecea348080e72dc27f55e8f50a01dcc4de8dec75d7aab85b567b6ccd41ad312451b948a7413f0a142fd40d49347942adc25665018aa1fe0e6bc666dac8fc2697ff9baa0d9dc1440888a91ee19fd1845b1e337a3288ebb972ddbddb1fc92837524d134fca056e81f171bcc55a6ff8345e692c0f86e5b48e01b996cadc001622fb5e363b421a056e81f171bcc55a6ff8345e692c0f86e5b48e01b996cadc001622fb5e363b421b90100000000000000000000000000000000000000000000000000000000000000000000000000000000000000000000000000000000000000000000000000000000000000000000000000000000000000000000000000000000000000000000000000000000000000000000000000000000000000000000000000000000000000000000000000000000000000000000000000000000000000000000000000000000000000000000000000000000000000000000000000000000000000000000000000000000000000000000000000000000000000000000000000000000000000000000000000000000000000000000000000000000000000000000000000000000008001851000000000808203e800a0000000000000000000000000000000000000000000000000000000000002000088000000000000000007a056e81f171bcc55a6ff8345e692c0f86e5b48e01b996cadc001622fb5e363b4218080a00000000000000000000000000000000000000000000000000000000000000000f901b8b901b503f901b101800285012a05f200833d090094095e7baea6a6c7c4c2dfeb977efac326af552d87830186a000f85bf85994095e7baea6a6c7c4c2dfeb977efac326af552d87f842a00000000000000000000000000000000000000000000000000000000000000000a000000000000000000000000000000000000000000000000000000000000000010af8e7a001a915e4d060149eb4365960e6a7a45f334393093061116b197e3240065f0001a001a915e4d060149eb4365960e6a7a45f334393093061116b197e3240065f0002a001a915e4d060149eb4365960e6a7a45f334393093061116b197e3240065f0003a001a915e4d060149eb4365960e6a7a45f334393093061116b197e3240065f0004a001a915e4d060149eb4365960e6a7a45f334393093061116b197e3240065f0005a001a915e4d060149eb4365960e6a7a45f334393093061116b197e3240065f0006a001a915e4d060149eb4365960e6a7a45f334393093061116b197e3240065f000701a04c6a25969991d996e7f40964ba872e8dc6e8acdc422af055d9f404180dd2746ca013b66a111e61fb3ad575d456a1d976d221436f403f342ae8e78c19b177705607c0c0",
                "rlp_decoded" : {
                    "blockHeader" : {
                        "baseFeePerGas" : "0x07",
                        "blobGasUsed" : "0x00",
                        "bloom" : "0x00000000000000000000000000000000000000000000000000000000000000000000000000000000000000000000000000000000000000000000000000000000000000000000000000000000000000000000000000000000000000000000000000000000000000000000000000000000000000000000000000000000000000000000000000000000000000000000000000000000000000000000000000000000000000000000000000000000000000000000000000000000000000000000000000000000000000000000000000000000000000000000000000000000000000000000000000000000000000000000000000000000000000000000000000000000",
                        "coinbase" : "0x2adc25665018aa1fe0e6bc666dac8fc2697ff9ba",
                        "difficulty" : "0x00",
                        "excessBlobGas" : "0x00",
                        "extraData" : "0x00",
                        "gasLimit" : "0x1000000000",
                        "gasUsed" : "0x00",
                        "hash" : "0x1c8e67316aa587f7e3fff6bdcdf56774b30c8397e96e176484d5e1e40cc65141",
                        "mixHash" : "0x0000000000000000000000000000000000000000000000000000000000020000",
                        "nonce" : "0x0000000000000000",
                        "number" : "0x01",
                        "parentBeaconBlockRoot" : "0x0000000000000000000000000000000000000000000000000000000000000000",
                        "parentHash" : "0xb34da0734addaf3940adcc2c29ba984392de5d7ecea348080e72dc27f55e8f50",
                        "receiptTrie" : "0x56e81f171bcc55a6ff8345e692c0f86e5b48e01b996cadc001622fb5e363b421",
                        "stateRoot" : "0xd9dc1440888a91ee19fd1845b1e337a3288ebb972ddbddb1fc92837524d134fc",
                        "timestamp" : "0x03e8",
                        "transactionsTrie" : "0x56e81f171bcc55a6ff8345e692c0f86e5b48e01b996cadc001622fb5e363b421",
                        "uncleHash" : "0x1dcc4de8dec75d7aab85b567b6ccd41ad312451b948a7413f0a142fd40d49347",
                        "withdrawalsRoot" : "0x56e81f171bcc55a6ff8345e692c0f86e5b48e01b996cadc001622fb5e363b421"
                    },
                    "transactions" : [
                        {
                            "accessList" : [
                                {
                                    "address" : "0x095e7baea6a6c7c4c2dfeb977efac326af552d87",
                                    "storageKeys" : [
                                        "0x0000000000000000000000000000000000000000000000000000000000000000",
                                        "0x0000000000000000000000000000000000000000000000000000000000000001"
                                    ]
                                }
                            ],
                            "blobVersionedHashes" : [
                                "0x01a915e4d060149eb4365960e6a7a45f334393093061116b197e3240065f0001",
                                "0x01a915e4d060149eb4365960e6a7a45f334393093061116b197e3240065f0002",
                                "0x01a915e4d060149eb4365960e6a7a45f334393093061116b197e3240065f0003",
                                "0x01a915e4d060149eb4365960e6a7a45f334393093061116b197e3240065f0004",
                                "0x01a915e4d060149eb4365960e6a7a45f334393093061116b197e3240065f0005",
                                "0x01a915e4d060149eb4365960e6a7a45f334393093061116b197e3240065f0006",
                                "0x01a915e4d060149eb4365960e6a7a45f334393093061116b197e3240065f0007"
                            ],
                            "chainId" : "0x01",
                            "data" : "0x00",
                            "gasLimit" : "0x3d0900",
                            "maxFeePerBlobGas" : "0x0a",
                            "maxFeePerGas" : "0x012a05f200",
                            "maxPriorityFeePerGas" : "0x02",
                            "nonce" : "0x00",
                            "r" : "0x4c6a25969991d996e7f40964ba872e8dc6e8acdc422af055d9f404180dd2746c",
                            "s" : "0x13b66a111e61fb3ad575d456a1d976d221436f403f342ae8e78c19b177705607",
                            "to" : "0x095e7baea6a6c7c4c2dfeb977efac326af552d87",
                            "type" : "0x03",
                            "v" : "0x01",
                            "value" : "0x0186a0"
                        }
                    ],
                    "uncleHeaders" : [
                    ],
                    "withdrawals" : [
                    ]
                },
                "transactionSequence" : [
                    {
                        "exception" : "TransactionException.TYPE_3_TX_BLOB_COUNT_EXCEEDED",
                        "rawBytes" : "0x03f901b101800285012a05f200833d090094095e7baea6a6c7c4c2dfeb977efac326af552d87830186a000f85bf85994095e7baea6a6c7c4c2dfeb977efac326af552d87f842a00000000000000000000000000000000000000000000000000000000000000000a000000000000000000000000000000000000000000000000000000000000000010af8e7a001a915e4d060149eb4365960e6a7a45f334393093061116b197e3240065f0001a001a915e4d060149eb4365960e6a7a45f334393093061116b197e3240065f0002a001a915e4d060149eb4365960e6a7a45f334393093061116b197e3240065f0003a001a915e4d060149eb4365960e6a7a45f334393093061116b197e3240065f0004a001a915e4d060149eb4365960e6a7a45f334393093061116b197e3240065f0005a001a915e4d060149eb4365960e6a7a45f334393093061116b197e3240065f0006a001a915e4d060149eb4365960e6a7a45f334393093061116b197e3240065f000701a04c6a25969991d996e7f40964ba872e8dc6e8acdc422af055d9f404180dd2746ca013b66a111e61fb3ad575d456a1d976d221436f403f342ae8e78c19b177705607",
                        "valid" : "false"
                    }
                ]
            }
        ],
        "config" : {
            "blobSchedule" : {
                "Cancun" : {
                    "baseFeeUpdateFraction" : "0x32f0ed",
                    "max" : "0x06",
                    "target" : "0x03"
                }
            },
            "chainid" : "0x01",
            "network" : "Cancun"
        },
        "genesisBlockHeader" : {
            "baseFeePerGas" : "0x08",
            "blobGasUsed" : "0x00",
            "bloom" : "0x00000000000000000000000000000000000000000000000000000000000000000000000000000000000000000000000000000000000000000000000000000000000000000000000000000000000000000000000000000000000000000000000000000000000000000000000000000000000000000000000000000000000000000000000000000000000000000000000000000000000000000000000000000000000000000000000000000000000000000000000000000000000000000000000000000000000000000000000000000000000000000000000000000000000000000000000000000000000000000000000000000000000000000000000000000000",
            "coinbase" : "0x2adc25665018aa1fe0e6bc666dac8fc2697ff9ba",
            "difficulty" : "0x00",
            "excessBlobGas" : "0x060000",
            "extraData" : "0x00",
            "gasLimit" : "0x1000000000",
            "gasUsed" : "0x00",
            "hash" : "0xb34da0734addaf3940adcc2c29ba984392de5d7ecea348080e72dc27f55e8f50",
            "mixHash" : "0x0000000000000000000000000000000000000000000000000000000000020000",
            "nonce" : "0x0000000000000000",
            "number" : "0x00",
            "parentBeaconBlockRoot" : "0x0000000000000000000000000000000000000000000000000000000000000000",
            "parentHash" : "0x0000000000000000000000000000000000000000000000000000000000000000",
            "receiptTrie" : "0x56e81f171bcc55a6ff8345e692c0f86e5b48e01b996cadc001622fb5e363b421",
            "stateRoot" : "0xd2cb3e810254dd0cb4c622401334c687fcdd263798fbb248d114833386027e67",
            "timestamp" : "0x00",
            "transactionsTrie" : "0x56e81f171bcc55a6ff8345e692c0f86e5b48e01b996cadc001622fb5e363b421",
            "uncleHash" : "0x1dcc4de8dec75d7aab85b567b6ccd41ad312451b948a7413f0a142fd40d49347",
            "withdrawalsRoot" : "0x56e81f171bcc55a6ff8345e692c0f86e5b48e01b996cadc001622fb5e363b421"
        },
        "genesisRLP" : "0xf90240f9023aa00000000000000000000000000000000000000000000000000000000000000000a01dcc4de8dec75d7aab85b567b6ccd41ad312451b948a7413f0a142fd40d49347942adc25665018aa1fe0e6bc666dac8fc2697ff9baa0d2cb3e810254dd0cb4c622401334c687fcdd263798fbb248d114833386027e67a056e81f171bcc55a6ff8345e692c0f86e5b48e01b996cadc001622fb5e363b421a056e81f171bcc55a6ff8345e692c0f86e5b48e01b996cadc001622fb5e363b421b90100000000000000000000000000000000000000000000000000000000000000000000000000000000000000000000000000000000000000000000000000000000000000000000000000000000000000000000000000000000000000000000000000000000000000000000000000000000000000000000000000000000000000000000000000000000000000000000000000000000000000000000000000000000000000000000000000000000000000000000000000000000000000000000000000000000000000000000000000000000000000000000000000000000000000000000000000000000000000000000000000000000000000000000000000000000008080851000000000808000a0000000000000000000000000000000000000000000000000000000000002000088000000000000000008a056e81f171bcc55a6ff8345e692c0f86e5b48e01b996cadc001622fb5e363b4218083060000a00000000000000000000000000000000000000000000000000000000000000000c0c0c0",
        "lastblockhash" : "0xb34da0734addaf3940adcc2c29ba984392de5d7ecea348080e72dc27f55e8f50",
        "network" : "Cancun",
        "postState" : {
            "0x000f3df6d732807ef1319fb7b8bb8522d0beac02" : {
                "balance" : "0x00",
                "code" : "0x3373fffffffffffffffffffffffffffffffffffffffe14604d57602036146024575f5ffd5b5f35801560495762001fff810690815414603c575f5ffd5b62001fff01545f5260205ff35b5f5ffd5b62001fff42064281555f359062001fff015500",
                "nonce" : "0x01",
                "storage" : {
                }
            },
            "0x095e7baea6a6c7c4c2dfeb977efac326af552d87" : {
                "balance" : "0x0de0b6b3a7640000",
                "code" : "0x600a4960005500",
                "nonce" : "0x00",
                "storage" : {
                }
            },
            "0xa94f5374fce5edbc8e2a8697c15331677e6ebf0b" : {
                "balance" : "0x0de0b6b3a7640000",
                "code" : "0x",
                "nonce" : "0x00",
                "storage" : {
                }
            }
        },
        "pre" : {
            "0x000f3df6d732807ef1319fb7b8bb8522d0beac02" : {
                "balance" : "0x00",
                "code" : "0x3373fffffffffffffffffffffffffffffffffffffffe14604d57602036146024575f5ffd5b5f35801560495762001fff810690815414603c575f5ffd5b62001fff01545f5260205ff35b5f5ffd5b62001fff42064281555f359062001fff015500",
                "nonce" : "0x01",
                "storage" : {
                }
            },
            "0x095e7baea6a6c7c4c2dfeb977efac326af552d87" : {
                "balance" : "0x0de0b6b3a7640000",
                "code" : "0x600a4960005500",
                "nonce" : "0x00",
                "storage" : {
                }
            },
            "0xa94f5374fce5edbc8e2a8697c15331677e6ebf0b" : {
                "balance" : "0x0de0b6b3a7640000",
                "code" : "0x",
                "nonce" : "0x00",
                "storage" : {
                }
            }
        },
        "sealEngine" : "NoProof"
    },
    "blobhashListBounds7_d0g0v0_Prague" : {
        "_info" : {
            "comment" : "BLOB006",
            "filling-rpc-server" : "evmone-t8n 0.14.0-13+commit.4d363c36",
            "filling-tool-version" : "retesteth-0.3.2-legacy+commit.ca7f4c79.Linux.g++",
            "fixture-format" : "blockchain_test",
            "generatedTestHash" : "e6455740c891e55e065e19e3c9b5caf5936af3de90d0a9abf6389eb483fb9d65",
            "lllcversion" : "Version: 0.5.14-develop.2024.11.5+commit.b2b86751.mod.Linux.g++",
            "solidity" : "Version: 0.8.24+commit.e11b9ed9.Linux.g++",
            "source" : "src/GeneralStateTestsFiller/Cancun/stEIP4844-blobtransactions/blobhashListBounds7Filler.yml",
            "sourceHash" : "7e386ea41fd7af216a903492938c18d965b4cd8f606df2409949f5f4e96d9d6d"
        },
        "blocks" : [
            {
                "blockHeader" : {
                    "baseFeePerGas" : "0x07",
                    "blobGasUsed" : "0x0e0000",
                    "bloom" : "0x00000000000000000000000000000000000000000000000000000000000000000000000000000000000000000000000000000000000000000000000000000000000000000000000000000000000000000000000000000000000000000000000000000000000000000000000000000000000000000000000000000000000000000000000000000000000000000000000000000000000000000000000000000000000000000000000000000000000000000000000000000000000000000000000000000000000000000000000000000000000000000000000000000000000000000000000000000000000000000000000000000000000000000000000000000000",
                    "coinbase" : "0x2adc25665018aa1fe0e6bc666dac8fc2697ff9ba",
                    "difficulty" : "0x00",
                    "excessBlobGas" : "0x00",
                    "extraData" : "0x00",
                    "gasLimit" : "0x1000000000",
                    "gasUsed" : "0x6ab1",
                    "hash" : "0x22c82254b7d2b6899a96340237390618bd9587aa86b6581b85e6785106f28699",
                    "mixHash" : "0x0000000000000000000000000000000000000000000000000000000000020000",
                    "nonce" : "0x0000000000000000",
                    "number" : "0x01",
                    "parentBeaconBlockRoot" : "0x0000000000000000000000000000000000000000000000000000000000000000",
                    "parentHash" : "0x4db83d89b3e2fc8b08232d6aa81e464b44c27b576decf935855a10c0062b06b9",
                    "receiptTrie" : "0xf8ec0dcb724906966cbcae8f5c9671267fa89655fccb06586636d29adacafa3c",
                    "requestsHash" : "0xe3b0c44298fc1c149afbf4c8996fb92427ae41e4649b934ca495991b7852b855",
                    "stateRoot" : "0x9e5c5121cbe2ab32b21218eea429df0d379022dbdc1cfee482427f032ba1079c",
                    "timestamp" : "0x03e8",
                    "transactionsTrie" : "0xfc3292555d8a6ad8f7da5d831c97d57bd53e3b01f874805b27f071a8e5878e90",
                    "uncleHash" : "0x1dcc4de8dec75d7aab85b567b6ccd41ad312451b948a7413f0a142fd40d49347",
                    "withdrawalsRoot" : "0x56e81f171bcc55a6ff8345e692c0f86e5b48e01b996cadc001622fb5e363b421"
                },
                "rlp" : "0xf9041ff9025fa04db83d89b3e2fc8b08232d6aa81e464b44c27b576decf935855a10c0062b06b9a01dcc4de8dec75d7aab85b567b6ccd41ad312451b948a7413f0a142fd40d49347942adc25665018aa1fe0e6bc666dac8fc2697ff9baa09e5c5121cbe2ab32b21218eea429df0d379022dbdc1cfee482427f032ba1079ca0fc3292555d8a6ad8f7da5d831c97d57bd53e3b01f874805b27f071a8e5878e90a0f8ec0dcb724906966cbcae8f5c9671267fa89655fccb06586636d29adacafa3cb90100000000000000000000000000000000000000000000000000000000000000000000000000000000000000000000000000000000000000000000000000000000000000000000000000000000000000000000000000000000000000000000000000000000000000000000000000000000000000000000000000000000000000000000000000000000000000000000000000000000000000000000000000000000000000000000000000000000000000000000000000000000000000000000000000000000000000000000000000000000000000000000000000000000000000000000000000000000000000000000000000000000000000000000000000000000008001851000000000826ab18203e800a0000000000000000000000000000000000000000000000000000000000002000088000000000000000007a056e81f171bcc55a6ff8345e692c0f86e5b48e01b996cadc001622fb5e363b421830e000080a00000000000000000000000000000000000000000000000000000000000000000a0e3b0c44298fc1c149afbf4c8996fb92427ae41e4649b934ca495991b7852b855f901b8b901b503f901b101800285012a05f200833d090094095e7baea6a6c7c4c2dfeb977efac326af552d87830186a000f85bf85994095e7baea6a6c7c4c2dfeb977efac326af552d87f842a00000000000000000000000000000000000000000000000000000000000000000a000000000000000000000000000000000000000000000000000000000000000010af8e7a001a915e4d060149eb4365960e6a7a45f334393093061116b197e3240065f0001a001a915e4d060149eb4365960e6a7a45f334393093061116b197e3240065f0002a001a915e4d060149eb4365960e6a7a45f334393093061116b197e3240065f0003a001a915e4d060149eb4365960e6a7a45f334393093061116b197e3240065f0004a001a915e4d060149eb4365960e6a7a45f334393093061116b197e3240065f0005a001a915e4d060149eb4365960e6a7a45f334393093061116b197e3240065f0006a001a915e4d060149eb4365960e6a7a45f334393093061116b197e3240065f000701a04c6a25969991d996e7f40964ba872e8dc6e8acdc422af055d9f404180dd2746ca013b66a111e61fb3ad575d456a1d976d221436f403f342ae8e78c19b177705607c0c0",
                "transactions" : [
                    {
                        "accessList" : [
                            {
                                "address" : "0x095e7baea6a6c7c4c2dfeb977efac326af552d87",
                                "storageKeys" : [
                                    "0x0000000000000000000000000000000000000000000000000000000000000000",
                                    "0x0000000000000000000000000000000000000000000000000000000000000001"
                                ]
                            }
                        ],
                        "blobVersionedHashes" : [
                            "0x01a915e4d060149eb4365960e6a7a45f334393093061116b197e3240065f0001",
                            "0x01a915e4d060149eb4365960e6a7a45f334393093061116b197e3240065f0002",
                            "0x01a915e4d060149eb4365960e6a7a45f334393093061116b197e3240065f0003",
                            "0x01a915e4d060149eb4365960e6a7a45f334393093061116b197e3240065f0004",
                            "0x01a915e4d060149eb4365960e6a7a45f334393093061116b197e3240065f0005",
                            "0x01a915e4d060149eb4365960e6a7a45f334393093061116b197e3240065f0006",
                            "0x01a915e4d060149eb4365960e6a7a45f334393093061116b197e3240065f0007"
                        ],
                        "chainId" : "0x01",
                        "data" : "0x00",
                        "gasLimit" : "0x3d0900",
                        "maxFeePerBlobGas" : "0x0a",
                        "maxFeePerGas" : "0x012a05f200",
                        "maxPriorityFeePerGas" : "0x02",
                        "nonce" : "0x00",
                        "r" : "0x4c6a25969991d996e7f40964ba872e8dc6e8acdc422af055d9f404180dd2746c",
                        "s" : "0x13b66a111e61fb3ad575d456a1d976d221436f403f342ae8e78c19b177705607",
                        "sender" : "0xa94f5374fce5edbc8e2a8697c15331677e6ebf0b",
                        "to" : "0x095e7baea6a6c7c4c2dfeb977efac326af552d87",
                        "type" : "0x03",
                        "v" : "0x01",
                        "value" : "0x0186a0"
                    }
                ],
                "uncleHeaders" : [
                ],
                "withdrawals" : [
                ]
            }
        ],
        "config" : {
            "blobSchedule" : {
                "Prague" : {
                    "baseFeeUpdateFraction" : "0x4c6964",
                    "max" : "0x09",
                    "target" : "0x06"
                }
            },
            "chainid" : "0x01",
            "network" : "Prague"
        },
        "genesisBlockHeader" : {
            "baseFeePerGas" : "0x08",
            "blobGasUsed" : "0x00",
            "bloom" : "0x00000000000000000000000000000000000000000000000000000000000000000000000000000000000000000000000000000000000000000000000000000000000000000000000000000000000000000000000000000000000000000000000000000000000000000000000000000000000000000000000000000000000000000000000000000000000000000000000000000000000000000000000000000000000000000000000000000000000000000000000000000000000000000000000000000000000000000000000000000000000000000000000000000000000000000000000000000000000000000000000000000000000000000000000000000000",
            "coinbase" : "0x2adc25665018aa1fe0e6bc666dac8fc2697ff9ba",
            "difficulty" : "0x00",
            "excessBlobGas" : "0x060000",
            "extraData" : "0x00",
            "gasLimit" : "0x1000000000",
            "gasUsed" : "0x00",
            "hash" : "0x4db83d89b3e2fc8b08232d6aa81e464b44c27b576decf935855a10c0062b06b9",
            "mixHash" : "0x0000000000000000000000000000000000000000000000000000000000020000",
            "nonce" : "0x0000000000000000",
            "number" : "0x00",
            "parentBeaconBlockRoot" : "0x0000000000000000000000000000000000000000000000000000000000000000",
            "parentHash" : "0x0000000000000000000000000000000000000000000000000000000000000000",
            "receiptTrie" : "0x56e81f171bcc55a6ff8345e692c0f86e5b48e01b996cadc001622fb5e363b421",
            "requestsHash" : "0xe3b0c44298fc1c149afbf4c8996fb92427ae41e4649b934ca495991b7852b855",
            "stateRoot" : "0x8d08cbdf1dbc548890a649513086f16d3ab4821ec0c14411fb095d7e7de9ee64",
            "timestamp" : "0x00",
            "transactionsTrie" : "0x56e81f171bcc55a6ff8345e692c0f86e5b48e01b996cadc001622fb5e363b421",
            "uncleHash" : "0x1dcc4de8dec75d7aab85b567b6ccd41ad312451b948a7413f0a142fd40d49347",
            "withdrawalsRoot" : "0x56e81f171bcc55a6ff8345e692c0f86e5b48e01b996cadc001622fb5e363b421"
        },
        "genesisRLP" : "0xf90261f9025ba00000000000000000000000000000000000000000000000000000000000000000a01dcc4de8dec75d7aab85b567b6ccd41ad312451b948a7413f0a142fd40d49347942adc25665018aa1fe0e6bc666dac8fc2697ff9baa08d08cbdf1dbc548890a649513086f16d3ab4821ec0c14411fb095d7e7de9ee64a056e81f171bcc55a6ff8345e692c0f86e5b48e01b996cadc001622fb5e363b421a056e81f171bcc55a6ff8345e692c0f86e5b48e01b996cadc001622fb5e363b421b90100000000000000000000000000000000000000000000000000000000000000000000000000000000000000000000000000000000000000000000000000000000000000000000000000000000000000000000000000000000000000000000000000000000000000000000000000000000000000000000000000000000000000000000000000000000000000000000000000000000000000000000000000000000000000000000000000000000000000000000000000000000000000000000000000000000000000000000000000000000000000000000000000000000000000000000000000000000000000000000000000000000000000000000000000000000008080851000000000808000a0000000000000000000000000000000000000000000000000000000000002000088000000000000000008a056e81f171bcc55a6ff8345e692c0f86e5b48e01b996cadc001622fb5e363b4218083060000a00000000000000000000000000000000000000000000000000000000000000000a0e3b0c44298fc1c149afbf4c8996fb92427ae41e4649b934ca495991b7852b855c0c0c0",
        "lastblockhash" : "0x22c82254b7d2b6899a96340237390618bd9587aa86b6581b85e6785106f28699",
        "network" : "Prague",
        "postState" : {
            "0x0000f90827f1c53a10cb7a02335b175320002935" : {
                "balance" : "0x00",
                "code" : "0x3373fffffffffffffffffffffffffffffffffffffffe14604657602036036042575f35600143038111604257611fff81430311604257611fff9006545f5260205ff35b5f5ffd5b5f35611fff60014303065500",
                "nonce" : "0x01",
                "storage" : {
                    "0x00" : "0x4db83d89b3e2fc8b08232d6aa81e464b44c27b576decf935855a10c0062b06b9"
                }
            },
            "0x000f3df6d732807ef1319fb7b8bb8522d0beac02" : {
                "balance" : "0x00",
                "code" : "0x3373fffffffffffffffffffffffffffffffffffffffe14604d57602036146024575f5ffd5b5f35801560495762001fff810690815414603c575f5ffd5b62001fff01545f5260205ff35b5f5ffd5b62001fff42064281555f359062001fff015500",
                "nonce" : "0x01",
                "storage" : {
                    "0x03e8" : "0x03e8"
                }
            },
            "0x095e7baea6a6c7c4c2dfeb977efac326af552d87" : {
                "balance" : "0x0de0b6b3a76586a0",
                "code" : "0x600a4960005500",
                "nonce" : "0x00",
                "storage" : {
                }
            },
            "0x2adc25665018aa1fe0e6bc666dac8fc2697ff9ba" : {
                "balance" : "0xd562",
                "code" : "0x",
                "nonce" : "0x00",
                "storage" : {
                }
            },
            "0xa94f5374fce5edbc8e2a8697c15331677e6ebf0b" : {
                "balance" : "0x0de0b6b3a750b927",
                "code" : "0x",
                "nonce" : "0x01",
                "storage" : {
                }
            }
        },
        "pre" : {
            "0x0000f90827f1c53a10cb7a02335b175320002935" : {
                "balance" : "0x00",
                "code" : "0x3373fffffffffffffffffffffffffffffffffffffffe14604657602036036042575f35600143038111604257611fff81430311604257611fff9006545f5260205ff35b5f5ffd5b5f35611fff60014303065500",
                "nonce" : "0x01",
                "storage" : {
                }
            },
            "0x000f3df6d732807ef1319fb7b8bb8522d0beac02" : {
                "balance" : "0x00",
                "code" : "0x3373fffffffffffffffffffffffffffffffffffffffe14604d57602036146024575f5ffd5b5f35801560495762001fff810690815414603c575f5ffd5b62001fff01545f5260205ff35b5f5ffd5b62001fff42064281555f359062001fff015500",
                "nonce" : "0x01",
                "storage" : {
                }
            },
            "0x095e7baea6a6c7c4c2dfeb977efac326af552d87" : {
                "balance" : "0x0de0b6b3a7640000",
                "code" : "0x600a4960005500",
                "nonce" : "0x00",
                "storage" : {
                }
            },
            "0xa94f5374fce5edbc8e2a8697c15331677e6ebf0b" : {
                "balance" : "0x0de0b6b3a7640000",
                "code" : "0x",
                "nonce" : "0x00",
                "storage" : {
                }
            }
        },
        "sealEngine" : "NoProof"
    }
}