{
    "wrongBlobhashVersion_d0g0v0_Cancun" : {
        "_info" : {
            "comment" : "BLOB001",
            "filling-rpc-server" : "evmone-t8n 0.14.0-13+commit.4d363c36",
            "filling-tool-version" : "retesteth-0.3.2-legacy+commit.ca7f4c79.Linux.g++",
            "fixture-format" : "blockchain_test",
            "generatedTestHash" : "491a6da58d9858a7525729e43b080f01bd498275e2e1441fb5b1d642d3e4c096",
            "lllcversion" : "Version: 0.5.14-develop.2024.11.5+commit.b2b86751.mod.Linux.g++",
            "solidity" : "Version: 0.8.24+commit.e11b9ed9.Linux.g++",
            "source" : "src/GeneralStateTestsFiller/Cancun/stEIP4844-blobtransactions/wrongBlobhashVersionFiller.yml",
            "sourceHash" : "32cfd908b12300b9128770c6c0b944a35d546f25d3ddc2e237cd3cd3395607a5"
        },
        "blocks" : [
            {
                "expectException" : "TransactionException.TYPE_3_TX_INVALID_BLOB_VERSIONED_HASH",
                "rlp" : "0xf90354f90239a0808a767bbb7e35cb8e337847e39afb88da55120b2bbe2cb0af6be5cb9d37980da01dcc4de8dec75d7aab85b567b6ccd41ad312451b948a7413f0a142fd40d49347942adc25665018aa1fe0e6bc666dac8fc2697ff9baa04fa8b38a409546cd647a5bfdad6f9cdf824e37d232ac9a0a4f4f7856dd05f96fa056e81f171bcc55a6ff8345e692c0f86e5b48e01b996cadc001622fb5e363b421a056e81f171bcc55a6ff8345e692c0f86e5b48e01b996cadc001622fb5e363b421b90100000000000000000000000000000000000000000000000000000000000000000000000000000000000000000000000000000000000000000000000000000000000000000000000000000000000000000000000000000000000000000000000000000000000000000000000000000000000000000000000000000000000000000000000000000000000000000000000000000000000000000000000000000000000000000000000000000000000000000000000000000000000000000000000000000000000000000000000000000000000000000000000000000000000000000000000000000000000000000000000000000000000000000000000000000000008001851000000000808203e800a0000000000000000000000000000000000000000000000000000000000002000088000000000000000007a056e81f171bcc55a6ff8345e692c0f86e5b48e01b996cadc001622fb5e363b4218080a00000000000000000000000000000000000000000000000000000000000000000f90113b9011003f9010c01800285012a05f200833d090094095e7baea6a6c7c4c2dfeb977efac326af552d87830186a000f85bf85994095e7baea6a6c7c4c2dfeb977efac326af552d87f842a00000000000000000000000000000000000000000000000000000000000000000a000000000000000000000000000000000000000000000000000000000000000010af842a001a915e4d060149eb4365960e6a7a45f334393093061116b197e3240065ff2d8a045a915e4d060149eb4365960e6a7a45f334393093061116b197e3240065ff2d880a0daa1a9e47f815525ac6e11929160073fea1abf7acee286d4858fd4b1d9611fcda054d245d4a23cf599e6a8611692fdeab9be366108af5ba72554062346fa41a55ac0c0",
                "rlp_decoded" : {
                    "blockHeader" : {
                        "baseFeePerGas" : "0x07",
                        "blobGasUsed" : "0x00",
                        "bloom" : "0x00000000000000000000000000000000000000000000000000000000000000000000000000000000000000000000000000000000000000000000000000000000000000000000000000000000000000000000000000000000000000000000000000000000000000000000000000000000000000000000000000000000000000000000000000000000000000000000000000000000000000000000000000000000000000000000000000000000000000000000000000000000000000000000000000000000000000000000000000000000000000000000000000000000000000000000000000000000000000000000000000000000000000000000000000000000",
                        "coinbase" : "0x2adc25665018aa1fe0e6bc666dac8fc2697ff9ba",
                        "difficulty" : "0x00",
                        "excessBlobGas" : "0x00",
                        "extraData" : "0x00",
                        "gasLimit" : "0x1000000000",
                        "gasUsed" : "0x00",
                        "hash" : "0x7a01405ca713d37a3494766d7972cecff52f22eff7c2c2974b9130e87d7cc836",
                        "mixHash" : "0x0000000000000000000000000000000000000000000000000000000000020000",
                        "nonce" : "0x0000000000000000",
                        "number" : "0x01",
                        "parentBeaconBlockRoot" : "0x0000000000000000000000000000000000000000000000000000000000000000",
                        "parentHash" : "0x808a767bbb7e35cb8e337847e39afb88da55120b2bbe2cb0af6be5cb9d37980d",
                        "receiptTrie" : "0x56e81f171bcc55a6ff8345e692c0f86e5b48e01b996cadc001622fb5e363b421",
                        "stateRoot" : "0x4fa8b38a409546cd647a5bfdad6f9cdf824e37d232ac9a0a4f4f7856dd05f96f",
                        "timestamp" : "0x03e8",
                        "transactionsTrie" : "0x56e81f171bcc55a6ff8345e692c0f86e5b48e01b996cadc001622fb5e363b421",
                        "uncleHash" : "0x1dcc4de8dec75d7aab85b567b6ccd41ad312451b948a7413f0a142fd40d49347",
                        "withdrawalsRoot" : "0x56e81f171bcc55a6ff8345e692c0f86e5b48e01b996cadc001622fb5e363b421"
                    },
                    "transactions" : [
                        {
                            "accessList" : [
                                {
                                    "address" : "0x095e7baea6a6c7c4c2dfeb977efac326af552d87",
                                    "storageKeys" : [
                                        "0x0000000000000000000000000000000000000000000000000000000000000000",
                                        "0x0000000000000000000000000000000000000000000000000000000000000001"
                                    ]
                                }
                            ],
                            "blobVersionedHashes" : [
                                "0x01a915e4d060149eb4365960e6a7a45f334393093061116b197e3240065ff2d8",
                                "0x45a915e4d060149eb4365960e6a7a45f334393093061116b197e3240065ff2d8"
                            ],
                            "chainId" : "0x01",
                            "data" : "0x00",
                            "gasLimit" : "0x3d0900",
                            "maxFeePerBlobGas" : "0x0a",
                            "maxFeePerGas" : "0x012a05f200",
                            "maxPriorityFeePerGas" : "0x02",
                            "nonce" : "0x00",
                            "r" : "0xdaa1a9e47f815525ac6e11929160073fea1abf7acee286d4858fd4b1d9611fcd",
                            "s" : "0x54d245d4a23cf599e6a8611692fdeab9be366108af5ba72554062346fa41a55a",
                            "to" : "0x095e7baea6a6c7c4c2dfeb977efac326af552d87",
                            "type" : "0x03",
                            "v" : "0x00",
                            "value" : "0x0186a0"
                        }
                    ],
                    "uncleHeaders" : [
                    ],
                    "withdrawals" : [
                    ]
                },
                "transactionSequence" : [
                    {
                        "exception" : "TransactionException.TYPE_3_TX_INVALID_BLOB_VERSIONED_HASH",
                        "rawBytes" : "0x03f9010c01800285012a05f200833d090094095e7baea6a6c7c4c2dfeb977efac326af552d87830186a000f85bf85994095e7baea6a6c7c4c2dfeb977efac326af552d87f842a00000000000000000000000000000000000000000000000000000000000000000a000000000000000000000000000000000000000000000000000000000000000010af842a001a915e4d060149eb4365960e6a7a45f334393093061116b197e3240065ff2d8a045a915e4d060149eb4365960e6a7a45f334393093061116b197e3240065ff2d880a0daa1a9e47f815525ac6e11929160073fea1abf7acee286d4858fd4b1d9611fcda054d245d4a23cf599e6a8611692fdeab9be366108af5ba72554062346fa41a55a",
                        "valid" : "false"
                    }
                ]
            }
        ],
        "config" : {
            "blobSchedule" : {
                "Cancun" : {
                    "baseFeeUpdateFraction" : "0x32f0ed",
                    "max" : "0x06",
                    "target" : "0x03"
                }
            },
            "chainid" : "0x01",
            "network" : "Cancun"
        },
        "genesisBlockHeader" : {
            "baseFeePerGas" : "0x08",
            "blobGasUsed" : "0x00",
            "bloom" : "0x00000000000000000000000000000000000000000000000000000000000000000000000000000000000000000000000000000000000000000000000000000000000000000000000000000000000000000000000000000000000000000000000000000000000000000000000000000000000000000000000000000000000000000000000000000000000000000000000000000000000000000000000000000000000000000000000000000000000000000000000000000000000000000000000000000000000000000000000000000000000000000000000000000000000000000000000000000000000000000000000000000000000000000000000000000000",
            "coinbase" : "0x2adc25665018aa1fe0e6bc666dac8fc2697ff9ba",
            "difficulty" : "0x00",
            "excessBlobGas" : "0x060000",
            "extraData" : "0x00",
            "gasLimit" : "0x1000000000",
            "gasUsed" : "0x00",
            "hash" : "0x808a767bbb7e35cb8e337847e39afb88da55120b2bbe2cb0af6be5cb9d37980d",
            "mixHash" : "0x0000000000000000000000000000000000000000000000000000000000020000",
            "nonce" : "0x0000000000000000",
            "number" : "0x00",
            "parentBeaconBlockRoot" : "0x0000000000000000000000000000000000000000000000000000000000000000",
            "parentHash" : "0x0000000000000000000000000000000000000000000000000000000000000000",
            "receiptTrie" : "0x56e81f171bcc55a6ff8345e692c0f86e5b48e01b996cadc001622fb5e363b421",
            "stateRoot" : "0x744c51fd90e9bb8f7fecc5a3e86e63c6fa0339930432bf49277de3f071ff7cef",
            "timestamp" : "0x00",
            "transactionsTrie" : "0x56e81f171bcc55a6ff8345e692c0f86e5b48e01b996cadc001622fb5e363b421",
            "uncleHash" : "0x1dcc4de8dec75d7aab85b567b6ccd41ad312451b948a7413f0a142fd40d49347",
            "withdrawalsRoot" : "0x56e81f171bcc55a6ff8345e692c0f86e5b48e01b996cadc001622fb5e363b421"
        },
        "genesisRLP" : "0xf90240f9023aa00000000000000000000000000000000000000000000000000000000000000000a01dcc4de8dec75d7aab85b567b6ccd41ad312451b948a7413f0a142fd40d49347942adc25665018aa1fe0e6bc666dac8fc2697ff9baa0744c51fd90e9bb8f7fecc5a3e86e63c6fa0339930432bf49277de3f071ff7cefa056e81f171bcc55a6ff8345e692c0f86e5b48e01b996cadc001622fb5e363b421a056e81f171bcc55a6ff8345e692c0f86e5b48e01b996cadc001622fb5e363b421b90100000000000000000000000000000000000000000000000000000000000000000000000000000000000000000000000000000000000000000000000000000000000000000000000000000000000000000000000000000000000000000000000000000000000000000000000000000000000000000000000000000000000000000000000000000000000000000000000000000000000000000000000000000000000000000000000000000000000000000000000000000000000000000000000000000000000000000000000000000000000000000000000000000000000000000000000000000000000000000000000000000000000000000000000000000000008080851000000000808000a0000000000000000000000000000000000000000000000000000000000002000088000000000000000008a056e81f171bcc55a6ff8345e692c0f86e5b48e01b996cadc001622fb5e363b4218083060000a00000000000000000000000000000000000000000000000000000000000000000c0c0c0",
        "lastblockhash" : "0x808a767bbb7e35cb8e337847e39afb88da55120b2bbe2cb0af6be5cb9d37980d",
        "network" : "Cancun",
        "postState" : {
            "0x000f3df6d732807ef1319fb7b8bb8522d0beac02" : {
                "balance" : "0x00",
                "code" : "0x3373fffffffffffffffffffffffffffffffffffffffe14604d57602036146024575f5ffd5b5f35801560495762001fff810690815414603c575f5ffd5b62001fff01545f5260205ff35b5f5ffd5b62001fff42064281555f359062001fff015500",
                "nonce" : "0x01",
                "storage" : {
                }
            },
            "0x095e7baea6a6c7c4c2dfeb977efac326af552d87" : {
                "balance" : "0x0de0b6b3a7640000",
                "code" : "0x60004960005500",
                "nonce" : "0x00",
                "storage" : {
                }
            },
            "0xa94f5374fce5edbc8e2a8697c15331677e6ebf0b" : {
                "balance" : "0x0de0b6b3a7640000",
                "code" : "0x",
                "nonce" : "0x00",
                "storage" : {
                }
            }
        },
        "pre" : {
            "0x000f3df6d732807ef1319fb7b8bb8522d0beac02" : {
                "balance" : "0x00",
                "code" : "0x3373fffffffffffffffffffffffffffffffffffffffe14604d57602036146024575f5ffd5b5f35801560495762001fff810690815414603c575f5ffd5b62001fff01545f5260205ff35b5f5ffd5b62001fff42064281555f359062001fff015500",
                "nonce" : "0x01",
                "storage" : {
                }
            },
            "0x095e7baea6a6c7c4c2dfeb977efac326af552d87" : {
                "balance" : "0x0de0b6b3a7640000",
                "code" : "0x60004960005500",
                "nonce" : "0x00",
                "storage" : {
                }
            },
            "0xa94f5374fce5edbc8e2a8697c15331677e6ebf0b" : {
                "balance" : "0x0de0b6b3a7640000",
                "code" : "0x",
                "nonce" : "0x00",
                "storage" : {
                }
            }
        },
        "sealEngine" : "NoProof"
    },
    "wrongBlobhashVersion_d0g0v0_Prague" : {
        "_info" : {
            "comment" : "BLOB001",
            "filling-rpc-server" : "evmone-t8n 0.14.0-13+commit.4d363c36",
            "filling-tool-version" : "retesteth-0.3.2-legacy+commit.ca7f4c79.Linux.g++",
            "fixture-format" : "blockchain_test",
            "generatedTestHash" : "d1436110e2c7113599b284375b1fdea8a220fcdb5c00db5dfed69cf297a479db",
            "lllcversion" : "Version: 0.5.14-develop.2024.11.5+commit.b2b86751.mod.Linux.g++",
            "solidity" : "Version: 0.8.24+commit.e11b9ed9.Linux.g++",
            "source" : "src/GeneralStateTestsFiller/Cancun/stEIP4844-blobtransactions/wrongBlobhashVersionFiller.yml",
            "sourceHash" : "32cfd908b12300b9128770c6c0b944a35d546f25d3ddc2e237cd3cd3395607a5"
        },
        "blocks" : [
            {
                "expectException" : "TransactionException.TYPE_3_TX_INVALID_BLOB_VERSIONED_HASH",
                "rlp" : "0xf90375f9025aa0c43b04ccec232df710f498e08a3c107bd029c8a10eab6c28c5e46c5155db2458a01dcc4de8dec75d7aab85b567b6ccd41ad312451b948a7413f0a142fd40d49347942adc25665018aa1fe0e6bc666dac8fc2697ff9baa07bd7cee0349d6a7c81dc4d8c9766a11e52113d001a47746d8e477b7c37e994f3a056e81f171bcc55a6ff8345e692c0f86e5b48e01b996cadc001622fb5e363b421a056e81f171bcc55a6ff8345e692c0f86e5b48e01b996cadc001622fb5e363b421b90100000000000000000000000000000000000000000000000000000000000000000000000000000000000000000000000000000000000000000000000000000000000000000000000000000000000000000000000000000000000000000000000000000000000000000000000000000000000000000000000000000000000000000000000000000000000000000000000000000000000000000000000000000000000000000000000000000000000000000000000000000000000000000000000000000000000000000000000000000000000000000000000000000000000000000000000000000000000000000000000000000000000000000000000000000000008001851000000000808203e800a0000000000000000000000000000000000000000000000000000000000002000088000000000000000007a056e81f171bcc55a6ff8345e692c0f86e5b48e01b996cadc001622fb5e363b4218080a00000000000000000000000000000000000000000000000000000000000000000a0e3b0c44298fc1c149afbf4c8996fb92427ae41e4649b934ca495991b7852b855f90113b9011003f9010c01800285012a05f200833d090094095e7baea6a6c7c4c2dfeb977efac326af552d87830186a000f85bf85994095e7baea6a6c7c4c2dfeb977efac326af552d87f842a00000000000000000000000000000000000000000000000000000000000000000a000000000000000000000000000000000000000000000000000000000000000010af842a001a915e4d060149eb4365960e6a7a45f334393093061116b197e3240065ff2d8a045a915e4d060149eb4365960e6a7a45f334393093061116b197e3240065ff2d880a0daa1a9e47f815525ac6e11929160073fea1abf7acee286d4858fd4b1d9611fcda054d245d4a23cf599e6a8611692fdeab9be366108af5ba72554062346fa41a55ac0c0",
                "rlp_decoded" : {
                    "blockHeader" : {
                        "baseFeePerGas" : "0x07",
                        "blobGasUsed" : "0x00",
                        "bloom" : "0x00000000000000000000000000000000000000000000000000000000000000000000000000000000000000000000000000000000000000000000000000000000000000000000000000000000000000000000000000000000000000000000000000000000000000000000000000000000000000000000000000000000000000000000000000000000000000000000000000000000000000000000000000000000000000000000000000000000000000000000000000000000000000000000000000000000000000000000000000000000000000000000000000000000000000000000000000000000000000000000000000000000000000000000000000000000",
                        "coinbase" : "0x2adc25665018aa1fe0e6bc666dac8fc2697ff9ba",
                        "difficulty" : "0x00",
                        "excessBlobGas" : "0x00",
                        "extraData" : "0x00",
                        "gasLimit" : "0x1000000000",
                        "gasUsed" : "0x00",
                        "hash" : "0xa68eaa68cb159e7ce425cc25673d1c365ad2a26f12ae818bd70e9c4d7e3f3864",
                        "mixHash" : "0x0000000000000000000000000000000000000000000000000000000000020000",
                        "nonce" : "0x0000000000000000",
                        "number" : "0x01",
                        "parentBeaconBlockRoot" : "0x0000000000000000000000000000000000000000000000000000000000000000",
                        "parentHash" : "0xc43b04ccec232df710f498e08a3c107bd029c8a10eab6c28c5e46c5155db2458",
                        "receiptTrie" : "0x56e81f171bcc55a6ff8345e692c0f86e5b48e01b996cadc001622fb5e363b421",
                        "requestsHash" : "0xe3b0c44298fc1c149afbf4c8996fb92427ae41e4649b934ca495991b7852b855",
                        "stateRoot" : "0x7bd7cee0349d6a7c81dc4d8c9766a11e52113d001a47746d8e477b7c37e994f3",
                        "timestamp" : "0x03e8",
                        "transactionsTrie" : "0x56e81f171bcc55a6ff8345e692c0f86e5b48e01b996cadc001622fb5e363b421",
                        "uncleHash" : "0x1dcc4de8dec75d7aab85b567b6ccd41ad312451b948a7413f0a142fd40d49347",
                        "withdrawalsRoot" : "0x56e81f171bcc55a6ff8345e692c0f86e5b48e01b996cadc001622fb5e363b421"
                    },
                    "transactions" : [
                        {
                            "accessList" : [
                                {
                                    "address" : "0x095e7baea6a6c7c4c2dfeb977efac326af552d87",
                                    "storageKeys" : [
                                        "0x0000000000000000000000000000000000000000000000000000000000000000",
                                        "0x0000000000000000000000000000000000000000000000000000000000000001"
                                    ]
                                }
                            ],
                            "blobVersionedHashes" : [
                                "0x01a915e4d060149eb4365960e6a7a45f334393093061116b197e3240065ff2d8",
                                "0x45a915e4d060149eb4365960e6a7a45f334393093061116b197e3240065ff2d8"
                            ],
                            "chainId" : "0x01",
                            "data" : "0x00",
                            "gasLimit" : "0x3d0900",
                            "maxFeePerBlobGas" : "0x0a",
                            "maxFeePerGas" : "0x012a05f200",
                            "maxPriorityFeePerGas" : "0x02",
                            "nonce" : "0x00",
                            "r" : "0xdaa1a9e47f815525ac6e11929160073fea1abf7acee286d4858fd4b1d9611fcd",
                            "s" : "0x54d245d4a23cf599e6a8611692fdeab9be366108af5ba72554062346fa41a55a",
                            "to" : "0x095e7baea6a6c7c4c2dfeb977efac326af552d87",
                            "type" : "0x03",
                            "v" : "0x00",
                            "value" : "0x0186a0"
                        }
                    ],
                    "uncleHeaders" : [
                    ],
                    "withdrawals" : [
                    ]
                },
                "transactionSequence" : [
                    {
                        "exception" : "TransactionException.TYPE_3_TX_INVALID_BLOB_VERSIONED_HASH",
                        "rawBytes" : "0x03f9010c01800285012a05f200833d090094095e7baea6a6c7c4c2dfeb977efac326af552d87830186a000f85bf85994095e7baea6a6c7c4c2dfeb977efac326af552d87f842a00000000000000000000000000000000000000000000000000000000000000000a000000000000000000000000000000000000000000000000000000000000000010af842a001a915e4d060149eb4365960e6a7a45f334393093061116b197e3240065ff2d8a045a915e4d060149eb4365960e6a7a45f334393093061116b197e3240065ff2d880a0daa1a9e47f815525ac6e11929160073fea1abf7acee286d4858fd4b1d9611fcda054d245d4a23cf599e6a8611692fdeab9be366108af5ba72554062346fa41a55a",
                        "valid" : "false"
                    }
                ]
            }
        ],
        "config" : {
            "blobSchedule" : {
                "Prague" : {
                    "baseFeeUpdateFraction" : "0x4c6964",
                    "max" : "0x09",
                    "target" : "0x06"
                }
            },
            "chainid" : "0x01",
            "network" : "Prague"
        },
        "genesisBlockHeader" : {
            "baseFeePerGas" : "0x08",
            "blobGasUsed" : "0x00",
            "bloom" : "0x00000000000000000000000000000000000000000000000000000000000000000000000000000000000000000000000000000000000000000000000000000000000000000000000000000000000000000000000000000000000000000000000000000000000000000000000000000000000000000000000000000000000000000000000000000000000000000000000000000000000000000000000000000000000000000000000000000000000000000000000000000000000000000000000000000000000000000000000000000000000000000000000000000000000000000000000000000000000000000000000000000000000000000000000000000000",
            "coinbase" : "0x2adc25665018aa1fe0e6bc666dac8fc2697ff9ba",
            "difficulty" : "0x00",
            "excessBlobGas" : "0x060000",
            "extraData" : "0x00",
            "gasLimit" : "0x1000000000",
            "gasUsed" : "0x00",
            "hash" : "0xc43b04ccec232df710f498e08a3c107bd029c8a10eab6c28c5e46c5155db2458",
            "mixHash" : "0x0000000000000000000000000000000000000000000000000000000000020000",
            "nonce" : "0x0000000000000000",
            "number" : "0x00",
            "parentBeaconBlockRoot" : "0x0000000000000000000000000000000000000000000000000000000000000000",
            "parentHash" : "0x0000000000000000000000000000000000000000000000000000000000000000",
            "receiptTrie" : "0x56e81f171bcc55a6ff8345e692c0f86e5b48e01b996cadc001622fb5e363b421",
            "requestsHash" : "0xe3b0c44298fc1c149afbf4c8996fb92427ae41e4649b934ca495991b7852b855",
            "stateRoot" : "0x6087a3e12826a4f8a912ca2aecadd43ce009f31abb6766b4f7c8c926bb2cd0e2",
            "timestamp" : "0x00",
            "transactionsTrie" : "0x56e81f171bcc55a6ff8345e692c0f86e5b48e01b996cadc001622fb5e363b421",
            "uncleHash" : "0x1dcc4de8dec75d7aab85b567b6ccd41ad312451b948a7413f0a142fd40d49347",
            "withdrawalsRoot" : "0x56e81f171bcc55a6ff8345e692c0f86e5b48e01b996cadc001622fb5e363b421"
        },
        "genesisRLP" : "0xf90261f9025ba00000000000000000000000000000000000000000000000000000000000000000a01dcc4de8dec75d7aab85b567b6ccd41ad312451b948a7413f0a142fd40d49347942adc25665018aa1fe0e6bc666dac8fc2697ff9baa06087a3e12826a4f8a912ca2aecadd43ce009f31abb6766b4f7c8c926bb2cd0e2a056e81f171bcc55a6ff8345e692c0f86e5b48e01b996cadc001622fb5e363b421a056e81f171bcc55a6ff8345e692c0f86e5b48e01b996cadc001622fb5e363b421b90100000000000000000000000000000000000000000000000000000000000000000000000000000000000000000000000000000000000000000000000000000000000000000000000000000000000000000000000000000000000000000000000000000000000000000000000000000000000000000000000000000000000000000000000000000000000000000000000000000000000000000000000000000000000000000000000000000000000000000000000000000000000000000000000000000000000000000000000000000000000000000000000000000000000000000000000000000000000000000000000000000000000000000000000000000000008080851000000000808000a0000000000000000000000000000000000000000000000000000000000002000088000000000000000008a056e81f171bcc55a6ff8345e692c0f86e5b48e01b996cadc001622fb5e363b4218083060000a00000000000000000000000000000000000000000000000000000000000000000a0e3b0c44298fc1c149afbf4c8996fb92427ae41e4649b934ca495991b7852b855c0c0c0",
        "lastblockhash" : "0xc43b04ccec232df710f498e08a3c107bd029c8a10eab6c28c5e46c5155db2458",
        "network" : "Prague",
        "postState" : {
            "0x0000f90827f1c53a10cb7a02335b175320002935" : {
                "balance" : "0x00",
                "code" : "0x3373fffffffffffffffffffffffffffffffffffffffe14604657602036036042575f35600143038111604257611fff81430311604257611fff9006545f5260205ff35b5f5ffd5b5f35611fff60014303065500",
                "nonce" : "0x01",
                "storage" : {
                }
            },
            "0x000f3df6d732807ef1319fb7b8bb8522d0beac02" : {
                "balance" : "0x00",
                "code" : "0x3373fffffffffffffffffffffffffffffffffffffffe14604d57602036146024575f5ffd5b5f35801560495762001fff810690815414603c575f5ffd5b62001fff01545f5260205ff35b5f5ffd5b62001fff42064281555f359062001fff015500",
                "nonce" : "0x01",
                "storage" : {
                }
            },
            "0x095e7baea6a6c7c4c2dfeb977efac326af552d87" : {
                "balance" : "0x0de0b6b3a7640000",
                "code" : "0x60004960005500",
                "nonce" : "0x00",
                "storage" : {
                }
            },
            "0xa94f5374fce5edbc8e2a8697c15331677e6ebf0b" : {
                "balance" : "0x0de0b6b3a7640000",
                "code" : "0x",
                "nonce" : "0x00",
                "storage" : {
                }
            }
        },
        "pre" : {
            "0x0000f90827f1c53a10cb7a02335b175320002935" : {
                "balance" : "0x00",
                "code" : "0x3373fffffffffffffffffffffffffffffffffffffffe14604657602036036042575f35600143038111604257611fff81430311604257611fff9006545f5260205ff35b5f5ffd5b5f35611fff60014303065500",
                "nonce" : "0x01",
                "storage" : {
                }
            },
            "0x000f3df6d732807ef1319fb7b8bb8522d0beac02" : {
                "balance" : "0x00",
                "code" : "0x3373fffffffffffffffffffffffffffffffffffffffe14604d57602036146024575f5ffd5b5f35801560495762001fff810690815414603c575f5ffd5b62001fff01545f5260205ff35b5f5ffd5b62001fff42064281555f359062001fff015500",
                "nonce" : "0x01",
                "storage" : {
                }
            },
            "0x095e7baea6a6c7c4c2dfeb977efac326af552d87" : {
                "balance" : "0x0de0b6b3a7640000",
                "code" : "0x60004960005500",
                "nonce" : "0x00",
                "storage" : {
                }
            },
            "0xa94f5374fce5edbc8e2a8697c15331677e6ebf0b" : {
                "balance" : "0x0de0b6b3a7640000",
                "code" : "0x",
                "nonce" : "0x00",
                "storage" : {
                }
            }
        },
        "sealEngine" : "NoProof"
    }
}