{
    "createContractViaContract" : {
        "_info" : {
            "comment" : "",
            "filling-rpc-server" : "evmone-t8n 0.14.0-13+commit.4d363c36",
            "filling-tool-version" : "retesteth-0.3.2-legacy+commit.ca7f4c79.Linux.g++",
            "fixture-format" : "state_test",
            "generatedTestHash" : "333feb4cc3899b870fd37e15c676b960720bcdc1f9b20f00f8b91e9daf0a430a",
            "lllcversion" : "Version: 0.5.14-develop.2024.11.5+commit.b2b86751.mod.Linux.g++",
            "hyperion" : "Version: 0.8.24+commit.e11b9ed9.Linux.g++",
            "source" : "src/GeneralStateTestsFiller/stHomesteadSpecific/createContractViaContractFiller.json",
            "sourceHash" : "49557e8504d759a2e114c6d2b4296ee0f670e7114b14e32e44ba9d9bc6307d38"
        },
        "config" : {
            "blobSchedule" : {
                "Cancun" : {
                    "baseFeeUpdateFraction" : "0x32f0ed",
                    "max" : "0x06",
                    "target" : "0x03"
                },
                "Prague" : {
                    "baseFeeUpdateFraction" : "0x4c6964",
                    "max" : "0x09",
                    "target" : "0x06"
                }
            },
            "chainid" : "0x01"
        },
        "env" : {
            "currentBaseFee" : "0x0a",
            "currentCoinbase" : "Z2adc25665018aa1fe0e6bc666dac8fc2697ff9ba",
            "currentExcessBlobGas" : "0x00",
            "currentGasLimit" : "0x0f4240",
            "currentNumber" : "0x01",
            "currentRandom" : "0x0000000000000000000000000000000000000000000000000000000000020000",
            "currentTimestamp" : "0x03e8"
        },
        "post" : {
            "Cancun" : [
                {
                    "hash" : "0xe374974c2295d5c6ff0ec366fa3c79e80c76d279df1f2b72798bc667e7610e52",
                    "indexes" : {
                        "data" : 0,
                        "gas" : 0,
                        "value" : 0
                    },
                    "logs" : "0x1dcc4de8dec75d7aab85b567b6ccd41ad312451b948a7413f0a142fd40d49347",
                    "state" : {
                        "0x1000000000000000000000000000000000000001" : {
                            "balance" : "0x00",
                            "code" : "0x600060006000f000",
                            "nonce" : "0x01",
                            "storage" : {
                            }
                        },
                        "0x5dddfce53ee040d9eb21afbc0ae1bb4dbb0ba643" : {
                            "balance" : "0x00",
                            "code" : "0x",
                            "nonce" : "0x01",
                            "storage" : {
                            }
                        },
                        "0xa94f5374fce5edbc8e2a8697c15331677e6ebf0b" : {
                            "balance" : "0x072b96",
                            "code" : "0x",
                            "nonce" : "0x01",
                            "storage" : {
                            }
                        }
                    },
                    "txbytes" : "0xf860800a830186a094100000000000000000000000000000000000000180801ca0594f176e4711c05310f401064605ab57b4f9538858908aa379ddf6bb1a18c46ba01982f0c00049d0cb19c28ffe05f32952a3136f81dd6adc5ee34ac8144862a2f2"
                }
            ],
            "Prague" : [
                {
                    "hash" : "0xe374974c2295d5c6ff0ec366fa3c79e80c76d279df1f2b72798bc667e7610e52",
                    "indexes" : {
                        "data" : 0,
                        "gas" : 0,
                        "value" : 0
                    },
                    "logs" : "0x1dcc4de8dec75d7aab85b567b6ccd41ad312451b948a7413f0a142fd40d49347",
                    "state" : {
                        "0x1000000000000000000000000000000000000001" : {
                            "balance" : "0x00",
                            "code" : "0x600060006000f000",
                            "nonce" : "0x01",
                            "storage" : {
                            }
                        },
                        "0x5dddfce53ee040d9eb21afbc0ae1bb4dbb0ba643" : {
                            "balance" : "0x00",
                            "code" : "0x",
                            "nonce" : "0x01",
                            "storage" : {
                            }
                        },
                        "0xa94f5374fce5edbc8e2a8697c15331677e6ebf0b" : {
                            "balance" : "0x072b96",
                            "code" : "0x",
                            "nonce" : "0x01",
                            "storage" : {
                            }
                        }
                    },
                    "txbytes" : "0xf860800a830186a094100000000000000000000000000000000000000180801ca0594f176e4711c05310f401064605ab57b4f9538858908aa379ddf6bb1a18c46ba01982f0c00049d0cb19c28ffe05f32952a3136f81dd6adc5ee34ac8144862a2f2"
                }
            ]
        },
        "pre" : {
            "Z1000000000000000000000000000000000000001" : {
                "balance" : "0x00",
                "code" : "0x600060006000f000",
                "nonce" : "0x00",
                "storage" : {
                }
            },
            "Za94f5374fce5edbc8e2a8697c15331677e6ebf0b" : {
                "balance" : "0x0f4240",
                "code" : "0x",
                "nonce" : "0x00",
                "storage" : {
                }
            }
        },
        "transaction" : {
            "data" : [
                "0x"
            ],
            "gasLimit" : [
                "0x0186a0"
            ],
            "gasPrice" : "0x0a",
            "nonce" : "0x00",
            "secretKey" : "0x45a915e4d060149eb4365960e6a7a45f334393093061116b197e3240065ff2d8",
            "sender" : "0xa94f5374fce5edbc8e2a8697c15331677e6ebf0b",
            "to" : "Z1000000000000000000000000000000000000001",
            "value" : [
                "0x00"
            ]
        }
    }
}