{
    "gasLimitTooHigh2_Cancun" : {
        "_info" : {
            "comment" : "",
            "filling-rpc-server" : "evmone-t8n 0.14.0-13+commit.4d363c36",
            "filling-tool-version" : "retesteth-0.3.2-legacy+commit.ca7f4c79.Linux.g++",
            "fixture-format" : "blockchain_test",
            "generatedTestHash" : "702f7c33a6cf0d34c1b4ea1b569b42b52aecb5f4a78691315128ba5d541f2c07",
            "lllcversion" : "Version: 0.5.14-develop.2024.11.5+commit.b2b86751.mod.Linux.g++",
            "hyperion" : "Version: 0.8.24+commit.e11b9ed9.Linux.g++",
            "source" : "src/BlockchainTestsFiller/ValidBlocks/bcValidBlockTest/gasLimitTooHigh2Filler.json",
            "sourceHash" : "7b673107db2185e0a0957d66a726aa7732acc13b67b666c93908f65a02422415"
        },
        "blocks" : [
            {
                "blockHeader" : {
                    "baseFeePerGas" : "0x0e",
                    "bloom" : "0x00000000000000000000000000000000000000000000000000000000000000000000000000000000000000000000000000000000000000000000000000000000000000000000000000000000000000000000000000000000000000000000000000000000000000000000000000000000000000000000000000000000000000000000000000000000000000000000000000000000000000000000000000000000000000000000000000000000000000000000000000000000000000000000000000000000000000000000000000000000000000000000000000000000000000000000000000000000000000000000000000000000000000000000000000000000",
                    "coinbase" : "Z8888f1f195afa192cfee860698584c030f4c9db1",
                    "extraData" : "0x42",
                    "gasLimit" : "0x2fefd8",
                    "gasUsed" : "0x014820",
                    "hash" : "0xb5fec42e342dec79256282e183937a5270da71db7104800f686296d5d913f765",
                    "mixHash" : "0x0000000000000000000000000000000000000000000000000000000000020000",
                    "nonce" : "0x0000000000000000",
                    "number" : "0x01",
                    "parentHash" : "0x8cbc69e33bd85b1f8d7bc6cae8f1d4502b74cfd0cd5f24a558c0d0c257c69daa",
                    "receiptTrie" : "0x04deb4be6955e1a300123be48007597f67e4229f8ce70f4f10388de6fd3fa267",
                    "stateRoot" : "0xb46fe08a975a1b0823d30ed575565a470582dcccd6b565be9f837559b7592bd8",
                    "timestamp" : "0x54c99069",
                    "transactionsTrie" : "0xcc1f56c02b489e95c09aa8cea88718de0779a2771f817cf224cc028e8f2c04c3",
                    "withdrawalsRoot" : "0x56e81f171bcc55a6ff8345e692c0f86e5b48e01b996cadc001622fb5e363b421"
                },
                "blocknumber" : "1",
                "chainname" : "default",
                "rlp" : "0xf903d0f9023ca08cbc69e33bd85b1f8d7bc6cae8f1d4502b74cfd0cd5f24a558c0d0c257c69daaa01dcc4de8dec75d7aab85b567b6ccd41ad312451b948a7413f0a142fd40d49347948888f1f195afa192cfee860698584c030f4c9db1a0b46fe08a975a1b0823d30ed575565a470582dcccd6b565be9f837559b7592bd8a0cc1f56c02b489e95c09aa8cea88718de0779a2771f817cf224cc028e8f2c04c3a004deb4be6955e1a300123be48007597f67e4229f8ce70f4f10388de6fd3fa267b90100000000000000000000000000000000000000000000000000000000000000000000000000000000000000000000000000000000000000000000000000000000000000000000000000000000000000000000000000000000000000000000000000000000000000000000000000000000000000000000000000000000000000000000000000000000000000000000000000000000000000000000000000000000000000000000000000000000000000000000000000000000000000000000000000000000000000000000000000000000000000000000000000000000000000000000000000000000000000000000000000000000000000000000000000000000008001832fefd8830148208454c9906942a000000000000000000000000000000000000000000000000000000000000200008800000000000000000ea056e81f171bcc55a6ff8345e692c0f86e5b48e01b996cadc001622fb5e363b4218080a00000000000000000000000000000000000000000000000000000000000000000f9018cf861808203e882520894095e7baea6a6c7c4c2dfeb977efac326af552d870a801ba0d7d8ba6f919c39d05afa39bbfd07f3f20627d8a5aadef3b38a6eddafc66490a3a039aaedc4e066bccb0e735d66359024f352d7dce0f38adaf924bdfc2ea952bea5f861018203e882520894095e7baea6a6c7c4c2dfeb977efac326af552d870a801ba07e034d3ff2aa630a90229ac0d6557700ce311620e1a0d05e615ff18cac0a153ea013659dfdacbeb8ede0fc9d792f2b82c41e5f0b0bc4231b6919f7b1a8d6936dacf861028203e882520894095e7baea6a6c7c4c2dfeb977efac326af552d870a801ba007c4170ee8d6510cb56ee9a69e8ed545296fb35dcf316fb8513da59296bf4643a028dfbb6a5c05eeb16d440b141c39279c70472c85eb230f26e0a68c62a49d453ef861038203e882520894095e7baea6a6c7c4c2dfeb977efac326af552d870a801ca0272d02d2c2891c86b6672ba2195173293ef2e52bb9e1f047f7fb8d871cd491a0a07ed15a75abf0c99cf2cadd486ac3a6f5249190ca259320429949cceecdf3d407c0c0",
                "transactions" : [
                    {
                        "data" : "0x",
                        "gasLimit" : "0x5208",
                        "gasPrice" : "0x03e8",
                        "nonce" : "0x00",
                        "signature" : "0xd7d8ba6f919c39d05afa39bbfd07f3f20627d8a5aadef3b38a6eddafc66490a3",
                        "s" : "0x39aaedc4e066bccb0e735d66359024f352d7dce0f38adaf924bdfc2ea952bea5",
                        "sender" : "Za94f5374fce5edbc8e2a8697c15331677e6ebf0b",
                        "to" : "Z095e7baea6a6c7c4c2dfeb977efac326af552d87",
                        "v" : "0x1b",
                        "value" : "0x0a"
                    },
                    {
                        "data" : "0x",
                        "gasLimit" : "0x5208",
                        "gasPrice" : "0x03e8",
                        "nonce" : "0x01",
                        "signature" : "0x7e034d3ff2aa630a90229ac0d6557700ce311620e1a0d05e615ff18cac0a153e",
                        "s" : "0x13659dfdacbeb8ede0fc9d792f2b82c41e5f0b0bc4231b6919f7b1a8d6936dac",
                        "sender" : "Za94f5374fce5edbc8e2a8697c15331677e6ebf0b",
                        "to" : "Z095e7baea6a6c7c4c2dfeb977efac326af552d87",
                        "v" : "0x1b",
                        "value" : "0x0a"
                    },
                    {
                        "data" : "0x",
                        "gasLimit" : "0x5208",
                        "gasPrice" : "0x03e8",
                        "nonce" : "0x02",
                        "signature" : "0x07c4170ee8d6510cb56ee9a69e8ed545296fb35dcf316fb8513da59296bf4643",
                        "s" : "0x28dfbb6a5c05eeb16d440b141c39279c70472c85eb230f26e0a68c62a49d453e",
                        "sender" : "Za94f5374fce5edbc8e2a8697c15331677e6ebf0b",
                        "to" : "Z095e7baea6a6c7c4c2dfeb977efac326af552d87",
                        "v" : "0x1b",
                        "value" : "0x0a"
                    },
                    {
                        "data" : "0x",
                        "gasLimit" : "0x5208",
                        "gasPrice" : "0x03e8",
                        "nonce" : "0x03",
                        "signature" : "0x272d02d2c2891c86b6672ba2195173293ef2e52bb9e1f047f7fb8d871cd491a0",
                        "s" : "0x7ed15a75abf0c99cf2cadd486ac3a6f5249190ca259320429949cceecdf3d407",
                        "sender" : "Za94f5374fce5edbc8e2a8697c15331677e6ebf0b",
                        "to" : "Z095e7baea6a6c7c4c2dfeb977efac326af552d87",
                        "v" : "0x1c",
                        "value" : "0x0a"
                    }
                ],
                "uncleHeaders" : [
                ],
                "withdrawals" : [
                ]
            }
        ],
        "config" : {
            "blobSchedule" : {
                "Cancun" : {
                    "baseFeeUpdateFraction" : "0x32f0ed",
                    "max" : "0x06",
                    "target" : "0x03"
                }
            },
            "chainid" : "0x01",
            "network" : "Cancun"
        },
        "genesisBlockHeader" : {
            "baseFeePerGas" : "0x10",
            "bloom" : "0x00000000000000000000000000000000000000000000000000000000000000000000000000000000000000000000000000000000000000000000000000000000000000000000000000000000000000000000000000000000000000000000000000000000000000000000000000000000000000000000000000000000000000000000000000000000000000000000000000000000000000000000000000000000000000000000000000000000000000000000000000000000000000000000000000000000000000000000000000000000000000000000000000000000000000000000000000000000000000000000000000000000000000000000000000000000",
            "coinbase" : "Z8888f1f195afa192cfee860698584c030f4c9db1",
            "extraData" : "0x42",
            "gasLimit" : "0x2fefd8",
            "gasUsed" : "0x00",
            "hash" : "0x8cbc69e33bd85b1f8d7bc6cae8f1d4502b74cfd0cd5f24a558c0d0c257c69daa",
            "mixHash" : "0x0000000000000000000000000000000000000000000000000000000000020000",
            "nonce" : "0x0000000000000000",
            "number" : "0x00",
            "parentHash" : "0x0000000000000000000000000000000000000000000000000000000000000000",
            "receiptTrie" : "0x56e81f171bcc55a6ff8345e692c0f86e5b48e01b996cadc001622fb5e363b421",
            "stateRoot" : "0x53c881003b15376a1d1d235531d20bfccc8f1bdce9caeb6a6c5ac64a9c9b1e93",
            "timestamp" : "0x54c98c81",
            "transactionsTrie" : "0x56e81f171bcc55a6ff8345e692c0f86e5b48e01b996cadc001622fb5e363b421",
            "withdrawalsRoot" : "0x56e81f171bcc55a6ff8345e692c0f86e5b48e01b996cadc001622fb5e363b421"
        },
        "genesisRLP" : "0xf9023ff90239a00000000000000000000000000000000000000000000000000000000000000000a01dcc4de8dec75d7aab85b567b6ccd41ad312451b948a7413f0a142fd40d49347948888f1f195afa192cfee860698584c030f4c9db1a053c881003b15376a1d1d235531d20bfccc8f1bdce9caeb6a6c5ac64a9c9b1e93a056e81f171bcc55a6ff8345e692c0f86e5b48e01b996cadc001622fb5e363b421a056e81f171bcc55a6ff8345e692c0f86e5b48e01b996cadc001622fb5e363b421b90100000000000000000000000000000000000000000000000000000000000000000000000000000000000000000000000000000000000000000000000000000000000000000000000000000000000000000000000000000000000000000000000000000000000000000000000000000000000000000000000000000000000000000000000000000000000000000000000000000000000000000000000000000000000000000000000000000000000000000000000000000000000000000000000000000000000000000000000000000000000000000000000000000000000000000000000000000000000000000000000000000000000000000000000000000000008080832fefd8808454c98c8142a0000000000000000000000000000000000000000000000000000000000002000088000000000000000010a056e81f171bcc55a6ff8345e692c0f86e5b48e01b996cadc001622fb5e363b4218080a00000000000000000000000000000000000000000000000000000000000000000c0c0c0",
        "lastblockhash" : "0xb5fec42e342dec79256282e183937a5270da71db7104800f686296d5d913f765",
        "network" : "Cancun",
        "postState" : {
            "0x000f3df6d732807ef1319fb7b8bb8522d0beac02" : {
                "balance" : "0x00",
                "code" : "0x3373fffffffffffffffffffffffffffffffffffffffe14604d57602036146024575f5ffd5b5f35801560495762001fff810690815414603c575f5ffd5b62001fff01545f5260205ff35b5f5ffd5b62001fff42064281555f359062001fff015500",
                "nonce" : "0x01",
                "storage" : {
                    "0x12e2" : "0x54c98c81",
                    "0x16ca" : "0x54c99069"
                }
            },
            "0x095e7baea6a6c7c4c2dfeb977efac326af552d87" : {
                "balance" : "0x28",
                "code" : "0x",
                "nonce" : "0x00",
                "storage" : {
                }
            },
            "0x8888f1f195afa192cfee860698584c030f4c9db1" : {
                "balance" : "0x04efcb40",
                "code" : "0x",
                "nonce" : "0x00",
                "storage" : {
                }
            },
            "0xa94f5374fce5edbc8e2a8697c15331677e6ebf0b" : {
                "balance" : "0x024f0a26d8",
                "code" : "0x",
                "nonce" : "0x04",
                "storage" : {
                }
            }
        },
        "pre" : {
            "0x000f3df6d732807ef1319fb7b8bb8522d0beac02" : {
                "balance" : "0x00",
                "code" : "0x3373fffffffffffffffffffffffffffffffffffffffe14604d57602036146024575f5ffd5b5f35801560495762001fff810690815414603c575f5ffd5b62001fff01545f5260205ff35b5f5ffd5b62001fff42064281555f359062001fff015500",
                "nonce" : "0x01",
                "storage" : {
                    "0x12e2" : "0x54c98c81"
                }
            },
            "0xa94f5374fce5edbc8e2a8697c15331677e6ebf0b" : {
                "balance" : "0x02540be400",
                "code" : "0x",
                "nonce" : "0x00",
                "storage" : {
                }
            }
        },
        "sealEngine" : "NoProof"
    },
    "gasLimitTooHigh2_Prague" : {
        "_info" : {
            "comment" : "",
            "filling-rpc-server" : "evmone-t8n 0.14.0-13+commit.4d363c36",
            "filling-tool-version" : "retesteth-0.3.2-legacy+commit.ca7f4c79.Linux.g++",
            "fixture-format" : "blockchain_test",
            "generatedTestHash" : "249535b5c8eeadd71e5b56b40ba526ae0018d392bb006fc6a4d64be3b17c1740",
            "lllcversion" : "Version: 0.5.14-develop.2024.11.5+commit.b2b86751.mod.Linux.g++",
            "hyperion" : "Version: 0.8.24+commit.e11b9ed9.Linux.g++",
            "source" : "src/BlockchainTestsFiller/ValidBlocks/bcValidBlockTest/gasLimitTooHigh2Filler.json",
            "sourceHash" : "7b673107db2185e0a0957d66a726aa7732acc13b67b666c93908f65a02422415"
        },
        "blocks" : [
            {
                "blockHeader" : {
                    "baseFeePerGas" : "0x0e",
                    "bloom" : "0x00000000000000000000000000000000000000000000000000000000000000000000000000000000000000000000000000000000000000000000000000000000000000000000000000000000000000000000000000000000000000000000000000000000000000000000000000000000000000000000000000000000000000000000000000000000000000000000000000000000000000000000000000000000000000000000000000000000000000000000000000000000000000000000000000000000000000000000000000000000000000000000000000000000000000000000000000000000000000000000000000000000000000000000000000000000",
                    "coinbase" : "Z8888f1f195afa192cfee860698584c030f4c9db1",
                    "extraData" : "0x42",
                    "gasLimit" : "0x2fefd8",
                    "gasUsed" : "0x014820",
                    "hash" : "0xcd1e3ec42297dd7a9ba84a03f66b9a1c08b6fd377c59fb84be19f9461542043b",
                    "mixHash" : "0x0000000000000000000000000000000000000000000000000000000000020000",
                    "nonce" : "0x0000000000000000",
                    "number" : "0x01",
                    "parentHash" : "0x2233c6d455575e44123599ed4b7c33d0feb53f9ccd6b6a5e1af36e9168e71c37",
                    "receiptTrie" : "0x04deb4be6955e1a300123be48007597f67e4229f8ce70f4f10388de6fd3fa267",
                    "requestsHash" : "0xe3b0c44298fc1c149afbf4c8996fb92427ae41e4649b934ca495991b7852b855",
                    "stateRoot" : "0xec9269c326a3cc855ffae850a7413eb5655a70ba830239448b77ba79b088df6b",
                    "timestamp" : "0x54c99069",
                    "transactionsTrie" : "0xcc1f56c02b489e95c09aa8cea88718de0779a2771f817cf224cc028e8f2c04c3",
                    "withdrawalsRoot" : "0x56e81f171bcc55a6ff8345e692c0f86e5b48e01b996cadc001622fb5e363b421"
                },
                "blocknumber" : "1",
                "chainname" : "default",
                "rlp" : "0xf903f1f9025da02233c6d455575e44123599ed4b7c33d0feb53f9ccd6b6a5e1af36e9168e71c37a01dcc4de8dec75d7aab85b567b6ccd41ad312451b948a7413f0a142fd40d49347948888f1f195afa192cfee860698584c030f4c9db1a0ec9269c326a3cc855ffae850a7413eb5655a70ba830239448b77ba79b088df6ba0cc1f56c02b489e95c09aa8cea88718de0779a2771f817cf224cc028e8f2c04c3a004deb4be6955e1a300123be48007597f67e4229f8ce70f4f10388de6fd3fa267b90100000000000000000000000000000000000000000000000000000000000000000000000000000000000000000000000000000000000000000000000000000000000000000000000000000000000000000000000000000000000000000000000000000000000000000000000000000000000000000000000000000000000000000000000000000000000000000000000000000000000000000000000000000000000000000000000000000000000000000000000000000000000000000000000000000000000000000000000000000000000000000000000000000000000000000000000000000000000000000000000000000000000000000000000000000000008001832fefd8830148208454c9906942a000000000000000000000000000000000000000000000000000000000000200008800000000000000000ea056e81f171bcc55a6ff8345e692c0f86e5b48e01b996cadc001622fb5e363b4218080a00000000000000000000000000000000000000000000000000000000000000000a0e3b0c44298fc1c149afbf4c8996fb92427ae41e4649b934ca495991b7852b855f9018cf861808203e882520894095e7baea6a6c7c4c2dfeb977efac326af552d870a801ba0d7d8ba6f919c39d05afa39bbfd07f3f20627d8a5aadef3b38a6eddafc66490a3a039aaedc4e066bccb0e735d66359024f352d7dce0f38adaf924bdfc2ea952bea5f861018203e882520894095e7baea6a6c7c4c2dfeb977efac326af552d870a801ba07e034d3ff2aa630a90229ac0d6557700ce311620e1a0d05e615ff18cac0a153ea013659dfdacbeb8ede0fc9d792f2b82c41e5f0b0bc4231b6919f7b1a8d6936dacf861028203e882520894095e7baea6a6c7c4c2dfeb977efac326af552d870a801ba007c4170ee8d6510cb56ee9a69e8ed545296fb35dcf316fb8513da59296bf4643a028dfbb6a5c05eeb16d440b141c39279c70472c85eb230f26e0a68c62a49d453ef861038203e882520894095e7baea6a6c7c4c2dfeb977efac326af552d870a801ca0272d02d2c2891c86b6672ba2195173293ef2e52bb9e1f047f7fb8d871cd491a0a07ed15a75abf0c99cf2cadd486ac3a6f5249190ca259320429949cceecdf3d407c0c0",
                "transactions" : [
                    {
                        "data" : "0x",
                        "gasLimit" : "0x5208",
                        "gasPrice" : "0x03e8",
                        "nonce" : "0x00",
                        "signature" : "0xd7d8ba6f919c39d05afa39bbfd07f3f20627d8a5aadef3b38a6eddafc66490a3",
                        "s" : "0x39aaedc4e066bccb0e735d66359024f352d7dce0f38adaf924bdfc2ea952bea5",
                        "sender" : "Za94f5374fce5edbc8e2a8697c15331677e6ebf0b",
                        "to" : "Z095e7baea6a6c7c4c2dfeb977efac326af552d87",
                        "v" : "0x1b",
                        "value" : "0x0a"
                    },
                    {
                        "data" : "0x",
                        "gasLimit" : "0x5208",
                        "gasPrice" : "0x03e8",
                        "nonce" : "0x01",
                        "signature" : "0x7e034d3ff2aa630a90229ac0d6557700ce311620e1a0d05e615ff18cac0a153e",
                        "s" : "0x13659dfdacbeb8ede0fc9d792f2b82c41e5f0b0bc4231b6919f7b1a8d6936dac",
                        "sender" : "Za94f5374fce5edbc8e2a8697c15331677e6ebf0b",
                        "to" : "Z095e7baea6a6c7c4c2dfeb977efac326af552d87",
                        "v" : "0x1b",
                        "value" : "0x0a"
                    },
                    {
                        "data" : "0x",
                        "gasLimit" : "0x5208",
                        "gasPrice" : "0x03e8",
                        "nonce" : "0x02",
                        "signature" : "0x07c4170ee8d6510cb56ee9a69e8ed545296fb35dcf316fb8513da59296bf4643",
                        "s" : "0x28dfbb6a5c05eeb16d440b141c39279c70472c85eb230f26e0a68c62a49d453e",
                        "sender" : "Za94f5374fce5edbc8e2a8697c15331677e6ebf0b",
                        "to" : "Z095e7baea6a6c7c4c2dfeb977efac326af552d87",
                        "v" : "0x1b",
                        "value" : "0x0a"
                    },
                    {
                        "data" : "0x",
                        "gasLimit" : "0x5208",
                        "gasPrice" : "0x03e8",
                        "nonce" : "0x03",
                        "signature" : "0x272d02d2c2891c86b6672ba2195173293ef2e52bb9e1f047f7fb8d871cd491a0",
                        "s" : "0x7ed15a75abf0c99cf2cadd486ac3a6f5249190ca259320429949cceecdf3d407",
                        "sender" : "Za94f5374fce5edbc8e2a8697c15331677e6ebf0b",
                        "to" : "Z095e7baea6a6c7c4c2dfeb977efac326af552d87",
                        "v" : "0x1c",
                        "value" : "0x0a"
                    }
                ],
                "uncleHeaders" : [
                ],
                "withdrawals" : [
                ]
            }
        ],
        "config" : {
            "blobSchedule" : {
                "Prague" : {
                    "baseFeeUpdateFraction" : "0x4c6964",
                    "max" : "0x09",
                    "target" : "0x06"
                }
            },
            "chainid" : "0x01",
            "network" : "Prague"
        },
        "genesisBlockHeader" : {
            "baseFeePerGas" : "0x10",
            "bloom" : "0x00000000000000000000000000000000000000000000000000000000000000000000000000000000000000000000000000000000000000000000000000000000000000000000000000000000000000000000000000000000000000000000000000000000000000000000000000000000000000000000000000000000000000000000000000000000000000000000000000000000000000000000000000000000000000000000000000000000000000000000000000000000000000000000000000000000000000000000000000000000000000000000000000000000000000000000000000000000000000000000000000000000000000000000000000000000",
            "coinbase" : "Z8888f1f195afa192cfee860698584c030f4c9db1",
            "extraData" : "0x42",
            "gasLimit" : "0x2fefd8",
            "gasUsed" : "0x00",
            "hash" : "0x2233c6d455575e44123599ed4b7c33d0feb53f9ccd6b6a5e1af36e9168e71c37",
            "mixHash" : "0x0000000000000000000000000000000000000000000000000000000000020000",
            "nonce" : "0x0000000000000000",
            "number" : "0x00",
            "parentHash" : "0x0000000000000000000000000000000000000000000000000000000000000000",
            "receiptTrie" : "0x56e81f171bcc55a6ff8345e692c0f86e5b48e01b996cadc001622fb5e363b421",
            "requestsHash" : "0xe3b0c44298fc1c149afbf4c8996fb92427ae41e4649b934ca495991b7852b855",
            "stateRoot" : "0xa1504d413ce0d0b8b9e58571db6901584fb1f7f1b5cf8d467806280a175bc8ce",
            "timestamp" : "0x54c98c81",
            "transactionsTrie" : "0x56e81f171bcc55a6ff8345e692c0f86e5b48e01b996cadc001622fb5e363b421",
            "withdrawalsRoot" : "0x56e81f171bcc55a6ff8345e692c0f86e5b48e01b996cadc001622fb5e363b421"
        },
        "genesisRLP" : "0xf90260f9025aa00000000000000000000000000000000000000000000000000000000000000000a01dcc4de8dec75d7aab85b567b6ccd41ad312451b948a7413f0a142fd40d49347948888f1f195afa192cfee860698584c030f4c9db1a0a1504d413ce0d0b8b9e58571db6901584fb1f7f1b5cf8d467806280a175bc8cea056e81f171bcc55a6ff8345e692c0f86e5b48e01b996cadc001622fb5e363b421a056e81f171bcc55a6ff8345e692c0f86e5b48e01b996cadc001622fb5e363b421b90100000000000000000000000000000000000000000000000000000000000000000000000000000000000000000000000000000000000000000000000000000000000000000000000000000000000000000000000000000000000000000000000000000000000000000000000000000000000000000000000000000000000000000000000000000000000000000000000000000000000000000000000000000000000000000000000000000000000000000000000000000000000000000000000000000000000000000000000000000000000000000000000000000000000000000000000000000000000000000000000000000000000000000000000000000000008080832fefd8808454c98c8142a0000000000000000000000000000000000000000000000000000000000002000088000000000000000010a056e81f171bcc55a6ff8345e692c0f86e5b48e01b996cadc001622fb5e363b4218080a00000000000000000000000000000000000000000000000000000000000000000a0e3b0c44298fc1c149afbf4c8996fb92427ae41e4649b934ca495991b7852b855c0c0c0",
        "lastblockhash" : "0xcd1e3ec42297dd7a9ba84a03f66b9a1c08b6fd377c59fb84be19f9461542043b",
        "network" : "Prague",
        "postState" : {
            "0x0000f90827f1c53a10cb7a02335b175320002935" : {
                "balance" : "0x00",
                "code" : "0x3373fffffffffffffffffffffffffffffffffffffffe14604657602036036042575f35600143038111604257611fff81430311604257611fff9006545f5260205ff35b5f5ffd5b5f35611fff60014303065500",
                "nonce" : "0x01",
                "storage" : {
                    "0x00" : "0x2233c6d455575e44123599ed4b7c33d0feb53f9ccd6b6a5e1af36e9168e71c37"
                }
            },
            "0x000f3df6d732807ef1319fb7b8bb8522d0beac02" : {
                "balance" : "0x00",
                "code" : "0x3373fffffffffffffffffffffffffffffffffffffffe14604d57602036146024575f5ffd5b5f35801560495762001fff810690815414603c575f5ffd5b62001fff01545f5260205ff35b5f5ffd5b62001fff42064281555f359062001fff015500",
                "nonce" : "0x01",
                "storage" : {
                    "0x12e2" : "0x54c98c81",
                    "0x16ca" : "0x54c99069"
                }
            },
            "0x095e7baea6a6c7c4c2dfeb977efac326af552d87" : {
                "balance" : "0x28",
                "code" : "0x",
                "nonce" : "0x00",
                "storage" : {
                }
            },
            "0x8888f1f195afa192cfee860698584c030f4c9db1" : {
                "balance" : "0x04efcb40",
                "code" : "0x",
                "nonce" : "0x00",
                "storage" : {
                }
            },
            "0xa94f5374fce5edbc8e2a8697c15331677e6ebf0b" : {
                "balance" : "0x024f0a26d8",
                "code" : "0x",
                "nonce" : "0x04",
                "storage" : {
                }
            }
        },
        "pre" : {
            "0x0000f90827f1c53a10cb7a02335b175320002935" : {
                "balance" : "0x00",
                "code" : "0x3373fffffffffffffffffffffffffffffffffffffffe14604657602036036042575f35600143038111604257611fff81430311604257611fff9006545f5260205ff35b5f5ffd5b5f35611fff60014303065500",
                "nonce" : "0x01",
                "storage" : {
                }
            },
            "0x000f3df6d732807ef1319fb7b8bb8522d0beac02" : {
                "balance" : "0x00",
                "code" : "0x3373fffffffffffffffffffffffffffffffffffffffe14604d57602036146024575f5ffd5b5f35801560495762001fff810690815414603c575f5ffd5b62001fff01545f5260205ff35b5f5ffd5b62001fff42064281555f359062001fff015500",
                "nonce" : "0x01",
                "storage" : {
                    "0x12e2" : "0x54c98c81"
                }
            },
            "0xa94f5374fce5edbc8e2a8697c15331677e6ebf0b" : {
                "balance" : "0x02540be400",
                "code" : "0x",
                "nonce" : "0x00",
                "storage" : {
                }
            }
        },
        "sealEngine" : "NoProof"
    }
}