{
    "RecallSuicidedContractInOneBlock_Cancun" : {
        "_info" : {
            "comment" : "",
            "filling-rpc-server" : "evmone-t8n 0.14.0-13+commit.4d363c36",
            "filling-tool-version" : "retesteth-0.3.2-legacy+commit.ca7f4c79.Linux.g++",
            "fixture-format" : "blockchain_test",
            "generatedTestHash" : "3b35631af28c1fb6ed56d144e794c90f3b54b37adffdf451c05964ffb9b05c4b",
            "lllcversion" : "Version: 0.5.14-develop.2024.11.5+commit.b2b86751.mod.Linux.g++",
            "hyperion" : "Version: 0.8.24+commit.e11b9ed9.Linux.g++",
            "source" : "src/BlockchainTestsFiller/ValidBlocks/bcValidBlockTest/RecallSuicidedContractInOneBlockFiller.json",
            "sourceHash" : "19a1bc80c3f534d0a73614e63c3be6d06d2bb61850321147f5663e4ce59f9bb9"
        },
        "blocks" : [
            {
                "blockHeader" : {
                    "baseFeePerGas" : "0x0e",
                    "bloom" : "0x00000000000000000000000000000000000000000000000000000000000000000000000000000000000000000000000000000000000000000000000000000000000000000000000000000000000000000000000000000000000000000000000000000000000000000000000000000000000000000000000000000000000000000000000000000000000000000000000000000000000000000000000000000000000000000000000000000000000000000000000000000000000000000000000000000000000000000000000000000000000000000000000000000000000000000000000000000000000000000000000000000000000000000000000000000000",
                    "coinbase" : "Z8888f1f195afa192cfee860698584c030f4c9db1",
                    "extraData" : "0x42",
                    "gasLimit" : "0x2fefd8",
                    "gasUsed" : "0x010da2",
                    "hash" : "0x324127d0f2ef17b264d28ee4d9d0783e8ec860810c0973a699fc74fb1baac76b",
                    "mixHash" : "0x0000000000000000000000000000000000000000000000000000000000020000",
                    "nonce" : "0x0000000000000000",
                    "number" : "0x01",
                    "parentHash" : "0xfc96de622c494ad156bddd8953449830246ebf75564ef37aaf9142db066497c0",
                    "receiptTrie" : "0x14d6d62475eb10bb7cd23283f337fb05e62e83b0339674c3f6e99c69b0962d9e",
                    "stateRoot" : "0x227a253e963f2e3f08af6692c3f10a4c3e972eb8d6eb1f50dd96358dc7e31444",
                    "timestamp" : "0x54c99069",
                    "transactionsTrie" : "0x41e378dcd010cb50a8f02946c9b6e66e4c5b26265f386730360063c7b58697dc",
                    "withdrawalsRoot" : "0x56e81f171bcc55a6ff8345e692c0f86e5b48e01b996cadc001622fb5e363b421"
                },
                "blocknumber" : "1",
                "chainname" : "default",
                "rlp" : "0xf902ecf9023ca0fc96de622c494ad156bddd8953449830246ebf75564ef37aaf9142db066497c0a01dcc4de8dec75d7aab85b567b6ccd41ad312451b948a7413f0a142fd40d49347948888f1f195afa192cfee860698584c030f4c9db1a0227a253e963f2e3f08af6692c3f10a4c3e972eb8d6eb1f50dd96358dc7e31444a041e378dcd010cb50a8f02946c9b6e66e4c5b26265f386730360063c7b58697dca014d6d62475eb10bb7cd23283f337fb05e62e83b0339674c3f6e99c69b0962d9eb90100000000000000000000000000000000000000000000000000000000000000000000000000000000000000000000000000000000000000000000000000000000000000000000000000000000000000000000000000000000000000000000000000000000000000000000000000000000000000000000000000000000000000000000000000000000000000000000000000000000000000000000000000000000000000000000000000000000000000000000000000000000000000000000000000000000000000000000000000000000000000000000000000000000000000000000000000000000000000000000000000000000000000000000000000000000008001832fefd883010da28454c9906942a000000000000000000000000000000000000000000000000000000000000200008800000000000000000ea056e81f171bcc55a6ff8345e692c0f86e5b48e01b996cadc001622fb5e363b4218080a00000000000000000000000000000000000000000000000000000000000000000f8a9f8a7808203e88307a1208081ffb857604b80600c6000396000f3007c01000000000000000000000000000000000000000000000000000000006000350463cbf0b0c08114602d57005b60006004358073ffffffffffffffffffffffffffffffffffffffff16ff1ca02ed88b3c3201c87385a284f73e2753f5b3d4634af79315d7ac7a2c8cb1dfe68ba058f710b6894d19b4fd839de0c0836bdfee6ef1be979078690e9fcff685dda1f6c0c0",
                "transactions" : [
                    {
                        "data" : "0x604b80600c6000396000f3007c01000000000000000000000000000000000000000000000000000000006000350463cbf0b0c08114602d57005b60006004358073ffffffffffffffffffffffffffffffffffffffff16ff",
                        "gasLimit" : "0x07a120",
                        "gasPrice" : "0x03e8",
                        "nonce" : "0x00",
                        "signature" : "0x2ed88b3c3201c87385a284f73e2753f5b3d4634af79315d7ac7a2c8cb1dfe68b",
                        "s" : "0x58f710b6894d19b4fd839de0c0836bdfee6ef1be979078690e9fcff685dda1f6",
                        "sender" : "Za94f5374fce5edbc8e2a8697c15331677e6ebf0b",
                        "to" : "",
                        "v" : "0x1c",
                        "value" : "0xff"
                    }
                ],
                "uncleHeaders" : [
                ],
                "withdrawals" : [
                ]
            },
            {
                "blockHeader" : {
                    "baseFeePerGas" : "0x0d",
                    "bloom" : "0x00000000000000000000000000000000000000000000000000000000000000000000000000000000000000000000000000000000000000000000000000000000000000000000000000000000000000000000000000000000000000000000000000000000000000000000000000000000000000000000000000000000000000000000000000000000000000000000000000000000000000000000000000000000000000000000000000000000000000000000000000000000000000000000000000000000000000000000000000000000000000000000000000000000000000000000000000000000000000000000000000000000000000000000000000000000",
                    "coinbase" : "Z8888f1f195afa192cfee860698584c030f4c9db1",
                    "extraData" : "0x42",
                    "gasLimit" : "0x2fefd8",
                    "gasUsed" : "0x01a502",
                    "hash" : "0x612e3ce751eb2a5456316d223b983038cd1867f7081142709932dd9d72bdd513",
                    "mixHash" : "0x0000000000000000000000000000000000000000000000000000000000020000",
                    "nonce" : "0x0000000000000000",
                    "number" : "0x02",
                    "parentHash" : "0x324127d0f2ef17b264d28ee4d9d0783e8ec860810c0973a699fc74fb1baac76b",
                    "receiptTrie" : "0x3af4d1a9ab0a685d8ad349d330819cfeb778e9ea9b143d766aa302679e91ba1e",
                    "stateRoot" : "0x49d6eeada354c4a6a714d882ffcee13d7a617f5767aeadee9108ce7235767950",
                    "timestamp" : "0x54c99451",
                    "transactionsTrie" : "0xb5103a2344b9a25e1da69094cec1896b9ec63267df8f8fb8bd331795e61bc15f",
                    "withdrawalsRoot" : "0x56e81f171bcc55a6ff8345e692c0f86e5b48e01b996cadc001622fb5e363b421"
                },
                "blocknumber" : "2",
                "chainname" : "default",
                "rlp" : "0xf90354f9023ca0324127d0f2ef17b264d28ee4d9d0783e8ec860810c0973a699fc74fb1baac76ba01dcc4de8dec75d7aab85b567b6ccd41ad312451b948a7413f0a142fd40d49347948888f1f195afa192cfee860698584c030f4c9db1a049d6eeada354c4a6a714d882ffcee13d7a617f5767aeadee9108ce7235767950a0b5103a2344b9a25e1da69094cec1896b9ec63267df8f8fb8bd331795e61bc15fa03af4d1a9ab0a685d8ad349d330819cfeb778e9ea9b143d766aa302679e91ba1eb90100000000000000000000000000000000000000000000000000000000000000000000000000000000000000000000000000000000000000000000000000000000000000000000000000000000000000000000000000000000000000000000000000000000000000000000000000000000000000000000000000000000000000000000000000000000000000000000000000000000000000000000000000000000000000000000000000000000000000000000000000000000000000000000000000000000000000000000000000000000000000000000000000000000000000000000000000000000000000000000000000000000000000000000000000000000008002832fefd88301a5028454c9945142a000000000000000000000000000000000000000000000000000000000000200008800000000000000000da056e81f171bcc55a6ff8345e692c0f86e5b48e01b996cadc001622fb5e363b4218080a00000000000000000000000000000000000000000000000000000000000000000f90110f886018203e88307a120946295ee1b4f6dd65047762f924ecd367c17eabf8f01a4cbf0b0c000000000000000000000000000000000000000000000000000000000000000001ba035628acd3651867bccf68ae2c121f3864327f20b2f193b5e0ea44bf2a730e102a009624760f1d2055d44e7ca402c3a0cd377e93041e364d093e11172277f827e2cf886028203e88307a120946295ee1b4f6dd65047762f924ecd367c17eabf8f01a4cbf0b0c001100000000000110000000000000110000000000000110000000000000000111ca06a0b7a21626658fd3d3d9bf411f7e2c1eb56086755f0df7aa0d7ed3b9a2ad681a040878bf30a0b2243d61765cd7531c884fa87a90a38d43eb51b02f9459786fd8bc0c0",
                "transactions" : [
                    {
                        "data" : "0xcbf0b0c00000000000000000000000000000000000000000000000000000000000000000",
                        "gasLimit" : "0x07a120",
                        "gasPrice" : "0x03e8",
                        "nonce" : "0x01",
                        "signature" : "0x35628acd3651867bccf68ae2c121f3864327f20b2f193b5e0ea44bf2a730e102",
                        "s" : "0x09624760f1d2055d44e7ca402c3a0cd377e93041e364d093e11172277f827e2c",
                        "sender" : "Za94f5374fce5edbc8e2a8697c15331677e6ebf0b",
                        "to" : "Z6295ee1b4f6dd65047762f924ecd367c17eabf8f",
                        "v" : "0x1b",
                        "value" : "0x01"
                    },
                    {
                        "data" : "0xcbf0b0c00110000000000011000000000000011000000000000011000000000000000011",
                        "gasLimit" : "0x07a120",
                        "gasPrice" : "0x03e8",
                        "nonce" : "0x02",
                        "signature" : "0x6a0b7a21626658fd3d3d9bf411f7e2c1eb56086755f0df7aa0d7ed3b9a2ad681",
                        "s" : "0x40878bf30a0b2243d61765cd7531c884fa87a90a38d43eb51b02f9459786fd8b",
                        "sender" : "Za94f5374fce5edbc8e2a8697c15331677e6ebf0b",
                        "to" : "Z6295ee1b4f6dd65047762f924ecd367c17eabf8f",
                        "v" : "0x1c",
                        "value" : "0x01"
                    }
                ],
                "uncleHeaders" : [
                ],
                "withdrawals" : [
                ]
            }
        ],
        "config" : {
            "blobSchedule" : {
                "Cancun" : {
                    "baseFeeUpdateFraction" : "0x32f0ed",
                    "max" : "0x06",
                    "target" : "0x03"
                }
            },
            "chainid" : "0x01",
            "network" : "Cancun"
        },
        "genesisBlockHeader" : {
            "baseFeePerGas" : "0x10",
            "bloom" : "0x00000000000000000000000000000000000000000000000000000000000000000000000000000000000000000000000000000000000000000000000000000000000000000000000000000000000000000000000000000000000000000000000000000000000000000000000000000000000000000000000000000000000000000000000000000000000000000000000000000000000000000000000000000000000000000000000000000000000000000000000000000000000000000000000000000000000000000000000000000000000000000000000000000000000000000000000000000000000000000000000000000000000000000000000000000000",
            "coinbase" : "Z8888f1f195afa192cfee860698584c030f4c9db1",
            "extraData" : "0x42",
            "gasLimit" : "0x2fefd8",
            "gasUsed" : "0x00",
            "hash" : "0xfc96de622c494ad156bddd8953449830246ebf75564ef37aaf9142db066497c0",
            "mixHash" : "0x0000000000000000000000000000000000000000000000000000000000020000",
            "nonce" : "0x0000000000000000",
            "number" : "0x00",
            "parentHash" : "0x0000000000000000000000000000000000000000000000000000000000000000",
            "receiptTrie" : "0x56e81f171bcc55a6ff8345e692c0f86e5b48e01b996cadc001622fb5e363b421",
            "stateRoot" : "0x5fc38a0c9f4d4df3e0db7e905d6737fa029d9949848831534a245e1121bb2dba",
            "timestamp" : "0x54c98c81",
            "transactionsTrie" : "0x56e81f171bcc55a6ff8345e692c0f86e5b48e01b996cadc001622fb5e363b421",
            "withdrawalsRoot" : "0x56e81f171bcc55a6ff8345e692c0f86e5b48e01b996cadc001622fb5e363b421"
        },
        "genesisRLP" : "0xf9023ff90239a00000000000000000000000000000000000000000000000000000000000000000a01dcc4de8dec75d7aab85b567b6ccd41ad312451b948a7413f0a142fd40d49347948888f1f195afa192cfee860698584c030f4c9db1a05fc38a0c9f4d4df3e0db7e905d6737fa029d9949848831534a245e1121bb2dbaa056e81f171bcc55a6ff8345e692c0f86e5b48e01b996cadc001622fb5e363b421a056e81f171bcc55a6ff8345e692c0f86e5b48e01b996cadc001622fb5e363b421b90100000000000000000000000000000000000000000000000000000000000000000000000000000000000000000000000000000000000000000000000000000000000000000000000000000000000000000000000000000000000000000000000000000000000000000000000000000000000000000000000000000000000000000000000000000000000000000000000000000000000000000000000000000000000000000000000000000000000000000000000000000000000000000000000000000000000000000000000000000000000000000000000000000000000000000000000000000000000000000000000000000000000000000000000000000000008080832fefd8808454c98c8142a0000000000000000000000000000000000000000000000000000000000002000088000000000000000010a056e81f171bcc55a6ff8345e692c0f86e5b48e01b996cadc001622fb5e363b4218080a00000000000000000000000000000000000000000000000000000000000000000c0c0c0",
        "lastblockhash" : "0x612e3ce751eb2a5456316d223b983038cd1867f7081142709932dd9d72bdd513",
        "network" : "Cancun",
        "postState" : {
            "0x0000000000000000000000000000000000000000" : {
                "balance" : "0x0100",
                "code" : "0x",
                "nonce" : "0x00",
                "storage" : {
                }
            },
            "0x0000011000000000000011000000000000000011" : {
                "balance" : "0x01",
                "code" : "0x",
                "nonce" : "0x00",
                "storage" : {
                }
            },
            "0x000f3df6d732807ef1319fb7b8bb8522d0beac02" : {
                "balance" : "0x00",
                "code" : "0x3373fffffffffffffffffffffffffffffffffffffffe14604d57602036146024575f5ffd5b5f35801560495762001fff810690815414603c575f5ffd5b62001fff01545f5260205ff35b5f5ffd5b62001fff42064281555f359062001fff015500",
                "nonce" : "0x01",
                "storage" : {
                    "0x12e2" : "0x54c98c81",
                    "0x16ca" : "0x54c99069",
                    "0x1ab2" : "0x54c99451"
                }
            },
            "0x6295ee1b4f6dd65047762f924ecd367c17eabf8f" : {
                "balance" : "0x00",
                "code" : "0x7c01000000000000000000000000000000000000000000000000000000006000350463cbf0b0c08114602d57005b60006004358073ffffffffffffffffffffffffffffffffffffffff16ff",
                "nonce" : "0x01",
                "storage" : {
                }
            },
            "0x8888f1f195afa192cfee860698584c030f4c9db1" : {
                "balance" : "0x0a65b0aa",
                "code" : "0x",
                "nonce" : "0x00",
                "storage" : {
                }
            },
            "0xa94f5374fce5edbc8e2a8697c15331677e6ebf0b" : {
                "balance" : "0x091843e8ce5f",
                "code" : "0x",
                "nonce" : "0x03",
                "storage" : {
                }
            }
        },
        "pre" : {
            "0x000f3df6d732807ef1319fb7b8bb8522d0beac02" : {
                "balance" : "0x00",
                "code" : "0x3373fffffffffffffffffffffffffffffffffffffffe14604d57602036146024575f5ffd5b5f35801560495762001fff810690815414603c575f5ffd5b62001fff01545f5260205ff35b5f5ffd5b62001fff42064281555f359062001fff015500",
                "nonce" : "0x01",
                "storage" : {
                    "0x12e2" : "0x54c98c81"
                }
            },
            "0xa94f5374fce5edbc8e2a8697c15331677e6ebf0b" : {
                "balance" : "0x09184e72a000",
                "code" : "0x",
                "nonce" : "0x00",
                "storage" : {
                }
            }
        },
        "sealEngine" : "NoProof"
    },
    "RecallSuicidedContractInOneBlock_Prague" : {
        "_info" : {
            "comment" : "",
            "filling-rpc-server" : "evmone-t8n 0.14.0-13+commit.4d363c36",
            "filling-tool-version" : "retesteth-0.3.2-legacy+commit.ca7f4c79.Linux.g++",
            "fixture-format" : "blockchain_test",
            "generatedTestHash" : "56040dff726961df4576a061e8619beb5ebcc37a56cccbbecc760565790a9a5f",
            "lllcversion" : "Version: 0.5.14-develop.2024.11.5+commit.b2b86751.mod.Linux.g++",
            "hyperion" : "Version: 0.8.24+commit.e11b9ed9.Linux.g++",
            "source" : "src/BlockchainTestsFiller/ValidBlocks/bcValidBlockTest/RecallSuicidedContractInOneBlockFiller.json",
            "sourceHash" : "19a1bc80c3f534d0a73614e63c3be6d06d2bb61850321147f5663e4ce59f9bb9"
        },
        "blocks" : [
            {
                "blockHeader" : {
                    "baseFeePerGas" : "0x0e",
                    "bloom" : "0x00000000000000000000000000000000000000000000000000000000000000000000000000000000000000000000000000000000000000000000000000000000000000000000000000000000000000000000000000000000000000000000000000000000000000000000000000000000000000000000000000000000000000000000000000000000000000000000000000000000000000000000000000000000000000000000000000000000000000000000000000000000000000000000000000000000000000000000000000000000000000000000000000000000000000000000000000000000000000000000000000000000000000000000000000000000",
                    "coinbase" : "Z8888f1f195afa192cfee860698584c030f4c9db1",
                    "extraData" : "0x42",
                    "gasLimit" : "0x2fefd8",
                    "gasUsed" : "0x010da2",
                    "hash" : "0xdc60c9b0a8507341477c2901271f50b4a9c65d2cd87fcbabb8fa3b466f91c012",
                    "mixHash" : "0x0000000000000000000000000000000000000000000000000000000000020000",
                    "nonce" : "0x0000000000000000",
                    "number" : "0x01",
                    "parentHash" : "0x335f62eb1c883fcfb0793b87d41f58f72f6ba58dda3758cc6468b25fd11e7e8b",
                    "receiptTrie" : "0x14d6d62475eb10bb7cd23283f337fb05e62e83b0339674c3f6e99c69b0962d9e",
                    "requestsHash" : "0xe3b0c44298fc1c149afbf4c8996fb92427ae41e4649b934ca495991b7852b855",
                    "stateRoot" : "0xd8a57c28eec73b0e73c303031dcdcbe8bbc79d58fbfdb2e16953bee68946e181",
                    "timestamp" : "0x54c99069",
                    "transactionsTrie" : "0x41e378dcd010cb50a8f02946c9b6e66e4c5b26265f386730360063c7b58697dc",
                    "withdrawalsRoot" : "0x56e81f171bcc55a6ff8345e692c0f86e5b48e01b996cadc001622fb5e363b421"
                },
                "blocknumber" : "1",
                "chainname" : "default",
                "rlp" : "0xf9030df9025da0335f62eb1c883fcfb0793b87d41f58f72f6ba58dda3758cc6468b25fd11e7e8ba01dcc4de8dec75d7aab85b567b6ccd41ad312451b948a7413f0a142fd40d49347948888f1f195afa192cfee860698584c030f4c9db1a0d8a57c28eec73b0e73c303031dcdcbe8bbc79d58fbfdb2e16953bee68946e181a041e378dcd010cb50a8f02946c9b6e66e4c5b26265f386730360063c7b58697dca014d6d62475eb10bb7cd23283f337fb05e62e83b0339674c3f6e99c69b0962d9eb90100000000000000000000000000000000000000000000000000000000000000000000000000000000000000000000000000000000000000000000000000000000000000000000000000000000000000000000000000000000000000000000000000000000000000000000000000000000000000000000000000000000000000000000000000000000000000000000000000000000000000000000000000000000000000000000000000000000000000000000000000000000000000000000000000000000000000000000000000000000000000000000000000000000000000000000000000000000000000000000000000000000000000000000000000000000008001832fefd883010da28454c9906942a000000000000000000000000000000000000000000000000000000000000200008800000000000000000ea056e81f171bcc55a6ff8345e692c0f86e5b48e01b996cadc001622fb5e363b4218080a00000000000000000000000000000000000000000000000000000000000000000a0e3b0c44298fc1c149afbf4c8996fb92427ae41e4649b934ca495991b7852b855f8a9f8a7808203e88307a1208081ffb857604b80600c6000396000f3007c01000000000000000000000000000000000000000000000000000000006000350463cbf0b0c08114602d57005b60006004358073ffffffffffffffffffffffffffffffffffffffff16ff1ca02ed88b3c3201c87385a284f73e2753f5b3d4634af79315d7ac7a2c8cb1dfe68ba058f710b6894d19b4fd839de0c0836bdfee6ef1be979078690e9fcff685dda1f6c0c0",
                "transactions" : [
                    {
                        "data" : "0x604b80600c6000396000f3007c01000000000000000000000000000000000000000000000000000000006000350463cbf0b0c08114602d57005b60006004358073ffffffffffffffffffffffffffffffffffffffff16ff",
                        "gasLimit" : "0x07a120",
                        "gasPrice" : "0x03e8",
                        "nonce" : "0x00",
                        "signature" : "0x2ed88b3c3201c87385a284f73e2753f5b3d4634af79315d7ac7a2c8cb1dfe68b",
                        "s" : "0x58f710b6894d19b4fd839de0c0836bdfee6ef1be979078690e9fcff685dda1f6",
                        "sender" : "Za94f5374fce5edbc8e2a8697c15331677e6ebf0b",
                        "to" : "",
                        "v" : "0x1c",
                        "value" : "0xff"
                    }
                ],
                "uncleHeaders" : [
                ],
                "withdrawals" : [
                ]
            },
            {
                "blockHeader" : {
                    "baseFeePerGas" : "0x0d",
                    "bloom" : "0x00000000000000000000000000000000000000000000000000000000000000000000000000000000000000000000000000000000000000000000000000000000000000000000000000000000000000000000000000000000000000000000000000000000000000000000000000000000000000000000000000000000000000000000000000000000000000000000000000000000000000000000000000000000000000000000000000000000000000000000000000000000000000000000000000000000000000000000000000000000000000000000000000000000000000000000000000000000000000000000000000000000000000000000000000000000",
                    "coinbase" : "Z8888f1f195afa192cfee860698584c030f4c9db1",
                    "extraData" : "0x42",
                    "gasLimit" : "0x2fefd8",
                    "gasUsed" : "0x01a502",
                    "hash" : "0x5abef374f071e119e60767218f8695792331c8e834484507951fd09280ae9038",
                    "mixHash" : "0x0000000000000000000000000000000000000000000000000000000000020000",
                    "nonce" : "0x0000000000000000",
                    "number" : "0x02",
                    "parentHash" : "0xdc60c9b0a8507341477c2901271f50b4a9c65d2cd87fcbabb8fa3b466f91c012",
                    "receiptTrie" : "0x3af4d1a9ab0a685d8ad349d330819cfeb778e9ea9b143d766aa302679e91ba1e",
                    "requestsHash" : "0xe3b0c44298fc1c149afbf4c8996fb92427ae41e4649b934ca495991b7852b855",
                    "stateRoot" : "0xab0d7e334494fdbaa694ca778de1e9eb60939fbe2f2393b82715651773d17aad",
                    "timestamp" : "0x54c99451",
                    "transactionsTrie" : "0xb5103a2344b9a25e1da69094cec1896b9ec63267df8f8fb8bd331795e61bc15f",
                    "withdrawalsRoot" : "0x56e81f171bcc55a6ff8345e692c0f86e5b48e01b996cadc001622fb5e363b421"
                },
                "blocknumber" : "2",
                "chainname" : "default",
                "rlp" : "0xf90375f9025da0dc60c9b0a8507341477c2901271f50b4a9c65d2cd87fcbabb8fa3b466f91c012a01dcc4de8dec75d7aab85b567b6ccd41ad312451b948a7413f0a142fd40d49347948888f1f195afa192cfee860698584c030f4c9db1a0ab0d7e334494fdbaa694ca778de1e9eb60939fbe2f2393b82715651773d17aada0b5103a2344b9a25e1da69094cec1896b9ec63267df8f8fb8bd331795e61bc15fa03af4d1a9ab0a685d8ad349d330819cfeb778e9ea9b143d766aa302679e91ba1eb90100000000000000000000000000000000000000000000000000000000000000000000000000000000000000000000000000000000000000000000000000000000000000000000000000000000000000000000000000000000000000000000000000000000000000000000000000000000000000000000000000000000000000000000000000000000000000000000000000000000000000000000000000000000000000000000000000000000000000000000000000000000000000000000000000000000000000000000000000000000000000000000000000000000000000000000000000000000000000000000000000000000000000000000000000000000008002832fefd88301a5028454c9945142a000000000000000000000000000000000000000000000000000000000000200008800000000000000000da056e81f171bcc55a6ff8345e692c0f86e5b48e01b996cadc001622fb5e363b4218080a00000000000000000000000000000000000000000000000000000000000000000a0e3b0c44298fc1c149afbf4c8996fb92427ae41e4649b934ca495991b7852b855f90110f886018203e88307a120946295ee1b4f6dd65047762f924ecd367c17eabf8f01a4cbf0b0c000000000000000000000000000000000000000000000000000000000000000001ba035628acd3651867bccf68ae2c121f3864327f20b2f193b5e0ea44bf2a730e102a009624760f1d2055d44e7ca402c3a0cd377e93041e364d093e11172277f827e2cf886028203e88307a120946295ee1b4f6dd65047762f924ecd367c17eabf8f01a4cbf0b0c001100000000000110000000000000110000000000000110000000000000000111ca06a0b7a21626658fd3d3d9bf411f7e2c1eb56086755f0df7aa0d7ed3b9a2ad681a040878bf30a0b2243d61765cd7531c884fa87a90a38d43eb51b02f9459786fd8bc0c0",
                "transactions" : [
                    {
                        "data" : "0xcbf0b0c00000000000000000000000000000000000000000000000000000000000000000",
                        "gasLimit" : "0x07a120",
                        "gasPrice" : "0x03e8",
                        "nonce" : "0x01",
                        "signature" : "0x35628acd3651867bccf68ae2c121f3864327f20b2f193b5e0ea44bf2a730e102",
                        "s" : "0x09624760f1d2055d44e7ca402c3a0cd377e93041e364d093e11172277f827e2c",
                        "sender" : "Za94f5374fce5edbc8e2a8697c15331677e6ebf0b",
                        "to" : "Z6295ee1b4f6dd65047762f924ecd367c17eabf8f",
                        "v" : "0x1b",
                        "value" : "0x01"
                    },
                    {
                        "data" : "0xcbf0b0c00110000000000011000000000000011000000000000011000000000000000011",
                        "gasLimit" : "0x07a120",
                        "gasPrice" : "0x03e8",
                        "nonce" : "0x02",
                        "signature" : "0x6a0b7a21626658fd3d3d9bf411f7e2c1eb56086755f0df7aa0d7ed3b9a2ad681",
                        "s" : "0x40878bf30a0b2243d61765cd7531c884fa87a90a38d43eb51b02f9459786fd8b",
                        "sender" : "Za94f5374fce5edbc8e2a8697c15331677e6ebf0b",
                        "to" : "Z6295ee1b4f6dd65047762f924ecd367c17eabf8f",
                        "v" : "0x1c",
                        "value" : "0x01"
                    }
                ],
                "uncleHeaders" : [
                ],
                "withdrawals" : [
                ]
            }
        ],
        "config" : {
            "blobSchedule" : {
                "Prague" : {
                    "baseFeeUpdateFraction" : "0x4c6964",
                    "max" : "0x09",
                    "target" : "0x06"
                }
            },
            "chainid" : "0x01",
            "network" : "Prague"
        },
        "genesisBlockHeader" : {
            "baseFeePerGas" : "0x10",
            "bloom" : "0x00000000000000000000000000000000000000000000000000000000000000000000000000000000000000000000000000000000000000000000000000000000000000000000000000000000000000000000000000000000000000000000000000000000000000000000000000000000000000000000000000000000000000000000000000000000000000000000000000000000000000000000000000000000000000000000000000000000000000000000000000000000000000000000000000000000000000000000000000000000000000000000000000000000000000000000000000000000000000000000000000000000000000000000000000000000",
            "coinbase" : "Z8888f1f195afa192cfee860698584c030f4c9db1",
            "extraData" : "0x42",
            "gasLimit" : "0x2fefd8",
            "gasUsed" : "0x00",
            "hash" : "0x335f62eb1c883fcfb0793b87d41f58f72f6ba58dda3758cc6468b25fd11e7e8b",
            "mixHash" : "0x0000000000000000000000000000000000000000000000000000000000020000",
            "nonce" : "0x0000000000000000",
            "number" : "0x00",
            "parentHash" : "0x0000000000000000000000000000000000000000000000000000000000000000",
            "receiptTrie" : "0x56e81f171bcc55a6ff8345e692c0f86e5b48e01b996cadc001622fb5e363b421",
            "requestsHash" : "0xe3b0c44298fc1c149afbf4c8996fb92427ae41e4649b934ca495991b7852b855",
            "stateRoot" : "0x24404bc632098ebbd62b766a4ee0759197ec063578de068eae38bee31debe231",
            "timestamp" : "0x54c98c81",
            "transactionsTrie" : "0x56e81f171bcc55a6ff8345e692c0f86e5b48e01b996cadc001622fb5e363b421",
            "withdrawalsRoot" : "0x56e81f171bcc55a6ff8345e692c0f86e5b48e01b996cadc001622fb5e363b421"
        },
        "genesisRLP" : "0xf90260f9025aa00000000000000000000000000000000000000000000000000000000000000000a01dcc4de8dec75d7aab85b567b6ccd41ad312451b948a7413f0a142fd40d49347948888f1f195afa192cfee860698584c030f4c9db1a024404bc632098ebbd62b766a4ee0759197ec063578de068eae38bee31debe231a056e81f171bcc55a6ff8345e692c0f86e5b48e01b996cadc001622fb5e363b421a056e81f171bcc55a6ff8345e692c0f86e5b48e01b996cadc001622fb5e363b421b90100000000000000000000000000000000000000000000000000000000000000000000000000000000000000000000000000000000000000000000000000000000000000000000000000000000000000000000000000000000000000000000000000000000000000000000000000000000000000000000000000000000000000000000000000000000000000000000000000000000000000000000000000000000000000000000000000000000000000000000000000000000000000000000000000000000000000000000000000000000000000000000000000000000000000000000000000000000000000000000000000000000000000000000000000000000008080832fefd8808454c98c8142a0000000000000000000000000000000000000000000000000000000000002000088000000000000000010a056e81f171bcc55a6ff8345e692c0f86e5b48e01b996cadc001622fb5e363b4218080a00000000000000000000000000000000000000000000000000000000000000000a0e3b0c44298fc1c149afbf4c8996fb92427ae41e4649b934ca495991b7852b855c0c0c0",
        "lastblockhash" : "0x5abef374f071e119e60767218f8695792331c8e834484507951fd09280ae9038",
        "network" : "Prague",
        "postState" : {
            "0x0000000000000000000000000000000000000000" : {
                "balance" : "0x0100",
                "code" : "0x",
                "nonce" : "0x00",
                "storage" : {
                }
            },
            "0x0000011000000000000011000000000000000011" : {
                "balance" : "0x01",
                "code" : "0x",
                "nonce" : "0x00",
                "storage" : {
                }
            },
            "0x0000f90827f1c53a10cb7a02335b175320002935" : {
                "balance" : "0x00",
                "code" : "0x3373fffffffffffffffffffffffffffffffffffffffe14604657602036036042575f35600143038111604257611fff81430311604257611fff9006545f5260205ff35b5f5ffd5b5f35611fff60014303065500",
                "nonce" : "0x01",
                "storage" : {
                    "0x00" : "0x335f62eb1c883fcfb0793b87d41f58f72f6ba58dda3758cc6468b25fd11e7e8b",
                    "0x01" : "0xdc60c9b0a8507341477c2901271f50b4a9c65d2cd87fcbabb8fa3b466f91c012"
                }
            },
            "0x000f3df6d732807ef1319fb7b8bb8522d0beac02" : {
                "balance" : "0x00",
                "code" : "0x3373fffffffffffffffffffffffffffffffffffffffe14604d57602036146024575f5ffd5b5f35801560495762001fff810690815414603c575f5ffd5b62001fff01545f5260205ff35b5f5ffd5b62001fff42064281555f359062001fff015500",
                "nonce" : "0x01",
                "storage" : {
                    "0x12e2" : "0x54c98c81",
                    "0x16ca" : "0x54c99069",
                    "0x1ab2" : "0x54c99451"
                }
            },
            "0x6295ee1b4f6dd65047762f924ecd367c17eabf8f" : {
                "balance" : "0x00",
                "code" : "0x7c01000000000000000000000000000000000000000000000000000000006000350463cbf0b0c08114602d57005b60006004358073ffffffffffffffffffffffffffffffffffffffff16ff",
                "nonce" : "0x01",
                "storage" : {
                }
            },
            "0x8888f1f195afa192cfee860698584c030f4c9db1" : {
                "balance" : "0x0a65b0aa",
                "code" : "0x",
                "nonce" : "0x00",
                "storage" : {
                }
            },
            "0xa94f5374fce5edbc8e2a8697c15331677e6ebf0b" : {
                "balance" : "0x091843e8ce5f",
                "code" : "0x",
                "nonce" : "0x03",
                "storage" : {
                }
            }
        },
        "pre" : {
            "0x0000f90827f1c53a10cb7a02335b175320002935" : {
                "balance" : "0x00",
                "code" : "0x3373fffffffffffffffffffffffffffffffffffffffe14604657602036036042575f35600143038111604257611fff81430311604257611fff9006545f5260205ff35b5f5ffd5b5f35611fff60014303065500",
                "nonce" : "0x01",
                "storage" : {
                }
            },
            "0x000f3df6d732807ef1319fb7b8bb8522d0beac02" : {
                "balance" : "0x00",
                "code" : "0x3373fffffffffffffffffffffffffffffffffffffffe14604d57602036146024575f5ffd5b5f35801560495762001fff810690815414603c575f5ffd5b62001fff01545f5260205ff35b5f5ffd5b62001fff42064281555f359062001fff015500",
                "nonce" : "0x01",
                "storage" : {
                    "0x12e2" : "0x54c98c81"
                }
            },
            "0xa94f5374fce5edbc8e2a8697c15331677e6ebf0b" : {
                "balance" : "0x09184e72a000",
                "code" : "0x",
                "nonce" : "0x00",
                "storage" : {
                }
            }
        },
        "sealEngine" : "NoProof"
    }
}