{
    "RecallSuicidedContract_Cancun" : {
        "_info" : {
            "comment" : "",
            "filling-rpc-server" : "evmone-t8n 0.14.0-13+commit.4d363c36",
            "filling-tool-version" : "retesteth-0.3.2-legacy+commit.ca7f4c79.Linux.g++",
            "fixture-format" : "blockchain_test",
            "generatedTestHash" : "038ce8e5f6b3f2c0eb412bf31652c70f17d8e7ce714cafeb053eb13daacfad06",
            "lllcversion" : "Version: 0.5.14-develop.2024.11.5+commit.b2b86751.mod.Linux.g++",
            "solidity" : "Version: 0.8.24+commit.e11b9ed9.Linux.g++",
            "source" : "src/BlockchainTestsFiller/ValidBlocks/bcValidBlockTest/RecallSuicidedContractFiller.json",
            "sourceHash" : "2c4b570785a96a82fe5876befd34b8d8b8c29ff5aa3bcf23eda09aa1ecdae031"
        },
        "blocks" : [
            {
                "blockHeader" : {
                    "baseFeePerGas" : "0x0e",
                    "bloom" : "0x00000000000000000000000000000000000000000000000000000000000000000000000000000000000000000000000000000000000000000000000000000000000000000000000000000000000000000000000000000000000000000000000000000000000000000000000000000000000000000000000000000000000000000000000000000000000000000000000000000000000000000000000000000000000000000000000000000000000000000000000000000000000000000000000000000000000000000000000000000000000000000000000000000000000000000000000000000000000000000000000000000000000000000000000000000000",
                    "coinbase" : "0x8888f1f195afa192cfee860698584c030f4c9db1",
                    "extraData" : "0x42",
                    "gasLimit" : "0x2fefd8",
                    "gasUsed" : "0x010da2",
                    "hash" : "0x324127d0f2ef17b264d28ee4d9d0783e8ec860810c0973a699fc74fb1baac76b",
                    "mixHash" : "0x0000000000000000000000000000000000000000000000000000000000020000",
                    "nonce" : "0x0000000000000000",
                    "number" : "0x01",
                    "parentBeaconBlockRoot" : "0x0000000000000000000000000000000000000000000000000000000000000000",
                    "parentHash" : "0xfc96de622c494ad156bddd8953449830246ebf75564ef37aaf9142db066497c0",
                    "receiptTrie" : "0x14d6d62475eb10bb7cd23283f337fb05e62e83b0339674c3f6e99c69b0962d9e",
                    "stateRoot" : "0x227a253e963f2e3f08af6692c3f10a4c3e972eb8d6eb1f50dd96358dc7e31444",
                    "timestamp" : "0x54c99069",
                    "transactionsTrie" : "0x41e378dcd010cb50a8f02946c9b6e66e4c5b26265f386730360063c7b58697dc",
                    "withdrawalsRoot" : "0x56e81f171bcc55a6ff8345e692c0f86e5b48e01b996cadc001622fb5e363b421"
                },
                "blocknumber" : "1",
                "chainname" : "default",
                "rlp" : "0xf902ecf9023ca0fc96de622c494ad156bddd8953449830246ebf75564ef37aaf9142db066497c0a01dcc4de8dec75d7aab85b567b6ccd41ad312451b948a7413f0a142fd40d49347948888f1f195afa192cfee860698584c030f4c9db1a0227a253e963f2e3f08af6692c3f10a4c3e972eb8d6eb1f50dd96358dc7e31444a041e378dcd010cb50a8f02946c9b6e66e4c5b26265f386730360063c7b58697dca014d6d62475eb10bb7cd23283f337fb05e62e83b0339674c3f6e99c69b0962d9eb90100000000000000000000000000000000000000000000000000000000000000000000000000000000000000000000000000000000000000000000000000000000000000000000000000000000000000000000000000000000000000000000000000000000000000000000000000000000000000000000000000000000000000000000000000000000000000000000000000000000000000000000000000000000000000000000000000000000000000000000000000000000000000000000000000000000000000000000000000000000000000000000000000000000000000000000000000000000000000000000000000000000000000000000000000000000008001832fefd883010da28454c9906942a000000000000000000000000000000000000000000000000000000000000200008800000000000000000ea056e81f171bcc55a6ff8345e692c0f86e5b48e01b996cadc001622fb5e363b4218080a00000000000000000000000000000000000000000000000000000000000000000f8a9f8a7808203e88307a1208081ffb857604b80600c6000396000f3007c01000000000000000000000000000000000000000000000000000000006000350463cbf0b0c08114602d57005b60006004358073ffffffffffffffffffffffffffffffffffffffff16ff1ca02ed88b3c3201c87385a284f73e2753f5b3d4634af79315d7ac7a2c8cb1dfe68ba058f710b6894d19b4fd839de0c0836bdfee6ef1be979078690e9fcff685dda1f6c0c0",
                "transactions" : [
                    {
                        "data" : "0x604b80600c6000396000f3007c01000000000000000000000000000000000000000000000000000000006000350463cbf0b0c08114602d57005b60006004358073ffffffffffffffffffffffffffffffffffffffff16ff",
                        "gasLimit" : "0x07a120",
                        "gasPrice" : "0x03e8",
                        "nonce" : "0x00",
                        "r" : "0x2ed88b3c3201c87385a284f73e2753f5b3d4634af79315d7ac7a2c8cb1dfe68b",
                        "s" : "0x58f710b6894d19b4fd839de0c0836bdfee6ef1be979078690e9fcff685dda1f6",
                        "sender" : "0xa94f5374fce5edbc8e2a8697c15331677e6ebf0b",
                        "to" : "",
                        "v" : "0x1c",
                        "value" : "0xff"
                    }
                ],
                "uncleHeaders" : [
                ],
                "withdrawals" : [
                ]
            },
            {
                "blockHeader" : {
                    "baseFeePerGas" : "0x0d",
                    "bloom" : "0x00000000000000000000000000000000000000000000000000000000000000000000000000000000000000000000000000000000000000000000000000000000000000000000000000000000000000000000000000000000000000000000000000000000000000000000000000000000000000000000000000000000000000000000000000000000000000000000000000000000000000000000000000000000000000000000000000000000000000000000000000000000000000000000000000000000000000000000000000000000000000000000000000000000000000000000000000000000000000000000000000000000000000000000000000000000",
                    "coinbase" : "0x8888f1f195afa192cfee860698584c030f4c9db1",
                    "extraData" : "0x42",
                    "gasLimit" : "0x2fefd8",
                    "gasUsed" : "0xd257",
                    "hash" : "0x72e5ef145df360ecb73dc09e86873a431514e84a60bfe47ae79c640bda92281b",
                    "mixHash" : "0x0000000000000000000000000000000000000000000000000000000000020000",
                    "nonce" : "0x0000000000000000",
                    "number" : "0x02",
                    "parentBeaconBlockRoot" : "0x0000000000000000000000000000000000000000000000000000000000000000",
                    "parentHash" : "0x324127d0f2ef17b264d28ee4d9d0783e8ec860810c0973a699fc74fb1baac76b",
                    "receiptTrie" : "0x6e88302de7ff0b136f7c8b331b1c8f603d1c00f15389afb688ef1539fecd63fa",
                    "stateRoot" : "0x44b50c97f9e90993d9b1ef93dfd7f3e36b7ac2ec13bf1f41828b24bb1cd07914",
                    "timestamp" : "0x54c99451",
                    "transactionsTrie" : "0x7577de1ff0234bfd7d73f418f7acd67ea7f67641c120659881f30b1d30f53818",
                    "withdrawalsRoot" : "0x56e81f171bcc55a6ff8345e692c0f86e5b48e01b996cadc001622fb5e363b421"
                },
                "blocknumber" : "2",
                "chainname" : "default",
                "rlp" : "0xf902caf9023ba0324127d0f2ef17b264d28ee4d9d0783e8ec860810c0973a699fc74fb1baac76ba01dcc4de8dec75d7aab85b567b6ccd41ad312451b948a7413f0a142fd40d49347948888f1f195afa192cfee860698584c030f4c9db1a044b50c97f9e90993d9b1ef93dfd7f3e36b7ac2ec13bf1f41828b24bb1cd07914a07577de1ff0234bfd7d73f418f7acd67ea7f67641c120659881f30b1d30f53818a06e88302de7ff0b136f7c8b331b1c8f603d1c00f15389afb688ef1539fecd63fab90100000000000000000000000000000000000000000000000000000000000000000000000000000000000000000000000000000000000000000000000000000000000000000000000000000000000000000000000000000000000000000000000000000000000000000000000000000000000000000000000000000000000000000000000000000000000000000000000000000000000000000000000000000000000000000000000000000000000000000000000000000000000000000000000000000000000000000000000000000000000000000000000000000000000000000000000000000000000000000000000000000000000000000000000000000000008002832fefd882d2578454c9945142a000000000000000000000000000000000000000000000000000000000000200008800000000000000000da056e81f171bcc55a6ff8345e692c0f86e5b48e01b996cadc001622fb5e363b4218080a00000000000000000000000000000000000000000000000000000000000000000f888f886018203e88307a120946295ee1b4f6dd65047762f924ecd367c17eabf8f01a4cbf0b0c000000000000000000000000000000000000000000000000000000000000000001ba035628acd3651867bccf68ae2c121f3864327f20b2f193b5e0ea44bf2a730e102a009624760f1d2055d44e7ca402c3a0cd377e93041e364d093e11172277f827e2cc0c0",
                "transactions" : [
                    {
                        "data" : "0xcbf0b0c00000000000000000000000000000000000000000000000000000000000000000",
                        "gasLimit" : "0x07a120",
                        "gasPrice" : "0x03e8",
                        "nonce" : "0x01",
                        "r" : "0x35628acd3651867bccf68ae2c121f3864327f20b2f193b5e0ea44bf2a730e102",
                        "s" : "0x09624760f1d2055d44e7ca402c3a0cd377e93041e364d093e11172277f827e2c",
                        "sender" : "0xa94f5374fce5edbc8e2a8697c15331677e6ebf0b",
                        "to" : "0x6295ee1b4f6dd65047762f924ecd367c17eabf8f",
                        "v" : "0x1b",
                        "value" : "0x01"
                    }
                ],
                "uncleHeaders" : [
                ],
                "withdrawals" : [
                ]
            },
            {
                "blockHeader" : {
                    "baseFeePerGas" : "0x0c",
                    "bloom" : "0x00000000000000000000000000000000000000000000000000000000000000000000000000000000000000000000000000000000000000000000000000000000000000000000000000000000000000000000000000000000000000000000000000000000000000000000000000000000000000000000000000000000000000000000000000000000000000000000000000000000000000000000000000000000000000000000000000000000000000000000000000000000000000000000000000000000000000000000000000000000000000000000000000000000000000000000000000000000000000000000000000000000000000000000000000000000",
                    "coinbase" : "0x8888f1f195afa192cfee860698584c030f4c9db1",
                    "extraData" : "0x42",
                    "gasLimit" : "0x2fefd8",
                    "gasUsed" : "0xd2ab",
                    "hash" : "0x797db2d2a3f4814cd6912308a1ba9b2f55a9df3a6ec94ee4b026948c5b9eb213",
                    "mixHash" : "0x0000000000000000000000000000000000000000000000000000000000020000",
                    "nonce" : "0x0000000000000000",
                    "number" : "0x03",
                    "parentBeaconBlockRoot" : "0x0000000000000000000000000000000000000000000000000000000000000000",
                    "parentHash" : "0x72e5ef145df360ecb73dc09e86873a431514e84a60bfe47ae79c640bda92281b",
                    "receiptTrie" : "0x19da60638964ad4695a6d0bf11c51a9683efd4691a339b40bd00ca97664b7d7d",
                    "stateRoot" : "0xc5f6518047d472e5940e9db165df4928e22e27ccf4419de159507ebbb9e6acd4",
                    "timestamp" : "0x54c99839",
                    "transactionsTrie" : "0xf889b23bd665ddecde82dbbbd9a2fbb87ef45a038c6c2ee017b4ea62daa48c09",
                    "withdrawalsRoot" : "0x56e81f171bcc55a6ff8345e692c0f86e5b48e01b996cadc001622fb5e363b421"
                },
                "blocknumber" : "3",
                "chainname" : "default",
                "rlp" : "0xf902caf9023ba072e5ef145df360ecb73dc09e86873a431514e84a60bfe47ae79c640bda92281ba01dcc4de8dec75d7aab85b567b6ccd41ad312451b948a7413f0a142fd40d49347948888f1f195afa192cfee860698584c030f4c9db1a0c5f6518047d472e5940e9db165df4928e22e27ccf4419de159507ebbb9e6acd4a0f889b23bd665ddecde82dbbbd9a2fbb87ef45a038c6c2ee017b4ea62daa48c09a019da60638964ad4695a6d0bf11c51a9683efd4691a339b40bd00ca97664b7d7db90100000000000000000000000000000000000000000000000000000000000000000000000000000000000000000000000000000000000000000000000000000000000000000000000000000000000000000000000000000000000000000000000000000000000000000000000000000000000000000000000000000000000000000000000000000000000000000000000000000000000000000000000000000000000000000000000000000000000000000000000000000000000000000000000000000000000000000000000000000000000000000000000000000000000000000000000000000000000000000000000000000000000000000000000000000000008003832fefd882d2ab8454c9983942a000000000000000000000000000000000000000000000000000000000000200008800000000000000000ca056e81f171bcc55a6ff8345e692c0f86e5b48e01b996cadc001622fb5e363b4218080a00000000000000000000000000000000000000000000000000000000000000000f888f886028203e88307a120946295ee1b4f6dd65047762f924ecd367c17eabf8f01a4cbf0b0c001100000000000110000000000000110000000000000110000000000000000111ca06a0b7a21626658fd3d3d9bf411f7e2c1eb56086755f0df7aa0d7ed3b9a2ad681a040878bf30a0b2243d61765cd7531c884fa87a90a38d43eb51b02f9459786fd8bc0c0",
                "transactions" : [
                    {
                        "data" : "0xcbf0b0c00110000000000011000000000000011000000000000011000000000000000011",
                        "gasLimit" : "0x07a120",
                        "gasPrice" : "0x03e8",
                        "nonce" : "0x02",
                        "r" : "0x6a0b7a21626658fd3d3d9bf411f7e2c1eb56086755f0df7aa0d7ed3b9a2ad681",
                        "s" : "0x40878bf30a0b2243d61765cd7531c884fa87a90a38d43eb51b02f9459786fd8b",
                        "sender" : "0xa94f5374fce5edbc8e2a8697c15331677e6ebf0b",
                        "to" : "0x6295ee1b4f6dd65047762f924ecd367c17eabf8f",
                        "v" : "0x1c",
                        "value" : "0x01"
                    }
                ],
                "uncleHeaders" : [
                ],
                "withdrawals" : [
                ]
            }
        ],
        "config" : {
            "blobSchedule" : {
                "Cancun" : {
                    "baseFeeUpdateFraction" : "0x32f0ed",
                    "max" : "0x06",
                    "target" : "0x03"
                }
            },
            "chainid" : "0x01",
            "network" : "Cancun"
        },
        "genesisBlockHeader" : {
            "baseFeePerGas" : "0x10",
            "bloom" : "0x00000000000000000000000000000000000000000000000000000000000000000000000000000000000000000000000000000000000000000000000000000000000000000000000000000000000000000000000000000000000000000000000000000000000000000000000000000000000000000000000000000000000000000000000000000000000000000000000000000000000000000000000000000000000000000000000000000000000000000000000000000000000000000000000000000000000000000000000000000000000000000000000000000000000000000000000000000000000000000000000000000000000000000000000000000000",
            "coinbase" : "0x8888f1f195afa192cfee860698584c030f4c9db1",
            "extraData" : "0x42",
            "gasLimit" : "0x2fefd8",
            "gasUsed" : "0x00",
            "hash" : "0xfc96de622c494ad156bddd8953449830246ebf75564ef37aaf9142db066497c0",
            "mixHash" : "0x0000000000000000000000000000000000000000000000000000000000020000",
            "nonce" : "0x0000000000000000",
            "number" : "0x00",
            "parentBeaconBlockRoot" : "0x0000000000000000000000000000000000000000000000000000000000000000",
            "parentHash" : "0x0000000000000000000000000000000000000000000000000000000000000000",
            "receiptTrie" : "0x56e81f171bcc55a6ff8345e692c0f86e5b48e01b996cadc001622fb5e363b421",
            "stateRoot" : "0x5fc38a0c9f4d4df3e0db7e905d6737fa029d9949848831534a245e1121bb2dba",
            "timestamp" : "0x54c98c81",
            "transactionsTrie" : "0x56e81f171bcc55a6ff8345e692c0f86e5b48e01b996cadc001622fb5e363b421",
            "withdrawalsRoot" : "0x56e81f171bcc55a6ff8345e692c0f86e5b48e01b996cadc001622fb5e363b421"
        },
        "genesisRLP" : "0xf9023ff90239a00000000000000000000000000000000000000000000000000000000000000000a01dcc4de8dec75d7aab85b567b6ccd41ad312451b948a7413f0a142fd40d49347948888f1f195afa192cfee860698584c030f4c9db1a05fc38a0c9f4d4df3e0db7e905d6737fa029d9949848831534a245e1121bb2dbaa056e81f171bcc55a6ff8345e692c0f86e5b48e01b996cadc001622fb5e363b421a056e81f171bcc55a6ff8345e692c0f86e5b48e01b996cadc001622fb5e363b421b90100000000000000000000000000000000000000000000000000000000000000000000000000000000000000000000000000000000000000000000000000000000000000000000000000000000000000000000000000000000000000000000000000000000000000000000000000000000000000000000000000000000000000000000000000000000000000000000000000000000000000000000000000000000000000000000000000000000000000000000000000000000000000000000000000000000000000000000000000000000000000000000000000000000000000000000000000000000000000000000000000000000000000000000000000000000008080832fefd8808454c98c8142a0000000000000000000000000000000000000000000000000000000000002000088000000000000000010a056e81f171bcc55a6ff8345e692c0f86e5b48e01b996cadc001622fb5e363b4218080a00000000000000000000000000000000000000000000000000000000000000000c0c0c0",
        "lastblockhash" : "0x797db2d2a3f4814cd6912308a1ba9b2f55a9df3a6ec94ee4b026948c5b9eb213",
        "network" : "Cancun",
        "postState" : {
            "0x0000000000000000000000000000000000000000" : {
                "balance" : "0x0100",
                "code" : "0x",
                "nonce" : "0x00",
                "storage" : {
                }
            },
            "0x0000011000000000000011000000000000000011" : {
                "balance" : "0x01",
                "code" : "0x",
                "nonce" : "0x00",
                "storage" : {
                }
            },
            "0x000f3df6d732807ef1319fb7b8bb8522d0beac02" : {
                "balance" : "0x00",
                "code" : "0x3373fffffffffffffffffffffffffffffffffffffffe14604d57602036146024575f5ffd5b5f35801560495762001fff810690815414603c575f5ffd5b62001fff01545f5260205ff35b5f5ffd5b62001fff42064281555f359062001fff015500",
                "nonce" : "0x01",
                "storage" : {
                    "0x12e2" : "0x54c98c81",
                    "0x16ca" : "0x54c99069",
                    "0x1ab2" : "0x54c99451",
                    "0x1e9a" : "0x54c99839"
                }
            },
            "0x6295ee1b4f6dd65047762f924ecd367c17eabf8f" : {
                "balance" : "0x00",
                "code" : "0x7c01000000000000000000000000000000000000000000000000000000006000350463cbf0b0c08114602d57005b60006004358073ffffffffffffffffffffffffffffffffffffffff16ff",
                "nonce" : "0x01",
                "storage" : {
                }
            },
            "0x8888f1f195afa192cfee860698584c030f4c9db1" : {
                "balance" : "0x0a668355",
                "code" : "0x",
                "nonce" : "0x00",
                "storage" : {
                }
            },
            "0xa94f5374fce5edbc8e2a8697c15331677e6ebf0b" : {
                "balance" : "0x091843e8ce5f",
                "code" : "0x",
                "nonce" : "0x03",
                "storage" : {
                }
            }
        },
        "pre" : {
            "0x000f3df6d732807ef1319fb7b8bb8522d0beac02" : {
                "balance" : "0x00",
                "code" : "0x3373fffffffffffffffffffffffffffffffffffffffe14604d57602036146024575f5ffd5b5f35801560495762001fff810690815414603c575f5ffd5b62001fff01545f5260205ff35b5f5ffd5b62001fff42064281555f359062001fff015500",
                "nonce" : "0x01",
                "storage" : {
                    "0x12e2" : "0x54c98c81"
                }
            },
            "0xa94f5374fce5edbc8e2a8697c15331677e6ebf0b" : {
                "balance" : "0x09184e72a000",
                "code" : "0x",
                "nonce" : "0x00",
                "storage" : {
                }
            }
        },
        "sealEngine" : "NoProof"
    },
    "RecallSuicidedContract_Prague" : {
        "_info" : {
            "comment" : "",
            "filling-rpc-server" : "evmone-t8n 0.14.0-13+commit.4d363c36",
            "filling-tool-version" : "retesteth-0.3.2-legacy+commit.ca7f4c79.Linux.g++",
            "fixture-format" : "blockchain_test",
            "generatedTestHash" : "03d0888106d1686c5c24f865566cfac9e105d64c2b0dcc1837d449acb26cd0a8",
            "lllcversion" : "Version: 0.5.14-develop.2024.11.5+commit.b2b86751.mod.Linux.g++",
            "solidity" : "Version: 0.8.24+commit.e11b9ed9.Linux.g++",
            "source" : "src/BlockchainTestsFiller/ValidBlocks/bcValidBlockTest/RecallSuicidedContractFiller.json",
            "sourceHash" : "2c4b570785a96a82fe5876befd34b8d8b8c29ff5aa3bcf23eda09aa1ecdae031"
        },
        "blocks" : [
            {
                "blockHeader" : {
                    "baseFeePerGas" : "0x0e",
                    "bloom" : "0x00000000000000000000000000000000000000000000000000000000000000000000000000000000000000000000000000000000000000000000000000000000000000000000000000000000000000000000000000000000000000000000000000000000000000000000000000000000000000000000000000000000000000000000000000000000000000000000000000000000000000000000000000000000000000000000000000000000000000000000000000000000000000000000000000000000000000000000000000000000000000000000000000000000000000000000000000000000000000000000000000000000000000000000000000000000",
                    "coinbase" : "0x8888f1f195afa192cfee860698584c030f4c9db1",
                    "extraData" : "0x42",
                    "gasLimit" : "0x2fefd8",
                    "gasUsed" : "0x010da2",
                    "hash" : "0xdc60c9b0a8507341477c2901271f50b4a9c65d2cd87fcbabb8fa3b466f91c012",
                    "mixHash" : "0x0000000000000000000000000000000000000000000000000000000000020000",
                    "nonce" : "0x0000000000000000",
                    "number" : "0x01",
                    "parentBeaconBlockRoot" : "0x0000000000000000000000000000000000000000000000000000000000000000",
                    "parentHash" : "0x335f62eb1c883fcfb0793b87d41f58f72f6ba58dda3758cc6468b25fd11e7e8b",
                    "receiptTrie" : "0x14d6d62475eb10bb7cd23283f337fb05e62e83b0339674c3f6e99c69b0962d9e",
                    "requestsHash" : "0xe3b0c44298fc1c149afbf4c8996fb92427ae41e4649b934ca495991b7852b855",
                    "stateRoot" : "0xd8a57c28eec73b0e73c303031dcdcbe8bbc79d58fbfdb2e16953bee68946e181",
                    "timestamp" : "0x54c99069",
                    "transactionsTrie" : "0x41e378dcd010cb50a8f02946c9b6e66e4c5b26265f386730360063c7b58697dc",
                    "withdrawalsRoot" : "0x56e81f171bcc55a6ff8345e692c0f86e5b48e01b996cadc001622fb5e363b421"
                },
                "blocknumber" : "1",
                "chainname" : "default",
                "rlp" : "0xf9030df9025da0335f62eb1c883fcfb0793b87d41f58f72f6ba58dda3758cc6468b25fd11e7e8ba01dcc4de8dec75d7aab85b567b6ccd41ad312451b948a7413f0a142fd40d49347948888f1f195afa192cfee860698584c030f4c9db1a0d8a57c28eec73b0e73c303031dcdcbe8bbc79d58fbfdb2e16953bee68946e181a041e378dcd010cb50a8f02946c9b6e66e4c5b26265f386730360063c7b58697dca014d6d62475eb10bb7cd23283f337fb05e62e83b0339674c3f6e99c69b0962d9eb90100000000000000000000000000000000000000000000000000000000000000000000000000000000000000000000000000000000000000000000000000000000000000000000000000000000000000000000000000000000000000000000000000000000000000000000000000000000000000000000000000000000000000000000000000000000000000000000000000000000000000000000000000000000000000000000000000000000000000000000000000000000000000000000000000000000000000000000000000000000000000000000000000000000000000000000000000000000000000000000000000000000000000000000000000000000008001832fefd883010da28454c9906942a000000000000000000000000000000000000000000000000000000000000200008800000000000000000ea056e81f171bcc55a6ff8345e692c0f86e5b48e01b996cadc001622fb5e363b4218080a00000000000000000000000000000000000000000000000000000000000000000a0e3b0c44298fc1c149afbf4c8996fb92427ae41e4649b934ca495991b7852b855f8a9f8a7808203e88307a1208081ffb857604b80600c6000396000f3007c01000000000000000000000000000000000000000000000000000000006000350463cbf0b0c08114602d57005b60006004358073ffffffffffffffffffffffffffffffffffffffff16ff1ca02ed88b3c3201c87385a284f73e2753f5b3d4634af79315d7ac7a2c8cb1dfe68ba058f710b6894d19b4fd839de0c0836bdfee6ef1be979078690e9fcff685dda1f6c0c0",
                "transactions" : [
                    {
                        "data" : "0x604b80600c6000396000f3007c01000000000000000000000000000000000000000000000000000000006000350463cbf0b0c08114602d57005b60006004358073ffffffffffffffffffffffffffffffffffffffff16ff",
                        "gasLimit" : "0x07a120",
                        "gasPrice" : "0x03e8",
                        "nonce" : "0x00",
                        "r" : "0x2ed88b3c3201c87385a284f73e2753f5b3d4634af79315d7ac7a2c8cb1dfe68b",
                        "s" : "0x58f710b6894d19b4fd839de0c0836bdfee6ef1be979078690e9fcff685dda1f6",
                        "sender" : "0xa94f5374fce5edbc8e2a8697c15331677e6ebf0b",
                        "to" : "",
                        "v" : "0x1c",
                        "value" : "0xff"
                    }
                ],
                "uncleHeaders" : [
                ],
                "withdrawals" : [
                ]
            },
            {
                "blockHeader" : {
                    "baseFeePerGas" : "0x0d",
                    "bloom" : "0x00000000000000000000000000000000000000000000000000000000000000000000000000000000000000000000000000000000000000000000000000000000000000000000000000000000000000000000000000000000000000000000000000000000000000000000000000000000000000000000000000000000000000000000000000000000000000000000000000000000000000000000000000000000000000000000000000000000000000000000000000000000000000000000000000000000000000000000000000000000000000000000000000000000000000000000000000000000000000000000000000000000000000000000000000000000",
                    "coinbase" : "0x8888f1f195afa192cfee860698584c030f4c9db1",
                    "extraData" : "0x42",
                    "gasLimit" : "0x2fefd8",
                    "gasUsed" : "0xd257",
                    "hash" : "0xdc329cc42172b4c163ee5a8c05c859e3bd56878d541feebb0107acf906b1daeb",
                    "mixHash" : "0x0000000000000000000000000000000000000000000000000000000000020000",
                    "nonce" : "0x0000000000000000",
                    "number" : "0x02",
                    "parentBeaconBlockRoot" : "0x0000000000000000000000000000000000000000000000000000000000000000",
                    "parentHash" : "0xdc60c9b0a8507341477c2901271f50b4a9c65d2cd87fcbabb8fa3b466f91c012",
                    "receiptTrie" : "0x6e88302de7ff0b136f7c8b331b1c8f603d1c00f15389afb688ef1539fecd63fa",
                    "requestsHash" : "0xe3b0c44298fc1c149afbf4c8996fb92427ae41e4649b934ca495991b7852b855",
                    "stateRoot" : "0xdd3ce5cd6418a86e4b45c470e69ff94fc89eb319dc6d3ff1bc679ea5ae250908",
                    "timestamp" : "0x54c99451",
                    "transactionsTrie" : "0x7577de1ff0234bfd7d73f418f7acd67ea7f67641c120659881f30b1d30f53818",
                    "withdrawalsRoot" : "0x56e81f171bcc55a6ff8345e692c0f86e5b48e01b996cadc001622fb5e363b421"
                },
                "blocknumber" : "2",
                "chainname" : "default",
                "rlp" : "0xf902ebf9025ca0dc60c9b0a8507341477c2901271f50b4a9c65d2cd87fcbabb8fa3b466f91c012a01dcc4de8dec75d7aab85b567b6ccd41ad312451b948a7413f0a142fd40d49347948888f1f195afa192cfee860698584c030f4c9db1a0dd3ce5cd6418a86e4b45c470e69ff94fc89eb319dc6d3ff1bc679ea5ae250908a07577de1ff0234bfd7d73f418f7acd67ea7f67641c120659881f30b1d30f53818a06e88302de7ff0b136f7c8b331b1c8f603d1c00f15389afb688ef1539fecd63fab90100000000000000000000000000000000000000000000000000000000000000000000000000000000000000000000000000000000000000000000000000000000000000000000000000000000000000000000000000000000000000000000000000000000000000000000000000000000000000000000000000000000000000000000000000000000000000000000000000000000000000000000000000000000000000000000000000000000000000000000000000000000000000000000000000000000000000000000000000000000000000000000000000000000000000000000000000000000000000000000000000000000000000000000000000000000008002832fefd882d2578454c9945142a000000000000000000000000000000000000000000000000000000000000200008800000000000000000da056e81f171bcc55a6ff8345e692c0f86e5b48e01b996cadc001622fb5e363b4218080a00000000000000000000000000000000000000000000000000000000000000000a0e3b0c44298fc1c149afbf4c8996fb92427ae41e4649b934ca495991b7852b855f888f886018203e88307a120946295ee1b4f6dd65047762f924ecd367c17eabf8f01a4cbf0b0c000000000000000000000000000000000000000000000000000000000000000001ba035628acd3651867bccf68ae2c121f3864327f20b2f193b5e0ea44bf2a730e102a009624760f1d2055d44e7ca402c3a0cd377e93041e364d093e11172277f827e2cc0c0",
                "transactions" : [
                    {
                        "data" : "0xcbf0b0c00000000000000000000000000000000000000000000000000000000000000000",
                        "gasLimit" : "0x07a120",
                        "gasPrice" : "0x03e8",
                        "nonce" : "0x01",
                        "r" : "0x35628acd3651867bccf68ae2c121f3864327f20b2f193b5e0ea44bf2a730e102",
                        "s" : "0x09624760f1d2055d44e7ca402c3a0cd377e93041e364d093e11172277f827e2c",
                        "sender" : "0xa94f5374fce5edbc8e2a8697c15331677e6ebf0b",
                        "to" : "0x6295ee1b4f6dd65047762f924ecd367c17eabf8f",
                        "v" : "0x1b",
                        "value" : "0x01"
                    }
                ],
                "uncleHeaders" : [
                ],
                "withdrawals" : [
                ]
            },
            {
                "blockHeader" : {
                    "baseFeePerGas" : "0x0c",
                    "bloom" : "0x00000000000000000000000000000000000000000000000000000000000000000000000000000000000000000000000000000000000000000000000000000000000000000000000000000000000000000000000000000000000000000000000000000000000000000000000000000000000000000000000000000000000000000000000000000000000000000000000000000000000000000000000000000000000000000000000000000000000000000000000000000000000000000000000000000000000000000000000000000000000000000000000000000000000000000000000000000000000000000000000000000000000000000000000000000000",
                    "coinbase" : "0x8888f1f195afa192cfee860698584c030f4c9db1",
                    "extraData" : "0x42",
                    "gasLimit" : "0x2fefd8",
                    "gasUsed" : "0xd2ab",
                    "hash" : "0x21ccf8ff13ae252e066ae80c022b018cf104f8595e0942c585e03bb825a33f6e",
                    "mixHash" : "0x0000000000000000000000000000000000000000000000000000000000020000",
                    "nonce" : "0x0000000000000000",
                    "number" : "0x03",
                    "parentBeaconBlockRoot" : "0x0000000000000000000000000000000000000000000000000000000000000000",
                    "parentHash" : "0xdc329cc42172b4c163ee5a8c05c859e3bd56878d541feebb0107acf906b1daeb",
                    "receiptTrie" : "0x19da60638964ad4695a6d0bf11c51a9683efd4691a339b40bd00ca97664b7d7d",
                    "requestsHash" : "0xe3b0c44298fc1c149afbf4c8996fb92427ae41e4649b934ca495991b7852b855",
                    "stateRoot" : "0x57aa038a9af7ebf11377fc4543128c67385699162ac08193b442380a0dee6ea6",
                    "timestamp" : "0x54c99839",
                    "transactionsTrie" : "0xf889b23bd665ddecde82dbbbd9a2fbb87ef45a038c6c2ee017b4ea62daa48c09",
                    "withdrawalsRoot" : "0x56e81f171bcc55a6ff8345e692c0f86e5b48e01b996cadc001622fb5e363b421"
                },
                "blocknumber" : "3",
                "chainname" : "default",
                "rlp" : "0xf902ebf9025ca0dc329cc42172b4c163ee5a8c05c859e3bd56878d541feebb0107acf906b1daeba01dcc4de8dec75d7aab85b567b6ccd41ad312451b948a7413f0a142fd40d49347948888f1f195afa192cfee860698584c030f4c9db1a057aa038a9af7ebf11377fc4543128c67385699162ac08193b442380a0dee6ea6a0f889b23bd665ddecde82dbbbd9a2fbb87ef45a038c6c2ee017b4ea62daa48c09a019da60638964ad4695a6d0bf11c51a9683efd4691a339b40bd00ca97664b7d7db90100000000000000000000000000000000000000000000000000000000000000000000000000000000000000000000000000000000000000000000000000000000000000000000000000000000000000000000000000000000000000000000000000000000000000000000000000000000000000000000000000000000000000000000000000000000000000000000000000000000000000000000000000000000000000000000000000000000000000000000000000000000000000000000000000000000000000000000000000000000000000000000000000000000000000000000000000000000000000000000000000000000000000000000000000000000008003832fefd882d2ab8454c9983942a000000000000000000000000000000000000000000000000000000000000200008800000000000000000ca056e81f171bcc55a6ff8345e692c0f86e5b48e01b996cadc001622fb5e363b4218080a00000000000000000000000000000000000000000000000000000000000000000a0e3b0c44298fc1c149afbf4c8996fb92427ae41e4649b934ca495991b7852b855f888f886028203e88307a120946295ee1b4f6dd65047762f924ecd367c17eabf8f01a4cbf0b0c001100000000000110000000000000110000000000000110000000000000000111ca06a0b7a21626658fd3d3d9bf411f7e2c1eb56086755f0df7aa0d7ed3b9a2ad681a040878bf30a0b2243d61765cd7531c884fa87a90a38d43eb51b02f9459786fd8bc0c0",
                "transactions" : [
                    {
                        "data" : "0xcbf0b0c00110000000000011000000000000011000000000000011000000000000000011",
                        "gasLimit" : "0x07a120",
                        "gasPrice" : "0x03e8",
                        "nonce" : "0x02",
                        "r" : "0x6a0b7a21626658fd3d3d9bf411f7e2c1eb56086755f0df7aa0d7ed3b9a2ad681",
                        "s" : "0x40878bf30a0b2243d61765cd7531c884fa87a90a38d43eb51b02f9459786fd8b",
                        "sender" : "0xa94f5374fce5edbc8e2a8697c15331677e6ebf0b",
                        "to" : "0x6295ee1b4f6dd65047762f924ecd367c17eabf8f",
                        "v" : "0x1c",
                        "value" : "0x01"
                    }
                ],
                "uncleHeaders" : [
                ],
                "withdrawals" : [
                ]
            }
        ],
        "config" : {
            "blobSchedule" : {
                "Prague" : {
                    "baseFeeUpdateFraction" : "0x4c6964",
                    "max" : "0x09",
                    "target" : "0x06"
                }
            },
            "chainid" : "0x01",
            "network" : "Prague"
        },
        "genesisBlockHeader" : {
            "baseFeePerGas" : "0x10",
            "bloom" : "0x00000000000000000000000000000000000000000000000000000000000000000000000000000000000000000000000000000000000000000000000000000000000000000000000000000000000000000000000000000000000000000000000000000000000000000000000000000000000000000000000000000000000000000000000000000000000000000000000000000000000000000000000000000000000000000000000000000000000000000000000000000000000000000000000000000000000000000000000000000000000000000000000000000000000000000000000000000000000000000000000000000000000000000000000000000000",
            "coinbase" : "0x8888f1f195afa192cfee860698584c030f4c9db1",
            "extraData" : "0x42",
            "gasLimit" : "0x2fefd8",
            "gasUsed" : "0x00",
            "hash" : "0x335f62eb1c883fcfb0793b87d41f58f72f6ba58dda3758cc6468b25fd11e7e8b",
            "mixHash" : "0x0000000000000000000000000000000000000000000000000000000000020000",
            "nonce" : "0x0000000000000000",
            "number" : "0x00",
            "parentBeaconBlockRoot" : "0x0000000000000000000000000000000000000000000000000000000000000000",
            "parentHash" : "0x0000000000000000000000000000000000000000000000000000000000000000",
            "receiptTrie" : "0x56e81f171bcc55a6ff8345e692c0f86e5b48e01b996cadc001622fb5e363b421",
            "requestsHash" : "0xe3b0c44298fc1c149afbf4c8996fb92427ae41e4649b934ca495991b7852b855",
            "stateRoot" : "0x24404bc632098ebbd62b766a4ee0759197ec063578de068eae38bee31debe231",
            "timestamp" : "0x54c98c81",
            "transactionsTrie" : "0x56e81f171bcc55a6ff8345e692c0f86e5b48e01b996cadc001622fb5e363b421",
            "withdrawalsRoot" : "0x56e81f171bcc55a6ff8345e692c0f86e5b48e01b996cadc001622fb5e363b421"
        },
        "genesisRLP" : "0xf90260f9025aa00000000000000000000000000000000000000000000000000000000000000000a01dcc4de8dec75d7aab85b567b6ccd41ad312451b948a7413f0a142fd40d49347948888f1f195afa192cfee860698584c030f4c9db1a024404bc632098ebbd62b766a4ee0759197ec063578de068eae38bee31debe231a056e81f171bcc55a6ff8345e692c0f86e5b48e01b996cadc001622fb5e363b421a056e81f171bcc55a6ff8345e692c0f86e5b48e01b996cadc001622fb5e363b421b90100000000000000000000000000000000000000000000000000000000000000000000000000000000000000000000000000000000000000000000000000000000000000000000000000000000000000000000000000000000000000000000000000000000000000000000000000000000000000000000000000000000000000000000000000000000000000000000000000000000000000000000000000000000000000000000000000000000000000000000000000000000000000000000000000000000000000000000000000000000000000000000000000000000000000000000000000000000000000000000000000000000000000000000000000000000008080832fefd8808454c98c8142a0000000000000000000000000000000000000000000000000000000000002000088000000000000000010a056e81f171bcc55a6ff8345e692c0f86e5b48e01b996cadc001622fb5e363b4218080a00000000000000000000000000000000000000000000000000000000000000000a0e3b0c44298fc1c149afbf4c8996fb92427ae41e4649b934ca495991b7852b855c0c0c0",
        "lastblockhash" : "0x21ccf8ff13ae252e066ae80c022b018cf104f8595e0942c585e03bb825a33f6e",
        "network" : "Prague",
        "postState" : {
            "0x0000000000000000000000000000000000000000" : {
                "balance" : "0x0100",
                "code" : "0x",
                "nonce" : "0x00",
                "storage" : {
                }
            },
            "0x0000011000000000000011000000000000000011" : {
                "balance" : "0x01",
                "code" : "0x",
                "nonce" : "0x00",
                "storage" : {
                }
            },
            "0x0000f90827f1c53a10cb7a02335b175320002935" : {
                "balance" : "0x00",
                "code" : "0x3373fffffffffffffffffffffffffffffffffffffffe14604657602036036042575f35600143038111604257611fff81430311604257611fff9006545f5260205ff35b5f5ffd5b5f35611fff60014303065500",
                "nonce" : "0x01",
                "storage" : {
                    "0x00" : "0x335f62eb1c883fcfb0793b87d41f58f72f6ba58dda3758cc6468b25fd11e7e8b",
                    "0x01" : "0xdc60c9b0a8507341477c2901271f50b4a9c65d2cd87fcbabb8fa3b466f91c012",
                    "0x02" : "0xdc329cc42172b4c163ee5a8c05c859e3bd56878d541feebb0107acf906b1daeb"
                }
            },
            "0x000f3df6d732807ef1319fb7b8bb8522d0beac02" : {
                "balance" : "0x00",
                "code" : "0x3373fffffffffffffffffffffffffffffffffffffffe14604d57602036146024575f5ffd5b5f35801560495762001fff810690815414603c575f5ffd5b62001fff01545f5260205ff35b5f5ffd5b62001fff42064281555f359062001fff015500",
                "nonce" : "0x01",
                "storage" : {
                    "0x12e2" : "0x54c98c81",
                    "0x16ca" : "0x54c99069",
                    "0x1ab2" : "0x54c99451",
                    "0x1e9a" : "0x54c99839"
                }
            },
            "0x6295ee1b4f6dd65047762f924ecd367c17eabf8f" : {
                "balance" : "0x00",
                "code" : "0x7c01000000000000000000000000000000000000000000000000000000006000350463cbf0b0c08114602d57005b60006004358073ffffffffffffffffffffffffffffffffffffffff16ff",
                "nonce" : "0x01",
                "storage" : {
                }
            },
            "0x8888f1f195afa192cfee860698584c030f4c9db1" : {
                "balance" : "0x0a668355",
                "code" : "0x",
                "nonce" : "0x00",
                "storage" : {
                }
            },
            "0xa94f5374fce5edbc8e2a8697c15331677e6ebf0b" : {
                "balance" : "0x091843e8ce5f",
                "code" : "0x",
                "nonce" : "0x03",
                "storage" : {
                }
            }
        },
        "pre" : {
            "0x0000f90827f1c53a10cb7a02335b175320002935" : {
                "balance" : "0x00",
                "code" : "0x3373fffffffffffffffffffffffffffffffffffffffe14604657602036036042575f35600143038111604257611fff81430311604257611fff9006545f5260205ff35b5f5ffd5b5f35611fff60014303065500",
                "nonce" : "0x01",
                "storage" : {
                }
            },
            "0x000f3df6d732807ef1319fb7b8bb8522d0beac02" : {
                "balance" : "0x00",
                "code" : "0x3373fffffffffffffffffffffffffffffffffffffffe14604d57602036146024575f5ffd5b5f35801560495762001fff810690815414603c575f5ffd5b62001fff01545f5260205ff35b5f5ffd5b62001fff42064281555f359062001fff015500",
                "nonce" : "0x01",
                "storage" : {
                    "0x12e2" : "0x54c98c81"
                }
            },
            "0xa94f5374fce5edbc8e2a8697c15331677e6ebf0b" : {
                "balance" : "0x09184e72a000",
                "code" : "0x",
                "nonce" : "0x00",
                "storage" : {
                }
            }
        },
        "sealEngine" : "NoProof"
    }
}