{
    "CrashingTransaction_d0g0v0_Cancun" : {
        "_info" : {
            "comment" : "https://ropsten.etherscan.io/tx/0x8ec445380649f6c75a042a438ea9256c2fab2a6a3437904c9e5a712fcbf8a54a",
            "filling-rpc-server" : "evmone-t8n 0.14.0-13+commit.4d363c36",
            "filling-tool-version" : "retesteth-0.3.2-legacy+commit.ca7f4c79.Linux.g++",
            "fixture-format" : "blockchain_test",
            "generatedTestHash" : "34b38add7bd2d164bbd1e30572f51cebee6a632ae45394c51fdfcbdb82ccb5e8",
            "lllcversion" : "Version: 0.5.14-develop.2024.11.5+commit.b2b86751.mod.Linux.g++",
            "hyperion" : "Version: 0.8.24+commit.e11b9ed9.Linux.g++",
            "source" : "src/GeneralStateTestsFiller/stAttackTest/CrashingTransactionFiller.json",
            "sourceHash" : "7b8310ac7e3aacfa6d91cebe3a908271968493277044a36bd8ef4bdb6de88d7d"
        },
        "blocks" : [
            {
                "blockHeader" : {
                    "baseFeePerGas" : "0x0a",
                    "bloom" : "0x00000000000000000000000000000000000000000000000000000000000000000000000000000000000000000000000000000000000000000000000000000000000000000000000000000000000000000000000000000000000000000000000000000000000000000000000000000000000000000000000000000000000000000000000000000000000000000000000000000000000000000000000000000000000000000000000000000000000000000000000000000000000000000000000000000000000000000000000000000000000000000000000000000000000000000000000000000000000000000000000000000000000000000000000000000000",
                    "coinbase" : "0x2adc25665018aa1fe0e6bc666dac8fc2697ff9ba",
                    "extraData" : "0x00",
                    "gasLimit" : "0x47e7c4",
                    "gasUsed" : "0x468d1d",
                    "hash" : "0x8e2c500e773ef4b6406056c2af3fb19bfaa53ce6bb8db171cb5a45edc4fae4e6",
                    "mixHash" : "0x0000000000000000000000000000000000000000000000000000000000020000",
                    "nonce" : "0x0000000000000000",
                    "number" : "0x01",
                    "parentHash" : "0xe2c43344c15756cbf28c271bead1f4b4711b77fc9ecc3ba505c30f106366adc6",
                    "receiptTrie" : "0x590d096936416ad58a88a419464c7450a4a05d57caf3377f636add0b0696be91",
                    "stateRoot" : "0x4859afdcb97d02ef26f8be8639c86781cbb968a3bf8ca2497ccafd3374426ae6",
                    "timestamp" : "0x03e8",
                    "transactionsTrie" : "0xde4b4d78c11be4eb632157d48e79099c1594bc1f2cca9bd84e31e23ff0206c02",
                    "withdrawalsRoot" : "0x56e81f171bcc55a6ff8345e692c0f86e5b48e01b996cadc001622fb5e363b421"
                },
                "rlp" : "0xf90309f9023aa0e2c43344c15756cbf28c271bead1f4b4711b77fc9ecc3ba505c30f106366adc6a01dcc4de8dec75d7aab85b567b6ccd41ad312451b948a7413f0a142fd40d49347942adc25665018aa1fe0e6bc666dac8fc2697ff9baa04859afdcb97d02ef26f8be8639c86781cbb968a3bf8ca2497ccafd3374426ae6a0de4b4d78c11be4eb632157d48e79099c1594bc1f2cca9bd84e31e23ff0206c02a0590d096936416ad58a88a419464c7450a4a05d57caf3377f636add0b0696be91b901000000000000000000000000000000000000000000000000000000000000000000000000000000000000000000000000000000000000000000000000000000000000000000000000000000000000000000000000000000000000000000000000000000000000000000000000000000000000000000000000000000000000000000000000000000000000000000000000000000000000000000000000000000000000000000000000000000000000000000000000000000000000000000000000000000000000000000000000000000000000000000000000000000000000000000000000000000000000000000000000000000000000000000000000000000000080018347e7c483468d1d8203e800a000000000000000000000000000000000000000000000000000000000000200008800000000000000000aa056e81f171bcc55a6ff8345e692c0f86e5b48e01b996cadc001622fb5e363b4218080a00000000000000000000000000000000000000000000000000000000000000000f8c8f8c6820cc60b8347127a8001b87760606040525b5b61c3505a1115602c576040516034806039833901809050604051809103906000f0506006565b5b600a80606d6000396000f360606040525b3373ffffffffffffffffffffffffffffffffffffffff16ff5b600a80602a6000396000f360606040526008565b0060606040526008565b001ba0e3ff099a5b59f34c2e88fd6a42e44bf6ae186ebd06fa62aa18044da6a6d98df3a03efe897c69df0d45e18dd61580de2b700952cc9bc794fe05d0c6bf5e7f63d1d1c0c0",
                "transactions" : [
                    {
                        "data" : "0x60606040525b5b61c3505a1115602c576040516034806039833901809050604051809103906000f0506006565b5b600a80606d6000396000f360606040525b3373ffffffffffffffffffffffffffffffffffffffff16ff5b600a80602a6000396000f360606040526008565b0060606040526008565b00",
                        "gasLimit" : "0x47127a",
                        "gasPrice" : "0x0b",
                        "nonce" : "0x0cc6",
                        "r" : "0xe3ff099a5b59f34c2e88fd6a42e44bf6ae186ebd06fa62aa18044da6a6d98df3",
                        "s" : "0x3efe897c69df0d45e18dd61580de2b700952cc9bc794fe05d0c6bf5e7f63d1d1",
                        "sender" : "0xa94f5374fce5edbc8e2a8697c15331677e6ebf0b",
                        "to" : "",
                        "v" : "0x1b",
                        "value" : "0x01"
                    }
                ],
                "uncleHeaders" : [
                ],
                "withdrawals" : [
                ]
            }
        ],
        "config" : {
            "blobSchedule" : {
                "Cancun" : {
                    "baseFeeUpdateFraction" : "0x32f0ed",
                    "max" : "0x06",
                    "target" : "0x03"
                }
            },
            "chainid" : "0x01",
            "network" : "Cancun"
        },
        "genesisBlockHeader" : {
            "baseFeePerGas" : "0x0b",
            "bloom" : "0x00000000000000000000000000000000000000000000000000000000000000000000000000000000000000000000000000000000000000000000000000000000000000000000000000000000000000000000000000000000000000000000000000000000000000000000000000000000000000000000000000000000000000000000000000000000000000000000000000000000000000000000000000000000000000000000000000000000000000000000000000000000000000000000000000000000000000000000000000000000000000000000000000000000000000000000000000000000000000000000000000000000000000000000000000000000",
            "coinbase" : "0x2adc25665018aa1fe0e6bc666dac8fc2697ff9ba",
            "extraData" : "0x00",
            "gasLimit" : "0x47e7c4",
            "gasUsed" : "0x00",
            "hash" : "0xe2c43344c15756cbf28c271bead1f4b4711b77fc9ecc3ba505c30f106366adc6",
            "mixHash" : "0x0000000000000000000000000000000000000000000000000000000000020000",
            "nonce" : "0x0000000000000000",
            "number" : "0x00",
            "parentHash" : "0x0000000000000000000000000000000000000000000000000000000000000000",
            "receiptTrie" : "0x56e81f171bcc55a6ff8345e692c0f86e5b48e01b996cadc001622fb5e363b421",
            "stateRoot" : "0xe5d18c24543a465a63c702f8caf5df4a59328185f82443a6f157b62892a8e860",
            "timestamp" : "0x00",
            "transactionsTrie" : "0x56e81f171bcc55a6ff8345e692c0f86e5b48e01b996cadc001622fb5e363b421",
            "withdrawalsRoot" : "0x56e81f171bcc55a6ff8345e692c0f86e5b48e01b996cadc001622fb5e363b421"
        },
        "genesisRLP" : "0xf9023ef90238a00000000000000000000000000000000000000000000000000000000000000000a01dcc4de8dec75d7aab85b567b6ccd41ad312451b948a7413f0a142fd40d49347942adc25665018aa1fe0e6bc666dac8fc2697ff9baa0e5d18c24543a465a63c702f8caf5df4a59328185f82443a6f157b62892a8e860a056e81f171bcc55a6ff8345e692c0f86e5b48e01b996cadc001622fb5e363b421a056e81f171bcc55a6ff8345e692c0f86e5b48e01b996cadc001622fb5e363b421b901000000000000000000000000000000000000000000000000000000000000000000000000000000000000000000000000000000000000000000000000000000000000000000000000000000000000000000000000000000000000000000000000000000000000000000000000000000000000000000000000000000000000000000000000000000000000000000000000000000000000000000000000000000000000000000000000000000000000000000000000000000000000000000000000000000000000000000000000000000000000000000000000000000000000000000000000000000000000000000000000000000000000000000000000000000000080808347e7c4808000a000000000000000000000000000000000000000000000000000000000000200008800000000000000000ba056e81f171bcc55a6ff8345e692c0f86e5b48e01b996cadc001622fb5e363b4218083060000a00000000000000000000000000000000000000000000000000000000000000000c0c0c0",
        "lastblockhash" : "0x8e2c500e773ef4b6406056c2af3fb19bfaa53ce6bb8db171cb5a45edc4fae4e6",
        "network" : "Cancun",
        "postState" : {
            "0x000f3df6d732807ef1319fb7b8bb8522d0beac02" : {
                "balance" : "0x00",
                "code" : "0x3373fffffffffffffffffffffffffffffffffffffffe14604d57602036146024575f5ffd5b5f35801560495762001fff810690815414603c575f5ffd5b62001fff01545f5260205ff35b5f5ffd5b62001fff42064281555f359062001fff015500",
                "nonce" : "0x01",
                "storage" : {
                    "0x03e8" : "0x03e8"
                }
            },
            "0x2adc25665018aa1fe0e6bc666dac8fc2697ff9ba" : {
                "balance" : "0x468d1d",
                "code" : "0x",
                "nonce" : "0x00",
                "storage" : {
                }
            },
            "0xa94f5374fce5edbc8e2a8697c15331677e6ebf0b" : {
                "balance" : "0x0de0b6b3a45befc0",
                "code" : "0x",
                "nonce" : "0x0cc7",
                "storage" : {
                }
            },
            "0xecbf9aa676d9e0bbba7e517d1350c1b64f8c6779" : {
                "balance" : "0x01",
                "code" : "0x60606040526008565b00",
                "nonce" : "0x7c",
                "storage" : {
                }
            }
        },
        "pre" : {
            "0x000f3df6d732807ef1319fb7b8bb8522d0beac02" : {
                "balance" : "0x00",
                "code" : "0x3373fffffffffffffffffffffffffffffffffffffffe14604d57602036146024575f5ffd5b5f35801560495762001fff810690815414603c575f5ffd5b62001fff01545f5260205ff35b5f5ffd5b62001fff42064281555f359062001fff015500",
                "nonce" : "0x01",
                "storage" : {
                }
            },
            "0xa94f5374fce5edbc8e2a8697c15331677e6ebf0b" : {
                "balance" : "0x0de0b6b3a7640000",
                "code" : "0x",
                "nonce" : "0x0cc6",
                "storage" : {
                }
            }
        },
        "sealEngine" : "NoProof"
    },
    "CrashingTransaction_d0g0v0_Prague" : {
        "_info" : {
            "comment" : "https://ropsten.etherscan.io/tx/0x8ec445380649f6c75a042a438ea9256c2fab2a6a3437904c9e5a712fcbf8a54a",
            "filling-rpc-server" : "evmone-t8n 0.14.0-13+commit.4d363c36",
            "filling-tool-version" : "retesteth-0.3.2-legacy+commit.ca7f4c79.Linux.g++",
            "fixture-format" : "blockchain_test",
            "generatedTestHash" : "735b5a54ff8fe9b0beaa3670573d934652ef00883505407ed8305bf0c5d78ae6",
            "lllcversion" : "Version: 0.5.14-develop.2024.11.5+commit.b2b86751.mod.Linux.g++",
            "hyperion" : "Version: 0.8.24+commit.e11b9ed9.Linux.g++",
            "source" : "src/GeneralStateTestsFiller/stAttackTest/CrashingTransactionFiller.json",
            "sourceHash" : "7b8310ac7e3aacfa6d91cebe3a908271968493277044a36bd8ef4bdb6de88d7d"
        },
        "blocks" : [
            {
                "blockHeader" : {
                    "baseFeePerGas" : "0x0a",
                    "bloom" : "0x00000000000000000000000000000000000000000000000000000000000000000000000000000000000000000000000000000000000000000000000000000000000000000000000000000000000000000000000000000000000000000000000000000000000000000000000000000000000000000000000000000000000000000000000000000000000000000000000000000000000000000000000000000000000000000000000000000000000000000000000000000000000000000000000000000000000000000000000000000000000000000000000000000000000000000000000000000000000000000000000000000000000000000000000000000000",
                    "coinbase" : "0x2adc25665018aa1fe0e6bc666dac8fc2697ff9ba",
                    "extraData" : "0x00",
                    "gasLimit" : "0x47e7c4",
                    "gasUsed" : "0x468d1d",
                    "hash" : "0x2393b1d3c294f48a852ddc2e7a48b08ab9a276b84a156c9856dcfae14c4db486",
                    "mixHash" : "0x0000000000000000000000000000000000000000000000000000000000020000",
                    "nonce" : "0x0000000000000000",
                    "number" : "0x01",
                    "parentHash" : "0x30ba99506c7d01caedefbf5f8ecb0c03916463af74df9a805f299512f7fa8e8a",
                    "receiptTrie" : "0x590d096936416ad58a88a419464c7450a4a05d57caf3377f636add0b0696be91",
                    "requestsHash" : "0xe3b0c44298fc1c149afbf4c8996fb92427ae41e4649b934ca495991b7852b855",
                    "stateRoot" : "0x363129e66e84d2f25348b7fc32981fee22b90273f0af3cc24df09824b4dc4eeb",
                    "timestamp" : "0x03e8",
                    "transactionsTrie" : "0xde4b4d78c11be4eb632157d48e79099c1594bc1f2cca9bd84e31e23ff0206c02",
                    "withdrawalsRoot" : "0x56e81f171bcc55a6ff8345e692c0f86e5b48e01b996cadc001622fb5e363b421"
                },
                "rlp" : "0xf9032af9025ba030ba99506c7d01caedefbf5f8ecb0c03916463af74df9a805f299512f7fa8e8aa01dcc4de8dec75d7aab85b567b6ccd41ad312451b948a7413f0a142fd40d49347942adc25665018aa1fe0e6bc666dac8fc2697ff9baa0363129e66e84d2f25348b7fc32981fee22b90273f0af3cc24df09824b4dc4eeba0de4b4d78c11be4eb632157d48e79099c1594bc1f2cca9bd84e31e23ff0206c02a0590d096936416ad58a88a419464c7450a4a05d57caf3377f636add0b0696be91b901000000000000000000000000000000000000000000000000000000000000000000000000000000000000000000000000000000000000000000000000000000000000000000000000000000000000000000000000000000000000000000000000000000000000000000000000000000000000000000000000000000000000000000000000000000000000000000000000000000000000000000000000000000000000000000000000000000000000000000000000000000000000000000000000000000000000000000000000000000000000000000000000000000000000000000000000000000000000000000000000000000000000000000000000000000000080018347e7c483468d1d8203e800a000000000000000000000000000000000000000000000000000000000000200008800000000000000000aa056e81f171bcc55a6ff8345e692c0f86e5b48e01b996cadc001622fb5e363b4218080a00000000000000000000000000000000000000000000000000000000000000000a0e3b0c44298fc1c149afbf4c8996fb92427ae41e4649b934ca495991b7852b855f8c8f8c6820cc60b8347127a8001b87760606040525b5b61c3505a1115602c576040516034806039833901809050604051809103906000f0506006565b5b600a80606d6000396000f360606040525b3373ffffffffffffffffffffffffffffffffffffffff16ff5b600a80602a6000396000f360606040526008565b0060606040526008565b001ba0e3ff099a5b59f34c2e88fd6a42e44bf6ae186ebd06fa62aa18044da6a6d98df3a03efe897c69df0d45e18dd61580de2b700952cc9bc794fe05d0c6bf5e7f63d1d1c0c0",
                "transactions" : [
                    {
                        "data" : "0x60606040525b5b61c3505a1115602c576040516034806039833901809050604051809103906000f0506006565b5b600a80606d6000396000f360606040525b3373ffffffffffffffffffffffffffffffffffffffff16ff5b600a80602a6000396000f360606040526008565b0060606040526008565b00",
                        "gasLimit" : "0x47127a",
                        "gasPrice" : "0x0b",
                        "nonce" : "0x0cc6",
                        "r" : "0xe3ff099a5b59f34c2e88fd6a42e44bf6ae186ebd06fa62aa18044da6a6d98df3",
                        "s" : "0x3efe897c69df0d45e18dd61580de2b700952cc9bc794fe05d0c6bf5e7f63d1d1",
                        "sender" : "0xa94f5374fce5edbc8e2a8697c15331677e6ebf0b",
                        "to" : "",
                        "v" : "0x1b",
                        "value" : "0x01"
                    }
                ],
                "uncleHeaders" : [
                ],
                "withdrawals" : [
                ]
            }
        ],
        "config" : {
            "blobSchedule" : {
                "Prague" : {
                    "baseFeeUpdateFraction" : "0x4c6964",
                    "max" : "0x09",
                    "target" : "0x06"
                }
            },
            "chainid" : "0x01",
            "network" : "Prague"
        },
        "genesisBlockHeader" : {
            "baseFeePerGas" : "0x0b",
            "bloom" : "0x00000000000000000000000000000000000000000000000000000000000000000000000000000000000000000000000000000000000000000000000000000000000000000000000000000000000000000000000000000000000000000000000000000000000000000000000000000000000000000000000000000000000000000000000000000000000000000000000000000000000000000000000000000000000000000000000000000000000000000000000000000000000000000000000000000000000000000000000000000000000000000000000000000000000000000000000000000000000000000000000000000000000000000000000000000000",
            "coinbase" : "0x2adc25665018aa1fe0e6bc666dac8fc2697ff9ba",
            "extraData" : "0x00",
            "gasLimit" : "0x47e7c4",
            "gasUsed" : "0x00",
            "hash" : "0x30ba99506c7d01caedefbf5f8ecb0c03916463af74df9a805f299512f7fa8e8a",
            "mixHash" : "0x0000000000000000000000000000000000000000000000000000000000020000",
            "nonce" : "0x0000000000000000",
            "number" : "0x00",
            "parentHash" : "0x0000000000000000000000000000000000000000000000000000000000000000",
            "receiptTrie" : "0x56e81f171bcc55a6ff8345e692c0f86e5b48e01b996cadc001622fb5e363b421",
            "requestsHash" : "0xe3b0c44298fc1c149afbf4c8996fb92427ae41e4649b934ca495991b7852b855",
            "stateRoot" : "0xe871381d876d8bb2124f5b772557f9834b09b56fdcfb195e1127c837d16731c8",
            "timestamp" : "0x00",
            "transactionsTrie" : "0x56e81f171bcc55a6ff8345e692c0f86e5b48e01b996cadc001622fb5e363b421",
            "withdrawalsRoot" : "0x56e81f171bcc55a6ff8345e692c0f86e5b48e01b996cadc001622fb5e363b421"
        },
        "genesisRLP" : "0xf9025ff90259a00000000000000000000000000000000000000000000000000000000000000000a01dcc4de8dec75d7aab85b567b6ccd41ad312451b948a7413f0a142fd40d49347942adc25665018aa1fe0e6bc666dac8fc2697ff9baa0e871381d876d8bb2124f5b772557f9834b09b56fdcfb195e1127c837d16731c8a056e81f171bcc55a6ff8345e692c0f86e5b48e01b996cadc001622fb5e363b421a056e81f171bcc55a6ff8345e692c0f86e5b48e01b996cadc001622fb5e363b421b901000000000000000000000000000000000000000000000000000000000000000000000000000000000000000000000000000000000000000000000000000000000000000000000000000000000000000000000000000000000000000000000000000000000000000000000000000000000000000000000000000000000000000000000000000000000000000000000000000000000000000000000000000000000000000000000000000000000000000000000000000000000000000000000000000000000000000000000000000000000000000000000000000000000000000000000000000000000000000000000000000000000000000000000000000000000080808347e7c4808000a000000000000000000000000000000000000000000000000000000000000200008800000000000000000ba056e81f171bcc55a6ff8345e692c0f86e5b48e01b996cadc001622fb5e363b4218083060000a00000000000000000000000000000000000000000000000000000000000000000a0e3b0c44298fc1c149afbf4c8996fb92427ae41e4649b934ca495991b7852b855c0c0c0",
        "lastblockhash" : "0x2393b1d3c294f48a852ddc2e7a48b08ab9a276b84a156c9856dcfae14c4db486",
        "network" : "Prague",
        "postState" : {
            "0x0000f90827f1c53a10cb7a02335b175320002935" : {
                "balance" : "0x00",
                "code" : "0x3373fffffffffffffffffffffffffffffffffffffffe14604657602036036042575f35600143038111604257611fff81430311604257611fff9006545f5260205ff35b5f5ffd5b5f35611fff60014303065500",
                "nonce" : "0x01",
                "storage" : {
                    "0x00" : "0x30ba99506c7d01caedefbf5f8ecb0c03916463af74df9a805f299512f7fa8e8a"
                }
            },
            "0x000f3df6d732807ef1319fb7b8bb8522d0beac02" : {
                "balance" : "0x00",
                "code" : "0x3373fffffffffffffffffffffffffffffffffffffffe14604d57602036146024575f5ffd5b5f35801560495762001fff810690815414603c575f5ffd5b62001fff01545f5260205ff35b5f5ffd5b62001fff42064281555f359062001fff015500",
                "nonce" : "0x01",
                "storage" : {
                    "0x03e8" : "0x03e8"
                }
            },
            "0x2adc25665018aa1fe0e6bc666dac8fc2697ff9ba" : {
                "balance" : "0x468d1d",
                "code" : "0x",
                "nonce" : "0x00",
                "storage" : {
                }
            },
            "0xa94f5374fce5edbc8e2a8697c15331677e6ebf0b" : {
                "balance" : "0x0de0b6b3a45befc0",
                "code" : "0x",
                "nonce" : "0x0cc7",
                "storage" : {
                }
            },
            "0xecbf9aa676d9e0bbba7e517d1350c1b64f8c6779" : {
                "balance" : "0x01",
                "code" : "0x60606040526008565b00",
                "nonce" : "0x7c",
                "storage" : {
                }
            }
        },
        "pre" : {
            "0x0000f90827f1c53a10cb7a02335b175320002935" : {
                "balance" : "0x00",
                "code" : "0x3373fffffffffffffffffffffffffffffffffffffffe14604657602036036042575f35600143038111604257611fff81430311604257611fff9006545f5260205ff35b5f5ffd5b5f35611fff60014303065500",
                "nonce" : "0x01",
                "storage" : {
                }
            },
            "0x000f3df6d732807ef1319fb7b8bb8522d0beac02" : {
                "balance" : "0x00",
                "code" : "0x3373fffffffffffffffffffffffffffffffffffffffe14604d57602036146024575f5ffd5b5f35801560495762001fff810690815414603c575f5ffd5b62001fff01545f5260205ff35b5f5ffd5b62001fff42064281555f359062001fff015500",
                "nonce" : "0x01",
                "storage" : {
                }
            },
            "0xa94f5374fce5edbc8e2a8697c15331677e6ebf0b" : {
                "balance" : "0x0de0b6b3a7640000",
                "code" : "0x",
                "nonce" : "0x0cc6",
                "storage" : {
                }
            }
        },
        "sealEngine" : "NoProof"
    }
}