{
    "vitalikTransactionTestParis_d0g0v0_Cancun" : {
        "_info" : {
            "comment" : "",
            "filling-rpc-server" : "evmone-t8n 0.14.0-13+commit.4d363c36",
            "filling-tool-version" : "retesteth-0.3.2-legacy+commit.ca7f4c79.Linux.g++",
            "fixture-format" : "blockchain_test",
            "generatedTestHash" : "73e242e7ca55a0db58b3f9b81a01d27d6d8a5a5be429f193f3dafc01bb31d20f",
            "lllcversion" : "Version: 0.5.14-develop.2024.11.5+commit.b2b86751.mod.Linux.g++",
            "hyperion" : "Version: 0.8.24+commit.e11b9ed9.Linux.g++",
            "source" : "src/GeneralStateTestsFiller/stEIP158Specific/vitalikTransactionTestParisFiller.json",
            "sourceHash" : "16bba50b0272c68d06a821a96c864149c1d18acbb0e74db8bf193754a1966da2"
        },
        "blocks" : [
            {
                "blockHeader" : {
                    "baseFeePerGas" : "0x0a",
                    "bloom" : "0x00000000000000000000000000000000000000000000000000000000000000000000000000000000000000000000000000000000000000000000000000000000000000000000000000000000000000000000000000000000000000000000000000000000000000000000000000000000000000000000000000000000000000000000000000000000000000000000000000000000000000000000000000000000000000000000000000000000000000000000000000000000000000000000000000000000000000000000000000000000000000000000000000000000000000000000000000000000000000000000000000000000000000000000000000000000",
                    "coinbase" : "Z2adc25665018aa1fe0e6bc666dac8fc2697ff9ba",
                    "extraData" : "0x00",
                    "gasLimit" : "0x989680",
                    "gasUsed" : "0x048a2c",
                    "hash" : "0x9eda73b6bb1a928e3781e65bd5c85de9d80b698fde2f5b087621a608fb37ff99",
                    "mixHash" : "0x0000000000000000000000000000000000000000000000000000000000020000",
                    "nonce" : "0x0000000000000000",
                    "number" : "0x01",
                    "parentHash" : "0x887d7b137517044f853ad7b29cbe2a405fa9455ed07db24521bc8061361a60f3",
                    "receiptTrie" : "0x65deaa5cd88107a86fedf23a209491bf774cc8f37672ab5ee701cf77fe335d9d",
                    "stateRoot" : "0x0123a6fe67453bfbfb742645603b055cdf5dabcb7d52027b118e6e53bc29a363",
                    "timestamp" : "0x03e8",
                    "transactionsTrie" : "0x06271b68d0bebf64a91a4a1d361e00b2a13042ce826ea1d6d135ee813368b614",
                    "withdrawalsRoot" : "0x56e81f171bcc55a6ff8345e692c0f86e5b48e01b996cadc001622fb5e363b421"
                },
                "rlp" : "0xf903a1f9023aa0887d7b137517044f853ad7b29cbe2a405fa9455ed07db24521bc8061361a60f3a01dcc4de8dec75d7aab85b567b6ccd41ad312451b948a7413f0a142fd40d49347942adc25665018aa1fe0e6bc666dac8fc2697ff9baa00123a6fe67453bfbfb742645603b055cdf5dabcb7d52027b118e6e53bc29a363a006271b68d0bebf64a91a4a1d361e00b2a13042ce826ea1d6d135ee813368b614a065deaa5cd88107a86fedf23a209491bf774cc8f37672ab5ee701cf77fe335d9db901000000000000000000000000000000000000000000000000000000000000000000000000000000000000000000000000000000000000000000000000000000000000000000000000000000000000000000000000000000000000000000000000000000000000000000000000000000000000000000000000000000000000000000000000000000000000000000000000000000000000000000000000000000000000000000000000000000000000000000000000000000000000000000000000000000000000000000000000000000000000000000000000000000000000000000000000000000000000000000000000000000000000000000000000000000000080018398968083048a2c8203e800a000000000000000000000000000000000000000000000000000000000000200008800000000000000000aa056e81f171bcc55a6ff8345e692c0f86e5b48e01b996cadc001622fb5e363b4218080a00000000000000000000000000000000000000000000000000000000000000000f9015ff9015c82014f0a831fffff8080b9010c6000607f5359610043806100135939610056566c010000000000000000000000007fee098e6c2a43d9e2c04f08f0c3a87b0ba59079d4d53532071d6cd0cb86facd5605ff6100008061003f60003961003f565b6000f35b816000f0905050596100718061006c59396100dd5661005f8061000e60003961006d566000603f5359610043806100135939610056566c010000000000000000000000007fee098e6c2a43d9e2c04f08f0c3a87b0ba59079d4d53532071d6cd0cb86facd5605ff6100008061003f60003961003f565b6000f35b816000f0905050fe5b6000f35b816000f0905060405260006000600060006000604051620249f0f15061000080610108600039610108565b6000f31ca0e2c202d8dce500598510b7bd2e7f6b3438be91687cea510b6e4eb39a76db4774a0493ea1014bd91d53d6fea82a08633b7e597d23d236102e445af66fdddae81608c0c0",
                "transactions" : [
                    {
                        "data" : "0x6000607f5359610043806100135939610056566c010000000000000000000000007fee098e6c2a43d9e2c04f08f0c3a87b0ba59079d4d53532071d6cd0cb86facd5605ff6100008061003f60003961003f565b6000f35b816000f0905050596100718061006c59396100dd5661005f8061000e60003961006d566000603f5359610043806100135939610056566c010000000000000000000000007fee098e6c2a43d9e2c04f08f0c3a87b0ba59079d4d53532071d6cd0cb86facd5605ff6100008061003f60003961003f565b6000f35b816000f0905050fe5b6000f35b816000f0905060405260006000600060006000604051620249f0f15061000080610108600039610108565b6000f3",
                        "gasLimit" : "0x1fffff",
                        "gasPrice" : "0x0a",
                        "nonce" : "0x014f",
                        "signature" : "0xe2c202d8dce500598510b7bd2e7f6b3438be91687cea510b6e4eb39a76db4774",
                        "publicKey" : "0x493ea1014bd91d53d6fea82a08633b7e597d23d236102e445af66fdddae81608",
                        "sender" : "Zcd2a3d9f938e13cd947ec05abc7fe734df8dd826",
                        "to" : "",
                        "v" : "0x1c",
                        "value" : "0x00"
                    }
                ],

                "withdrawals" : [
                ]
            }
        ],
        "config" : {
            "blobSchedule" : {
                "Cancun" : {
                    "baseFeeUpdateFraction" : "0x32f0ed",
                    "max" : "0x06",
                    "target" : "0x03"
                }
            },
            "chainid" : "0x01",
            "network" : "Shanghai"
        },
        "genesisBlockHeader" : {
            "baseFeePerGas" : "0x0b",
            "bloom" : "0x00000000000000000000000000000000000000000000000000000000000000000000000000000000000000000000000000000000000000000000000000000000000000000000000000000000000000000000000000000000000000000000000000000000000000000000000000000000000000000000000000000000000000000000000000000000000000000000000000000000000000000000000000000000000000000000000000000000000000000000000000000000000000000000000000000000000000000000000000000000000000000000000000000000000000000000000000000000000000000000000000000000000000000000000000000000",
            "coinbase" : "Z2adc25665018aa1fe0e6bc666dac8fc2697ff9ba",
            "extraData" : "0x00",
            "gasLimit" : "0x989680",
            "gasUsed" : "0x00",
            "hash" : "0x887d7b137517044f853ad7b29cbe2a405fa9455ed07db24521bc8061361a60f3",
            "mixHash" : "0x0000000000000000000000000000000000000000000000000000000000020000",
            "nonce" : "0x0000000000000000",
            "number" : "0x00",
            "parentHash" : "0x0000000000000000000000000000000000000000000000000000000000000000",
            "receiptTrie" : "0x56e81f171bcc55a6ff8345e692c0f86e5b48e01b996cadc001622fb5e363b421",
            "stateRoot" : "0x61c68cbac9d096ef9c4f918693327fcfbcfc6051e4a036658a229882f5eea377",
            "timestamp" : "0x00",
            "transactionsTrie" : "0x56e81f171bcc55a6ff8345e692c0f86e5b48e01b996cadc001622fb5e363b421",
            "withdrawalsRoot" : "0x56e81f171bcc55a6ff8345e692c0f86e5b48e01b996cadc001622fb5e363b421"
        },
        "genesisRLP" : "0xf9023ef90238a00000000000000000000000000000000000000000000000000000000000000000a01dcc4de8dec75d7aab85b567b6ccd41ad312451b948a7413f0a142fd40d49347942adc25665018aa1fe0e6bc666dac8fc2697ff9baa061c68cbac9d096ef9c4f918693327fcfbcfc6051e4a036658a229882f5eea377a056e81f171bcc55a6ff8345e692c0f86e5b48e01b996cadc001622fb5e363b421a056e81f171bcc55a6ff8345e692c0f86e5b48e01b996cadc001622fb5e363b421b9010000000000000000000000000000000000000000000000000000000000000000000000000000000000000000000000000000000000000000000000000000000000000000000000000000000000000000000000000000000000000000000000000000000000000000000000000000000000000000000000000000000000000000000000000000000000000000000000000000000000000000000000000000000000000000000000000000000000000000000000000000000000000000000000000000000000000000000000000000000000000000000000000000000000000000000000000000000000000000000000000000000000000000000000000000000000808083989680808000a000000000000000000000000000000000000000000000000000000000000200008800000000000000000ba056e81f171bcc55a6ff8345e692c0f86e5b48e01b996cadc001622fb5e363b4218083060000a00000000000000000000000000000000000000000000000000000000000000000c0c0c0",
        "lastblockhash" : "0x9eda73b6bb1a928e3781e65bd5c85de9d80b698fde2f5b087621a608fb37ff99",
        "network" : "Shanghai",
        "postState" : {
            "Z000f3df6d732807ef1319fb7b8bb8522d0beac02" : {
                "balance" : "0x00",
                "code" : "0x3373fffffffffffffffffffffffffffffffffffffffe14604d57602036146024575f5ffd5b5f35801560495762001fff810690815414603c575f5ffd5b62001fff01545f5260205ff35b5f5ffd5b62001fff42064281555f359062001fff015500",
                "nonce" : "0x01",
                "storage" : {
                    "0x03e8" : "0x03e8"
                }
            },
            "0x1bc78ae0e5ec5cb439f1d5355d6f90d38343e109" : {
                "balance" : "0x00",
                "code" : "0x",
                "nonce" : "0x03",
                "storage" : {
                }
            },
            "0x2adc25665018aa1fe0e6bc666dac8fc2697ff9ba" : {
                "balance" : "0x00",
                "code" : "0x",
                "nonce" : "0x01",
                "storage" : {
                }
            },
            "0x51f9d7f98e997bdd6bebde4c2dd27be8c99303aa" : {
                "balance" : "0x00",
                "code" : "0x6000603f5359610043806100135939610056566c010000000000000000000000007fee098e6c2a43d9e2c04f08f0c3a87b0ba59079d4d53532071d6cd0cb86facd5605ff6100008061003f60003961003f565b6000f35b816000f0905050fe",
                "nonce" : "0x01",
                "storage" : {
                }
            },
            "0xcd2a3d9f938e13cd947ec05abc7fe734df8dd826" : {
                "balance" : "0xffffffffffffffd29a47",
                "code" : "0x",
                "nonce" : "0x0150",
                "storage" : {
                }
            },
            "0xee098e6c2a43d9e2c04f08f0c3a87b0ba59079d4" : {
                "balance" : "0x0a",
                "code" : "0x",
                "nonce" : "0x00",
                "storage" : {
                }
            }
        },
        "pre" : {
            "Z000f3df6d732807ef1319fb7b8bb8522d0beac02" : {
                "balance" : "0x00",
                "code" : "0x3373fffffffffffffffffffffffffffffffffffffffe14604d57602036146024575f5ffd5b5f35801560495762001fff810690815414603c575f5ffd5b62001fff01545f5260205ff35b5f5ffd5b62001fff42064281555f359062001fff015500",
                "nonce" : "0x01",
                "storage" : {
                }
            },
            "0x2adc25665018aa1fe0e6bc666dac8fc2697ff9ba" : {
                "balance" : "0x00",
                "code" : "0x",
                "nonce" : "0x01",
                "storage" : {
                }
            },
            "0xcd2a3d9f938e13cd947ec05abc7fe734df8dd826" : {
                "balance" : "0xffffffffffffffffffff",
                "code" : "0x",
                "nonce" : "0x014f",
                "storage" : {
                }
            },
            "0xee098e6c2a43d9e2c04f08f0c3a87b0ba59079d4" : {
                "balance" : "0x0a",
                "code" : "0x",
                "nonce" : "0x00",
                "storage" : {
                }
            }
        },
        "sealEngine" : "NoProof"
    },
    "vitalikTransactionTestParis_d0g0v0_Prague" : {
        "_info" : {
            "comment" : "",
            "filling-rpc-server" : "evmone-t8n 0.14.0-13+commit.4d363c36",
            "filling-tool-version" : "retesteth-0.3.2-legacy+commit.ca7f4c79.Linux.g++",
            "fixture-format" : "blockchain_test",
            "generatedTestHash" : "a7db7f967db807e98843cccd3c415a5bcab24a55273e230126ec325c074aba41",
            "lllcversion" : "Version: 0.5.14-develop.2024.11.5+commit.b2b86751.mod.Linux.g++",
            "hyperion" : "Version: 0.8.24+commit.e11b9ed9.Linux.g++",
            "source" : "src/GeneralStateTestsFiller/stEIP158Specific/vitalikTransactionTestParisFiller.json",
            "sourceHash" : "16bba50b0272c68d06a821a96c864149c1d18acbb0e74db8bf193754a1966da2"
        },
        "blocks" : [
            {
                "blockHeader" : {
                    "baseFeePerGas" : "0x0a",
                    "bloom" : "0x00000000000000000000000000000000000000000000000000000000000000000000000000000000000000000000000000000000000000000000000000000000000000000000000000000000000000000000000000000000000000000000000000000000000000000000000000000000000000000000000000000000000000000000000000000000000000000000000000000000000000000000000000000000000000000000000000000000000000000000000000000000000000000000000000000000000000000000000000000000000000000000000000000000000000000000000000000000000000000000000000000000000000000000000000000000",
                    "coinbase" : "Z2adc25665018aa1fe0e6bc666dac8fc2697ff9ba",
                    "extraData" : "0x00",
                    "gasLimit" : "0x989680",
                    "gasUsed" : "0x048a2c",
                    "hash" : "0x0706c54198b4a40025312df22d4ec0b937ebeea93571747ce3a17355f339293e",
                    "mixHash" : "0x0000000000000000000000000000000000000000000000000000000000020000",
                    "nonce" : "0x0000000000000000",
                    "number" : "0x01",
                    "parentHash" : "0x5dd3d32ef828c663cda9a31a84cf813df93a339b24ceee5a68cf22c9b5425008",
                    "receiptTrie" : "0x65deaa5cd88107a86fedf23a209491bf774cc8f37672ab5ee701cf77fe335d9d",
                    "requestsHash" : "0xe3b0c44298fc1c149afbf4c8996fb92427ae41e4649b934ca495991b7852b855",
                    "stateRoot" : "0xa44243bd77f1ff7afe2cfab7c269016b7080cbfed500ac11ef188f0cf3803277",
                    "timestamp" : "0x03e8",
                    "transactionsTrie" : "0x06271b68d0bebf64a91a4a1d361e00b2a13042ce826ea1d6d135ee813368b614",
                    "withdrawalsRoot" : "0x56e81f171bcc55a6ff8345e692c0f86e5b48e01b996cadc001622fb5e363b421"
                },
                "rlp" : "0xf903c2f9025ba05dd3d32ef828c663cda9a31a84cf813df93a339b24ceee5a68cf22c9b5425008a01dcc4de8dec75d7aab85b567b6ccd41ad312451b948a7413f0a142fd40d49347942adc25665018aa1fe0e6bc666dac8fc2697ff9baa0a44243bd77f1ff7afe2cfab7c269016b7080cbfed500ac11ef188f0cf3803277a006271b68d0bebf64a91a4a1d361e00b2a13042ce826ea1d6d135ee813368b614a065deaa5cd88107a86fedf23a209491bf774cc8f37672ab5ee701cf77fe335d9db901000000000000000000000000000000000000000000000000000000000000000000000000000000000000000000000000000000000000000000000000000000000000000000000000000000000000000000000000000000000000000000000000000000000000000000000000000000000000000000000000000000000000000000000000000000000000000000000000000000000000000000000000000000000000000000000000000000000000000000000000000000000000000000000000000000000000000000000000000000000000000000000000000000000000000000000000000000000000000000000000000000000000000000000000000000000080018398968083048a2c8203e800a000000000000000000000000000000000000000000000000000000000000200008800000000000000000aa056e81f171bcc55a6ff8345e692c0f86e5b48e01b996cadc001622fb5e363b4218080a00000000000000000000000000000000000000000000000000000000000000000a0e3b0c44298fc1c149afbf4c8996fb92427ae41e4649b934ca495991b7852b855f9015ff9015c82014f0a831fffff8080b9010c6000607f5359610043806100135939610056566c010000000000000000000000007fee098e6c2a43d9e2c04f08f0c3a87b0ba59079d4d53532071d6cd0cb86facd5605ff6100008061003f60003961003f565b6000f35b816000f0905050596100718061006c59396100dd5661005f8061000e60003961006d566000603f5359610043806100135939610056566c010000000000000000000000007fee098e6c2a43d9e2c04f08f0c3a87b0ba59079d4d53532071d6cd0cb86facd5605ff6100008061003f60003961003f565b6000f35b816000f0905050fe5b6000f35b816000f0905060405260006000600060006000604051620249f0f15061000080610108600039610108565b6000f31ca0e2c202d8dce500598510b7bd2e7f6b3438be91687cea510b6e4eb39a76db4774a0493ea1014bd91d53d6fea82a08633b7e597d23d236102e445af66fdddae81608c0c0",
                "transactions" : [
                    {
                        "data" : "0x6000607f5359610043806100135939610056566c010000000000000000000000007fee098e6c2a43d9e2c04f08f0c3a87b0ba59079d4d53532071d6cd0cb86facd5605ff6100008061003f60003961003f565b6000f35b816000f0905050596100718061006c59396100dd5661005f8061000e60003961006d566000603f5359610043806100135939610056566c010000000000000000000000007fee098e6c2a43d9e2c04f08f0c3a87b0ba59079d4d53532071d6cd0cb86facd5605ff6100008061003f60003961003f565b6000f35b816000f0905050fe5b6000f35b816000f0905060405260006000600060006000604051620249f0f15061000080610108600039610108565b6000f3",
                        "gasLimit" : "0x1fffff",
                        "gasPrice" : "0x0a",
                        "nonce" : "0x014f",
                        "signature" : "0xe2c202d8dce500598510b7bd2e7f6b3438be91687cea510b6e4eb39a76db4774",
                        "publicKey" : "0x493ea1014bd91d53d6fea82a08633b7e597d23d236102e445af66fdddae81608",
                        "sender" : "Zcd2a3d9f938e13cd947ec05abc7fe734df8dd826",
                        "to" : "",
                        "v" : "0x1c",
                        "value" : "0x00"
                    }
                ],

                "withdrawals" : [
                ]
            }
        ],
        "config" : {
            "blobSchedule" : {
                "Prague" : {
                    "baseFeeUpdateFraction" : "0x4c6964",
                    "max" : "0x09",
                    "target" : "0x06"
                }
            },
            "chainid" : "0x01",
            "network" : "Shanghai"
        },
        "genesisBlockHeader" : {
            "baseFeePerGas" : "0x0b",
            "bloom" : "0x00000000000000000000000000000000000000000000000000000000000000000000000000000000000000000000000000000000000000000000000000000000000000000000000000000000000000000000000000000000000000000000000000000000000000000000000000000000000000000000000000000000000000000000000000000000000000000000000000000000000000000000000000000000000000000000000000000000000000000000000000000000000000000000000000000000000000000000000000000000000000000000000000000000000000000000000000000000000000000000000000000000000000000000000000000000",
            "coinbase" : "Z2adc25665018aa1fe0e6bc666dac8fc2697ff9ba",
            "extraData" : "0x00",
            "gasLimit" : "0x989680",
            "gasUsed" : "0x00",
            "hash" : "0x5dd3d32ef828c663cda9a31a84cf813df93a339b24ceee5a68cf22c9b5425008",
            "mixHash" : "0x0000000000000000000000000000000000000000000000000000000000020000",
            "nonce" : "0x0000000000000000",
            "number" : "0x00",
            "parentHash" : "0x0000000000000000000000000000000000000000000000000000000000000000",
            "receiptTrie" : "0x56e81f171bcc55a6ff8345e692c0f86e5b48e01b996cadc001622fb5e363b421",
            "requestsHash" : "0xe3b0c44298fc1c149afbf4c8996fb92427ae41e4649b934ca495991b7852b855",
            "stateRoot" : "0x47b4a08bc0f24438faa07d76c1d7a98abce014fd217ba4c03fdfaa034bfbfa5d",
            "timestamp" : "0x00",
            "transactionsTrie" : "0x56e81f171bcc55a6ff8345e692c0f86e5b48e01b996cadc001622fb5e363b421",
            "withdrawalsRoot" : "0x56e81f171bcc55a6ff8345e692c0f86e5b48e01b996cadc001622fb5e363b421"
        },
        "genesisRLP" : "0xf9025ff90259a00000000000000000000000000000000000000000000000000000000000000000a01dcc4de8dec75d7aab85b567b6ccd41ad312451b948a7413f0a142fd40d49347942adc25665018aa1fe0e6bc666dac8fc2697ff9baa047b4a08bc0f24438faa07d76c1d7a98abce014fd217ba4c03fdfaa034bfbfa5da056e81f171bcc55a6ff8345e692c0f86e5b48e01b996cadc001622fb5e363b421a056e81f171bcc55a6ff8345e692c0f86e5b48e01b996cadc001622fb5e363b421b9010000000000000000000000000000000000000000000000000000000000000000000000000000000000000000000000000000000000000000000000000000000000000000000000000000000000000000000000000000000000000000000000000000000000000000000000000000000000000000000000000000000000000000000000000000000000000000000000000000000000000000000000000000000000000000000000000000000000000000000000000000000000000000000000000000000000000000000000000000000000000000000000000000000000000000000000000000000000000000000000000000000000000000000000000000000000808083989680808000a000000000000000000000000000000000000000000000000000000000000200008800000000000000000ba056e81f171bcc55a6ff8345e692c0f86e5b48e01b996cadc001622fb5e363b4218083060000a00000000000000000000000000000000000000000000000000000000000000000a0e3b0c44298fc1c149afbf4c8996fb92427ae41e4649b934ca495991b7852b855c0c0c0",
        "lastblockhash" : "0x0706c54198b4a40025312df22d4ec0b937ebeea93571747ce3a17355f339293e",
        "network" : "Shanghai",
        "postState" : {
            "Z0000f90827f1c53a10cb7a02335b175320002935" : {
                "balance" : "0x00",
                "code" : "0x3373fffffffffffffffffffffffffffffffffffffffe14604657602036036042575f35600143038111604257611fff81430311604257611fff9006545f5260205ff35b5f5ffd5b5f35611fff60014303065500",
                "nonce" : "0x01",
                "storage" : {
                    "0x00" : "0x5dd3d32ef828c663cda9a31a84cf813df93a339b24ceee5a68cf22c9b5425008"
                }
            },
            "0x000f3df6d732807ef1319fb7b8bb8522d0beac02" : {
                "balance" : "0x00",
                "code" : "0x3373fffffffffffffffffffffffffffffffffffffffe14604d57602036146024575f5ffd5b5f35801560495762001fff810690815414603c575f5ffd5b62001fff01545f5260205ff35b5f5ffd5b62001fff42064281555f359062001fff015500",
                "nonce" : "0x01",
                "storage" : {
                    "0x03e8" : "0x03e8"
                }
            },
            "0x1bc78ae0e5ec5cb439f1d5355d6f90d38343e109" : {
                "balance" : "0x00",
                "code" : "0x",
                "nonce" : "0x03",
                "storage" : {
                }
            },
            "0x2adc25665018aa1fe0e6bc666dac8fc2697ff9ba" : {
                "balance" : "0x00",
                "code" : "0x",
                "nonce" : "0x01",
                "storage" : {
                }
            },
            "0x51f9d7f98e997bdd6bebde4c2dd27be8c99303aa" : {
                "balance" : "0x00",
                "code" : "0x6000603f5359610043806100135939610056566c010000000000000000000000007fee098e6c2a43d9e2c04f08f0c3a87b0ba59079d4d53532071d6cd0cb86facd5605ff6100008061003f60003961003f565b6000f35b816000f0905050fe",
                "nonce" : "0x01",
                "storage" : {
                }
            },
            "0xcd2a3d9f938e13cd947ec05abc7fe734df8dd826" : {
                "balance" : "0xffffffffffffffd29a47",
                "code" : "0x",
                "nonce" : "0x0150",
                "storage" : {
                }
            },
            "0xee098e6c2a43d9e2c04f08f0c3a87b0ba59079d4" : {
                "balance" : "0x0a",
                "code" : "0x",
                "nonce" : "0x00",
                "storage" : {
                }
            }
        },
        "pre" : {
            "Z0000f90827f1c53a10cb7a02335b175320002935" : {
                "balance" : "0x00",
                "code" : "0x3373fffffffffffffffffffffffffffffffffffffffe14604657602036036042575f35600143038111604257611fff81430311604257611fff9006545f5260205ff35b5f5ffd5b5f35611fff60014303065500",
                "nonce" : "0x01",
                "storage" : {
                }
            },
            "0x000f3df6d732807ef1319fb7b8bb8522d0beac02" : {
                "balance" : "0x00",
                "code" : "0x3373fffffffffffffffffffffffffffffffffffffffe14604d57602036146024575f5ffd5b5f35801560495762001fff810690815414603c575f5ffd5b62001fff01545f5260205ff35b5f5ffd5b62001fff42064281555f359062001fff015500",
                "nonce" : "0x01",
                "storage" : {
                }
            },
            "0x2adc25665018aa1fe0e6bc666dac8fc2697ff9ba" : {
                "balance" : "0x00",
                "code" : "0x",
                "nonce" : "0x01",
                "storage" : {
                }
            },
            "0xcd2a3d9f938e13cd947ec05abc7fe734df8dd826" : {
                "balance" : "0xffffffffffffffffffff",
                "code" : "0x",
                "nonce" : "0x014f",
                "storage" : {
                }
            },
            "0xee098e6c2a43d9e2c04f08f0c3a87b0ba59079d4" : {
                "balance" : "0x0a",
                "code" : "0x",
                "nonce" : "0x00",
                "storage" : {
                }
            }
        },
        "sealEngine" : "NoProof"
    }
}