{
    "randomStatetest80" : {
        "_info" : {
            "comment" : "",
            "filling-rpc-server" : "evmone-t8n 0.14.0-13+commit.4d363c36",
            "filling-tool-version" : "retesteth-0.3.2-legacy+commit.ca7f4c79.Linux.g++",
            "fixture-format" : "state_test",
            "generatedTestHash" : "ca1846877dbac4dc7a02c58d61ac13a3341deada9e0157937077203b7255e8a1",
            "lllcversion" : "Version: 0.5.14-develop.2024.11.5+commit.b2b86751.mod.Linux.g++",
            "solidity" : "Version: 0.8.24+commit.e11b9ed9.Linux.g++",
            "source" : "src/GeneralStateTestsFiller/stRandom/randomStatetest80Filler.json",
            "sourceHash" : "a1ace1c9e6e114f0aba8c540977b2540c7bd025c1e54e92f3bd077eaa7471583"
        },
        "config" : {
            "blobSchedule" : {
                "Cancun" : {
                    "baseFeeUpdateFraction" : "0x32f0ed",
                    "max" : "0x06",
                    "target" : "0x03"
                },
                "Prague" : {
                    "baseFeeUpdateFraction" : "0x4c6964",
                    "max" : "0x09",
                    "target" : "0x06"
                }
            },
            "chainid" : "0x01"
        },
        "env" : {
            "currentBaseFee" : "0x0a",
            "currentCoinbase" : "Z945304eb96065b2a98b57a48a06ae28d285a71b5",
            "currentExcessBlobGas" : "0x00",
            "currentGasLimit" : "0x7fffffffffffffff",
            "currentNumber" : "0x01",
            "currentRandom" : "0x0000000000000000000000000000000000000000000000000000000000020000",
            "currentTimestamp" : "0x03e8"
        },
        "post" : {
            "Cancun" : [
                {
                    "hash" : "0xf73db97653e3a44306a083322c4ee622efd0498a797c7aca848749889029519c",
                    "indexes" : {
                        "data" : 0,
                        "gas" : 0,
                        "value" : 0
                    },
                    "logs" : "0x1dcc4de8dec75d7aab85b567b6ccd41ad312451b948a7413f0a142fd40d49347",
                    "state" : {
                        "0x095e7baea6a6c7c4c2dfeb977efac326af552d87" : {
                            "balance" : "0x1ed9a5b6",
                            "code" : "0x7f000000000000000000000000945304eb96065b2a98b57a48a06ae28d285a71b57f000000000000000000000000000000000000000000000000000000000000c3507f000000000000000000000000945304eb96065b2a98b57a48a06ae28d285a71b57f0000000000000000000000010000000000000000000000000000000000000000117fffffffffffffffffffffffffffffffffffffffffffffffffffffffffffffffff7e7f000000000000000000000000945304eb96065b2a98b57a48a06ae28d285a71b5681069127b3b9c877d6f6169ff3660005155",
                            "nonce" : "0x00",
                            "storage" : {
                                "0xb5681069127b3b9c877d6f6169ff36600051" : "0x7f000000000000000000000000945304eb96065b2a98b57a48a06ae28d285a"
                            }
                        },
                        "0x945304eb96065b2a98b57a48a06ae28d285a71b5" : {
                            "balance" : "0x2e",
                            "code" : "0x6000355415600957005b60203560003555",
                            "nonce" : "0x00",
                            "storage" : {
                            }
                        },
                        "0xa94f5374fce5edbc8e2a8697c15331677e6ebf0b" : {
                            "balance" : "0x0de0b6b388836d7a",
                            "code" : "0x",
                            "nonce" : "0x01",
                            "storage" : {
                            }
                        }
                    },
                    "txbytes" : "0xf9013c800a840a0d7e3894095e7baea6a6c7c4c2dfeb977efac326af552d87841ed9a5b6b8d67f000000000000000000000000945304eb96065b2a98b57a48a06ae28d285a71b57f000000000000000000000000000000000000000000000000000000000000c3507f000000000000000000000000945304eb96065b2a98b57a48a06ae28d285a71b57f0000000000000000000000010000000000000000000000000000000000000000117fffffffffffffffffffffffffffffffffffffffffffffffffffffffffffffffff7e7f000000000000000000000000945304eb96065b2a98b57a48a06ae28d285a71b5681069127b3b9c877d6f6169ff361ba0a6dc2041024191ec8bf7db38f0c421f69ef78a22313a19f6fa1c2701dac35223a04027db43d973d00ffae4468256a0fe113cbb1d2041e725f8864b9ed39e9a42ee"
                }
            ],
            "Prague" : [
                {
                    "hash" : "0xf73db97653e3a44306a083322c4ee622efd0498a797c7aca848749889029519c",
                    "indexes" : {
                        "data" : 0,
                        "gas" : 0,
                        "value" : 0
                    },
                    "logs" : "0x1dcc4de8dec75d7aab85b567b6ccd41ad312451b948a7413f0a142fd40d49347",
                    "state" : {
                        "0x095e7baea6a6c7c4c2dfeb977efac326af552d87" : {
                            "balance" : "0x1ed9a5b6",
                            "code" : "0x7f000000000000000000000000945304eb96065b2a98b57a48a06ae28d285a71b57f000000000000000000000000000000000000000000000000000000000000c3507f000000000000000000000000945304eb96065b2a98b57a48a06ae28d285a71b57f0000000000000000000000010000000000000000000000000000000000000000117fffffffffffffffffffffffffffffffffffffffffffffffffffffffffffffffff7e7f000000000000000000000000945304eb96065b2a98b57a48a06ae28d285a71b5681069127b3b9c877d6f6169ff3660005155",
                            "nonce" : "0x00",
                            "storage" : {
                                "0xb5681069127b3b9c877d6f6169ff36600051" : "0x7f000000000000000000000000945304eb96065b2a98b57a48a06ae28d285a"
                            }
                        },
                        "0x945304eb96065b2a98b57a48a06ae28d285a71b5" : {
                            "balance" : "0x2e",
                            "code" : "0x6000355415600957005b60203560003555",
                            "nonce" : "0x00",
                            "storage" : {
                            }
                        },
                        "0xa94f5374fce5edbc8e2a8697c15331677e6ebf0b" : {
                            "balance" : "0x0de0b6b388836d7a",
                            "code" : "0x",
                            "nonce" : "0x01",
                            "storage" : {
                            }
                        }
                    },
                    "txbytes" : "0xf9013c800a840a0d7e3894095e7baea6a6c7c4c2dfeb977efac326af552d87841ed9a5b6b8d67f000000000000000000000000945304eb96065b2a98b57a48a06ae28d285a71b57f000000000000000000000000000000000000000000000000000000000000c3507f000000000000000000000000945304eb96065b2a98b57a48a06ae28d285a71b57f0000000000000000000000010000000000000000000000000000000000000000117fffffffffffffffffffffffffffffffffffffffffffffffffffffffffffffffff7e7f000000000000000000000000945304eb96065b2a98b57a48a06ae28d285a71b5681069127b3b9c877d6f6169ff361ba0a6dc2041024191ec8bf7db38f0c421f69ef78a22313a19f6fa1c2701dac35223a04027db43d973d00ffae4468256a0fe113cbb1d2041e725f8864b9ed39e9a42ee"
                }
            ]
        },
        "pre" : {
            "0x095e7baea6a6c7c4c2dfeb977efac326af552d87" : {
                "balance" : "0x00",
                "code" : "0x7f000000000000000000000000945304eb96065b2a98b57a48a06ae28d285a71b57f000000000000000000000000000000000000000000000000000000000000c3507f000000000000000000000000945304eb96065b2a98b57a48a06ae28d285a71b57f0000000000000000000000010000000000000000000000000000000000000000117fffffffffffffffffffffffffffffffffffffffffffffffffffffffffffffffff7e7f000000000000000000000000945304eb96065b2a98b57a48a06ae28d285a71b5681069127b3b9c877d6f6169ff3660005155",
                "nonce" : "0x00",
                "storage" : {
                }
            },
            "0x945304eb96065b2a98b57a48a06ae28d285a71b5" : {
                "balance" : "0x2e",
                "code" : "0x6000355415600957005b60203560003555",
                "nonce" : "0x00",
                "storage" : {
                }
            },
            "0xa94f5374fce5edbc8e2a8697c15331677e6ebf0b" : {
                "balance" : "0x0de0b6b3a7640000",
                "code" : "0x",
                "nonce" : "0x00",
                "storage" : {
                }
            }
        },
        "transaction" : {
            "data" : [
                "0x7f000000000000000000000000945304eb96065b2a98b57a48a06ae28d285a71b57f000000000000000000000000000000000000000000000000000000000000c3507f000000000000000000000000945304eb96065b2a98b57a48a06ae28d285a71b57f0000000000000000000000010000000000000000000000000000000000000000117fffffffffffffffffffffffffffffffffffffffffffffffffffffffffffffffff7e7f000000000000000000000000945304eb96065b2a98b57a48a06ae28d285a71b5681069127b3b9c877d6f6169ff36"
            ],
            "gasLimit" : [
                "0x0a0d7e38"
            ],
            "gasPrice" : "0x0a",
            "nonce" : "0x00",
            "secretKey" : "0x45a915e4d060149eb4365960e6a7a45f334393093061116b197e3240065ff2d8",
            "sender" : "0xa94f5374fce5edbc8e2a8697c15331677e6ebf0b",
            "to" : "Z095e7baea6a6c7c4c2dfeb977efac326af552d87",
            "value" : [
                "0x1ed9a5b6"
            ]
        }
    }
}