{
    "RawCallGasValueTransferMemory" : {
        "_info" : {
            "comment" : "",
            "filling-rpc-server" : "evmone-t8n 0.14.0-13+commit.4d363c36",
            "filling-tool-version" : "retesteth-0.3.2-legacy+commit.ca7f4c79.Linux.g++",
            "fixture-format" : "state_test",
            "generatedTestHash" : "d827328ab30f2abd2c4ee009e99706bce80f529af3077cd7917cf587550b49b8",
            "lllcversion" : "Version: 0.5.14-develop.2024.11.5+commit.b2b86751.mod.Linux.g++",
            "hyperion" : "Version: 0.8.24+commit.e11b9ed9.Linux.g++",
            "source" : "src/GeneralStateTestsFiller/stEIP150singleCodeGasPrices/RawCallGasValueTransferMemoryFiller.json",
            "sourceHash" : "62581c4a79a7a752a9982172f2237d9a5fe780116fdc0a9618f22c5a55425b8d"
        },
        "config" : {
            "blobSchedule" : {
                "Cancun" : {
                    "baseFeeUpdateFraction" : "0x32f0ed",
                    "max" : "0x06",
                    "target" : "0x03"
                },
                "Prague" : {
                    "baseFeeUpdateFraction" : "0x4c6964",
                    "max" : "0x09",
                    "target" : "0x06"
                }
            },
            "chainid" : "0x01"
        },
        "env" : {
            "currentBaseFee" : "0x0a",
            "currentCoinbase" : "Z2adc25665018aa1fe0e6bc666dac8fc2697ff9ba",
            "currentExcessBlobGas" : "0x00",
            "currentGasLimit" : "0x989680",
            "currentNumber" : "0x01",
            "currentRandom" : "0x0000000000000000000000000000000000000000000000000000000000020000",
            "currentTimestamp" : "0x03e8"
        },
        "post" : {
            "Cancun" : [
                {
                    "hash" : "0x5a8014d4461040eb9e7facdaf32140cd72bc52bb7e638fa677981fb64b1745d9",
                    "indexes" : {
                        "data" : 0,
                        "gas" : 0,
                        "value" : 0
                    },
                    "logs" : "0x1dcc4de8dec75d7aab85b567b6ccd41ad312451b948a7413f0a142fd40d49347",
                    "state" : {
                        "0x094f5374fce5edbc8e2a8697c15331677e6ebf0b" : {
                            "balance" : "0x0a",
                            "code" : "0x5a60025500",
                            "nonce" : "0x00",
                            "storage" : {
                                "0x02" : "0x7e2a"
                            }
                        },
                        "0xa94f5374fce5edbc8e2a8697c15331677e6ebf0b" : {
                            "balance" : "0xe8d4998dca",
                            "code" : "0x",
                            "nonce" : "0x01",
                            "storage" : {
                            }
                        },
                        "0xb94f5374fce5edbc8e2a8697c15331677e6ebf0b" : {
                            "balance" : "0x00",
                            "code" : "0x5a600052611f406000611f406000600a73094f5374fce5edbc8e2a8697c15331677e6ebf0b617530f1505a6000510360015500",
                            "nonce" : "0x00",
                            "storage" : {
                                "0x01" : "0x7e34"
                            }
                        }
                    },
                    "txbytes" : "0xf860800a8307a12094b94f5374fce5edbc8e2a8697c15331677e6ebf0b0a801ba0fb35c05d1d179aeeff9c12ca66f64b951bd1a1e6b2e8fd598d1ca177ac864ab8a0594406f2277897478d246b26b04bb589a5ed05944a22f904a29742f962ac8b5e"
                }
            ],
            "Prague" : [
                {
                    "hash" : "0x5a8014d4461040eb9e7facdaf32140cd72bc52bb7e638fa677981fb64b1745d9",
                    "indexes" : {
                        "data" : 0,
                        "gas" : 0,
                        "value" : 0
                    },
                    "logs" : "0x1dcc4de8dec75d7aab85b567b6ccd41ad312451b948a7413f0a142fd40d49347",
                    "state" : {
                        "0x094f5374fce5edbc8e2a8697c15331677e6ebf0b" : {
                            "balance" : "0x0a",
                            "code" : "0x5a60025500",
                            "nonce" : "0x00",
                            "storage" : {
                                "0x02" : "0x7e2a"
                            }
                        },
                        "0xa94f5374fce5edbc8e2a8697c15331677e6ebf0b" : {
                            "balance" : "0xe8d4998dca",
                            "code" : "0x",
                            "nonce" : "0x01",
                            "storage" : {
                            }
                        },
                        "0xb94f5374fce5edbc8e2a8697c15331677e6ebf0b" : {
                            "balance" : "0x00",
                            "code" : "0x5a600052611f406000611f406000600a73094f5374fce5edbc8e2a8697c15331677e6ebf0b617530f1505a6000510360015500",
                            "nonce" : "0x00",
                            "storage" : {
                                "0x01" : "0x7e34"
                            }
                        }
                    },
                    "txbytes" : "0xf860800a8307a12094b94f5374fce5edbc8e2a8697c15331677e6ebf0b0a801ba0fb35c05d1d179aeeff9c12ca66f64b951bd1a1e6b2e8fd598d1ca177ac864ab8a0594406f2277897478d246b26b04bb589a5ed05944a22f904a29742f962ac8b5e"
                }
            ]
        },
        "pre" : {
            "Z094f5374fce5edbc8e2a8697c15331677e6ebf0b" : {
                "balance" : "0x00",
                "code" : "0x5a60025500",
                "nonce" : "0x00",
                "storage" : {
                }
            },
            "Za94f5374fce5edbc8e2a8697c15331677e6ebf0b" : {
                "balance" : "0xe8d4a51000",
                "code" : "0x",
                "nonce" : "0x00",
                "storage" : {
                }
            },
            "Zb94f5374fce5edbc8e2a8697c15331677e6ebf0b" : {
                "balance" : "0x00",
                "code" : "0x5a600052611f406000611f406000600a73094f5374fce5edbc8e2a8697c15331677e6ebf0b617530f1505a6000510360015500",
                "nonce" : "0x00",
                "storage" : {
                }
            }
        },
        "transaction" : {
            "data" : [
                "0x"
            ],
            "gasLimit" : [
                "0x07a120"
            ],
            "gasPrice" : "0x0a",
            "nonce" : "0x00",
            "secretKey" : "0x45a915e4d060149eb4365960e6a7a45f334393093061116b197e3240065ff2d8",
            "sender" : "0xa94f5374fce5edbc8e2a8697c15331677e6ebf0b",
            "to" : "Zb94f5374fce5edbc8e2a8697c15331677e6ebf0b",
            "value" : [
                "0x0a"
            ]
        }
    }
}