{
    "randomStatetest646_d0g0v0_Cancun" : {
        "_info" : {
            "comment" : "Geth Failed this test on all networks",
            "filling-rpc-server" : "evmone-t8n 0.14.0-13+commit.4d363c36",
            "filling-tool-version" : "retesteth-0.3.2-legacy+commit.ca7f4c79.Linux.g++",
            "fixture-format" : "blockchain_test",
            "generatedTestHash" : "14bc056a98137d5583b26adc4ed732bdb7c1beb9c0a7c0dc984f96657ec9b2aa",
            "lllcversion" : "Version: 0.5.14-develop.2024.11.5+commit.b2b86751.mod.Linux.g++",
            "solidity" : "Version: 0.8.24+commit.e11b9ed9.Linux.g++",
            "source" : "src/GeneralStateTestsFiller/stRandom2/randomStatetest646Filler.json",
            "sourceHash" : "50ce8509ca6aca93611045a5671f0b0088b3478686eb4361faf239fe3e003d32"
        },
        "blocks" : [
            {
                "blockHeader" : {
                    "baseFeePerGas" : "0x0a",
                    "blobGasUsed" : "0x00",
                    "bloom" : "0x00000000000000000000000000000000000000000000000000000000000000000000000000000000000000000000000000000000000000000000000000000000000000000000000000000000000000000000000000000000000000000000000000000000000000000000000000000000000000000000000000000000000000000000000000000000000000000000000000000000000000000000000000000000000000000000000000000000000000000000000000000000000000000000000000000000000000000000000000000000000000000000000000000000000000000000000000000000000000000000000000000000000000000000000000000000",
                    "coinbase" : "0xd94f5374fce5edbc8e2a8697c15331677e6ebf0b",
                    "difficulty" : "0x00",
                    "excessBlobGas" : "0x00",
                    "extraData" : "0x00",
                    "gasLimit" : "0x42fe8c95373ea1",
                    "gasUsed" : "0x584d31",
                    "hash" : "0x59f8c4198f45c1e3f825968683a20032ea0768dcb764dd1341da20675acdbb5e",
                    "mixHash" : "0x0000000000000000000000000000000000000000000000000000000000020000",
                    "nonce" : "0x0000000000000000",
                    "number" : "0x01",
                    "parentBeaconBlockRoot" : "0x0000000000000000000000000000000000000000000000000000000000000000",
                    "parentHash" : "0x4b4ade843005cad6ac26b45275a05b89844ec28101d9b61bc7b198ceee76be03",
                    "receiptTrie" : "0x53077ec6f582974cc36542550f228b891d4fa732272a6984075dd3eaef9a432a",
                    "stateRoot" : "0x5b5efd6002b358ec18679ca8d9621143777dd4956a0dd32d84f0d45e58af69c5",
                    "timestamp" : "0x03e8",
                    "transactionsTrie" : "0x7756fdad04fcb7e0bd41cf411aefd1d08b84bba38c9d826bc661692d8183b81f",
                    "uncleHash" : "0x1dcc4de8dec75d7aab85b567b6ccd41ad312451b948a7413f0a142fd40d49347",
                    "withdrawalsRoot" : "0x56e81f171bcc55a6ff8345e692c0f86e5b48e01b996cadc001622fb5e363b421"
                },
                "rlp" : "0xf90392f9023ea04b4ade843005cad6ac26b45275a05b89844ec28101d9b61bc7b198ceee76be03a01dcc4de8dec75d7aab85b567b6ccd41ad312451b948a7413f0a142fd40d4934794d94f5374fce5edbc8e2a8697c15331677e6ebf0ba05b5efd6002b358ec18679ca8d9621143777dd4956a0dd32d84f0d45e58af69c5a07756fdad04fcb7e0bd41cf411aefd1d08b84bba38c9d826bc661692d8183b81fa053077ec6f582974cc36542550f228b891d4fa732272a6984075dd3eaef9a432ab901000000000000000000000000000000000000000000000000000000000000000000000000000000000000000000000000000000000000000000000000000000000000000000000000000000000000000000000000000000000000000000000000000000000000000000000000000000000000000000000000000000000000000000000000000000000000000000000000000000000000000000000000000000000000000000000000000000000000000000000000000000000000000000000000000000000000000000000000000000000000000000000000000000000000000000000000000000000000000000000000000000000000000000000000000000000080018742fe8c95373ea183584d318203e800a000000000000000000000000000000000000000000000000000000000000200008800000000000000000aa056e81f171bcc55a6ff8345e692c0f86e5b48e01b996cadc001622fb5e363b4218080a00000000000000000000000000000000000000000000000000000000000000000f9014cf90149800a83584d3194ffffffffffffffffffffffffffffffffffffffff845684b90ab8e4785196fdcb5d7e54c4b381e68c7eaeae2735e5537830130057f554672e70a6b867385ea2714ea3185b854bf0b4f9617fb47e6afe9ed4ed68f94b50776420fa24010960ce6b65e2a1ebdce518181d6c69a678989d767fc3d28b6c524f52a87d05519cb32e38fbdc5f801f756922b90c0e2e5bc848bb9c6a5d08ee65470af4fbbeacf87a65c90dc57babd8cdc9819f898551925828bfd360e8a1f1616619d171c23004b0045424cc962e09d8a65d9fd94af9863d61eba97d76dc150e19d991ff1b5fd340dd4fd7e522a659ddf69bcbc729599667aa30536cd85576cc3477495dae10c85b561ca09a06b8f5b138f2ab7e8b9db1202a131cc4dc9899198ce738b7412fe3450db0f7a042a392b2fe3ccc98de64d1de00f520cee9c07341dce80dc77ab43a453c312fd2c0c0",
                "transactions" : [
                    {
                        "data" : "0x785196fdcb5d7e54c4b381e68c7eaeae2735e5537830130057f554672e70a6b867385ea2714ea3185b854bf0b4f9617fb47e6afe9ed4ed68f94b50776420fa24010960ce6b65e2a1ebdce518181d6c69a678989d767fc3d28b6c524f52a87d05519cb32e38fbdc5f801f756922b90c0e2e5bc848bb9c6a5d08ee65470af4fbbeacf87a65c90dc57babd8cdc9819f898551925828bfd360e8a1f1616619d171c23004b0045424cc962e09d8a65d9fd94af9863d61eba97d76dc150e19d991ff1b5fd340dd4fd7e522a659ddf69bcbc729599667aa30536cd85576cc3477495dae10c85b56",
                        "gasLimit" : "0x584d31",
                        "gasPrice" : "0x0a",
                        "nonce" : "0x00",
                        "r" : "0x9a06b8f5b138f2ab7e8b9db1202a131cc4dc9899198ce738b7412fe3450db0f7",
                        "s" : "0x42a392b2fe3ccc98de64d1de00f520cee9c07341dce80dc77ab43a453c312fd2",
                        "sender" : "0xa94f5374fce5edbc8e2a8697c15331677e6ebf0b",
                        "to" : "0xffffffffffffffffffffffffffffffffffffffff",
                        "v" : "0x1c",
                        "value" : "0x5684b90a"
                    }
                ],
                "uncleHeaders" : [
                ],
                "withdrawals" : [
                ]
            }
        ],
        "config" : {
            "blobSchedule" : {
                "Cancun" : {
                    "baseFeeUpdateFraction" : "0x32f0ed",
                    "max" : "0x06",
                    "target" : "0x03"
                }
            },
            "chainid" : "0x01",
            "network" : "Cancun"
        },
        "genesisBlockHeader" : {
            "baseFeePerGas" : "0x0b",
            "blobGasUsed" : "0x00",
            "bloom" : "0x00000000000000000000000000000000000000000000000000000000000000000000000000000000000000000000000000000000000000000000000000000000000000000000000000000000000000000000000000000000000000000000000000000000000000000000000000000000000000000000000000000000000000000000000000000000000000000000000000000000000000000000000000000000000000000000000000000000000000000000000000000000000000000000000000000000000000000000000000000000000000000000000000000000000000000000000000000000000000000000000000000000000000000000000000000000",
            "coinbase" : "0xd94f5374fce5edbc8e2a8697c15331677e6ebf0b",
            "difficulty" : "0x00",
            "excessBlobGas" : "0x060000",
            "extraData" : "0x00",
            "gasLimit" : "0x42fe8c95373ea1",
            "gasUsed" : "0x00",
            "hash" : "0x4b4ade843005cad6ac26b45275a05b89844ec28101d9b61bc7b198ceee76be03",
            "mixHash" : "0x0000000000000000000000000000000000000000000000000000000000020000",
            "nonce" : "0x0000000000000000",
            "number" : "0x00",
            "parentBeaconBlockRoot" : "0x0000000000000000000000000000000000000000000000000000000000000000",
            "parentHash" : "0x0000000000000000000000000000000000000000000000000000000000000000",
            "receiptTrie" : "0x56e81f171bcc55a6ff8345e692c0f86e5b48e01b996cadc001622fb5e363b421",
            "stateRoot" : "0xabd74bbad82f3d77b8458c9e8414e9d3f494394a6466ed68271bc31be1a6b262",
            "timestamp" : "0x00",
            "transactionsTrie" : "0x56e81f171bcc55a6ff8345e692c0f86e5b48e01b996cadc001622fb5e363b421",
            "uncleHash" : "0x1dcc4de8dec75d7aab85b567b6ccd41ad312451b948a7413f0a142fd40d49347",
            "withdrawalsRoot" : "0x56e81f171bcc55a6ff8345e692c0f86e5b48e01b996cadc001622fb5e363b421"
        },
        "genesisRLP" : "0xf90242f9023ca00000000000000000000000000000000000000000000000000000000000000000a01dcc4de8dec75d7aab85b567b6ccd41ad312451b948a7413f0a142fd40d4934794d94f5374fce5edbc8e2a8697c15331677e6ebf0ba0abd74bbad82f3d77b8458c9e8414e9d3f494394a6466ed68271bc31be1a6b262a056e81f171bcc55a6ff8345e692c0f86e5b48e01b996cadc001622fb5e363b421a056e81f171bcc55a6ff8345e692c0f86e5b48e01b996cadc001622fb5e363b421b901000000000000000000000000000000000000000000000000000000000000000000000000000000000000000000000000000000000000000000000000000000000000000000000000000000000000000000000000000000000000000000000000000000000000000000000000000000000000000000000000000000000000000000000000000000000000000000000000000000000000000000000000000000000000000000000000000000000000000000000000000000000000000000000000000000000000000000000000000000000000000000000000000000000000000000000000000000000000000000000000000000000000000000000000000000000080808742fe8c95373ea1808000a000000000000000000000000000000000000000000000000000000000000200008800000000000000000ba056e81f171bcc55a6ff8345e692c0f86e5b48e01b996cadc001622fb5e363b4218083060000a00000000000000000000000000000000000000000000000000000000000000000c0c0c0",
        "lastblockhash" : "0x59f8c4198f45c1e3f825968683a20032ea0768dcb764dd1341da20675acdbb5e",
        "network" : "Cancun",
        "postState" : {
            "0x000f3df6d732807ef1319fb7b8bb8522d0beac02" : {
                "balance" : "0x00",
                "code" : "0x3373fffffffffffffffffffffffffffffffffffffffe14604d57602036146024575f5ffd5b5f35801560495762001fff810690815414603c575f5ffd5b62001fff01545f5260205ff35b5f5ffd5b62001fff42064281555f359062001fff015500",
                "nonce" : "0x01",
                "storage" : {
                    "0x03e8" : "0x03e8"
                }
            },
            "0xa94f5374fce5edbc8e2a8697c15331677e6ebf0b" : {
                "balance" : "0x54465ef1c3f65ea1",
                "code" : "0x",
                "nonce" : "0x01",
                "storage" : {
                }
            },
            "0xc94f5374fce5edbc8e2a8697c15331677e6ebf0b" : {
                "balance" : "0x33888d4ce6b934",
                "code" : "0x",
                "nonce" : "0x07",
                "storage" : {
                }
            },
            "0xffffffffffffffffffffffffffffffffffffffff" : {
                "balance" : "0xd61773f0c27b842f",
                "code" : "0x64ba8b878e0154689b908f27acb42e5269603972609834bf9a7e578e45609242172907dd75a92555656c5aa6e9248162013ffa6203864863446d325df0336d2c38cfa2f1cdf8cb623c0591987419",
                "nonce" : "0x1c",
                "storage" : {
                }
            }
        },
        "pre" : {
            "0x000f3df6d732807ef1319fb7b8bb8522d0beac02" : {
                "balance" : "0x00",
                "code" : "0x3373fffffffffffffffffffffffffffffffffffffffe14604d57602036146024575f5ffd5b5f35801560495762001fff810690815414603c575f5ffd5b62001fff01545f5260205ff35b5f5ffd5b62001fff42064281555f359062001fff015500",
                "nonce" : "0x01",
                "storage" : {
                }
            },
            "0xa94f5374fce5edbc8e2a8697c15331677e6ebf0b" : {
                "balance" : "0x54465ef1c769628b",
                "code" : "0x",
                "nonce" : "0x00",
                "storage" : {
                }
            },
            "0xc94f5374fce5edbc8e2a8697c15331677e6ebf0b" : {
                "balance" : "0x33888d4ce6b934",
                "code" : "0x",
                "nonce" : "0x07",
                "storage" : {
                }
            },
            "0xffffffffffffffffffffffffffffffffffffffff" : {
                "balance" : "0xd61773f0c27b842f",
                "code" : "0x64ba8b878e0154689b908f27acb42e5269603972609834bf9a7e578e45609242172907dd75a92555656c5aa6e9248162013ffa6203864863446d325df0336d2c38cfa2f1cdf8cb623c0591987419",
                "nonce" : "0x1c",
                "storage" : {
                }
            }
        },
        "sealEngine" : "NoProof"
    },
    "randomStatetest646_d0g0v0_Prague" : {
        "_info" : {
            "comment" : "Geth Failed this test on all networks",
            "filling-rpc-server" : "evmone-t8n 0.14.0-13+commit.4d363c36",
            "filling-tool-version" : "retesteth-0.3.2-legacy+commit.ca7f4c79.Linux.g++",
            "fixture-format" : "blockchain_test",
            "generatedTestHash" : "31a47fd0f73e0695f73684760ac1154c5cfe9cad6539fd54ab5434827cde7f78",
            "lllcversion" : "Version: 0.5.14-develop.2024.11.5+commit.b2b86751.mod.Linux.g++",
            "solidity" : "Version: 0.8.24+commit.e11b9ed9.Linux.g++",
            "source" : "src/GeneralStateTestsFiller/stRandom2/randomStatetest646Filler.json",
            "sourceHash" : "50ce8509ca6aca93611045a5671f0b0088b3478686eb4361faf239fe3e003d32"
        },
        "blocks" : [
            {
                "blockHeader" : {
                    "baseFeePerGas" : "0x0a",
                    "blobGasUsed" : "0x00",
                    "bloom" : "0x00000000000000000000000000000000000000000000000000000000000000000000000000000000000000000000000000000000000000000000000000000000000000000000000000000000000000000000000000000000000000000000000000000000000000000000000000000000000000000000000000000000000000000000000000000000000000000000000000000000000000000000000000000000000000000000000000000000000000000000000000000000000000000000000000000000000000000000000000000000000000000000000000000000000000000000000000000000000000000000000000000000000000000000000000000000",
                    "coinbase" : "0xd94f5374fce5edbc8e2a8697c15331677e6ebf0b",
                    "difficulty" : "0x00",
                    "excessBlobGas" : "0x00",
                    "extraData" : "0x00",
                    "gasLimit" : "0x42fe8c95373ea1",
                    "gasUsed" : "0x584d31",
                    "hash" : "0x7267361d1a3fe2374a9b07eb581dda734f0f23388377a4cf85900f2bc4a83238",
                    "mixHash" : "0x0000000000000000000000000000000000000000000000000000000000020000",
                    "nonce" : "0x0000000000000000",
                    "number" : "0x01",
                    "parentBeaconBlockRoot" : "0x0000000000000000000000000000000000000000000000000000000000000000",
                    "parentHash" : "0xe5f5772b7b066fe455410fde76632aaddbf6118f0fc516a0e6bdde78a2d965a6",
                    "receiptTrie" : "0x53077ec6f582974cc36542550f228b891d4fa732272a6984075dd3eaef9a432a",
                    "requestsHash" : "0xe3b0c44298fc1c149afbf4c8996fb92427ae41e4649b934ca495991b7852b855",
                    "stateRoot" : "0x6f90567ef86a8a5c38bf03094203d626c46f1a872684c5102ef5c3556f515e60",
                    "timestamp" : "0x03e8",
                    "transactionsTrie" : "0x7756fdad04fcb7e0bd41cf411aefd1d08b84bba38c9d826bc661692d8183b81f",
                    "uncleHash" : "0x1dcc4de8dec75d7aab85b567b6ccd41ad312451b948a7413f0a142fd40d49347",
                    "withdrawalsRoot" : "0x56e81f171bcc55a6ff8345e692c0f86e5b48e01b996cadc001622fb5e363b421"
                },
                "rlp" : "0xf903b3f9025fa0e5f5772b7b066fe455410fde76632aaddbf6118f0fc516a0e6bdde78a2d965a6a01dcc4de8dec75d7aab85b567b6ccd41ad312451b948a7413f0a142fd40d4934794d94f5374fce5edbc8e2a8697c15331677e6ebf0ba06f90567ef86a8a5c38bf03094203d626c46f1a872684c5102ef5c3556f515e60a07756fdad04fcb7e0bd41cf411aefd1d08b84bba38c9d826bc661692d8183b81fa053077ec6f582974cc36542550f228b891d4fa732272a6984075dd3eaef9a432ab901000000000000000000000000000000000000000000000000000000000000000000000000000000000000000000000000000000000000000000000000000000000000000000000000000000000000000000000000000000000000000000000000000000000000000000000000000000000000000000000000000000000000000000000000000000000000000000000000000000000000000000000000000000000000000000000000000000000000000000000000000000000000000000000000000000000000000000000000000000000000000000000000000000000000000000000000000000000000000000000000000000000000000000000000000000000080018742fe8c95373ea183584d318203e800a000000000000000000000000000000000000000000000000000000000000200008800000000000000000aa056e81f171bcc55a6ff8345e692c0f86e5b48e01b996cadc001622fb5e363b4218080a00000000000000000000000000000000000000000000000000000000000000000a0e3b0c44298fc1c149afbf4c8996fb92427ae41e4649b934ca495991b7852b855f9014cf90149800a83584d3194ffffffffffffffffffffffffffffffffffffffff845684b90ab8e4785196fdcb5d7e54c4b381e68c7eaeae2735e5537830130057f554672e70a6b867385ea2714ea3185b854bf0b4f9617fb47e6afe9ed4ed68f94b50776420fa24010960ce6b65e2a1ebdce518181d6c69a678989d767fc3d28b6c524f52a87d05519cb32e38fbdc5f801f756922b90c0e2e5bc848bb9c6a5d08ee65470af4fbbeacf87a65c90dc57babd8cdc9819f898551925828bfd360e8a1f1616619d171c23004b0045424cc962e09d8a65d9fd94af9863d61eba97d76dc150e19d991ff1b5fd340dd4fd7e522a659ddf69bcbc729599667aa30536cd85576cc3477495dae10c85b561ca09a06b8f5b138f2ab7e8b9db1202a131cc4dc9899198ce738b7412fe3450db0f7a042a392b2fe3ccc98de64d1de00f520cee9c07341dce80dc77ab43a453c312fd2c0c0",
                "transactions" : [
                    {
                        "data" : "0x785196fdcb5d7e54c4b381e68c7eaeae2735e5537830130057f554672e70a6b867385ea2714ea3185b854bf0b4f9617fb47e6afe9ed4ed68f94b50776420fa24010960ce6b65e2a1ebdce518181d6c69a678989d767fc3d28b6c524f52a87d05519cb32e38fbdc5f801f756922b90c0e2e5bc848bb9c6a5d08ee65470af4fbbeacf87a65c90dc57babd8cdc9819f898551925828bfd360e8a1f1616619d171c23004b0045424cc962e09d8a65d9fd94af9863d61eba97d76dc150e19d991ff1b5fd340dd4fd7e522a659ddf69bcbc729599667aa30536cd85576cc3477495dae10c85b56",
                        "gasLimit" : "0x584d31",
                        "gasPrice" : "0x0a",
                        "nonce" : "0x00",
                        "r" : "0x9a06b8f5b138f2ab7e8b9db1202a131cc4dc9899198ce738b7412fe3450db0f7",
                        "s" : "0x42a392b2fe3ccc98de64d1de00f520cee9c07341dce80dc77ab43a453c312fd2",
                        "sender" : "0xa94f5374fce5edbc8e2a8697c15331677e6ebf0b",
                        "to" : "0xffffffffffffffffffffffffffffffffffffffff",
                        "v" : "0x1c",
                        "value" : "0x5684b90a"
                    }
                ],
                "uncleHeaders" : [
                ],
                "withdrawals" : [
                ]
            }
        ],
        "config" : {
            "blobSchedule" : {
                "Prague" : {
                    "baseFeeUpdateFraction" : "0x4c6964",
                    "max" : "0x09",
                    "target" : "0x06"
                }
            },
            "chainid" : "0x01",
            "network" : "Prague"
        },
        "genesisBlockHeader" : {
            "baseFeePerGas" : "0x0b",
            "blobGasUsed" : "0x00",
            "bloom" : "0x00000000000000000000000000000000000000000000000000000000000000000000000000000000000000000000000000000000000000000000000000000000000000000000000000000000000000000000000000000000000000000000000000000000000000000000000000000000000000000000000000000000000000000000000000000000000000000000000000000000000000000000000000000000000000000000000000000000000000000000000000000000000000000000000000000000000000000000000000000000000000000000000000000000000000000000000000000000000000000000000000000000000000000000000000000000",
            "coinbase" : "0xd94f5374fce5edbc8e2a8697c15331677e6ebf0b",
            "difficulty" : "0x00",
            "excessBlobGas" : "0x060000",
            "extraData" : "0x00",
            "gasLimit" : "0x42fe8c95373ea1",
            "gasUsed" : "0x00",
            "hash" : "0xe5f5772b7b066fe455410fde76632aaddbf6118f0fc516a0e6bdde78a2d965a6",
            "mixHash" : "0x0000000000000000000000000000000000000000000000000000000000020000",
            "nonce" : "0x0000000000000000",
            "number" : "0x00",
            "parentBeaconBlockRoot" : "0x0000000000000000000000000000000000000000000000000000000000000000",
            "parentHash" : "0x0000000000000000000000000000000000000000000000000000000000000000",
            "receiptTrie" : "0x56e81f171bcc55a6ff8345e692c0f86e5b48e01b996cadc001622fb5e363b421",
            "requestsHash" : "0xe3b0c44298fc1c149afbf4c8996fb92427ae41e4649b934ca495991b7852b855",
            "stateRoot" : "0x549621665575b47ecdd6b4a7fc0032043ecf419a9a2cfcf59d66e0ae9f59b426",
            "timestamp" : "0x00",
            "transactionsTrie" : "0x56e81f171bcc55a6ff8345e692c0f86e5b48e01b996cadc001622fb5e363b421",
            "uncleHash" : "0x1dcc4de8dec75d7aab85b567b6ccd41ad312451b948a7413f0a142fd40d49347",
            "withdrawalsRoot" : "0x56e81f171bcc55a6ff8345e692c0f86e5b48e01b996cadc001622fb5e363b421"
        },
        "genesisRLP" : "0xf90263f9025da00000000000000000000000000000000000000000000000000000000000000000a01dcc4de8dec75d7aab85b567b6ccd41ad312451b948a7413f0a142fd40d4934794d94f5374fce5edbc8e2a8697c15331677e6ebf0ba0549621665575b47ecdd6b4a7fc0032043ecf419a9a2cfcf59d66e0ae9f59b426a056e81f171bcc55a6ff8345e692c0f86e5b48e01b996cadc001622fb5e363b421a056e81f171bcc55a6ff8345e692c0f86e5b48e01b996cadc001622fb5e363b421b901000000000000000000000000000000000000000000000000000000000000000000000000000000000000000000000000000000000000000000000000000000000000000000000000000000000000000000000000000000000000000000000000000000000000000000000000000000000000000000000000000000000000000000000000000000000000000000000000000000000000000000000000000000000000000000000000000000000000000000000000000000000000000000000000000000000000000000000000000000000000000000000000000000000000000000000000000000000000000000000000000000000000000000000000000000000080808742fe8c95373ea1808000a000000000000000000000000000000000000000000000000000000000000200008800000000000000000ba056e81f171bcc55a6ff8345e692c0f86e5b48e01b996cadc001622fb5e363b4218083060000a00000000000000000000000000000000000000000000000000000000000000000a0e3b0c44298fc1c149afbf4c8996fb92427ae41e4649b934ca495991b7852b855c0c0c0",
        "lastblockhash" : "0x7267361d1a3fe2374a9b07eb581dda734f0f23388377a4cf85900f2bc4a83238",
        "network" : "Prague",
        "postState" : {
            "0x0000f90827f1c53a10cb7a02335b175320002935" : {
                "balance" : "0x00",
                "code" : "0x3373fffffffffffffffffffffffffffffffffffffffe14604657602036036042575f35600143038111604257611fff81430311604257611fff9006545f5260205ff35b5f5ffd5b5f35611fff60014303065500",
                "nonce" : "0x01",
                "storage" : {
                    "0x00" : "0xe5f5772b7b066fe455410fde76632aaddbf6118f0fc516a0e6bdde78a2d965a6"
                }
            },
            "0x000f3df6d732807ef1319fb7b8bb8522d0beac02" : {
                "balance" : "0x00",
                "code" : "0x3373fffffffffffffffffffffffffffffffffffffffe14604d57602036146024575f5ffd5b5f35801560495762001fff810690815414603c575f5ffd5b62001fff01545f5260205ff35b5f5ffd5b62001fff42064281555f359062001fff015500",
                "nonce" : "0x01",
                "storage" : {
                    "0x03e8" : "0x03e8"
                }
            },
            "0xa94f5374fce5edbc8e2a8697c15331677e6ebf0b" : {
                "balance" : "0x54465ef1c3f65ea1",
                "code" : "0x",
                "nonce" : "0x01",
                "storage" : {
                }
            },
            "0xc94f5374fce5edbc8e2a8697c15331677e6ebf0b" : {
                "balance" : "0x33888d4ce6b934",
                "code" : "0x",
                "nonce" : "0x07",
                "storage" : {
                }
            },
            "0xffffffffffffffffffffffffffffffffffffffff" : {
                "balance" : "0xd61773f0c27b842f",
                "code" : "0x64ba8b878e0154689b908f27acb42e5269603972609834bf9a7e578e45609242172907dd75a92555656c5aa6e9248162013ffa6203864863446d325df0336d2c38cfa2f1cdf8cb623c0591987419",
                "nonce" : "0x1c",
                "storage" : {
                }
            }
        },
        "pre" : {
            "0x0000f90827f1c53a10cb7a02335b175320002935" : {
                "balance" : "0x00",
                "code" : "0x3373fffffffffffffffffffffffffffffffffffffffe14604657602036036042575f35600143038111604257611fff81430311604257611fff9006545f5260205ff35b5f5ffd5b5f35611fff60014303065500",
                "nonce" : "0x01",
                "storage" : {
                }
            },
            "0x000f3df6d732807ef1319fb7b8bb8522d0beac02" : {
                "balance" : "0x00",
                "code" : "0x3373fffffffffffffffffffffffffffffffffffffffe14604d57602036146024575f5ffd5b5f35801560495762001fff810690815414603c575f5ffd5b62001fff01545f5260205ff35b5f5ffd5b62001fff42064281555f359062001fff015500",
                "nonce" : "0x01",
                "storage" : {
                }
            },
            "0xa94f5374fce5edbc8e2a8697c15331677e6ebf0b" : {
                "balance" : "0x54465ef1c769628b",
                "code" : "0x",
                "nonce" : "0x00",
                "storage" : {
                }
            },
            "0xc94f5374fce5edbc8e2a8697c15331677e6ebf0b" : {
                "balance" : "0x33888d4ce6b934",
                "code" : "0x",
                "nonce" : "0x07",
                "storage" : {
                }
            },
            "0xffffffffffffffffffffffffffffffffffffffff" : {
                "balance" : "0xd61773f0c27b842f",
                "code" : "0x64ba8b878e0154689b908f27acb42e5269603972609834bf9a7e578e45609242172907dd75a92555656c5aa6e9248162013ffa6203864863446d325df0336d2c38cfa2f1cdf8cb623c0591987419",
                "nonce" : "0x1c",
                "storage" : {
                }
            }
        },
        "sealEngine" : "NoProof"
    }
}