{
    "randomStatetest642_d0g0v0_Cancun" : {
        "_info" : {
            "comment" : "",
            "filling-rpc-server" : "evmone-t8n 0.14.0-13+commit.4d363c36",
            "filling-tool-version" : "retesteth-0.3.2-legacy+commit.ca7f4c79.Linux.g++",
            "fixture-format" : "blockchain_test",
            "generatedTestHash" : "5321ecd2cdaa257119fb2df5b02cec4aece4190c2d3e4b2d3dacf7eabfb3b63b",
            "lllcversion" : "Version: 0.5.14-develop.2024.11.5+commit.b2b86751.mod.Linux.g++",
            "hyperion" : "Version: 0.8.24+commit.e11b9ed9.Linux.g++",
            "source" : "src/GeneralStateTestsFiller/stRandom2/randomStatetest642Filler.json",
            "sourceHash" : "613b220cac1c0e67d6161faf54f79239a9776d444d8b233249eef90324c0f775"
        },
        "blocks" : [
            {
                "blockHeader" : {
                    "baseFeePerGas" : "0x0a",
                    "bloom" : "0x00000000000000000000000000000000000000000000000000000000000000000000000000000000000000000000000000000000000000000000000000000000000000000000000000000000000000000000000000000000000000000000000000000000000000000000000000000000000000000000000000000000000000000000000000000000000000000000000000000000000000000000000000000000000000000000000000000000000000000000000000000000000000000000000000000000000000000000000000000000000000000000000000000000000000000000000000000000000000000000000000000000000000000000000000000000",
                    "coinbase" : "Za94f5374fce5edbc8e2a8697c15331677e6ebf0b",
                    "extraData" : "0x00",
                    "gasLimit" : "0x406fbe7b1f887c",
                    "gasUsed" : "0x4ac88d",
                    "hash" : "0xf463d46055603d74ba4223c035ac1ca6a06c4f20aa48b6828fb2a0f1e588f52c",
                    "mixHash" : "0x0000000000000000000000000000000000000000000000000000000000020000",
                    "nonce" : "0x0000000000000000",
                    "number" : "0x01",
                    "parentHash" : "0x303f36db493da127f3ca97ee604e1b40cdacd1584d91ff54c4ef348c43f46219",
                    "receiptTrie" : "0xcee336bc137cc894b7d225d6ae9c37338f0a677188e3c111f81d5e058c1883b1",
                    "stateRoot" : "0x1f2f3fc28aa45b767738884988f31ea10813ba1a16382b4c847044e34848212c",
                    "timestamp" : "0x03e8",
                    "transactionsTrie" : "0xe30525b75f5b19a4f8435cbe00791c0f80d1e13edb9362f166dd8c4d6f4da3e5",
                    "withdrawalsRoot" : "0x56e81f171bcc55a6ff8345e692c0f86e5b48e01b996cadc001622fb5e363b421"
                },
                "rlp" : "0xf90429f9023ea0303f36db493da127f3ca97ee604e1b40cdacd1584d91ff54c4ef348c43f46219a01dcc4de8dec75d7aab85b567b6ccd41ad312451b948a7413f0a142fd40d4934794a94f5374fce5edbc8e2a8697c15331677e6ebf0ba01f2f3fc28aa45b767738884988f31ea10813ba1a16382b4c847044e34848212ca0e30525b75f5b19a4f8435cbe00791c0f80d1e13edb9362f166dd8c4d6f4da3e5a0cee336bc137cc894b7d225d6ae9c37338f0a677188e3c111f81d5e058c1883b1b9010000000000000000000000000000000000000000000000000000000000000000000000000000000000000000000000000000000000000000000000000000000000000000000000000000000000000000000000000000000000000000000000000000000000000000000000000000000000000000000000000000000000000000000000000000000000000000000000000000000000000000000000000000000000000000000000000000000000000000000000000000000000000000000000000000000000000000000000000000000000000000000000000000000000000000000000000000000000000000000000000000000000000000000000000000000000800187406fbe7b1f887c834ac88d8203e800a000000000000000000000000000000000000000000000000000000000000200008800000000000000000aa056e81f171bcc55a6ff8345e692c0f86e5b48e01b996cadc001622fb5e363b4218080a00000000000000000000000000000000000000000000000000000000000000000f901e3f901e0800a834ac88d94000000000000000000000000000000000000000784f5e5cc4bb9017a73ac858c3531a0d29ea7a15dfca264e244056b35816eb2fa5e8b941bb7e03e269017ca7b29556e2c50a4525c68460af5ba912653059274ec9907faed7f4ceacf55ed7b50228e7e26e7113d6751750964de40c9f5bb9f378e19edc3fd6ffd6af7ee7710107f382df318b8e1c707719add3db4b00892ddfba9f3e970c8aa9b41f208c53bf041556585635e6534916c5ec0ba7162ea7979164bb27d007c198e1e50cb945b54a4dca4ac110de1a1d47f43fa61c9a6e916d30c3e89695e77cb0da0bcea3bd98260927c609b5782488c5d7e06f07fc67aa5f1cb3c2d7ee74a4054d94e0108b3c962a00fb567a505e96a974f83567a74b898ddd6136e1e6634e4c85cb37db14f98d0080ac548e092928b6eee8d6863592d990f9298d7040cfa486e4e881b0f19eb06892d2185cc0b295d7f2669f00ac67c30de107cd324610a5af8bb29d11354783888e7b8ba5ab533f959729b6e25886d426bbf4cd00626cffbc0ec6beb6a62ae0d9e7166a6303d22036c2b3d45e88057940ada00938e1ca051b0348078c8c9c2e6f53dc4169db5fca6a8a0521b5f0dff29767dce479a2548a04335b431f4d20a09c7cecb7ba7a7657a24619630058f89db4a07c309c1c02dfcc0c0",
                "transactions" : [
                    {
                        "data" : "0x73ac858c3531a0d29ea7a15dfca264e244056b35816eb2fa5e8b941bb7e03e269017ca7b29556e2c50a4525c68460af5ba912653059274ec9907faed7f4ceacf55ed7b50228e7e26e7113d6751750964de40c9f5bb9f378e19edc3fd6ffd6af7ee7710107f382df318b8e1c707719add3db4b00892ddfba9f3e970c8aa9b41f208c53bf041556585635e6534916c5ec0ba7162ea7979164bb27d007c198e1e50cb945b54a4dca4ac110de1a1d47f43fa61c9a6e916d30c3e89695e77cb0da0bcea3bd98260927c609b5782488c5d7e06f07fc67aa5f1cb3c2d7ee74a4054d94e0108b3c962a00fb567a505e96a974f83567a74b898ddd6136e1e6634e4c85cb37db14f98d0080ac548e092928b6eee8d6863592d990f9298d7040cfa486e4e881b0f19eb06892d2185cc0b295d7f2669f00ac67c30de107cd324610a5af8bb29d11354783888e7b8ba5ab533f959729b6e25886d426bbf4cd00626cffbc0ec6beb6a62ae0d9e7166a6303d22036c2b3d45e88057940ada00938e",
                        "gasLimit" : "0x4ac88d",
                        "gasPrice" : "0x0a",
                        "nonce" : "0x00",
                        "signature" : "0x51b0348078c8c9c2e6f53dc4169db5fca6a8a0521b5f0dff29767dce479a2548",
                        "s" : "0x4335b431f4d20a09c7cecb7ba7a7657a24619630058f89db4a07c309c1c02dfc",
                        "sender" : "Za94f5374fce5edbc8e2a8697c15331677e6ebf0b",
                        "to" : "0x0000000000000000000000000000000000000007",
                        "v" : "0x1c",
                        "value" : "0xf5e5cc4b"
                    }
                ],
                "uncleHeaders" : [
                ],
                "withdrawals" : [
                ]
            }
        ],
        "config" : {
            "blobSchedule" : {
                "Cancun" : {
                    "baseFeeUpdateFraction" : "0x32f0ed",
                    "max" : "0x06",
                    "target" : "0x03"
                }
            },
            "chainid" : "0x01",
            "network" : "Cancun"
        },
        "genesisBlockHeader" : {
            "baseFeePerGas" : "0x0b",
            "bloom" : "0x00000000000000000000000000000000000000000000000000000000000000000000000000000000000000000000000000000000000000000000000000000000000000000000000000000000000000000000000000000000000000000000000000000000000000000000000000000000000000000000000000000000000000000000000000000000000000000000000000000000000000000000000000000000000000000000000000000000000000000000000000000000000000000000000000000000000000000000000000000000000000000000000000000000000000000000000000000000000000000000000000000000000000000000000000000000",
            "coinbase" : "Za94f5374fce5edbc8e2a8697c15331677e6ebf0b",
            "extraData" : "0x00",
            "gasLimit" : "0x406fbe7b1f887c",
            "gasUsed" : "0x00",
            "hash" : "0x303f36db493da127f3ca97ee604e1b40cdacd1584d91ff54c4ef348c43f46219",
            "mixHash" : "0x0000000000000000000000000000000000000000000000000000000000020000",
            "nonce" : "0x0000000000000000",
            "number" : "0x00",
            "parentHash" : "0x0000000000000000000000000000000000000000000000000000000000000000",
            "receiptTrie" : "0x56e81f171bcc55a6ff8345e692c0f86e5b48e01b996cadc001622fb5e363b421",
            "stateRoot" : "0xc445849e00213e11f607a97b6116be1ab99ce2a98c0b6802efa7c09162662ecb",
            "timestamp" : "0x00",
            "transactionsTrie" : "0x56e81f171bcc55a6ff8345e692c0f86e5b48e01b996cadc001622fb5e363b421",
            "withdrawalsRoot" : "0x56e81f171bcc55a6ff8345e692c0f86e5b48e01b996cadc001622fb5e363b421"
        },
        "genesisRLP" : "0xf90242f9023ca00000000000000000000000000000000000000000000000000000000000000000a01dcc4de8dec75d7aab85b567b6ccd41ad312451b948a7413f0a142fd40d4934794a94f5374fce5edbc8e2a8697c15331677e6ebf0ba0c445849e00213e11f607a97b6116be1ab99ce2a98c0b6802efa7c09162662ecba056e81f171bcc55a6ff8345e692c0f86e5b48e01b996cadc001622fb5e363b421a056e81f171bcc55a6ff8345e692c0f86e5b48e01b996cadc001622fb5e363b421b9010000000000000000000000000000000000000000000000000000000000000000000000000000000000000000000000000000000000000000000000000000000000000000000000000000000000000000000000000000000000000000000000000000000000000000000000000000000000000000000000000000000000000000000000000000000000000000000000000000000000000000000000000000000000000000000000000000000000000000000000000000000000000000000000000000000000000000000000000000000000000000000000000000000000000000000000000000000000000000000000000000000000000000000000000000000000808087406fbe7b1f887c808000a000000000000000000000000000000000000000000000000000000000000200008800000000000000000ba056e81f171bcc55a6ff8345e692c0f86e5b48e01b996cadc001622fb5e363b4218083060000a00000000000000000000000000000000000000000000000000000000000000000c0c0c0",
        "lastblockhash" : "0xf463d46055603d74ba4223c035ac1ca6a06c4f20aa48b6828fb2a0f1e588f52c",
        "network" : "Cancun",
        "postState" : {
            "0x000f3df6d732807ef1319fb7b8bb8522d0beac02" : {
                "balance" : "0x00",
                "code" : "0x3373fffffffffffffffffffffffffffffffffffffffe14604d57602036146024575f5ffd5b5f35801560495762001fff810690815414603c575f5ffd5b62001fff01545f5260205ff35b5f5ffd5b62001fff42064281555f359062001fff015500",
                "nonce" : "0x01",
                "storage" : {
                    "0x03e8" : "0x03e8"
                }
            },
            "0xa94f5374fce5edbc8e2a8697c15331677e6ebf0b" : {
                "balance" : "0x26551a6969c0dc84",
                "code" : "0x",
                "nonce" : "0x01",
                "storage" : {
                }
            },
            "0xb94f5374fce5edbc8e2a8697c15331677e6ebf0b" : {
                "balance" : "0x577686e8d1344340",
                "code" : "0x62f46a4f547b169c9edf92f4b39273fe47accc75d1209ae58463c2585607ce051ff6714c4f0fbf6de0659784434fb240652ff52d08576408f168a43a6651f765a4788a05537086290691d5a3239db43eefea96b0012ea26534e99e4ba9ee7f92f37fa731707f800683bafb70815757d861ad8cc6804154ce5b9de3146b58cd53",
                "nonce" : "0x70",
                "storage" : {
                }
            },
            "0xc94f5374fce5edbc8e2a8697c15331677e6ebf0b" : {
                "balance" : "0x11bae0bb79d6a164",
                "code" : "0x",
                "nonce" : "0xa3",
                "storage" : {
                }
            }
        },
        "pre" : {
            "0x000f3df6d732807ef1319fb7b8bb8522d0beac02" : {
                "balance" : "0x00",
                "code" : "0x3373fffffffffffffffffffffffffffffffffffffffe14604d57602036146024575f5ffd5b5f35801560495762001fff810690815414603c575f5ffd5b62001fff01545f5260205ff35b5f5ffd5b62001fff42064281555f359062001fff015500",
                "nonce" : "0x01",
                "storage" : {
                }
            },
            "0xa94f5374fce5edbc8e2a8697c15331677e6ebf0b" : {
                "balance" : "0x26551a696cacb206",
                "code" : "0x",
                "nonce" : "0x00",
                "storage" : {
                }
            },
            "0xb94f5374fce5edbc8e2a8697c15331677e6ebf0b" : {
                "balance" : "0x577686e8d1344340",
                "code" : "0x62f46a4f547b169c9edf92f4b39273fe47accc75d1209ae58463c2585607ce051ff6714c4f0fbf6de0659784434fb240652ff52d08576408f168a43a6651f765a4788a05537086290691d5a3239db43eefea96b0012ea26534e99e4ba9ee7f92f37fa731707f800683bafb70815757d861ad8cc6804154ce5b9de3146b58cd53",
                "nonce" : "0x70",
                "storage" : {
                }
            },
            "0xc94f5374fce5edbc8e2a8697c15331677e6ebf0b" : {
                "balance" : "0x11bae0bb79d6a164",
                "code" : "0x",
                "nonce" : "0xa3",
                "storage" : {
                }
            }
        },
        "sealEngine" : "NoProof"
    },
    "randomStatetest642_d0g0v0_Prague" : {
        "_info" : {
            "comment" : "",
            "filling-rpc-server" : "evmone-t8n 0.14.0-13+commit.4d363c36",
            "filling-tool-version" : "retesteth-0.3.2-legacy+commit.ca7f4c79.Linux.g++",
            "fixture-format" : "blockchain_test",
            "generatedTestHash" : "6f94512ed012cd539619ccf5fbcec46452e9c3bb1e70a8b9a654cebe04b3b9ff",
            "lllcversion" : "Version: 0.5.14-develop.2024.11.5+commit.b2b86751.mod.Linux.g++",
            "hyperion" : "Version: 0.8.24+commit.e11b9ed9.Linux.g++",
            "source" : "src/GeneralStateTestsFiller/stRandom2/randomStatetest642Filler.json",
            "sourceHash" : "613b220cac1c0e67d6161faf54f79239a9776d444d8b233249eef90324c0f775"
        },
        "blocks" : [
            {
                "blockHeader" : {
                    "baseFeePerGas" : "0x0a",
                    "bloom" : "0x00000000000000000000000000000000000000000000000000000000000000000000000000000000000000000000000000000000000000000000000000000000000000000000000000000000000000000000000000000000000000000000000000000000000000000000000000000000000000000000000000000000000000000000000000000000000000000000000000000000000000000000000000000000000000000000000000000000000000000000000000000000000000000000000000000000000000000000000000000000000000000000000000000000000000000000000000000000000000000000000000000000000000000000000000000000",
                    "coinbase" : "Za94f5374fce5edbc8e2a8697c15331677e6ebf0b",
                    "extraData" : "0x00",
                    "gasLimit" : "0x406fbe7b1f887c",
                    "gasUsed" : "0x4ac88d",
                    "hash" : "0x1569ffa0b6522a595d93a97ef775aa86d86cb88d290d83a75599425227f8465e",
                    "mixHash" : "0x0000000000000000000000000000000000000000000000000000000000020000",
                    "nonce" : "0x0000000000000000",
                    "number" : "0x01",
                    "parentHash" : "0x8413768449c4ad999ec43d09499246f8c2e76c4e2291ffe93cf669831a936f45",
                    "receiptTrie" : "0xcee336bc137cc894b7d225d6ae9c37338f0a677188e3c111f81d5e058c1883b1",
                    "requestsHash" : "0xe3b0c44298fc1c149afbf4c8996fb92427ae41e4649b934ca495991b7852b855",
                    "stateRoot" : "0xfc98ff60a8d26f9fe339d370148bfd379e6b3c737cbf37892bf3fbb95dc5a826",
                    "timestamp" : "0x03e8",
                    "transactionsTrie" : "0xe30525b75f5b19a4f8435cbe00791c0f80d1e13edb9362f166dd8c4d6f4da3e5",
                    "withdrawalsRoot" : "0x56e81f171bcc55a6ff8345e692c0f86e5b48e01b996cadc001622fb5e363b421"
                },
                "rlp" : "0xf9044af9025fa08413768449c4ad999ec43d09499246f8c2e76c4e2291ffe93cf669831a936f45a01dcc4de8dec75d7aab85b567b6ccd41ad312451b948a7413f0a142fd40d4934794a94f5374fce5edbc8e2a8697c15331677e6ebf0ba0fc98ff60a8d26f9fe339d370148bfd379e6b3c737cbf37892bf3fbb95dc5a826a0e30525b75f5b19a4f8435cbe00791c0f80d1e13edb9362f166dd8c4d6f4da3e5a0cee336bc137cc894b7d225d6ae9c37338f0a677188e3c111f81d5e058c1883b1b9010000000000000000000000000000000000000000000000000000000000000000000000000000000000000000000000000000000000000000000000000000000000000000000000000000000000000000000000000000000000000000000000000000000000000000000000000000000000000000000000000000000000000000000000000000000000000000000000000000000000000000000000000000000000000000000000000000000000000000000000000000000000000000000000000000000000000000000000000000000000000000000000000000000000000000000000000000000000000000000000000000000000000000000000000000000000800187406fbe7b1f887c834ac88d8203e800a000000000000000000000000000000000000000000000000000000000000200008800000000000000000aa056e81f171bcc55a6ff8345e692c0f86e5b48e01b996cadc001622fb5e363b4218080a00000000000000000000000000000000000000000000000000000000000000000a0e3b0c44298fc1c149afbf4c8996fb92427ae41e4649b934ca495991b7852b855f901e3f901e0800a834ac88d94000000000000000000000000000000000000000784f5e5cc4bb9017a73ac858c3531a0d29ea7a15dfca264e244056b35816eb2fa5e8b941bb7e03e269017ca7b29556e2c50a4525c68460af5ba912653059274ec9907faed7f4ceacf55ed7b50228e7e26e7113d6751750964de40c9f5bb9f378e19edc3fd6ffd6af7ee7710107f382df318b8e1c707719add3db4b00892ddfba9f3e970c8aa9b41f208c53bf041556585635e6534916c5ec0ba7162ea7979164bb27d007c198e1e50cb945b54a4dca4ac110de1a1d47f43fa61c9a6e916d30c3e89695e77cb0da0bcea3bd98260927c609b5782488c5d7e06f07fc67aa5f1cb3c2d7ee74a4054d94e0108b3c962a00fb567a505e96a974f83567a74b898ddd6136e1e6634e4c85cb37db14f98d0080ac548e092928b6eee8d6863592d990f9298d7040cfa486e4e881b0f19eb06892d2185cc0b295d7f2669f00ac67c30de107cd324610a5af8bb29d11354783888e7b8ba5ab533f959729b6e25886d426bbf4cd00626cffbc0ec6beb6a62ae0d9e7166a6303d22036c2b3d45e88057940ada00938e1ca051b0348078c8c9c2e6f53dc4169db5fca6a8a0521b5f0dff29767dce479a2548a04335b431f4d20a09c7cecb7ba7a7657a24619630058f89db4a07c309c1c02dfcc0c0",
                "transactions" : [
                    {
                        "data" : "0x73ac858c3531a0d29ea7a15dfca264e244056b35816eb2fa5e8b941bb7e03e269017ca7b29556e2c50a4525c68460af5ba912653059274ec9907faed7f4ceacf55ed7b50228e7e26e7113d6751750964de40c9f5bb9f378e19edc3fd6ffd6af7ee7710107f382df318b8e1c707719add3db4b00892ddfba9f3e970c8aa9b41f208c53bf041556585635e6534916c5ec0ba7162ea7979164bb27d007c198e1e50cb945b54a4dca4ac110de1a1d47f43fa61c9a6e916d30c3e89695e77cb0da0bcea3bd98260927c609b5782488c5d7e06f07fc67aa5f1cb3c2d7ee74a4054d94e0108b3c962a00fb567a505e96a974f83567a74b898ddd6136e1e6634e4c85cb37db14f98d0080ac548e092928b6eee8d6863592d990f9298d7040cfa486e4e881b0f19eb06892d2185cc0b295d7f2669f00ac67c30de107cd324610a5af8bb29d11354783888e7b8ba5ab533f959729b6e25886d426bbf4cd00626cffbc0ec6beb6a62ae0d9e7166a6303d22036c2b3d45e88057940ada00938e",
                        "gasLimit" : "0x4ac88d",
                        "gasPrice" : "0x0a",
                        "nonce" : "0x00",
                        "signature" : "0x51b0348078c8c9c2e6f53dc4169db5fca6a8a0521b5f0dff29767dce479a2548",
                        "s" : "0x4335b431f4d20a09c7cecb7ba7a7657a24619630058f89db4a07c309c1c02dfc",
                        "sender" : "Za94f5374fce5edbc8e2a8697c15331677e6ebf0b",
                        "to" : "0x0000000000000000000000000000000000000007",
                        "v" : "0x1c",
                        "value" : "0xf5e5cc4b"
                    }
                ],
                "uncleHeaders" : [
                ],
                "withdrawals" : [
                ]
            }
        ],
        "config" : {
            "blobSchedule" : {
                "Prague" : {
                    "baseFeeUpdateFraction" : "0x4c6964",
                    "max" : "0x09",
                    "target" : "0x06"
                }
            },
            "chainid" : "0x01",
            "network" : "Prague"
        },
        "genesisBlockHeader" : {
            "baseFeePerGas" : "0x0b",
            "bloom" : "0x00000000000000000000000000000000000000000000000000000000000000000000000000000000000000000000000000000000000000000000000000000000000000000000000000000000000000000000000000000000000000000000000000000000000000000000000000000000000000000000000000000000000000000000000000000000000000000000000000000000000000000000000000000000000000000000000000000000000000000000000000000000000000000000000000000000000000000000000000000000000000000000000000000000000000000000000000000000000000000000000000000000000000000000000000000000",
            "coinbase" : "Za94f5374fce5edbc8e2a8697c15331677e6ebf0b",
            "extraData" : "0x00",
            "gasLimit" : "0x406fbe7b1f887c",
            "gasUsed" : "0x00",
            "hash" : "0x8413768449c4ad999ec43d09499246f8c2e76c4e2291ffe93cf669831a936f45",
            "mixHash" : "0x0000000000000000000000000000000000000000000000000000000000020000",
            "nonce" : "0x0000000000000000",
            "number" : "0x00",
            "parentHash" : "0x0000000000000000000000000000000000000000000000000000000000000000",
            "receiptTrie" : "0x56e81f171bcc55a6ff8345e692c0f86e5b48e01b996cadc001622fb5e363b421",
            "requestsHash" : "0xe3b0c44298fc1c149afbf4c8996fb92427ae41e4649b934ca495991b7852b855",
            "stateRoot" : "0xb28e72722b081c4bccd4d355e90cf5b92cbcbc972672777d56ac55e542f4086f",
            "timestamp" : "0x00",
            "transactionsTrie" : "0x56e81f171bcc55a6ff8345e692c0f86e5b48e01b996cadc001622fb5e363b421",
            "withdrawalsRoot" : "0x56e81f171bcc55a6ff8345e692c0f86e5b48e01b996cadc001622fb5e363b421"
        },
        "genesisRLP" : "0xf90263f9025da00000000000000000000000000000000000000000000000000000000000000000a01dcc4de8dec75d7aab85b567b6ccd41ad312451b948a7413f0a142fd40d4934794a94f5374fce5edbc8e2a8697c15331677e6ebf0ba0b28e72722b081c4bccd4d355e90cf5b92cbcbc972672777d56ac55e542f4086fa056e81f171bcc55a6ff8345e692c0f86e5b48e01b996cadc001622fb5e363b421a056e81f171bcc55a6ff8345e692c0f86e5b48e01b996cadc001622fb5e363b421b9010000000000000000000000000000000000000000000000000000000000000000000000000000000000000000000000000000000000000000000000000000000000000000000000000000000000000000000000000000000000000000000000000000000000000000000000000000000000000000000000000000000000000000000000000000000000000000000000000000000000000000000000000000000000000000000000000000000000000000000000000000000000000000000000000000000000000000000000000000000000000000000000000000000000000000000000000000000000000000000000000000000000000000000000000000000000808087406fbe7b1f887c808000a000000000000000000000000000000000000000000000000000000000000200008800000000000000000ba056e81f171bcc55a6ff8345e692c0f86e5b48e01b996cadc001622fb5e363b4218083060000a00000000000000000000000000000000000000000000000000000000000000000a0e3b0c44298fc1c149afbf4c8996fb92427ae41e4649b934ca495991b7852b855c0c0c0",
        "lastblockhash" : "0x1569ffa0b6522a595d93a97ef775aa86d86cb88d290d83a75599425227f8465e",
        "network" : "Prague",
        "postState" : {
            "0x0000f90827f1c53a10cb7a02335b175320002935" : {
                "balance" : "0x00",
                "code" : "0x3373fffffffffffffffffffffffffffffffffffffffe14604657602036036042575f35600143038111604257611fff81430311604257611fff9006545f5260205ff35b5f5ffd5b5f35611fff60014303065500",
                "nonce" : "0x01",
                "storage" : {
                    "0x00" : "0x8413768449c4ad999ec43d09499246f8c2e76c4e2291ffe93cf669831a936f45"
                }
            },
            "0x000f3df6d732807ef1319fb7b8bb8522d0beac02" : {
                "balance" : "0x00",
                "code" : "0x3373fffffffffffffffffffffffffffffffffffffffe14604d57602036146024575f5ffd5b5f35801560495762001fff810690815414603c575f5ffd5b62001fff01545f5260205ff35b5f5ffd5b62001fff42064281555f359062001fff015500",
                "nonce" : "0x01",
                "storage" : {
                    "0x03e8" : "0x03e8"
                }
            },
            "0xa94f5374fce5edbc8e2a8697c15331677e6ebf0b" : {
                "balance" : "0x26551a6969c0dc84",
                "code" : "0x",
                "nonce" : "0x01",
                "storage" : {
                }
            },
            "0xb94f5374fce5edbc8e2a8697c15331677e6ebf0b" : {
                "balance" : "0x577686e8d1344340",
                "code" : "0x62f46a4f547b169c9edf92f4b39273fe47accc75d1209ae58463c2585607ce051ff6714c4f0fbf6de0659784434fb240652ff52d08576408f168a43a6651f765a4788a05537086290691d5a3239db43eefea96b0012ea26534e99e4ba9ee7f92f37fa731707f800683bafb70815757d861ad8cc6804154ce5b9de3146b58cd53",
                "nonce" : "0x70",
                "storage" : {
                }
            },
            "0xc94f5374fce5edbc8e2a8697c15331677e6ebf0b" : {
                "balance" : "0x11bae0bb79d6a164",
                "code" : "0x",
                "nonce" : "0xa3",
                "storage" : {
                }
            }
        },
        "pre" : {
            "0x0000f90827f1c53a10cb7a02335b175320002935" : {
                "balance" : "0x00",
                "code" : "0x3373fffffffffffffffffffffffffffffffffffffffe14604657602036036042575f35600143038111604257611fff81430311604257611fff9006545f5260205ff35b5f5ffd5b5f35611fff60014303065500",
                "nonce" : "0x01",
                "storage" : {
                }
            },
            "0x000f3df6d732807ef1319fb7b8bb8522d0beac02" : {
                "balance" : "0x00",
                "code" : "0x3373fffffffffffffffffffffffffffffffffffffffe14604d57602036146024575f5ffd5b5f35801560495762001fff810690815414603c575f5ffd5b62001fff01545f5260205ff35b5f5ffd5b62001fff42064281555f359062001fff015500",
                "nonce" : "0x01",
                "storage" : {
                }
            },
            "0xa94f5374fce5edbc8e2a8697c15331677e6ebf0b" : {
                "balance" : "0x26551a696cacb206",
                "code" : "0x",
                "nonce" : "0x00",
                "storage" : {
                }
            },
            "0xb94f5374fce5edbc8e2a8697c15331677e6ebf0b" : {
                "balance" : "0x577686e8d1344340",
                "code" : "0x62f46a4f547b169c9edf92f4b39273fe47accc75d1209ae58463c2585607ce051ff6714c4f0fbf6de0659784434fb240652ff52d08576408f168a43a6651f765a4788a05537086290691d5a3239db43eefea96b0012ea26534e99e4ba9ee7f92f37fa731707f800683bafb70815757d861ad8cc6804154ce5b9de3146b58cd53",
                "nonce" : "0x70",
                "storage" : {
                }
            },
            "0xc94f5374fce5edbc8e2a8697c15331677e6ebf0b" : {
                "balance" : "0x11bae0bb79d6a164",
                "code" : "0x",
                "nonce" : "0xa3",
                "storage" : {
                }
            }
        },
        "sealEngine" : "NoProof"
    }
}