{
    "randomStatetest649_d0g0v0_Cancun" : {
        "_info" : {
            "comment" : "Consensus issue test produced by fuzz testing team FuzzyVM-1240834021-1071009090.json.min",
            "filling-rpc-server" : "evmone-t8n 0.14.0-13+commit.4d363c36",
            "filling-tool-version" : "retesteth-0.3.2-legacy+commit.ca7f4c79.Linux.g++",
            "fixture-format" : "blockchain_test",
            "generatedTestHash" : "986abc45580364c5d388e69eeb0989e79f0a31a2c5550b453fe2224b61c88f59",
            "lllcversion" : "Version: 0.5.14-develop.2024.11.5+commit.b2b86751.mod.Linux.g++",
            "hyperion" : "Version: 0.8.24+commit.e11b9ed9.Linux.g++",
            "source" : "src/GeneralStateTestsFiller/stRandom2/randomStatetest649Filler.json",
            "sourceHash" : "c4b5664b79aae9fb1cbe93862c4f0ec4b1075a5bf53c17b38f78cb92e7291f50"
        },
        "blocks" : [
            {
                "blockHeader" : {
                    "baseFeePerGas" : "0x0a",
                    "bloom" : "0x00000000000000000000000000000000000000000000000000000000000000000000000000000000000000000000000000000000000000000000000000000000000000000000000000000000000000000000000000000000000000000000000000000000000000000000000000000000000000000000000000000000000000000000000000000000000000000000000000000000000000000000000000000000000000000000000000000000000000000000000000000000000000000000000000000000000000000000000000000000000000000000000000000000000000000000000000000000000000000000000000000000000000000000000000000000",
                    "coinbase" : "Zb94f5374fce5edbc8e2a8697c15331677e6ebf0b",
                    "extraData" : "0x00",
                    "gasLimit" : "0x26e1f476fe1e22",
                    "gasUsed" : "0x024174",
                    "hash" : "0x040d10795576bf6e6738bb620d9cf62c11cdfc04acda666114f5d6cdf901a9d7",
                    "mixHash" : "0x0000000000000000000000000000000000000000000000000000000000020000",
                    "nonce" : "0x0000000000000000",
                    "number" : "0x01",
                    "parentHash" : "0x31312fe43cae6e3d88887ac5d8ff0cec5dd8a963590ff5b02583b51d06ea16a5",
                    "receiptTrie" : "0xdbcb7cc3cece29c0736378afad03ccef4d9f3d143e85e136a67ca5c4c76ee46d",
                    "stateRoot" : "0x204fd8bc82129b1d66355bbcfa9c293562bc43e8d2a101310175a785b70570d7",
                    "timestamp" : "0x03e8",
                    "transactionsTrie" : "0x201a9823797e1e7159fdf67bcb0c30462613fe6766013d956ba08716360e40a0",
                    "withdrawalsRoot" : "0x56e81f171bcc55a6ff8345e692c0f86e5b48e01b996cadc001622fb5e363b421"
                },
                "rlp" : "0xf90310f9023ea031312fe43cae6e3d88887ac5d8ff0cec5dd8a963590ff5b02583b51d06ea16a5a01dcc4de8dec75d7aab85b567b6ccd41ad312451b948a7413f0a142fd40d4934794b94f5374fce5edbc8e2a8697c15331677e6ebf0ba0204fd8bc82129b1d66355bbcfa9c293562bc43e8d2a101310175a785b70570d7a0201a9823797e1e7159fdf67bcb0c30462613fe6766013d956ba08716360e40a0a0dbcb7cc3cece29c0736378afad03ccef4d9f3d143e85e136a67ca5c4c76ee46db901000000000000000000000000000000000000000000000000000000000000000000000000000000000000000000000000000000000000000000000000000000000000000000000000000000000000000000000000000000000000000000000000000000000000000000000000000000000000000000000000000000000000000000000000000000000000000000000000000000000000000000000000000000000000000000000000000000000000000000000000000000000000000000000000000000000000000000000000000000000000000000000000000000000000000000000000000000000000000000000000000000000000000000000000000000000080018726e1f476fe1e22830241748203e800a000000000000000000000000000000000000000000000000000000000000200008800000000000000000aa056e81f171bcc55a6ff8345e692c0f86e5b48e01b996cadc001622fb5e363b4218080a00000000000000000000000000000000000000000000000000000000000000000f8cbf8c9800a8302417494000000000000000000000000000000ca1100f02284efbf7125b864756dbf65726963616e207f9439303733373936353331363631303037345a057265737582673075742074650041030a000000efbf7125e86c756dbf65726963616e207f9439303733373936353331363631303037345a05726573758267307574207465001ca07fc8db7aa32bc5e5b9b405a3bfdbdd92cfe9cfb31cec09d3ab54f5772131dc09a00714e8292b024b5e5b00d2672bdc1b29a17968f40309593b0d1d9fa75802325ac0c0",
                "transactions" : [
                    {
                        "data" : "0x756dbf65726963616e207f9439303733373936353331363631303037345a057265737582673075742074650041030a000000efbf7125e86c756dbf65726963616e207f9439303733373936353331363631303037345a0572657375826730757420746500",
                        "gasLimit" : "0x024174",
                        "gasPrice" : "0x0a",
                        "nonce" : "0x00",
                        "signature" : "0x7fc8db7aa32bc5e5b9b405a3bfdbdd92cfe9cfb31cec09d3ab54f5772131dc09",
                        "publicKey" : "0x0714e8292b024b5e5b00d2672bdc1b29a17968f40309593b0d1d9fa75802325a",
                        "sender" : "Za94f5374fce5edbc8e2a8697c15331677e6ebf0b",
                        "to" : "0x000000000000000000000000000000ca1100f022",
                        "v" : "0x1c",
                        "value" : "0xefbf7125"
                    }
                ],
                "uncleHeaders" : [
                ],
                "withdrawals" : [
                ]
            }
        ],
        "config" : {
            "blobSchedule" : {
                "Cancun" : {
                    "baseFeeUpdateFraction" : "0x32f0ed",
                    "max" : "0x06",
                    "target" : "0x03"
                }
            },
            "chainid" : "0x01",
            "network" : "Shanghai"
        },
        "genesisBlockHeader" : {
            "baseFeePerGas" : "0x0b",
            "bloom" : "0x00000000000000000000000000000000000000000000000000000000000000000000000000000000000000000000000000000000000000000000000000000000000000000000000000000000000000000000000000000000000000000000000000000000000000000000000000000000000000000000000000000000000000000000000000000000000000000000000000000000000000000000000000000000000000000000000000000000000000000000000000000000000000000000000000000000000000000000000000000000000000000000000000000000000000000000000000000000000000000000000000000000000000000000000000000000",
            "coinbase" : "Zb94f5374fce5edbc8e2a8697c15331677e6ebf0b",
            "extraData" : "0x00",
            "gasLimit" : "0x26e1f476fe1e22",
            "gasUsed" : "0x00",
            "hash" : "0x31312fe43cae6e3d88887ac5d8ff0cec5dd8a963590ff5b02583b51d06ea16a5",
            "mixHash" : "0x0000000000000000000000000000000000000000000000000000000000020000",
            "nonce" : "0x0000000000000000",
            "number" : "0x00",
            "parentHash" : "0x0000000000000000000000000000000000000000000000000000000000000000",
            "receiptTrie" : "0x56e81f171bcc55a6ff8345e692c0f86e5b48e01b996cadc001622fb5e363b421",
            "stateRoot" : "0x30f7ac39aae9a1247cf3f01becdf894f85a670938614d1bbdfd29ecd5fbfaeaa",
            "timestamp" : "0x00",
            "transactionsTrie" : "0x56e81f171bcc55a6ff8345e692c0f86e5b48e01b996cadc001622fb5e363b421",
            "withdrawalsRoot" : "0x56e81f171bcc55a6ff8345e692c0f86e5b48e01b996cadc001622fb5e363b421"
        },
        "genesisRLP" : "0xf90242f9023ca00000000000000000000000000000000000000000000000000000000000000000a01dcc4de8dec75d7aab85b567b6ccd41ad312451b948a7413f0a142fd40d4934794b94f5374fce5edbc8e2a8697c15331677e6ebf0ba030f7ac39aae9a1247cf3f01becdf894f85a670938614d1bbdfd29ecd5fbfaeaaa056e81f171bcc55a6ff8345e692c0f86e5b48e01b996cadc001622fb5e363b421a056e81f171bcc55a6ff8345e692c0f86e5b48e01b996cadc001622fb5e363b421b901000000000000000000000000000000000000000000000000000000000000000000000000000000000000000000000000000000000000000000000000000000000000000000000000000000000000000000000000000000000000000000000000000000000000000000000000000000000000000000000000000000000000000000000000000000000000000000000000000000000000000000000000000000000000000000000000000000000000000000000000000000000000000000000000000000000000000000000000000000000000000000000000000000000000000000000000000000000000000000000000000000000000000000000000000000000080808726e1f476fe1e22808000a000000000000000000000000000000000000000000000000000000000000200008800000000000000000ba056e81f171bcc55a6ff8345e692c0f86e5b48e01b996cadc001622fb5e363b4218083060000a00000000000000000000000000000000000000000000000000000000000000000c0c0c0",
        "lastblockhash" : "0x040d10795576bf6e6738bb620d9cf62c11cdfc04acda666114f5d6cdf901a9d7",
        "network" : "Shanghai",
        "postState" : {
            "Z000000000000000000000000000000ca1100f022" : {
                "balance" : "0x00",
                "code" : "0x7f6c756dbf65726963616e207f9439303733373936353331363631303037345a056000527f7265737582673075742074650041030a000000efbf7125e86c756dbf657269636020527f616e207f9439303733373936353331363631303037345a0572657375826730757f742074650041030a000000efbf7125e86c756dbf65726963616e207f943930377f33373936353331363631303037345a057265737582673075742074650041030a7cefbf7125e86c756dbf65726963616e207f9439303733373936353331367f3631303037345a057265737582673075742074650041030a000000efbf7125e8606c60e053607560e153606d60e25360bf60e353606560e453607260e553606960e653606360e75360e860006000f06000600060006000845a6950507f7f9439303733373936353331363631303037345a05726573758267307574207460005260206000f35b410061943961207f61616e616963616572600563012b9bbff167000000000000015f565b670000000000004ca65661363551613636556136555161363755613675516136385561369551613639556136b55161363a556136d55161363b556136f55161363c556137155161363d556137355161363e556137555161363f55613775516136405561379551613641556137b551613642556137d551613643556137f55161364455613815516136455561383551613646556138555161364755613875516136485561389551613649556138b55161364a556138d55161364b556138f55161364c556139155161364d556139355161364e556139555161364f55613975516136505561399551613651556139b551613652556139d551613653556139f55161365455613a155161365555613a355161365655613a555161365755613a755161365855613a955161365955613ab55161365a55613ad55161365b55613af55161365c00",
                "nonce" : "0x00",
                "storage" : {
                }
            },
            "0x000f3df6d732807ef1319fb7b8bb8522d0beac02" : {
                "balance" : "0x00",
                "code" : "0x3373fffffffffffffffffffffffffffffffffffffffe14604d57602036146024575f5ffd5b5f35801560495762001fff810690815414603c575f5ffd5b62001fff01545f5260205ff35b5f5ffd5b62001fff42064281555f359062001fff015500",
                "nonce" : "0x01",
                "storage" : {
                    "0x03e8" : "0x03e8"
                }
            },
            "0xa94f5374fce5edbc8e2a8697c15331677e6ebf0b" : {
                "balance" : "0x3fffffffffe97177",
                "code" : "0x",
                "nonce" : "0x01",
                "storage" : {
                }
            }
        },
        "pre" : {
            "Z000000000000000000000000000000ca1100f022" : {
                "balance" : "0x00",
                "code" : "0x7f6c756dbf65726963616e207f9439303733373936353331363631303037345a056000527f7265737582673075742074650041030a000000efbf7125e86c756dbf657269636020527f616e207f9439303733373936353331363631303037345a0572657375826730757f742074650041030a000000efbf7125e86c756dbf65726963616e207f943930377f33373936353331363631303037345a057265737582673075742074650041030a7cefbf7125e86c756dbf65726963616e207f9439303733373936353331367f3631303037345a057265737582673075742074650041030a000000efbf7125e8606c60e053607560e153606d60e25360bf60e353606560e453607260e553606960e653606360e75360e860006000f06000600060006000845a6950507f7f9439303733373936353331363631303037345a05726573758267307574207460005260206000f35b410061943961207f61616e616963616572600563012b9bbff167000000000000015f565b670000000000004ca65661363551613636556136555161363755613675516136385561369551613639556136b55161363a556136d55161363b556136f55161363c556137155161363d556137355161363e556137555161363f55613775516136405561379551613641556137b551613642556137d551613643556137f55161364455613815516136455561383551613646556138555161364755613875516136485561389551613649556138b55161364a556138d55161364b556138f55161364c556139155161364d556139355161364e556139555161364f55613975516136505561399551613651556139b551613652556139d551613653556139f55161365455613a155161365555613a355161365655613a555161365755613a755161365855613a955161365955613ab55161365a55613ad55161365b55613af55161365c00",
                "nonce" : "0x00",
                "storage" : {
                }
            },
            "0x000f3df6d732807ef1319fb7b8bb8522d0beac02" : {
                "balance" : "0x00",
                "code" : "0x3373fffffffffffffffffffffffffffffffffffffffe14604d57602036146024575f5ffd5b5f35801560495762001fff810690815414603c575f5ffd5b62001fff01545f5260205ff35b5f5ffd5b62001fff42064281555f359062001fff015500",
                "nonce" : "0x01",
                "storage" : {
                }
            },
            "0xa94f5374fce5edbc8e2a8697c15331677e6ebf0b" : {
                "balance" : "0x3fffffffffffffff",
                "code" : "0x",
                "nonce" : "0x00",
                "storage" : {
                }
            }
        },
        "sealEngine" : "NoProof"
    },
    "randomStatetest649_d0g0v0_Prague" : {
        "_info" : {
            "comment" : "Consensus issue test produced by fuzz testing team FuzzyVM-1240834021-1071009090.json.min",
            "filling-rpc-server" : "evmone-t8n 0.14.0-13+commit.4d363c36",
            "filling-tool-version" : "retesteth-0.3.2-legacy+commit.ca7f4c79.Linux.g++",
            "fixture-format" : "blockchain_test",
            "generatedTestHash" : "439cd368281f375fb043ad5ca7f3cef9492de6f616a51532cd56f2d4258701e1",
            "lllcversion" : "Version: 0.5.14-develop.2024.11.5+commit.b2b86751.mod.Linux.g++",
            "hyperion" : "Version: 0.8.24+commit.e11b9ed9.Linux.g++",
            "source" : "src/GeneralStateTestsFiller/stRandom2/randomStatetest649Filler.json",
            "sourceHash" : "c4b5664b79aae9fb1cbe93862c4f0ec4b1075a5bf53c17b38f78cb92e7291f50"
        },
        "blocks" : [
            {
                "blockHeader" : {
                    "baseFeePerGas" : "0x0a",
                    "bloom" : "0x00000000000000000000000000000000000000000000000000000000000000000000000000000000000000000000000000000000000000000000000000000000000000000000000000000000000000000000000000000000000000000000000000000000000000000000000000000000000000000000000000000000000000000000000000000000000000000000000000000000000000000000000000000000000000000000000000000000000000000000000000000000000000000000000000000000000000000000000000000000000000000000000000000000000000000000000000000000000000000000000000000000000000000000000000000000",
                    "coinbase" : "Zb94f5374fce5edbc8e2a8697c15331677e6ebf0b",
                    "extraData" : "0x00",
                    "gasLimit" : "0x26e1f476fe1e22",
                    "gasUsed" : "0x024174",
                    "hash" : "0xd8ca7b6d6d5c877e8643fb95f2ba3ee6e42ec8038c4fe448a26a6e736d12eaaf",
                    "mixHash" : "0x0000000000000000000000000000000000000000000000000000000000020000",
                    "nonce" : "0x0000000000000000",
                    "number" : "0x01",
                    "parentHash" : "0xb258f0b8b69aeb46789c46f4417bca48f110a6dbbe5d6e439eda6466aab01263",
                    "receiptTrie" : "0xdbcb7cc3cece29c0736378afad03ccef4d9f3d143e85e136a67ca5c4c76ee46d",
                    "requestsHash" : "0xe3b0c44298fc1c149afbf4c8996fb92427ae41e4649b934ca495991b7852b855",
                    "stateRoot" : "0x289de80ed7c0e47bdd9a0ffa56da20bfe45f296048bab61aa3459069a704e7c0",
                    "timestamp" : "0x03e8",
                    "transactionsTrie" : "0x201a9823797e1e7159fdf67bcb0c30462613fe6766013d956ba08716360e40a0",
                    "withdrawalsRoot" : "0x56e81f171bcc55a6ff8345e692c0f86e5b48e01b996cadc001622fb5e363b421"
                },
                "rlp" : "0xf90331f9025fa0b258f0b8b69aeb46789c46f4417bca48f110a6dbbe5d6e439eda6466aab01263a01dcc4de8dec75d7aab85b567b6ccd41ad312451b948a7413f0a142fd40d4934794b94f5374fce5edbc8e2a8697c15331677e6ebf0ba0289de80ed7c0e47bdd9a0ffa56da20bfe45f296048bab61aa3459069a704e7c0a0201a9823797e1e7159fdf67bcb0c30462613fe6766013d956ba08716360e40a0a0dbcb7cc3cece29c0736378afad03ccef4d9f3d143e85e136a67ca5c4c76ee46db901000000000000000000000000000000000000000000000000000000000000000000000000000000000000000000000000000000000000000000000000000000000000000000000000000000000000000000000000000000000000000000000000000000000000000000000000000000000000000000000000000000000000000000000000000000000000000000000000000000000000000000000000000000000000000000000000000000000000000000000000000000000000000000000000000000000000000000000000000000000000000000000000000000000000000000000000000000000000000000000000000000000000000000000000000000000080018726e1f476fe1e22830241748203e800a000000000000000000000000000000000000000000000000000000000000200008800000000000000000aa056e81f171bcc55a6ff8345e692c0f86e5b48e01b996cadc001622fb5e363b4218080a00000000000000000000000000000000000000000000000000000000000000000a0e3b0c44298fc1c149afbf4c8996fb92427ae41e4649b934ca495991b7852b855f8cbf8c9800a8302417494000000000000000000000000000000ca1100f02284efbf7125b864756dbf65726963616e207f9439303733373936353331363631303037345a057265737582673075742074650041030a000000efbf7125e86c756dbf65726963616e207f9439303733373936353331363631303037345a05726573758267307574207465001ca07fc8db7aa32bc5e5b9b405a3bfdbdd92cfe9cfb31cec09d3ab54f5772131dc09a00714e8292b024b5e5b00d2672bdc1b29a17968f40309593b0d1d9fa75802325ac0c0",
                "transactions" : [
                    {
                        "data" : "0x756dbf65726963616e207f9439303733373936353331363631303037345a057265737582673075742074650041030a000000efbf7125e86c756dbf65726963616e207f9439303733373936353331363631303037345a0572657375826730757420746500",
                        "gasLimit" : "0x024174",
                        "gasPrice" : "0x0a",
                        "nonce" : "0x00",
                        "signature" : "0x7fc8db7aa32bc5e5b9b405a3bfdbdd92cfe9cfb31cec09d3ab54f5772131dc09",
                        "publicKey" : "0x0714e8292b024b5e5b00d2672bdc1b29a17968f40309593b0d1d9fa75802325a",
                        "sender" : "Za94f5374fce5edbc8e2a8697c15331677e6ebf0b",
                        "to" : "0x000000000000000000000000000000ca1100f022",
                        "v" : "0x1c",
                        "value" : "0xefbf7125"
                    }
                ],
                "uncleHeaders" : [
                ],
                "withdrawals" : [
                ]
            }
        ],
        "config" : {
            "blobSchedule" : {
                "Prague" : {
                    "baseFeeUpdateFraction" : "0x4c6964",
                    "max" : "0x09",
                    "target" : "0x06"
                }
            },
            "chainid" : "0x01",
            "network" : "Shanghai"
        },
        "genesisBlockHeader" : {
            "baseFeePerGas" : "0x0b",
            "bloom" : "0x00000000000000000000000000000000000000000000000000000000000000000000000000000000000000000000000000000000000000000000000000000000000000000000000000000000000000000000000000000000000000000000000000000000000000000000000000000000000000000000000000000000000000000000000000000000000000000000000000000000000000000000000000000000000000000000000000000000000000000000000000000000000000000000000000000000000000000000000000000000000000000000000000000000000000000000000000000000000000000000000000000000000000000000000000000000",
            "coinbase" : "Zb94f5374fce5edbc8e2a8697c15331677e6ebf0b",
            "extraData" : "0x00",
            "gasLimit" : "0x26e1f476fe1e22",
            "gasUsed" : "0x00",
            "hash" : "0xb258f0b8b69aeb46789c46f4417bca48f110a6dbbe5d6e439eda6466aab01263",
            "mixHash" : "0x0000000000000000000000000000000000000000000000000000000000020000",
            "nonce" : "0x0000000000000000",
            "number" : "0x00",
            "parentHash" : "0x0000000000000000000000000000000000000000000000000000000000000000",
            "receiptTrie" : "0x56e81f171bcc55a6ff8345e692c0f86e5b48e01b996cadc001622fb5e363b421",
            "requestsHash" : "0xe3b0c44298fc1c149afbf4c8996fb92427ae41e4649b934ca495991b7852b855",
            "stateRoot" : "0x05fbd015c8448b09ba1b82afd103be3a3edbab7a28f40f86fabed6731ebaea0f",
            "timestamp" : "0x00",
            "transactionsTrie" : "0x56e81f171bcc55a6ff8345e692c0f86e5b48e01b996cadc001622fb5e363b421",
            "withdrawalsRoot" : "0x56e81f171bcc55a6ff8345e692c0f86e5b48e01b996cadc001622fb5e363b421"
        },
        "genesisRLP" : "0xf90263f9025da00000000000000000000000000000000000000000000000000000000000000000a01dcc4de8dec75d7aab85b567b6ccd41ad312451b948a7413f0a142fd40d4934794b94f5374fce5edbc8e2a8697c15331677e6ebf0ba005fbd015c8448b09ba1b82afd103be3a3edbab7a28f40f86fabed6731ebaea0fa056e81f171bcc55a6ff8345e692c0f86e5b48e01b996cadc001622fb5e363b421a056e81f171bcc55a6ff8345e692c0f86e5b48e01b996cadc001622fb5e363b421b901000000000000000000000000000000000000000000000000000000000000000000000000000000000000000000000000000000000000000000000000000000000000000000000000000000000000000000000000000000000000000000000000000000000000000000000000000000000000000000000000000000000000000000000000000000000000000000000000000000000000000000000000000000000000000000000000000000000000000000000000000000000000000000000000000000000000000000000000000000000000000000000000000000000000000000000000000000000000000000000000000000000000000000000000000000000080808726e1f476fe1e22808000a000000000000000000000000000000000000000000000000000000000000200008800000000000000000ba056e81f171bcc55a6ff8345e692c0f86e5b48e01b996cadc001622fb5e363b4218083060000a00000000000000000000000000000000000000000000000000000000000000000a0e3b0c44298fc1c149afbf4c8996fb92427ae41e4649b934ca495991b7852b855c0c0c0",
        "lastblockhash" : "0xd8ca7b6d6d5c877e8643fb95f2ba3ee6e42ec8038c4fe448a26a6e736d12eaaf",
        "network" : "Shanghai",
        "postState" : {
            "Z000000000000000000000000000000ca1100f022" : {
                "balance" : "0x00",
                "code" : "0x7f6c756dbf65726963616e207f9439303733373936353331363631303037345a056000527f7265737582673075742074650041030a000000efbf7125e86c756dbf657269636020527f616e207f9439303733373936353331363631303037345a0572657375826730757f742074650041030a000000efbf7125e86c756dbf65726963616e207f943930377f33373936353331363631303037345a057265737582673075742074650041030a7cefbf7125e86c756dbf65726963616e207f9439303733373936353331367f3631303037345a057265737582673075742074650041030a000000efbf7125e8606c60e053607560e153606d60e25360bf60e353606560e453607260e553606960e653606360e75360e860006000f06000600060006000845a6950507f7f9439303733373936353331363631303037345a05726573758267307574207460005260206000f35b410061943961207f61616e616963616572600563012b9bbff167000000000000015f565b670000000000004ca65661363551613636556136555161363755613675516136385561369551613639556136b55161363a556136d55161363b556136f55161363c556137155161363d556137355161363e556137555161363f55613775516136405561379551613641556137b551613642556137d551613643556137f55161364455613815516136455561383551613646556138555161364755613875516136485561389551613649556138b55161364a556138d55161364b556138f55161364c556139155161364d556139355161364e556139555161364f55613975516136505561399551613651556139b551613652556139d551613653556139f55161365455613a155161365555613a355161365655613a555161365755613a755161365855613a955161365955613ab55161365a55613ad55161365b55613af55161365c00",
                "nonce" : "0x00",
                "storage" : {
                }
            },
            "0x0000f90827f1c53a10cb7a02335b175320002935" : {
                "balance" : "0x00",
                "code" : "0x3373fffffffffffffffffffffffffffffffffffffffe14604657602036036042575f35600143038111604257611fff81430311604257611fff9006545f5260205ff35b5f5ffd5b5f35611fff60014303065500",
                "nonce" : "0x01",
                "storage" : {
                    "0x00" : "0xb258f0b8b69aeb46789c46f4417bca48f110a6dbbe5d6e439eda6466aab01263"
                }
            },
            "0x000f3df6d732807ef1319fb7b8bb8522d0beac02" : {
                "balance" : "0x00",
                "code" : "0x3373fffffffffffffffffffffffffffffffffffffffe14604d57602036146024575f5ffd5b5f35801560495762001fff810690815414603c575f5ffd5b62001fff01545f5260205ff35b5f5ffd5b62001fff42064281555f359062001fff015500",
                "nonce" : "0x01",
                "storage" : {
                    "0x03e8" : "0x03e8"
                }
            },
            "0xa94f5374fce5edbc8e2a8697c15331677e6ebf0b" : {
                "balance" : "0x3fffffffffe97177",
                "code" : "0x",
                "nonce" : "0x01",
                "storage" : {
                }
            }
        },
        "pre" : {
            "Z000000000000000000000000000000ca1100f022" : {
                "balance" : "0x00",
                "code" : "0x7f6c756dbf65726963616e207f9439303733373936353331363631303037345a056000527f7265737582673075742074650041030a000000efbf7125e86c756dbf657269636020527f616e207f9439303733373936353331363631303037345a0572657375826730757f742074650041030a000000efbf7125e86c756dbf65726963616e207f943930377f33373936353331363631303037345a057265737582673075742074650041030a7cefbf7125e86c756dbf65726963616e207f9439303733373936353331367f3631303037345a057265737582673075742074650041030a000000efbf7125e8606c60e053607560e153606d60e25360bf60e353606560e453607260e553606960e653606360e75360e860006000f06000600060006000845a6950507f7f9439303733373936353331363631303037345a05726573758267307574207460005260206000f35b410061943961207f61616e616963616572600563012b9bbff167000000000000015f565b670000000000004ca65661363551613636556136555161363755613675516136385561369551613639556136b55161363a556136d55161363b556136f55161363c556137155161363d556137355161363e556137555161363f55613775516136405561379551613641556137b551613642556137d551613643556137f55161364455613815516136455561383551613646556138555161364755613875516136485561389551613649556138b55161364a556138d55161364b556138f55161364c556139155161364d556139355161364e556139555161364f55613975516136505561399551613651556139b551613652556139d551613653556139f55161365455613a155161365555613a355161365655613a555161365755613a755161365855613a955161365955613ab55161365a55613ad55161365b55613af55161365c00",
                "nonce" : "0x00",
                "storage" : {
                }
            },
            "0x0000f90827f1c53a10cb7a02335b175320002935" : {
                "balance" : "0x00",
                "code" : "0x3373fffffffffffffffffffffffffffffffffffffffe14604657602036036042575f35600143038111604257611fff81430311604257611fff9006545f5260205ff35b5f5ffd5b5f35611fff60014303065500",
                "nonce" : "0x01",
                "storage" : {
                }
            },
            "0x000f3df6d732807ef1319fb7b8bb8522d0beac02" : {
                "balance" : "0x00",
                "code" : "0x3373fffffffffffffffffffffffffffffffffffffffe14604d57602036146024575f5ffd5b5f35801560495762001fff810690815414603c575f5ffd5b62001fff01545f5260205ff35b5f5ffd5b62001fff42064281555f359062001fff015500",
                "nonce" : "0x01",
                "storage" : {
                }
            },
            "0xa94f5374fce5edbc8e2a8697c15331677e6ebf0b" : {
                "balance" : "0x3fffffffffffffff",
                "code" : "0x",
                "nonce" : "0x00",
                "storage" : {
                }
            }
        },
        "sealEngine" : "NoProof"
    }
}