{
    "randomStatetest235BC_Cancun" : {
        "_info" : {
            "comment" : "",
            "filling-rpc-server" : "evmone-t8n 0.14.0-13+commit.4d363c36",
            "filling-tool-version" : "retesteth-0.3.2-legacy+commit.ca7f4c79.Linux.g++",
            "fixture-format" : "blockchain_test",
            "generatedTestHash" : "88a7959cbf3e628c57fd0ec3356e35cd534b5ba9835f945ce523bae28b6fc096",
            "lllcversion" : "Version: 0.5.14-develop.2024.11.5+commit.b2b86751.mod.Linux.g++",
            "hyperion" : "Version: 0.8.24+commit.e11b9ed9.Linux.g++",
            "source" : "src/BlockchainTestsFiller/ValidBlocks/bcRandomBlockhashTest/randomStatetest235BCFiller.json",
            "sourceHash" : "73bdda6ba78f56ccec048f5502863ff364f357ecaea32ef8037aef0044e16be5"
        },
        "blocks" : [
            {
                "blockHeader" : {
                    "baseFeePerGas" : "0x0e",
                    "bloom" : "0x00000000000000000000000000000000000000000000000000000000000000000000000000000000000000000000000000000000000000000000000000000000000000000000000000000000000000000000000000000000000000000000000000000000000000000000000000000000000000000000000000000000000000000000000000000000000000000000000000000000000000000000000000000000000000000000000000000000000000000000000000000000000000000000000000000000000000000000000000000000000000000000000000000000000000000000000000000000000000000000000000000000000000000000000000000000",
                    "coinbase" : "0x945304eb96065b2a98b57a48a06ae28d285a71b5",
                    "extraData" : "0x42",
                    "gasLimit" : "0x7fffffffffffffff",
                    "gasUsed" : "0x63ce",
                    "hash" : "0x174cb7cd221cc5326316c4ec468be56ba6a2d3ae514e95abc135fcc0f903c716",
                    "mixHash" : "0x0000000000000000000000000000000000000000000000000000000000020000",
                    "nonce" : "0x0000000000000000",
                    "number" : "0x01",
                    "parentHash" : "0x3051a6fb136764fa7027adff577b02996cf15d67b853018751d18b67cd9878d9",
                    "receiptTrie" : "0x9d8a3b87317636c8a26b8334204118d5e84d18f2350a7702d8dba66862db1927",
                    "stateRoot" : "0x6cd8a1326a5c8c353636408179a8a06608570f1f945e4eda7a66402748d54bd5",
                    "timestamp" : "0x03e8",
                    "transactionsTrie" : "0x01498f0d83f048277ab83d42fbbde51a20ec8e8134db1a37c2ee31667c8a26d8",
                    "withdrawalsRoot" : "0x56e81f171bcc55a6ff8345e692c0f86e5b48e01b996cadc001622fb5e363b421"
                },
                "blocknumber" : "1",
                "chainname" : "default",
                "rlp" : "0xf90381f9023ea03051a6fb136764fa7027adff577b02996cf15d67b853018751d18b67cd9878d9a01dcc4de8dec75d7aab85b567b6ccd41ad312451b948a7413f0a142fd40d4934794945304eb96065b2a98b57a48a06ae28d285a71b5a06cd8a1326a5c8c353636408179a8a06608570f1f945e4eda7a66402748d54bd5a001498f0d83f048277ab83d42fbbde51a20ec8e8134db1a37c2ee31667c8a26d8a09d8a3b87317636c8a26b8334204118d5e84d18f2350a7702d8dba66862db1927b90100000000000000000000000000000000000000000000000000000000000000000000000000000000000000000000000000000000000000000000000000000000000000000000000000000000000000000000000000000000000000000000000000000000000000000000000000000000000000000000000000000000000000000000000000000000000000000000000000000000000000000000000000000000000000000000000000000000000000000000000000000000000000000000000000000000000000000000000000000000000000000000000000000000000000000000000000000000000000000000000000000000000000000000000000000000008001887fffffffffffffff8263ce8203e842a000000000000000000000000000000000000000000000000000000000000200008800000000000000000ea056e81f171bcc55a6ff8345e692c0f86e5b48e01b996cadc001622fb5e363b4218080a00000000000000000000000000000000000000000000000000000000000000000f9013bf90138808203e8846ac6de8194095e7baea6a6c7c4c2dfeb977efac326af552d87841d7dd23cb8d041407f000000000000000000000000ffffffffffffffffffffffffffffffffffffffff7ffffffffffffffffffffffffffffffffffffffffffffffffffffffffffffffffe7f00000000000000000000000000000000000000000000000000000000000000007f000000000000000000000000000000000000000000000000000000000000c3507f000000000000000000000000945304eb96065b2a98b57a48a06ae28d285a71b57ffffffffffffffffffffffffffffffffffffffffffffffffffffffffffffffffe810967567786f2921ca0a57a67c5a4883a6884b896e5cf973eb1ecd370b4beea9dcdbd1b84357f4d0d6da02a6037a1685b9eb676b84e9c1ef780782182ba20db0d1938a6c4b47d2b505e41c0c0",
                "transactions" : [
                    {
                        "data" : "0x41407f000000000000000000000000ffffffffffffffffffffffffffffffffffffffff7ffffffffffffffffffffffffffffffffffffffffffffffffffffffffffffffffe7f00000000000000000000000000000000000000000000000000000000000000007f000000000000000000000000000000000000000000000000000000000000c3507f000000000000000000000000945304eb96065b2a98b57a48a06ae28d285a71b57ffffffffffffffffffffffffffffffffffffffffffffffffffffffffffffffffe810967567786f292",
                        "gasLimit" : "0x6ac6de81",
                        "gasPrice" : "0x03e8",
                        "nonce" : "0x00",
                        "r" : "0xa57a67c5a4883a6884b896e5cf973eb1ecd370b4beea9dcdbd1b84357f4d0d6d",
                        "s" : "0x2a6037a1685b9eb676b84e9c1ef780782182ba20db0d1938a6c4b47d2b505e41",
                        "sender" : "0xa94f5374fce5edbc8e2a8697c15331677e6ebf0b",
                        "to" : "0x095e7baea6a6c7c4c2dfeb977efac326af552d87",
                        "v" : "0x1c",
                        "value" : "0x1d7dd23c"
                    }
                ],

                "withdrawals" : [
                ]
            }
        ],
        "config" : {
            "blobSchedule" : {
                "Cancun" : {
                    "baseFeeUpdateFraction" : "0x32f0ed",
                    "max" : "0x06",
                    "target" : "0x03"
                }
            },
            "chainid" : "0x01",
            "network" : "Cancun"
        },
        "genesisBlockHeader" : {
            "baseFeePerGas" : "0x10",
            "bloom" : "0x00000000000000000000000000000000000000000000000000000000000000000000000000000000000000000000000000000000000000000000000000000000000000000000000000000000000000000000000000000000000000000000000000000000000000000000000000000000000000000000000000000000000000000000000000000000000000000000000000000000000000000000000000000000000000000000000000000000000000000000000000000000000000000000000000000000000000000000000000000000000000000000000000000000000000000000000000000000000000000000000000000000000000000000000000000000",
            "coinbase" : "0x945304eb96065b2a98b57a48a06ae28d285a71b5",
            "extraData" : "0x42",
            "gasLimit" : "0x7fffffffffffffff",
            "gasUsed" : "0x00",
            "hash" : "0x3051a6fb136764fa7027adff577b02996cf15d67b853018751d18b67cd9878d9",
            "mixHash" : "0x0000000000000000000000000000000000000000000000000000000000020000",
            "nonce" : "0x0000000000000000",
            "number" : "0x00",
            "parentHash" : "0x0000000000000000000000000000000000000000000000000000000000000000",
            "receiptTrie" : "0x56e81f171bcc55a6ff8345e692c0f86e5b48e01b996cadc001622fb5e363b421",
            "stateRoot" : "0xc8fd6c4b925def28311d59276a84d77404531a2e4b7f3398936c366c64f55c23",
            "timestamp" : "0x03b6",
            "transactionsTrie" : "0x56e81f171bcc55a6ff8345e692c0f86e5b48e01b996cadc001622fb5e363b421",
            "withdrawalsRoot" : "0x56e81f171bcc55a6ff8345e692c0f86e5b48e01b996cadc001622fb5e363b421"
        },
        "genesisRLP" : "0xf90242f9023ca00000000000000000000000000000000000000000000000000000000000000000a01dcc4de8dec75d7aab85b567b6ccd41ad312451b948a7413f0a142fd40d4934794945304eb96065b2a98b57a48a06ae28d285a71b5a0c8fd6c4b925def28311d59276a84d77404531a2e4b7f3398936c366c64f55c23a056e81f171bcc55a6ff8345e692c0f86e5b48e01b996cadc001622fb5e363b421a056e81f171bcc55a6ff8345e692c0f86e5b48e01b996cadc001622fb5e363b421b90100000000000000000000000000000000000000000000000000000000000000000000000000000000000000000000000000000000000000000000000000000000000000000000000000000000000000000000000000000000000000000000000000000000000000000000000000000000000000000000000000000000000000000000000000000000000000000000000000000000000000000000000000000000000000000000000000000000000000000000000000000000000000000000000000000000000000000000000000000000000000000000000000000000000000000000000000000000000000000000000000000000000000000000000000000000008080887fffffffffffffff808203b642a0000000000000000000000000000000000000000000000000000000000002000088000000000000000010a056e81f171bcc55a6ff8345e692c0f86e5b48e01b996cadc001622fb5e363b4218080a00000000000000000000000000000000000000000000000000000000000000000c0c0c0",
        "lastblockhash" : "0x174cb7cd221cc5326316c4ec468be56ba6a2d3ae514e95abc135fcc0f903c716",
        "network" : "Cancun",
        "postState" : {
            "0x000f3df6d732807ef1319fb7b8bb8522d0beac02" : {
                "balance" : "0x00",
                "code" : "0x3373fffffffffffffffffffffffffffffffffffffffe14604d57602036146024575f5ffd5b5f35801560495762001fff810690815414603c575f5ffd5b62001fff01545f5260205ff35b5f5ffd5b62001fff42064281555f359062001fff015500",
                "nonce" : "0x01",
                "storage" : {
                    "0x03b6" : "0x03b6",
                    "0x03e8" : "0x03e8",
                    "0x079e" : "0x079e"
                }
            },
            "0x095e7baea6a6c7c4c2dfeb977efac326af552d87" : {
                "balance" : "0x1d7dd23c",
                "code" : "0x41407f000000000000000000000000ffffffffffffffffffffffffffffffffffffffff7ffffffffffffffffffffffffffffffffffffffffffffffffffffffffffffffffe7f00000000000000000000000000000000000000000000000000000000000000007f000000000000000000000000000000000000000000000000000000000000c3507f000000000000000000000000945304eb96065b2a98b57a48a06ae28d285a71b57ffffffffffffffffffffffffffffffffffffffffffffffffffffffffffffffffe810967567786f29260005155",
                "nonce" : "0x00",
                "storage" : {
                }
            },
            "0x945304eb96065b2a98b57a48a06ae28d285a71b5" : {
                "balance" : "0x0180679a",
                "code" : "0x6000355415600957005b60203560003555",
                "nonce" : "0x00",
                "storage" : {
                }
            },
            "0xa94f5374fce5edbc8e2a8697c15331677e6ebf0b" : {
                "balance" : "0x0de0b6b388605114",
                "code" : "0x",
                "nonce" : "0x01",
                "storage" : {
                }
            }
        },
        "pre" : {
            "0x000f3df6d732807ef1319fb7b8bb8522d0beac02" : {
                "balance" : "0x00",
                "code" : "0x3373fffffffffffffffffffffffffffffffffffffffe14604d57602036146024575f5ffd5b5f35801560495762001fff810690815414603c575f5ffd5b62001fff01545f5260205ff35b5f5ffd5b62001fff42064281555f359062001fff015500",
                "nonce" : "0x01",
                "storage" : {
                    "0x03b6" : "0x03b6",
                    "0x03e8" : "0x03e8",
                    "0x079e" : "0x079e"
                }
            },
            "0x095e7baea6a6c7c4c2dfeb977efac326af552d87" : {
                "balance" : "0x00",
                "code" : "0x41407f000000000000000000000000ffffffffffffffffffffffffffffffffffffffff7ffffffffffffffffffffffffffffffffffffffffffffffffffffffffffffffffe7f00000000000000000000000000000000000000000000000000000000000000007f000000000000000000000000000000000000000000000000000000000000c3507f000000000000000000000000945304eb96065b2a98b57a48a06ae28d285a71b57ffffffffffffffffffffffffffffffffffffffffffffffffffffffffffffffffe810967567786f29260005155",
                "nonce" : "0x00",
                "storage" : {
                }
            },
            "0x945304eb96065b2a98b57a48a06ae28d285a71b5" : {
                "balance" : "0x2e",
                "code" : "0x6000355415600957005b60203560003555",
                "nonce" : "0x00",
                "storage" : {
                }
            },
            "0xa94f5374fce5edbc8e2a8697c15331677e6ebf0b" : {
                "balance" : "0x0de0b6b3a7640000",
                "code" : "0x",
                "nonce" : "0x00",
                "storage" : {
                }
            }
        },
        "sealEngine" : "NoProof"
    },
    "randomStatetest235BC_Prague" : {
        "_info" : {
            "comment" : "",
            "filling-rpc-server" : "evmone-t8n 0.14.0-13+commit.4d363c36",
            "filling-tool-version" : "retesteth-0.3.2-legacy+commit.ca7f4c79.Linux.g++",
            "fixture-format" : "blockchain_test",
            "generatedTestHash" : "155568dfc65ea5c8d379ec57c4fa4fd79fe3d8104c440ccfa157b878593879c2",
            "lllcversion" : "Version: 0.5.14-develop.2024.11.5+commit.b2b86751.mod.Linux.g++",
            "hyperion" : "Version: 0.8.24+commit.e11b9ed9.Linux.g++",
            "source" : "src/BlockchainTestsFiller/ValidBlocks/bcRandomBlockhashTest/randomStatetest235BCFiller.json",
            "sourceHash" : "73bdda6ba78f56ccec048f5502863ff364f357ecaea32ef8037aef0044e16be5"
        },
        "blocks" : [
            {
                "blockHeader" : {
                    "baseFeePerGas" : "0x0e",
                    "bloom" : "0x00000000000000000000000000000000000000000000000000000000000000000000000000000000000000000000000000000000000000000000000000000000000000000000000000000000000000000000000000000000000000000000000000000000000000000000000000000000000000000000000000000000000000000000000000000000000000000000000000000000000000000000000000000000000000000000000000000000000000000000000000000000000000000000000000000000000000000000000000000000000000000000000000000000000000000000000000000000000000000000000000000000000000000000000000000000",
                    "coinbase" : "0x945304eb96065b2a98b57a48a06ae28d285a71b5",
                    "extraData" : "0x42",
                    "gasLimit" : "0x7fffffffffffffff",
                    "gasUsed" : "0x6874",
                    "hash" : "0x52961bdb4cd6cbab1857e443a63831b478b0bee0ac462fae455ffe1dda1a894a",
                    "mixHash" : "0x0000000000000000000000000000000000000000000000000000000000020000",
                    "nonce" : "0x0000000000000000",
                    "number" : "0x01",
                    "parentHash" : "0xd1084ceb7944080f907d6e6d0a8f77a4b5d9e2ee65c64e8a65f83f5ec32b6e1a",
                    "receiptTrie" : "0x17f15c746ab3339cb56ed7d668cd900a42364d7b260cab200bf6e86f71c7c0a0",
                    "requestsHash" : "0xe3b0c44298fc1c149afbf4c8996fb92427ae41e4649b934ca495991b7852b855",
                    "stateRoot" : "0x53da12e0173bf893527dd1af146282bd29dfa47993c9dfbb8b2ec56fa09f9fe5",
                    "timestamp" : "0x03e8",
                    "transactionsTrie" : "0x01498f0d83f048277ab83d42fbbde51a20ec8e8134db1a37c2ee31667c8a26d8",
                    "withdrawalsRoot" : "0x56e81f171bcc55a6ff8345e692c0f86e5b48e01b996cadc001622fb5e363b421"
                },
                "blocknumber" : "1",
                "chainname" : "default",
                "rlp" : "0xf903a2f9025fa0d1084ceb7944080f907d6e6d0a8f77a4b5d9e2ee65c64e8a65f83f5ec32b6e1aa01dcc4de8dec75d7aab85b567b6ccd41ad312451b948a7413f0a142fd40d4934794945304eb96065b2a98b57a48a06ae28d285a71b5a053da12e0173bf893527dd1af146282bd29dfa47993c9dfbb8b2ec56fa09f9fe5a001498f0d83f048277ab83d42fbbde51a20ec8e8134db1a37c2ee31667c8a26d8a017f15c746ab3339cb56ed7d668cd900a42364d7b260cab200bf6e86f71c7c0a0b90100000000000000000000000000000000000000000000000000000000000000000000000000000000000000000000000000000000000000000000000000000000000000000000000000000000000000000000000000000000000000000000000000000000000000000000000000000000000000000000000000000000000000000000000000000000000000000000000000000000000000000000000000000000000000000000000000000000000000000000000000000000000000000000000000000000000000000000000000000000000000000000000000000000000000000000000000000000000000000000000000000000000000000000000000000000008001887fffffffffffffff8268748203e842a000000000000000000000000000000000000000000000000000000000000200008800000000000000000ea056e81f171bcc55a6ff8345e692c0f86e5b48e01b996cadc001622fb5e363b4218080a00000000000000000000000000000000000000000000000000000000000000000a0e3b0c44298fc1c149afbf4c8996fb92427ae41e4649b934ca495991b7852b855f9013bf90138808203e8846ac6de8194095e7baea6a6c7c4c2dfeb977efac326af552d87841d7dd23cb8d041407f000000000000000000000000ffffffffffffffffffffffffffffffffffffffff7ffffffffffffffffffffffffffffffffffffffffffffffffffffffffffffffffe7f00000000000000000000000000000000000000000000000000000000000000007f000000000000000000000000000000000000000000000000000000000000c3507f000000000000000000000000945304eb96065b2a98b57a48a06ae28d285a71b57ffffffffffffffffffffffffffffffffffffffffffffffffffffffffffffffffe810967567786f2921ca0a57a67c5a4883a6884b896e5cf973eb1ecd370b4beea9dcdbd1b84357f4d0d6da02a6037a1685b9eb676b84e9c1ef780782182ba20db0d1938a6c4b47d2b505e41c0c0",
                "transactions" : [
                    {
                        "data" : "0x41407f000000000000000000000000ffffffffffffffffffffffffffffffffffffffff7ffffffffffffffffffffffffffffffffffffffffffffffffffffffffffffffffe7f00000000000000000000000000000000000000000000000000000000000000007f000000000000000000000000000000000000000000000000000000000000c3507f000000000000000000000000945304eb96065b2a98b57a48a06ae28d285a71b57ffffffffffffffffffffffffffffffffffffffffffffffffffffffffffffffffe810967567786f292",
                        "gasLimit" : "0x6ac6de81",
                        "gasPrice" : "0x03e8",
                        "nonce" : "0x00",
                        "r" : "0xa57a67c5a4883a6884b896e5cf973eb1ecd370b4beea9dcdbd1b84357f4d0d6d",
                        "s" : "0x2a6037a1685b9eb676b84e9c1ef780782182ba20db0d1938a6c4b47d2b505e41",
                        "sender" : "0xa94f5374fce5edbc8e2a8697c15331677e6ebf0b",
                        "to" : "0x095e7baea6a6c7c4c2dfeb977efac326af552d87",
                        "v" : "0x1c",
                        "value" : "0x1d7dd23c"
                    }
                ],

                "withdrawals" : [
                ]
            }
        ],
        "config" : {
            "blobSchedule" : {
                "Prague" : {
                    "baseFeeUpdateFraction" : "0x4c6964",
                    "max" : "0x09",
                    "target" : "0x06"
                }
            },
            "chainid" : "0x01",
            "network" : "Prague"
        },
        "genesisBlockHeader" : {
            "baseFeePerGas" : "0x10",
            "bloom" : "0x00000000000000000000000000000000000000000000000000000000000000000000000000000000000000000000000000000000000000000000000000000000000000000000000000000000000000000000000000000000000000000000000000000000000000000000000000000000000000000000000000000000000000000000000000000000000000000000000000000000000000000000000000000000000000000000000000000000000000000000000000000000000000000000000000000000000000000000000000000000000000000000000000000000000000000000000000000000000000000000000000000000000000000000000000000000",
            "coinbase" : "0x945304eb96065b2a98b57a48a06ae28d285a71b5",
            "extraData" : "0x42",
            "gasLimit" : "0x7fffffffffffffff",
            "gasUsed" : "0x00",
            "hash" : "0xd1084ceb7944080f907d6e6d0a8f77a4b5d9e2ee65c64e8a65f83f5ec32b6e1a",
            "mixHash" : "0x0000000000000000000000000000000000000000000000000000000000020000",
            "nonce" : "0x0000000000000000",
            "number" : "0x00",
            "parentHash" : "0x0000000000000000000000000000000000000000000000000000000000000000",
            "receiptTrie" : "0x56e81f171bcc55a6ff8345e692c0f86e5b48e01b996cadc001622fb5e363b421",
            "requestsHash" : "0xe3b0c44298fc1c149afbf4c8996fb92427ae41e4649b934ca495991b7852b855",
            "stateRoot" : "0xb0af69d5a764ccf1335db5df78489a2963f0dae0ce085210f4eca1383845f893",
            "timestamp" : "0x03b6",
            "transactionsTrie" : "0x56e81f171bcc55a6ff8345e692c0f86e5b48e01b996cadc001622fb5e363b421",
            "withdrawalsRoot" : "0x56e81f171bcc55a6ff8345e692c0f86e5b48e01b996cadc001622fb5e363b421"
        },
        "genesisRLP" : "0xf90263f9025da00000000000000000000000000000000000000000000000000000000000000000a01dcc4de8dec75d7aab85b567b6ccd41ad312451b948a7413f0a142fd40d4934794945304eb96065b2a98b57a48a06ae28d285a71b5a0b0af69d5a764ccf1335db5df78489a2963f0dae0ce085210f4eca1383845f893a056e81f171bcc55a6ff8345e692c0f86e5b48e01b996cadc001622fb5e363b421a056e81f171bcc55a6ff8345e692c0f86e5b48e01b996cadc001622fb5e363b421b90100000000000000000000000000000000000000000000000000000000000000000000000000000000000000000000000000000000000000000000000000000000000000000000000000000000000000000000000000000000000000000000000000000000000000000000000000000000000000000000000000000000000000000000000000000000000000000000000000000000000000000000000000000000000000000000000000000000000000000000000000000000000000000000000000000000000000000000000000000000000000000000000000000000000000000000000000000000000000000000000000000000000000000000000000000000008080887fffffffffffffff808203b642a0000000000000000000000000000000000000000000000000000000000002000088000000000000000010a056e81f171bcc55a6ff8345e692c0f86e5b48e01b996cadc001622fb5e363b4218080a00000000000000000000000000000000000000000000000000000000000000000a0e3b0c44298fc1c149afbf4c8996fb92427ae41e4649b934ca495991b7852b855c0c0c0",
        "lastblockhash" : "0x52961bdb4cd6cbab1857e443a63831b478b0bee0ac462fae455ffe1dda1a894a",
        "network" : "Prague",
        "postState" : {
            "0x0000f90827f1c53a10cb7a02335b175320002935" : {
                "balance" : "0x00",
                "code" : "0x3373fffffffffffffffffffffffffffffffffffffffe14604657602036036042575f35600143038111604257611fff81430311604257611fff9006545f5260205ff35b5f5ffd5b5f35611fff60014303065500",
                "nonce" : "0x01",
                "storage" : {
                    "0x00" : "0xd1084ceb7944080f907d6e6d0a8f77a4b5d9e2ee65c64e8a65f83f5ec32b6e1a"
                }
            },
            "0x000f3df6d732807ef1319fb7b8bb8522d0beac02" : {
                "balance" : "0x00",
                "code" : "0x3373fffffffffffffffffffffffffffffffffffffffe14604d57602036146024575f5ffd5b5f35801560495762001fff810690815414603c575f5ffd5b62001fff01545f5260205ff35b5f5ffd5b62001fff42064281555f359062001fff015500",
                "nonce" : "0x01",
                "storage" : {
                    "0x03b6" : "0x03b6",
                    "0x03e8" : "0x03e8",
                    "0x079e" : "0x079e"
                }
            },
            "0x095e7baea6a6c7c4c2dfeb977efac326af552d87" : {
                "balance" : "0x1d7dd23c",
                "code" : "0x41407f000000000000000000000000ffffffffffffffffffffffffffffffffffffffff7ffffffffffffffffffffffffffffffffffffffffffffffffffffffffffffffffe7f00000000000000000000000000000000000000000000000000000000000000007f000000000000000000000000000000000000000000000000000000000000c3507f000000000000000000000000945304eb96065b2a98b57a48a06ae28d285a71b57ffffffffffffffffffffffffffffffffffffffffffffffffffffffffffffffffe810967567786f29260005155",
                "nonce" : "0x00",
                "storage" : {
                }
            },
            "0x945304eb96065b2a98b57a48a06ae28d285a71b5" : {
                "balance" : "0x01924ef6",
                "code" : "0x6000355415600957005b60203560003555",
                "nonce" : "0x00",
                "storage" : {
                }
            },
            "0xa94f5374fce5edbc8e2a8697c15331677e6ebf0b" : {
                "balance" : "0x0de0b6b3884e28a4",
                "code" : "0x",
                "nonce" : "0x01",
                "storage" : {
                }
            }
        },
        "pre" : {
            "0x0000f90827f1c53a10cb7a02335b175320002935" : {
                "balance" : "0x00",
                "code" : "0x3373fffffffffffffffffffffffffffffffffffffffe14604657602036036042575f35600143038111604257611fff81430311604257611fff9006545f5260205ff35b5f5ffd5b5f35611fff60014303065500",
                "nonce" : "0x01",
                "storage" : {
                }
            },
            "0x000f3df6d732807ef1319fb7b8bb8522d0beac02" : {
                "balance" : "0x00",
                "code" : "0x3373fffffffffffffffffffffffffffffffffffffffe14604d57602036146024575f5ffd5b5f35801560495762001fff810690815414603c575f5ffd5b62001fff01545f5260205ff35b5f5ffd5b62001fff42064281555f359062001fff015500",
                "nonce" : "0x01",
                "storage" : {
                    "0x03b6" : "0x03b6",
                    "0x03e8" : "0x03e8",
                    "0x079e" : "0x079e"
                }
            },
            "0x095e7baea6a6c7c4c2dfeb977efac326af552d87" : {
                "balance" : "0x00",
                "code" : "0x41407f000000000000000000000000ffffffffffffffffffffffffffffffffffffffff7ffffffffffffffffffffffffffffffffffffffffffffffffffffffffffffffffe7f00000000000000000000000000000000000000000000000000000000000000007f000000000000000000000000000000000000000000000000000000000000c3507f000000000000000000000000945304eb96065b2a98b57a48a06ae28d285a71b57ffffffffffffffffffffffffffffffffffffffffffffffffffffffffffffffffe810967567786f29260005155",
                "nonce" : "0x00",
                "storage" : {
                }
            },
            "0x945304eb96065b2a98b57a48a06ae28d285a71b5" : {
                "balance" : "0x2e",
                "code" : "0x6000355415600957005b60203560003555",
                "nonce" : "0x00",
                "storage" : {
                }
            },
            "0xa94f5374fce5edbc8e2a8697c15331677e6ebf0b" : {
                "balance" : "0x0de0b6b3a7640000",
                "code" : "0x",
                "nonce" : "0x00",
                "storage" : {
                }
            }
        },
        "sealEngine" : "NoProof"
    }
}