{
    "randomStatetest193BC_Cancun" : {
        "_info" : {
            "comment" : "",
            "filling-rpc-server" : "evmone-t8n 0.14.0-13+commit.4d363c36",
            "filling-tool-version" : "retesteth-0.3.2-legacy+commit.ca7f4c79.Linux.g++",
            "fixture-format" : "blockchain_test",
            "generatedTestHash" : "25f25ff7721616fa507da09bf323c749092c6f7209eeaa197e8d468aef379b1f",
            "lllcversion" : "Version: 0.5.14-develop.2024.11.5+commit.b2b86751.mod.Linux.g++",
            "solidity" : "Version: 0.8.24+commit.e11b9ed9.Linux.g++",
            "source" : "src/BlockchainTestsFiller/ValidBlocks/bcRandomBlockhashTest/randomStatetest193BCFiller.json",
            "sourceHash" : "cf967cbe2f4ec1b329548b1eb30a4e074e7d8c97a6ba2a75620708b27b68b6be"
        },
        "blocks" : [
            {
                "blockHeader" : {
                    "baseFeePerGas" : "0x0e",
                    "blobGasUsed" : "0x00",
                    "bloom" : "0x00000000000000000000000000000000000000000000000000000000000000000000000000000000000000000000000000000000000000000000000000000000000000000000000000000000000000000000000000000000000000000000000000000000000000000000000000000000000000000000000000000000000000000000000000000000000000000000000000000000000000000000000000000000000000000000000000000000000000000000000000000000000000000000000000000000000000000000000000000000000000000000000000000000000000000000000000000000000000000000000000000000000000000000000000000000",
                    "coinbase" : "0x945304eb96065b2a98b57a48a06ae28d285a71b5",
                    "difficulty" : "0x00",
                    "excessBlobGas" : "0x00",
                    "extraData" : "0x42",
                    "gasLimit" : "0x7fffffffffffffff",
                    "gasUsed" : "0x6dd4",
                    "hash" : "0xcfa7847d064dd98790cbcbcc628a619f8cdd8502c3a3f4fc463c23901f10b082",
                    "mixHash" : "0x0000000000000000000000000000000000000000000000000000000000020000",
                    "nonce" : "0x0000000000000000",
                    "number" : "0x01",
                    "parentBeaconBlockRoot" : "0x0000000000000000000000000000000000000000000000000000000000000000",
                    "parentHash" : "0xa718621811b8280e81203f0e607de4f1b2ec3598ba8f2b586fe79146d5143f01",
                    "receiptTrie" : "0xc7e824c6859cd9d9fa034cd98c3a8690da3faaad58457265d039364c0e566089",
                    "stateRoot" : "0xa08e486edbc7a5942279b2355f51952b4163f133588193404daa135c0a51e75c",
                    "timestamp" : "0x03e8",
                    "transactionsTrie" : "0x54b2430c8b6efbaf847a2962ccbbeefe0ab82e2c831503373a7984120a1d03b8",
                    "uncleHash" : "0x1dcc4de8dec75d7aab85b567b6ccd41ad312451b948a7413f0a142fd40d49347",
                    "withdrawalsRoot" : "0x56e81f171bcc55a6ff8345e692c0f86e5b48e01b996cadc001622fb5e363b421"
                },
                "blocknumber" : "1",
                "chainname" : "default",
                "rlp" : "0xf90380f9023ea0a718621811b8280e81203f0e607de4f1b2ec3598ba8f2b586fe79146d5143f01a01dcc4de8dec75d7aab85b567b6ccd41ad312451b948a7413f0a142fd40d4934794945304eb96065b2a98b57a48a06ae28d285a71b5a0a08e486edbc7a5942279b2355f51952b4163f133588193404daa135c0a51e75ca054b2430c8b6efbaf847a2962ccbbeefe0ab82e2c831503373a7984120a1d03b8a0c7e824c6859cd9d9fa034cd98c3a8690da3faaad58457265d039364c0e566089b90100000000000000000000000000000000000000000000000000000000000000000000000000000000000000000000000000000000000000000000000000000000000000000000000000000000000000000000000000000000000000000000000000000000000000000000000000000000000000000000000000000000000000000000000000000000000000000000000000000000000000000000000000000000000000000000000000000000000000000000000000000000000000000000000000000000000000000000000000000000000000000000000000000000000000000000000000000000000000000000000000000000000000000000000000000000008001887fffffffffffffff826dd48203e842a000000000000000000000000000000000000000000000000000000000000200008800000000000000000ea056e81f171bcc55a6ff8345e692c0f86e5b48e01b996cadc001622fb5e363b4218080a00000000000000000000000000000000000000000000000000000000000000000f9013af90137808203e8847fc7181494095e7baea6a6c7c4c2dfeb977efac326af552d878478221579b8cf7f00000000000000000000000000000000000000000000000000000000000000017f000000000000000000000000000000000000000000000000000000000000c350417fffffffffffffffffffffffffffffffffffffffffffffffffffffffffffffffff7f000000000000000000000000000000000000000000000000000000000000c3507fffffffffffffffffffffffffffffffffffffffffffffffffffffffffffffffff407f000000000000000000000000945304eb96065b2a98b57a48a06ae28d285a71b5ff6b42909913521ba0475a702560a986808a151ed41e086942a1df4509e248e026d1e860620d371c42a041559dbfb03c79475371dad60910a99594ed9a5a6e6d49780e169306daeeea77c0c0",
                "transactions" : [
                    {
                        "data" : "0x7f00000000000000000000000000000000000000000000000000000000000000017f000000000000000000000000000000000000000000000000000000000000c350417fffffffffffffffffffffffffffffffffffffffffffffffffffffffffffffffff7f000000000000000000000000000000000000000000000000000000000000c3507fffffffffffffffffffffffffffffffffffffffffffffffffffffffffffffffff407f000000000000000000000000945304eb96065b2a98b57a48a06ae28d285a71b5ff6b4290991352",
                        "gasLimit" : "0x7fc71814",
                        "gasPrice" : "0x03e8",
                        "nonce" : "0x00",
                        "r" : "0x475a702560a986808a151ed41e086942a1df4509e248e026d1e860620d371c42",
                        "s" : "0x41559dbfb03c79475371dad60910a99594ed9a5a6e6d49780e169306daeeea77",
                        "sender" : "0xa94f5374fce5edbc8e2a8697c15331677e6ebf0b",
                        "to" : "0x095e7baea6a6c7c4c2dfeb977efac326af552d87",
                        "v" : "0x1b",
                        "value" : "0x78221579"
                    }
                ],
                "uncleHeaders" : [
                ],
                "withdrawals" : [
                ]
            }
        ],
        "config" : {
            "blobSchedule" : {
                "Cancun" : {
                    "baseFeeUpdateFraction" : "0x32f0ed",
                    "max" : "0x06",
                    "target" : "0x03"
                }
            },
            "chainid" : "0x01",
            "network" : "Cancun"
        },
        "genesisBlockHeader" : {
            "baseFeePerGas" : "0x10",
            "blobGasUsed" : "0x00",
            "bloom" : "0x00000000000000000000000000000000000000000000000000000000000000000000000000000000000000000000000000000000000000000000000000000000000000000000000000000000000000000000000000000000000000000000000000000000000000000000000000000000000000000000000000000000000000000000000000000000000000000000000000000000000000000000000000000000000000000000000000000000000000000000000000000000000000000000000000000000000000000000000000000000000000000000000000000000000000000000000000000000000000000000000000000000000000000000000000000000",
            "coinbase" : "0x945304eb96065b2a98b57a48a06ae28d285a71b5",
            "difficulty" : "0x00",
            "excessBlobGas" : "0x00",
            "extraData" : "0x42",
            "gasLimit" : "0x7fffffffffffffff",
            "gasUsed" : "0x00",
            "hash" : "0xa718621811b8280e81203f0e607de4f1b2ec3598ba8f2b586fe79146d5143f01",
            "mixHash" : "0x0000000000000000000000000000000000000000000000000000000000020000",
            "nonce" : "0x0000000000000000",
            "number" : "0x00",
            "parentBeaconBlockRoot" : "0x0000000000000000000000000000000000000000000000000000000000000000",
            "parentHash" : "0x0000000000000000000000000000000000000000000000000000000000000000",
            "receiptTrie" : "0x56e81f171bcc55a6ff8345e692c0f86e5b48e01b996cadc001622fb5e363b421",
            "stateRoot" : "0x39cd2261d9ac294561e452a76e871fac867e5bb199ed2645e7fd23d9e6be87fd",
            "timestamp" : "0x03b6",
            "transactionsTrie" : "0x56e81f171bcc55a6ff8345e692c0f86e5b48e01b996cadc001622fb5e363b421",
            "uncleHash" : "0x1dcc4de8dec75d7aab85b567b6ccd41ad312451b948a7413f0a142fd40d49347",
            "withdrawalsRoot" : "0x56e81f171bcc55a6ff8345e692c0f86e5b48e01b996cadc001622fb5e363b421"
        },
        "genesisRLP" : "0xf90242f9023ca00000000000000000000000000000000000000000000000000000000000000000a01dcc4de8dec75d7aab85b567b6ccd41ad312451b948a7413f0a142fd40d4934794945304eb96065b2a98b57a48a06ae28d285a71b5a039cd2261d9ac294561e452a76e871fac867e5bb199ed2645e7fd23d9e6be87fda056e81f171bcc55a6ff8345e692c0f86e5b48e01b996cadc001622fb5e363b421a056e81f171bcc55a6ff8345e692c0f86e5b48e01b996cadc001622fb5e363b421b90100000000000000000000000000000000000000000000000000000000000000000000000000000000000000000000000000000000000000000000000000000000000000000000000000000000000000000000000000000000000000000000000000000000000000000000000000000000000000000000000000000000000000000000000000000000000000000000000000000000000000000000000000000000000000000000000000000000000000000000000000000000000000000000000000000000000000000000000000000000000000000000000000000000000000000000000000000000000000000000000000000000000000000000000000000000008080887fffffffffffffff808203b642a0000000000000000000000000000000000000000000000000000000000002000088000000000000000010a056e81f171bcc55a6ff8345e692c0f86e5b48e01b996cadc001622fb5e363b4218080a00000000000000000000000000000000000000000000000000000000000000000c0c0c0",
        "lastblockhash" : "0xcfa7847d064dd98790cbcbcc628a619f8cdd8502c3a3f4fc463c23901f10b082",
        "network" : "Cancun",
        "postState" : {
            "0x000f3df6d732807ef1319fb7b8bb8522d0beac02" : {
                "balance" : "0x00",
                "code" : "0x3373fffffffffffffffffffffffffffffffffffffffe14604d57602036146024575f5ffd5b5f35801560495762001fff810690815414603c575f5ffd5b62001fff01545f5260205ff35b5f5ffd5b62001fff42064281555f359062001fff015500",
                "nonce" : "0x01",
                "storage" : {
                    "0x03b6" : "0x03b6",
                    "0x03e8" : "0x03e8",
                    "0x079e" : "0x079e"
                }
            },
            "0x095e7baea6a6c7c4c2dfeb977efac326af552d87" : {
                "balance" : "0x00",
                "code" : "0x7f00000000000000000000000000000000000000000000000000000000000000017f000000000000000000000000000000000000000000000000000000000000c350417fffffffffffffffffffffffffffffffffffffffffffffffffffffffffffffffff7f000000000000000000000000000000000000000000000000000000000000c3507fffffffffffffffffffffffffffffffffffffffffffffffffffffffffffffffff407f000000000000000000000000945304eb96065b2a98b57a48a06ae28d285a71b5ff6b4290991352",
                "nonce" : "0x00",
                "storage" : {
                }
            },
            "0x945304eb96065b2a98b57a48a06ae28d285a71b5" : {
                "balance" : "0x79c9182f",
                "code" : "0x6000355415600957005b60203560003555",
                "nonce" : "0x00",
                "storage" : {
                }
            },
            "0xa94f5374fce5edbc8e2a8697c15331677e6ebf0b" : {
                "balance" : "0x0de0b6b32d94e667",
                "code" : "0x",
                "nonce" : "0x01",
                "storage" : {
                }
            }
        },
        "pre" : {
            "0x000f3df6d732807ef1319fb7b8bb8522d0beac02" : {
                "balance" : "0x00",
                "code" : "0x3373fffffffffffffffffffffffffffffffffffffffe14604d57602036146024575f5ffd5b5f35801560495762001fff810690815414603c575f5ffd5b62001fff01545f5260205ff35b5f5ffd5b62001fff42064281555f359062001fff015500",
                "nonce" : "0x01",
                "storage" : {
                    "0x03b6" : "0x03b6",
                    "0x03e8" : "0x03e8",
                    "0x079e" : "0x079e"
                }
            },
            "0x095e7baea6a6c7c4c2dfeb977efac326af552d87" : {
                "balance" : "0x00",
                "code" : "0x7f00000000000000000000000000000000000000000000000000000000000000017f000000000000000000000000000000000000000000000000000000000000c350417fffffffffffffffffffffffffffffffffffffffffffffffffffffffffffffffff7f000000000000000000000000000000000000000000000000000000000000c3507fffffffffffffffffffffffffffffffffffffffffffffffffffffffffffffffff407f000000000000000000000000945304eb96065b2a98b57a48a06ae28d285a71b5ff6b4290991352",
                "nonce" : "0x00",
                "storage" : {
                }
            },
            "0x945304eb96065b2a98b57a48a06ae28d285a71b5" : {
                "balance" : "0x2e",
                "code" : "0x6000355415600957005b60203560003555",
                "nonce" : "0x00",
                "storage" : {
                }
            },
            "0xa94f5374fce5edbc8e2a8697c15331677e6ebf0b" : {
                "balance" : "0x0de0b6b3a7640000",
                "code" : "0x",
                "nonce" : "0x00",
                "storage" : {
                }
            }
        },
        "sealEngine" : "NoProof"
    },
    "randomStatetest193BC_Prague" : {
        "_info" : {
            "comment" : "",
            "filling-rpc-server" : "evmone-t8n 0.14.0-13+commit.4d363c36",
            "filling-tool-version" : "retesteth-0.3.2-legacy+commit.ca7f4c79.Linux.g++",
            "fixture-format" : "blockchain_test",
            "generatedTestHash" : "f81fe94af3ffa954c92e69640dc7aaae2f99b60ea7f427544ab8b169969a93ab",
            "lllcversion" : "Version: 0.5.14-develop.2024.11.5+commit.b2b86751.mod.Linux.g++",
            "solidity" : "Version: 0.8.24+commit.e11b9ed9.Linux.g++",
            "source" : "src/BlockchainTestsFiller/ValidBlocks/bcRandomBlockhashTest/randomStatetest193BCFiller.json",
            "sourceHash" : "cf967cbe2f4ec1b329548b1eb30a4e074e7d8c97a6ba2a75620708b27b68b6be"
        },
        "blocks" : [
            {
                "blockHeader" : {
                    "baseFeePerGas" : "0x0e",
                    "blobGasUsed" : "0x00",
                    "bloom" : "0x00000000000000000000000000000000000000000000000000000000000000000000000000000000000000000000000000000000000000000000000000000000000000000000000000000000000000000000000000000000000000000000000000000000000000000000000000000000000000000000000000000000000000000000000000000000000000000000000000000000000000000000000000000000000000000000000000000000000000000000000000000000000000000000000000000000000000000000000000000000000000000000000000000000000000000000000000000000000000000000000000000000000000000000000000000000",
                    "coinbase" : "0x945304eb96065b2a98b57a48a06ae28d285a71b5",
                    "difficulty" : "0x00",
                    "excessBlobGas" : "0x00",
                    "extraData" : "0x42",
                    "gasLimit" : "0x7fffffffffffffff",
                    "gasUsed" : "0x6dd4",
                    "hash" : "0xb10cc382dd36e23d9c9ecde3cceab41cd31d63f90d93251cda11cfff6bb2a763",
                    "mixHash" : "0x0000000000000000000000000000000000000000000000000000000000020000",
                    "nonce" : "0x0000000000000000",
                    "number" : "0x01",
                    "parentBeaconBlockRoot" : "0x0000000000000000000000000000000000000000000000000000000000000000",
                    "parentHash" : "0x24ab2c19959c41cc988faa38c3036d72e71cefef0eed67b1cdfc4c4111d25b29",
                    "receiptTrie" : "0xc7e824c6859cd9d9fa034cd98c3a8690da3faaad58457265d039364c0e566089",
                    "requestsHash" : "0xe3b0c44298fc1c149afbf4c8996fb92427ae41e4649b934ca495991b7852b855",
                    "stateRoot" : "0x853f7dda54cb63405a8bb44109b2f25d40c46eb0f8228ecf0e5c0a911e425831",
                    "timestamp" : "0x03e8",
                    "transactionsTrie" : "0x54b2430c8b6efbaf847a2962ccbbeefe0ab82e2c831503373a7984120a1d03b8",
                    "uncleHash" : "0x1dcc4de8dec75d7aab85b567b6ccd41ad312451b948a7413f0a142fd40d49347",
                    "withdrawalsRoot" : "0x56e81f171bcc55a6ff8345e692c0f86e5b48e01b996cadc001622fb5e363b421"
                },
                "blocknumber" : "1",
                "chainname" : "default",
                "rlp" : "0xf903a1f9025fa024ab2c19959c41cc988faa38c3036d72e71cefef0eed67b1cdfc4c4111d25b29a01dcc4de8dec75d7aab85b567b6ccd41ad312451b948a7413f0a142fd40d4934794945304eb96065b2a98b57a48a06ae28d285a71b5a0853f7dda54cb63405a8bb44109b2f25d40c46eb0f8228ecf0e5c0a911e425831a054b2430c8b6efbaf847a2962ccbbeefe0ab82e2c831503373a7984120a1d03b8a0c7e824c6859cd9d9fa034cd98c3a8690da3faaad58457265d039364c0e566089b90100000000000000000000000000000000000000000000000000000000000000000000000000000000000000000000000000000000000000000000000000000000000000000000000000000000000000000000000000000000000000000000000000000000000000000000000000000000000000000000000000000000000000000000000000000000000000000000000000000000000000000000000000000000000000000000000000000000000000000000000000000000000000000000000000000000000000000000000000000000000000000000000000000000000000000000000000000000000000000000000000000000000000000000000000000000008001887fffffffffffffff826dd48203e842a000000000000000000000000000000000000000000000000000000000000200008800000000000000000ea056e81f171bcc55a6ff8345e692c0f86e5b48e01b996cadc001622fb5e363b4218080a00000000000000000000000000000000000000000000000000000000000000000a0e3b0c44298fc1c149afbf4c8996fb92427ae41e4649b934ca495991b7852b855f9013af90137808203e8847fc7181494095e7baea6a6c7c4c2dfeb977efac326af552d878478221579b8cf7f00000000000000000000000000000000000000000000000000000000000000017f000000000000000000000000000000000000000000000000000000000000c350417fffffffffffffffffffffffffffffffffffffffffffffffffffffffffffffffff7f000000000000000000000000000000000000000000000000000000000000c3507fffffffffffffffffffffffffffffffffffffffffffffffffffffffffffffffff407f000000000000000000000000945304eb96065b2a98b57a48a06ae28d285a71b5ff6b42909913521ba0475a702560a986808a151ed41e086942a1df4509e248e026d1e860620d371c42a041559dbfb03c79475371dad60910a99594ed9a5a6e6d49780e169306daeeea77c0c0",
                "transactions" : [
                    {
                        "data" : "0x7f00000000000000000000000000000000000000000000000000000000000000017f000000000000000000000000000000000000000000000000000000000000c350417fffffffffffffffffffffffffffffffffffffffffffffffffffffffffffffffff7f000000000000000000000000000000000000000000000000000000000000c3507fffffffffffffffffffffffffffffffffffffffffffffffffffffffffffffffff407f000000000000000000000000945304eb96065b2a98b57a48a06ae28d285a71b5ff6b4290991352",
                        "gasLimit" : "0x7fc71814",
                        "gasPrice" : "0x03e8",
                        "nonce" : "0x00",
                        "r" : "0x475a702560a986808a151ed41e086942a1df4509e248e026d1e860620d371c42",
                        "s" : "0x41559dbfb03c79475371dad60910a99594ed9a5a6e6d49780e169306daeeea77",
                        "sender" : "0xa94f5374fce5edbc8e2a8697c15331677e6ebf0b",
                        "to" : "0x095e7baea6a6c7c4c2dfeb977efac326af552d87",
                        "v" : "0x1b",
                        "value" : "0x78221579"
                    }
                ],
                "uncleHeaders" : [
                ],
                "withdrawals" : [
                ]
            }
        ],
        "config" : {
            "blobSchedule" : {
                "Prague" : {
                    "baseFeeUpdateFraction" : "0x4c6964",
                    "max" : "0x09",
                    "target" : "0x06"
                }
            },
            "chainid" : "0x01",
            "network" : "Prague"
        },
        "genesisBlockHeader" : {
            "baseFeePerGas" : "0x10",
            "blobGasUsed" : "0x00",
            "bloom" : "0x00000000000000000000000000000000000000000000000000000000000000000000000000000000000000000000000000000000000000000000000000000000000000000000000000000000000000000000000000000000000000000000000000000000000000000000000000000000000000000000000000000000000000000000000000000000000000000000000000000000000000000000000000000000000000000000000000000000000000000000000000000000000000000000000000000000000000000000000000000000000000000000000000000000000000000000000000000000000000000000000000000000000000000000000000000000",
            "coinbase" : "0x945304eb96065b2a98b57a48a06ae28d285a71b5",
            "difficulty" : "0x00",
            "excessBlobGas" : "0x00",
            "extraData" : "0x42",
            "gasLimit" : "0x7fffffffffffffff",
            "gasUsed" : "0x00",
            "hash" : "0x24ab2c19959c41cc988faa38c3036d72e71cefef0eed67b1cdfc4c4111d25b29",
            "mixHash" : "0x0000000000000000000000000000000000000000000000000000000000020000",
            "nonce" : "0x0000000000000000",
            "number" : "0x00",
            "parentBeaconBlockRoot" : "0x0000000000000000000000000000000000000000000000000000000000000000",
            "parentHash" : "0x0000000000000000000000000000000000000000000000000000000000000000",
            "receiptTrie" : "0x56e81f171bcc55a6ff8345e692c0f86e5b48e01b996cadc001622fb5e363b421",
            "requestsHash" : "0xe3b0c44298fc1c149afbf4c8996fb92427ae41e4649b934ca495991b7852b855",
            "stateRoot" : "0xf7a3fabc900964178fc1ba50cf228f2737424a824db56ec5704c7f76143226e7",
            "timestamp" : "0x03b6",
            "transactionsTrie" : "0x56e81f171bcc55a6ff8345e692c0f86e5b48e01b996cadc001622fb5e363b421",
            "uncleHash" : "0x1dcc4de8dec75d7aab85b567b6ccd41ad312451b948a7413f0a142fd40d49347",
            "withdrawalsRoot" : "0x56e81f171bcc55a6ff8345e692c0f86e5b48e01b996cadc001622fb5e363b421"
        },
        "genesisRLP" : "0xf90263f9025da00000000000000000000000000000000000000000000000000000000000000000a01dcc4de8dec75d7aab85b567b6ccd41ad312451b948a7413f0a142fd40d4934794945304eb96065b2a98b57a48a06ae28d285a71b5a0f7a3fabc900964178fc1ba50cf228f2737424a824db56ec5704c7f76143226e7a056e81f171bcc55a6ff8345e692c0f86e5b48e01b996cadc001622fb5e363b421a056e81f171bcc55a6ff8345e692c0f86e5b48e01b996cadc001622fb5e363b421b90100000000000000000000000000000000000000000000000000000000000000000000000000000000000000000000000000000000000000000000000000000000000000000000000000000000000000000000000000000000000000000000000000000000000000000000000000000000000000000000000000000000000000000000000000000000000000000000000000000000000000000000000000000000000000000000000000000000000000000000000000000000000000000000000000000000000000000000000000000000000000000000000000000000000000000000000000000000000000000000000000000000000000000000000000000000008080887fffffffffffffff808203b642a0000000000000000000000000000000000000000000000000000000000002000088000000000000000010a056e81f171bcc55a6ff8345e692c0f86e5b48e01b996cadc001622fb5e363b4218080a00000000000000000000000000000000000000000000000000000000000000000a0e3b0c44298fc1c149afbf4c8996fb92427ae41e4649b934ca495991b7852b855c0c0c0",
        "lastblockhash" : "0xb10cc382dd36e23d9c9ecde3cceab41cd31d63f90d93251cda11cfff6bb2a763",
        "network" : "Prague",
        "postState" : {
            "0x0000f90827f1c53a10cb7a02335b175320002935" : {
                "balance" : "0x00",
                "code" : "0x3373fffffffffffffffffffffffffffffffffffffffe14604657602036036042575f35600143038111604257611fff81430311604257611fff9006545f5260205ff35b5f5ffd5b5f35611fff60014303065500",
                "nonce" : "0x01",
                "storage" : {
                    "0x00" : "0x24ab2c19959c41cc988faa38c3036d72e71cefef0eed67b1cdfc4c4111d25b29"
                }
            },
            "0x000f3df6d732807ef1319fb7b8bb8522d0beac02" : {
                "balance" : "0x00",
                "code" : "0x3373fffffffffffffffffffffffffffffffffffffffe14604d57602036146024575f5ffd5b5f35801560495762001fff810690815414603c575f5ffd5b62001fff01545f5260205ff35b5f5ffd5b62001fff42064281555f359062001fff015500",
                "nonce" : "0x01",
                "storage" : {
                    "0x03b6" : "0x03b6",
                    "0x03e8" : "0x03e8",
                    "0x079e" : "0x079e"
                }
            },
            "0x095e7baea6a6c7c4c2dfeb977efac326af552d87" : {
                "balance" : "0x00",
                "code" : "0x7f00000000000000000000000000000000000000000000000000000000000000017f000000000000000000000000000000000000000000000000000000000000c350417fffffffffffffffffffffffffffffffffffffffffffffffffffffffffffffffff7f000000000000000000000000000000000000000000000000000000000000c3507fffffffffffffffffffffffffffffffffffffffffffffffffffffffffffffffff407f000000000000000000000000945304eb96065b2a98b57a48a06ae28d285a71b5ff6b4290991352",
                "nonce" : "0x00",
                "storage" : {
                }
            },
            "0x945304eb96065b2a98b57a48a06ae28d285a71b5" : {
                "balance" : "0x79c9182f",
                "code" : "0x6000355415600957005b60203560003555",
                "nonce" : "0x00",
                "storage" : {
                }
            },
            "0xa94f5374fce5edbc8e2a8697c15331677e6ebf0b" : {
                "balance" : "0x0de0b6b32d94e667",
                "code" : "0x",
                "nonce" : "0x01",
                "storage" : {
                }
            }
        },
        "pre" : {
            "0x0000f90827f1c53a10cb7a02335b175320002935" : {
                "balance" : "0x00",
                "code" : "0x3373fffffffffffffffffffffffffffffffffffffffe14604657602036036042575f35600143038111604257611fff81430311604257611fff9006545f5260205ff35b5f5ffd5b5f35611fff60014303065500",
                "nonce" : "0x01",
                "storage" : {
                }
            },
            "0x000f3df6d732807ef1319fb7b8bb8522d0beac02" : {
                "balance" : "0x00",
                "code" : "0x3373fffffffffffffffffffffffffffffffffffffffe14604d57602036146024575f5ffd5b5f35801560495762001fff810690815414603c575f5ffd5b62001fff01545f5260205ff35b5f5ffd5b62001fff42064281555f359062001fff015500",
                "nonce" : "0x01",
                "storage" : {
                    "0x03b6" : "0x03b6",
                    "0x03e8" : "0x03e8",
                    "0x079e" : "0x079e"
                }
            },
            "0x095e7baea6a6c7c4c2dfeb977efac326af552d87" : {
                "balance" : "0x00",
                "code" : "0x7f00000000000000000000000000000000000000000000000000000000000000017f000000000000000000000000000000000000000000000000000000000000c350417fffffffffffffffffffffffffffffffffffffffffffffffffffffffffffffffff7f000000000000000000000000000000000000000000000000000000000000c3507fffffffffffffffffffffffffffffffffffffffffffffffffffffffffffffffff407f000000000000000000000000945304eb96065b2a98b57a48a06ae28d285a71b5ff6b4290991352",
                "nonce" : "0x00",
                "storage" : {
                }
            },
            "0x945304eb96065b2a98b57a48a06ae28d285a71b5" : {
                "balance" : "0x2e",
                "code" : "0x6000355415600957005b60203560003555",
                "nonce" : "0x00",
                "storage" : {
                }
            },
            "0xa94f5374fce5edbc8e2a8697c15331677e6ebf0b" : {
                "balance" : "0x0de0b6b3a7640000",
                "code" : "0x",
                "nonce" : "0x00",
                "storage" : {
                }
            }
        },
        "sealEngine" : "NoProof"
    }
}