{
    "BLOCKHASH_Bounds_Cancun" : {
        "_info" : {
            "comment" : "",
            "filling-rpc-server" : "evmone-t8n 0.14.0-13+commit.4d363c36",
            "filling-tool-version" : "retesteth-0.3.2-legacy+commit.ca7f4c79.Linux.g++",
            "fixture-format" : "blockchain_test",
            "generatedTestHash" : "35ee49e3ac3d7f4418d10ff037b0e5fe7064ce99ed114c86fb0322ae708075ac",
            "lllcversion" : "Version: 0.5.14-develop.2024.11.5+commit.b2b86751.mod.Linux.g++",
            "hyperion" : "Version: 0.8.24+commit.e11b9ed9.Linux.g++",
            "source" : "src/BlockchainTestsFiller/ValidBlocks/bcStateTests/BLOCKHASH_BoundsFiller.json",
            "sourceHash" : "ace89466c5724ef1ec5af8f21f832d30f3205fe1954329eaf1632e74f7a98ec7"
        },
        "blocks" : [
            {
                "blockHeader" : {
                    "baseFeePerGas" : "0x0e",
                    "bloom" : "0x00000000000000000000000000000000000000000000000000000000000000000000000000000000000000000000000000000000000000000000000000000000000000000000000000000000000000000000000000000000000000000000000000000000000000000000000000000000000000000000000000000000000000000000000000000000000000000000000000000000000000000000000000000000000000000000000000000000000000000000000000000000000000000000000000000000000000000000000000000000000000000000000000000000000000000000000000000000000000000000000000000000000000000000000000000000",
                    "coinbase" : "Z2adc25665018aa1fe0e6bc666dac8fc2697ff9ba",
                    "extraData" : "0x42",
                    "gasLimit" : "0x7fffffffffffffff",
                    "gasUsed" : "0x01e884",
                    "hash" : "0x4da25f2a80281884bd56904548e08b952d9d03151e46fc46c5e02bb973ca6b14",
                    "mixHash" : "0x0000000000000000000000000000000000000000000000000000000000020000",
                    "nonce" : "0x0000000000000000",
                    "number" : "0x01",
                    "parentHash" : "0x1794a552a3f115bfad69ee9c5ac31a3c058f9ed84fc003bd3d9a870020e21043",
                    "receiptTrie" : "0xdabfd8655b94abbfee33cb3881810d01163119e66d476a1079a6bbe11e4fc276",
                    "stateRoot" : "0x5cf4c9707eb6d3983e89ef5d4f4402fab64846750fb9186f8fb3d938bcd0d73a",
                    "timestamp" : "0x079e",
                    "transactionsTrie" : "0x7f06626288d8c93e0a9a35928d4a2ceaae325b35df73a21203555bc4e6803f4e",
                    "withdrawalsRoot" : "0x56e81f171bcc55a6ff8345e692c0f86e5b48e01b996cadc001622fb5e363b421"
                },
                "blocknumber" : "1",
                "chainname" : "default",
                "rlp" : "0xf90374f9023fa01794a552a3f115bfad69ee9c5ac31a3c058f9ed84fc003bd3d9a870020e21043a01dcc4de8dec75d7aab85b567b6ccd41ad312451b948a7413f0a142fd40d49347942adc25665018aa1fe0e6bc666dac8fc2697ff9baa05cf4c9707eb6d3983e89ef5d4f4402fab64846750fb9186f8fb3d938bcd0d73aa07f06626288d8c93e0a9a35928d4a2ceaae325b35df73a21203555bc4e6803f4ea0dabfd8655b94abbfee33cb3881810d01163119e66d476a1079a6bbe11e4fc276b90100000000000000000000000000000000000000000000000000000000000000000000000000000000000000000000000000000000000000000000000000000000000000000000000000000000000000000000000000000000000000000000000000000000000000000000000000000000000000000000000000000000000000000000000000000000000000000000000000000000000000000000000000000000000000000000000000000000000000000000000000000000000000000000000000000000000000000000000000000000000000000000000000000000000000000000000000000000000000000000000000000000000000000000000000000000008001887fffffffffffffff8301e88482079e42a000000000000000000000000000000000000000000000000000000000000200008800000000000000000ea056e81f171bcc55a6ff8345e692c0f86e5b48e01b996cadc001622fb5e363b4218080a00000000000000000000000000000000000000000000000000000000000000000f9012df862808203e8830249f094100000000000000000000000000000000000000001801ca036fd4f85802471f3ca398acbc42cd94eb622f8e84a29b2aed321c9a1a08c70a2a0727f67e64d733d1b6fd6e875ff4640104187cdc0107b35e47a034f719e1cffe7f862808203e8830f424094100000000000000000000000000000000000000101801ca08a21ae3da32ba93164b7ffc41c19fcb3eca5e13966b6ccfe1eb67665e1d683d3a044ba0667ad0e394d97058ee335ecac2c536c8b30b3696428055bdad5cd2c050ef863808203e8840ee6b28094100000000000000000000000000000000000000201801ca0b3a72d78cad07bfcee68190e2133266daf3c91dc558e73a78c80cac2d92a908da05a70e7b9b7757564d7a562eaa8487692785dc9cfaf821a48fcac7bd18d9ed53bc0c0",
                "transactions" : [
                    {
                        "data" : "0x",
                        "gasLimit" : "0x0249f0",
                        "gasPrice" : "0x03e8",
                        "nonce" : "0x00",
                        "signature" : "0x36fd4f85802471f3ca398acbc42cd94eb622f8e84a29b2aed321c9a1a08c70a2",
                        "s" : "0x727f67e64d733d1b6fd6e875ff4640104187cdc0107b35e47a034f719e1cffe7",
                        "sender" : "Za94f5374fce5edbc8e2a8697c15331677e6ebf0b",
                        "to" : "Z1000000000000000000000000000000000000000",
                        "v" : "0x1c",
                        "value" : "0x01"
                    },
                    {
                        "data" : "0x",
                        "gasLimit" : "0x0f4240",
                        "gasPrice" : "0x03e8",
                        "nonce" : "0x00",
                        "signature" : "0x8a21ae3da32ba93164b7ffc41c19fcb3eca5e13966b6ccfe1eb67665e1d683d3",
                        "s" : "0x44ba0667ad0e394d97058ee335ecac2c536c8b30b3696428055bdad5cd2c050e",
                        "sender" : "Z55d786df68385b59b919e0bfee2a8ada2d23ecf8",
                        "to" : "Z1000000000000000000000000000000000000001",
                        "v" : "0x1c",
                        "value" : "0x01"
                    },
                    {
                        "data" : "0x",
                        "gasLimit" : "0x0ee6b280",
                        "gasPrice" : "0x03e8",
                        "nonce" : "0x00",
                        "signature" : "0xb3a72d78cad07bfcee68190e2133266daf3c91dc558e73a78c80cac2d92a908d",
                        "s" : "0x5a70e7b9b7757564d7a562eaa8487692785dc9cfaf821a48fcac7bd18d9ed53b",
                        "sender" : "Z37c5d39d78433a054b0a470ade8ac1998abfcc06",
                        "to" : "Z1000000000000000000000000000000000000002",
                        "v" : "0x1c",
                        "value" : "0x01"
                    }
                ],
                "uncleHeaders" : [
                ],
                "withdrawals" : [
                ]
            }
        ],
        "config" : {
            "blobSchedule" : {
                "Cancun" : {
                    "baseFeeUpdateFraction" : "0x32f0ed",
                    "max" : "0x06",
                    "target" : "0x03"
                }
            },
            "chainid" : "0x01",
            "network" : "Cancun"
        },
        "genesisBlockHeader" : {
            "baseFeePerGas" : "0x10",
            "bloom" : "0x00000000000000000000000000000000000000000000000000000000000000000000000000000000000000000000000000000000000000000000000000000000000000000000000000000000000000000000000000000000000000000000000000000000000000000000000000000000000000000000000000000000000000000000000000000000000000000000000000000000000000000000000000000000000000000000000000000000000000000000000000000000000000000000000000000000000000000000000000000000000000000000000000000000000000000000000000000000000000000000000000000000000000000000000000000000",
            "coinbase" : "Z2adc25665018aa1fe0e6bc666dac8fc2697ff9ba",
            "extraData" : "0x42",
            "gasLimit" : "0x7fffffffffffffff",
            "gasUsed" : "0x00",
            "hash" : "0x1794a552a3f115bfad69ee9c5ac31a3c058f9ed84fc003bd3d9a870020e21043",
            "mixHash" : "0x0000000000000000000000000000000000000000000000000000000000020000",
            "nonce" : "0x0000000000000000",
            "number" : "0x00",
            "parentHash" : "0x0000000000000000000000000000000000000000000000000000000000000000",
            "receiptTrie" : "0x56e81f171bcc55a6ff8345e692c0f86e5b48e01b996cadc001622fb5e363b421",
            "stateRoot" : "0xec1b0de3521d5cfbc64d0d7989d9f955894ac33824fd02c0903bbfd9e39b0318",
            "timestamp" : "0x03b6",
            "transactionsTrie" : "0x56e81f171bcc55a6ff8345e692c0f86e5b48e01b996cadc001622fb5e363b421",
            "withdrawalsRoot" : "0x56e81f171bcc55a6ff8345e692c0f86e5b48e01b996cadc001622fb5e363b421"
        },
        "genesisRLP" : "0xf90242f9023ca00000000000000000000000000000000000000000000000000000000000000000a01dcc4de8dec75d7aab85b567b6ccd41ad312451b948a7413f0a142fd40d49347942adc25665018aa1fe0e6bc666dac8fc2697ff9baa0ec1b0de3521d5cfbc64d0d7989d9f955894ac33824fd02c0903bbfd9e39b0318a056e81f171bcc55a6ff8345e692c0f86e5b48e01b996cadc001622fb5e363b421a056e81f171bcc55a6ff8345e692c0f86e5b48e01b996cadc001622fb5e363b421b90100000000000000000000000000000000000000000000000000000000000000000000000000000000000000000000000000000000000000000000000000000000000000000000000000000000000000000000000000000000000000000000000000000000000000000000000000000000000000000000000000000000000000000000000000000000000000000000000000000000000000000000000000000000000000000000000000000000000000000000000000000000000000000000000000000000000000000000000000000000000000000000000000000000000000000000000000000000000000000000000000000000000000000000000000000000008080887fffffffffffffff808203b642a0000000000000000000000000000000000000000000000000000000000002000088000000000000000010a056e81f171bcc55a6ff8345e692c0f86e5b48e01b996cadc001622fb5e363b4218080a00000000000000000000000000000000000000000000000000000000000000000c0c0c0",
        "lastblockhash" : "0x4da25f2a80281884bd56904548e08b952d9d03151e46fc46c5e02bb973ca6b14",
        "network" : "Cancun",
        "postState" : {
            "0x000f3df6d732807ef1319fb7b8bb8522d0beac02" : {
                "balance" : "0x00",
                "code" : "0x3373fffffffffffffffffffffffffffffffffffffffe14604d57602036146024575f5ffd5b5f35801560495762001fff810690815414603c575f5ffd5b62001fff01545f5260205ff35b5f5ffd5b62001fff42064281555f359062001fff015500",
                "nonce" : "0x01",
                "storage" : {
                    "0x03b6" : "0x03b6",
                    "0x079e" : "0x079e"
                }
            },
            "0x1000000000000000000000000000000000000000" : {
                "balance" : "0x01",
                "code" : "0x60004060005563ffffffff4060015567ffffffffffffffff406002556fffffffffffffffffffffffffffffffff406003557fffffffffffffffffffffffffffffffffffffffffffffffffffffffffffffffff40600455",
                "nonce" : "0x00",
                "storage" : {
                    "0x00" : "0x1794a552a3f115bfad69ee9c5ac31a3c058f9ed84fc003bd3d9a870020e21043"
                }
            },
            "0x1000000000000000000000000000000000000001" : {
                "balance" : "0x01",
                "code" : "0x60004060005563ffffffff4060015567ffffffffffffffff406002556fffffffffffffffffffffffffffffffff406003557fffffffffffffffffffffffffffffffffffffffffffffffffffffffffffffffff40600455",
                "nonce" : "0x00",
                "storage" : {
                    "0x00" : "0x1794a552a3f115bfad69ee9c5ac31a3c058f9ed84fc003bd3d9a870020e21043"
                }
            },
            "0x1000000000000000000000000000000000000002" : {
                "balance" : "0x01",
                "code" : "0x",
                "nonce" : "0x00",
                "storage" : {
                }
            },
            "0x2adc25665018aa1fe0e6bc666dac8fc2697ff9ba" : {
                "balance" : "0x07598c68",
                "code" : "0x",
                "nonce" : "0x00",
                "storage" : {
                }
            },
            "0x37c5d39d78433a054b0a470ade8ac1998abfcc06" : {
                "balance" : "0x7ffffffffebf90be",
                "code" : "0x",
                "nonce" : "0x01",
                "storage" : {
                }
            },
            "0x55d786df68385b59b919e0bfee2a8ada2d23ecf8" : {
                "balance" : "0x7ffffffffce615ce",
                "code" : "0x",
                "nonce" : "0x01",
                "storage" : {
                }
            },
            "0xa94f5374fce5edbc8e2a8697c15331677e6ebf0b" : {
                "balance" : "0x7ffffffffce615ce",
                "code" : "0x",
                "nonce" : "0x01",
                "storage" : {
                }
            }
        },
        "pre" : {
            "0x000f3df6d732807ef1319fb7b8bb8522d0beac02" : {
                "balance" : "0x00",
                "code" : "0x3373fffffffffffffffffffffffffffffffffffffffe14604d57602036146024575f5ffd5b5f35801560495762001fff810690815414603c575f5ffd5b62001fff01545f5260205ff35b5f5ffd5b62001fff42064281555f359062001fff015500",
                "nonce" : "0x01",
                "storage" : {
                    "0x03b6" : "0x03b6"
                }
            },
            "0x1000000000000000000000000000000000000000" : {
                "balance" : "0x00",
                "code" : "0x60004060005563ffffffff4060015567ffffffffffffffff406002556fffffffffffffffffffffffffffffffff406003557fffffffffffffffffffffffffffffffffffffffffffffffffffffffffffffffff40600455",
                "nonce" : "0x00",
                "storage" : {
                }
            },
            "0x1000000000000000000000000000000000000001" : {
                "balance" : "0x00",
                "code" : "0x60004060005563ffffffff4060015567ffffffffffffffff406002556fffffffffffffffffffffffffffffffff406003557fffffffffffffffffffffffffffffffffffffffffffffffffffffffffffffffff40600455",
                "nonce" : "0x00",
                "storage" : {
                }
            },
            "0x37c5d39d78433a054b0a470ade8ac1998abfcc06" : {
                "balance" : "0x7fffffffffffffff",
                "code" : "0x",
                "nonce" : "0x00",
                "storage" : {
                }
            },
            "0x55d786df68385b59b919e0bfee2a8ada2d23ecf8" : {
                "balance" : "0x7fffffffffffffff",
                "code" : "0x",
                "nonce" : "0x00",
                "storage" : {
                }
            },
            "0xa94f5374fce5edbc8e2a8697c15331677e6ebf0b" : {
                "balance" : "0x7fffffffffffffff",
                "code" : "0x",
                "nonce" : "0x00",
                "storage" : {
                }
            }
        },
        "sealEngine" : "NoProof"
    },
    "BLOCKHASH_Bounds_Prague" : {
        "_info" : {
            "comment" : "",
            "filling-rpc-server" : "evmone-t8n 0.14.0-13+commit.4d363c36",
            "filling-tool-version" : "retesteth-0.3.2-legacy+commit.ca7f4c79.Linux.g++",
            "fixture-format" : "blockchain_test",
            "generatedTestHash" : "a88d7a4525347a47b6b8d7b1dceebcd3cd94f52107654da2ad8496f11f9f6282",
            "lllcversion" : "Version: 0.5.14-develop.2024.11.5+commit.b2b86751.mod.Linux.g++",
            "hyperion" : "Version: 0.8.24+commit.e11b9ed9.Linux.g++",
            "source" : "src/BlockchainTestsFiller/ValidBlocks/bcStateTests/BLOCKHASH_BoundsFiller.json",
            "sourceHash" : "ace89466c5724ef1ec5af8f21f832d30f3205fe1954329eaf1632e74f7a98ec7"
        },
        "blocks" : [
            {
                "blockHeader" : {
                    "baseFeePerGas" : "0x0e",
                    "bloom" : "0x00000000000000000000000000000000000000000000000000000000000000000000000000000000000000000000000000000000000000000000000000000000000000000000000000000000000000000000000000000000000000000000000000000000000000000000000000000000000000000000000000000000000000000000000000000000000000000000000000000000000000000000000000000000000000000000000000000000000000000000000000000000000000000000000000000000000000000000000000000000000000000000000000000000000000000000000000000000000000000000000000000000000000000000000000000000",
                    "coinbase" : "Z2adc25665018aa1fe0e6bc666dac8fc2697ff9ba",
                    "extraData" : "0x42",
                    "gasLimit" : "0x7fffffffffffffff",
                    "gasUsed" : "0x01e884",
                    "hash" : "0x074b809cc8cde3db33552da438ba9625c0abe91249d5da5d5eeb791020c71627",
                    "mixHash" : "0x0000000000000000000000000000000000000000000000000000000000020000",
                    "nonce" : "0x0000000000000000",
                    "number" : "0x01",
                    "parentHash" : "0x58789b10501146731e86907057c59ff3070e43113967b186fa91f2901a29f966",
                    "receiptTrie" : "0xdabfd8655b94abbfee33cb3881810d01163119e66d476a1079a6bbe11e4fc276",
                    "requestsHash" : "0xe3b0c44298fc1c149afbf4c8996fb92427ae41e4649b934ca495991b7852b855",
                    "stateRoot" : "0x24ea0014f9a4be73ed6aa994039878cde6458c64d39e8696ff452f1850868dba",
                    "timestamp" : "0x079e",
                    "transactionsTrie" : "0x7f06626288d8c93e0a9a35928d4a2ceaae325b35df73a21203555bc4e6803f4e",
                    "withdrawalsRoot" : "0x56e81f171bcc55a6ff8345e692c0f86e5b48e01b996cadc001622fb5e363b421"
                },
                "blocknumber" : "1",
                "chainname" : "default",
                "rlp" : "0xf90395f90260a058789b10501146731e86907057c59ff3070e43113967b186fa91f2901a29f966a01dcc4de8dec75d7aab85b567b6ccd41ad312451b948a7413f0a142fd40d49347942adc25665018aa1fe0e6bc666dac8fc2697ff9baa024ea0014f9a4be73ed6aa994039878cde6458c64d39e8696ff452f1850868dbaa07f06626288d8c93e0a9a35928d4a2ceaae325b35df73a21203555bc4e6803f4ea0dabfd8655b94abbfee33cb3881810d01163119e66d476a1079a6bbe11e4fc276b90100000000000000000000000000000000000000000000000000000000000000000000000000000000000000000000000000000000000000000000000000000000000000000000000000000000000000000000000000000000000000000000000000000000000000000000000000000000000000000000000000000000000000000000000000000000000000000000000000000000000000000000000000000000000000000000000000000000000000000000000000000000000000000000000000000000000000000000000000000000000000000000000000000000000000000000000000000000000000000000000000000000000000000000000000000000008001887fffffffffffffff8301e88482079e42a000000000000000000000000000000000000000000000000000000000000200008800000000000000000ea056e81f171bcc55a6ff8345e692c0f86e5b48e01b996cadc001622fb5e363b4218080a00000000000000000000000000000000000000000000000000000000000000000a0e3b0c44298fc1c149afbf4c8996fb92427ae41e4649b934ca495991b7852b855f9012df862808203e8830249f094100000000000000000000000000000000000000001801ca036fd4f85802471f3ca398acbc42cd94eb622f8e84a29b2aed321c9a1a08c70a2a0727f67e64d733d1b6fd6e875ff4640104187cdc0107b35e47a034f719e1cffe7f862808203e8830f424094100000000000000000000000000000000000000101801ca08a21ae3da32ba93164b7ffc41c19fcb3eca5e13966b6ccfe1eb67665e1d683d3a044ba0667ad0e394d97058ee335ecac2c536c8b30b3696428055bdad5cd2c050ef863808203e8840ee6b28094100000000000000000000000000000000000000201801ca0b3a72d78cad07bfcee68190e2133266daf3c91dc558e73a78c80cac2d92a908da05a70e7b9b7757564d7a562eaa8487692785dc9cfaf821a48fcac7bd18d9ed53bc0c0",
                "transactions" : [
                    {
                        "data" : "0x",
                        "gasLimit" : "0x0249f0",
                        "gasPrice" : "0x03e8",
                        "nonce" : "0x00",
                        "signature" : "0x36fd4f85802471f3ca398acbc42cd94eb622f8e84a29b2aed321c9a1a08c70a2",
                        "s" : "0x727f67e64d733d1b6fd6e875ff4640104187cdc0107b35e47a034f719e1cffe7",
                        "sender" : "Za94f5374fce5edbc8e2a8697c15331677e6ebf0b",
                        "to" : "Z1000000000000000000000000000000000000000",
                        "v" : "0x1c",
                        "value" : "0x01"
                    },
                    {
                        "data" : "0x",
                        "gasLimit" : "0x0f4240",
                        "gasPrice" : "0x03e8",
                        "nonce" : "0x00",
                        "signature" : "0x8a21ae3da32ba93164b7ffc41c19fcb3eca5e13966b6ccfe1eb67665e1d683d3",
                        "s" : "0x44ba0667ad0e394d97058ee335ecac2c536c8b30b3696428055bdad5cd2c050e",
                        "sender" : "Z55d786df68385b59b919e0bfee2a8ada2d23ecf8",
                        "to" : "Z1000000000000000000000000000000000000001",
                        "v" : "0x1c",
                        "value" : "0x01"
                    },
                    {
                        "data" : "0x",
                        "gasLimit" : "0x0ee6b280",
                        "gasPrice" : "0x03e8",
                        "nonce" : "0x00",
                        "signature" : "0xb3a72d78cad07bfcee68190e2133266daf3c91dc558e73a78c80cac2d92a908d",
                        "s" : "0x5a70e7b9b7757564d7a562eaa8487692785dc9cfaf821a48fcac7bd18d9ed53b",
                        "sender" : "Z37c5d39d78433a054b0a470ade8ac1998abfcc06",
                        "to" : "Z1000000000000000000000000000000000000002",
                        "v" : "0x1c",
                        "value" : "0x01"
                    }
                ],
                "uncleHeaders" : [
                ],
                "withdrawals" : [
                ]
            }
        ],
        "config" : {
            "blobSchedule" : {
                "Prague" : {
                    "baseFeeUpdateFraction" : "0x4c6964",
                    "max" : "0x09",
                    "target" : "0x06"
                }
            },
            "chainid" : "0x01",
            "network" : "Prague"
        },
        "genesisBlockHeader" : {
            "baseFeePerGas" : "0x10",
            "bloom" : "0x00000000000000000000000000000000000000000000000000000000000000000000000000000000000000000000000000000000000000000000000000000000000000000000000000000000000000000000000000000000000000000000000000000000000000000000000000000000000000000000000000000000000000000000000000000000000000000000000000000000000000000000000000000000000000000000000000000000000000000000000000000000000000000000000000000000000000000000000000000000000000000000000000000000000000000000000000000000000000000000000000000000000000000000000000000000",
            "coinbase" : "Z2adc25665018aa1fe0e6bc666dac8fc2697ff9ba",
            "extraData" : "0x42",
            "gasLimit" : "0x7fffffffffffffff",
            "gasUsed" : "0x00",
            "hash" : "0x58789b10501146731e86907057c59ff3070e43113967b186fa91f2901a29f966",
            "mixHash" : "0x0000000000000000000000000000000000000000000000000000000000020000",
            "nonce" : "0x0000000000000000",
            "number" : "0x00",
            "parentHash" : "0x0000000000000000000000000000000000000000000000000000000000000000",
            "receiptTrie" : "0x56e81f171bcc55a6ff8345e692c0f86e5b48e01b996cadc001622fb5e363b421",
            "requestsHash" : "0xe3b0c44298fc1c149afbf4c8996fb92427ae41e4649b934ca495991b7852b855",
            "stateRoot" : "0xb16db689130c17164175137c7aff541a03390299193fcfba3ce34e47b989be55",
            "timestamp" : "0x03b6",
            "transactionsTrie" : "0x56e81f171bcc55a6ff8345e692c0f86e5b48e01b996cadc001622fb5e363b421",
            "withdrawalsRoot" : "0x56e81f171bcc55a6ff8345e692c0f86e5b48e01b996cadc001622fb5e363b421"
        },
        "genesisRLP" : "0xf90263f9025da00000000000000000000000000000000000000000000000000000000000000000a01dcc4de8dec75d7aab85b567b6ccd41ad312451b948a7413f0a142fd40d49347942adc25665018aa1fe0e6bc666dac8fc2697ff9baa0b16db689130c17164175137c7aff541a03390299193fcfba3ce34e47b989be55a056e81f171bcc55a6ff8345e692c0f86e5b48e01b996cadc001622fb5e363b421a056e81f171bcc55a6ff8345e692c0f86e5b48e01b996cadc001622fb5e363b421b90100000000000000000000000000000000000000000000000000000000000000000000000000000000000000000000000000000000000000000000000000000000000000000000000000000000000000000000000000000000000000000000000000000000000000000000000000000000000000000000000000000000000000000000000000000000000000000000000000000000000000000000000000000000000000000000000000000000000000000000000000000000000000000000000000000000000000000000000000000000000000000000000000000000000000000000000000000000000000000000000000000000000000000000000000000000008080887fffffffffffffff808203b642a0000000000000000000000000000000000000000000000000000000000002000088000000000000000010a056e81f171bcc55a6ff8345e692c0f86e5b48e01b996cadc001622fb5e363b4218080a00000000000000000000000000000000000000000000000000000000000000000a0e3b0c44298fc1c149afbf4c8996fb92427ae41e4649b934ca495991b7852b855c0c0c0",
        "lastblockhash" : "0x074b809cc8cde3db33552da438ba9625c0abe91249d5da5d5eeb791020c71627",
        "network" : "Prague",
        "postState" : {
            "0x0000f90827f1c53a10cb7a02335b175320002935" : {
                "balance" : "0x00",
                "code" : "0x3373fffffffffffffffffffffffffffffffffffffffe14604657602036036042575f35600143038111604257611fff81430311604257611fff9006545f5260205ff35b5f5ffd5b5f35611fff60014303065500",
                "nonce" : "0x01",
                "storage" : {
                    "0x00" : "0x58789b10501146731e86907057c59ff3070e43113967b186fa91f2901a29f966"
                }
            },
            "0x000f3df6d732807ef1319fb7b8bb8522d0beac02" : {
                "balance" : "0x00",
                "code" : "0x3373fffffffffffffffffffffffffffffffffffffffe14604d57602036146024575f5ffd5b5f35801560495762001fff810690815414603c575f5ffd5b62001fff01545f5260205ff35b5f5ffd5b62001fff42064281555f359062001fff015500",
                "nonce" : "0x01",
                "storage" : {
                    "0x03b6" : "0x03b6",
                    "0x079e" : "0x079e"
                }
            },
            "0x1000000000000000000000000000000000000000" : {
                "balance" : "0x01",
                "code" : "0x60004060005563ffffffff4060015567ffffffffffffffff406002556fffffffffffffffffffffffffffffffff406003557fffffffffffffffffffffffffffffffffffffffffffffffffffffffffffffffff40600455",
                "nonce" : "0x00",
                "storage" : {
                    "0x00" : "0x58789b10501146731e86907057c59ff3070e43113967b186fa91f2901a29f966"
                }
            },
            "0x1000000000000000000000000000000000000001" : {
                "balance" : "0x01",
                "code" : "0x60004060005563ffffffff4060015567ffffffffffffffff406002556fffffffffffffffffffffffffffffffff406003557fffffffffffffffffffffffffffffffffffffffffffffffffffffffffffffffff40600455",
                "nonce" : "0x00",
                "storage" : {
                    "0x00" : "0x58789b10501146731e86907057c59ff3070e43113967b186fa91f2901a29f966"
                }
            },
            "0x1000000000000000000000000000000000000002" : {
                "balance" : "0x01",
                "code" : "0x",
                "nonce" : "0x00",
                "storage" : {
                }
            },
            "0x2adc25665018aa1fe0e6bc666dac8fc2697ff9ba" : {
                "balance" : "0x07598c68",
                "code" : "0x",
                "nonce" : "0x00",
                "storage" : {
                }
            },
            "0x37c5d39d78433a054b0a470ade8ac1998abfcc06" : {
                "balance" : "0x7ffffffffebf90be",
                "code" : "0x",
                "nonce" : "0x01",
                "storage" : {
                }
            },
            "0x55d786df68385b59b919e0bfee2a8ada2d23ecf8" : {
                "balance" : "0x7ffffffffce615ce",
                "code" : "0x",
                "nonce" : "0x01",
                "storage" : {
                }
            },
            "0xa94f5374fce5edbc8e2a8697c15331677e6ebf0b" : {
                "balance" : "0x7ffffffffce615ce",
                "code" : "0x",
                "nonce" : "0x01",
                "storage" : {
                }
            }
        },
        "pre" : {
            "0x0000f90827f1c53a10cb7a02335b175320002935" : {
                "balance" : "0x00",
                "code" : "0x3373fffffffffffffffffffffffffffffffffffffffe14604657602036036042575f35600143038111604257611fff81430311604257611fff9006545f5260205ff35b5f5ffd5b5f35611fff60014303065500",
                "nonce" : "0x01",
                "storage" : {
                }
            },
            "0x000f3df6d732807ef1319fb7b8bb8522d0beac02" : {
                "balance" : "0x00",
                "code" : "0x3373fffffffffffffffffffffffffffffffffffffffe14604d57602036146024575f5ffd5b5f35801560495762001fff810690815414603c575f5ffd5b62001fff01545f5260205ff35b5f5ffd5b62001fff42064281555f359062001fff015500",
                "nonce" : "0x01",
                "storage" : {
                    "0x03b6" : "0x03b6"
                }
            },
            "0x1000000000000000000000000000000000000000" : {
                "balance" : "0x00",
                "code" : "0x60004060005563ffffffff4060015567ffffffffffffffff406002556fffffffffffffffffffffffffffffffff406003557fffffffffffffffffffffffffffffffffffffffffffffffffffffffffffffffff40600455",
                "nonce" : "0x00",
                "storage" : {
                }
            },
            "0x1000000000000000000000000000000000000001" : {
                "balance" : "0x00",
                "code" : "0x60004060005563ffffffff4060015567ffffffffffffffff406002556fffffffffffffffffffffffffffffffff406003557fffffffffffffffffffffffffffffffffffffffffffffffffffffffffffffffff40600455",
                "nonce" : "0x00",
                "storage" : {
                }
            },
            "0x37c5d39d78433a054b0a470ade8ac1998abfcc06" : {
                "balance" : "0x7fffffffffffffff",
                "code" : "0x",
                "nonce" : "0x00",
                "storage" : {
                }
            },
            "0x55d786df68385b59b919e0bfee2a8ada2d23ecf8" : {
                "balance" : "0x7fffffffffffffff",
                "code" : "0x",
                "nonce" : "0x00",
                "storage" : {
                }
            },
            "0xa94f5374fce5edbc8e2a8697c15331677e6ebf0b" : {
                "balance" : "0x7fffffffffffffff",
                "code" : "0x",
                "nonce" : "0x00",
                "storage" : {
                }
            }
        },
        "sealEngine" : "NoProof"
    }
}