{
    "OOGStateCopyContainingDeletedContract_Cancun" : {
        "_info" : {
            "comment" : "",
            "filling-rpc-server" : "evmone-t8n 0.14.0-13+commit.4d363c36",
            "filling-tool-version" : "retesteth-0.3.2-legacy+commit.ca7f4c79.Linux.g++",
            "fixture-format" : "blockchain_test",
            "generatedTestHash" : "9d3f5e2ff57c4086bc38768d5c43466a88d40c17959658614b39a834f2766bd5",
            "lllcversion" : "Version: 0.5.14-develop.2024.11.5+commit.b2b86751.mod.Linux.g++",
            "solidity" : "Version: 0.8.24+commit.e11b9ed9.Linux.g++",
            "source" : "src/BlockchainTestsFiller/ValidBlocks/bcStateTests/OOGStateCopyContainingDeletedContractFiller.json",
            "sourceHash" : "69f5c3e2ccff80b0d16d0b11422c611e31911f29413a6dddf976d07ab21a7ac6"
        },
        "blocks" : [
            {
                "blockHeader" : {
                    "baseFeePerGas" : "0x0e",
                    "blobGasUsed" : "0x00",
                    "bloom" : "0x00000000000000000000000000000000000000000000000000000000000000000000000000000000000000000000000000000000000000000000000000000000000000000000000000000000000000000000000000000000000000000000000000000000000000000000000000000000000000000000000000000000000000000000000000000000000000000000000000000000000000000000000000000000000000000000000000000000000000000000000000000000000000000000000000000000000000000000000000000000000000000000000000000000000000000000000000000000000000000000000000000000000000000000000000000000",
                    "coinbase" : "0x8888f1f195afa192cfee860698584c030f4c9db1",
                    "difficulty" : "0x00",
                    "excessBlobGas" : "0x00",
                    "extraData" : "0x42",
                    "gasLimit" : "0x2fefd8",
                    "gasUsed" : "0x0207e2",
                    "hash" : "0x950fb5f60a53ed0cc4466a82759f0ce40bc2891f4271fc3d902ba334efc2af61",
                    "mixHash" : "0x0000000000000000000000000000000000000000000000000000000000020000",
                    "nonce" : "0x0000000000000000",
                    "number" : "0x01",
                    "parentBeaconBlockRoot" : "0x0000000000000000000000000000000000000000000000000000000000000000",
                    "parentHash" : "0xe561f4afad2b7639c8644b35e44b0e9cf677af20149ba223e9cfe4766d4fd66d",
                    "receiptTrie" : "0xb3bc1ed9c850cd497a4ca7953be3abc4115a52806610243e2b16fd11b5a3c575",
                    "stateRoot" : "0xb15a225a3f155ce7f3e06655ed42d1b8312fd5502e1e37a1f9586e6a2eed1051",
                    "timestamp" : "0x54c99069",
                    "transactionsTrie" : "0x41cb7242b2e04828f171f59f8cf6a6585f84fd7b57ade223d98dc353acfee040",
                    "uncleHash" : "0x1dcc4de8dec75d7aab85b567b6ccd41ad312451b948a7413f0a142fd40d49347",
                    "withdrawalsRoot" : "0x56e81f171bcc55a6ff8345e692c0f86e5b48e01b996cadc001622fb5e363b421"
                },
                "blocknumber" : "1",
                "chainname" : "default",
                "rlp" : "0xf90335f9023ca0e561f4afad2b7639c8644b35e44b0e9cf677af20149ba223e9cfe4766d4fd66da01dcc4de8dec75d7aab85b567b6ccd41ad312451b948a7413f0a142fd40d49347948888f1f195afa192cfee860698584c030f4c9db1a0b15a225a3f155ce7f3e06655ed42d1b8312fd5502e1e37a1f9586e6a2eed1051a041cb7242b2e04828f171f59f8cf6a6585f84fd7b57ade223d98dc353acfee040a0b3bc1ed9c850cd497a4ca7953be3abc4115a52806610243e2b16fd11b5a3c575b90100000000000000000000000000000000000000000000000000000000000000000000000000000000000000000000000000000000000000000000000000000000000000000000000000000000000000000000000000000000000000000000000000000000000000000000000000000000000000000000000000000000000000000000000000000000000000000000000000000000000000000000000000000000000000000000000000000000000000000000000000000000000000000000000000000000000000000000000000000000000000000000000000000000000000000000000000000000000000000000000000000000000000000000000000000000008001832fefd8830207e28454c9906942a000000000000000000000000000000000000000000000000000000000000200008800000000000000000ea056e81f171bcc55a6ff8345e692c0f86e5b48e01b996cadc001622fb5e363b4218080a00000000000000000000000000000000000000000000000000000000000000000f8f2f866808203e8830493e09464306ec3f51a26dcf19f5da0c043040f54f4eca501840c5feb5d1ca036761713df8f56f0b54af5edb3b0f0d83ca17a6f08713052afadaebca9e53679a03cd88fb4664c9f972047aa10b8e8966ad222e584005030c45344ff0ea30fb008f888018203e8830493e0942e0de3fc10a88911ff857126db1a5f0da6f251738203eaa4fc49c80e00000000000000000000000064306ec3f51a26dcf19f5da0c043040f54f4eca51ca06ee3ed22035ac9bcf9b3308a8640e9091d7a5fdd522819c4f6905bea265382f3a05153bc35460b432958d3edcf8c35d24d4bbf04f6998bd14173277fc17aca6f1bc0c0",
                "transactions" : [
                    {
                        "data" : "0x0c5feb5d",
                        "gasLimit" : "0x0493e0",
                        "gasPrice" : "0x03e8",
                        "nonce" : "0x00",
                        "r" : "0x36761713df8f56f0b54af5edb3b0f0d83ca17a6f08713052afadaebca9e53679",
                        "s" : "0x3cd88fb4664c9f972047aa10b8e8966ad222e584005030c45344ff0ea30fb008",
                        "sender" : "0xa94f5374fce5edbc8e2a8697c15331677e6ebf0b",
                        "to" : "0x64306ec3f51a26dcf19f5da0c043040f54f4eca5",
                        "v" : "0x1c",
                        "value" : "0x01"
                    },
                    {
                        "data" : "0xfc49c80e00000000000000000000000064306ec3f51a26dcf19f5da0c043040f54f4eca5",
                        "gasLimit" : "0x0493e0",
                        "gasPrice" : "0x03e8",
                        "nonce" : "0x01",
                        "r" : "0x6ee3ed22035ac9bcf9b3308a8640e9091d7a5fdd522819c4f6905bea265382f3",
                        "s" : "0x5153bc35460b432958d3edcf8c35d24d4bbf04f6998bd14173277fc17aca6f1b",
                        "sender" : "0xa94f5374fce5edbc8e2a8697c15331677e6ebf0b",
                        "to" : "0x2e0de3fc10a88911ff857126db1a5f0da6f25173",
                        "v" : "0x1c",
                        "value" : "0x03ea"
                    }
                ],
                "uncleHeaders" : [
                ],
                "withdrawals" : [
                ]
            }
        ],
        "config" : {
            "blobSchedule" : {
                "Cancun" : {
                    "baseFeeUpdateFraction" : "0x32f0ed",
                    "max" : "0x06",
                    "target" : "0x03"
                }
            },
            "chainid" : "0x01",
            "network" : "Cancun"
        },
        "genesisBlockHeader" : {
            "baseFeePerGas" : "0x10",
            "blobGasUsed" : "0x00",
            "bloom" : "0x00000000000000000000000000000000000000000000000000000000000000000000000000000000000000000000000000000000000000000000000000000000000000000000000000000000000000000000000000000000000000000000000000000000000000000000000000000000000000000000000000000000000000000000000000000000000000000000000000000000000000000000000000000000000000000000000000000000000000000000000000000000000000000000000000000000000000000000000000000000000000000000000000000000000000000000000000000000000000000000000000000000000000000000000000000000",
            "coinbase" : "0x8888f1f195afa192cfee860698584c030f4c9db1",
            "difficulty" : "0x00",
            "excessBlobGas" : "0x00",
            "extraData" : "0x42",
            "gasLimit" : "0x2fefd8",
            "gasUsed" : "0x00",
            "hash" : "0xe561f4afad2b7639c8644b35e44b0e9cf677af20149ba223e9cfe4766d4fd66d",
            "mixHash" : "0x0000000000000000000000000000000000000000000000000000000000020000",
            "nonce" : "0x0000000000000000",
            "number" : "0x00",
            "parentBeaconBlockRoot" : "0x0000000000000000000000000000000000000000000000000000000000000000",
            "parentHash" : "0x0000000000000000000000000000000000000000000000000000000000000000",
            "receiptTrie" : "0x56e81f171bcc55a6ff8345e692c0f86e5b48e01b996cadc001622fb5e363b421",
            "stateRoot" : "0x185851afa07c5dbfee939ac890b6868154828fbdb6208d23caaad51c9e5ff52b",
            "timestamp" : "0x54c98c81",
            "transactionsTrie" : "0x56e81f171bcc55a6ff8345e692c0f86e5b48e01b996cadc001622fb5e363b421",
            "uncleHash" : "0x1dcc4de8dec75d7aab85b567b6ccd41ad312451b948a7413f0a142fd40d49347",
            "withdrawalsRoot" : "0x56e81f171bcc55a6ff8345e692c0f86e5b48e01b996cadc001622fb5e363b421"
        },
        "genesisRLP" : "0xf9023ff90239a00000000000000000000000000000000000000000000000000000000000000000a01dcc4de8dec75d7aab85b567b6ccd41ad312451b948a7413f0a142fd40d49347948888f1f195afa192cfee860698584c030f4c9db1a0185851afa07c5dbfee939ac890b6868154828fbdb6208d23caaad51c9e5ff52ba056e81f171bcc55a6ff8345e692c0f86e5b48e01b996cadc001622fb5e363b421a056e81f171bcc55a6ff8345e692c0f86e5b48e01b996cadc001622fb5e363b421b90100000000000000000000000000000000000000000000000000000000000000000000000000000000000000000000000000000000000000000000000000000000000000000000000000000000000000000000000000000000000000000000000000000000000000000000000000000000000000000000000000000000000000000000000000000000000000000000000000000000000000000000000000000000000000000000000000000000000000000000000000000000000000000000000000000000000000000000000000000000000000000000000000000000000000000000000000000000000000000000000000000000000000000000000000000000008080832fefd8808454c98c8142a0000000000000000000000000000000000000000000000000000000000002000088000000000000000010a056e81f171bcc55a6ff8345e692c0f86e5b48e01b996cadc001622fb5e363b4218080a00000000000000000000000000000000000000000000000000000000000000000c0c0c0",
        "lastblockhash" : "0x950fb5f60a53ed0cc4466a82759f0ce40bc2891f4271fc3d902ba334efc2af61",
        "network" : "Cancun",
        "postState" : {
            "0x000f3df6d732807ef1319fb7b8bb8522d0beac02" : {
                "balance" : "0x00",
                "code" : "0x3373fffffffffffffffffffffffffffffffffffffffe14604d57602036146024575f5ffd5b5f35801560495762001fff810690815414603c575f5ffd5b62001fff01545f5260205ff35b5f5ffd5b62001fff42064281555f359062001fff015500",
                "nonce" : "0x01",
                "storage" : {
                    "0x12e2" : "0x54c98c81",
                    "0x16ca" : "0x54c99069"
                }
            },
            "0x2e0de3fc10a88911ff857126db1a5f0da6f25173" : {
                "balance" : "0x03eb",
                "code" : "0x60606040526000357c01000000000000000000000000000000000000000000000000000000009004806342e90c3314610044578063fc49c80e1461005157610042565b005b61004f600450610064565b005b6100626004803590602001506100a4565b005b6000600090505b600a8160ff1610156100a057602a600060005082600a81101561000257909001600050819055505b808060010191505061006b565b5b50565b3073ffffffffffffffffffffffffffffffffffffffff1661ea6060405180807f53746f7265282900000000000000000000000000000000000000000000000000815260200150600701905060405180910390207c0100000000000000000000000000000000000000000000000000000000809104027c0100000000000000000000000000000000000000000000000000000000900490604051827c010000000000000000000000000000000000000000000000000000000002815260040180905060006040518083038160008887f19350505050508073ffffffffffffffffffffffffffffffffffffffff166326c6a34c604051817c01000000000000000000000000000000000000000000000000000000000281526004018090506020604051808303816000876161da5a03f115610002575050506040515160006000506009600a81101561000257909001600050819055505b5056",
                "nonce" : "0x00",
                "storage" : {
                    "0x09" : "0x0539"
                }
            },
            "0x64306ec3f51a26dcf19f5da0c043040f54f4eca5" : {
                "balance" : "0x00",
                "code" : "0x60606040526000357c0100000000000000000000000000000000000000000000000000000000900480630c5feb5d14604157806326c6a34c14604c57603f565b005b604a600450606b565b005b60556004506086565b6040518082815260200191505060405180910390f35b3373ffffffffffffffffffffffffffffffffffffffff16ff5b565b600061053990506091565b9056",
                "nonce" : "0x00",
                "storage" : {
                }
            },
            "0x8888f1f195afa192cfee860698584c030f4c9db1" : {
                "balance" : "0x07d25c74",
                "code" : "0x",
                "nonce" : "0x00",
                "storage" : {
                }
            },
            "0xa94f5374fce5edbc8e2a8697c15331677e6ebf0b" : {
                "balance" : "0xe8ccb64147",
                "code" : "0x",
                "nonce" : "0x02",
                "storage" : {
                }
            }
        },
        "pre" : {
            "0x000f3df6d732807ef1319fb7b8bb8522d0beac02" : {
                "balance" : "0x00",
                "code" : "0x3373fffffffffffffffffffffffffffffffffffffffe14604d57602036146024575f5ffd5b5f35801560495762001fff810690815414603c575f5ffd5b62001fff01545f5260205ff35b5f5ffd5b62001fff42064281555f359062001fff015500",
                "nonce" : "0x01",
                "storage" : {
                    "0x12e2" : "0x54c98c81"
                }
            },
            "0x2e0de3fc10a88911ff857126db1a5f0da6f25173" : {
                "balance" : "0x01",
                "code" : "0x60606040526000357c01000000000000000000000000000000000000000000000000000000009004806342e90c3314610044578063fc49c80e1461005157610042565b005b61004f600450610064565b005b6100626004803590602001506100a4565b005b6000600090505b600a8160ff1610156100a057602a600060005082600a81101561000257909001600050819055505b808060010191505061006b565b5b50565b3073ffffffffffffffffffffffffffffffffffffffff1661ea6060405180807f53746f7265282900000000000000000000000000000000000000000000000000815260200150600701905060405180910390207c0100000000000000000000000000000000000000000000000000000000809104027c0100000000000000000000000000000000000000000000000000000000900490604051827c010000000000000000000000000000000000000000000000000000000002815260040180905060006040518083038160008887f19350505050508073ffffffffffffffffffffffffffffffffffffffff166326c6a34c604051817c01000000000000000000000000000000000000000000000000000000000281526004018090506020604051808303816000876161da5a03f115610002575050506040515160006000506009600a81101561000257909001600050819055505b5056",
                "nonce" : "0x00",
                "storage" : {
                }
            },
            "0x64306ec3f51a26dcf19f5da0c043040f54f4eca5" : {
                "balance" : "0x01",
                "code" : "0x60606040526000357c0100000000000000000000000000000000000000000000000000000000900480630c5feb5d14604157806326c6a34c14604c57603f565b005b604a600450606b565b005b60556004506086565b6040518082815260200191505060405180910390f35b3373ffffffffffffffffffffffffffffffffffffffff16ff5b565b600061053990506091565b9056",
                "nonce" : "0x00",
                "storage" : {
                }
            },
            "0xa94f5374fce5edbc8e2a8697c15331677e6ebf0b" : {
                "balance" : "0xe8d4a51000",
                "code" : "0x",
                "nonce" : "0x00",
                "storage" : {
                }
            }
        },
        "sealEngine" : "NoProof"
    },
    "OOGStateCopyContainingDeletedContract_Prague" : {
        "_info" : {
            "comment" : "",
            "filling-rpc-server" : "evmone-t8n 0.14.0-13+commit.4d363c36",
            "filling-tool-version" : "retesteth-0.3.2-legacy+commit.ca7f4c79.Linux.g++",
            "fixture-format" : "blockchain_test",
            "generatedTestHash" : "92e1bdf70ad2fb49d442f4d2a1fdb1915adaa941fa0b8087dfe6bebed20fc2a3",
            "lllcversion" : "Version: 0.5.14-develop.2024.11.5+commit.b2b86751.mod.Linux.g++",
            "solidity" : "Version: 0.8.24+commit.e11b9ed9.Linux.g++",
            "source" : "src/BlockchainTestsFiller/ValidBlocks/bcStateTests/OOGStateCopyContainingDeletedContractFiller.json",
            "sourceHash" : "69f5c3e2ccff80b0d16d0b11422c611e31911f29413a6dddf976d07ab21a7ac6"
        },
        "blocks" : [
            {
                "blockHeader" : {
                    "baseFeePerGas" : "0x0e",
                    "blobGasUsed" : "0x00",
                    "bloom" : "0x00000000000000000000000000000000000000000000000000000000000000000000000000000000000000000000000000000000000000000000000000000000000000000000000000000000000000000000000000000000000000000000000000000000000000000000000000000000000000000000000000000000000000000000000000000000000000000000000000000000000000000000000000000000000000000000000000000000000000000000000000000000000000000000000000000000000000000000000000000000000000000000000000000000000000000000000000000000000000000000000000000000000000000000000000000000",
                    "coinbase" : "0x8888f1f195afa192cfee860698584c030f4c9db1",
                    "difficulty" : "0x00",
                    "excessBlobGas" : "0x00",
                    "extraData" : "0x42",
                    "gasLimit" : "0x2fefd8",
                    "gasUsed" : "0x0207e2",
                    "hash" : "0xbfbd16d26963421e30555acc3b7d99e9407711e225b259fcc3465bd60bf60146",
                    "mixHash" : "0x0000000000000000000000000000000000000000000000000000000000020000",
                    "nonce" : "0x0000000000000000",
                    "number" : "0x01",
                    "parentBeaconBlockRoot" : "0x0000000000000000000000000000000000000000000000000000000000000000",
                    "parentHash" : "0xec3ec599426ae8d439b1ff756faec1bc1c05779f1aaafc2691721cc6f96973ae",
                    "receiptTrie" : "0xb3bc1ed9c850cd497a4ca7953be3abc4115a52806610243e2b16fd11b5a3c575",
                    "requestsHash" : "0xe3b0c44298fc1c149afbf4c8996fb92427ae41e4649b934ca495991b7852b855",
                    "stateRoot" : "0x3889525ce2662f1e84a623abb30b0952ad66babb63a209c01a5b82754415d688",
                    "timestamp" : "0x54c99069",
                    "transactionsTrie" : "0x41cb7242b2e04828f171f59f8cf6a6585f84fd7b57ade223d98dc353acfee040",
                    "uncleHash" : "0x1dcc4de8dec75d7aab85b567b6ccd41ad312451b948a7413f0a142fd40d49347",
                    "withdrawalsRoot" : "0x56e81f171bcc55a6ff8345e692c0f86e5b48e01b996cadc001622fb5e363b421"
                },
                "blocknumber" : "1",
                "chainname" : "default",
                "rlp" : "0xf90356f9025da0ec3ec599426ae8d439b1ff756faec1bc1c05779f1aaafc2691721cc6f96973aea01dcc4de8dec75d7aab85b567b6ccd41ad312451b948a7413f0a142fd40d49347948888f1f195afa192cfee860698584c030f4c9db1a03889525ce2662f1e84a623abb30b0952ad66babb63a209c01a5b82754415d688a041cb7242b2e04828f171f59f8cf6a6585f84fd7b57ade223d98dc353acfee040a0b3bc1ed9c850cd497a4ca7953be3abc4115a52806610243e2b16fd11b5a3c575b90100000000000000000000000000000000000000000000000000000000000000000000000000000000000000000000000000000000000000000000000000000000000000000000000000000000000000000000000000000000000000000000000000000000000000000000000000000000000000000000000000000000000000000000000000000000000000000000000000000000000000000000000000000000000000000000000000000000000000000000000000000000000000000000000000000000000000000000000000000000000000000000000000000000000000000000000000000000000000000000000000000000000000000000000000000000008001832fefd8830207e28454c9906942a000000000000000000000000000000000000000000000000000000000000200008800000000000000000ea056e81f171bcc55a6ff8345e692c0f86e5b48e01b996cadc001622fb5e363b4218080a00000000000000000000000000000000000000000000000000000000000000000a0e3b0c44298fc1c149afbf4c8996fb92427ae41e4649b934ca495991b7852b855f8f2f866808203e8830493e09464306ec3f51a26dcf19f5da0c043040f54f4eca501840c5feb5d1ca036761713df8f56f0b54af5edb3b0f0d83ca17a6f08713052afadaebca9e53679a03cd88fb4664c9f972047aa10b8e8966ad222e584005030c45344ff0ea30fb008f888018203e8830493e0942e0de3fc10a88911ff857126db1a5f0da6f251738203eaa4fc49c80e00000000000000000000000064306ec3f51a26dcf19f5da0c043040f54f4eca51ca06ee3ed22035ac9bcf9b3308a8640e9091d7a5fdd522819c4f6905bea265382f3a05153bc35460b432958d3edcf8c35d24d4bbf04f6998bd14173277fc17aca6f1bc0c0",
                "transactions" : [
                    {
                        "data" : "0x0c5feb5d",
                        "gasLimit" : "0x0493e0",
                        "gasPrice" : "0x03e8",
                        "nonce" : "0x00",
                        "r" : "0x36761713df8f56f0b54af5edb3b0f0d83ca17a6f08713052afadaebca9e53679",
                        "s" : "0x3cd88fb4664c9f972047aa10b8e8966ad222e584005030c45344ff0ea30fb008",
                        "sender" : "0xa94f5374fce5edbc8e2a8697c15331677e6ebf0b",
                        "to" : "0x64306ec3f51a26dcf19f5da0c043040f54f4eca5",
                        "v" : "0x1c",
                        "value" : "0x01"
                    },
                    {
                        "data" : "0xfc49c80e00000000000000000000000064306ec3f51a26dcf19f5da0c043040f54f4eca5",
                        "gasLimit" : "0x0493e0",
                        "gasPrice" : "0x03e8",
                        "nonce" : "0x01",
                        "r" : "0x6ee3ed22035ac9bcf9b3308a8640e9091d7a5fdd522819c4f6905bea265382f3",
                        "s" : "0x5153bc35460b432958d3edcf8c35d24d4bbf04f6998bd14173277fc17aca6f1b",
                        "sender" : "0xa94f5374fce5edbc8e2a8697c15331677e6ebf0b",
                        "to" : "0x2e0de3fc10a88911ff857126db1a5f0da6f25173",
                        "v" : "0x1c",
                        "value" : "0x03ea"
                    }
                ],
                "uncleHeaders" : [
                ],
                "withdrawals" : [
                ]
            }
        ],
        "config" : {
            "blobSchedule" : {
                "Prague" : {
                    "baseFeeUpdateFraction" : "0x4c6964",
                    "max" : "0x09",
                    "target" : "0x06"
                }
            },
            "chainid" : "0x01",
            "network" : "Prague"
        },
        "genesisBlockHeader" : {
            "baseFeePerGas" : "0x10",
            "blobGasUsed" : "0x00",
            "bloom" : "0x00000000000000000000000000000000000000000000000000000000000000000000000000000000000000000000000000000000000000000000000000000000000000000000000000000000000000000000000000000000000000000000000000000000000000000000000000000000000000000000000000000000000000000000000000000000000000000000000000000000000000000000000000000000000000000000000000000000000000000000000000000000000000000000000000000000000000000000000000000000000000000000000000000000000000000000000000000000000000000000000000000000000000000000000000000000",
            "coinbase" : "0x8888f1f195afa192cfee860698584c030f4c9db1",
            "difficulty" : "0x00",
            "excessBlobGas" : "0x00",
            "extraData" : "0x42",
            "gasLimit" : "0x2fefd8",
            "gasUsed" : "0x00",
            "hash" : "0xec3ec599426ae8d439b1ff756faec1bc1c05779f1aaafc2691721cc6f96973ae",
            "mixHash" : "0x0000000000000000000000000000000000000000000000000000000000020000",
            "nonce" : "0x0000000000000000",
            "number" : "0x00",
            "parentBeaconBlockRoot" : "0x0000000000000000000000000000000000000000000000000000000000000000",
            "parentHash" : "0x0000000000000000000000000000000000000000000000000000000000000000",
            "receiptTrie" : "0x56e81f171bcc55a6ff8345e692c0f86e5b48e01b996cadc001622fb5e363b421",
            "requestsHash" : "0xe3b0c44298fc1c149afbf4c8996fb92427ae41e4649b934ca495991b7852b855",
            "stateRoot" : "0x41a44ca5955ed5452c3e606173f42ed7921873be4f9f4e76b46be79ad0e7be00",
            "timestamp" : "0x54c98c81",
            "transactionsTrie" : "0x56e81f171bcc55a6ff8345e692c0f86e5b48e01b996cadc001622fb5e363b421",
            "uncleHash" : "0x1dcc4de8dec75d7aab85b567b6ccd41ad312451b948a7413f0a142fd40d49347",
            "withdrawalsRoot" : "0x56e81f171bcc55a6ff8345e692c0f86e5b48e01b996cadc001622fb5e363b421"
        },
        "genesisRLP" : "0xf90260f9025aa00000000000000000000000000000000000000000000000000000000000000000a01dcc4de8dec75d7aab85b567b6ccd41ad312451b948a7413f0a142fd40d49347948888f1f195afa192cfee860698584c030f4c9db1a041a44ca5955ed5452c3e606173f42ed7921873be4f9f4e76b46be79ad0e7be00a056e81f171bcc55a6ff8345e692c0f86e5b48e01b996cadc001622fb5e363b421a056e81f171bcc55a6ff8345e692c0f86e5b48e01b996cadc001622fb5e363b421b90100000000000000000000000000000000000000000000000000000000000000000000000000000000000000000000000000000000000000000000000000000000000000000000000000000000000000000000000000000000000000000000000000000000000000000000000000000000000000000000000000000000000000000000000000000000000000000000000000000000000000000000000000000000000000000000000000000000000000000000000000000000000000000000000000000000000000000000000000000000000000000000000000000000000000000000000000000000000000000000000000000000000000000000000000000000008080832fefd8808454c98c8142a0000000000000000000000000000000000000000000000000000000000002000088000000000000000010a056e81f171bcc55a6ff8345e692c0f86e5b48e01b996cadc001622fb5e363b4218080a00000000000000000000000000000000000000000000000000000000000000000a0e3b0c44298fc1c149afbf4c8996fb92427ae41e4649b934ca495991b7852b855c0c0c0",
        "lastblockhash" : "0xbfbd16d26963421e30555acc3b7d99e9407711e225b259fcc3465bd60bf60146",
        "network" : "Prague",
        "postState" : {
            "0x0000f90827f1c53a10cb7a02335b175320002935" : {
                "balance" : "0x00",
                "code" : "0x3373fffffffffffffffffffffffffffffffffffffffe14604657602036036042575f35600143038111604257611fff81430311604257611fff9006545f5260205ff35b5f5ffd5b5f35611fff60014303065500",
                "nonce" : "0x01",
                "storage" : {
                    "0x00" : "0xec3ec599426ae8d439b1ff756faec1bc1c05779f1aaafc2691721cc6f96973ae"
                }
            },
            "0x000f3df6d732807ef1319fb7b8bb8522d0beac02" : {
                "balance" : "0x00",
                "code" : "0x3373fffffffffffffffffffffffffffffffffffffffe14604d57602036146024575f5ffd5b5f35801560495762001fff810690815414603c575f5ffd5b62001fff01545f5260205ff35b5f5ffd5b62001fff42064281555f359062001fff015500",
                "nonce" : "0x01",
                "storage" : {
                    "0x12e2" : "0x54c98c81",
                    "0x16ca" : "0x54c99069"
                }
            },
            "0x2e0de3fc10a88911ff857126db1a5f0da6f25173" : {
                "balance" : "0x03eb",
                "code" : "0x60606040526000357c01000000000000000000000000000000000000000000000000000000009004806342e90c3314610044578063fc49c80e1461005157610042565b005b61004f600450610064565b005b6100626004803590602001506100a4565b005b6000600090505b600a8160ff1610156100a057602a600060005082600a81101561000257909001600050819055505b808060010191505061006b565b5b50565b3073ffffffffffffffffffffffffffffffffffffffff1661ea6060405180807f53746f7265282900000000000000000000000000000000000000000000000000815260200150600701905060405180910390207c0100000000000000000000000000000000000000000000000000000000809104027c0100000000000000000000000000000000000000000000000000000000900490604051827c010000000000000000000000000000000000000000000000000000000002815260040180905060006040518083038160008887f19350505050508073ffffffffffffffffffffffffffffffffffffffff166326c6a34c604051817c01000000000000000000000000000000000000000000000000000000000281526004018090506020604051808303816000876161da5a03f115610002575050506040515160006000506009600a81101561000257909001600050819055505b5056",
                "nonce" : "0x00",
                "storage" : {
                    "0x09" : "0x0539"
                }
            },
            "0x64306ec3f51a26dcf19f5da0c043040f54f4eca5" : {
                "balance" : "0x00",
                "code" : "0x60606040526000357c0100000000000000000000000000000000000000000000000000000000900480630c5feb5d14604157806326c6a34c14604c57603f565b005b604a600450606b565b005b60556004506086565b6040518082815260200191505060405180910390f35b3373ffffffffffffffffffffffffffffffffffffffff16ff5b565b600061053990506091565b9056",
                "nonce" : "0x00",
                "storage" : {
                }
            },
            "0x8888f1f195afa192cfee860698584c030f4c9db1" : {
                "balance" : "0x07d25c74",
                "code" : "0x",
                "nonce" : "0x00",
                "storage" : {
                }
            },
            "0xa94f5374fce5edbc8e2a8697c15331677e6ebf0b" : {
                "balance" : "0xe8ccb64147",
                "code" : "0x",
                "nonce" : "0x02",
                "storage" : {
                }
            }
        },
        "pre" : {
            "0x0000f90827f1c53a10cb7a02335b175320002935" : {
                "balance" : "0x00",
                "code" : "0x3373fffffffffffffffffffffffffffffffffffffffe14604657602036036042575f35600143038111604257611fff81430311604257611fff9006545f5260205ff35b5f5ffd5b5f35611fff60014303065500",
                "nonce" : "0x01",
                "storage" : {
                }
            },
            "0x000f3df6d732807ef1319fb7b8bb8522d0beac02" : {
                "balance" : "0x00",
                "code" : "0x3373fffffffffffffffffffffffffffffffffffffffe14604d57602036146024575f5ffd5b5f35801560495762001fff810690815414603c575f5ffd5b62001fff01545f5260205ff35b5f5ffd5b62001fff42064281555f359062001fff015500",
                "nonce" : "0x01",
                "storage" : {
                    "0x12e2" : "0x54c98c81"
                }
            },
            "0x2e0de3fc10a88911ff857126db1a5f0da6f25173" : {
                "balance" : "0x01",
                "code" : "0x60606040526000357c01000000000000000000000000000000000000000000000000000000009004806342e90c3314610044578063fc49c80e1461005157610042565b005b61004f600450610064565b005b6100626004803590602001506100a4565b005b6000600090505b600a8160ff1610156100a057602a600060005082600a81101561000257909001600050819055505b808060010191505061006b565b5b50565b3073ffffffffffffffffffffffffffffffffffffffff1661ea6060405180807f53746f7265282900000000000000000000000000000000000000000000000000815260200150600701905060405180910390207c0100000000000000000000000000000000000000000000000000000000809104027c0100000000000000000000000000000000000000000000000000000000900490604051827c010000000000000000000000000000000000000000000000000000000002815260040180905060006040518083038160008887f19350505050508073ffffffffffffffffffffffffffffffffffffffff166326c6a34c604051817c01000000000000000000000000000000000000000000000000000000000281526004018090506020604051808303816000876161da5a03f115610002575050506040515160006000506009600a81101561000257909001600050819055505b5056",
                "nonce" : "0x00",
                "storage" : {
                }
            },
            "0x64306ec3f51a26dcf19f5da0c043040f54f4eca5" : {
                "balance" : "0x01",
                "code" : "0x60606040526000357c0100000000000000000000000000000000000000000000000000000000900480630c5feb5d14604157806326c6a34c14604c57603f565b005b604a600450606b565b005b60556004506086565b6040518082815260200191505060405180910390f35b3373ffffffffffffffffffffffffffffffffffffffff16ff5b565b600061053990506091565b9056",
                "nonce" : "0x00",
                "storage" : {
                }
            },
            "0xa94f5374fce5edbc8e2a8697c15331677e6ebf0b" : {
                "balance" : "0xe8d4a51000",
                "code" : "0x",
                "nonce" : "0x00",
                "storage" : {
                }
            }
        },
        "sealEngine" : "NoProof"
    }
}