{
    "SuicidesMixingCoinbase_Cancun" : {
        "_info" : {
            "comment" : "",
            "filling-rpc-server" : "evmone-t8n 0.14.0-13+commit.4d363c36",
            "filling-tool-version" : "retesteth-0.3.2-legacy+commit.ca7f4c79.Linux.g++",
            "fixture-format" : "blockchain_test",
            "generatedTestHash" : "1a985ac727d3adf8cac6157180a0a1e78ceb37fcca7391323ab9cb332bd895f3",
            "lllcversion" : "Version: 0.5.14-develop.2024.11.5+commit.b2b86751.mod.Linux.g++",
            "solidity" : "Version: 0.8.24+commit.e11b9ed9.Linux.g++",
            "source" : "src/BlockchainTestsFiller/ValidBlocks/bcStateTests/SuicidesMixingCoinbaseFiller.json",
            "sourceHash" : "19e33ab515d42443a87cbc5e4df1651e6394c3555851d9b68852337740c8b339"
        },
        "blocks" : [
            {
                "blockHeader" : {
                    "baseFeePerGas" : "0x0e",
                    "bloom" : "0x00000000000000000000000000000000000000000000000000000000000000000000000000000000000000000000000000000000000000000000000000000000000000000000000000000000000000000000000000000000000000000000000000000000000000000000000000000000000000000000000000000000000000000000000000000000000000000000000000000000000000000000000000000000000000000000000000000000000000000000000000000000000000000000000000000000000000000000000000000000000000000000000000000000000000000000000000000000000000000000000000000000000000000000000000000000",
                    "coinbase" : "0xb94f5374fce5edbc8e2a8697c15331677e6ebf0b",
                    "extraData" : "0x42",
                    "gasLimit" : "0x0f4240",
                    "gasUsed" : "0x54c4",
                    "hash" : "0x33adc0e0107fb8847f8fa080a015365cb8cba78e5c2e1f484b62e696e47ca1ca",
                    "mixHash" : "0x0000000000000000000000000000000000000000000000000000000000020000",
                    "nonce" : "0x0000000000000000",
                    "number" : "0x01",
                    "parentBeaconBlockRoot" : "0x0000000000000000000000000000000000000000000000000000000000000000",
                    "parentHash" : "0x4de2db7b73573941a3935c369d95cd4cf6c8f77617ca194c11830e81ac304820",
                    "receiptTrie" : "0xcc622cd09860dbcba5e111e2491e3c10a6a007266fe0036aefc4dc772e9e8e7c",
                    "stateRoot" : "0x32dd646bfd2d6ecfc1a6aa7a1b3e95c18f69a2e97b63421e99c1175ac3bec038",
                    "timestamp" : "0x07d0",
                    "transactionsTrie" : "0xab9fe4ac341cf97677aad514961f3c825ad0c9af82a2f6d736163c9a054ed2b8",
                    "withdrawalsRoot" : "0x56e81f171bcc55a6ff8345e692c0f86e5b48e01b996cadc001622fb5e363b421"
                },
                "blocknumber" : "1",
                "chainname" : "default",
                "rlp" : "0xf902a3f90239a04de2db7b73573941a3935c369d95cd4cf6c8f77617ca194c11830e81ac304820a01dcc4de8dec75d7aab85b567b6ccd41ad312451b948a7413f0a142fd40d4934794b94f5374fce5edbc8e2a8697c15331677e6ebf0ba032dd646bfd2d6ecfc1a6aa7a1b3e95c18f69a2e97b63421e99c1175ac3bec038a0ab9fe4ac341cf97677aad514961f3c825ad0c9af82a2f6d736163c9a054ed2b8a0cc622cd09860dbcba5e111e2491e3c10a6a007266fe0036aefc4dc772e9e8e7cb90100000000000000000000000000000000000000000000000000000000000000000000000000000000000000000000000000000000000000000000000000000000000000000000000000000000000000000000000000000000000000000000000000000000000000000000000000000000000000000000000000000000000000000000000000000000000000000000000000000000000000000000000000000000000000000000000000000000000000000000000000000000000000000000000000000000000000000000000000000000000000000000000000000000000000000000000000000000000000000000000000000000000000000000000000000000008001830f42408254c48207d042a000000000000000000000000000000000000000000000000000000000000200008800000000000000000ea056e81f171bcc55a6ff8345e692c0f86e5b48e01b996cadc001622fb5e363b4218080a00000000000000000000000000000000000000000000000000000000000000000f863f861808203e88254c494b94f5374fce5edbc8e2a8697c15331677e6ebf0b0a801ca0db062bab4faa88d3331be03149455ab2e089aca6f3efcc2bfe7f02db1e89b718a03cc779b1576ca9bd7d8bb1f615bc746551a53aba93be569e5a585a6eaaea26e1c0c0",
                "transactions" : [
                    {
                        "data" : "0x",
                        "gasLimit" : "0x54c4",
                        "gasPrice" : "0x03e8",
                        "nonce" : "0x00",
                        "r" : "0xdb062bab4faa88d3331be03149455ab2e089aca6f3efcc2bfe7f02db1e89b718",
                        "s" : "0x3cc779b1576ca9bd7d8bb1f615bc746551a53aba93be569e5a585a6eaaea26e1",
                        "sender" : "0xa94f5374fce5edbc8e2a8697c15331677e6ebf0b",
                        "to" : "0xb94f5374fce5edbc8e2a8697c15331677e6ebf0b",
                        "v" : "0x1c",
                        "value" : "0x0a"
                    }
                ],
                "uncleHeaders" : [
                ],
                "withdrawals" : [
                ]
            },
            {
                "blockHeader" : {
                    "baseFeePerGas" : "0x0d",
                    "bloom" : "0x00000000000000000000000000000000000000000000000000000000000000000000000000000000000000000000000000000000000000000000000000000000000000000000000000000000000000000000000000000000000000000000000000000000000000000000000000000000000000000000000000000000000000000000000000000000000000000000000000000000000000000000000000000000000000000000000000000000000000000000000000000000000000000000000000000000000000000000000000000000000000000000000000000000000000000000000000000000000000000000000000000000000000000000000000000000",
                    "coinbase" : "0xb24f5374fce5edbc8e2a8697c15331677e6ebf0b",
                    "extraData" : "0x42",
                    "gasLimit" : "0x0f4240",
                    "gasUsed" : "0xd163",
                    "hash" : "0xfb427b7764a0ad8e9eb7d7641f21ac440c42567594c865981ec67d8a6f2881a0",
                    "mixHash" : "0x0000000000000000000000000000000000000000000000000000000000020000",
                    "nonce" : "0x0000000000000000",
                    "number" : "0x02",
                    "parentBeaconBlockRoot" : "0x0000000000000000000000000000000000000000000000000000000000000000",
                    "parentHash" : "0x33adc0e0107fb8847f8fa080a015365cb8cba78e5c2e1f484b62e696e47ca1ca",
                    "receiptTrie" : "0x9bca0bb15596da57d190bd52836f542e44286c22cb1c22f4efe2c54946e53f8a",
                    "stateRoot" : "0xad8fb669421ba933daa7afc832196e540ab53d561c14bd5655bedc262a56681f",
                    "timestamp" : "0x0bb8",
                    "transactionsTrie" : "0xe5d9d104a39ad50255f8280a0b2d6eb9b5ff9213065e9fb5eae9b2b0e31f44e0",
                    "withdrawalsRoot" : "0x56e81f171bcc55a6ff8345e692c0f86e5b48e01b996cadc001622fb5e363b421"
                },
                "blocknumber" : "2",
                "chainname" : "default",
                "rlp" : "0xf902a3f90239a033adc0e0107fb8847f8fa080a015365cb8cba78e5c2e1f484b62e696e47ca1caa01dcc4de8dec75d7aab85b567b6ccd41ad312451b948a7413f0a142fd40d4934794b24f5374fce5edbc8e2a8697c15331677e6ebf0ba0ad8fb669421ba933daa7afc832196e540ab53d561c14bd5655bedc262a56681fa0e5d9d104a39ad50255f8280a0b2d6eb9b5ff9213065e9fb5eae9b2b0e31f44e0a09bca0bb15596da57d190bd52836f542e44286c22cb1c22f4efe2c54946e53f8ab90100000000000000000000000000000000000000000000000000000000000000000000000000000000000000000000000000000000000000000000000000000000000000000000000000000000000000000000000000000000000000000000000000000000000000000000000000000000000000000000000000000000000000000000000000000000000000000000000000000000000000000000000000000000000000000000000000000000000000000000000000000000000000000000000000000000000000000000000000000000000000000000000000000000000000000000000000000000000000000000000000000000000000000000000000000000008002830f424082d163820bb842a000000000000000000000000000000000000000000000000000000000000200008800000000000000000da056e81f171bcc55a6ff8345e692c0f86e5b48e01b996cadc001622fb5e363b4218080a00000000000000000000000000000000000000000000000000000000000000000f863f861018203e882ea6094b24f5374fce5edbc8e2a8697c15331677e6ebf0b0a801ba0d2e54e989b91bd0b9e3ff0d67ea5ff8b1c9f5e031d6166bcf7019198616c63b4a0350bf6ea8761dadb683ff1cfcf34e008c4c82ff9e3e7a836245f54ec62514a94c0c0",
                "transactions" : [
                    {
                        "data" : "0x",
                        "gasLimit" : "0xea60",
                        "gasPrice" : "0x03e8",
                        "nonce" : "0x01",
                        "r" : "0xd2e54e989b91bd0b9e3ff0d67ea5ff8b1c9f5e031d6166bcf7019198616c63b4",
                        "s" : "0x350bf6ea8761dadb683ff1cfcf34e008c4c82ff9e3e7a836245f54ec62514a94",
                        "sender" : "0xa94f5374fce5edbc8e2a8697c15331677e6ebf0b",
                        "to" : "0xb24f5374fce5edbc8e2a8697c15331677e6ebf0b",
                        "v" : "0x1b",
                        "value" : "0x0a"
                    }
                ],
                "uncleHeaders" : [
                ],
                "withdrawals" : [
                ]
            }
        ],
        "config" : {
            "blobSchedule" : {
                "Cancun" : {
                    "baseFeeUpdateFraction" : "0x32f0ed",
                    "max" : "0x06",
                    "target" : "0x03"
                }
            },
            "chainid" : "0x01",
            "network" : "Cancun"
        },
        "genesisBlockHeader" : {
            "baseFeePerGas" : "0x10",
            "bloom" : "0x00000000000000000000000000000000000000000000000000000000000000000000000000000000000000000000000000000000000000000000000000000000000000000000000000000000000000000000000000000000000000000000000000000000000000000000000000000000000000000000000000000000000000000000000000000000000000000000000000000000000000000000000000000000000000000000000000000000000000000000000000000000000000000000000000000000000000000000000000000000000000000000000000000000000000000000000000000000000000000000000000000000000000000000000000000000",
            "coinbase" : "0xb94f5374fce5edbc8e2a8697c15331677e6ebf0b",
            "extraData" : "0x42",
            "gasLimit" : "0x0f4240",
            "gasUsed" : "0x00",
            "hash" : "0x4de2db7b73573941a3935c369d95cd4cf6c8f77617ca194c11830e81ac304820",
            "mixHash" : "0x0000000000000000000000000000000000000000000000000000000000020000",
            "nonce" : "0x0000000000000000",
            "number" : "0x00",
            "parentBeaconBlockRoot" : "0x0000000000000000000000000000000000000000000000000000000000000000",
            "parentHash" : "0x0000000000000000000000000000000000000000000000000000000000000000",
            "receiptTrie" : "0x56e81f171bcc55a6ff8345e692c0f86e5b48e01b996cadc001622fb5e363b421",
            "stateRoot" : "0x733c6776ffbffb000666b845e268f5c9d14edda2342698522c5e7610483b2e7e",
            "timestamp" : "0x03e8",
            "transactionsTrie" : "0x56e81f171bcc55a6ff8345e692c0f86e5b48e01b996cadc001622fb5e363b421",
            "withdrawalsRoot" : "0x56e81f171bcc55a6ff8345e692c0f86e5b48e01b996cadc001622fb5e363b421"
        },
        "genesisRLP" : "0xf9023df90237a00000000000000000000000000000000000000000000000000000000000000000a01dcc4de8dec75d7aab85b567b6ccd41ad312451b948a7413f0a142fd40d4934794b94f5374fce5edbc8e2a8697c15331677e6ebf0ba0733c6776ffbffb000666b845e268f5c9d14edda2342698522c5e7610483b2e7ea056e81f171bcc55a6ff8345e692c0f86e5b48e01b996cadc001622fb5e363b421a056e81f171bcc55a6ff8345e692c0f86e5b48e01b996cadc001622fb5e363b421b90100000000000000000000000000000000000000000000000000000000000000000000000000000000000000000000000000000000000000000000000000000000000000000000000000000000000000000000000000000000000000000000000000000000000000000000000000000000000000000000000000000000000000000000000000000000000000000000000000000000000000000000000000000000000000000000000000000000000000000000000000000000000000000000000000000000000000000000000000000000000000000000000000000000000000000000000000000000000000000000000000000000000000000000000000000000008080830f4240808203e842a0000000000000000000000000000000000000000000000000000000000002000088000000000000000010a056e81f171bcc55a6ff8345e692c0f86e5b48e01b996cadc001622fb5e363b4218080a00000000000000000000000000000000000000000000000000000000000000000c0c0c0",
        "lastblockhash" : "0xfb427b7764a0ad8e9eb7d7641f21ac440c42567594c865981ec67d8a6f2881a0",
        "network" : "Cancun",
        "postState" : {
            "0x000f3df6d732807ef1319fb7b8bb8522d0beac02" : {
                "balance" : "0x00",
                "code" : "0x3373fffffffffffffffffffffffffffffffffffffffe14604d57602036146024575f5ffd5b5f35801560495762001fff810690815414603c575f5ffd5b62001fff01545f5260205ff35b5f5ffd5b62001fff42064281555f359062001fff015500",
                "nonce" : "0x01",
                "storage" : {
                    "0x03e8" : "0x03e8",
                    "0x07d0" : "0x07d0",
                    "0x0bb8" : "0x0bb8"
                }
            },
            "0xa94f5374fce5edbc8e2a8697c15331677e6ebf0b" : {
                "balance" : "0x7ea44d9e",
                "code" : "0x",
                "nonce" : "0x02",
                "storage" : {
                }
            },
            "0xb24f5374fce5edbc8e2a8697c15331677e6ebf0b" : {
                "balance" : "0x032748b1",
                "code" : "0x73c24f5374fce5edbc8e2a8697c15331677e6ebf0bff00",
                "nonce" : "0x00",
                "storage" : {
                }
            },
            "0xb94f5374fce5edbc8e2a8697c15331677e6ebf0b" : {
                "balance" : "0x01467ed0",
                "code" : "0x73c94f5374fce5edbc8e2a8697c15331677e6ebf0bff00",
                "nonce" : "0x00",
                "storage" : {
                }
            },
            "0xc24f5374fce5edbc8e2a8697c15331677e6ebf0b" : {
                "balance" : "0x03f2",
                "code" : "0x",
                "nonce" : "0x00",
                "storage" : {
                }
            }
        },
        "pre" : {
            "0x000f3df6d732807ef1319fb7b8bb8522d0beac02" : {
                "balance" : "0x00",
                "code" : "0x3373fffffffffffffffffffffffffffffffffffffffe14604d57602036146024575f5ffd5b5f35801560495762001fff810690815414603c575f5ffd5b62001fff01545f5260205ff35b5f5ffd5b62001fff42064281555f359062001fff015500",
                "nonce" : "0x01",
                "storage" : {
                    "0x03e8" : "0x03e8"
                }
            },
            "0xa94f5374fce5edbc8e2a8697c15331677e6ebf0b" : {
                "balance" : "0x83215600",
                "code" : "0x",
                "nonce" : "0x00",
                "storage" : {
                }
            },
            "0xb24f5374fce5edbc8e2a8697c15331677e6ebf0b" : {
                "balance" : "0x03e8",
                "code" : "0x73c24f5374fce5edbc8e2a8697c15331677e6ebf0bff00",
                "nonce" : "0x00",
                "storage" : {
                }
            },
            "0xb94f5374fce5edbc8e2a8697c15331677e6ebf0b" : {
                "balance" : "0x03e8",
                "code" : "0x73c94f5374fce5edbc8e2a8697c15331677e6ebf0bff00",
                "nonce" : "0x00",
                "storage" : {
                }
            }
        },
        "sealEngine" : "NoProof"
    },
    "SuicidesMixingCoinbase_Prague" : {
        "_info" : {
            "comment" : "",
            "filling-rpc-server" : "evmone-t8n 0.14.0-13+commit.4d363c36",
            "filling-tool-version" : "retesteth-0.3.2-legacy+commit.ca7f4c79.Linux.g++",
            "fixture-format" : "blockchain_test",
            "generatedTestHash" : "8bcf59d0591b2d7f3cf03a97330349cfacdc915a5062ef43a6fe993e7b918db9",
            "lllcversion" : "Version: 0.5.14-develop.2024.11.5+commit.b2b86751.mod.Linux.g++",
            "solidity" : "Version: 0.8.24+commit.e11b9ed9.Linux.g++",
            "source" : "src/BlockchainTestsFiller/ValidBlocks/bcStateTests/SuicidesMixingCoinbaseFiller.json",
            "sourceHash" : "19e33ab515d42443a87cbc5e4df1651e6394c3555851d9b68852337740c8b339"
        },
        "blocks" : [
            {
                "blockHeader" : {
                    "baseFeePerGas" : "0x0e",
                    "bloom" : "0x00000000000000000000000000000000000000000000000000000000000000000000000000000000000000000000000000000000000000000000000000000000000000000000000000000000000000000000000000000000000000000000000000000000000000000000000000000000000000000000000000000000000000000000000000000000000000000000000000000000000000000000000000000000000000000000000000000000000000000000000000000000000000000000000000000000000000000000000000000000000000000000000000000000000000000000000000000000000000000000000000000000000000000000000000000000",
                    "coinbase" : "0xb94f5374fce5edbc8e2a8697c15331677e6ebf0b",
                    "extraData" : "0x42",
                    "gasLimit" : "0x0f4240",
                    "gasUsed" : "0x54c4",
                    "hash" : "0xcc19e4985e5cb5977102850cd8699340277867d585d4aa5cf3ac33418f6b7b02",
                    "mixHash" : "0x0000000000000000000000000000000000000000000000000000000000020000",
                    "nonce" : "0x0000000000000000",
                    "number" : "0x01",
                    "parentBeaconBlockRoot" : "0x0000000000000000000000000000000000000000000000000000000000000000",
                    "parentHash" : "0x259ded8daf0927662cc71a53a16948d24ac9751db3f736f4ebe808999ee0cba1",
                    "receiptTrie" : "0xcc622cd09860dbcba5e111e2491e3c10a6a007266fe0036aefc4dc772e9e8e7c",
                    "requestsHash" : "0xe3b0c44298fc1c149afbf4c8996fb92427ae41e4649b934ca495991b7852b855",
                    "stateRoot" : "0xbc3b6f4eb86877c9463d94ff7c66f69a527c7373601b2269a6f5748a50a2ae6e",
                    "timestamp" : "0x07d0",
                    "transactionsTrie" : "0xab9fe4ac341cf97677aad514961f3c825ad0c9af82a2f6d736163c9a054ed2b8",
                    "withdrawalsRoot" : "0x56e81f171bcc55a6ff8345e692c0f86e5b48e01b996cadc001622fb5e363b421"
                },
                "blocknumber" : "1",
                "chainname" : "default",
                "rlp" : "0xf902c4f9025aa0259ded8daf0927662cc71a53a16948d24ac9751db3f736f4ebe808999ee0cba1a01dcc4de8dec75d7aab85b567b6ccd41ad312451b948a7413f0a142fd40d4934794b94f5374fce5edbc8e2a8697c15331677e6ebf0ba0bc3b6f4eb86877c9463d94ff7c66f69a527c7373601b2269a6f5748a50a2ae6ea0ab9fe4ac341cf97677aad514961f3c825ad0c9af82a2f6d736163c9a054ed2b8a0cc622cd09860dbcba5e111e2491e3c10a6a007266fe0036aefc4dc772e9e8e7cb90100000000000000000000000000000000000000000000000000000000000000000000000000000000000000000000000000000000000000000000000000000000000000000000000000000000000000000000000000000000000000000000000000000000000000000000000000000000000000000000000000000000000000000000000000000000000000000000000000000000000000000000000000000000000000000000000000000000000000000000000000000000000000000000000000000000000000000000000000000000000000000000000000000000000000000000000000000000000000000000000000000000000000000000000000000000008001830f42408254c48207d042a000000000000000000000000000000000000000000000000000000000000200008800000000000000000ea056e81f171bcc55a6ff8345e692c0f86e5b48e01b996cadc001622fb5e363b4218080a00000000000000000000000000000000000000000000000000000000000000000a0e3b0c44298fc1c149afbf4c8996fb92427ae41e4649b934ca495991b7852b855f863f861808203e88254c494b94f5374fce5edbc8e2a8697c15331677e6ebf0b0a801ca0db062bab4faa88d3331be03149455ab2e089aca6f3efcc2bfe7f02db1e89b718a03cc779b1576ca9bd7d8bb1f615bc746551a53aba93be569e5a585a6eaaea26e1c0c0",
                "transactions" : [
                    {
                        "data" : "0x",
                        "gasLimit" : "0x54c4",
                        "gasPrice" : "0x03e8",
                        "nonce" : "0x00",
                        "r" : "0xdb062bab4faa88d3331be03149455ab2e089aca6f3efcc2bfe7f02db1e89b718",
                        "s" : "0x3cc779b1576ca9bd7d8bb1f615bc746551a53aba93be569e5a585a6eaaea26e1",
                        "sender" : "0xa94f5374fce5edbc8e2a8697c15331677e6ebf0b",
                        "to" : "0xb94f5374fce5edbc8e2a8697c15331677e6ebf0b",
                        "v" : "0x1c",
                        "value" : "0x0a"
                    }
                ],
                "uncleHeaders" : [
                ],
                "withdrawals" : [
                ]
            },
            {
                "blockHeader" : {
                    "baseFeePerGas" : "0x0d",
                    "bloom" : "0x00000000000000000000000000000000000000000000000000000000000000000000000000000000000000000000000000000000000000000000000000000000000000000000000000000000000000000000000000000000000000000000000000000000000000000000000000000000000000000000000000000000000000000000000000000000000000000000000000000000000000000000000000000000000000000000000000000000000000000000000000000000000000000000000000000000000000000000000000000000000000000000000000000000000000000000000000000000000000000000000000000000000000000000000000000000",
                    "coinbase" : "0xb24f5374fce5edbc8e2a8697c15331677e6ebf0b",
                    "extraData" : "0x42",
                    "gasLimit" : "0x0f4240",
                    "gasUsed" : "0xd163",
                    "hash" : "0xdf76ad1ca5dd2bc4ea1a66fda5c60825f51ca6bb86f7e02615667ccaefbf813d",
                    "mixHash" : "0x0000000000000000000000000000000000000000000000000000000000020000",
                    "nonce" : "0x0000000000000000",
                    "number" : "0x02",
                    "parentBeaconBlockRoot" : "0x0000000000000000000000000000000000000000000000000000000000000000",
                    "parentHash" : "0xcc19e4985e5cb5977102850cd8699340277867d585d4aa5cf3ac33418f6b7b02",
                    "receiptTrie" : "0x9bca0bb15596da57d190bd52836f542e44286c22cb1c22f4efe2c54946e53f8a",
                    "requestsHash" : "0xe3b0c44298fc1c149afbf4c8996fb92427ae41e4649b934ca495991b7852b855",
                    "stateRoot" : "0x06640054137603eaaf6945db311cb2a7ccbfcbac3820b7b38c3d8ac24139ad45",
                    "timestamp" : "0x0bb8",
                    "transactionsTrie" : "0xe5d9d104a39ad50255f8280a0b2d6eb9b5ff9213065e9fb5eae9b2b0e31f44e0",
                    "withdrawalsRoot" : "0x56e81f171bcc55a6ff8345e692c0f86e5b48e01b996cadc001622fb5e363b421"
                },
                "blocknumber" : "2",
                "chainname" : "default",
                "rlp" : "0xf902c4f9025aa0cc19e4985e5cb5977102850cd8699340277867d585d4aa5cf3ac33418f6b7b02a01dcc4de8dec75d7aab85b567b6ccd41ad312451b948a7413f0a142fd40d4934794b24f5374fce5edbc8e2a8697c15331677e6ebf0ba006640054137603eaaf6945db311cb2a7ccbfcbac3820b7b38c3d8ac24139ad45a0e5d9d104a39ad50255f8280a0b2d6eb9b5ff9213065e9fb5eae9b2b0e31f44e0a09bca0bb15596da57d190bd52836f542e44286c22cb1c22f4efe2c54946e53f8ab90100000000000000000000000000000000000000000000000000000000000000000000000000000000000000000000000000000000000000000000000000000000000000000000000000000000000000000000000000000000000000000000000000000000000000000000000000000000000000000000000000000000000000000000000000000000000000000000000000000000000000000000000000000000000000000000000000000000000000000000000000000000000000000000000000000000000000000000000000000000000000000000000000000000000000000000000000000000000000000000000000000000000000000000000000000000008002830f424082d163820bb842a000000000000000000000000000000000000000000000000000000000000200008800000000000000000da056e81f171bcc55a6ff8345e692c0f86e5b48e01b996cadc001622fb5e363b4218080a00000000000000000000000000000000000000000000000000000000000000000a0e3b0c44298fc1c149afbf4c8996fb92427ae41e4649b934ca495991b7852b855f863f861018203e882ea6094b24f5374fce5edbc8e2a8697c15331677e6ebf0b0a801ba0d2e54e989b91bd0b9e3ff0d67ea5ff8b1c9f5e031d6166bcf7019198616c63b4a0350bf6ea8761dadb683ff1cfcf34e008c4c82ff9e3e7a836245f54ec62514a94c0c0",
                "transactions" : [
                    {
                        "data" : "0x",
                        "gasLimit" : "0xea60",
                        "gasPrice" : "0x03e8",
                        "nonce" : "0x01",
                        "r" : "0xd2e54e989b91bd0b9e3ff0d67ea5ff8b1c9f5e031d6166bcf7019198616c63b4",
                        "s" : "0x350bf6ea8761dadb683ff1cfcf34e008c4c82ff9e3e7a836245f54ec62514a94",
                        "sender" : "0xa94f5374fce5edbc8e2a8697c15331677e6ebf0b",
                        "to" : "0xb24f5374fce5edbc8e2a8697c15331677e6ebf0b",
                        "v" : "0x1b",
                        "value" : "0x0a"
                    }
                ],
                "uncleHeaders" : [
                ],
                "withdrawals" : [
                ]
            }
        ],
        "config" : {
            "blobSchedule" : {
                "Prague" : {
                    "baseFeeUpdateFraction" : "0x4c6964",
                    "max" : "0x09",
                    "target" : "0x06"
                }
            },
            "chainid" : "0x01",
            "network" : "Prague"
        },
        "genesisBlockHeader" : {
            "baseFeePerGas" : "0x10",
            "bloom" : "0x00000000000000000000000000000000000000000000000000000000000000000000000000000000000000000000000000000000000000000000000000000000000000000000000000000000000000000000000000000000000000000000000000000000000000000000000000000000000000000000000000000000000000000000000000000000000000000000000000000000000000000000000000000000000000000000000000000000000000000000000000000000000000000000000000000000000000000000000000000000000000000000000000000000000000000000000000000000000000000000000000000000000000000000000000000000",
            "coinbase" : "0xb94f5374fce5edbc8e2a8697c15331677e6ebf0b",
            "extraData" : "0x42",
            "gasLimit" : "0x0f4240",
            "gasUsed" : "0x00",
            "hash" : "0x259ded8daf0927662cc71a53a16948d24ac9751db3f736f4ebe808999ee0cba1",
            "mixHash" : "0x0000000000000000000000000000000000000000000000000000000000020000",
            "nonce" : "0x0000000000000000",
            "number" : "0x00",
            "parentBeaconBlockRoot" : "0x0000000000000000000000000000000000000000000000000000000000000000",
            "parentHash" : "0x0000000000000000000000000000000000000000000000000000000000000000",
            "receiptTrie" : "0x56e81f171bcc55a6ff8345e692c0f86e5b48e01b996cadc001622fb5e363b421",
            "requestsHash" : "0xe3b0c44298fc1c149afbf4c8996fb92427ae41e4649b934ca495991b7852b855",
            "stateRoot" : "0xae0d764ad85dbac8132c7207707cc60f676f7b5f7df78dee176e1935694220d9",
            "timestamp" : "0x03e8",
            "transactionsTrie" : "0x56e81f171bcc55a6ff8345e692c0f86e5b48e01b996cadc001622fb5e363b421",
            "withdrawalsRoot" : "0x56e81f171bcc55a6ff8345e692c0f86e5b48e01b996cadc001622fb5e363b421"
        },
        "genesisRLP" : "0xf9025ef90258a00000000000000000000000000000000000000000000000000000000000000000a01dcc4de8dec75d7aab85b567b6ccd41ad312451b948a7413f0a142fd40d4934794b94f5374fce5edbc8e2a8697c15331677e6ebf0ba0ae0d764ad85dbac8132c7207707cc60f676f7b5f7df78dee176e1935694220d9a056e81f171bcc55a6ff8345e692c0f86e5b48e01b996cadc001622fb5e363b421a056e81f171bcc55a6ff8345e692c0f86e5b48e01b996cadc001622fb5e363b421b90100000000000000000000000000000000000000000000000000000000000000000000000000000000000000000000000000000000000000000000000000000000000000000000000000000000000000000000000000000000000000000000000000000000000000000000000000000000000000000000000000000000000000000000000000000000000000000000000000000000000000000000000000000000000000000000000000000000000000000000000000000000000000000000000000000000000000000000000000000000000000000000000000000000000000000000000000000000000000000000000000000000000000000000000000000000008080830f4240808203e842a0000000000000000000000000000000000000000000000000000000000002000088000000000000000010a056e81f171bcc55a6ff8345e692c0f86e5b48e01b996cadc001622fb5e363b4218080a00000000000000000000000000000000000000000000000000000000000000000a0e3b0c44298fc1c149afbf4c8996fb92427ae41e4649b934ca495991b7852b855c0c0c0",
        "lastblockhash" : "0xdf76ad1ca5dd2bc4ea1a66fda5c60825f51ca6bb86f7e02615667ccaefbf813d",
        "network" : "Prague",
        "postState" : {
            "0x0000f90827f1c53a10cb7a02335b175320002935" : {
                "balance" : "0x00",
                "code" : "0x3373fffffffffffffffffffffffffffffffffffffffe14604657602036036042575f35600143038111604257611fff81430311604257611fff9006545f5260205ff35b5f5ffd5b5f35611fff60014303065500",
                "nonce" : "0x01",
                "storage" : {
                    "0x00" : "0x259ded8daf0927662cc71a53a16948d24ac9751db3f736f4ebe808999ee0cba1",
                    "0x01" : "0xcc19e4985e5cb5977102850cd8699340277867d585d4aa5cf3ac33418f6b7b02"
                }
            },
            "0x000f3df6d732807ef1319fb7b8bb8522d0beac02" : {
                "balance" : "0x00",
                "code" : "0x3373fffffffffffffffffffffffffffffffffffffffe14604d57602036146024575f5ffd5b5f35801560495762001fff810690815414603c575f5ffd5b62001fff01545f5260205ff35b5f5ffd5b62001fff42064281555f359062001fff015500",
                "nonce" : "0x01",
                "storage" : {
                    "0x03e8" : "0x03e8",
                    "0x07d0" : "0x07d0",
                    "0x0bb8" : "0x0bb8"
                }
            },
            "0xa94f5374fce5edbc8e2a8697c15331677e6ebf0b" : {
                "balance" : "0x7ea44d9e",
                "code" : "0x",
                "nonce" : "0x02",
                "storage" : {
                }
            },
            "0xb24f5374fce5edbc8e2a8697c15331677e6ebf0b" : {
                "balance" : "0x032748b1",
                "code" : "0x73c24f5374fce5edbc8e2a8697c15331677e6ebf0bff00",
                "nonce" : "0x00",
                "storage" : {
                }
            },
            "0xb94f5374fce5edbc8e2a8697c15331677e6ebf0b" : {
                "balance" : "0x01467ed0",
                "code" : "0x73c94f5374fce5edbc8e2a8697c15331677e6ebf0bff00",
                "nonce" : "0x00",
                "storage" : {
                }
            },
            "0xc24f5374fce5edbc8e2a8697c15331677e6ebf0b" : {
                "balance" : "0x03f2",
                "code" : "0x",
                "nonce" : "0x00",
                "storage" : {
                }
            }
        },
        "pre" : {
            "0x0000f90827f1c53a10cb7a02335b175320002935" : {
                "balance" : "0x00",
                "code" : "0x3373fffffffffffffffffffffffffffffffffffffffe14604657602036036042575f35600143038111604257611fff81430311604257611fff9006545f5260205ff35b5f5ffd5b5f35611fff60014303065500",
                "nonce" : "0x01",
                "storage" : {
                }
            },
            "0x000f3df6d732807ef1319fb7b8bb8522d0beac02" : {
                "balance" : "0x00",
                "code" : "0x3373fffffffffffffffffffffffffffffffffffffffe14604d57602036146024575f5ffd5b5f35801560495762001fff810690815414603c575f5ffd5b62001fff01545f5260205ff35b5f5ffd5b62001fff42064281555f359062001fff015500",
                "nonce" : "0x01",
                "storage" : {
                    "0x03e8" : "0x03e8"
                }
            },
            "0xa94f5374fce5edbc8e2a8697c15331677e6ebf0b" : {
                "balance" : "0x83215600",
                "code" : "0x",
                "nonce" : "0x00",
                "storage" : {
                }
            },
            "0xb24f5374fce5edbc8e2a8697c15331677e6ebf0b" : {
                "balance" : "0x03e8",
                "code" : "0x73c24f5374fce5edbc8e2a8697c15331677e6ebf0bff00",
                "nonce" : "0x00",
                "storage" : {
                }
            },
            "0xb94f5374fce5edbc8e2a8697c15331677e6ebf0b" : {
                "balance" : "0x03e8",
                "code" : "0x73c94f5374fce5edbc8e2a8697c15331677e6ebf0bff00",
                "nonce" : "0x00",
                "storage" : {
                }
            }
        },
        "sealEngine" : "NoProof"
    }
}