{
    "suicideStorageCheck_Cancun" : {
        "_info" : {
            "comment" : "[2:21:10] Vitalik Buterin: (i) set storage key 1 of contract C to 3. (ii) self-destruct contract C. (iii) in the next transaction create contract C, and read its storage key.  I - via transaction create.",
            "filling-rpc-server" : "evmone-t8n 0.14.0-13+commit.4d363c36",
            "filling-tool-version" : "retesteth-0.3.2-legacy+commit.ca7f4c79.Linux.g++",
            "fixture-format" : "blockchain_test",
            "generatedTestHash" : "0e0a60c967001bbfe9d6bc829e1f9f7353b7a431fade9376ce362e37de7461e4",
            "lllcversion" : "Version: 0.5.14-develop.2024.11.5+commit.b2b86751.mod.Linux.g++",
            "hyperion" : "Version: 0.8.24+commit.e11b9ed9.Linux.g++",
            "source" : "src/BlockchainTestsFiller/ValidBlocks/bcStateTests/suicideStorageCheckFiller.json",
            "sourceHash" : "01ce3480fafed21993ec91e80605f36fcc4933a378031cfd1fe29d76466abba8"
        },
        "blocks" : [
            {
                "blockHeader" : {
                    "baseFeePerGas" : "0x0e",
                    "bloom" : "0x00000000000000000000000000000000000000000000000000000000000000000000000000000000000000000000000000000000000000000000000000000000000000000000000000000000000000000000000000000000000000000000000000000000000000000000000000000000000000000000000000000000000000000000000000000000000000000000000000000000000000000000000000000000000000000000000000000000000000000000000000000000000000000000000000000000000000000000000000000000000000000000000000000000000000000000000000000000000000000000000000000000000000000000000000000000",
                    "coinbase" : "0x8888f1f195afa192cfee860698584c030f4c9db1",
                    "extraData" : "0x42",
                    "gasLimit" : "0x2fefd8",
                    "gasUsed" : "0x073815",
                    "hash" : "0x17702ef536b1c003f6d74e6d4d43684e3cad01baf3df4b58125431e15b71e38e",
                    "mixHash" : "0x0000000000000000000000000000000000000000000000000000000000020000",
                    "nonce" : "0x0000000000000000",
                    "number" : "0x01",
                    "parentHash" : "0x99a9449e5097a2d4e98cad84657629fe67b9e92543a5407c6f377513258c14a1",
                    "receiptTrie" : "0x22d56d123f9e667d020252e86c370e7620238d54959f044c1b7b50d0c37a2e90",
                    "stateRoot" : "0x5270e4ed7318a1c490b6c6323befbf60eb89ed031e9d468dc15f0cd876daf031",
                    "timestamp" : "0x54c99069",
                    "transactionsTrie" : "0x8e61555eafc4b251cd71d6763d36ebcec10364082b8373897406520e3af5adcc",
                    "withdrawalsRoot" : "0x56e81f171bcc55a6ff8345e692c0f86e5b48e01b996cadc001622fb5e363b421"
                },
                "blocknumber" : "1",
                "chainname" : "default",
                "rlp" : "0xf90303f9023ca099a9449e5097a2d4e98cad84657629fe67b9e92543a5407c6f377513258c14a1a01dcc4de8dec75d7aab85b567b6ccd41ad312451b948a7413f0a142fd40d49347948888f1f195afa192cfee860698584c030f4c9db1a05270e4ed7318a1c490b6c6323befbf60eb89ed031e9d468dc15f0cd876daf031a08e61555eafc4b251cd71d6763d36ebcec10364082b8373897406520e3af5adcca022d56d123f9e667d020252e86c370e7620238d54959f044c1b7b50d0c37a2e90b90100000000000000000000000000000000000000000000000000000000000000000000000000000000000000000000000000000000000000000000000000000000000000000000000000000000000000000000000000000000000000000000000000000000000000000000000000000000000000000000000000000000000000000000000000000000000000000000000000000000000000000000000000000000000000000000000000000000000000000000000000000000000000000000000000000000000000000000000000000000000000000000000000000000000000000000000000000000000000000000000000000000000000000000000000000000008001832fefd8830738158454c9906942a000000000000000000000000000000000000000000000000000000000000200008800000000000000000ea056e81f171bcc55a6ff8345e692c0f86e5b48e01b996cadc001622fb5e363b4218080a00000000000000000000000000000000000000000000000000000000000000000f8c0f862808203e883061a8094ec0e71ad0a90ffe1909d27dac207f7680abba42d80801ca0ad40a33f7a6dfdbeba73fa1815a36f8c4ea577c6d183dc2d2e2f7f56e5cc86b2a07a1741e264e66d707039ab24e25094a700f229840888cd2a52eb8e0314805b31f85a018203e883061a8080808c6001546003556002600255001ca0f9063fd3209ebf46ba026750c958979269dc6d146fefbb5cde3242feb8268983a045044000e7e31fc3b2b2fe37ba41fd30a934e5d780558a25dbe5cb259292463ec0c0",
                "transactions" : [
                    {
                        "data" : "0x",
                        "gasLimit" : "0x061a80",
                        "gasPrice" : "0x03e8",
                        "nonce" : "0x00",
                        "r" : "0xad40a33f7a6dfdbeba73fa1815a36f8c4ea577c6d183dc2d2e2f7f56e5cc86b2",
                        "s" : "0x7a1741e264e66d707039ab24e25094a700f229840888cd2a52eb8e0314805b31",
                        "sender" : "0xa94f5374fce5edbc8e2a8697c15331677e6ebf0b",
                        "to" : "0xec0e71ad0a90ffe1909d27dac207f7680abba42d",
                        "v" : "0x1c",
                        "value" : "0x00"
                    },
                    {
                        "data" : "0x600154600355600260025500",
                        "gasLimit" : "0x061a80",
                        "gasPrice" : "0x03e8",
                        "nonce" : "0x01",
                        "r" : "0xf9063fd3209ebf46ba026750c958979269dc6d146fefbb5cde3242feb8268983",
                        "s" : "0x45044000e7e31fc3b2b2fe37ba41fd30a934e5d780558a25dbe5cb259292463e",
                        "sender" : "0xa94f5374fce5edbc8e2a8697c15331677e6ebf0b",
                        "to" : "",
                        "v" : "0x1c",
                        "value" : "0x00"
                    }
                ],
                "uncleHeaders" : [
                ],
                "withdrawals" : [
                ]
            }
        ],
        "config" : {
            "blobSchedule" : {
                "Cancun" : {
                    "baseFeeUpdateFraction" : "0x32f0ed",
                    "max" : "0x06",
                    "target" : "0x03"
                }
            },
            "chainid" : "0x01",
            "network" : "Cancun"
        },
        "genesisBlockHeader" : {
            "baseFeePerGas" : "0x10",
            "bloom" : "0x00000000000000000000000000000000000000000000000000000000000000000000000000000000000000000000000000000000000000000000000000000000000000000000000000000000000000000000000000000000000000000000000000000000000000000000000000000000000000000000000000000000000000000000000000000000000000000000000000000000000000000000000000000000000000000000000000000000000000000000000000000000000000000000000000000000000000000000000000000000000000000000000000000000000000000000000000000000000000000000000000000000000000000000000000000000",
            "coinbase" : "0x8888f1f195afa192cfee860698584c030f4c9db1",
            "extraData" : "0x42",
            "gasLimit" : "0x2fefd8",
            "gasUsed" : "0x00",
            "hash" : "0x99a9449e5097a2d4e98cad84657629fe67b9e92543a5407c6f377513258c14a1",
            "mixHash" : "0x0000000000000000000000000000000000000000000000000000000000020000",
            "nonce" : "0x0000000000000000",
            "number" : "0x00",
            "parentHash" : "0x0000000000000000000000000000000000000000000000000000000000000000",
            "receiptTrie" : "0x56e81f171bcc55a6ff8345e692c0f86e5b48e01b996cadc001622fb5e363b421",
            "stateRoot" : "0xe24421be14124bb1ac444d70bedc477f4540fd0b22088ccd359c1e170e4bad7d",
            "timestamp" : "0x54c98c81",
            "transactionsTrie" : "0x56e81f171bcc55a6ff8345e692c0f86e5b48e01b996cadc001622fb5e363b421",
            "withdrawalsRoot" : "0x56e81f171bcc55a6ff8345e692c0f86e5b48e01b996cadc001622fb5e363b421"
        },
        "genesisRLP" : "0xf9023ff90239a00000000000000000000000000000000000000000000000000000000000000000a01dcc4de8dec75d7aab85b567b6ccd41ad312451b948a7413f0a142fd40d49347948888f1f195afa192cfee860698584c030f4c9db1a0e24421be14124bb1ac444d70bedc477f4540fd0b22088ccd359c1e170e4bad7da056e81f171bcc55a6ff8345e692c0f86e5b48e01b996cadc001622fb5e363b421a056e81f171bcc55a6ff8345e692c0f86e5b48e01b996cadc001622fb5e363b421b90100000000000000000000000000000000000000000000000000000000000000000000000000000000000000000000000000000000000000000000000000000000000000000000000000000000000000000000000000000000000000000000000000000000000000000000000000000000000000000000000000000000000000000000000000000000000000000000000000000000000000000000000000000000000000000000000000000000000000000000000000000000000000000000000000000000000000000000000000000000000000000000000000000000000000000000000000000000000000000000000000000000000000000000000000000000008080832fefd8808454c98c8142a0000000000000000000000000000000000000000000000000000000000002000088000000000000000010a056e81f171bcc55a6ff8345e692c0f86e5b48e01b996cadc001622fb5e363b4218080a00000000000000000000000000000000000000000000000000000000000000000c0c0c0",
        "lastblockhash" : "0x17702ef536b1c003f6d74e6d4d43684e3cad01baf3df4b58125431e15b71e38e",
        "network" : "Cancun",
        "postState" : {
            "0x0000000000000000000000000000000000000001" : {
                "balance" : "0x03e8",
                "code" : "0x",
                "nonce" : "0x00",
                "storage" : {
                }
            },
            "0x000f3df6d732807ef1319fb7b8bb8522d0beac02" : {
                "balance" : "0x00",
                "code" : "0x3373fffffffffffffffffffffffffffffffffffffffe14604d57602036146024575f5ffd5b5f35801560495762001fff810690815414603c575f5ffd5b62001fff01545f5260205ff35b5f5ffd5b62001fff42064281555f359062001fff015500",
                "nonce" : "0x01",
                "storage" : {
                    "0x12e2" : "0x54c98c81",
                    "0x16ca" : "0x54c99069"
                }
            },
            "0x8888f1f195afa192cfee860698584c030f4c9db1" : {
                "balance" : "0x1bce00e2",
                "code" : "0x",
                "nonce" : "0x00",
                "storage" : {
                }
            },
            "0xa94f5374fce5edbc8e2a8697c15331677e6ebf0b" : {
                "balance" : "0x0237d8d1f8",
                "code" : "0x",
                "nonce" : "0x02",
                "storage" : {
                }
            },
            "0xec0e71ad0a90ffe1909d27dac207f7680abba42d" : {
                "balance" : "0x00",
                "code" : "0x60036001556001ff00",
                "nonce" : "0x00",
                "storage" : {
                    "0x01" : "0x03"
                }
            }
        },
        "pre" : {
            "0x000f3df6d732807ef1319fb7b8bb8522d0beac02" : {
                "balance" : "0x00",
                "code" : "0x3373fffffffffffffffffffffffffffffffffffffffe14604d57602036146024575f5ffd5b5f35801560495762001fff810690815414603c575f5ffd5b62001fff01545f5260205ff35b5f5ffd5b62001fff42064281555f359062001fff015500",
                "nonce" : "0x01",
                "storage" : {
                    "0x12e2" : "0x54c98c81"
                }
            },
            "0xa94f5374fce5edbc8e2a8697c15331677e6ebf0b" : {
                "balance" : "0x02540be400",
                "code" : "0x",
                "nonce" : "0x00",
                "storage" : {
                }
            },
            "0xec0e71ad0a90ffe1909d27dac207f7680abba42d" : {
                "balance" : "0x03e8",
                "code" : "0x60036001556001ff00",
                "nonce" : "0x00",
                "storage" : {
                }
            }
        },
        "sealEngine" : "NoProof"
    },
    "suicideStorageCheck_Prague" : {
        "_info" : {
            "comment" : "[2:21:10] Vitalik Buterin: (i) set storage key 1 of contract C to 3. (ii) self-destruct contract C. (iii) in the next transaction create contract C, and read its storage key.  I - via transaction create.",
            "filling-rpc-server" : "evmone-t8n 0.14.0-13+commit.4d363c36",
            "filling-tool-version" : "retesteth-0.3.2-legacy+commit.ca7f4c79.Linux.g++",
            "fixture-format" : "blockchain_test",
            "generatedTestHash" : "8209e85cd81d69305382270b430133ab28e42aedbf0dc078410d9f0fd9865246",
            "lllcversion" : "Version: 0.5.14-develop.2024.11.5+commit.b2b86751.mod.Linux.g++",
            "hyperion" : "Version: 0.8.24+commit.e11b9ed9.Linux.g++",
            "source" : "src/BlockchainTestsFiller/ValidBlocks/bcStateTests/suicideStorageCheckFiller.json",
            "sourceHash" : "01ce3480fafed21993ec91e80605f36fcc4933a378031cfd1fe29d76466abba8"
        },
        "blocks" : [
            {
                "blockHeader" : {
                    "baseFeePerGas" : "0x0e",
                    "bloom" : "0x00000000000000000000000000000000000000000000000000000000000000000000000000000000000000000000000000000000000000000000000000000000000000000000000000000000000000000000000000000000000000000000000000000000000000000000000000000000000000000000000000000000000000000000000000000000000000000000000000000000000000000000000000000000000000000000000000000000000000000000000000000000000000000000000000000000000000000000000000000000000000000000000000000000000000000000000000000000000000000000000000000000000000000000000000000000",
                    "coinbase" : "0x8888f1f195afa192cfee860698584c030f4c9db1",
                    "extraData" : "0x42",
                    "gasLimit" : "0x2fefd8",
                    "gasUsed" : "0x073815",
                    "hash" : "0x4a5de18746eddd58ba3f53f9ab771733f6f9fcb50f4d00b2ad1a0d3e577a51c9",
                    "mixHash" : "0x0000000000000000000000000000000000000000000000000000000000020000",
                    "nonce" : "0x0000000000000000",
                    "number" : "0x01",
                    "parentHash" : "0xc9eb9975dce3a514dcf6edbae3856db900524b2d09db5fa5465f1f7b25f21033",
                    "receiptTrie" : "0x22d56d123f9e667d020252e86c370e7620238d54959f044c1b7b50d0c37a2e90",
                    "requestsHash" : "0xe3b0c44298fc1c149afbf4c8996fb92427ae41e4649b934ca495991b7852b855",
                    "stateRoot" : "0x96f504b5be2473959bddd876150afd7c23c1961d68f1bd251fd7f7e1aca38983",
                    "timestamp" : "0x54c99069",
                    "transactionsTrie" : "0x8e61555eafc4b251cd71d6763d36ebcec10364082b8373897406520e3af5adcc",
                    "withdrawalsRoot" : "0x56e81f171bcc55a6ff8345e692c0f86e5b48e01b996cadc001622fb5e363b421"
                },
                "blocknumber" : "1",
                "chainname" : "default",
                "rlp" : "0xf90324f9025da0c9eb9975dce3a514dcf6edbae3856db900524b2d09db5fa5465f1f7b25f21033a01dcc4de8dec75d7aab85b567b6ccd41ad312451b948a7413f0a142fd40d49347948888f1f195afa192cfee860698584c030f4c9db1a096f504b5be2473959bddd876150afd7c23c1961d68f1bd251fd7f7e1aca38983a08e61555eafc4b251cd71d6763d36ebcec10364082b8373897406520e3af5adcca022d56d123f9e667d020252e86c370e7620238d54959f044c1b7b50d0c37a2e90b90100000000000000000000000000000000000000000000000000000000000000000000000000000000000000000000000000000000000000000000000000000000000000000000000000000000000000000000000000000000000000000000000000000000000000000000000000000000000000000000000000000000000000000000000000000000000000000000000000000000000000000000000000000000000000000000000000000000000000000000000000000000000000000000000000000000000000000000000000000000000000000000000000000000000000000000000000000000000000000000000000000000000000000000000000000000008001832fefd8830738158454c9906942a000000000000000000000000000000000000000000000000000000000000200008800000000000000000ea056e81f171bcc55a6ff8345e692c0f86e5b48e01b996cadc001622fb5e363b4218080a00000000000000000000000000000000000000000000000000000000000000000a0e3b0c44298fc1c149afbf4c8996fb92427ae41e4649b934ca495991b7852b855f8c0f862808203e883061a8094ec0e71ad0a90ffe1909d27dac207f7680abba42d80801ca0ad40a33f7a6dfdbeba73fa1815a36f8c4ea577c6d183dc2d2e2f7f56e5cc86b2a07a1741e264e66d707039ab24e25094a700f229840888cd2a52eb8e0314805b31f85a018203e883061a8080808c6001546003556002600255001ca0f9063fd3209ebf46ba026750c958979269dc6d146fefbb5cde3242feb8268983a045044000e7e31fc3b2b2fe37ba41fd30a934e5d780558a25dbe5cb259292463ec0c0",
                "transactions" : [
                    {
                        "data" : "0x",
                        "gasLimit" : "0x061a80",
                        "gasPrice" : "0x03e8",
                        "nonce" : "0x00",
                        "r" : "0xad40a33f7a6dfdbeba73fa1815a36f8c4ea577c6d183dc2d2e2f7f56e5cc86b2",
                        "s" : "0x7a1741e264e66d707039ab24e25094a700f229840888cd2a52eb8e0314805b31",
                        "sender" : "0xa94f5374fce5edbc8e2a8697c15331677e6ebf0b",
                        "to" : "0xec0e71ad0a90ffe1909d27dac207f7680abba42d",
                        "v" : "0x1c",
                        "value" : "0x00"
                    },
                    {
                        "data" : "0x600154600355600260025500",
                        "gasLimit" : "0x061a80",
                        "gasPrice" : "0x03e8",
                        "nonce" : "0x01",
                        "r" : "0xf9063fd3209ebf46ba026750c958979269dc6d146fefbb5cde3242feb8268983",
                        "s" : "0x45044000e7e31fc3b2b2fe37ba41fd30a934e5d780558a25dbe5cb259292463e",
                        "sender" : "0xa94f5374fce5edbc8e2a8697c15331677e6ebf0b",
                        "to" : "",
                        "v" : "0x1c",
                        "value" : "0x00"
                    }
                ],
                "uncleHeaders" : [
                ],
                "withdrawals" : [
                ]
            }
        ],
        "config" : {
            "blobSchedule" : {
                "Prague" : {
                    "baseFeeUpdateFraction" : "0x4c6964",
                    "max" : "0x09",
                    "target" : "0x06"
                }
            },
            "chainid" : "0x01",
            "network" : "Prague"
        },
        "genesisBlockHeader" : {
            "baseFeePerGas" : "0x10",
            "bloom" : "0x00000000000000000000000000000000000000000000000000000000000000000000000000000000000000000000000000000000000000000000000000000000000000000000000000000000000000000000000000000000000000000000000000000000000000000000000000000000000000000000000000000000000000000000000000000000000000000000000000000000000000000000000000000000000000000000000000000000000000000000000000000000000000000000000000000000000000000000000000000000000000000000000000000000000000000000000000000000000000000000000000000000000000000000000000000000",
            "coinbase" : "0x8888f1f195afa192cfee860698584c030f4c9db1",
            "extraData" : "0x42",
            "gasLimit" : "0x2fefd8",
            "gasUsed" : "0x00",
            "hash" : "0xc9eb9975dce3a514dcf6edbae3856db900524b2d09db5fa5465f1f7b25f21033",
            "mixHash" : "0x0000000000000000000000000000000000000000000000000000000000020000",
            "nonce" : "0x0000000000000000",
            "number" : "0x00",
            "parentHash" : "0x0000000000000000000000000000000000000000000000000000000000000000",
            "receiptTrie" : "0x56e81f171bcc55a6ff8345e692c0f86e5b48e01b996cadc001622fb5e363b421",
            "requestsHash" : "0xe3b0c44298fc1c149afbf4c8996fb92427ae41e4649b934ca495991b7852b855",
            "stateRoot" : "0xafb160def0aa809d1ba42744dd7369e0253079c4562786292aec54730ec62a93",
            "timestamp" : "0x54c98c81",
            "transactionsTrie" : "0x56e81f171bcc55a6ff8345e692c0f86e5b48e01b996cadc001622fb5e363b421",
            "withdrawalsRoot" : "0x56e81f171bcc55a6ff8345e692c0f86e5b48e01b996cadc001622fb5e363b421"
        },
        "genesisRLP" : "0xf90260f9025aa00000000000000000000000000000000000000000000000000000000000000000a01dcc4de8dec75d7aab85b567b6ccd41ad312451b948a7413f0a142fd40d49347948888f1f195afa192cfee860698584c030f4c9db1a0afb160def0aa809d1ba42744dd7369e0253079c4562786292aec54730ec62a93a056e81f171bcc55a6ff8345e692c0f86e5b48e01b996cadc001622fb5e363b421a056e81f171bcc55a6ff8345e692c0f86e5b48e01b996cadc001622fb5e363b421b90100000000000000000000000000000000000000000000000000000000000000000000000000000000000000000000000000000000000000000000000000000000000000000000000000000000000000000000000000000000000000000000000000000000000000000000000000000000000000000000000000000000000000000000000000000000000000000000000000000000000000000000000000000000000000000000000000000000000000000000000000000000000000000000000000000000000000000000000000000000000000000000000000000000000000000000000000000000000000000000000000000000000000000000000000000000008080832fefd8808454c98c8142a0000000000000000000000000000000000000000000000000000000000002000088000000000000000010a056e81f171bcc55a6ff8345e692c0f86e5b48e01b996cadc001622fb5e363b4218080a00000000000000000000000000000000000000000000000000000000000000000a0e3b0c44298fc1c149afbf4c8996fb92427ae41e4649b934ca495991b7852b855c0c0c0",
        "lastblockhash" : "0x4a5de18746eddd58ba3f53f9ab771733f6f9fcb50f4d00b2ad1a0d3e577a51c9",
        "network" : "Prague",
        "postState" : {
            "0x0000000000000000000000000000000000000001" : {
                "balance" : "0x03e8",
                "code" : "0x",
                "nonce" : "0x00",
                "storage" : {
                }
            },
            "0x0000f90827f1c53a10cb7a02335b175320002935" : {
                "balance" : "0x00",
                "code" : "0x3373fffffffffffffffffffffffffffffffffffffffe14604657602036036042575f35600143038111604257611fff81430311604257611fff9006545f5260205ff35b5f5ffd5b5f35611fff60014303065500",
                "nonce" : "0x01",
                "storage" : {
                    "0x00" : "0xc9eb9975dce3a514dcf6edbae3856db900524b2d09db5fa5465f1f7b25f21033"
                }
            },
            "0x000f3df6d732807ef1319fb7b8bb8522d0beac02" : {
                "balance" : "0x00",
                "code" : "0x3373fffffffffffffffffffffffffffffffffffffffe14604d57602036146024575f5ffd5b5f35801560495762001fff810690815414603c575f5ffd5b62001fff01545f5260205ff35b5f5ffd5b62001fff42064281555f359062001fff015500",
                "nonce" : "0x01",
                "storage" : {
                    "0x12e2" : "0x54c98c81",
                    "0x16ca" : "0x54c99069"
                }
            },
            "0x8888f1f195afa192cfee860698584c030f4c9db1" : {
                "balance" : "0x1bce00e2",
                "code" : "0x",
                "nonce" : "0x00",
                "storage" : {
                }
            },
            "0xa94f5374fce5edbc8e2a8697c15331677e6ebf0b" : {
                "balance" : "0x0237d8d1f8",
                "code" : "0x",
                "nonce" : "0x02",
                "storage" : {
                }
            },
            "0xec0e71ad0a90ffe1909d27dac207f7680abba42d" : {
                "balance" : "0x00",
                "code" : "0x60036001556001ff00",
                "nonce" : "0x00",
                "storage" : {
                    "0x01" : "0x03"
                }
            }
        },
        "pre" : {
            "0x0000f90827f1c53a10cb7a02335b175320002935" : {
                "balance" : "0x00",
                "code" : "0x3373fffffffffffffffffffffffffffffffffffffffe14604657602036036042575f35600143038111604257611fff81430311604257611fff9006545f5260205ff35b5f5ffd5b5f35611fff60014303065500",
                "nonce" : "0x01",
                "storage" : {
                }
            },
            "0x000f3df6d732807ef1319fb7b8bb8522d0beac02" : {
                "balance" : "0x00",
                "code" : "0x3373fffffffffffffffffffffffffffffffffffffffe14604d57602036146024575f5ffd5b5f35801560495762001fff810690815414603c575f5ffd5b62001fff01545f5260205ff35b5f5ffd5b62001fff42064281555f359062001fff015500",
                "nonce" : "0x01",
                "storage" : {
                    "0x12e2" : "0x54c98c81"
                }
            },
            "0xa94f5374fce5edbc8e2a8697c15331677e6ebf0b" : {
                "balance" : "0x02540be400",
                "code" : "0x",
                "nonce" : "0x00",
                "storage" : {
                }
            },
            "0xec0e71ad0a90ffe1909d27dac207f7680abba42d" : {
                "balance" : "0x03e8",
                "code" : "0x60036001556001ff00",
                "nonce" : "0x00",
                "storage" : {
                }
            }
        },
        "sealEngine" : "NoProof"
    }
}