{
    "suicideCoinbase_Cancun" : {
        "_info" : {
            "comment" : "",
            "filling-rpc-server" : "evmone-t8n 0.14.0-13+commit.4d363c36",
            "filling-tool-version" : "retesteth-0.3.2-legacy+commit.ca7f4c79.Linux.g++",
            "fixture-format" : "blockchain_test",
            "generatedTestHash" : "6855747a2e72d87d07f4bec7b79abffbddf55b70281dec08b94075589972fd49",
            "lllcversion" : "Version: 0.5.14-develop.2024.11.5+commit.b2b86751.mod.Linux.g++",
            "solidity" : "Version: 0.8.24+commit.e11b9ed9.Linux.g++",
            "source" : "src/BlockchainTestsFiller/ValidBlocks/bcStateTests/suicideCoinbaseFiller.json",
            "sourceHash" : "3ad4df21b8eefd86693df84e9674f4099923db24d2c55c65f01c74127c442cec"
        },
        "blocks" : [
            {
                "blockHeader" : {
                    "baseFeePerGas" : "0x0e",
                    "bloom" : "0x00000000000000000000000000000000000000000000000000000000000000000000000000000000000000000000000000000000000000000000000000000000000000000000000000000000000000000000000000000000000000000000000000000000000000000000000000000000000000000000000000000000000000000000000000000000000000000000000000000000000000000000000000000000000000000000000000000000000000000000000000000000000000000000000000000000000000000000000000000000000000000000000000000000000000000000000000000000000000000000000000000000000000000000000000000000",
                    "coinbase" : "0x8888f1f195afa192cfee860698584c030f4c9db1",
                    "extraData" : "0x42",
                    "gasLimit" : "0x2fefd8",
                    "gasUsed" : "0x010a36",
                    "hash" : "0x340acd9e46a0e577363f09ff082cfad4502be777d464fd84b3a91a702cbeaa93",
                    "mixHash" : "0x0000000000000000000000000000000000000000000000000000000000020000",
                    "nonce" : "0x0000000000000000",
                    "number" : "0x01",
                    "parentBeaconBlockRoot" : "0x0000000000000000000000000000000000000000000000000000000000000000",
                    "parentHash" : "0x5d4e082c2f8927e4485581386ecc804039f339c12e5b8e3d0892dab9dac5ee32",
                    "receiptTrie" : "0xb7036e54999f172d767e00c84614ecb000a834a82db5dc073e11c2e8680cc543",
                    "stateRoot" : "0x30eede3956ec7ede3c91904f49754a75142baf06731950aa56ffb11b47e346f0",
                    "timestamp" : "0x54c99069",
                    "transactionsTrie" : "0x766957c406ac9b02a9fce018462fee725bc00137cfb3e0c0c0aa4d94506d38e0",
                    "withdrawalsRoot" : "0x56e81f171bcc55a6ff8345e692c0f86e5b48e01b996cadc001622fb5e363b421"
                },
                "blocknumber" : "1",
                "chainname" : "default",
                "rlp" : "0xf90378f9023ca05d4e082c2f8927e4485581386ecc804039f339c12e5b8e3d0892dab9dac5ee32a01dcc4de8dec75d7aab85b567b6ccd41ad312451b948a7413f0a142fd40d49347948888f1f195afa192cfee860698584c030f4c9db1a030eede3956ec7ede3c91904f49754a75142baf06731950aa56ffb11b47e346f0a0766957c406ac9b02a9fce018462fee725bc00137cfb3e0c0c0aa4d94506d38e0a0b7036e54999f172d767e00c84614ecb000a834a82db5dc073e11c2e8680cc543b90100000000000000000000000000000000000000000000000000000000000000000000000000000000000000000000000000000000000000000000000000000000000000000000000000000000000000000000000000000000000000000000000000000000000000000000000000000000000000000000000000000000000000000000000000000000000000000000000000000000000000000000000000000000000000000000000000000000000000000000000000000000000000000000000000000000000000000000000000000000000000000000000000000000000000000000000000000000000000000000000000000000000000000000000000000000008001832fefd883010a368454c9906942a000000000000000000000000000000000000000000000000000000000000200008800000000000000000ea056e81f171bcc55a6ff8345e692c0f86e5b48e01b996cadc001622fb5e363b4218080a00000000000000000000000000000000000000000000000000000000000000000f90134f868808203e88307a120948888f1f195afa192cfee860698584c030f4c9db18203e9840c55699c1ca0e8fe44f3e3d67cf1b6fd78edca1a0bd6c94290e2f4f5cf6870cd0de64801c926a0625a7d8ffbb00b732c39c4e1bb4a57e894ac868a05b60a946cb6e3f1351b5854f863018203e882c3509400000000000000000000000000000000000000008203e8801ca0f968ac22a8b9efbb650a5819485904a2a4e0102c1c2ea06c3d3fedac0d7509f7a07741473664d35300d4e37b5552c8353b7c5d6fe93a4f7a413374e216dc4b411bf863028203e882c3509400000000000000000000000000000000000000008203ea801ca05e73352c4aac874c2aa259e1734add191ca807a5f829d009c1f196ed0933ba1ea048c99071118f02fc518c95b519511a1e650762c811a83bb9828ae5a578beb817c0c0",
                "transactions" : [
                    {
                        "data" : "0x0c55699c",
                        "gasLimit" : "0x07a120",
                        "gasPrice" : "0x03e8",
                        "nonce" : "0x00",
                        "r" : "0xe8fe44f3e3d67cf1b6fd78edca1a0bd6c94290e2f4f5cf6870cd0de64801c926",
                        "s" : "0x625a7d8ffbb00b732c39c4e1bb4a57e894ac868a05b60a946cb6e3f1351b5854",
                        "sender" : "0xa94f5374fce5edbc8e2a8697c15331677e6ebf0b",
                        "to" : "0x8888f1f195afa192cfee860698584c030f4c9db1",
                        "v" : "0x1c",
                        "value" : "0x03e9"
                    },
                    {
                        "data" : "0x",
                        "gasLimit" : "0xc350",
                        "gasPrice" : "0x03e8",
                        "nonce" : "0x01",
                        "r" : "0xf968ac22a8b9efbb650a5819485904a2a4e0102c1c2ea06c3d3fedac0d7509f7",
                        "s" : "0x7741473664d35300d4e37b5552c8353b7c5d6fe93a4f7a413374e216dc4b411b",
                        "sender" : "0xa94f5374fce5edbc8e2a8697c15331677e6ebf0b",
                        "to" : "0x0000000000000000000000000000000000000000",
                        "v" : "0x1c",
                        "value" : "0x03e8"
                    },
                    {
                        "data" : "0x",
                        "gasLimit" : "0xc350",
                        "gasPrice" : "0x03e8",
                        "nonce" : "0x02",
                        "r" : "0x5e73352c4aac874c2aa259e1734add191ca807a5f829d009c1f196ed0933ba1e",
                        "s" : "0x48c99071118f02fc518c95b519511a1e650762c811a83bb9828ae5a578beb817",
                        "sender" : "0xa94f5374fce5edbc8e2a8697c15331677e6ebf0b",
                        "to" : "0x0000000000000000000000000000000000000000",
                        "v" : "0x1c",
                        "value" : "0x03ea"
                    }
                ],
                "uncleHeaders" : [
                ],
                "withdrawals" : [
                ]
            }
        ],
        "config" : {
            "blobSchedule" : {
                "Cancun" : {
                    "baseFeeUpdateFraction" : "0x32f0ed",
                    "max" : "0x06",
                    "target" : "0x03"
                }
            },
            "chainid" : "0x01",
            "network" : "Cancun"
        },
        "genesisBlockHeader" : {
            "baseFeePerGas" : "0x10",
            "bloom" : "0x00000000000000000000000000000000000000000000000000000000000000000000000000000000000000000000000000000000000000000000000000000000000000000000000000000000000000000000000000000000000000000000000000000000000000000000000000000000000000000000000000000000000000000000000000000000000000000000000000000000000000000000000000000000000000000000000000000000000000000000000000000000000000000000000000000000000000000000000000000000000000000000000000000000000000000000000000000000000000000000000000000000000000000000000000000000",
            "coinbase" : "0x8888f1f195afa192cfee860698584c030f4c9db1",
            "extraData" : "0x42",
            "gasLimit" : "0x2fefd8",
            "gasUsed" : "0x00",
            "hash" : "0x5d4e082c2f8927e4485581386ecc804039f339c12e5b8e3d0892dab9dac5ee32",
            "mixHash" : "0x0000000000000000000000000000000000000000000000000000000000020000",
            "nonce" : "0x0000000000000000",
            "number" : "0x00",
            "parentBeaconBlockRoot" : "0x0000000000000000000000000000000000000000000000000000000000000000",
            "parentHash" : "0x0000000000000000000000000000000000000000000000000000000000000000",
            "receiptTrie" : "0x56e81f171bcc55a6ff8345e692c0f86e5b48e01b996cadc001622fb5e363b421",
            "stateRoot" : "0x72f1dbc28042396cf6b20f65926e93c75fb6208ce7558035277d726111bbad0a",
            "timestamp" : "0x54c98c81",
            "transactionsTrie" : "0x56e81f171bcc55a6ff8345e692c0f86e5b48e01b996cadc001622fb5e363b421",
            "withdrawalsRoot" : "0x56e81f171bcc55a6ff8345e692c0f86e5b48e01b996cadc001622fb5e363b421"
        },
        "genesisRLP" : "0xf9023ff90239a00000000000000000000000000000000000000000000000000000000000000000a01dcc4de8dec75d7aab85b567b6ccd41ad312451b948a7413f0a142fd40d49347948888f1f195afa192cfee860698584c030f4c9db1a072f1dbc28042396cf6b20f65926e93c75fb6208ce7558035277d726111bbad0aa056e81f171bcc55a6ff8345e692c0f86e5b48e01b996cadc001622fb5e363b421a056e81f171bcc55a6ff8345e692c0f86e5b48e01b996cadc001622fb5e363b421b90100000000000000000000000000000000000000000000000000000000000000000000000000000000000000000000000000000000000000000000000000000000000000000000000000000000000000000000000000000000000000000000000000000000000000000000000000000000000000000000000000000000000000000000000000000000000000000000000000000000000000000000000000000000000000000000000000000000000000000000000000000000000000000000000000000000000000000000000000000000000000000000000000000000000000000000000000000000000000000000000000000000000000000000000000000000008080832fefd8808454c98c8142a0000000000000000000000000000000000000000000000000000000000002000088000000000000000010a056e81f171bcc55a6ff8345e692c0f86e5b48e01b996cadc001622fb5e363b4218080a00000000000000000000000000000000000000000000000000000000000000000c0c0c0",
        "lastblockhash" : "0x340acd9e46a0e577363f09ff082cfad4502be777d464fd84b3a91a702cbeaa93",
        "network" : "Cancun",
        "postState" : {
            "0x0000000000000000000000000000000000000000" : {
                "balance" : "0x07d2",
                "code" : "0x",
                "nonce" : "0x00",
                "storage" : {
                }
            },
            "0x000f3df6d732807ef1319fb7b8bb8522d0beac02" : {
                "balance" : "0x00",
                "code" : "0x3373fffffffffffffffffffffffffffffffffffffffe14604d57602036146024575f5ffd5b5f35801560495762001fff810690815414603c575f5ffd5b62001fff01545f5260205ff35b5f5ffd5b62001fff42064281555f359062001fff015500",
                "nonce" : "0x01",
                "storage" : {
                    "0x12e2" : "0x54c98c81",
                    "0x16ca" : "0x54c99069"
                }
            },
            "0x8888f1f195afa192cfee860698584c030f4c9db1" : {
                "balance" : "0x040153fc",
                "code" : "0x60606040526000357c0100000000000000000000000000000000000000000000000000000000900480630c55699c146037576035565b005b60406004506042565b005b3373ffffffffffffffffffffffffffffffffffffffff16ff5b56",
                "nonce" : "0x00",
                "storage" : {
                }
            },
            "0xa94f5374fce5edbc8e2a8697c15331677e6ebf0b" : {
                "balance" : "0x2386f26bb11926",
                "code" : "0x",
                "nonce" : "0x03",
                "storage" : {
                }
            }
        },
        "pre" : {
            "0x000f3df6d732807ef1319fb7b8bb8522d0beac02" : {
                "balance" : "0x00",
                "code" : "0x3373fffffffffffffffffffffffffffffffffffffffe14604d57602036146024575f5ffd5b5f35801560495762001fff810690815414603c575f5ffd5b62001fff01545f5260205ff35b5f5ffd5b62001fff42064281555f359062001fff015500",
                "nonce" : "0x01",
                "storage" : {
                    "0x12e2" : "0x54c98c81"
                }
            },
            "0x8888f1f195afa192cfee860698584c030f4c9db1" : {
                "balance" : "0x03e8",
                "code" : "0x60606040526000357c0100000000000000000000000000000000000000000000000000000000900480630c55699c146037576035565b005b60406004506042565b005b3373ffffffffffffffffffffffffffffffffffffffff16ff5b56",
                "nonce" : "0x00",
                "storage" : {
                }
            },
            "0xa94f5374fce5edbc8e2a8697c15331677e6ebf0b" : {
                "balance" : "0x2386f26fc10000",
                "code" : "0x",
                "nonce" : "0x00",
                "storage" : {
                }
            }
        },
        "sealEngine" : "NoProof"
    },
    "suicideCoinbase_Prague" : {
        "_info" : {
            "comment" : "",
            "filling-rpc-server" : "evmone-t8n 0.14.0-13+commit.4d363c36",
            "filling-tool-version" : "retesteth-0.3.2-legacy+commit.ca7f4c79.Linux.g++",
            "fixture-format" : "blockchain_test",
            "generatedTestHash" : "b22ebfdb53f398505e901b16c433695bcad60f24e396fc77af5b43dd86e7ed79",
            "lllcversion" : "Version: 0.5.14-develop.2024.11.5+commit.b2b86751.mod.Linux.g++",
            "solidity" : "Version: 0.8.24+commit.e11b9ed9.Linux.g++",
            "source" : "src/BlockchainTestsFiller/ValidBlocks/bcStateTests/suicideCoinbaseFiller.json",
            "sourceHash" : "3ad4df21b8eefd86693df84e9674f4099923db24d2c55c65f01c74127c442cec"
        },
        "blocks" : [
            {
                "blockHeader" : {
                    "baseFeePerGas" : "0x0e",
                    "bloom" : "0x00000000000000000000000000000000000000000000000000000000000000000000000000000000000000000000000000000000000000000000000000000000000000000000000000000000000000000000000000000000000000000000000000000000000000000000000000000000000000000000000000000000000000000000000000000000000000000000000000000000000000000000000000000000000000000000000000000000000000000000000000000000000000000000000000000000000000000000000000000000000000000000000000000000000000000000000000000000000000000000000000000000000000000000000000000000",
                    "coinbase" : "0x8888f1f195afa192cfee860698584c030f4c9db1",
                    "extraData" : "0x42",
                    "gasLimit" : "0x2fefd8",
                    "gasUsed" : "0x010a36",
                    "hash" : "0xa1d0c22247b599e0b0509f0e5c661b6fc74beb942426e7b3736b2316f95c7423",
                    "mixHash" : "0x0000000000000000000000000000000000000000000000000000000000020000",
                    "nonce" : "0x0000000000000000",
                    "number" : "0x01",
                    "parentBeaconBlockRoot" : "0x0000000000000000000000000000000000000000000000000000000000000000",
                    "parentHash" : "0xc02a39c41d92f4045aa992255d46c6dc9958719c20010212053ed983bc0762f9",
                    "receiptTrie" : "0xb7036e54999f172d767e00c84614ecb000a834a82db5dc073e11c2e8680cc543",
                    "requestsHash" : "0xe3b0c44298fc1c149afbf4c8996fb92427ae41e4649b934ca495991b7852b855",
                    "stateRoot" : "0x728262f05f7f353c351e9f723d3f68f2b02409478effa031b08a3454932f3d53",
                    "timestamp" : "0x54c99069",
                    "transactionsTrie" : "0x766957c406ac9b02a9fce018462fee725bc00137cfb3e0c0c0aa4d94506d38e0",
                    "withdrawalsRoot" : "0x56e81f171bcc55a6ff8345e692c0f86e5b48e01b996cadc001622fb5e363b421"
                },
                "blocknumber" : "1",
                "chainname" : "default",
                "rlp" : "0xf90399f9025da0c02a39c41d92f4045aa992255d46c6dc9958719c20010212053ed983bc0762f9a01dcc4de8dec75d7aab85b567b6ccd41ad312451b948a7413f0a142fd40d49347948888f1f195afa192cfee860698584c030f4c9db1a0728262f05f7f353c351e9f723d3f68f2b02409478effa031b08a3454932f3d53a0766957c406ac9b02a9fce018462fee725bc00137cfb3e0c0c0aa4d94506d38e0a0b7036e54999f172d767e00c84614ecb000a834a82db5dc073e11c2e8680cc543b90100000000000000000000000000000000000000000000000000000000000000000000000000000000000000000000000000000000000000000000000000000000000000000000000000000000000000000000000000000000000000000000000000000000000000000000000000000000000000000000000000000000000000000000000000000000000000000000000000000000000000000000000000000000000000000000000000000000000000000000000000000000000000000000000000000000000000000000000000000000000000000000000000000000000000000000000000000000000000000000000000000000000000000000000000000000008001832fefd883010a368454c9906942a000000000000000000000000000000000000000000000000000000000000200008800000000000000000ea056e81f171bcc55a6ff8345e692c0f86e5b48e01b996cadc001622fb5e363b4218080a00000000000000000000000000000000000000000000000000000000000000000a0e3b0c44298fc1c149afbf4c8996fb92427ae41e4649b934ca495991b7852b855f90134f868808203e88307a120948888f1f195afa192cfee860698584c030f4c9db18203e9840c55699c1ca0e8fe44f3e3d67cf1b6fd78edca1a0bd6c94290e2f4f5cf6870cd0de64801c926a0625a7d8ffbb00b732c39c4e1bb4a57e894ac868a05b60a946cb6e3f1351b5854f863018203e882c3509400000000000000000000000000000000000000008203e8801ca0f968ac22a8b9efbb650a5819485904a2a4e0102c1c2ea06c3d3fedac0d7509f7a07741473664d35300d4e37b5552c8353b7c5d6fe93a4f7a413374e216dc4b411bf863028203e882c3509400000000000000000000000000000000000000008203ea801ca05e73352c4aac874c2aa259e1734add191ca807a5f829d009c1f196ed0933ba1ea048c99071118f02fc518c95b519511a1e650762c811a83bb9828ae5a578beb817c0c0",
                "transactions" : [
                    {
                        "data" : "0x0c55699c",
                        "gasLimit" : "0x07a120",
                        "gasPrice" : "0x03e8",
                        "nonce" : "0x00",
                        "r" : "0xe8fe44f3e3d67cf1b6fd78edca1a0bd6c94290e2f4f5cf6870cd0de64801c926",
                        "s" : "0x625a7d8ffbb00b732c39c4e1bb4a57e894ac868a05b60a946cb6e3f1351b5854",
                        "sender" : "0xa94f5374fce5edbc8e2a8697c15331677e6ebf0b",
                        "to" : "0x8888f1f195afa192cfee860698584c030f4c9db1",
                        "v" : "0x1c",
                        "value" : "0x03e9"
                    },
                    {
                        "data" : "0x",
                        "gasLimit" : "0xc350",
                        "gasPrice" : "0x03e8",
                        "nonce" : "0x01",
                        "r" : "0xf968ac22a8b9efbb650a5819485904a2a4e0102c1c2ea06c3d3fedac0d7509f7",
                        "s" : "0x7741473664d35300d4e37b5552c8353b7c5d6fe93a4f7a413374e216dc4b411b",
                        "sender" : "0xa94f5374fce5edbc8e2a8697c15331677e6ebf0b",
                        "to" : "0x0000000000000000000000000000000000000000",
                        "v" : "0x1c",
                        "value" : "0x03e8"
                    },
                    {
                        "data" : "0x",
                        "gasLimit" : "0xc350",
                        "gasPrice" : "0x03e8",
                        "nonce" : "0x02",
                        "r" : "0x5e73352c4aac874c2aa259e1734add191ca807a5f829d009c1f196ed0933ba1e",
                        "s" : "0x48c99071118f02fc518c95b519511a1e650762c811a83bb9828ae5a578beb817",
                        "sender" : "0xa94f5374fce5edbc8e2a8697c15331677e6ebf0b",
                        "to" : "0x0000000000000000000000000000000000000000",
                        "v" : "0x1c",
                        "value" : "0x03ea"
                    }
                ],
                "uncleHeaders" : [
                ],
                "withdrawals" : [
                ]
            }
        ],
        "config" : {
            "blobSchedule" : {
                "Prague" : {
                    "baseFeeUpdateFraction" : "0x4c6964",
                    "max" : "0x09",
                    "target" : "0x06"
                }
            },
            "chainid" : "0x01",
            "network" : "Prague"
        },
        "genesisBlockHeader" : {
            "baseFeePerGas" : "0x10",
            "bloom" : "0x00000000000000000000000000000000000000000000000000000000000000000000000000000000000000000000000000000000000000000000000000000000000000000000000000000000000000000000000000000000000000000000000000000000000000000000000000000000000000000000000000000000000000000000000000000000000000000000000000000000000000000000000000000000000000000000000000000000000000000000000000000000000000000000000000000000000000000000000000000000000000000000000000000000000000000000000000000000000000000000000000000000000000000000000000000000",
            "coinbase" : "0x8888f1f195afa192cfee860698584c030f4c9db1",
            "extraData" : "0x42",
            "gasLimit" : "0x2fefd8",
            "gasUsed" : "0x00",
            "hash" : "0xc02a39c41d92f4045aa992255d46c6dc9958719c20010212053ed983bc0762f9",
            "mixHash" : "0x0000000000000000000000000000000000000000000000000000000000020000",
            "nonce" : "0x0000000000000000",
            "number" : "0x00",
            "parentBeaconBlockRoot" : "0x0000000000000000000000000000000000000000000000000000000000000000",
            "parentHash" : "0x0000000000000000000000000000000000000000000000000000000000000000",
            "receiptTrie" : "0x56e81f171bcc55a6ff8345e692c0f86e5b48e01b996cadc001622fb5e363b421",
            "requestsHash" : "0xe3b0c44298fc1c149afbf4c8996fb92427ae41e4649b934ca495991b7852b855",
            "stateRoot" : "0x6173603833ad9b24a15201ef3d646e63cac73a7d29acd985befb73ec1a484674",
            "timestamp" : "0x54c98c81",
            "transactionsTrie" : "0x56e81f171bcc55a6ff8345e692c0f86e5b48e01b996cadc001622fb5e363b421",
            "withdrawalsRoot" : "0x56e81f171bcc55a6ff8345e692c0f86e5b48e01b996cadc001622fb5e363b421"
        },
        "genesisRLP" : "0xf90260f9025aa00000000000000000000000000000000000000000000000000000000000000000a01dcc4de8dec75d7aab85b567b6ccd41ad312451b948a7413f0a142fd40d49347948888f1f195afa192cfee860698584c030f4c9db1a06173603833ad9b24a15201ef3d646e63cac73a7d29acd985befb73ec1a484674a056e81f171bcc55a6ff8345e692c0f86e5b48e01b996cadc001622fb5e363b421a056e81f171bcc55a6ff8345e692c0f86e5b48e01b996cadc001622fb5e363b421b90100000000000000000000000000000000000000000000000000000000000000000000000000000000000000000000000000000000000000000000000000000000000000000000000000000000000000000000000000000000000000000000000000000000000000000000000000000000000000000000000000000000000000000000000000000000000000000000000000000000000000000000000000000000000000000000000000000000000000000000000000000000000000000000000000000000000000000000000000000000000000000000000000000000000000000000000000000000000000000000000000000000000000000000000000000000008080832fefd8808454c98c8142a0000000000000000000000000000000000000000000000000000000000002000088000000000000000010a056e81f171bcc55a6ff8345e692c0f86e5b48e01b996cadc001622fb5e363b4218080a00000000000000000000000000000000000000000000000000000000000000000a0e3b0c44298fc1c149afbf4c8996fb92427ae41e4649b934ca495991b7852b855c0c0c0",
        "lastblockhash" : "0xa1d0c22247b599e0b0509f0e5c661b6fc74beb942426e7b3736b2316f95c7423",
        "network" : "Prague",
        "postState" : {
            "0x0000000000000000000000000000000000000000" : {
                "balance" : "0x07d2",
                "code" : "0x",
                "nonce" : "0x00",
                "storage" : {
                }
            },
            "0x0000f90827f1c53a10cb7a02335b175320002935" : {
                "balance" : "0x00",
                "code" : "0x3373fffffffffffffffffffffffffffffffffffffffe14604657602036036042575f35600143038111604257611fff81430311604257611fff9006545f5260205ff35b5f5ffd5b5f35611fff60014303065500",
                "nonce" : "0x01",
                "storage" : {
                    "0x00" : "0xc02a39c41d92f4045aa992255d46c6dc9958719c20010212053ed983bc0762f9"
                }
            },
            "0x000f3df6d732807ef1319fb7b8bb8522d0beac02" : {
                "balance" : "0x00",
                "code" : "0x3373fffffffffffffffffffffffffffffffffffffffe14604d57602036146024575f5ffd5b5f35801560495762001fff810690815414603c575f5ffd5b62001fff01545f5260205ff35b5f5ffd5b62001fff42064281555f359062001fff015500",
                "nonce" : "0x01",
                "storage" : {
                    "0x12e2" : "0x54c98c81",
                    "0x16ca" : "0x54c99069"
                }
            },
            "0x8888f1f195afa192cfee860698584c030f4c9db1" : {
                "balance" : "0x040153fc",
                "code" : "0x60606040526000357c0100000000000000000000000000000000000000000000000000000000900480630c55699c146037576035565b005b60406004506042565b005b3373ffffffffffffffffffffffffffffffffffffffff16ff5b56",
                "nonce" : "0x00",
                "storage" : {
                }
            },
            "0xa94f5374fce5edbc8e2a8697c15331677e6ebf0b" : {
                "balance" : "0x2386f26bb11926",
                "code" : "0x",
                "nonce" : "0x03",
                "storage" : {
                }
            }
        },
        "pre" : {
            "0x0000f90827f1c53a10cb7a02335b175320002935" : {
                "balance" : "0x00",
                "code" : "0x3373fffffffffffffffffffffffffffffffffffffffe14604657602036036042575f35600143038111604257611fff81430311604257611fff9006545f5260205ff35b5f5ffd5b5f35611fff60014303065500",
                "nonce" : "0x01",
                "storage" : {
                }
            },
            "0x000f3df6d732807ef1319fb7b8bb8522d0beac02" : {
                "balance" : "0x00",
                "code" : "0x3373fffffffffffffffffffffffffffffffffffffffe14604d57602036146024575f5ffd5b5f35801560495762001fff810690815414603c575f5ffd5b62001fff01545f5260205ff35b5f5ffd5b62001fff42064281555f359062001fff015500",
                "nonce" : "0x01",
                "storage" : {
                    "0x12e2" : "0x54c98c81"
                }
            },
            "0x8888f1f195afa192cfee860698584c030f4c9db1" : {
                "balance" : "0x03e8",
                "code" : "0x60606040526000357c0100000000000000000000000000000000000000000000000000000000900480630c55699c146037576035565b005b60406004506042565b005b3373ffffffffffffffffffffffffffffffffffffffff16ff5b56",
                "nonce" : "0x00",
                "storage" : {
                }
            },
            "0xa94f5374fce5edbc8e2a8697c15331677e6ebf0b" : {
                "balance" : "0x2386f26fc10000",
                "code" : "0x",
                "nonce" : "0x00",
                "storage" : {
                }
            }
        },
        "sealEngine" : "NoProof"
    }
}