{
    "ZeroValue_TransactionCALLwithData_ToEmpty_OOGRevert_Paris_Cancun" : {
        "_info" : {
            "comment" : "intrinsic oog with data",
            "filling-rpc-server" : "evmone-t8n 0.14.0-13+commit.4d363c36",
            "filling-tool-version" : "retesteth-0.3.2-legacy+commit.ca7f4c79.Linux.g++",
            "fixture-format" : "blockchain_test",
            "generatedTestHash" : "1ecd3cb312c0b62ca8f42e610ff1ae7b0c4a77e5a340bc2f87f133a8dbad9986",
            "lllcversion" : "Version: 0.5.14-develop.2024.11.5+commit.b2b86751.mod.Linux.g++",
            "hyperion" : "Version: 0.8.24+commit.e11b9ed9.Linux.g++",
            "source" : "src/BlockchainTestsFiller/ValidBlocks/bcStateTests/ZeroValue_TransactionCALLwithData_ToEmpty_OOGRevert_ParisFiller.json",
            "sourceHash" : "21e4baafebcf08d67d4569880802cb0a081bdaaa8be23c70f95eb8c61b66bdd4"
        },
        "blocks" : [
            {
                "blockHeader" : {
                    "baseFeePerGas" : "0x0e",
                    "bloom" : "0x00000000000000000000000000000000000000000000000000000000000000000000000000000000000000000000000000000000000000000000000000000000000000000000000000000000000000000000000000000000000000000000000000000000000000000000000000000000000000000000000000000000000000000000000000000000000000000000000000000000000000000000000000000000000000000000000000000000000000000000000000000000000000000000000000000000000000000000000000000000000000000000000000000000000000000000000000000000000000000000000000000000000000000000000000000000",
                    "coinbase" : "Z2adc25665018aa1fe0e6bc666dac8fc2697ff9ba",
                    "extraData" : "0x42",
                    "gasLimit" : "0x989680",
                    "gasUsed" : "0x8e08",
                    "hash" : "0x041ee3bc79ceb8242ab091abc83e5aaf93e09c5cd1bb5bc3549ee25194c5b00a",
                    "mixHash" : "0x0000000000000000000000000000000000000000000000000000000000020000",
                    "nonce" : "0x0000000000000000",
                    "number" : "0x01",
                    "parentHash" : "0x808d03197b76d4a15807276eea703156c5b905bea128f3db1324e784fb047dbe",
                    "receiptTrie" : "0xdce32bd6385c19fa3206e83493eb817e25c2d3360aa710fb88f6af6470cda837",
                    "stateRoot" : "0x8fffd8a0a7aeb9a4fc44654e6a58a26418944c0dce2a4de31b03e5322f7f6fc5",
                    "timestamp" : "0x07d0",
                    "transactionsTrie" : "0xc3ea363541a072d12eb7bb2e90966de53e16b91820240bfff9e23b201c0118bb",
                    "withdrawalsRoot" : "0x56e81f171bcc55a6ff8345e692c0f86e5b48e01b996cadc001622fb5e363b421"
                },
                "blocknumber" : "1",
                "chainname" : "default",
                "rlp" : "0xf90668f90239a0808d03197b76d4a15807276eea703156c5b905bea128f3db1324e784fb047dbea01dcc4de8dec75d7aab85b567b6ccd41ad312451b948a7413f0a142fd40d49347942adc25665018aa1fe0e6bc666dac8fc2697ff9baa08fffd8a0a7aeb9a4fc44654e6a58a26418944c0dce2a4de31b03e5322f7f6fc5a0c3ea363541a072d12eb7bb2e90966de53e16b91820240bfff9e23b201c0118bba0dce32bd6385c19fa3206e83493eb817e25c2d3360aa710fb88f6af6470cda837b9010000000000000000000000000000000000000000000000000000000000000000000000000000000000000000000000000000000000000000000000000000000000000000000000000000000000000000000000000000000000000000000000000000000000000000000000000000000000000000000000000000000000000000000000000000000000000000000000000000000000000000000000000000000000000000000000000000000000000000000000000000000000000000000000000000000000000000000000000000000000000000000000000000000000000000000000000000000000000000000000000000000000000000000000000000000000800183989680828e088207d042a000000000000000000000000000000000000000000000000000000000000200008800000000000000000ea056e81f171bcc55a6ff8345e692c0f86e5b48e01b996cadc001622fb5e363b4218080a00000000000000000000000000000000000000000000000000000000000000000f90427f90424808203e88301388094b94f5374fce5edbc8e2a8697c15331677e6ebf0b80b903c045a915e4d060149eb4365960e6a7a45f334393093061116b197e3240065ff2d845a915e4d060149eb4365960e6a7a45f334393093061116b197e3240065ff2d845a915e4d060149eb4365960e6a7a45f334393093061116b197e3240065ff2d845a915e4d060149eb4365960e6a7a45f334393093061116b197e3240065ff2d845a915e4d060149eb4365960e6a7a45f334393093061116b197e3240065ff2d845a915e4d060149eb4365960e6a7a45f334393093061116b197e3240065ff2d845a915e4d060149eb4365960e6a7a45f334393093061116b197e3240065ff2d845a915e4d060149eb4365960e6a7a45f334393093061116b197e3240065ff2d845a915e4d060149eb4365960e6a7a45f334393093061116b197e3240065ff2d845a915e4d060149eb4365960e6a7a45f334393093061116b197e3240065ff2d845a915e4d060149eb4365960e6a7a45f334393093061116b197e3240065ff2d845a915e4d060149eb4365960e6a7a45f334393093061116b197e3240065ff2d845a915e4d060149eb4365960e6a7a45f334393093061116b197e3240065ff2d845a915e4d060149eb4365960e6a7a45f334393093061116b197e3240065ff2d845a915e4d060149eb4365960e6a7a45f334393093061116b197e3240065ff2d845a915e4d060149eb4365960e6a7a45f334393093061116b197e3240065ff2d845a915e4d060149eb4365960e6a7a45f334393093061116b197e3240065ff2d845a915e4d060149eb4365960e6a7a45f334393093061116b197e3240065ff2d845a915e4d060149eb4365960e6a7a45f334393093061116b197e3240065ff2d845a915e4d060149eb4365960e6a7a45f334393093061116b197e3240065ff2d845a915e4d060149eb4365960e6a7a45f334393093061116b197e3240065ff2d845a915e4d060149eb4365960e6a7a45f334393093061116b197e3240065ff2d845a915e4d060149eb4365960e6a7a45f334393093061116b197e3240065ff2d845a915e4d060149eb4365960e6a7a45f334393093061116b197e3240065ff2d845a915e4d060149eb4365960e6a7a45f334393093061116b197e3240065ff2d845a915e4d060149eb4365960e6a7a45f334393093061116b197e3240065ff2d845a915e4d060149eb4365960e6a7a45f334393093061116b197e3240065ff2d845a915e4d060149eb4365960e6a7a45f334393093061116b197e3240065ff2d845a915e4d060149eb4365960e6a7a45f334393093061116b197e3240065ff2d845a915e4d060149eb4365960e6a7a45f334393093061116b197e3240065ff2d81ba09320f4051252d7334c28e35710aadaf090bb88b67af8b5eaab10e421291d1684a037eb8d0d65da35d611bcc1dc240925d1bda64ee00d0f244bb5a9bbcf2c871aa4c0c0",
                "transactions" : [
                    {
                        "data" : "0x45a915e4d060149eb4365960e6a7a45f334393093061116b197e3240065ff2d845a915e4d060149eb4365960e6a7a45f334393093061116b197e3240065ff2d845a915e4d060149eb4365960e6a7a45f334393093061116b197e3240065ff2d845a915e4d060149eb4365960e6a7a45f334393093061116b197e3240065ff2d845a915e4d060149eb4365960e6a7a45f334393093061116b197e3240065ff2d845a915e4d060149eb4365960e6a7a45f334393093061116b197e3240065ff2d845a915e4d060149eb4365960e6a7a45f334393093061116b197e3240065ff2d845a915e4d060149eb4365960e6a7a45f334393093061116b197e3240065ff2d845a915e4d060149eb4365960e6a7a45f334393093061116b197e3240065ff2d845a915e4d060149eb4365960e6a7a45f334393093061116b197e3240065ff2d845a915e4d060149eb4365960e6a7a45f334393093061116b197e3240065ff2d845a915e4d060149eb4365960e6a7a45f334393093061116b197e3240065ff2d845a915e4d060149eb4365960e6a7a45f334393093061116b197e3240065ff2d845a915e4d060149eb4365960e6a7a45f334393093061116b197e3240065ff2d845a915e4d060149eb4365960e6a7a45f334393093061116b197e3240065ff2d845a915e4d060149eb4365960e6a7a45f334393093061116b197e3240065ff2d845a915e4d060149eb4365960e6a7a45f334393093061116b197e3240065ff2d845a915e4d060149eb4365960e6a7a45f334393093061116b197e3240065ff2d845a915e4d060149eb4365960e6a7a45f334393093061116b197e3240065ff2d845a915e4d060149eb4365960e6a7a45f334393093061116b197e3240065ff2d845a915e4d060149eb4365960e6a7a45f334393093061116b197e3240065ff2d845a915e4d060149eb4365960e6a7a45f334393093061116b197e3240065ff2d845a915e4d060149eb4365960e6a7a45f334393093061116b197e3240065ff2d845a915e4d060149eb4365960e6a7a45f334393093061116b197e3240065ff2d845a915e4d060149eb4365960e6a7a45f334393093061116b197e3240065ff2d845a915e4d060149eb4365960e6a7a45f334393093061116b197e3240065ff2d845a915e4d060149eb4365960e6a7a45f334393093061116b197e3240065ff2d845a915e4d060149eb4365960e6a7a45f334393093061116b197e3240065ff2d845a915e4d060149eb4365960e6a7a45f334393093061116b197e3240065ff2d845a915e4d060149eb4365960e6a7a45f334393093061116b197e3240065ff2d8",
                        "gasLimit" : "0x013880",
                        "gasPrice" : "0x03e8",
                        "nonce" : "0x00",
                        "signature" : "0x9320f4051252d7334c28e35710aadaf090bb88b67af8b5eaab10e421291d1684",
                        "s" : "0x37eb8d0d65da35d611bcc1dc240925d1bda64ee00d0f244bb5a9bbcf2c871aa4",
                        "sender" : "Za94f5374fce5edbc8e2a8697c15331677e6ebf0b",
                        "to" : "Zb94f5374fce5edbc8e2a8697c15331677e6ebf0b",
                        "v" : "0x1b",
                        "value" : "0x00"
                    }
                ],
                "uncleHeaders" : [
                ],
                "withdrawals" : [
                ]
            }
        ],
        "config" : {
            "blobSchedule" : {
                "Cancun" : {
                    "baseFeeUpdateFraction" : "0x32f0ed",
                    "max" : "0x06",
                    "target" : "0x03"
                }
            },
            "chainid" : "0x01",
            "network" : "Cancun"
        },
        "genesisBlockHeader" : {
            "baseFeePerGas" : "0x10",
            "bloom" : "0x00000000000000000000000000000000000000000000000000000000000000000000000000000000000000000000000000000000000000000000000000000000000000000000000000000000000000000000000000000000000000000000000000000000000000000000000000000000000000000000000000000000000000000000000000000000000000000000000000000000000000000000000000000000000000000000000000000000000000000000000000000000000000000000000000000000000000000000000000000000000000000000000000000000000000000000000000000000000000000000000000000000000000000000000000000000",
            "coinbase" : "Z2adc25665018aa1fe0e6bc666dac8fc2697ff9ba",
            "extraData" : "0x42",
            "gasLimit" : "0x989680",
            "gasUsed" : "0x00",
            "hash" : "0x808d03197b76d4a15807276eea703156c5b905bea128f3db1324e784fb047dbe",
            "mixHash" : "0x0000000000000000000000000000000000000000000000000000000000020000",
            "nonce" : "0x0000000000000000",
            "number" : "0x00",
            "parentHash" : "0x0000000000000000000000000000000000000000000000000000000000000000",
            "receiptTrie" : "0x56e81f171bcc55a6ff8345e692c0f86e5b48e01b996cadc001622fb5e363b421",
            "stateRoot" : "0xbca159e0afe435ad43d6a1c4a286cced0767906e84db501c9d949edfd2b15c39",
            "timestamp" : "0x03e8",
            "transactionsTrie" : "0x56e81f171bcc55a6ff8345e692c0f86e5b48e01b996cadc001622fb5e363b421",
            "withdrawalsRoot" : "0x56e81f171bcc55a6ff8345e692c0f86e5b48e01b996cadc001622fb5e363b421"
        },
        "genesisRLP" : "0xf9023df90237a00000000000000000000000000000000000000000000000000000000000000000a01dcc4de8dec75d7aab85b567b6ccd41ad312451b948a7413f0a142fd40d49347942adc25665018aa1fe0e6bc666dac8fc2697ff9baa0bca159e0afe435ad43d6a1c4a286cced0767906e84db501c9d949edfd2b15c39a056e81f171bcc55a6ff8345e692c0f86e5b48e01b996cadc001622fb5e363b421a056e81f171bcc55a6ff8345e692c0f86e5b48e01b996cadc001622fb5e363b421b9010000000000000000000000000000000000000000000000000000000000000000000000000000000000000000000000000000000000000000000000000000000000000000000000000000000000000000000000000000000000000000000000000000000000000000000000000000000000000000000000000000000000000000000000000000000000000000000000000000000000000000000000000000000000000000000000000000000000000000000000000000000000000000000000000000000000000000000000000000000000000000000000000000000000000000000000000000000000000000000000000000000000000000000000000000000000808083989680808203e842a0000000000000000000000000000000000000000000000000000000000002000088000000000000000010a056e81f171bcc55a6ff8345e692c0f86e5b48e01b996cadc001622fb5e363b4218080a00000000000000000000000000000000000000000000000000000000000000000c0c0c0",
        "lastblockhash" : "0x041ee3bc79ceb8242ab091abc83e5aaf93e09c5cd1bb5bc3549ee25194c5b00a",
        "network" : "Cancun",
        "postState" : {
            "0x000f3df6d732807ef1319fb7b8bb8522d0beac02" : {
                "balance" : "0x00",
                "code" : "0x3373fffffffffffffffffffffffffffffffffffffffe14604d57602036146024575f5ffd5b5f35801560495762001fff810690815414603c575f5ffd5b62001fff01545f5260205ff35b5f5ffd5b62001fff42064281555f359062001fff015500",
                "nonce" : "0x01",
                "storage" : {
                    "0x03e8" : "0x03e8",
                    "0x07d0" : "0x07d0"
                }
            },
            "0x2adc25665018aa1fe0e6bc666dac8fc2697ff9ba" : {
                "balance" : "0x02230ad0",
                "code" : "0x",
                "nonce" : "0x00",
                "storage" : {
                }
            },
            "0xa94f5374fce5edbc8e2a8697c15331677e6ebf0b" : {
                "balance" : "0xe8d27a40c0",
                "code" : "0x",
                "nonce" : "0x01",
                "storage" : {
                }
            },
            "0xb94f5374fce5edbc8e2a8697c15331677e6ebf0b" : {
                "balance" : "0x0a",
                "code" : "0x",
                "nonce" : "0x00",
                "storage" : {
                }
            }
        },
        "pre" : {
            "0x000f3df6d732807ef1319fb7b8bb8522d0beac02" : {
                "balance" : "0x00",
                "code" : "0x3373fffffffffffffffffffffffffffffffffffffffe14604d57602036146024575f5ffd5b5f35801560495762001fff810690815414603c575f5ffd5b62001fff01545f5260205ff35b5f5ffd5b62001fff42064281555f359062001fff015500",
                "nonce" : "0x01",
                "storage" : {
                    "0x03e8" : "0x03e8"
                }
            },
            "0xa94f5374fce5edbc8e2a8697c15331677e6ebf0b" : {
                "balance" : "0xe8d4a51000",
                "code" : "0x",
                "nonce" : "0x00",
                "storage" : {
                }
            },
            "0xb94f5374fce5edbc8e2a8697c15331677e6ebf0b" : {
                "balance" : "0x0a",
                "code" : "0x",
                "nonce" : "0x00",
                "storage" : {
                }
            }
        },
        "sealEngine" : "NoProof"
    },
    "ZeroValue_TransactionCALLwithData_ToEmpty_OOGRevert_Paris_Prague" : {
        "_info" : {
            "comment" : "intrinsic oog with data",
            "filling-rpc-server" : "evmone-t8n 0.14.0-13+commit.4d363c36",
            "filling-tool-version" : "retesteth-0.3.2-legacy+commit.ca7f4c79.Linux.g++",
            "fixture-format" : "blockchain_test",
            "generatedTestHash" : "67ac5ba13224276cb1365ae398adae113018796625b696a793bf462f05065285",
            "lllcversion" : "Version: 0.5.14-develop.2024.11.5+commit.b2b86751.mod.Linux.g++",
            "hyperion" : "Version: 0.8.24+commit.e11b9ed9.Linux.g++",
            "source" : "src/BlockchainTestsFiller/ValidBlocks/bcStateTests/ZeroValue_TransactionCALLwithData_ToEmpty_OOGRevert_ParisFiller.json",
            "sourceHash" : "21e4baafebcf08d67d4569880802cb0a081bdaaa8be23c70f95eb8c61b66bdd4"
        },
        "blocks" : [
            {
                "blockHeader" : {
                    "baseFeePerGas" : "0x0e",
                    "bloom" : "0x00000000000000000000000000000000000000000000000000000000000000000000000000000000000000000000000000000000000000000000000000000000000000000000000000000000000000000000000000000000000000000000000000000000000000000000000000000000000000000000000000000000000000000000000000000000000000000000000000000000000000000000000000000000000000000000000000000000000000000000000000000000000000000000000000000000000000000000000000000000000000000000000000000000000000000000000000000000000000000000000000000000000000000000000000000000",
                    "coinbase" : "Z2adc25665018aa1fe0e6bc666dac8fc2697ff9ba",
                    "extraData" : "0x42",
                    "gasLimit" : "0x989680",
                    "gasUsed" : "0xe808",
                    "hash" : "0x51bad28a630ed9438594fc3e98e9dc5f9e0a45c0437f48610f656391f6e8d252",
                    "mixHash" : "0x0000000000000000000000000000000000000000000000000000000000020000",
                    "nonce" : "0x0000000000000000",
                    "number" : "0x01",
                    "parentHash" : "0x710b83d21f78391f6b908ba980cde3530e7f35f276187bb211e5708f8b5ec643",
                    "receiptTrie" : "0xf7d701300b4131d61524274eeb05e20f58235c7289cedd0e89330e9a54675e39",
                    "requestsHash" : "0xe3b0c44298fc1c149afbf4c8996fb92427ae41e4649b934ca495991b7852b855",
                    "stateRoot" : "0x74ed54e1b12e1016ee3518251a9d2d1ea9eca36a26751a1eed00a28bafb6ee6b",
                    "timestamp" : "0x07d0",
                    "transactionsTrie" : "0xc3ea363541a072d12eb7bb2e90966de53e16b91820240bfff9e23b201c0118bb",
                    "withdrawalsRoot" : "0x56e81f171bcc55a6ff8345e692c0f86e5b48e01b996cadc001622fb5e363b421"
                },
                "blocknumber" : "1",
                "chainname" : "default",
                "rlp" : "0xf90689f9025aa0710b83d21f78391f6b908ba980cde3530e7f35f276187bb211e5708f8b5ec643a01dcc4de8dec75d7aab85b567b6ccd41ad312451b948a7413f0a142fd40d49347942adc25665018aa1fe0e6bc666dac8fc2697ff9baa074ed54e1b12e1016ee3518251a9d2d1ea9eca36a26751a1eed00a28bafb6ee6ba0c3ea363541a072d12eb7bb2e90966de53e16b91820240bfff9e23b201c0118bba0f7d701300b4131d61524274eeb05e20f58235c7289cedd0e89330e9a54675e39b901000000000000000000000000000000000000000000000000000000000000000000000000000000000000000000000000000000000000000000000000000000000000000000000000000000000000000000000000000000000000000000000000000000000000000000000000000000000000000000000000000000000000000000000000000000000000000000000000000000000000000000000000000000000000000000000000000000000000000000000000000000000000000000000000000000000000000000000000000000000000000000000000000000000000000000000000000000000000000000000000000000000000000000000000000000000080018398968082e8088207d042a000000000000000000000000000000000000000000000000000000000000200008800000000000000000ea056e81f171bcc55a6ff8345e692c0f86e5b48e01b996cadc001622fb5e363b4218080a00000000000000000000000000000000000000000000000000000000000000000a0e3b0c44298fc1c149afbf4c8996fb92427ae41e4649b934ca495991b7852b855f90427f90424808203e88301388094b94f5374fce5edbc8e2a8697c15331677e6ebf0b80b903c045a915e4d060149eb4365960e6a7a45f334393093061116b197e3240065ff2d845a915e4d060149eb4365960e6a7a45f334393093061116b197e3240065ff2d845a915e4d060149eb4365960e6a7a45f334393093061116b197e3240065ff2d845a915e4d060149eb4365960e6a7a45f334393093061116b197e3240065ff2d845a915e4d060149eb4365960e6a7a45f334393093061116b197e3240065ff2d845a915e4d060149eb4365960e6a7a45f334393093061116b197e3240065ff2d845a915e4d060149eb4365960e6a7a45f334393093061116b197e3240065ff2d845a915e4d060149eb4365960e6a7a45f334393093061116b197e3240065ff2d845a915e4d060149eb4365960e6a7a45f334393093061116b197e3240065ff2d845a915e4d060149eb4365960e6a7a45f334393093061116b197e3240065ff2d845a915e4d060149eb4365960e6a7a45f334393093061116b197e3240065ff2d845a915e4d060149eb4365960e6a7a45f334393093061116b197e3240065ff2d845a915e4d060149eb4365960e6a7a45f334393093061116b197e3240065ff2d845a915e4d060149eb4365960e6a7a45f334393093061116b197e3240065ff2d845a915e4d060149eb4365960e6a7a45f334393093061116b197e3240065ff2d845a915e4d060149eb4365960e6a7a45f334393093061116b197e3240065ff2d845a915e4d060149eb4365960e6a7a45f334393093061116b197e3240065ff2d845a915e4d060149eb4365960e6a7a45f334393093061116b197e3240065ff2d845a915e4d060149eb4365960e6a7a45f334393093061116b197e3240065ff2d845a915e4d060149eb4365960e6a7a45f334393093061116b197e3240065ff2d845a915e4d060149eb4365960e6a7a45f334393093061116b197e3240065ff2d845a915e4d060149eb4365960e6a7a45f334393093061116b197e3240065ff2d845a915e4d060149eb4365960e6a7a45f334393093061116b197e3240065ff2d845a915e4d060149eb4365960e6a7a45f334393093061116b197e3240065ff2d845a915e4d060149eb4365960e6a7a45f334393093061116b197e3240065ff2d845a915e4d060149eb4365960e6a7a45f334393093061116b197e3240065ff2d845a915e4d060149eb4365960e6a7a45f334393093061116b197e3240065ff2d845a915e4d060149eb4365960e6a7a45f334393093061116b197e3240065ff2d845a915e4d060149eb4365960e6a7a45f334393093061116b197e3240065ff2d845a915e4d060149eb4365960e6a7a45f334393093061116b197e3240065ff2d81ba09320f4051252d7334c28e35710aadaf090bb88b67af8b5eaab10e421291d1684a037eb8d0d65da35d611bcc1dc240925d1bda64ee00d0f244bb5a9bbcf2c871aa4c0c0",
                "transactions" : [
                    {
                        "data" : "0x45a915e4d060149eb4365960e6a7a45f334393093061116b197e3240065ff2d845a915e4d060149eb4365960e6a7a45f334393093061116b197e3240065ff2d845a915e4d060149eb4365960e6a7a45f334393093061116b197e3240065ff2d845a915e4d060149eb4365960e6a7a45f334393093061116b197e3240065ff2d845a915e4d060149eb4365960e6a7a45f334393093061116b197e3240065ff2d845a915e4d060149eb4365960e6a7a45f334393093061116b197e3240065ff2d845a915e4d060149eb4365960e6a7a45f334393093061116b197e3240065ff2d845a915e4d060149eb4365960e6a7a45f334393093061116b197e3240065ff2d845a915e4d060149eb4365960e6a7a45f334393093061116b197e3240065ff2d845a915e4d060149eb4365960e6a7a45f334393093061116b197e3240065ff2d845a915e4d060149eb4365960e6a7a45f334393093061116b197e3240065ff2d845a915e4d060149eb4365960e6a7a45f334393093061116b197e3240065ff2d845a915e4d060149eb4365960e6a7a45f334393093061116b197e3240065ff2d845a915e4d060149eb4365960e6a7a45f334393093061116b197e3240065ff2d845a915e4d060149eb4365960e6a7a45f334393093061116b197e3240065ff2d845a915e4d060149eb4365960e6a7a45f334393093061116b197e3240065ff2d845a915e4d060149eb4365960e6a7a45f334393093061116b197e3240065ff2d845a915e4d060149eb4365960e6a7a45f334393093061116b197e3240065ff2d845a915e4d060149eb4365960e6a7a45f334393093061116b197e3240065ff2d845a915e4d060149eb4365960e6a7a45f334393093061116b197e3240065ff2d845a915e4d060149eb4365960e6a7a45f334393093061116b197e3240065ff2d845a915e4d060149eb4365960e6a7a45f334393093061116b197e3240065ff2d845a915e4d060149eb4365960e6a7a45f334393093061116b197e3240065ff2d845a915e4d060149eb4365960e6a7a45f334393093061116b197e3240065ff2d845a915e4d060149eb4365960e6a7a45f334393093061116b197e3240065ff2d845a915e4d060149eb4365960e6a7a45f334393093061116b197e3240065ff2d845a915e4d060149eb4365960e6a7a45f334393093061116b197e3240065ff2d845a915e4d060149eb4365960e6a7a45f334393093061116b197e3240065ff2d845a915e4d060149eb4365960e6a7a45f334393093061116b197e3240065ff2d845a915e4d060149eb4365960e6a7a45f334393093061116b197e3240065ff2d8",
                        "gasLimit" : "0x013880",
                        "gasPrice" : "0x03e8",
                        "nonce" : "0x00",
                        "signature" : "0x9320f4051252d7334c28e35710aadaf090bb88b67af8b5eaab10e421291d1684",
                        "s" : "0x37eb8d0d65da35d611bcc1dc240925d1bda64ee00d0f244bb5a9bbcf2c871aa4",
                        "sender" : "Za94f5374fce5edbc8e2a8697c15331677e6ebf0b",
                        "to" : "Zb94f5374fce5edbc8e2a8697c15331677e6ebf0b",
                        "v" : "0x1b",
                        "value" : "0x00"
                    }
                ],
                "uncleHeaders" : [
                ],
                "withdrawals" : [
                ]
            }
        ],
        "config" : {
            "blobSchedule" : {
                "Prague" : {
                    "baseFeeUpdateFraction" : "0x4c6964",
                    "max" : "0x09",
                    "target" : "0x06"
                }
            },
            "chainid" : "0x01",
            "network" : "Prague"
        },
        "genesisBlockHeader" : {
            "baseFeePerGas" : "0x10",
            "bloom" : "0x00000000000000000000000000000000000000000000000000000000000000000000000000000000000000000000000000000000000000000000000000000000000000000000000000000000000000000000000000000000000000000000000000000000000000000000000000000000000000000000000000000000000000000000000000000000000000000000000000000000000000000000000000000000000000000000000000000000000000000000000000000000000000000000000000000000000000000000000000000000000000000000000000000000000000000000000000000000000000000000000000000000000000000000000000000000",
            "coinbase" : "Z2adc25665018aa1fe0e6bc666dac8fc2697ff9ba",
            "extraData" : "0x42",
            "gasLimit" : "0x989680",
            "gasUsed" : "0x00",
            "hash" : "0x710b83d21f78391f6b908ba980cde3530e7f35f276187bb211e5708f8b5ec643",
            "mixHash" : "0x0000000000000000000000000000000000000000000000000000000000020000",
            "nonce" : "0x0000000000000000",
            "number" : "0x00",
            "parentHash" : "0x0000000000000000000000000000000000000000000000000000000000000000",
            "receiptTrie" : "0x56e81f171bcc55a6ff8345e692c0f86e5b48e01b996cadc001622fb5e363b421",
            "requestsHash" : "0xe3b0c44298fc1c149afbf4c8996fb92427ae41e4649b934ca495991b7852b855",
            "stateRoot" : "0xbf43b816f7d5dda552a0da6b2c8dc399ce234c97889a8f5b533221f5dbf4bba6",
            "timestamp" : "0x03e8",
            "transactionsTrie" : "0x56e81f171bcc55a6ff8345e692c0f86e5b48e01b996cadc001622fb5e363b421",
            "withdrawalsRoot" : "0x56e81f171bcc55a6ff8345e692c0f86e5b48e01b996cadc001622fb5e363b421"
        },
        "genesisRLP" : "0xf9025ef90258a00000000000000000000000000000000000000000000000000000000000000000a01dcc4de8dec75d7aab85b567b6ccd41ad312451b948a7413f0a142fd40d49347942adc25665018aa1fe0e6bc666dac8fc2697ff9baa0bf43b816f7d5dda552a0da6b2c8dc399ce234c97889a8f5b533221f5dbf4bba6a056e81f171bcc55a6ff8345e692c0f86e5b48e01b996cadc001622fb5e363b421a056e81f171bcc55a6ff8345e692c0f86e5b48e01b996cadc001622fb5e363b421b9010000000000000000000000000000000000000000000000000000000000000000000000000000000000000000000000000000000000000000000000000000000000000000000000000000000000000000000000000000000000000000000000000000000000000000000000000000000000000000000000000000000000000000000000000000000000000000000000000000000000000000000000000000000000000000000000000000000000000000000000000000000000000000000000000000000000000000000000000000000000000000000000000000000000000000000000000000000000000000000000000000000000000000000000000000000000808083989680808203e842a0000000000000000000000000000000000000000000000000000000000002000088000000000000000010a056e81f171bcc55a6ff8345e692c0f86e5b48e01b996cadc001622fb5e363b4218080a00000000000000000000000000000000000000000000000000000000000000000a0e3b0c44298fc1c149afbf4c8996fb92427ae41e4649b934ca495991b7852b855c0c0c0",
        "lastblockhash" : "0x51bad28a630ed9438594fc3e98e9dc5f9e0a45c0437f48610f656391f6e8d252",
        "network" : "Prague",
        "postState" : {
            "0x0000f90827f1c53a10cb7a02335b175320002935" : {
                "balance" : "0x00",
                "code" : "0x3373fffffffffffffffffffffffffffffffffffffffe14604657602036036042575f35600143038111604257611fff81430311604257611fff9006545f5260205ff35b5f5ffd5b5f35611fff60014303065500",
                "nonce" : "0x01",
                "storage" : {
                    "0x00" : "0x710b83d21f78391f6b908ba980cde3530e7f35f276187bb211e5708f8b5ec643"
                }
            },
            "0x000f3df6d732807ef1319fb7b8bb8522d0beac02" : {
                "balance" : "0x00",
                "code" : "0x3373fffffffffffffffffffffffffffffffffffffffe14604d57602036146024575f5ffd5b5f35801560495762001fff810690815414603c575f5ffd5b62001fff01545f5260205ff35b5f5ffd5b62001fff42064281555f359062001fff015500",
                "nonce" : "0x01",
                "storage" : {
                    "0x03e8" : "0x03e8",
                    "0x07d0" : "0x07d0"
                }
            },
            "0x2adc25665018aa1fe0e6bc666dac8fc2697ff9ba" : {
                "balance" : "0x037daed0",
                "code" : "0x",
                "nonce" : "0x00",
                "storage" : {
                }
            },
            "0xa94f5374fce5edbc8e2a8697c15331677e6ebf0b" : {
                "balance" : "0xe8d11ab0c0",
                "code" : "0x",
                "nonce" : "0x01",
                "storage" : {
                }
            },
            "0xb94f5374fce5edbc8e2a8697c15331677e6ebf0b" : {
                "balance" : "0x0a",
                "code" : "0x",
                "nonce" : "0x00",
                "storage" : {
                }
            }
        },
        "pre" : {
            "0x0000f90827f1c53a10cb7a02335b175320002935" : {
                "balance" : "0x00",
                "code" : "0x3373fffffffffffffffffffffffffffffffffffffffe14604657602036036042575f35600143038111604257611fff81430311604257611fff9006545f5260205ff35b5f5ffd5b5f35611fff60014303065500",
                "nonce" : "0x01",
                "storage" : {
                }
            },
            "0x000f3df6d732807ef1319fb7b8bb8522d0beac02" : {
                "balance" : "0x00",
                "code" : "0x3373fffffffffffffffffffffffffffffffffffffffe14604d57602036146024575f5ffd5b5f35801560495762001fff810690815414603c575f5ffd5b62001fff01545f5260205ff35b5f5ffd5b62001fff42064281555f359062001fff015500",
                "nonce" : "0x01",
                "storage" : {
                    "0x03e8" : "0x03e8"
                }
            },
            "0xa94f5374fce5edbc8e2a8697c15331677e6ebf0b" : {
                "balance" : "0xe8d4a51000",
                "code" : "0x",
                "nonce" : "0x00",
                "storage" : {
                }
            },
            "0xb94f5374fce5edbc8e2a8697c15331677e6ebf0b" : {
                "balance" : "0x0a",
                "code" : "0x",
                "nonce" : "0x00",
                "storage" : {
                }
            }
        },
        "sealEngine" : "NoProof"
    }
}