{
    "RawCallCodeGasMemory_d0g0v0_Cancun" : {
        "_info" : {
            "comment" : "",
            "filling-rpc-server" : "evmone-t8n 0.14.0-13+commit.4d363c36",
            "filling-tool-version" : "retesteth-0.3.2-legacy+commit.ca7f4c79.Linux.g++",
            "fixture-format" : "blockchain_test",
            "generatedTestHash" : "620909c7ec234338e7e584731805c3fa8bf7b093c3d924b28743d859418c83c8",
            "lllcversion" : "Version: 0.5.14-develop.2024.11.5+commit.b2b86751.mod.Linux.g++",
            "hyperion" : "Version: 0.8.24+commit.e11b9ed9.Linux.g++",
            "source" : "src/GeneralStateTestsFiller/stEIP150singleCodeGasPrices/RawCallCodeGasMemoryFiller.json",
            "sourceHash" : "6855267ed33b9dab6c4c58e6bea95575f60b22dac6c0f7dab35cf08de63bc496"
        },
        "blocks" : [
            {
                "blockHeader" : {
                    "baseFeePerGas" : "0x0a",
                    "bloom" : "0x00000000000000000000000000000000000000000000000000000000000000000000000000000000000000000000000000000000000000000000000000000000000000000000000000000000000000000000000000000000000000000000000000000000000000000000000000000000000000000000000000000000000000000000000000000000000000000000000000000000000000000000000000000000000000000000000000000000000000000000000000000000000000000000000000000000000000000000000000000000000000000000000000000000000000000000000000000000000000000000000000000000000000000000000000000000",
                    "coinbase" : "Z2adc25665018aa1fe0e6bc666dac8fc2697ff9ba",
                    "extraData" : "0x00",
                    "gasLimit" : "0x989680",
                    "gasUsed" : "0x010c72",
                    "hash" : "0x50ae8ca8bc32ef810b9d7a25ef922d33084c5e29c1814a3a33e4934d686f38dc",
                    "mixHash" : "0x0000000000000000000000000000000000000000000000000000000000020000",
                    "nonce" : "0x0000000000000000",
                    "number" : "0x01",
                    "parentHash" : "0xb8d9acd5e8e70c9ea751f306d75d8c2a89629790cce50863690bd631a0aceb2d",
                    "receiptTrie" : "0x80eb832f388b05e1a040b6f41e62b9d8025f3ea405f1cfc087fc0cf8d612e06f",
                    "stateRoot" : "0x257258fd47f4af2795fca417d4809bc7dc40e2a17a65a8993eae76f857334a8f",
                    "timestamp" : "0x03e8",
                    "transactionsTrie" : "0x2457ae10a66eae4fac47715afae72233a48a78a0199e950d0552cdb6a9a7f386",
                    "withdrawalsRoot" : "0x56e81f171bcc55a6ff8345e692c0f86e5b48e01b996cadc001622fb5e363b421"
                },
                "rlp" : "0xf902a3f9023aa0b8d9acd5e8e70c9ea751f306d75d8c2a89629790cce50863690bd631a0aceb2da01dcc4de8dec75d7aab85b567b6ccd41ad312451b948a7413f0a142fd40d49347942adc25665018aa1fe0e6bc666dac8fc2697ff9baa0257258fd47f4af2795fca417d4809bc7dc40e2a17a65a8993eae76f857334a8fa02457ae10a66eae4fac47715afae72233a48a78a0199e950d0552cdb6a9a7f386a080eb832f388b05e1a040b6f41e62b9d8025f3ea405f1cfc087fc0cf8d612e06fb901000000000000000000000000000000000000000000000000000000000000000000000000000000000000000000000000000000000000000000000000000000000000000000000000000000000000000000000000000000000000000000000000000000000000000000000000000000000000000000000000000000000000000000000000000000000000000000000000000000000000000000000000000000000000000000000000000000000000000000000000000000000000000000000000000000000000000000000000000000000000000000000000000000000000000000000000000000000000000000000000000000000000000000000000000000000080018398968083010c728203e800a000000000000000000000000000000000000000000000000000000000000200008800000000000000000aa056e81f171bcc55a6ff8345e692c0f86e5b48e01b996cadc001622fb5e363b4218080a00000000000000000000000000000000000000000000000000000000000000000f862f860800a8307a12094b94f5374fce5edbc8e2a8697c15331677e6ebf0b80801ca03aef3a5148d2925d8c9607b7102bdd96c4b712986e6e8011cceac4c152509f8ea04a0218cbed3a7577c71da2b2a701c4278b1e59c779efbaad585b92cfb7aad81cc0c0",
                "transactions" : [
                    {
                        "data" : "0x",
                        "gasLimit" : "0x07a120",
                        "gasPrice" : "0x0a",
                        "nonce" : "0x00",
                        "signature" : "0x3aef3a5148d2925d8c9607b7102bdd96c4b712986e6e8011cceac4c152509f8e",
                        "publicKey" : "0x4a0218cbed3a7577c71da2b2a701c4278b1e59c779efbaad585b92cfb7aad81c",
                        "sender" : "Za94f5374fce5edbc8e2a8697c15331677e6ebf0b",
                        "to" : "Zb94f5374fce5edbc8e2a8697c15331677e6ebf0b",
                        "v" : "0x1c",
                        "value" : "0x00"
                    }
                ],

                "withdrawals" : [
                ]
            }
        ],
        "config" : {
            "blobSchedule" : {
                "Cancun" : {
                    "baseFeeUpdateFraction" : "0x32f0ed",
                    "max" : "0x06",
                    "target" : "0x03"
                }
            },
            "chainid" : "0x01",
            "network" : "Shanghai"
        },
        "genesisBlockHeader" : {
            "baseFeePerGas" : "0x0b",
            "bloom" : "0x00000000000000000000000000000000000000000000000000000000000000000000000000000000000000000000000000000000000000000000000000000000000000000000000000000000000000000000000000000000000000000000000000000000000000000000000000000000000000000000000000000000000000000000000000000000000000000000000000000000000000000000000000000000000000000000000000000000000000000000000000000000000000000000000000000000000000000000000000000000000000000000000000000000000000000000000000000000000000000000000000000000000000000000000000000000",
            "coinbase" : "Z2adc25665018aa1fe0e6bc666dac8fc2697ff9ba",
            "extraData" : "0x00",
            "gasLimit" : "0x989680",
            "gasUsed" : "0x00",
            "hash" : "0xb8d9acd5e8e70c9ea751f306d75d8c2a89629790cce50863690bd631a0aceb2d",
            "mixHash" : "0x0000000000000000000000000000000000000000000000000000000000020000",
            "nonce" : "0x0000000000000000",
            "number" : "0x00",
            "parentHash" : "0x0000000000000000000000000000000000000000000000000000000000000000",
            "receiptTrie" : "0x56e81f171bcc55a6ff8345e692c0f86e5b48e01b996cadc001622fb5e363b421",
            "stateRoot" : "0x5ad645b443dc9580a366235f5814b69d380d5e9340b5771654263e6cb359d5bd",
            "timestamp" : "0x00",
            "transactionsTrie" : "0x56e81f171bcc55a6ff8345e692c0f86e5b48e01b996cadc001622fb5e363b421",
            "withdrawalsRoot" : "0x56e81f171bcc55a6ff8345e692c0f86e5b48e01b996cadc001622fb5e363b421"
        },
        "genesisRLP" : "0xf9023ef90238a00000000000000000000000000000000000000000000000000000000000000000a01dcc4de8dec75d7aab85b567b6ccd41ad312451b948a7413f0a142fd40d49347942adc25665018aa1fe0e6bc666dac8fc2697ff9baa05ad645b443dc9580a366235f5814b69d380d5e9340b5771654263e6cb359d5bda056e81f171bcc55a6ff8345e692c0f86e5b48e01b996cadc001622fb5e363b421a056e81f171bcc55a6ff8345e692c0f86e5b48e01b996cadc001622fb5e363b421b9010000000000000000000000000000000000000000000000000000000000000000000000000000000000000000000000000000000000000000000000000000000000000000000000000000000000000000000000000000000000000000000000000000000000000000000000000000000000000000000000000000000000000000000000000000000000000000000000000000000000000000000000000000000000000000000000000000000000000000000000000000000000000000000000000000000000000000000000000000000000000000000000000000000000000000000000000000000000000000000000000000000000000000000000000000000000808083989680808000a000000000000000000000000000000000000000000000000000000000000200008800000000000000000ba056e81f171bcc55a6ff8345e692c0f86e5b48e01b996cadc001622fb5e363b4218083060000a00000000000000000000000000000000000000000000000000000000000000000c0c0c0",
        "lastblockhash" : "0x50ae8ca8bc32ef810b9d7a25ef922d33084c5e29c1814a3a33e4934d686f38dc",
        "network" : "Shanghai",
        "postState" : {
            "Z000f3df6d732807ef1319fb7b8bb8522d0beac02" : {
                "balance" : "0x00",
                "code" : "0x3373fffffffffffffffffffffffffffffffffffffffe14604d57602036146024575f5ffd5b5f35801560495762001fff810690815414603c575f5ffd5b62001fff01545f5260205ff35b5f5ffd5b62001fff42064281555f359062001fff015500",
                "nonce" : "0x01",
                "storage" : {
                    "0x03e8" : "0x03e8"
                }
            },
            "0x094f5374fce5edbc8e2a8697c15331677e6ebf0b" : {
                "balance" : "0x00",
                "code" : "0x5a60025500",
                "nonce" : "0x00",
                "storage" : {
                }
            },
            "0xa94f5374fce5edbc8e2a8697c15331677e6ebf0b" : {
                "balance" : "0xe8d49a938c",
                "code" : "0x",
                "nonce" : "0x01",
                "storage" : {
                }
            },
            "0xb94f5374fce5edbc8e2a8697c15331677e6ebf0b" : {
                "balance" : "0x00",
                "code" : "0x5a600052611f406000611f406000600073094f5374fce5edbc8e2a8697c15331677e6ebf0b617530f2505a6000510360015500",
                "nonce" : "0x00",
                "storage" : {
                    "0x01" : "0x6408",
                    "0x02" : "0x752e"
                }
            }
        },
        "pre" : {
            "Z000f3df6d732807ef1319fb7b8bb8522d0beac02" : {
                "balance" : "0x00",
                "code" : "0x3373fffffffffffffffffffffffffffffffffffffffe14604d57602036146024575f5ffd5b5f35801560495762001fff810690815414603c575f5ffd5b62001fff01545f5260205ff35b5f5ffd5b62001fff42064281555f359062001fff015500",
                "nonce" : "0x01",
                "storage" : {
                }
            },
            "0x094f5374fce5edbc8e2a8697c15331677e6ebf0b" : {
                "balance" : "0x00",
                "code" : "0x5a60025500",
                "nonce" : "0x00",
                "storage" : {
                }
            },
            "0xa94f5374fce5edbc8e2a8697c15331677e6ebf0b" : {
                "balance" : "0xe8d4a51000",
                "code" : "0x",
                "nonce" : "0x00",
                "storage" : {
                }
            },
            "0xb94f5374fce5edbc8e2a8697c15331677e6ebf0b" : {
                "balance" : "0x00",
                "code" : "0x5a600052611f406000611f406000600073094f5374fce5edbc8e2a8697c15331677e6ebf0b617530f2505a6000510360015500",
                "nonce" : "0x00",
                "storage" : {
                }
            }
        },
        "sealEngine" : "NoProof"
    },
    "RawCallCodeGasMemory_d0g0v0_Prague" : {
        "_info" : {
            "comment" : "",
            "filling-rpc-server" : "evmone-t8n 0.14.0-13+commit.4d363c36",
            "filling-tool-version" : "retesteth-0.3.2-legacy+commit.ca7f4c79.Linux.g++",
            "fixture-format" : "blockchain_test",
            "generatedTestHash" : "c990ef34d9e5056598f9be481866d6fd06941993f6ba9353ef8ade90ba8678fd",
            "lllcversion" : "Version: 0.5.14-develop.2024.11.5+commit.b2b86751.mod.Linux.g++",
            "hyperion" : "Version: 0.8.24+commit.e11b9ed9.Linux.g++",
            "source" : "src/GeneralStateTestsFiller/stEIP150singleCodeGasPrices/RawCallCodeGasMemoryFiller.json",
            "sourceHash" : "6855267ed33b9dab6c4c58e6bea95575f60b22dac6c0f7dab35cf08de63bc496"
        },
        "blocks" : [
            {
                "blockHeader" : {
                    "baseFeePerGas" : "0x0a",
                    "bloom" : "0x00000000000000000000000000000000000000000000000000000000000000000000000000000000000000000000000000000000000000000000000000000000000000000000000000000000000000000000000000000000000000000000000000000000000000000000000000000000000000000000000000000000000000000000000000000000000000000000000000000000000000000000000000000000000000000000000000000000000000000000000000000000000000000000000000000000000000000000000000000000000000000000000000000000000000000000000000000000000000000000000000000000000000000000000000000000",
                    "coinbase" : "Z2adc25665018aa1fe0e6bc666dac8fc2697ff9ba",
                    "extraData" : "0x00",
                    "gasLimit" : "0x989680",
                    "gasUsed" : "0x010c72",
                    "hash" : "0x617231a65e47dd0f3a65a0a67ebe6ed7d685f958044b1b19c4c81f1339e3c01f",
                    "mixHash" : "0x0000000000000000000000000000000000000000000000000000000000020000",
                    "nonce" : "0x0000000000000000",
                    "number" : "0x01",
                    "parentHash" : "0x96b94e483fc0ae793ccfce6a31576e818342351e0b4428b68509b1a4e02a5708",
                    "receiptTrie" : "0x80eb832f388b05e1a040b6f41e62b9d8025f3ea405f1cfc087fc0cf8d612e06f",
                    "requestsHash" : "0xe3b0c44298fc1c149afbf4c8996fb92427ae41e4649b934ca495991b7852b855",
                    "stateRoot" : "0xc23f47a4e1e776399aab8db41e77e537fb09459bff808236cb8aedd3f3294334",
                    "timestamp" : "0x03e8",
                    "transactionsTrie" : "0x2457ae10a66eae4fac47715afae72233a48a78a0199e950d0552cdb6a9a7f386",
                    "withdrawalsRoot" : "0x56e81f171bcc55a6ff8345e692c0f86e5b48e01b996cadc001622fb5e363b421"
                },
                "rlp" : "0xf902c4f9025ba096b94e483fc0ae793ccfce6a31576e818342351e0b4428b68509b1a4e02a5708a01dcc4de8dec75d7aab85b567b6ccd41ad312451b948a7413f0a142fd40d49347942adc25665018aa1fe0e6bc666dac8fc2697ff9baa0c23f47a4e1e776399aab8db41e77e537fb09459bff808236cb8aedd3f3294334a02457ae10a66eae4fac47715afae72233a48a78a0199e950d0552cdb6a9a7f386a080eb832f388b05e1a040b6f41e62b9d8025f3ea405f1cfc087fc0cf8d612e06fb901000000000000000000000000000000000000000000000000000000000000000000000000000000000000000000000000000000000000000000000000000000000000000000000000000000000000000000000000000000000000000000000000000000000000000000000000000000000000000000000000000000000000000000000000000000000000000000000000000000000000000000000000000000000000000000000000000000000000000000000000000000000000000000000000000000000000000000000000000000000000000000000000000000000000000000000000000000000000000000000000000000000000000000000000000000000080018398968083010c728203e800a000000000000000000000000000000000000000000000000000000000000200008800000000000000000aa056e81f171bcc55a6ff8345e692c0f86e5b48e01b996cadc001622fb5e363b4218080a00000000000000000000000000000000000000000000000000000000000000000a0e3b0c44298fc1c149afbf4c8996fb92427ae41e4649b934ca495991b7852b855f862f860800a8307a12094b94f5374fce5edbc8e2a8697c15331677e6ebf0b80801ca03aef3a5148d2925d8c9607b7102bdd96c4b712986e6e8011cceac4c152509f8ea04a0218cbed3a7577c71da2b2a701c4278b1e59c779efbaad585b92cfb7aad81cc0c0",
                "transactions" : [
                    {
                        "data" : "0x",
                        "gasLimit" : "0x07a120",
                        "gasPrice" : "0x0a",
                        "nonce" : "0x00",
                        "signature" : "0x3aef3a5148d2925d8c9607b7102bdd96c4b712986e6e8011cceac4c152509f8e",
                        "publicKey" : "0x4a0218cbed3a7577c71da2b2a701c4278b1e59c779efbaad585b92cfb7aad81c",
                        "sender" : "Za94f5374fce5edbc8e2a8697c15331677e6ebf0b",
                        "to" : "Zb94f5374fce5edbc8e2a8697c15331677e6ebf0b",
                        "v" : "0x1c",
                        "value" : "0x00"
                    }
                ],

                "withdrawals" : [
                ]
            }
        ],
        "config" : {
            "blobSchedule" : {
                "Prague" : {
                    "baseFeeUpdateFraction" : "0x4c6964",
                    "max" : "0x09",
                    "target" : "0x06"
                }
            },
            "chainid" : "0x01",
            "network" : "Shanghai"
        },
        "genesisBlockHeader" : {
            "baseFeePerGas" : "0x0b",
            "bloom" : "0x00000000000000000000000000000000000000000000000000000000000000000000000000000000000000000000000000000000000000000000000000000000000000000000000000000000000000000000000000000000000000000000000000000000000000000000000000000000000000000000000000000000000000000000000000000000000000000000000000000000000000000000000000000000000000000000000000000000000000000000000000000000000000000000000000000000000000000000000000000000000000000000000000000000000000000000000000000000000000000000000000000000000000000000000000000000",
            "coinbase" : "Z2adc25665018aa1fe0e6bc666dac8fc2697ff9ba",
            "extraData" : "0x00",
            "gasLimit" : "0x989680",
            "gasUsed" : "0x00",
            "hash" : "0x96b94e483fc0ae793ccfce6a31576e818342351e0b4428b68509b1a4e02a5708",
            "mixHash" : "0x0000000000000000000000000000000000000000000000000000000000020000",
            "nonce" : "0x0000000000000000",
            "number" : "0x00",
            "parentHash" : "0x0000000000000000000000000000000000000000000000000000000000000000",
            "receiptTrie" : "0x56e81f171bcc55a6ff8345e692c0f86e5b48e01b996cadc001622fb5e363b421",
            "requestsHash" : "0xe3b0c44298fc1c149afbf4c8996fb92427ae41e4649b934ca495991b7852b855",
            "stateRoot" : "0xd8720f035b369c2c4dc28ebf72d6e77246849d99bc6527bcc6058e06f211e4d2",
            "timestamp" : "0x00",
            "transactionsTrie" : "0x56e81f171bcc55a6ff8345e692c0f86e5b48e01b996cadc001622fb5e363b421",
            "withdrawalsRoot" : "0x56e81f171bcc55a6ff8345e692c0f86e5b48e01b996cadc001622fb5e363b421"
        },
        "genesisRLP" : "0xf9025ff90259a00000000000000000000000000000000000000000000000000000000000000000a01dcc4de8dec75d7aab85b567b6ccd41ad312451b948a7413f0a142fd40d49347942adc25665018aa1fe0e6bc666dac8fc2697ff9baa0d8720f035b369c2c4dc28ebf72d6e77246849d99bc6527bcc6058e06f211e4d2a056e81f171bcc55a6ff8345e692c0f86e5b48e01b996cadc001622fb5e363b421a056e81f171bcc55a6ff8345e692c0f86e5b48e01b996cadc001622fb5e363b421b9010000000000000000000000000000000000000000000000000000000000000000000000000000000000000000000000000000000000000000000000000000000000000000000000000000000000000000000000000000000000000000000000000000000000000000000000000000000000000000000000000000000000000000000000000000000000000000000000000000000000000000000000000000000000000000000000000000000000000000000000000000000000000000000000000000000000000000000000000000000000000000000000000000000000000000000000000000000000000000000000000000000000000000000000000000000000808083989680808000a000000000000000000000000000000000000000000000000000000000000200008800000000000000000ba056e81f171bcc55a6ff8345e692c0f86e5b48e01b996cadc001622fb5e363b4218083060000a00000000000000000000000000000000000000000000000000000000000000000a0e3b0c44298fc1c149afbf4c8996fb92427ae41e4649b934ca495991b7852b855c0c0c0",
        "lastblockhash" : "0x617231a65e47dd0f3a65a0a67ebe6ed7d685f958044b1b19c4c81f1339e3c01f",
        "network" : "Shanghai",
        "postState" : {
            "Z0000f90827f1c53a10cb7a02335b175320002935" : {
                "balance" : "0x00",
                "code" : "0x3373fffffffffffffffffffffffffffffffffffffffe14604657602036036042575f35600143038111604257611fff81430311604257611fff9006545f5260205ff35b5f5ffd5b5f35611fff60014303065500",
                "nonce" : "0x01",
                "storage" : {
                    "0x00" : "0x96b94e483fc0ae793ccfce6a31576e818342351e0b4428b68509b1a4e02a5708"
                }
            },
            "0x000f3df6d732807ef1319fb7b8bb8522d0beac02" : {
                "balance" : "0x00",
                "code" : "0x3373fffffffffffffffffffffffffffffffffffffffe14604d57602036146024575f5ffd5b5f35801560495762001fff810690815414603c575f5ffd5b62001fff01545f5260205ff35b5f5ffd5b62001fff42064281555f359062001fff015500",
                "nonce" : "0x01",
                "storage" : {
                    "0x03e8" : "0x03e8"
                }
            },
            "0x094f5374fce5edbc8e2a8697c15331677e6ebf0b" : {
                "balance" : "0x00",
                "code" : "0x5a60025500",
                "nonce" : "0x00",
                "storage" : {
                }
            },
            "0xa94f5374fce5edbc8e2a8697c15331677e6ebf0b" : {
                "balance" : "0xe8d49a938c",
                "code" : "0x",
                "nonce" : "0x01",
                "storage" : {
                }
            },
            "0xb94f5374fce5edbc8e2a8697c15331677e6ebf0b" : {
                "balance" : "0x00",
                "code" : "0x5a600052611f406000611f406000600073094f5374fce5edbc8e2a8697c15331677e6ebf0b617530f2505a6000510360015500",
                "nonce" : "0x00",
                "storage" : {
                    "0x01" : "0x6408",
                    "0x02" : "0x752e"
                }
            }
        },
        "pre" : {
            "Z0000f90827f1c53a10cb7a02335b175320002935" : {
                "balance" : "0x00",
                "code" : "0x3373fffffffffffffffffffffffffffffffffffffffe14604657602036036042575f35600143038111604257611fff81430311604257611fff9006545f5260205ff35b5f5ffd5b5f35611fff60014303065500",
                "nonce" : "0x01",
                "storage" : {
                }
            },
            "0x000f3df6d732807ef1319fb7b8bb8522d0beac02" : {
                "balance" : "0x00",
                "code" : "0x3373fffffffffffffffffffffffffffffffffffffffe14604d57602036146024575f5ffd5b5f35801560495762001fff810690815414603c575f5ffd5b62001fff01545f5260205ff35b5f5ffd5b62001fff42064281555f359062001fff015500",
                "nonce" : "0x01",
                "storage" : {
                }
            },
            "0x094f5374fce5edbc8e2a8697c15331677e6ebf0b" : {
                "balance" : "0x00",
                "code" : "0x5a60025500",
                "nonce" : "0x00",
                "storage" : {
                }
            },
            "0xa94f5374fce5edbc8e2a8697c15331677e6ebf0b" : {
                "balance" : "0xe8d4a51000",
                "code" : "0x",
                "nonce" : "0x00",
                "storage" : {
                }
            },
            "0xb94f5374fce5edbc8e2a8697c15331677e6ebf0b" : {
                "balance" : "0x00",
                "code" : "0x5a600052611f406000611f406000600073094f5374fce5edbc8e2a8697c15331677e6ebf0b617530f2505a6000510360015500",
                "nonce" : "0x00",
                "storage" : {
                }
            }
        },
        "sealEngine" : "NoProof"
    }
}