{
    "RawDelegateCallGasMemoryAsk_d0g0v0_Cancun" : {
        "_info" : {
            "comment" : "",
            "filling-rpc-server" : "evmone-t8n 0.14.0-13+commit.4d363c36",
            "filling-tool-version" : "retesteth-0.3.2-legacy+commit.ca7f4c79.Linux.g++",
            "fixture-format" : "blockchain_test",
            "generatedTestHash" : "a8f002e064bddfd21dcae9a2b95de8f5f42955f2b8af78089a507a227498da19",
            "lllcversion" : "Version: 0.5.14-develop.2024.11.5+commit.b2b86751.mod.Linux.g++",
            "hyperion" : "Version: 0.8.24+commit.e11b9ed9.Linux.g++",
            "source" : "src/GeneralStateTestsFiller/stEIP150singleCodeGasPrices/RawDelegateCallGasMemoryAskFiller.json",
            "sourceHash" : "f8fcd8a85513fef249529997d4fe49ff2f0d110076a971451605f88d9b369042"
        },
        "blocks" : [
            {
                "blockHeader" : {
                    "baseFeePerGas" : "0x0a",
                    "bloom" : "0x00000000000000000000000000000000000000000000000000000000000000000000000000000000000000000000000000000000000000000000000000000000000000000000000000000000000000000000000000000000000000000000000000000000000000000000000000000000000000000000000000000000000000000000000000000000000000000000000000000000000000000000000000000000000000000000000000000000000000000000000000000000000000000000000000000000000000000000000000000000000000000000000000000000000000000000000000000000000000000000000000000000000000000000000000000000",
                    "coinbase" : "Z2adc25665018aa1fe0e6bc666dac8fc2697ff9ba",
                    "extraData" : "0x00",
                    "gasLimit" : "0x989680",
                    "gasUsed" : "0x010c6f",
                    "hash" : "0xa73e7ba683cf79f1cf1ce5c1a67501b727ff259ac2d850022400aa564f83d3fc",
                    "mixHash" : "0x0000000000000000000000000000000000000000000000000000000000020000",
                    "nonce" : "0x0000000000000000",
                    "number" : "0x01",
                    "parentHash" : "0xd9484e56bddc7cbf08c8625a660152e62e442ccd004e3b6767330e06559b313c",
                    "receiptTrie" : "0xe457396c3b1ff91ab97374f3d759307e15e5f63ff3ddfde8a8e812a09f99ab30",
                    "stateRoot" : "0x28cf2a53bac3a24bb5f196bda7348e821ea6c4e7622390067247ea5fe1ded880",
                    "timestamp" : "0x03e8",
                    "transactionsTrie" : "0x2457ae10a66eae4fac47715afae72233a48a78a0199e950d0552cdb6a9a7f386",
                    "withdrawalsRoot" : "0x56e81f171bcc55a6ff8345e692c0f86e5b48e01b996cadc001622fb5e363b421"
                },
                "rlp" : "0xf902a3f9023aa0d9484e56bddc7cbf08c8625a660152e62e442ccd004e3b6767330e06559b313ca01dcc4de8dec75d7aab85b567b6ccd41ad312451b948a7413f0a142fd40d49347942adc25665018aa1fe0e6bc666dac8fc2697ff9baa028cf2a53bac3a24bb5f196bda7348e821ea6c4e7622390067247ea5fe1ded880a02457ae10a66eae4fac47715afae72233a48a78a0199e950d0552cdb6a9a7f386a0e457396c3b1ff91ab97374f3d759307e15e5f63ff3ddfde8a8e812a09f99ab30b901000000000000000000000000000000000000000000000000000000000000000000000000000000000000000000000000000000000000000000000000000000000000000000000000000000000000000000000000000000000000000000000000000000000000000000000000000000000000000000000000000000000000000000000000000000000000000000000000000000000000000000000000000000000000000000000000000000000000000000000000000000000000000000000000000000000000000000000000000000000000000000000000000000000000000000000000000000000000000000000000000000000000000000000000000000000080018398968083010c6f8203e800a000000000000000000000000000000000000000000000000000000000000200008800000000000000000aa056e81f171bcc55a6ff8345e692c0f86e5b48e01b996cadc001622fb5e363b4218080a00000000000000000000000000000000000000000000000000000000000000000f862f860800a8307a12094b94f5374fce5edbc8e2a8697c15331677e6ebf0b80801ca03aef3a5148d2925d8c9607b7102bdd96c4b712986e6e8011cceac4c152509f8ea04a0218cbed3a7577c71da2b2a701c4278b1e59c779efbaad585b92cfb7aad81cc0c0",
                "transactions" : [
                    {
                        "data" : "0x",
                        "gasLimit" : "0x07a120",
                        "gasPrice" : "0x0a",
                        "nonce" : "0x00",
                        "signature" : "0x3aef3a5148d2925d8c9607b7102bdd96c4b712986e6e8011cceac4c152509f8e",
                        "publicKey" : "0x4a0218cbed3a7577c71da2b2a701c4278b1e59c779efbaad585b92cfb7aad81c",
                        "sender" : "Za94f5374fce5edbc8e2a8697c15331677e6ebf0b",
                        "to" : "Zb94f5374fce5edbc8e2a8697c15331677e6ebf0b",
                        "v" : "0x1c",
                        "value" : "0x00"
                    }
                ],

                "withdrawals" : [
                ]
            }
        ],
        "config" : {
            "blobSchedule" : {
                "Cancun" : {
                    "baseFeeUpdateFraction" : "0x32f0ed",
                    "max" : "0x06",
                    "target" : "0x03"
                }
            },
            "chainid" : "0x01",
            "network" : "Shanghai"
        },
        "genesisBlockHeader" : {
            "baseFeePerGas" : "0x0b",
            "bloom" : "0x00000000000000000000000000000000000000000000000000000000000000000000000000000000000000000000000000000000000000000000000000000000000000000000000000000000000000000000000000000000000000000000000000000000000000000000000000000000000000000000000000000000000000000000000000000000000000000000000000000000000000000000000000000000000000000000000000000000000000000000000000000000000000000000000000000000000000000000000000000000000000000000000000000000000000000000000000000000000000000000000000000000000000000000000000000000",
            "coinbase" : "Z2adc25665018aa1fe0e6bc666dac8fc2697ff9ba",
            "extraData" : "0x00",
            "gasLimit" : "0x989680",
            "gasUsed" : "0x00",
            "hash" : "0xd9484e56bddc7cbf08c8625a660152e62e442ccd004e3b6767330e06559b313c",
            "mixHash" : "0x0000000000000000000000000000000000000000000000000000000000020000",
            "nonce" : "0x0000000000000000",
            "number" : "0x00",
            "parentHash" : "0x0000000000000000000000000000000000000000000000000000000000000000",
            "receiptTrie" : "0x56e81f171bcc55a6ff8345e692c0f86e5b48e01b996cadc001622fb5e363b421",
            "stateRoot" : "0x9a25105a62c8183c88506d954988eec2841149eabb23f7ed7038c5b2a3d1e60d",
            "timestamp" : "0x00",
            "transactionsTrie" : "0x56e81f171bcc55a6ff8345e692c0f86e5b48e01b996cadc001622fb5e363b421",
            "withdrawalsRoot" : "0x56e81f171bcc55a6ff8345e692c0f86e5b48e01b996cadc001622fb5e363b421"
        },
        "genesisRLP" : "0xf9023ef90238a00000000000000000000000000000000000000000000000000000000000000000a01dcc4de8dec75d7aab85b567b6ccd41ad312451b948a7413f0a142fd40d49347942adc25665018aa1fe0e6bc666dac8fc2697ff9baa09a25105a62c8183c88506d954988eec2841149eabb23f7ed7038c5b2a3d1e60da056e81f171bcc55a6ff8345e692c0f86e5b48e01b996cadc001622fb5e363b421a056e81f171bcc55a6ff8345e692c0f86e5b48e01b996cadc001622fb5e363b421b9010000000000000000000000000000000000000000000000000000000000000000000000000000000000000000000000000000000000000000000000000000000000000000000000000000000000000000000000000000000000000000000000000000000000000000000000000000000000000000000000000000000000000000000000000000000000000000000000000000000000000000000000000000000000000000000000000000000000000000000000000000000000000000000000000000000000000000000000000000000000000000000000000000000000000000000000000000000000000000000000000000000000000000000000000000000000808083989680808000a000000000000000000000000000000000000000000000000000000000000200008800000000000000000ba056e81f171bcc55a6ff8345e692c0f86e5b48e01b996cadc001622fb5e363b4218083060000a00000000000000000000000000000000000000000000000000000000000000000c0c0c0",
        "lastblockhash" : "0xa73e7ba683cf79f1cf1ce5c1a67501b727ff259ac2d850022400aa564f83d3fc",
        "network" : "Shanghai",
        "postState" : {
            "Z000f3df6d732807ef1319fb7b8bb8522d0beac02" : {
                "balance" : "0x00",
                "code" : "0x3373fffffffffffffffffffffffffffffffffffffffe14604d57602036146024575f5ffd5b5f35801560495762001fff810690815414603c575f5ffd5b62001fff01545f5260205ff35b5f5ffd5b62001fff42064281555f359062001fff015500",
                "nonce" : "0x01",
                "storage" : {
                    "0x03e8" : "0x03e8"
                }
            },
            "0x094f5374fce5edbc8e2a8697c15331677e6ebf0b" : {
                "balance" : "0x00",
                "code" : "0x5a60025500",
                "nonce" : "0x00",
                "storage" : {
                }
            },
            "0xa94f5374fce5edbc8e2a8697c15331677e6ebf0b" : {
                "balance" : "0xe8d49a93aa",
                "code" : "0x",
                "nonce" : "0x01",
                "storage" : {
                }
            },
            "0xb94f5374fce5edbc8e2a8697c15331677e6ebf0b" : {
                "balance" : "0x00",
                "code" : "0x5a600052611f406000611f40600073094f5374fce5edbc8e2a8697c15331677e6ebf0b622dc6c0f4505a6000510360015500",
                "nonce" : "0x00",
                "storage" : {
                    "0x01" : "0x6405",
                    "0x02" : "0x072467"
                }
            }
        },
        "pre" : {
            "Z000f3df6d732807ef1319fb7b8bb8522d0beac02" : {
                "balance" : "0x00",
                "code" : "0x3373fffffffffffffffffffffffffffffffffffffffe14604d57602036146024575f5ffd5b5f35801560495762001fff810690815414603c575f5ffd5b62001fff01545f5260205ff35b5f5ffd5b62001fff42064281555f359062001fff015500",
                "nonce" : "0x01",
                "storage" : {
                }
            },
            "0x094f5374fce5edbc8e2a8697c15331677e6ebf0b" : {
                "balance" : "0x00",
                "code" : "0x5a60025500",
                "nonce" : "0x00",
                "storage" : {
                }
            },
            "0xa94f5374fce5edbc8e2a8697c15331677e6ebf0b" : {
                "balance" : "0xe8d4a51000",
                "code" : "0x",
                "nonce" : "0x00",
                "storage" : {
                }
            },
            "0xb94f5374fce5edbc8e2a8697c15331677e6ebf0b" : {
                "balance" : "0x00",
                "code" : "0x5a600052611f406000611f40600073094f5374fce5edbc8e2a8697c15331677e6ebf0b622dc6c0f4505a6000510360015500",
                "nonce" : "0x00",
                "storage" : {
                }
            }
        },
        "sealEngine" : "NoProof"
    },
    "RawDelegateCallGasMemoryAsk_d0g0v0_Prague" : {
        "_info" : {
            "comment" : "",
            "filling-rpc-server" : "evmone-t8n 0.14.0-13+commit.4d363c36",
            "filling-tool-version" : "retesteth-0.3.2-legacy+commit.ca7f4c79.Linux.g++",
            "fixture-format" : "blockchain_test",
            "generatedTestHash" : "e65f74b7f3fa76639c8faf5b972847d89c85908501074c8a555a8ccc85216d3c",
            "lllcversion" : "Version: 0.5.14-develop.2024.11.5+commit.b2b86751.mod.Linux.g++",
            "hyperion" : "Version: 0.8.24+commit.e11b9ed9.Linux.g++",
            "source" : "src/GeneralStateTestsFiller/stEIP150singleCodeGasPrices/RawDelegateCallGasMemoryAskFiller.json",
            "sourceHash" : "f8fcd8a85513fef249529997d4fe49ff2f0d110076a971451605f88d9b369042"
        },
        "blocks" : [
            {
                "blockHeader" : {
                    "baseFeePerGas" : "0x0a",
                    "bloom" : "0x00000000000000000000000000000000000000000000000000000000000000000000000000000000000000000000000000000000000000000000000000000000000000000000000000000000000000000000000000000000000000000000000000000000000000000000000000000000000000000000000000000000000000000000000000000000000000000000000000000000000000000000000000000000000000000000000000000000000000000000000000000000000000000000000000000000000000000000000000000000000000000000000000000000000000000000000000000000000000000000000000000000000000000000000000000000",
                    "coinbase" : "Z2adc25665018aa1fe0e6bc666dac8fc2697ff9ba",
                    "extraData" : "0x00",
                    "gasLimit" : "0x989680",
                    "gasUsed" : "0x010c6f",
                    "hash" : "0x91c4104f049d08d24c7e60b94ae5e7522ca6ac7ba77b263113f010ec08025116",
                    "mixHash" : "0x0000000000000000000000000000000000000000000000000000000000020000",
                    "nonce" : "0x0000000000000000",
                    "number" : "0x01",
                    "parentHash" : "0x718f5bea4c85116a0c9ecf97d236c2882bbcc223900c1f4ad05a6de5a7354f4e",
                    "receiptTrie" : "0xe457396c3b1ff91ab97374f3d759307e15e5f63ff3ddfde8a8e812a09f99ab30",
                    "requestsHash" : "0xe3b0c44298fc1c149afbf4c8996fb92427ae41e4649b934ca495991b7852b855",
                    "stateRoot" : "0xe9cc0f10161ab4f4cd6fa59f2814edccb8ef182db7dbd6a735e4ecd613829980",
                    "timestamp" : "0x03e8",
                    "transactionsTrie" : "0x2457ae10a66eae4fac47715afae72233a48a78a0199e950d0552cdb6a9a7f386",
                    "withdrawalsRoot" : "0x56e81f171bcc55a6ff8345e692c0f86e5b48e01b996cadc001622fb5e363b421"
                },
                "rlp" : "0xf902c4f9025ba0718f5bea4c85116a0c9ecf97d236c2882bbcc223900c1f4ad05a6de5a7354f4ea01dcc4de8dec75d7aab85b567b6ccd41ad312451b948a7413f0a142fd40d49347942adc25665018aa1fe0e6bc666dac8fc2697ff9baa0e9cc0f10161ab4f4cd6fa59f2814edccb8ef182db7dbd6a735e4ecd613829980a02457ae10a66eae4fac47715afae72233a48a78a0199e950d0552cdb6a9a7f386a0e457396c3b1ff91ab97374f3d759307e15e5f63ff3ddfde8a8e812a09f99ab30b901000000000000000000000000000000000000000000000000000000000000000000000000000000000000000000000000000000000000000000000000000000000000000000000000000000000000000000000000000000000000000000000000000000000000000000000000000000000000000000000000000000000000000000000000000000000000000000000000000000000000000000000000000000000000000000000000000000000000000000000000000000000000000000000000000000000000000000000000000000000000000000000000000000000000000000000000000000000000000000000000000000000000000000000000000000000080018398968083010c6f8203e800a000000000000000000000000000000000000000000000000000000000000200008800000000000000000aa056e81f171bcc55a6ff8345e692c0f86e5b48e01b996cadc001622fb5e363b4218080a00000000000000000000000000000000000000000000000000000000000000000a0e3b0c44298fc1c149afbf4c8996fb92427ae41e4649b934ca495991b7852b855f862f860800a8307a12094b94f5374fce5edbc8e2a8697c15331677e6ebf0b80801ca03aef3a5148d2925d8c9607b7102bdd96c4b712986e6e8011cceac4c152509f8ea04a0218cbed3a7577c71da2b2a701c4278b1e59c779efbaad585b92cfb7aad81cc0c0",
                "transactions" : [
                    {
                        "data" : "0x",
                        "gasLimit" : "0x07a120",
                        "gasPrice" : "0x0a",
                        "nonce" : "0x00",
                        "signature" : "0x3aef3a5148d2925d8c9607b7102bdd96c4b712986e6e8011cceac4c152509f8e",
                        "publicKey" : "0x4a0218cbed3a7577c71da2b2a701c4278b1e59c779efbaad585b92cfb7aad81c",
                        "sender" : "Za94f5374fce5edbc8e2a8697c15331677e6ebf0b",
                        "to" : "Zb94f5374fce5edbc8e2a8697c15331677e6ebf0b",
                        "v" : "0x1c",
                        "value" : "0x00"
                    }
                ],

                "withdrawals" : [
                ]
            }
        ],
        "config" : {
            "blobSchedule" : {
                "Prague" : {
                    "baseFeeUpdateFraction" : "0x4c6964",
                    "max" : "0x09",
                    "target" : "0x06"
                }
            },
            "chainid" : "0x01",
            "network" : "Shanghai"
        },
        "genesisBlockHeader" : {
            "baseFeePerGas" : "0x0b",
            "bloom" : "0x00000000000000000000000000000000000000000000000000000000000000000000000000000000000000000000000000000000000000000000000000000000000000000000000000000000000000000000000000000000000000000000000000000000000000000000000000000000000000000000000000000000000000000000000000000000000000000000000000000000000000000000000000000000000000000000000000000000000000000000000000000000000000000000000000000000000000000000000000000000000000000000000000000000000000000000000000000000000000000000000000000000000000000000000000000000",
            "coinbase" : "Z2adc25665018aa1fe0e6bc666dac8fc2697ff9ba",
            "extraData" : "0x00",
            "gasLimit" : "0x989680",
            "gasUsed" : "0x00",
            "hash" : "0x718f5bea4c85116a0c9ecf97d236c2882bbcc223900c1f4ad05a6de5a7354f4e",
            "mixHash" : "0x0000000000000000000000000000000000000000000000000000000000020000",
            "nonce" : "0x0000000000000000",
            "number" : "0x00",
            "parentHash" : "0x0000000000000000000000000000000000000000000000000000000000000000",
            "receiptTrie" : "0x56e81f171bcc55a6ff8345e692c0f86e5b48e01b996cadc001622fb5e363b421",
            "requestsHash" : "0xe3b0c44298fc1c149afbf4c8996fb92427ae41e4649b934ca495991b7852b855",
            "stateRoot" : "0xe3cafe7446b6d2844f60ed9d3ca308d22f98020168feca52a3182b05489d8590",
            "timestamp" : "0x00",
            "transactionsTrie" : "0x56e81f171bcc55a6ff8345e692c0f86e5b48e01b996cadc001622fb5e363b421",
            "withdrawalsRoot" : "0x56e81f171bcc55a6ff8345e692c0f86e5b48e01b996cadc001622fb5e363b421"
        },
        "genesisRLP" : "0xf9025ff90259a00000000000000000000000000000000000000000000000000000000000000000a01dcc4de8dec75d7aab85b567b6ccd41ad312451b948a7413f0a142fd40d49347942adc25665018aa1fe0e6bc666dac8fc2697ff9baa0e3cafe7446b6d2844f60ed9d3ca308d22f98020168feca52a3182b05489d8590a056e81f171bcc55a6ff8345e692c0f86e5b48e01b996cadc001622fb5e363b421a056e81f171bcc55a6ff8345e692c0f86e5b48e01b996cadc001622fb5e363b421b9010000000000000000000000000000000000000000000000000000000000000000000000000000000000000000000000000000000000000000000000000000000000000000000000000000000000000000000000000000000000000000000000000000000000000000000000000000000000000000000000000000000000000000000000000000000000000000000000000000000000000000000000000000000000000000000000000000000000000000000000000000000000000000000000000000000000000000000000000000000000000000000000000000000000000000000000000000000000000000000000000000000000000000000000000000000000808083989680808000a000000000000000000000000000000000000000000000000000000000000200008800000000000000000ba056e81f171bcc55a6ff8345e692c0f86e5b48e01b996cadc001622fb5e363b4218083060000a00000000000000000000000000000000000000000000000000000000000000000a0e3b0c44298fc1c149afbf4c8996fb92427ae41e4649b934ca495991b7852b855c0c0c0",
        "lastblockhash" : "0x91c4104f049d08d24c7e60b94ae5e7522ca6ac7ba77b263113f010ec08025116",
        "network" : "Shanghai",
        "postState" : {
            "Z0000f90827f1c53a10cb7a02335b175320002935" : {
                "balance" : "0x00",
                "code" : "0x3373fffffffffffffffffffffffffffffffffffffffe14604657602036036042575f35600143038111604257611fff81430311604257611fff9006545f5260205ff35b5f5ffd5b5f35611fff60014303065500",
                "nonce" : "0x01",
                "storage" : {
                    "0x00" : "0x718f5bea4c85116a0c9ecf97d236c2882bbcc223900c1f4ad05a6de5a7354f4e"
                }
            },
            "0x000f3df6d732807ef1319fb7b8bb8522d0beac02" : {
                "balance" : "0x00",
                "code" : "0x3373fffffffffffffffffffffffffffffffffffffffe14604d57602036146024575f5ffd5b5f35801560495762001fff810690815414603c575f5ffd5b62001fff01545f5260205ff35b5f5ffd5b62001fff42064281555f359062001fff015500",
                "nonce" : "0x01",
                "storage" : {
                    "0x03e8" : "0x03e8"
                }
            },
            "0x094f5374fce5edbc8e2a8697c15331677e6ebf0b" : {
                "balance" : "0x00",
                "code" : "0x5a60025500",
                "nonce" : "0x00",
                "storage" : {
                }
            },
            "0xa94f5374fce5edbc8e2a8697c15331677e6ebf0b" : {
                "balance" : "0xe8d49a93aa",
                "code" : "0x",
                "nonce" : "0x01",
                "storage" : {
                }
            },
            "0xb94f5374fce5edbc8e2a8697c15331677e6ebf0b" : {
                "balance" : "0x00",
                "code" : "0x5a600052611f406000611f40600073094f5374fce5edbc8e2a8697c15331677e6ebf0b622dc6c0f4505a6000510360015500",
                "nonce" : "0x00",
                "storage" : {
                    "0x01" : "0x6405",
                    "0x02" : "0x072467"
                }
            }
        },
        "pre" : {
            "Z0000f90827f1c53a10cb7a02335b175320002935" : {
                "balance" : "0x00",
                "code" : "0x3373fffffffffffffffffffffffffffffffffffffffe14604657602036036042575f35600143038111604257611fff81430311604257611fff9006545f5260205ff35b5f5ffd5b5f35611fff60014303065500",
                "nonce" : "0x01",
                "storage" : {
                }
            },
            "0x000f3df6d732807ef1319fb7b8bb8522d0beac02" : {
                "balance" : "0x00",
                "code" : "0x3373fffffffffffffffffffffffffffffffffffffffe14604d57602036146024575f5ffd5b5f35801560495762001fff810690815414603c575f5ffd5b62001fff01545f5260205ff35b5f5ffd5b62001fff42064281555f359062001fff015500",
                "nonce" : "0x01",
                "storage" : {
                }
            },
            "0x094f5374fce5edbc8e2a8697c15331677e6ebf0b" : {
                "balance" : "0x00",
                "code" : "0x5a60025500",
                "nonce" : "0x00",
                "storage" : {
                }
            },
            "0xa94f5374fce5edbc8e2a8697c15331677e6ebf0b" : {
                "balance" : "0xe8d4a51000",
                "code" : "0x",
                "nonce" : "0x00",
                "storage" : {
                }
            },
            "0xb94f5374fce5edbc8e2a8697c15331677e6ebf0b" : {
                "balance" : "0x00",
                "code" : "0x5a600052611f406000611f40600073094f5374fce5edbc8e2a8697c15331677e6ebf0b622dc6c0f4505a6000510360015500",
                "nonce" : "0x00",
                "storage" : {
                }
            }
        },
        "sealEngine" : "NoProof"
    }
}