{
  "genesis": {
    "baseFeePerGas": "51088069741",
    "extraData": "0xd883010a10846765746888676f312e31362e35856c696e7578",
    "gasLimit": "30058590",
    "hash": "0xdf6b95183f99054fb6541e3b482c0109c9f6be40553cff24efa3ac76736adbf5",
    "miner": "0xb7e390864a90b7b923c9f9310c6f98aafe43f707",
    "mixHash": "0x8d76b0d32e42ab277dbf00836eabef76674cd70ae2bb53718175069ad6b6147e",
    "number": "14707767",
    "stateRoot": "0x8a50c896a6f7eb1f3479337db981fa10ce316281cb4dd2f07487be9ca27dae6b",
    "timestamp": "1651623275",
    "alloc": {
      "0x0000000000000000000000000000000000000000": {
        "balance": "0x268fd0b894b8c4f6d1f"
      },
      "0x13b152c9f50878ffaf3de41e192653bda545d889": {
        "balance": "0x0",
        "nonce": "1",
        "code": "0x363d3d373d3d3d363d73059ffafdc6ef594230de44f824e2bd0a51ca5ded5af43d82803e903d91602b57fd5bf3"
      },
      "0x20bb8cb4a01637a773811ba45b9afd80171a08c5": {
        "balance": "0x2cdb96c56db040b43",
        "nonce": "1223932"
      },
      "0x8f03f1a3f10c05e7cccf75c1fd10168e06659be7": {
        "balance": "0x38079b28689d40240e",
        "nonce": "44"
      },
      "0xffa397285ce46fb78c588a9e993286aac68c37cd": {
        "balance": "0x0",
        "nonce": "747319",
        "code": "0x608060405234801561001057600080fd5b50600436106100365760003560e01c8063b97a23191461003b578063fb90b3201461006f575b600080fd5b6100436100bd565b604051808273ffffffffffffffffffffffffffffffffffffffff16815260200191505060405180910390f35b6100bb6004803603604081101561008557600080fd5b81019080803573ffffffffffffffffffffffffffffffffffffffff169060200190929190803590602001909291905050506100e1565b005b60008054906101000a900473ffffffffffffffffffffffffffffffffffffffff1681565b60008282604051602001808373ffffffffffffffffffffffffffffffffffffffff1660601b815260140182815260200192505050604051602081830303815290604052805190602001209050600061015960008054906101000a900473ffffffffffffffffffffffffffffffffffffffff168361024d565b90508073ffffffffffffffffffffffffffffffffffffffff166319ab453c856040518263ffffffff1660e01b8152600401808273ffffffffffffffffffffffffffffffffffffffff168152602001915050600060405180830381600087803b1580156101c457600080fd5b505af11580156101d8573d6000803e3d6000fd5b505050507fa35ea2cc726861482a50a162c72aad60965cc64641d419cd4d675036238b52048185604051808373ffffffffffffffffffffffffffffffffffffffff1681526020018273ffffffffffffffffffffffffffffffffffffffff1681526020019250505060405180910390a150505050565b6000808360601b90506040517f3d602d80600a3d3981f3363d3d373d3d3d363d7300000000000000000000000081528160148201527f5af43d82803e903d91602b57fd5bf300000000000000000000000000000000006028820152836037826000f5925050509291505056fea2646970667358221220c87b2492828fdd7dad3175a32a98ff07fc0eedf106536f2eddd9a016971c56a764736f6c63430007050033",
        "storage": {
          "0x0000000000000000000000000000000000000000000000000000000000000000": "0x000000000000000000000000059ffafdc6ef594230de44f824e2bd0a51ca5ded"
        }
      }
    },
    "config": {
      "chainId": 1
    }
  },
  "context": {
    "number": "14707768",
    "timestamp": "1651623279",
    "gasLimit": "30029237",
    "miner": "0x8f03f1a3f10c05e7cccf75c1fd10168e06659be7"
  },
  "input": "0x02f91c86018312acfc80850be516146d830f424094ffa397285ce46fb78c588a9e993286aac68c37cd80b844fb90b3200000000000000000000000002a549b4af9ec39b03142da6dc32221fc390b553300000000000000000000000000000000000000000000000000000000000cb3d5c0b90a2015265e09df48fdbb4d25a903611ab26033165930ce5ee140d3c112ce36b59cfdedb85fbda39a2774265af592a87610fba65391a92ac97ebc0f1b599809d6f56594d4cf93c2d9c5457edc684bc22301385df82a2e714d067966634865e0ec4c4085bdbb066338b0cc4a75302272360bbd4cf3e41b754d30962573adfcc2d0d5c7def9424572703ab38ec77dafa6740aa67892b2447f94b758a1f92a5321ff7e39e588174f941b645be3a34715d49bf38c01fd15e799f8cc52d2675a739be2dff51e8f6d4feb7d04c3662e50286d9a109169d25a860f6564dda751e30d159f995260168d18c16f7797769467391ef30763b62401bdca0a316d25ac41e205bf0663f476a7a3ccde674135469d56cbb7b2e6d66da1b38192f8155d2195289aca181c956054810115c4e4766dc5cfb5cac05a7e0d654ff700fedf4e6bc6ba4400fe8a43bdb1139ee7ecacefe1be802455465c6c3f77355cf08b64ac5f6bd0032ba011a77434a21690a769e48dfa379726c757f6b64fc39e454ada5a88b17dfde181caa1f9d7cfce81c351ebe8c45a42ed53bf8ef75d3cf79ee01b7c1144becc69f11eb0e7a8c0f602f1c3d8534c5b36d17f05652d022dd67eac322964e2b6e09f07229a93ceaf5674426091a54e59ab18a6f6003a4a65bde2ad781e2b06ccfafdf62a75579cf3b34511a9bcdb8a0e4a593e8ba6e968412400d5b0bd7288983c463b16a37a3afd2691136fa59613fe5d52fa105be06e22feed475b76adeb7a735b2df574944f0cd82257bf240d5fd098b6baeed96d5d414ad2a2401f540dff4577c1c29548e66f3253b0c41173a9ba144bbef9315db6f992d87af3f392f69dea657ca569271e0b725e970edab865a0c33f3270ffd50359fd357955e00bb97619481409d5f018b719990e425e8678315146d77ede6c293f47e45cc595dacc9fe9a0f2d293113f512f179598ce4b29494701d92481d2cec8ae2f257d97049bdd8d577e810dcaecf24e884f8691d8076d42ed3c3c42b286237f9194a169b6383a332eb13347c7dd65818224703ce3e16d6b1822e47110642fb5b3b0a4784ffdb5bae7b3388fb84aed2d89e6221fa59c358ec4d936951598e22afa74dfbea412952f6e27f1f79a2e4cc76262e0a44bee442fedceb9dd0faaea099c6c1474abd9f80f9de17d5b6278dbedd89386c8bde061fd482b9761d31fd1c9e7cf5433d7e6b864e994e3ed94fbba4e4fe6fd3e92dec5b2d620747663991597c3e49d93698ae779660bb1df45e8ae0ddfb06312ebe9daa299cd0773d5d16b6ba94af05f833d6bb101311a13c9808d58aaa724af619ba59379e40eff798b09bdd5e9b8cea075ce2d8ee1666d2665f403677db0a8382081a0684d7adbed12a404dc34875d8eae71c6f6f2fa3d94302a6f4840fa257ccdfb8672dc845b3ad593ba5e7d0b72947cffda3a3f6ebe89abb1d147e2dc859b3fa2166b579a679b2735e4dc432bbacfa452252772c590195704b1fcd02942a32ef3909160e5bf2dd2054c955106ab070e082e5e844c86a4fc20292a132b4f2250a0bddfd047bfc0b1e93132c69f5185f5ee3f0cd5f8e866442d46be5237feb03aa4b54fb42cc7fb6b0260b345bccd472b009bb07c1139e3d35c69b1095ce24b9d33f70c705c1361d46e637666ac9b17473443768a362779b6b5fbc2ffdb4d420df56fe5662dccc8ee278531557441e4ad3d577a70c9b4ea5ced34eb08f617890a204495a05cd8190f4847c62cfae725d37a62daf6bf0f4bb87a520a0e686ff79e8c0b2a11cf54f0ee2576d9ab2cdedcb2d85040e0000ea95cf5268cdbd9bc86c3e28deb26e3611dfa12149d5afb986a8d96cffa22770ad1efdebd5a757bfff8f8fd83977d6ae71c381ee732d82ca0c2964898e3da0673608979d833c4a4c4a92dd844066fb19d9465f4bf70218a47146c8802dff58391c0a3bc721d8439d64ad9458e84812a6caf6cef0b07f1cf349f13859707da283c4b2da06f7e247388a0b6685091a544d9e541bec8c598f5351db9bdc978f063d70696761a58afffd11bf13ccf08ce8807564200c12fa04f7f090ea7173f69fe300b9c6f914ed8dbf63f83795eb4583ea2ede0f13461b030ba056df1b36e88940f33bb90c7267db29c1986f11d51b5e49965fb7ad3a62f1506d846ccedf4569f420bedd105b34c9cdc783a83a36d2e3d18fb95152b774b7d3d0aecae804f74b946d6fb3b07ed8fa3339f92546454cca532e8b2e8ca69dbb09cd96323ffc0f4fd3cb93a46a62c88577ef6bc53708e80a89fe44518029c70c6bfdab0dbf003c8f0d211c3e209f89b30c793c1ebaf007b790bc58a1d15574fbf082bcbd96ad9c345b2bd1346d9eaf8e488dcbbc521a9092fd17a2ad60c030bdd6351532067ffe09966d4c2b605c6b19a8bf64df0b3419435f9951c0a36cf0ecfd6eedf35619bb5f043520816a5acc437a65ef73b11d0c483dfa7261d931e53cc64bff10ddfba260b0d622c3bd38ed43625b453865f33052ce555d536d75edb676012d5497e073818fabb42b996613612231ed8c577b24a608d5216106d3f30db46c3b2c1f0d6f3730e56e198751237c52171e676792f14dc9981b14c8a6de932e5791611fbdef680d6975bc81b64e2da9769910dcc79fe8c375586cee6dd5343c43db5908b9809ae820fbf9f303bb0bc790da3e09f4e69eccb009cf98a65b7e2a18123f8a2f7dc925c12cb2241d7527944a11b3c9d39fa56f086bd437d46cbdf72790f2dfa1033aed92cfc608627e14cbbde7d5791efa693f22c67781e7efe71d30a147f455c884c9cff8170c392412a99c56866494a1b8d8f3cb93ece6cad05b9b267ffa185232853e57e646d0c8c25a47547a28f58aff90da4ba3404df064158caebd49547cbf048ed6b1e8e72b8516ddae8fff83fccf2599a93b46a1ceacd7b5841a882be7e56f6128a6d50ee7f89c8ed259f31dc3468f4f18b5a852080fc238f7a6586c44ccfa1837929c011c83d1ddf906256e03414d97ae5c85c1c2e939b7d02487efc7efca7ec35f044772ed3df56228f2c50461927e9149350849336213cd602941069119556237bd144f1fb8be57a29c602297c5cf111c2eb246106a30bdb5b4e043beabdb59ad494ee1385b132f6e8a44f9f2334c6e9f7f4d626c9ac7595a3e8bec665af3259313020c4ee2a8c446e01b5dc780cac22555ee2612c176edfa6825248ea7985ad7b418ae7bf7ef43f1e538d9dcde0510ef36ce7dee4088df43e4133ca23af19c03e02834bb6aff29aca247c615a552a3d60873985a6227f6d5759ac6560598adac9ce987a5609bc1bc9f81ae1699f6a2fcc902235c33244f9bc67c7731a0ea3936dfe095c6b94755a29b987186d40d2d360ae4432f82ec5e9b8d2ac2e35d50c1d309c658d81ecc965cec0dcc4d5f8625b6f5e5e59cdf485f654f56d4401d3867f2df215769052c1f5b57a604b370583e514b0df7c1a14b48442ada890014a6d4defc5f01e70fcfcd4dd6bda05955ad4bc9f9f46db91bedf2f44abf31149cff76046e3cfdadff7f34063eead986cfbf1ff6d3e56fe3a5af33cea69d6929b97f946ce8a6acdbb966b2afa1ac3de597574ccd589c510861516f371c0d0b85187b49fe45b518c78846ecdad72d3b4249301bc30a1e81c34c459e06171cf52d7b911f3c124e7c8737c5ef5399f838c5f96af9f58cdcd39fa7e3a7b58866fcd9431bdfe7006953c1cf94d28224f31cfc08239988afb8899f860419f909fbbbbff210b9e33080bda85a967ca7b07e1dff5fb0eba3484eb824a817a14fc4a4c1c49ac3efa788ad39b3f4102387993af6e83ad15e4263e3feae3f1a999386d17da833476c795560602c5becd2865e734ccff3940fd0e03f4eec10c5e24fcdcf5ab7089306305e97b4001b54a6179be9b6ed1da50ec54ef2fd3b751c0960ac12ac9072619b0638f514c4b80a6738efa24e3d48e77dc58bcd94e215a9152dfd12c918fdc53f49b9545b95c84a1c9921d6c5487457ed9a41d6a206489e6477b454abad96fe492364d249a93247f69e68c6f6251c62f54585368a467b3644a1f6f7d3a4ee84175b7e7790af0a040a953fb827616e5a28d87c93af848ebd6671ecc4dca913e0724f0e6bd7d9b562995ebeaa370ae38e1f56a9cd213001a825995d2503fdfe0fbaad4d6361be596008b081243e51387ade60f37a5d8c7743c36e65c27fe4b622bcc94018bfa188a62e13e5b847bb57a27c8a100aed110e3d97df02b7bfa00989f2e048c909e3fccb3300a9519346ecb0b03e48d1d90c6b37373cb6c73d742bfd6bb45341fabfbac8cfb5c6673f594c7d4c9d26c82076067d726b4732fe79e42ea6deeb5b660399960ef2883486be3e1984855a89925e443577997b464ac3aeada4046f685ef7982e94700fdd7dee48eae4c783055a84cb9552a90c514ed7bede31ea2ca7ab4bb3fe9785c71b2b1daec3ef1aceb3cd33abe84bf52c88f8a7b9fa2e983bd4c1181ee7358f394ac28616d4ac0a4cbe7fa55202b796699689edf09d51ad46afc9004f08bbd10317801f358bd9519c5fdcb2e623fb5f0ee728fe96567b4fc6949962f4d48bdb90ba979908b2a46dbd5a3f7b15f90c20ad48682f5f79c5055e1b1349b71059571cb3eb72ec485527d6b518b0d11fb1f7e45ff947834a30722e3a797605320ce6f923b448eab718f54a2923af072d9901a7caf92eff3553d1884906769c87c8b509b57a9ce420a6bedeb425d85356000b730b753781db3f277ab74f5352d10e139232459496968886f21982c418f4af4c620a7076e7224f1e96a4ad6e503c66bc878d0a7e41a19d9cfae0d216824e68f273069bc662741bba1c70ad7f49928ed5ef14ddb532a4b3077f8e7d703beab720bc73a8f6be69625788b9c49d55cb177102408706eb2c7d71b6e341a9fb1be32757fdbfc6c4c69044f57af8958f1b4a94def8f98dbd1edd398860f532c08e5756188b27230b430906ff84d2a9de51a8ac3dd7dcca1592ee4aa8c9048b769082726017220a5c016ff296765082a92c164149fdd2ccc61b01042101bfbef1e83032eb29f1dc7f323390f60a8018d6d0330b531a57a941bcd68200de49bc06df2a835103808a1ba572c6ecbe4eabf397afba88ff55d237ea3c2bf0f917d6921e9a020333e2979557115adb30ea65701135a92c437ad3174bb22dd484ea2ac9c7a32f274ab0e91051b5a4735cc64aa2303ebaf88b27d4b9d4611644b7260bfa21b7c834c5f0110ccc318556026c37a3242b82b3a6f74764303aa8ea4b79d762a0aa3145faa92a5b137ca55f090dac1082163e50a8d707cf4a7b81fda3d1dab621a96a1972f71501977b3570be8196991f9f65eb4faca360f7c35c38fd6f963e998160cefeae4ab97688baa918c913e11f80233f331289194c036d058d593b4d81e3dc78042286dfcb03cb4406e84a4abc49ebd70aee7b53bc13c4e1a3204aad24d330fd4af14fa4f363715639b9e202e8df202f4780fb1c75d27c6f6b9ba02b677cc4ef783caded7f29602c48b39d728f5f38ab6183e9396b2772bbe838a74af37bf54ade93cec5bb643fa0d0cd3ad841c2e17a3d1f9f016b38f069c2f0c3457abe60f9f5bb5b39f54dda5b6aef48f407748da1c56023ecece7f4348900789fb04d756a9c508216dad91ddf5de7cfdfe4964ff9c061b731749f30256e7a750c7fbf052707829600f7c33f322df800b121bf595fc4e0c44cffcf5f75f2dd2799fdd1f282d6b5e8d89724d179b38c31f18515ad4fd64da29fbe28766f8d98a148bf6c0784f060e04757352a864028118044219baf7ba245b18b163581e664e2c4208979b0f9f7f17f6fa6e1ebd8a75566e50cfc2302d6fcd705161750b5424cb14599071381c001fda87fd0ffcf5e9d9caeafbe1a38b46e6b65a3bf5deee152ecea2155dc5ab6278b6302cf9cc112a47509b98bff1e0c5c373a5c13ec4ea431fe67bb173568bf8eaec55a9dfedae4d5e517f373c73446542dbf236049f58b1c68439f2e5744fea795c19cb6d289b56ff40cfbf11c936de80d473e226d58ba900164de231d6d100c6fba281d6edf0b0809c5adbf44454ab5a40f02f24007d537449459b199d9fe4e362ed26761aa2fb7570d5f8b9d5df763e825523255868b7e1a2a4519d4893b56a1a84888574e7f01e80bf12340932eb8592c657e7a55bdddbaf92d54d3e59c6a56fdebc31fff0c412633092ee4c849f7dc942d18250a4e4cdb4b62979d48767d78880e60b7a986385d5cce48a01eaad5224c32c35cf649f0d13048c6d5db7bcb753f8bf8d8822bb16c30c87802df81c420ace5ef0329f73b2ad46afd03ac89ea69952b7ffee3059ef5d0044806217062bc1f341aae4f33d81fe26cd53104db2d35c5ba7c51fda1850ca15fca7a5b4db98e88073440411b53b52be21eca2eb6d3ad8248f03c488c55f03bbcdc0ff1d4bcc64f6c6924b4d5899c88e373ecd51fe8816c2b9043c097614082581baedd16ababea3cc12de9ec96fa6fe6e4383b0d83328a8c395c8199b20c565376bff9a6535677b2c5c40dab919c2ebe053a3ebeb6686e6f0e1b38adb954456bb2854611c5088a69a28879bfdba3b7549b359f13948cdaa46ce4c76ee8393d8fba293cef884a07192ea3da3e2d88a35e2bce0567643ad69439f0d4f62adcef671cb526ac895ead1ee76fac659f6b1674900796bb7415d81ddfc569c1c2110806dfd8bb0e708d120b05789d06f432f5cf68669e14ea5c2e92652aee9a85e866a4f7bcbac02b2aaf5ee21ad18a8a6dc1146c02bae83eee120c5240669607eb652b2c555ecca75ea2b2702c3a6b423d6d6f4d27be459698b864296455c33a6edd8a216a0debf566d0c49a401a91dc20e4646c419130f357e5be876fdf4f0dbcf5b006a99289270515f5f64766b6a4ccf8806c6f6e3551077386097286fdf12bafa996f7b330f4320d99dbce7524aa9c54cbc88fe6833bdb6a256843c39aa69a51ab0c611dc72cfe7bce9d9a76083a80761f68b6bae1bcd9002424bcdeaadeb56313a022b83097bd1fe861d5cc96f073f60d1094129d5c865825eccb445be8348b7f47641cf12acb034fb777eb715717dcabcb13ebb1502d09197f85e41f9b495ed270fe247fadfb158810278fda657ed80553f4fcf3df7db9abfc301641a3330c1d19d6fc62618dde7deea6cef5e8e7bc4e9ab5194b2c5d5c7ad80dbe68e3b843b3770eefc4413e2c891d8b1aa087f5e405c43b5496ab85110bdf5bf0ee71472234c36c50d302ffbd1ce32f774cee50ee654b1a7db8e02a8859b4d58598a5f6aa929606afc697c615fc43f43567b85315575a6c0b28fb8cdc122bbdc4a866bd9b25dcb606d552b96679b947e0a579f81a36209fce4c80bd0d5c291f771553f06cf63c0b297d4d7fe11ef428f4d3c24c796eee461d4fceeeada31631e903ac9d5bdbbe0ba3d116323ee785485f033be8967c569f8e51d1db83279103819899da6775b1ed15629f2fbf2dd67a5d653dee7b4d3caac89f26ec013e83393e6ee5f933ebed3fa0e43150e4e2a038cf0324958d91082021dad768cd12362e01d255e550645a1f1bb8f21d14075f5812f60726b66531dd7c04f1c27ff03e60110521bf5b9aa2f4636655712a15debb49bad8c5b8c4a6d571edbf105224adf5643f2bc3abef2c0d107b4cbd79f66ce0507784b3b78adeb92e494608fbc2838c94735a3e18857eba4b5274162e4e7139a7c20ed1ab068fe887c1a6ab7f6f408d5f2bb8c6386c8895e37abc1d7b1d64f60e8f8bd384ee3e9777dcda593b2af6996896e624c7cd489c8ebd292b95100aa1ddbfa94cd22458df0b2e7e26e4654db8031cd0e69730a14df589e05d5126c1ce8b75d896f6a1ab6cc1ab1d5360a44d47a6a56342d812d90440f8bea28b30efbd1a419640492a345b5813ec21057bc00a0031fc28931cfb338948d173a85f6f3468d2bffc6e1dae2334d26c3937da9cc4a3f95a8a62ae14c0fbb04033c0bdb4d4a844d05b85f51a1eba48160e5c1f79c32f7487b943b179dda5495b0cddf1c552a3a32308f2c48686d0f2896f3e1f4446e6c78349654d29fdd861189dda6ff10aeb3f2e2c87c4c3fb2e124c2c9228e2ac4278c97e57cc7567b1486b428a2cbf40a64d8d0dde2ac4ee8b3737c4e7a8813d4aff9d001396f732b22d2b0e5e70c9bbc74776957d54286687f5a30eb071ea42e818f4bfa7ecb21cedba880e94963953c64e3966b6fd1e8c354b51b99e29fac0caed1d13cf9e67017006bcf086ce08a06037af7b2d77499ff78dcddcee604d6aed81d91928249617718de77d68465931838e255bfb55f99e208049d8e4602e8e674776a93b5a414a370d0bfac19bfea3e106bf278207c502ee60be5702365aa51a93585a7a4abc8bc3aaf98812046b96b6d8ed9a31f4dcb3fce924a2cb5418340659f98d0297e8124779fa175520f946b7b4c75f01ddf8ac1e9c8c11652c6eaca1b686dd0fb21affa61d09b2bed197005144e7e85e832596c8d4c1f06552b267ff016669af7e475f8b4a65322ad6508958a7a5333d4fd207abd33200acc78c0cac9eb240e8a453c3b6594cf4d6f98ef7b3a70b83a486fd3bc56d295001ebc2bd602a152672262d2685e2f48d3fd178d01d0136e2f61c5b2e0fbe42c18499b84abc5ef2ad5ef2504b98cb539c939c8ead8a4fe4ac2dc031abcb7a20349c371a0efc5c0ded9965748e12ccaca2b34584ae3297021460fc8f75ba863382b5308a9f1e72726c608f94d08a4b68534c211571de838001808dbc427bedda434ad0c1e0c03f591d78336915022f935a9b272eeb6661950303d320614b790e8ccf3b515320774a86275bba0891a4afe6a4217d1010c7c9b5b543bbdbbc331ba59609fa04930447a5c0c119314cc23047b632be52fec9ab1eea3855ff31def46a42f1a6c060177f7a064d472995088f28c7fd9b43bb54636321bea627e5e2c660cf493d9e78f684cd23af9770048b90f917e82b3b79327722f0424d4ed02bd6266de4fd432913215cb7ddcfe3d2c8e5871e3fde923fbdae21732186d89a2d106026fcca743373084dd4986898fc2dc93495714cd763aea872b7b28a82c5f36c6b172a142e969cee1c1bb87b1d839f04a4d15895d2676567879a428b258dd7cb9108784ef393ba28d97b7ad6b104c46a3a9c8ed6bb21aecccfcd4c10c0873ed29ebb3164d1dc8a1e86a93685d95118eea41463fd1101d39b7111e9b88241750c07fafa0179a7429b943f11dd22a7e702f28eb10f0eaeb278f890b814b9d06770267bcdccb8527394eda014849511d728f6119ca2dbce3498133fc6170c0084dbf0a1eb8dfc304e4ff91c9393aa04c208c5735db4686dd37a5cffbdb251fb89aa87200c82ac054ad52f73851cbec1e30c11e26b9e462e116ab8aed7167048b1401233207447a3d9f58ed1a293303990b264a9016ca33589a01c18f81327b444dc28cb698f2db0f15284dd889aea9f2edec0567d2006b2048d39e79326623d1ef3290d55dcfecac9480e073d43ea9e88de5a00254de89a3f34f73ba87f47712daf01491fafafe590121fc317c39fd53c33707f786f7b01552877daeb27299aeecb74ebd25a7ab53b9bc47ba0b2a2569eb9c33eb9177c710c7394f2b31aadbe276fff10f8b1eeb5ee4f0d12f34e0cf7d0f0b4e9ce1d6282b2de68a1d9ec0d82e0304f4bbf46e2321854df5ae2dc3fa4d3688bd6e24e22d944ae9de8428ba52920ed8dd3fafb7e86f36a709fae3881819a68ade9bc793cdc8e80b64b731b789360588dcd9640a107a6c047e9e4b48d5b0c6b2c77b1a79abb64aa2b406e2615ae197c648d9490c53ac0f07161d4e6fb62d4cc4e1aaffd8073a7a84928a2e6ebf29c7e2fd6e44fccf85f93a1cb2157d6b6f64d4189e3d70ae85d3dfc72c4cb93eecbcd9f4dcbcf2779d1bf7d8d28eee92c61ec0e38fdb90fb2077af919a47f1d7f8613425933345084db847e95f376568395ba4a8b3f61706057a92e2440c736ae3337d267e87142ab0bba610c292f4894c1eba61093af92e8c7a7fc874b44cb830521615186b021a576d84d6def4feff233b4a5674a0c2f0fd01070b11192d424354ac0221949dec30648087c5d7f1f50a26273592a2c1ddf3177c080c15313b797f9fa5abbbccd4f000000000000000000a131d222a333543",
  "tracerConfig": {
    "diffMode": true
  },
  "result": {
    "pre": {
      "0x20bb8cb4a01637a773811ba45b9afd80171a08c5": {
        "balance": "0x2cdb96c56db040b43",
        "nonce": 1223932
      }
    },
    "post": {
      "0x20bb8cb4a01637a773811ba45b9afd80171a08c5": {
        "balance": "0x2cd06186bbdad4cbe",
        "nonce": 1223933
      }
    }
  }
}
