{
  "genesis": {
    "extraData": "0xd783010202844765746887676f312e342e32856c696e7578",
    "gasLimit": "3141592",
    "hash": "0x2004021ae3545cf8abba1ec97a7e401157cee9e847131e2f4c75ce38610040cc",
    "miner": "0x52bc44d5378309ee2abf1539bf71de1b7d7be3b5",
    "mixHash": "0x651f01d13fb801c602e1544ab80b3bc32888ea40ef298efa52ec3df983b558ee",
    "nonce": "0xdf23f0da925518a6",
    "number": "422908",
    "stateRoot": "0xd914c6440edf9f4a6f997a9b3ecb6e1a9ca2310f74b0b6890c0d0d4a3c28e4d3",
    "timestamp": "1445530335",
    "baseFeePerGas": "0x3b9aca00",
    "alloc": {
      "0x2861bf89b6c640c79040d357c1e9513693ef5d3f": {
        "balance": "0x0",
        "code": "0x606060405236156100825760e060020a600035046312055e8f8114610084578063185061da146100b157806322beb9b9146100d5578063245a03ec146101865780633fa4f245146102a657806341c0e1b5146102af578063890eba68146102cb578063b29f0835146102de578063d6b4485914610308578063dd012a15146103b9575b005b6001805474ff0000000000000000000000000000000000000000191660a060020a60043502179055610082565b6100826001805475ff00000000000000000000000000000000000000000019169055565b61008260043560015460e060020a6352afbc3302606090815230600160a060020a039081166064527fb29f0835000000000000000000000000000000000000000000000000000000006084527fc5d2460186f7233c927e7db2dcc703c0e500b653ca82273b7bfad8045d85a47060a45243840160c490815260ff60a060020a85041660e452600061010481905291909316926352afbc339261012492918183876161da5a03f1156100025750505050565b6100826004356024356001547fb0f07e440000000000000000000000000000000000000000000000000000000060609081526064839052600160a060020a039091169063b0f07e449060849060009060248183876161da5a03f150604080516001547f73657449742875696e74323536290000000000000000000000000000000000008252825191829003600e018220878352835192839003602001832060e060020a6352afbc33028452600160a060020a03308116600486015260e060020a9283900490920260248501526044840152438901606484015260a060020a820460ff1694830194909452600060a483018190529251931694506352afbc33935060c48181019391829003018183876161da5a03f115610002575050505050565b6103c460025481565b61008260005433600160a060020a039081169116146103ce575b565b6103c460015460a860020a900460ff1681565b6100826001805475ff000000000000000000000000000000000000000000191660a860020a179055565b61008260043560015460e060020a6352afbc3302606090815230600160a060020a039081166064527f185061da000000000000000000000000000000000000000000000000000000006084527fc5d2460186f7233c927e7db2dcc703c0e500b653ca82273b7bfad8045d85a47060a45243840160c490815260ff60a060020a85041660e452600061010481905291909316926352afbc339261012492918183876161da5a03f1156100025750505050565b600435600255610082565b6060908152602090f35b6001547f6ff96d17000000000000000000000000000000000000000000000000000000006060908152600160a060020a0330811660645290911690632e1a7d4d908290636ff96d17906084906020906024816000876161da5a03f1156100025750506040805180517f2e1a7d4d0000000000000000000000000000000000000000000000000000000082526004820152905160248281019350600092829003018183876161da5a03f115610002575050600054600160a060020a03169050ff",
        "storage": {
          "0x0000000000000000000000000000000000000000000000000000000000000000": "0x00000000000000000000000020bb8cb4a01637a773811ba45b9afd80171a08c5",
          "0x0000000000000000000000000000000000000000000000000000000000000001": "0x0000000000000000000000ff30c9e568f133adce1f1ea91e189613223fc461b9"
        }
      },
      "0x2a65aca4d5fc5b5c859090a6c34d164135398226": {
        "balance": "0x326601cc6cf364f6b9",
        "nonce": "12122",
        "code": "0x"
      },
      "0x30c9e568f133adce1f1ea91e189613223fc461b9": {
        "balance": "0x8b83c417dd78000",
        "nonce": "2",
        "code": "0x606060405236156102ea5760e060020a6000350463022bc71f81146102f757806303d6d7b61461037f578063086ae9e4146103ec57806309c975df146104595780631145a20f146104c657806312d67c5f146104e75780631302188c146104f15780631ae460e5146104fc57806323306ed614610573578063234917d4146105ca57806329917954146106375780632a472ae81461071d5780632e1a7d4d1461078a578063306b031d1461087f57806333613cbe1461089d57806334c19b93146108c257806335b281531461092f5780633664a0ea146109b85780633c941423146109c35780633cbfed7414610a3b57806350a3bd3914610a4957806352afbc3314610a735780635539d40014610c2a5780635a5383ac14610c3e57806360b831e514610cb55780636164947214610d7f578063685c234a14610d8a5780636ffc089614610de0578063741b3c3914610e4d5780637542861514610ed25780637772a38014610f5557806377b19cd514610ff057806378bc64601461105d5780638b37e656146110ca5780638baced64146111375780638dd5e298146111b157806393423e9c146111de57806394d2b21b1461120257806394f3f81d1461121657806398e00e54146112665780639f927be7146112bc578063a502aae81461136a578063a6c01cfd146113e8578063a9743c68146113fa578063aa4cc01f14611467578063b010d94a146114d4578063b0171fa41461154e578063b0ac4c8c146115cc578063b0f07e4414611635578063b35594601461171c578063c0f6885914611739578063c3daab961461178f578063c630f92b146117bb578063c831391d146117e5578063cd062734146117f0578063d0e30db01461185d578063db681e5414611865578063e40986551461190c578063e850f3ae14611979578063ed2b8e0b146119e6578063f340fa01146119f1578063f828c3fa14611ae8578063f8b1185314611b07578063f9f447eb14611b24578063fc30052214611b91578063fcf3691814611bfe575b6112645b611c86336119f8565b611c88600435604080517fc4144b260000000000000000000000000000000000000000000000000000000081526010600482015260248101839052905160009173ce642b6a82e72147ceade0e72c786ba8eaeb31d79163c4144b26916044818101926020929091908290030181878760325a03f2156100025750506040515191506108989050565b611c8860043560007327b1b436e4699a012cc8698e33c8f3e1c035c28b637d613b346000600050846040518360e060020a028152600401808381526020018281526020019250505060206040518083038160008760325a03f2156100025750506040515191506108989050565b611c8860043560007327b1b436e4699a012cc8698e33c8f3e1c035c28b63da40fd616000600050846040518360e060020a028152600401808381526020018281526020019250505060206040518083038160008760325a03f2156100025750506040515191506108989050565b611c9a60043560007327b1b436e4699a012cc8698e33c8f3e1c035c28b63c68efc486000600050846040518360e060020a028152600401808381526020018281526020019250505060206040518083038160008760325a03f2156100025750506040515191506108989050565b61126460043560243560443560643560843561200185858585856000610a89565b611c886004545b90565b611c886005546104ee565b611c886040805160e160020a6333f8a36702815260066004820152600160a060020a0333166024820152905160009173c895c144d0b0f88417cf9e14e03e6abc82c0af3f916367f146ce916044818101926020929091908290030181878760325a03f2156100025750506040515191506104ee9050565b611c885b60007327b1b436e4699a012cc8698e33c8f3e1c035c28b6323306ed66040518160e060020a02815260040180905060206040518083038160008760325a03f2156100025750506040515191506104ee9050565b611c8860043560007327b1b436e4699a012cc8698e33c8f3e1c035c28b63e99a66856000600050846040518360e060020a028152600401808381526020018281526020019250505060206040518083038160008760325a03f2156100025750506040515191506108989050565b611264604080517f317c152d00000000000000000000000000000000000000000000000000000000815260066004820152600160a060020a0333166024820152905160009173c895c144d0b0f88417cf9e14e03e6abc82c0af3f9163317c152d916044818101926020929091908290030181878760325a03f2156100025750506040805180517ff1173928000000000000000000000000000000000000000000000000000000008252600160a060020a0333166004830152602482018190529151919363f1173928926044838101938290030181838760325a03f2156100025750505050565b611c8860043560007327b1b436e4699a012cc8698e33c8f3e1c035c28b63707378396000600050846040518360e060020a028152600401808381526020018281526020019250505060206040518083038160008760325a03f2156100025750506040515191506108989050565b611264600435604080517fb5bc6dbb00000000000000000000000000000000000000000000000000000000815260126004820152600160a060020a033316602482015260448101839052905173d3cb18959b0435864ff33010fa83be60afc04b229163b5bc6dbb916064828101926020929190829003018160008760325a03f21561000257505060405151159050611d255773d3cb18959b0435864ff33010fa83be60afc04b22637fcf532c33836040518360e060020a0281526004018083600160a060020a031681526020018281526020019250505060006040518083038160008760325a03f21561000257505050611ae5565b611c886004356000818152600e60205260409020600201545b919050565b611c886004355b600160a060020a0381166000908152600f6020526040902054610898565b611c8860043560007327b1b436e4699a012cc8698e33c8f3e1c035c28b63fc4730126000600050846040518360e060020a028152600401808381526020018281526020019250505060206040518083038160008760325a03f2156100025750506040515191506108989050565b611264600435604080517fa95d3e76000000000000000000000000000000000000000000000000000000008152600060048201819052600160a060020a0384811660248401523316604483015291517327b1b436e4699a012cc8698e33c8f3e1c035c28b9263a95d3e7692606481810193918290030181838760325a03f2156100025750505050565b611c886002546104ee565b611c9a60043560243560007327b1b436e4699a012cc8698e33c8f3e1c035c28b6398213db6600060005085856040518460e060020a02815260040180848152602001838152602001828152602001935050505060206040518083038160008760325a03f215610002575050604051519150610dda9050565b611c886000611e0a336108a4565b611264600073c895c144d0b0f88417cf9e14e03e6abc82c0af3f635748147e600633611ec2610577565b61126460043560243560443560643560843560a4355b604080517ff1924efb000000000000000000000000000000000000000000000000000000008152600060048201819052600160a060020a03338116602484015289166044830152606482018890526084820187905260a4820186905260ff851660c483015260e48201849052915182917327b1b436e4699a012cc8698e33c8f3e1c035c28b9163f1924efb91610104818101926020929091908290030181878760325a03f2156100025750506040805180517f5a1230bf000000000000000000000000000000000000000000000000000000008252600160a060020a0333811660048401528c166024830152604482018b9052606482018a90526084820189905260ff881660a483015260c482018790529151919450635a1230bf9160e48083019260209291908290030181878760325a03f215610002575050604051519183149050612008577327b1b436e4699a012cc8698e33c8f3e1c035c28b6318b753ab82846040518360e060020a028152600401808381526020018281526020019250505060006040518083038160008760325a03f21561000257505050612056565b611c9a600154600160a060020a03166104ee565b611c886040805160e560020a6304b47bb902815260066004820152600160a060020a0333166024820152905160009173c895c144d0b0f88417cf9e14e03e6abc82c0af3f9163968f7720916044818101926020929091908290030181878760325a03f2156100025750506040515191506104ee9050565b6112646004357327b1b436e4699a012cc8698e33c8f3e1c035c28b637e853f3d600060005083336040518460e060020a0281526004018084815260200183815260200182600160a060020a03168152602001935050505060206040518083038160008760325a03f21561000257505060405151159050611ae5577327b1b436e4699a012cc8698e33c8f3e1c035c28b63ab2af349826040518260e060020a0281526004018082815260200191505060006040518083038160008760325a03f2156100025750505050565b611c886008546104ee565b611c88600435602435604080516c01000000000000000000000000600160a060020a03858116820283528416026014820152815160289181900391909101902060009081526015602052205460ff165b92915050565b611c8860043560007327b1b436e4699a012cc8698e33c8f3e1c035c28b63b506054f6000600050846040518360e060020a028152600401808381526020018281526020019250505060206040518083038160008760325a03f2156100025750506040515191506108989050565b611264604080517f068e3ef100000000000000000000000000000000000000000000000000000000815260066004820152600160a060020a0333166024820152346044820152905173c895c144d0b0f88417cf9e14e03e6abc82c0af3f9163068e3ef19160648281019260009291908290030181838760325a03f21561000257505050565b611cb76004356040805160208181018352600080835284815260138252838120600d0154815260148252835190849020805460026001821615610100026000190190911604601f81018490048402830184019095528482529293909291830182828015611fb85780601f10611f8d57610100808354040283529160200191611fb8565b611c886004356024355b604080517fa163a32500000000000000000000000000000000000000000000000000000000815260066004820152600160a060020a038416602482015260448101839052905160009173c895c144d0b0f88417cf9e14e03e6abc82c0af3f9163a163a325916064818101926020929091908290030181878760325a03f215610002575050604051519150610dda9050565b611c8860043560007327b1b436e4699a012cc8698e33c8f3e1c035c28b63775f20f96000600050846040518360e060020a028152600401808381526020018281526020019250505060206040518083038160008760325a03f2156100025750506040515191506108989050565b611c8860043560007327b1b436e4699a012cc8698e33c8f3e1c035c28b637517a7c96000600050846040518360e060020a028152600401808381526020018281526020019250505060206040518083038160008760325a03f2156100025750506040515191506108989050565b611c9a60043560007327b1b436e4699a012cc8698e33c8f3e1c035c28b63250687836000600050846040518360e060020a028152600401808381526020018281526020019250505060206040518083038160008760325a03f2156100025750506040515191506108989050565b611c886004356040805160e160020a6333f8a36702815260066004820152600160a060020a0383166024820152905160009173c895c144d0b0f88417cf9e14e03e6abc82c0af3f916367f146ce916044818101926020929091908290030181878760325a03f2156100025750506040515191506108989050565b611c88600435600073c895c144d0b0f88417cf9e14e03e6abc82c0af3f6354e37911600684611e6d610577565b611c88600435600160a060020a038116600090815260126020526040902054610898565b611c9a600054600160a060020a03166104ee565b604080516c01000000000000000000000000600435600160a060020a0390811682028352331602601482015281516028918190039190910190206000908152601560205220805460ff191690555b005b611c8860007327b1b436e4699a012cc8698e33c8f3e1c035c28b6398e00e546040518160e060020a02815260040180905060206040518083038160008760325a03f2156100025750506040515191506104ee9050565b611c88600435604080517fe6ce3a6a000000000000000000000000000000000000000000000000000000008152601060048201527f3e3d000000000000000000000000000000000000000000000000000000000000602482015260448101839052905160009173ce642b6a82e72147ceade0e72c786ba8eaeb31d79163e6ce3a6a916064818101926020929091908290030181878760325a03f2156100025750506040515191506108989050565b611c88604080517f8f00e61a00000000000000000000000000000000000000000000000000000000815260066004820152905160009173c895c144d0b0f88417cf9e14e03e6abc82c0af3f91638f00e61a916024818101926020929091908290030181878760325a03f2156100025750506040515191506104ee9050565b611c886004356000611e113383610f5f565b611c8860043560007327b1b436e4699a012cc8698e33c8f3e1c035c28b63dd382dd36000600050846040518360e060020a028152600401808381526020018281526020019250505060206040518083038160008760325a03f2156100025750506040515191506108989050565b611c8860043560007327b1b436e4699a012cc8698e33c8f3e1c035c28b63aebd65476000600050846040518360e060020a028152600401808381526020018281526020019250505060206040518083038160008760325a03f2156100025750506040515191506108989050565b611c886004356040805160e560020a6304b47bb902815260066004820152600160a060020a0383166024820152905160009173c895c144d0b0f88417cf9e14e03e6abc82c0af3f9163968f7720916044818101926020929091908290030181878760325a03f2156100025750506040515191506108989050565b611c88604080517fc75e8f8800000000000000000000000000000000000000000000000000000000815260066004820152905160009173c895c144d0b0f88417cf9e14e03e6abc82c0af3f9163c75e8f88916024818101926020929091908290030181878760325a03f2156100025750506040515191506104ee9050565b611cb760408051602081810183526000825282516003805460026000196001831615610100020190911604601f81018490048402830184019095528482529293909291830182828015611fef5780601f10611fc457610100808354040283529160200191611fef565b611264604080517fa89713750000000000000000000000000000000000000000000000000000000081526000600482018181526024830193845236604484018190527327b1b436e4699a012cc8698e33c8f3e1c035c28b9463a89713759484939190606401848480828437820191505094505050505060006040518083038160008760325a03f215610002575050604080516005547f321f45840000000000000000000000000000000000000000000000000000000082526004820152905163321f4584916024818101926000929091908290030181838760325a03f21561000257505050565b611c886004356000818152600e6020526040902060030154610898565b611c8860007327b1b436e4699a012cc8698e33c8f3e1c035c28b63c0f688596040518160e060020a02815260040180905060206040518083038160008760325a03f2156100025750506040515191506104ee9050565b61126460043573c895c144d0b0f88417cf9e14e03e6abc82c0af3f63dd8abb6c60063384611db7610577565b611c88600073c895c144d0b0f88417cf9e14e03e6abc82c0af3f6354e37911600633611e18610577565b611c886007546104ee565b611c8860043560007327b1b436e4699a012cc8698e33c8f3e1c035c28b63125935846000600050846040518360e060020a028152600401808381526020018281526020019250505060206040518083038160008760325a03f2156100025750506040515191506108989050565b6112646102ee565b611c886004356000818152601360209081526040805181842060038101546004828101547f38f4c9eb0000000000000000000000000000000000000000000000000000000085526006918501919091526024840182905260ff160160448301529151919273c895c144d0b0f88417cf9e14e03e6abc82c0af3f926338f4c9eb9260648181019392918290030181888760325a03f21561000257505060405151949350505050565b611c8860043560007327b1b436e4699a012cc8698e33c8f3e1c035c28b63fae644646000600050846040518360e060020a028152600401808381526020018281526020019250505060206040518083038160008760325a03f2156100025750506040515191506108989050565b611c8860043560007327b1b436e4699a012cc8698e33c8f3e1c035c28b63b3a5e2556000600050846040518360e060020a028152600401808381526020018281526020019250505060206040518083038160008760325a03f2156100025750506040515191506108989050565b611c886006546104ee565b6112646004355b604080517fb1df3d8000000000000000000000000000000000000000000000000000000000815260126004820152600160a060020a0383166024820152346044820152905173d3cb18959b0435864ff33010fa83be60afc04b229163b1df3d80916064828101926020929190829003018160008760325a03f215610002575050604080517f5548c837000000000000000000000000000000000000000000000000000000008152600160a060020a033381166004830152841660248201523460448201529051635548c837916064818101926000929091908290030181838760325a03f215610002575050505b50565b611264600435602435604435606435611ffb8484848460ff6000610a89565b611c886004356000818152600e6020526040902060010154610898565b611c8860043560007327b1b436e4699a012cc8698e33c8f3e1c035c28b63c9abdb7c6000600050846040518360e060020a028152600401808381526020018281526020019250505060206040518083038160008760325a03f2156100025750506040515191506108989050565b611c8860043560007327b1b436e4699a012cc8698e33c8f3e1c035c28b6386b0aac96000600050846040518360e060020a028152600401808381526020018281526020019250505060206040518083038160008760325a03f2156100025750506040515191506108989050565b611264600435604080517f25fea09900000000000000000000000000000000000000000000000000000000815260006004820181905260248201849052600160a060020a033316604483015291517327b1b436e4699a012cc8698e33c8f3e1c035c28b926325fea09992606481810193918290030181838760325a03f2156100025750505050565b565b60408051918252519081900360200190f35b60408051600160a060020a03929092168252519081900360200190f35b60405180806020018281038252838181518152602001915080519060200190808383829060006004602084601f0104600302600f01f150905090810190601f168015611d175780820380516001836020036101000a031916815260200191505b509250505060405180910390f35b600160a060020a0333166000818152601260205260408051818320547f5c54305e00000000000000000000000000000000000000000000000000000000825260048201949094526024810185905260448101939093525173d3cb18959b0435864ff33010fa83be60afc04b2292635c54305e9260648281019391928290030181838760325a03f2156100025750505050565b6040518560e060020a0281526004018085815260200184600160a060020a0316815260200183815260200182815260200194505050505060006040518083038160008760325a03f2156100025750505050565b90506104ee565b9050610898565b6040518460e060020a0281526004018084815260200183600160a060020a03168152602001828152602001935050505060206040518083038160008760325a03f2156100025750506040515191506104ee9050565b6040518460e060020a0281526004018084815260200183600160a060020a03168152602001828152602001935050505060206040518083038160008760325a03f2156100025750506040515191506108989050565b6040518460e060020a0281526004018084815260200183600160a060020a03168152602001828152602001935050505060206040518083038160008760325a03f2156100025750506040805180517f6a704d7b000000000000000000000000000000000000000000000000000000008252600160a060020a033316600483015260248201819052915191935073c895c144d0b0f88417cf9e14e03e6abc82c0af3f9250636a704d7b9160448281019260009291908290030181838760325a03f2156100025750505050565b820191906000526020600020905b815481529060010190602001808311611f9b57829003601f168201915b50505050509050610898565b820191906000526020600020905b815481529060010190602001808311611fd257829003601f168201915b505050505090506104ee565b50505050565b5050505050565b7327b1b436e4699a012cc8698e33c8f3e1c035c28b635ca1bad5826040518260e060020a0281526004018082815260200191505060006040518083038160008760325a03f215610002575050505b505050505050505056",
        "storage": {
          "0x18b039f13c5f33908f0960616cb3e44029c716366508c54d555096d6e1fa5145": "0x00000000000000000000000000000000000000000000000008b83c417dd78000"
        }
      },
      "0xd3cb18959b0435864ff33010fa83be60afc04b22": {
        "balance": "0x0",
        "code": "0x650105e11e10f850606060405236156100695760e060020a60003504635548c837811461006e5780635c54305e146100ca5780636b1039661461011e5780637fcf532c14610152578063b1df3d801461019e578063b5bc6dbb146101b7578063e62af6c1146101ee575b610007565b61022060043560243560443581600160a060020a031683600160a060020a03167f47a08955ce2b7f21ea62ff0024e1ea0ad87430953554a87e6bc65d777f18e639836040518082815260200191505060405180910390a3505050565b61022060043560243560443560408051838152602081018390528151600160a060020a038616927f9b24879829bed3003de08d5c5d7e18dcbb8dc76faebd95cafc5d4dec8c61a3a5928290030190a2505050565b6102206004356024356044355b600160a060020a038216600090815260208490526040902054808201101561023457610007565b610220600435602435604080518281529051600160a060020a038416917fd0c5cf41ee8ebf084ad0bce53de7cbc6e4693d9b53a4019ca36a2f91cdc20b3a919081900360200190a25050565b610222600435602435604435600061025784848461012b565b610222600435602435604435600160a060020a0382166000908152602084905260408120548290106102865761028e8484846101fb565b6102206004356024356044355b600160a060020a03821660009081526020849052604090205481111561026257610007565b005b60408051918252519081900360200190f35b600160a060020a0382166000908152602084905260409020805482019055505050565b5060015b9392505050565b600160a060020a038216600090815260208490526040902080548290039055505050565b50600061025b565b604051600160a060020a03841690600090849082818181858883f19350505050151561025757604051600160a060020a038416908390600081818185876185025a03f19250505015156102575761000756"
      },
      "0x20bb8cb4a01637a773811ba45b9afd80171a08c5": {
        "balance": "0x1ff0509d9d6821e26",
        "nonce": "138",
        "code": "0x"
      }
    },
    "config": {
      "chainId": 1
    }
  },
  "context": {
    "number": "422909",
    "timestamp": "1445530357",
    "gasLimit": "3141592",
    "miner": "0x2a65aca4d5fc5b5c859090a6c34d164135398226"
  },
  "input": "0x02f91c4301818a80850ba43b7400830f4240942861bf89b6c640c79040d357c1e9513693ef5d3f808441c0e1b5c0b90a2015265e09df48fdbb4d25a903611ab26033165930ce5ee140d3c112ce36b59cfdedb85fbda39a2774265af592a87610fba65391a92ac97ebc0f1b599809d6f56594d4cf93c2d9c5457edc684bc22301385df82a2e714d067966634865e0ec4c4085bdbb066338b0cc4a75302272360bbd4cf3e41b754d30962573adfcc2d0d5c7def9424572703ab38ec77dafa6740aa67892b2447f94b758a1f92a5321ff7e39e588174f941b645be3a34715d49bf38c01fd15e799f8cc52d2675a739be2dff51e8f6d4feb7d04c3662e50286d9a109169d25a860f6564dda751e30d159f995260168d18c16f7797769467391ef30763b62401bdca0a316d25ac41e205bf0663f476a7a3ccde674135469d56cbb7b2e6d66da1b38192f8155d2195289aca181c956054810115c4e4766dc5cfb5cac05a7e0d654ff700fedf4e6bc6ba4400fe8a43bdb1139ee7ecacefe1be802455465c6c3f77355cf08b64ac5f6bd0032ba011a77434a21690a769e48dfa379726c757f6b64fc39e454ada5a88b17dfde181caa1f9d7cfce81c351ebe8c45a42ed53bf8ef75d3cf79ee01b7c1144becc69f11eb0e7a8c0f602f1c3d8534c5b36d17f05652d022dd67eac322964e2b6e09f07229a93ceaf5674426091a54e59ab18a6f6003a4a65bde2ad781e2b06ccfafdf62a75579cf3b34511a9bcdb8a0e4a593e8ba6e968412400d5b0bd7288983c463b16a37a3afd2691136fa59613fe5d52fa105be06e22feed475b76adeb7a735b2df574944f0cd82257bf240d5fd098b6baeed96d5d414ad2a2401f540dff4577c1c29548e66f3253b0c41173a9ba144bbef9315db6f992d87af3f392f69dea657ca569271e0b725e970edab865a0c33f3270ffd50359fd357955e00bb97619481409d5f018b719990e425e8678315146d77ede6c293f47e45cc595dacc9fe9a0f2d293113f512f179598ce4b29494701d92481d2cec8ae2f257d97049bdd8d577e810dcaecf24e884f8691d8076d42ed3c3c42b286237f9194a169b6383a332eb13347c7dd65818224703ce3e16d6b1822e47110642fb5b3b0a4784ffdb5bae7b3388fb84aed2d89e6221fa59c358ec4d936951598e22afa74dfbea412952f6e27f1f79a2e4cc76262e0a44bee442fedceb9dd0faaea099c6c1474abd9f80f9de17d5b6278dbedd89386c8bde061fd482b9761d31fd1c9e7cf5433d7e6b864e994e3ed94fbba4e4fe6fd3e92dec5b2d620747663991597c3e49d93698ae779660bb1df45e8ae0ddfb06312ebe9daa299cd0773d5d16b6ba94af05f833d6bb101311a13c9808d58aaa724af619ba59379e40eff798b09bdd5e9b8cea075ce2d8ee1666d2665f403677db0a8382081a0684d7adbed12a404dc34875d8eae71c6f6f2fa3d94302a6f4840fa257ccdfb8672dc845b3ad593ba5e7d0b72947cffda3a3f6ebe89abb1d147e2dc859b3fa2166b579a679b2735e4dc432bbacfa452252772c590195704b1fcd02942a32ef3909160e5bf2dd2054c955106ab070e082e5e844c86a4fc20292a132b4f2250a0bddfd047bfc0b1e93132c69f5185f5ee3f0cd5f8e866442d46be5237feb03aa4b54fb42cc7fb6b0260b345bccd472b009bb07c1139e3d35c69b1095ce24b9d33f70c705c1361d46e637666ac9b17473443768a362779b6b5fbc2ffdb4d420df56fe5662dccc8ee278531557441e4ad3d577a70c9b4ea5ced34eb08f617890a204495a05cd8190f4847c62cfae725d37a62daf6bf0f4bb87a520a0e686ff79e8c0b2a11cf54f0ee2576d9ab2cdedcb2d85040e0000ea95cf5268cdbd9bc86c3e28deb26e3611dfa12149d5afb986a8d96cffa22770ad1efdebd5a757bfff8f8fd83977d6ae71c381ee732d82ca0c2964898e3da0673608979d833c4a4c4a92dd844066fb19d9465f4bf70218a47146c8802dff58391c0a3bc721d8439d64ad9458e84812a6caf6cef0b07f1cf349f13859707da283c4b2da06f7e247388a0b6685091a544d9e541bec8c598f5351db9bdc978f063d70696761a58afffd11bf13ccf08ce8807564200c12fa04f7f090ea7173f69fe300b9c6f914ed8dbf63f83795eb4583ea2ede0f13461b030ba056df1b36e88940f33bb90c7267db29c1986f11d51b5e49965fb7ad3a62f1506d846ccedf4569f420bedd105b34c9cdc783a83a36d2e3d18fb95152b774b7d3d0aecae804f74b946d6fb3b07ed8fa3339f92546454cca532e8b2e8ca69dbb09cd96323ffc0f4fd3cb93a46a62c88577ef6bc53708e80a89fe44518029c70c6bfdab0dbf003c8f0d211c3e209f89b30c793c1ebaf007b790bc58a1d15574fbf082bcbd96ad9c345b2bd1346d9eaf8e488dcbbc521a9092fd17a2ad60c030bdd6351532067ffe09966d4c2b605c6b19a8bf64df0b3419435f9951c0a36cf0ecfd6eedf35619bb5f043520816a5acc437a65ef73b11d0c483dfa7261d931e53cc64bff10ddfba260b0d622c3bd38ed43625b453865f33052ce555d536d75edb676012d5497e073818fabb42b996613612231ed8c577b24a608d5216106d3f30db46c3b2c1f0d6f3730e56e198751237c52171e676792f14dc9981b14c8a6de932e5791611fbdef680d6975bc81b64e2da9769910dcc79fe8c375586cee6dd5343c43db5908b9809ae820fbf9f303bb0bc790da3e09f4e69eccb009cf98a65b7e2a18123f8a2f7dc925c12cb2241d7527944a11b3c9d39fa56f086bd437d46cbdf72790f2dfa1033aed92cfc608627e14cbbde7d5791efa693f22c67781e7efe71d30a147f455c884c9cff8170c392412a99c56866494a1b8d8f3cb93ece6cad05b9b267ffa185232853e57e646d0c8c25a47547a28f58aff90da4ba3404df064158caebd49547cbf048ed6b1e8e72b8516ddae8fff83fccf2599a93b46a1ceacd7b5841a882be7e56f6128a6d50ee7f89c8ed259f31dc3468f4f18b5a852080fc238f7a6586c44ccfa1837929c011c83d1ddf906256e03414d97ae5c85c1c2e939b7d02487efc7efca7ec35f044772ed3df56228f2c50461927e9149350849336213cd602941069119556237bd144f1fb8be57a29c602297c5cf111c2eb246106a30bdb5b4e043beabdb59ad494ee1385b132f6e8a44f9f2334c6e9f7f4d626c9ac7595a3e8bec665af3259313020c4ee2a8c446e01b5dc780cac22555ee2612c176edfa6825248ea7985ad7b418ae7bf7ef43f1e538d9dcde0510ef36ce7dee4088df43e4133ca23af19c03e02834bb6aff29aca247c615a552a3d60873985a6227f6d5759ac6560598adac9ce987a5609bc1bc9f81ae1699f6a2fcc902235c33244f9bc67c7731a0ea3936dfe095c6b94755a29b987186d40d2d360ae4432f82ec5e9b8d2ac2e35d50c1d309c658d81ecc965cec0dcc4d5f8625b6f5e5e59cdf485f654f56d4401d3867f2df215769052c1f5b57a604b370583e514b0df7c1a14b48442ada890014a6d4defc5f01e70fcfcd4dd6bda05955ad4bc9f9f46db91bedf2f44abf31149cff76046e3cfdadff7f34063eead986cfbf1ff6d3e56fe3a5af33cea69d6929b97f946ce8a6acdbb966b2afa1ac3de597574ccd589c510861516f371c0d0b85187b49fe45b518c78846ecdad72d3b4249301bc30a1e81c34c459e06171cf52d7b911f348f915c04f410bcb82ddd3202fe626b9384af598270aa24d8ecc6b30bfeb4fac077ec9e9e934f2162320867408e5b4f558e4e288b8add378fd446aece764c20e5aff501c129eec029feb723e24d134b1cec1962110373cf60ce0d5edb82e36878a45ff1886ca52f6c6de07f23b762a56f4211103936ef4d7edc73774106cbfd5637362166e70f720c6806c0b188eee5aa78fbb423c3a13fc48fedb6bca78bcb55dd5df0bab5202b8a03a5866b54e5fbe564312b0952756807dc4c794d6179ea1c95c5294e1e0463ea0666528d43c2fde6881eb3134140a69ea95933f43f0ec04948c4b91873558ead40e6012474f51b4383bea9a79d7e2a6ce451faeed55869cbd995904d1140aecb9045cf5a3fb7eea3976963a1b017efc0d0376879db3fedfc82864a38494b5ab7029f0bc805669c272c8815fb5b8f2aed85980ffe367416d32836dcc8b0aafbaa60e018efdb32f3418fe34154022126da66341dcf8c72f83e64543819c8df008e2b097e488815df2c3142bba1031a66e5e510d6484ad4b8d2edbe671b7cf87bb6ce6d6dbbda59d33809098f31340aad0dc3b5842bb4c98a3f755e5d1dd1b21bb22908fecb96f7dff40367a4a0ea4113f62c68abb634ecf68f49b3c562d5deb561b5dfa2d880972b68857e322d51f42beacd1580f26ec9414b53b9ffbaef4e8e826c488b76eb2045a93468d8f95fca8d3e1b7c9a27e629f79e490817de1f8841821f9d9611b76128b7647d5820e3bec72d3a05a80904a61fca1d4d9a6e82c5a3d4c57f209f6e637317d7647dcdf4ffd8bafe1f1455a6084bfaa22ae2ba879f80b1e14ab7e5ac8184492d8cb933ec3e33f5d3099da329da5c275c6e103603e45dd805e327654e790ae673a3feeb2188ad0ea9f717e97e98e3c965ed5984d5f89dc8d654a3bb1f430561deba48c3ce24865920808eb70308eb1c4071dc37c3bc40e66f3654e2901976bdd745a5d422e4e74af6adb8d211bf30a092fa473f316793c425c92c29394a7db836021812ca0ee0c740d08702413ed7be37533df2db032b28239cb3d611e01ded461511430ab0297306d87941d4ec5b71e88c9d6988f374dab85c541b1256a9bb8855e9dd08a8167305f0f79fd493c3205425404afad3bbd9c75709daf88f24dbfd92afb753264cccf85a7d91a481504171c84821e809e19e59518e65b88259543c18c27e602258ed5442e29c4b15b65eb3a2a0f04df1f132f3fe0438ed423461b3766ce54bb47cd6cffd8b687efd88f970b477f8c28eb83403113ba5689d1c0beb52d5db6e5eef177adf9ef8eafc131ab70dec0a8042f6e004b8c7ef35b8804c7d7443e3c9dc274486b499ecc85fee7d5949b3498159d8faa6b58f29a0bd942185c385cf22af4bdbb263475a687ba46622cdfb458c086371322eb7978e4d9b6e1f10ab305a69996f40ea9aa68443e75b1f82d45ed907029dec2995bad85178cadde842e8caf87c6eae715faaff736485c2eff83ff8f51dad1a0fdf834f922864d67a724d424aff6b3fe4b065abbc428363e65b269c3c1e98d2f2e4910dcf85f275fd8a9c89e792e24c002079b54b8d2e68463e0c2842246968f3dae223d5471e4ab03756b7b0799d1ece1796aaaa9c50f0ed40ef60a73b6366942d6e65c432ef76e1c114efcd98318daa889b61e71ca68c8744f8da3d215ad4cea9fde72b27583acc9feb6b562135234039fe9fe2a9cc150cdde6901a3255aa14eff4a1cc66374d62fa39e29c9bcbe6f4cb56561aa0a7f641880bd970b2f0de5ba9b4cb4581a8b1627f9467d670ee3b33723414c6116e9221d8d94bc8cffbcce129f2c207a4f9450b799cb4002b37b7210fad4746e393eb1e21b58b9427413ac2454ad411325d71207670ee1423709f3da52a5bde6b60e9a9f77042024a16df86cf7f4abdc6efdcf6823c22316d1e17edceaca100951c71861de149facc1dc7652ba04262efd33f1e79ee12654ad8eb0c505950389e6de353900bf75dd554b3e469d4f1e52ffe325eace2bd8ec46be931ea92e60a8dff85f4afe57935c221afcb9e36f97484d48b24b534e3c8619f51d11149d875b36ab80461785c9b39147ce0862c3492aff557ffd3b380bffd3e667fd77fb8748b798c7eee6ffbbe9834bb100c7812e54a9c5361bca312782c59a3f96682d9c3792ee024d9978b548b7c10e19a3e6fe0d8e977c0cdb1c5269730df3d8eac0fb0c8de0226e30f9c1a6461940d9da8f23ee3600883ef9bf73d34179e8b5976ca36e55ab934879c667b9171859f27375bc987bc415dfa28e5c1b811df415828e12cc47f60af827709c1db2db8fc3ba1c583b8d8cb736cd8a7e1095988e230f99846d6be9abd0721e634aea2b94ff25fce01f7542c591135c636eaf155fbdea9340d3e293b8b3b24fb13908a518caa43dd895f41ee2fbdeaaead788cfd1b5c8b7f1de6d4e783a76a7788a1cbb196c250942fd09efde1d6eb117964df1d22edcc7da880de1dd3d784d4af0ff47634ac90071fc0f6bc4f1fd1b9e14ba7e6b470b5878ff90386a144d9cfb0994db4da736df4549f949c2ba3a3e1a3f02aa6e4d2581ccc49281c1ec37756c51478f7fa98693532ca28fb5394b14b9d6300daf6758b513b2f314195ede90cdb9fd4edf6a7f172f94a827eaa3b071edd6cd0b0261b4a322af1361b9e03bda7839ceb24c23918b28ce77734e6d953b90aae711e571a654303aca40003c6ef89045fd9aa930a2ed9883e8ce565726d925da99392773dd544c1bba205acdd05128117cdfc414fdb73ad480014f4eb82d60191ec112e430daf7ba80336fbe0187c7f5fa8761ffa617a1ace5f8801e775ab6ad338370f890e1f8c14e3bfe65507e21ed33cab74b88e733d8c6e53826cd0dc2bc30a0f3c0b55ac3af13187561220653ce49e26773f7cfa99f0c006c89c2c37861f8a6e1a1418625d0daa68b62fdbcb6f8e34420e99373620c5ffa4c8a06db5372b98d554ac41196efbcb20087c7b4dfe8945f8f8f8badae39478a22e0252703424d456eaf8b5e72695a1d25b7943d19d99ea3d1ddab7d055e26f0c9f8cc579c343d739b7c0d4e5ce2f16fb6920d7252f71693b79441df395db468c53d2403c6ab19d495262410f86334028c79700964191ad4b4c22a508a1546ba181e7db251480b792df79ec6e4f16b85cc2a82027909abd68736ba4942178ab5063f1bc0d485db5daca0d858d2a9aadb293ea9edb3f6cced5b38ee06fa00a7d82c187b7a8fd6228b117760d0edde568c553c6a77889499d633562fc9cdb0f426f836e09a4c4341a405d0552cef2f5f4f5b60c5b5e26a515d307bc96031d6770006266cf1bcc03b6a047b33de7aae55b39ff33f56d875588decd3640375a2837fcb6b08d27d41beb17d97aae545cbef6cc672fd59525a43632fc93ff59eb5d222c76a71273fac6040c56c70d517dc6d300037cb09dc585ce43b5a8d7585f7a29bb2c0e65223ffc378cf13e4e1c42e9cf20e7146ef7f7466207272bc3d68f6282d9b6ac2988fe873c3049ce6a28a81d2fe758451e0c7fe9a3f6cd9602ef68745d3646e4f279cfdd95afd1d03a453d7fcd7dde54c835a9144ed0b07174eab0613bb472a99af323624446d4497f604114b2939937e189ada92832ec75e2d13f921af231b80e17432fa7f2cc34674ac7b67bc0011aec136001e6e721ed313a5d939bc49c191fc897841bcfb2b06beddf86da1d5876b4ae1695f3fef982922b713eb8429712b24ea5186ea9184657c2c1ccc6b80aaf86eb20b420f7266ec0348529dbb55baaba3d7f949153798a42778199aa26cd04b5b5a642b3da0decddd81226d4968f38b2ef0c716d4c3fd2ab08beee5936a2728e4f73ca9ed543fa8e74f0931aaa976059613f5fac5f15766d2928b085b5f2bef66ab94785f7773548a3da292e2177ef9ee8106c213bb05e2a3dd1599c72273c6dfb2c2a58434cc993456c1cc2ac5f5647dabff3c1117242eadaafca87ec7e7ee10b20d31faa67891b0b23445b3f2aaca31873f34074d47e2e631f817be6c2a20eb9a29e1264349b73a88488b9ec034811d1da7e09408780ce151966f2d5b5d711639431bd667efa5a37042f041b006d7f67dd5696b79f7e4cb319ccc057eb1d507922d6ff6cafe21ececb27d21ae1c4b50c355042da16480e1bd7f4d97758ef2dd9e681b55432109d2f00819844790412d71cd20eb3cd98a8daee18ff7d0b00f71f79fbd999647e6063dd3d3df5f7390d6c003feaeceec7058cf2e6453510e09b180e41a45cbec22492ffd5c897f94c1a05b05817b7cdb79534ae2854d9b1620fea7227e8aea162b50a9687e6d2ceb0a3be88e18f70dd632535441839a509c05a4151769fbf582116bec8d096932fa8ed451f0d517012b2480a55a747ab8c0906a543ce91e9ab96d4bc87f4252a508013983384b4b3dccee7195d1567434bb52440f3ca28c0184dfdc50265ee32928e4e51f00574a4419af9cb524930397cbc6efa16e0c023eb7ff2d7ec8fc2c5edcc5c546e112e00c9e658da1469dc2473a249de57356c5144a76c46d99b603c884760eab356c2a2d42b09075cb03b8436533b5df6f076f87de70cfc7ce07a4bc9477af28b39f846eb7a0d463b10f138ac4eaffb07370c7b055cf1db441d9fd14afc6fe85a11bbad6d267dc1e2ed24804eb3fe908e81fb71c1bf3d64a19b70f41271a89733feda6e87d46e4ba56a172e97e86b9eae9766d0f2a18eb59a37876a8b179833c28f6c29a5111fc6b39e1d6f9d7bff1395a272c1bfbd27337eeb58521be27ca833c2a0cd5b84caa4e0f993e04c209608010592fb222e2ae5d19eb389bc9ecffaa16c0dcbf7d9e3e564a3132d68f4385fc55428acfd6cbe2084a57e891fa8cd5afcb8b338b13ad77f7f87cb66b12015360eba24337dfd964a20de367699d02a1b63cd1007032de53de22a669083d495f2441102901190e165005a641381394b2e3aff3e6d264b0dddd940570742c67d5b22006d1770ecd7abec071aa8fc9a1909ef55a9ffed77ce3378154f04a6fbc57ba88c427d22c21a7236d5539b378de810cdd423ccee6fa34bc90a3c3aa477632a9e213c37750ed0c80d617f4eacb7d03f0f5344d3105add66acd3c949f76d9839b443fb25aa8746a31692286bf566ce716b6356b9910a2a7cb5fe8f82cb5067ccfb0e4c9bfe394011c4d2217f577880400f19db3635b20b4f8b8c95b75fa5b34024ea8458cd94b904c26b21e0d607bf9754c52fc2a0f92d83d2c3099416478c206db0725963c002492f9e063a564e55124aac6b1aea06554f1992b6ef6a0b49abbfba6d4a56932ed718ae61cc914601e7724507d688edf32be48b4726f5b7aa154c185b76847810e8cc7bea64ca7f7332d73263b5b539c871416c51cd0a20c02417514b4559e6a81600f80c2ae01e7d2ca6b3288e09360c08c382b7861c9725d43ee0fd3f8cc60e62b81686514082c0334613902443d3cdb72a748972393df80fd95587feb896a8a567c35b7a846df50c611a7900adbab74b2920d7f16489c17eaf4b74e65dc8ad638398acacdd0a726c5699e1459738fde64bbc9122a7c82120a7290431d0d63a7e38d70597b65b43b19ce7e438a9cc9fdf09d06befc146efa8c0b50d18bfff6f92e2b5b9e8c75123ab6cb4ebadd6050bfde03da723c0e82e3c521c6b65e11bc2206a41dcfd8753a201d0f580df9b4f2e9c5a970f1633a899bd41ef2f942affb0069cca4dd52d9fd66a74d6777a981ea9e83c69f154d70c7919ef483996e6bbcaa96d6d9f8e0d25b3df2e9925448f6306f47d78c4d6424c2b420aa12e97f53db7ac4a6209bc234face13d90ef50a8e44a2b1697c08486f12e379ef700042a7180363e8dcea971f4800b4bf8ab0903b93e8224a7dbdce12470b0746cb77afd76c4baa0817d953aa7549496675fa6f706b5fa9f52b3df397e765ccd1b93322e3771d6aff3c028d08d5451ca7c2d6e732813563e955ab4cad4d491c69987716ace5f3cc00aec80f8350db933c0689d66e9731ba927fdb3b596f12ecd7efebe3b9d5a9c14efef9b0f8e23c54af22d92e2a423c00d06136904cb91932729a93e2ad8dc4db8f299ec03ef813438367876fee57024bbf0f4c5f74852c06206c8d1689f99703ea6b0043799a0fc6d502e56efa145abf1c300c4868053a315d86124eda7787b40d721f5b47dfc03fb0ae1b9723dfafadec11f74e8b7620717231238dc7c6e53fb11896822c7b71b91cdeb9e36eaf2ffee0987005a3c12e4cafef723c490b12dff027afa4c0ba8db3420edfaeb2d8cb6fc44e259e3d5f3cf42d64f6e956e1a9aadc7adb69bee70f15469450132b30bb38285ca48d9d3ed6cd5cd197124aca49840d57108a77749877f7e00abf37496b458fff258b94bec3d2ee0a1b3144475e8094a8c92d40677b9dcb040b30367e809db2c9d9e4f90409171da0e0f26d6f788bb8ecefff458eb3c2c72d4c65b9ff000000000000000000000000000000071117232a32373c",
  "tracerConfig": {
    "diffMode": true
  },
  "result": {
    "pre": {
      "0x2861bf89b6c640c79040d357c1e9513693ef5d3f": {
        "balance": "0x0",
        "code": "0x606060405236156100825760e060020a600035046312055e8f8114610084578063185061da146100b157806322beb9b9146100d5578063245a03ec146101865780633fa4f245146102a657806341c0e1b5146102af578063890eba68146102cb578063b29f0835146102de578063d6b4485914610308578063dd012a15146103b9575b005b6001805474ff0000000000000000000000000000000000000000191660a060020a60043502179055610082565b6100826001805475ff00000000000000000000000000000000000000000019169055565b61008260043560015460e060020a6352afbc3302606090815230600160a060020a039081166064527fb29f0835000000000000000000000000000000000000000000000000000000006084527fc5d2460186f7233c927e7db2dcc703c0e500b653ca82273b7bfad8045d85a47060a45243840160c490815260ff60a060020a85041660e452600061010481905291909316926352afbc339261012492918183876161da5a03f1156100025750505050565b6100826004356024356001547fb0f07e440000000000000000000000000000000000000000000000000000000060609081526064839052600160a060020a039091169063b0f07e449060849060009060248183876161da5a03f150604080516001547f73657449742875696e74323536290000000000000000000000000000000000008252825191829003600e018220878352835192839003602001832060e060020a6352afbc33028452600160a060020a03308116600486015260e060020a9283900490920260248501526044840152438901606484015260a060020a820460ff1694830194909452600060a483018190529251931694506352afbc33935060c48181019391829003018183876161da5a03f115610002575050505050565b6103c460025481565b61008260005433600160a060020a039081169116146103ce575b565b6103c460015460a860020a900460ff1681565b6100826001805475ff000000000000000000000000000000000000000000191660a860020a179055565b61008260043560015460e060020a6352afbc3302606090815230600160a060020a039081166064527f185061da000000000000000000000000000000000000000000000000000000006084527fc5d2460186f7233c927e7db2dcc703c0e500b653ca82273b7bfad8045d85a47060a45243840160c490815260ff60a060020a85041660e452600061010481905291909316926352afbc339261012492918183876161da5a03f1156100025750505050565b600435600255610082565b6060908152602090f35b6001547f6ff96d17000000000000000000000000000000000000000000000000000000006060908152600160a060020a0330811660645290911690632e1a7d4d908290636ff96d17906084906020906024816000876161da5a03f1156100025750506040805180517f2e1a7d4d0000000000000000000000000000000000000000000000000000000082526004820152905160248281019350600092829003018183876161da5a03f115610002575050600054600160a060020a03169050ff",
        "storage": {
          "0x0000000000000000000000000000000000000000000000000000000000000000": "0x00000000000000000000000020bb8cb4a01637a773811ba45b9afd80171a08c5",
          "0x0000000000000000000000000000000000000000000000000000000000000001": "0x0000000000000000000000ff30c9e568f133adce1f1ea91e189613223fc461b9"
        }
      },
      "0x20bb8cb4a01637a773811ba45b9afd80171a08c5": {
        "balance": "0x1ff0509d9d6821e26",
        "nonce": 138
      }
    },
    "post": {
      "0x20bb8cb4a01637a773811ba45b9afd80171a08c5": {
        "balance": "0x1fefc92065b743226",
        "nonce": 139
      }
    }
  }
}
