{
    "codeCopyZero_Paris_d0g0v0_Cancun" : {
        "_info" : {
            "comment" : "https://github.com/ethereum/tests/issues/493,  CODECOPY and EXTCODECOPY where codesize = 0",
            "filling-rpc-server" : "evmone-t8n 0.14.0-13+commit.4d363c36",
            "filling-tool-version" : "retesteth-0.3.2-legacy+commit.ca7f4c79.Linux.g++",
            "fixture-format" : "blockchain_test",
            "generatedTestHash" : "943f2abee9e9eef758c8d5a99b929211e723468d287d1d256a73e4f0c01d9b26",
            "lllcversion" : "Version: 0.5.14-develop.2024.11.5+commit.b2b86751.mod.Linux.g++",
            "hyperion" : "Version: 0.8.24+commit.e11b9ed9.Linux.g++",
            "source" : "src/GeneralStateTestsFiller/stExtCodeHash/codeCopyZero_ParisFiller.yml",
            "sourceHash" : "37943165785554f5c5dc7b00f987b2d6a07dfa94f26b8c39859187597dc00e5a"
        },
        "blocks" : [
            {
                "blockHeader" : {
                    "baseFeePerGas" : "0x0a",
                    "bloom" : "0x00000000000000000000000000000000000000000000000000000000000000000000000000000000000000000000000000000000000000000000000000000000000000000000000000000000000000000000000000000000000000000000000000000000000000000000000000000000000000000000000000000000000000000000000000000000000000000000000000000000000000000000000000000000000000000000000000000000000000000000000000000000000000000000000000000000000000000000000000000000000000000000000000000000000000000000000000000000000000000000000000000000000000000000000000000000",
                    "coinbase" : "Z2adc25665018aa1fe0e6bc666dac8fc2697ff9ba",
                    "extraData" : "0x00",
                    "gasLimit" : "0x989680",
                    "gasUsed" : "0x04071a",
                    "hash" : "0x1814b5bd78eac618cb47df556dd5e0a2d1abf58b96ba80c33257d2fd7e4db2ac",
                    "mixHash" : "0x0000000000000000000000000000000000000000000000000000000000020000",
                    "nonce" : "0x0000000000000000",
                    "number" : "0x01",
                    "parentHash" : "0xa1e59194b3042b3d7f8a2c4034b3682665a75383e40dd32a9b2fe4c0856807b6",
                    "receiptTrie" : "0xfd51e6c9638e5791c2adc046c82baa092b3d4fdf6f6282e47e1954f72a96fa7a",
                    "stateRoot" : "0x34511e97b3034c0cd33c67ec065afc8be9f4560f2c0a4a5293f7abefb2a6047d",
                    "timestamp" : "0x03e8",
                    "transactionsTrie" : "0x4819539c6fca0410aa37aa95a69db41135ed634740f8850f5d16d1a071cd62dc",
                    "withdrawalsRoot" : "0x56e81f171bcc55a6ff8345e692c0f86e5b48e01b996cadc001622fb5e363b421"
                },
                "rlp" : "0xf902a3f9023aa0a1e59194b3042b3d7f8a2c4034b3682665a75383e40dd32a9b2fe4c0856807b6a01dcc4de8dec75d7aab85b567b6ccd41ad312451b948a7413f0a142fd40d49347942adc25665018aa1fe0e6bc666dac8fc2697ff9baa034511e97b3034c0cd33c67ec065afc8be9f4560f2c0a4a5293f7abefb2a6047da04819539c6fca0410aa37aa95a69db41135ed634740f8850f5d16d1a071cd62dca0fd51e6c9638e5791c2adc046c82baa092b3d4fdf6f6282e47e1954f72a96fa7ab90100000000000000000000000000000000000000000000000000000000000000000000000000000000000000000000000000000000000000000000000000000000000000000000000000000000000000000000000000000000000000000000000000000000000000000000000000000000000000000000000000000000000000000000000000000000000000000000000000000000000000000000000000000000000000000000000000000000000000000000000000000000000000000000000000000000000000000000000000000000000000000000000000000000000000000000000000000000000000000000000000000000000000000000000000000000008001839896808304071a8203e800a000000000000000000000000000000000000000000000000000000000000200008800000000000000000aa056e81f171bcc55a6ff8345e692c0f86e5b48e01b996cadc001622fb5e363b4218080a00000000000000000000000000000000000000000000000000000000000000000f862f860800a83155cc094a00000000000000000000000000000000000000001801ca0c4779e01b0c76f529fb497f3b6e15762f89ddb906091a91fe9f6b005e205ee17a0736cfe95bf57a25f44159f28fd34a058669e42f293161491cde3a49d501da93cc0c0",
                "transactions" : [
                    {
                        "data" : "0x",
                        "gasLimit" : "0x155cc0",
                        "gasPrice" : "0x0a",
                        "nonce" : "0x00",
                        "signature" : "0xc4779e01b0c76f529fb497f3b6e15762f89ddb906091a91fe9f6b005e205ee17",
                        "publicKey" : "0x736cfe95bf57a25f44159f28fd34a058669e42f293161491cde3a49d501da93c",
                        "sender" : "Za94f5374fce5edbc8e2a8697c15331677e6ebf0b",
                        "to" : "0xa000000000000000000000000000000000000000",
                        "v" : "0x1c",
                        "value" : "0x01"
                    }
                ],
                "uncleHeaders" : [
                ],
                "withdrawals" : [
                ]
            }
        ],
        "config" : {
            "blobSchedule" : {
                "Cancun" : {
                    "baseFeeUpdateFraction" : "0x32f0ed",
                    "max" : "0x06",
                    "target" : "0x03"
                }
            },
            "chainid" : "0x01",
            "network" : "Shanghai"
        },
        "genesisBlockHeader" : {
            "baseFeePerGas" : "0x0b",
            "bloom" : "0x00000000000000000000000000000000000000000000000000000000000000000000000000000000000000000000000000000000000000000000000000000000000000000000000000000000000000000000000000000000000000000000000000000000000000000000000000000000000000000000000000000000000000000000000000000000000000000000000000000000000000000000000000000000000000000000000000000000000000000000000000000000000000000000000000000000000000000000000000000000000000000000000000000000000000000000000000000000000000000000000000000000000000000000000000000000",
            "coinbase" : "Z2adc25665018aa1fe0e6bc666dac8fc2697ff9ba",
            "extraData" : "0x00",
            "gasLimit" : "0x989680",
            "gasUsed" : "0x00",
            "hash" : "0xa1e59194b3042b3d7f8a2c4034b3682665a75383e40dd32a9b2fe4c0856807b6",
            "mixHash" : "0x0000000000000000000000000000000000000000000000000000000000020000",
            "nonce" : "0x0000000000000000",
            "number" : "0x00",
            "parentHash" : "0x0000000000000000000000000000000000000000000000000000000000000000",
            "receiptTrie" : "0x56e81f171bcc55a6ff8345e692c0f86e5b48e01b996cadc001622fb5e363b421",
            "stateRoot" : "0xc71c939f02813e43a0930b1fa1a7cfb367714b4128e3197d87a8d581c2dd79a1",
            "timestamp" : "0x00",
            "transactionsTrie" : "0x56e81f171bcc55a6ff8345e692c0f86e5b48e01b996cadc001622fb5e363b421",
            "withdrawalsRoot" : "0x56e81f171bcc55a6ff8345e692c0f86e5b48e01b996cadc001622fb5e363b421"
        },
        "genesisRLP" : "0xf9023ef90238a00000000000000000000000000000000000000000000000000000000000000000a01dcc4de8dec75d7aab85b567b6ccd41ad312451b948a7413f0a142fd40d49347942adc25665018aa1fe0e6bc666dac8fc2697ff9baa0c71c939f02813e43a0930b1fa1a7cfb367714b4128e3197d87a8d581c2dd79a1a056e81f171bcc55a6ff8345e692c0f86e5b48e01b996cadc001622fb5e363b421a056e81f171bcc55a6ff8345e692c0f86e5b48e01b996cadc001622fb5e363b421b9010000000000000000000000000000000000000000000000000000000000000000000000000000000000000000000000000000000000000000000000000000000000000000000000000000000000000000000000000000000000000000000000000000000000000000000000000000000000000000000000000000000000000000000000000000000000000000000000000000000000000000000000000000000000000000000000000000000000000000000000000000000000000000000000000000000000000000000000000000000000000000000000000000000000000000000000000000000000000000000000000000000000000000000000000000000000808083989680808000a000000000000000000000000000000000000000000000000000000000000200008800000000000000000ba056e81f171bcc55a6ff8345e692c0f86e5b48e01b996cadc001622fb5e363b4218083060000a00000000000000000000000000000000000000000000000000000000000000000c0c0c0",
        "lastblockhash" : "0x1814b5bd78eac618cb47df556dd5e0a2d1abf58b96ba80c33257d2fd7e4db2ac",
        "network" : "Shanghai",
        "postState" : {
            "Z000f3df6d732807ef1319fb7b8bb8522d0beac02" : {
                "balance" : "0x00",
                "code" : "0x3373fffffffffffffffffffffffffffffffffffffffe14604d57602036146024575f5ffd5b5f35801560495762001fff810690815414603c575f5ffd5b62001fff01545f5260205ff35b5f5ffd5b62001fff42064281555f359062001fff015500",
                "nonce" : "0x01",
                "storage" : {
                    "0x03e8" : "0x03e8"
                }
            },
            "Z64bc50092fd622c9cc47d658b99c1af75aaa3d68" : {
                "balance" : "0x00",
                "code" : "0x",
                "nonce" : "0x01",
                "storage" : {
                    "0x50" : "0x60206000600039600051605055303b605155303f605255600060006000600060",
                    "0x52" : "0xc5d2460186f7233c927e7db2dcc703c0e500b653ca82273b7bfad8045d85a470"
                }
            },
            "Za000000000000000000000000000000000000000" : {
                "balance" : "0x0de0b6b3a7640001",
                "code" : "0x60206000600073a2220000000000000000000000000000000000003c60005160105573a2220000000000000000000000000000000000003b60115573a2220000000000000000000000000000000000003f6012556000600060006000600073a22200000000000000000000000000000000000061c350f260135560206000600073a2000000000000000000000000000000000000003c60005160205573a2000000000000000000000000000000000000003b60215573a2000000000000000000000000000000000000003f6022556000600060006000600073a20000000000000000000000000000000000000061c350f260235560206000600073a3000000000000000000000000000000000000003c60005160305573a3000000000000000000000000000000000000003b60315573a3000000000000000000000000000000000000003f6032556000600060006000600073a30000000000000000000000000000000000000061c350f26033556020600060006000600073a10000000000000000000000000000000000000062086470f15060005160405500",
                "nonce" : "0x00",
                "storage" : {
                    "0x13" : "0x01",
                    "0x22" : "0xc5d2460186f7233c927e7db2dcc703c0e500b653ca82273b7bfad8045d85a470",
                    "0x23" : "0x01",
                    "0x32" : "0xc5d2460186f7233c927e7db2dcc703c0e500b653ca82273b7bfad8045d85a470",
                    "0x33" : "0x01",
                    "0x40" : "0x64bc50092fd622c9cc47d658b99c1af75aaa3d68"
                }
            },
            "Za100000000000000000000000000000000000000" : {
                "balance" : "0x0de0b6b3a7640000",
                "code" : "0x6000603980601a60003960006000f560005260206000f30000fe60206000600039600051605055303b605155303f605255600060006000600060003061c350f23b605355602060006000303c60005160545500",
                "nonce" : "0x01",
                "storage" : {
                }
            },
            "Za200000000000000000000000000000000000000" : {
                "balance" : "0x0de0b6b3a7640000",
                "code" : "0x",
                "nonce" : "0x00",
                "storage" : {
                }
            },
            "Za300000000000000000000000000000000000000" : {
                "balance" : "0x0a",
                "code" : "0x",
                "nonce" : "0x00",
                "storage" : {
                }
            },
            "Za94f5374fce5edbc8e2a8697c15331677e6ebf0b" : {
                "balance" : "0x0de0b6b3a73bb8fb",
                "code" : "0x",
                "nonce" : "0x01",
                "storage" : {
                }
            }
        },
        "pre" : {
            "Z000f3df6d732807ef1319fb7b8bb8522d0beac02" : {
                "balance" : "0x00",
                "code" : "0x3373fffffffffffffffffffffffffffffffffffffffe14604d57602036146024575f5ffd5b5f35801560495762001fff810690815414603c575f5ffd5b62001fff01545f5260205ff35b5f5ffd5b62001fff42064281555f359062001fff015500",
                "nonce" : "0x01",
                "storage" : {
                }
            },
            "Za000000000000000000000000000000000000000" : {
                "balance" : "0x0de0b6b3a7640000",
                "code" : "0x60206000600073a2220000000000000000000000000000000000003c60005160105573a2220000000000000000000000000000000000003b60115573a2220000000000000000000000000000000000003f6012556000600060006000600073a22200000000000000000000000000000000000061c350f260135560206000600073a2000000000000000000000000000000000000003c60005160205573a2000000000000000000000000000000000000003b60215573a2000000000000000000000000000000000000003f6022556000600060006000600073a20000000000000000000000000000000000000061c350f260235560206000600073a3000000000000000000000000000000000000003c60005160305573a3000000000000000000000000000000000000003b60315573a3000000000000000000000000000000000000003f6032556000600060006000600073a30000000000000000000000000000000000000061c350f26033556020600060006000600073a10000000000000000000000000000000000000062086470f15060005160405500",
                "nonce" : "0x00",
                "storage" : {
                }
            },
            "Za100000000000000000000000000000000000000" : {
                "balance" : "0x0de0b6b3a7640000",
                "code" : "0x6000603980601a60003960006000f560005260206000f30000fe60206000600039600051605055303b605155303f605255600060006000600060003061c350f23b605355602060006000303c60005160545500",
                "nonce" : "0x00",
                "storage" : {
                }
            },
            "Za200000000000000000000000000000000000000" : {
                "balance" : "0x0de0b6b3a7640000",
                "code" : "0x",
                "nonce" : "0x00",
                "storage" : {
                }
            },
            "Za300000000000000000000000000000000000000" : {
                "balance" : "0x0a",
                "code" : "0x",
                "nonce" : "0x00",
                "storage" : {
                }
            },
            "Za94f5374fce5edbc8e2a8697c15331677e6ebf0b" : {
                "balance" : "0x0de0b6b3a7640000",
                "code" : "0x",
                "nonce" : "0x00",
                "storage" : {
                }
            }
        },
        "sealEngine" : "NoProof"
    },
    "codeCopyZero_Paris_d0g0v0_Prague" : {
        "_info" : {
            "comment" : "https://github.com/ethereum/tests/issues/493,  CODECOPY and EXTCODECOPY where codesize = 0",
            "filling-rpc-server" : "evmone-t8n 0.14.0-13+commit.4d363c36",
            "filling-tool-version" : "retesteth-0.3.2-legacy+commit.ca7f4c79.Linux.g++",
            "fixture-format" : "blockchain_test",
            "generatedTestHash" : "07c471d2ec29a607b9a02a4f3595cc5ac26e2eaa1791c3998f8b0ce4933a973e",
            "lllcversion" : "Version: 0.5.14-develop.2024.11.5+commit.b2b86751.mod.Linux.g++",
            "hyperion" : "Version: 0.8.24+commit.e11b9ed9.Linux.g++",
            "source" : "src/GeneralStateTestsFiller/stExtCodeHash/codeCopyZero_ParisFiller.yml",
            "sourceHash" : "37943165785554f5c5dc7b00f987b2d6a07dfa94f26b8c39859187597dc00e5a"
        },
        "blocks" : [
            {
                "blockHeader" : {
                    "baseFeePerGas" : "0x0a",
                    "bloom" : "0x00000000000000000000000000000000000000000000000000000000000000000000000000000000000000000000000000000000000000000000000000000000000000000000000000000000000000000000000000000000000000000000000000000000000000000000000000000000000000000000000000000000000000000000000000000000000000000000000000000000000000000000000000000000000000000000000000000000000000000000000000000000000000000000000000000000000000000000000000000000000000000000000000000000000000000000000000000000000000000000000000000000000000000000000000000000",
                    "coinbase" : "Z2adc25665018aa1fe0e6bc666dac8fc2697ff9ba",
                    "extraData" : "0x00",
                    "gasLimit" : "0x989680",
                    "gasUsed" : "0x04071a",
                    "hash" : "0x5e827b6fdbc262a866e09ef0502318e11446b5a6dbb48bf8617f6d5a12b5011e",
                    "mixHash" : "0x0000000000000000000000000000000000000000000000000000000000020000",
                    "nonce" : "0x0000000000000000",
                    "number" : "0x01",
                    "parentHash" : "0x27e1f1daba774e8f3c67dc8dfdb0ff4b3098f9b3672ed1ff7216e69a732b8f58",
                    "receiptTrie" : "0xfd51e6c9638e5791c2adc046c82baa092b3d4fdf6f6282e47e1954f72a96fa7a",
                    "requestsHash" : "0xe3b0c44298fc1c149afbf4c8996fb92427ae41e4649b934ca495991b7852b855",
                    "stateRoot" : "0x9f200e6d0e2f893fc98a8abb6b170b605d36c8a3f610aab03eb484cdf296e61b",
                    "timestamp" : "0x03e8",
                    "transactionsTrie" : "0x4819539c6fca0410aa37aa95a69db41135ed634740f8850f5d16d1a071cd62dc",
                    "withdrawalsRoot" : "0x56e81f171bcc55a6ff8345e692c0f86e5b48e01b996cadc001622fb5e363b421"
                },
                "rlp" : "0xf902c4f9025ba027e1f1daba774e8f3c67dc8dfdb0ff4b3098f9b3672ed1ff7216e69a732b8f58a01dcc4de8dec75d7aab85b567b6ccd41ad312451b948a7413f0a142fd40d49347942adc25665018aa1fe0e6bc666dac8fc2697ff9baa09f200e6d0e2f893fc98a8abb6b170b605d36c8a3f610aab03eb484cdf296e61ba04819539c6fca0410aa37aa95a69db41135ed634740f8850f5d16d1a071cd62dca0fd51e6c9638e5791c2adc046c82baa092b3d4fdf6f6282e47e1954f72a96fa7ab90100000000000000000000000000000000000000000000000000000000000000000000000000000000000000000000000000000000000000000000000000000000000000000000000000000000000000000000000000000000000000000000000000000000000000000000000000000000000000000000000000000000000000000000000000000000000000000000000000000000000000000000000000000000000000000000000000000000000000000000000000000000000000000000000000000000000000000000000000000000000000000000000000000000000000000000000000000000000000000000000000000000000000000000000000000000008001839896808304071a8203e800a000000000000000000000000000000000000000000000000000000000000200008800000000000000000aa056e81f171bcc55a6ff8345e692c0f86e5b48e01b996cadc001622fb5e363b4218080a00000000000000000000000000000000000000000000000000000000000000000a0e3b0c44298fc1c149afbf4c8996fb92427ae41e4649b934ca495991b7852b855f862f860800a83155cc094a00000000000000000000000000000000000000001801ca0c4779e01b0c76f529fb497f3b6e15762f89ddb906091a91fe9f6b005e205ee17a0736cfe95bf57a25f44159f28fd34a058669e42f293161491cde3a49d501da93cc0c0",
                "transactions" : [
                    {
                        "data" : "0x",
                        "gasLimit" : "0x155cc0",
                        "gasPrice" : "0x0a",
                        "nonce" : "0x00",
                        "signature" : "0xc4779e01b0c76f529fb497f3b6e15762f89ddb906091a91fe9f6b005e205ee17",
                        "publicKey" : "0x736cfe95bf57a25f44159f28fd34a058669e42f293161491cde3a49d501da93c",
                        "sender" : "Za94f5374fce5edbc8e2a8697c15331677e6ebf0b",
                        "to" : "0xa000000000000000000000000000000000000000",
                        "v" : "0x1c",
                        "value" : "0x01"
                    }
                ],
                "uncleHeaders" : [
                ],
                "withdrawals" : [
                ]
            }
        ],
        "config" : {
            "blobSchedule" : {
                "Prague" : {
                    "baseFeeUpdateFraction" : "0x4c6964",
                    "max" : "0x09",
                    "target" : "0x06"
                }
            },
            "chainid" : "0x01",
            "network" : "Shanghai"
        },
        "genesisBlockHeader" : {
            "baseFeePerGas" : "0x0b",
            "bloom" : "0x00000000000000000000000000000000000000000000000000000000000000000000000000000000000000000000000000000000000000000000000000000000000000000000000000000000000000000000000000000000000000000000000000000000000000000000000000000000000000000000000000000000000000000000000000000000000000000000000000000000000000000000000000000000000000000000000000000000000000000000000000000000000000000000000000000000000000000000000000000000000000000000000000000000000000000000000000000000000000000000000000000000000000000000000000000000",
            "coinbase" : "Z2adc25665018aa1fe0e6bc666dac8fc2697ff9ba",
            "extraData" : "0x00",
            "gasLimit" : "0x989680",
            "gasUsed" : "0x00",
            "hash" : "0x27e1f1daba774e8f3c67dc8dfdb0ff4b3098f9b3672ed1ff7216e69a732b8f58",
            "mixHash" : "0x0000000000000000000000000000000000000000000000000000000000020000",
            "nonce" : "0x0000000000000000",
            "number" : "0x00",
            "parentHash" : "0x0000000000000000000000000000000000000000000000000000000000000000",
            "receiptTrie" : "0x56e81f171bcc55a6ff8345e692c0f86e5b48e01b996cadc001622fb5e363b421",
            "requestsHash" : "0xe3b0c44298fc1c149afbf4c8996fb92427ae41e4649b934ca495991b7852b855",
            "stateRoot" : "0xf5341947f2d96535077ba21fcbe184f4dc53066c28777364fd673fc044370bb8",
            "timestamp" : "0x00",
            "transactionsTrie" : "0x56e81f171bcc55a6ff8345e692c0f86e5b48e01b996cadc001622fb5e363b421",
            "withdrawalsRoot" : "0x56e81f171bcc55a6ff8345e692c0f86e5b48e01b996cadc001622fb5e363b421"
        },
        "genesisRLP" : "0xf9025ff90259a00000000000000000000000000000000000000000000000000000000000000000a01dcc4de8dec75d7aab85b567b6ccd41ad312451b948a7413f0a142fd40d49347942adc25665018aa1fe0e6bc666dac8fc2697ff9baa0f5341947f2d96535077ba21fcbe184f4dc53066c28777364fd673fc044370bb8a056e81f171bcc55a6ff8345e692c0f86e5b48e01b996cadc001622fb5e363b421a056e81f171bcc55a6ff8345e692c0f86e5b48e01b996cadc001622fb5e363b421b9010000000000000000000000000000000000000000000000000000000000000000000000000000000000000000000000000000000000000000000000000000000000000000000000000000000000000000000000000000000000000000000000000000000000000000000000000000000000000000000000000000000000000000000000000000000000000000000000000000000000000000000000000000000000000000000000000000000000000000000000000000000000000000000000000000000000000000000000000000000000000000000000000000000000000000000000000000000000000000000000000000000000000000000000000000000000808083989680808000a000000000000000000000000000000000000000000000000000000000000200008800000000000000000ba056e81f171bcc55a6ff8345e692c0f86e5b48e01b996cadc001622fb5e363b4218083060000a00000000000000000000000000000000000000000000000000000000000000000a0e3b0c44298fc1c149afbf4c8996fb92427ae41e4649b934ca495991b7852b855c0c0c0",
        "lastblockhash" : "0x5e827b6fdbc262a866e09ef0502318e11446b5a6dbb48bf8617f6d5a12b5011e",
        "network" : "Shanghai",
        "postState" : {
            "Z0000f90827f1c53a10cb7a02335b175320002935" : {
                "balance" : "0x00",
                "code" : "0x3373fffffffffffffffffffffffffffffffffffffffe14604657602036036042575f35600143038111604257611fff81430311604257611fff9006545f5260205ff35b5f5ffd5b5f35611fff60014303065500",
                "nonce" : "0x01",
                "storage" : {
                    "0x00" : "0x27e1f1daba774e8f3c67dc8dfdb0ff4b3098f9b3672ed1ff7216e69a732b8f58"
                }
            },
            "Z000f3df6d732807ef1319fb7b8bb8522d0beac02" : {
                "balance" : "0x00",
                "code" : "0x3373fffffffffffffffffffffffffffffffffffffffe14604d57602036146024575f5ffd5b5f35801560495762001fff810690815414603c575f5ffd5b62001fff01545f5260205ff35b5f5ffd5b62001fff42064281555f359062001fff015500",
                "nonce" : "0x01",
                "storage" : {
                    "0x03e8" : "0x03e8"
                }
            },
            "Z64bc50092fd622c9cc47d658b99c1af75aaa3d68" : {
                "balance" : "0x00",
                "code" : "0x",
                "nonce" : "0x01",
                "storage" : {
                    "0x50" : "0x60206000600039600051605055303b605155303f605255600060006000600060",
                    "0x52" : "0xc5d2460186f7233c927e7db2dcc703c0e500b653ca82273b7bfad8045d85a470"
                }
            },
            "Za000000000000000000000000000000000000000" : {
                "balance" : "0x0de0b6b3a7640001",
                "code" : "0x60206000600073a2220000000000000000000000000000000000003c60005160105573a2220000000000000000000000000000000000003b60115573a2220000000000000000000000000000000000003f6012556000600060006000600073a22200000000000000000000000000000000000061c350f260135560206000600073a2000000000000000000000000000000000000003c60005160205573a2000000000000000000000000000000000000003b60215573a2000000000000000000000000000000000000003f6022556000600060006000600073a20000000000000000000000000000000000000061c350f260235560206000600073a3000000000000000000000000000000000000003c60005160305573a3000000000000000000000000000000000000003b60315573a3000000000000000000000000000000000000003f6032556000600060006000600073a30000000000000000000000000000000000000061c350f26033556020600060006000600073a10000000000000000000000000000000000000062086470f15060005160405500",
                "nonce" : "0x00",
                "storage" : {
                    "0x13" : "0x01",
                    "0x22" : "0xc5d2460186f7233c927e7db2dcc703c0e500b653ca82273b7bfad8045d85a470",
                    "0x23" : "0x01",
                    "0x32" : "0xc5d2460186f7233c927e7db2dcc703c0e500b653ca82273b7bfad8045d85a470",
                    "0x33" : "0x01",
                    "0x40" : "0x64bc50092fd622c9cc47d658b99c1af75aaa3d68"
                }
            },
            "Za100000000000000000000000000000000000000" : {
                "balance" : "0x0de0b6b3a7640000",
                "code" : "0x6000603980601a60003960006000f560005260206000f30000fe60206000600039600051605055303b605155303f605255600060006000600060003061c350f23b605355602060006000303c60005160545500",
                "nonce" : "0x01",
                "storage" : {
                }
            },
            "Za200000000000000000000000000000000000000" : {
                "balance" : "0x0de0b6b3a7640000",
                "code" : "0x",
                "nonce" : "0x00",
                "storage" : {
                }
            },
            "Za300000000000000000000000000000000000000" : {
                "balance" : "0x0a",
                "code" : "0x",
                "nonce" : "0x00",
                "storage" : {
                }
            },
            "Za94f5374fce5edbc8e2a8697c15331677e6ebf0b" : {
                "balance" : "0x0de0b6b3a73bb8fb",
                "code" : "0x",
                "nonce" : "0x01",
                "storage" : {
                }
            }
        },
        "pre" : {
            "Z0000f90827f1c53a10cb7a02335b175320002935" : {
                "balance" : "0x00",
                "code" : "0x3373fffffffffffffffffffffffffffffffffffffffe14604657602036036042575f35600143038111604257611fff81430311604257611fff9006545f5260205ff35b5f5ffd5b5f35611fff60014303065500",
                "nonce" : "0x01",
                "storage" : {
                }
            },
            "Z000f3df6d732807ef1319fb7b8bb8522d0beac02" : {
                "balance" : "0x00",
                "code" : "0x3373fffffffffffffffffffffffffffffffffffffffe14604d57602036146024575f5ffd5b5f35801560495762001fff810690815414603c575f5ffd5b62001fff01545f5260205ff35b5f5ffd5b62001fff42064281555f359062001fff015500",
                "nonce" : "0x01",
                "storage" : {
                }
            },
            "Za000000000000000000000000000000000000000" : {
                "balance" : "0x0de0b6b3a7640000",
                "code" : "0x60206000600073a2220000000000000000000000000000000000003c60005160105573a2220000000000000000000000000000000000003b60115573a2220000000000000000000000000000000000003f6012556000600060006000600073a22200000000000000000000000000000000000061c350f260135560206000600073a2000000000000000000000000000000000000003c60005160205573a2000000000000000000000000000000000000003b60215573a2000000000000000000000000000000000000003f6022556000600060006000600073a20000000000000000000000000000000000000061c350f260235560206000600073a3000000000000000000000000000000000000003c60005160305573a3000000000000000000000000000000000000003b60315573a3000000000000000000000000000000000000003f6032556000600060006000600073a30000000000000000000000000000000000000061c350f26033556020600060006000600073a10000000000000000000000000000000000000062086470f15060005160405500",
                "nonce" : "0x00",
                "storage" : {
                }
            },
            "Za100000000000000000000000000000000000000" : {
                "balance" : "0x0de0b6b3a7640000",
                "code" : "0x6000603980601a60003960006000f560005260206000f30000fe60206000600039600051605055303b605155303f605255600060006000600060003061c350f23b605355602060006000303c60005160545500",
                "nonce" : "0x00",
                "storage" : {
                }
            },
            "Za200000000000000000000000000000000000000" : {
                "balance" : "0x0de0b6b3a7640000",
                "code" : "0x",
                "nonce" : "0x00",
                "storage" : {
                }
            },
            "Za300000000000000000000000000000000000000" : {
                "balance" : "0x0a",
                "code" : "0x",
                "nonce" : "0x00",
                "storage" : {
                }
            },
            "Za94f5374fce5edbc8e2a8697c15331677e6ebf0b" : {
                "balance" : "0x0de0b6b3a7640000",
                "code" : "0x",
                "nonce" : "0x00",
                "storage" : {
                }
            }
        },
        "sealEngine" : "NoProof"
    }
}