{
    "extCodeHashSubcallSuicide_d0g0v0_Cancun" : {
        "_info" : {
            "comment" : "transaction to B | B call to A | A delegatecall/callcode to C (C has selfdestruct) | A selfdestructed. returned to B. now we could check extcodehash of A (in account B code)",
            "filling-rpc-server" : "evmone-t8n 0.14.0-13+commit.4d363c36",
            "filling-tool-version" : "retesteth-0.3.2-legacy+commit.ca7f4c79.Linux.g++",
            "fixture-format" : "blockchain_test",
            "generatedTestHash" : "2765d643746cd10cf3f783e145f48d84aa11fc8af7ad00843a37e21426b49ee9",
            "lllcversion" : "Version: 0.5.14-develop.2024.11.5+commit.b2b86751.mod.Linux.g++",
            "solidity" : "Version: 0.8.24+commit.e11b9ed9.Linux.g++",
            "source" : "src/GeneralStateTestsFiller/stExtCodeHash/extCodeHashSubcallSuicideFiller.yml",
            "sourceHash" : "d59c0a1e1fb9cf5a015302c7b5ece0d9f0327714490bec02ea98e56c20b90e8e"
        },
        "blocks" : [
            {
                "blockHeader" : {
                    "baseFeePerGas" : "0x0a",
                    "bloom" : "0x00000000000000000000000000000000000000000000000000000000000000000000000000000000000000000000000000000000000000000000000000000000000000000000000000000000000000000000000000000000000000000000000000000000000000000000000000000000000000000000000000000000000000000000000000000000000000000000000000000000000000000000000000000000000000000000000000000000000000000000000000000000000000000000000000000000000000000000000000000000000000000000000000000000000000000000000000000000000000000000000000000000000000000000000000000000",
                    "coinbase" : "0x2adc25665018aa1fe0e6bc666dac8fc2697ff9ba",
                    "extraData" : "0x00",
                    "gasLimit" : "0x989680",
                    "gasUsed" : "0x02ed84",
                    "hash" : "0x0f7191608e16dd51087c6d5cbc7ea13ea690d04d383a80e92d8ffdab4481909d",
                    "mixHash" : "0x0000000000000000000000000000000000000000000000000000000000020000",
                    "nonce" : "0x0000000000000000",
                    "number" : "0x01",
                    "parentBeaconBlockRoot" : "0x0000000000000000000000000000000000000000000000000000000000000000",
                    "parentHash" : "0x307fa88802a419efb26cebb51c9fad577f8d7b0c9a55300b8c4919dd718cd038",
                    "receiptTrie" : "0x1637006da0387d228be95e18bb581e55aa90e42bc0af6686653f9af28ec7b0e8",
                    "stateRoot" : "0xa762d95ec3de291d1db733f25d6a2fcd7ede7d3ae6a5729770a462a96a90cfa3",
                    "timestamp" : "0x03e8",
                    "transactionsTrie" : "0x2565e2f1e35bebd5a681eac42515b5cb6c4e4ded7c4f213397f0c31f32af80b5",
                    "withdrawalsRoot" : "0x56e81f171bcc55a6ff8345e692c0f86e5b48e01b996cadc001622fb5e363b421"
                },
                "rlp" : "0xf902a3f9023aa0307fa88802a419efb26cebb51c9fad577f8d7b0c9a55300b8c4919dd718cd038a01dcc4de8dec75d7aab85b567b6ccd41ad312451b948a7413f0a142fd40d49347942adc25665018aa1fe0e6bc666dac8fc2697ff9baa0a762d95ec3de291d1db733f25d6a2fcd7ede7d3ae6a5729770a462a96a90cfa3a02565e2f1e35bebd5a681eac42515b5cb6c4e4ded7c4f213397f0c31f32af80b5a01637006da0387d228be95e18bb581e55aa90e42bc0af6686653f9af28ec7b0e8b90100000000000000000000000000000000000000000000000000000000000000000000000000000000000000000000000000000000000000000000000000000000000000000000000000000000000000000000000000000000000000000000000000000000000000000000000000000000000000000000000000000000000000000000000000000000000000000000000000000000000000000000000000000000000000000000000000000000000000000000000000000000000000000000000000000000000000000000000000000000000000000000000000000000000000000000000000000000000000000000000000000000000000000000000000000000008001839896808302ed848203e800a000000000000000000000000000000000000000000000000000000000000200008800000000000000000aa056e81f171bcc55a6ff8345e692c0f86e5b48e01b996cadc001622fb5e363b4218080a00000000000000000000000000000000000000000000000000000000000000000f862f860800a8307a12094b00000000000000000000000000000000000000001801ca0d8e6d3c19b21e9f96f6bef54c1ea9331c55247a3a9ac863ef311adbac7de4ceea07e1be33933cee04eb197f8a44efca7d1356f81ac7030c4d902090cda90e13225c0c0",
                "transactions" : [
                    {
                        "data" : "0x",
                        "gasLimit" : "0x07a120",
                        "gasPrice" : "0x0a",
                        "nonce" : "0x00",
                        "r" : "0xd8e6d3c19b21e9f96f6bef54c1ea9331c55247a3a9ac863ef311adbac7de4cee",
                        "s" : "0x7e1be33933cee04eb197f8a44efca7d1356f81ac7030c4d902090cda90e13225",
                        "sender" : "0xa94f5374fce5edbc8e2a8697c15331677e6ebf0b",
                        "to" : "0xb000000000000000000000000000000000000000",
                        "v" : "0x1c",
                        "value" : "0x01"
                    }
                ],
                "uncleHeaders" : [
                ],
                "withdrawals" : [
                ]
            }
        ],
        "config" : {
            "blobSchedule" : {
                "Cancun" : {
                    "baseFeeUpdateFraction" : "0x32f0ed",
                    "max" : "0x06",
                    "target" : "0x03"
                }
            },
            "chainid" : "0x01",
            "network" : "Cancun"
        },
        "genesisBlockHeader" : {
            "baseFeePerGas" : "0x0b",
            "bloom" : "0x00000000000000000000000000000000000000000000000000000000000000000000000000000000000000000000000000000000000000000000000000000000000000000000000000000000000000000000000000000000000000000000000000000000000000000000000000000000000000000000000000000000000000000000000000000000000000000000000000000000000000000000000000000000000000000000000000000000000000000000000000000000000000000000000000000000000000000000000000000000000000000000000000000000000000000000000000000000000000000000000000000000000000000000000000000000",
            "coinbase" : "0x2adc25665018aa1fe0e6bc666dac8fc2697ff9ba",
            "extraData" : "0x00",
            "gasLimit" : "0x989680",
            "gasUsed" : "0x00",
            "hash" : "0x307fa88802a419efb26cebb51c9fad577f8d7b0c9a55300b8c4919dd718cd038",
            "mixHash" : "0x0000000000000000000000000000000000000000000000000000000000020000",
            "nonce" : "0x0000000000000000",
            "number" : "0x00",
            "parentBeaconBlockRoot" : "0x0000000000000000000000000000000000000000000000000000000000000000",
            "parentHash" : "0x0000000000000000000000000000000000000000000000000000000000000000",
            "receiptTrie" : "0x56e81f171bcc55a6ff8345e692c0f86e5b48e01b996cadc001622fb5e363b421",
            "stateRoot" : "0x3ca8488ce22ed357df6b31ef7e15470fab8928db5c9ab18ec6726458c4cdaf6d",
            "timestamp" : "0x00",
            "transactionsTrie" : "0x56e81f171bcc55a6ff8345e692c0f86e5b48e01b996cadc001622fb5e363b421",
            "withdrawalsRoot" : "0x56e81f171bcc55a6ff8345e692c0f86e5b48e01b996cadc001622fb5e363b421"
        },
        "genesisRLP" : "0xf9023ef90238a00000000000000000000000000000000000000000000000000000000000000000a01dcc4de8dec75d7aab85b567b6ccd41ad312451b948a7413f0a142fd40d49347942adc25665018aa1fe0e6bc666dac8fc2697ff9baa03ca8488ce22ed357df6b31ef7e15470fab8928db5c9ab18ec6726458c4cdaf6da056e81f171bcc55a6ff8345e692c0f86e5b48e01b996cadc001622fb5e363b421a056e81f171bcc55a6ff8345e692c0f86e5b48e01b996cadc001622fb5e363b421b9010000000000000000000000000000000000000000000000000000000000000000000000000000000000000000000000000000000000000000000000000000000000000000000000000000000000000000000000000000000000000000000000000000000000000000000000000000000000000000000000000000000000000000000000000000000000000000000000000000000000000000000000000000000000000000000000000000000000000000000000000000000000000000000000000000000000000000000000000000000000000000000000000000000000000000000000000000000000000000000000000000000000000000000000000000000000808083989680808000a000000000000000000000000000000000000000000000000000000000000200008800000000000000000ba056e81f171bcc55a6ff8345e692c0f86e5b48e01b996cadc001622fb5e363b4218083060000a00000000000000000000000000000000000000000000000000000000000000000c0c0c0",
        "lastblockhash" : "0x0f7191608e16dd51087c6d5cbc7ea13ea690d04d383a80e92d8ffdab4481909d",
        "network" : "Cancun",
        "postState" : {
            "0x000f3df6d732807ef1319fb7b8bb8522d0beac02" : {
                "balance" : "0x00",
                "code" : "0x3373fffffffffffffffffffffffffffffffffffffffe14604d57602036146024575f5ffd5b5f35801560495762001fff810690815414603c575f5ffd5b62001fff01545f5260205ff35b5f5ffd5b62001fff42064281555f359062001fff015500",
                "nonce" : "0x01",
                "storage" : {
                    "0x03e8" : "0x03e8"
                }
            },
            "0xa000000000000000000000000000000000000000" : {
                "balance" : "0x00",
                "code" : "0x6020600060006000600073c00000000000000000000000000000000000000062055730f200",
                "nonce" : "0x00",
                "storage" : {
                }
            },
            "0xa94f5374fce5edbc8e2a8697c15331677e6ebf0b" : {
                "balance" : "0x1bc16d674eaab8d7",
                "code" : "0x",
                "nonce" : "0x01",
                "storage" : {
                }
            },
            "0xb000000000000000000000000000000000000000" : {
                "balance" : "0x0de0b6b3a7640001",
                "code" : "0x73a0000000000000000000000000000000000000003f60015573a0000000000000000000000000000000000000003b60025560206000600073a0000000000000000000000000000000000000003c6000516003556020600060006000600073a00000000000000000000000000000000000000062055730f15073a0000000000000000000000000000000000000003f60045573a0000000000000000000000000000000000000003b60055560206000600073a0000000000000000000000000000000000000003c6000516006556020600060006000600073a00000000000000000000000000000000000000062055730f160075500",
                "nonce" : "0x00",
                "storage" : {
                    "0x01" : "0x367d3c0e810bbdebc72c25e80dcb9a337c7c87e3a36e6fae87d1d51b3c745d24",
                    "0x02" : "0x25",
                    "0x03" : "0x6020600060006000600073c00000000000000000000000000000000000000062",
                    "0x04" : "0x367d3c0e810bbdebc72c25e80dcb9a337c7c87e3a36e6fae87d1d51b3c745d24",
                    "0x05" : "0x25",
                    "0x06" : "0x6020600060006000600073c00000000000000000000000000000000000000062",
                    "0x07" : "0x01"
                }
            },
            "0xc000000000000000000000000000000000000000" : {
                "balance" : "0x0de0b6b3a7640000",
                "code" : "0x73a94f5374fce5edbc8e2a8697c15331677e6ebf0bff00",
                "nonce" : "0x00",
                "storage" : {
                }
            }
        },
        "pre" : {
            "0x000f3df6d732807ef1319fb7b8bb8522d0beac02" : {
                "balance" : "0x00",
                "code" : "0x3373fffffffffffffffffffffffffffffffffffffffe14604d57602036146024575f5ffd5b5f35801560495762001fff810690815414603c575f5ffd5b62001fff01545f5260205ff35b5f5ffd5b62001fff42064281555f359062001fff015500",
                "nonce" : "0x01",
                "storage" : {
                }
            },
            "0xa000000000000000000000000000000000000000" : {
                "balance" : "0x0de0b6b3a7640000",
                "code" : "0x6020600060006000600073c00000000000000000000000000000000000000062055730f200",
                "nonce" : "0x00",
                "storage" : {
                }
            },
            "0xa94f5374fce5edbc8e2a8697c15331677e6ebf0b" : {
                "balance" : "0x0de0b6b3a7640000",
                "code" : "0x",
                "nonce" : "0x00",
                "storage" : {
                }
            },
            "0xb000000000000000000000000000000000000000" : {
                "balance" : "0x0de0b6b3a7640000",
                "code" : "0x73a0000000000000000000000000000000000000003f60015573a0000000000000000000000000000000000000003b60025560206000600073a0000000000000000000000000000000000000003c6000516003556020600060006000600073a00000000000000000000000000000000000000062055730f15073a0000000000000000000000000000000000000003f60045573a0000000000000000000000000000000000000003b60055560206000600073a0000000000000000000000000000000000000003c6000516006556020600060006000600073a00000000000000000000000000000000000000062055730f160075500",
                "nonce" : "0x00",
                "storage" : {
                }
            },
            "0xc000000000000000000000000000000000000000" : {
                "balance" : "0x0de0b6b3a7640000",
                "code" : "0x73a94f5374fce5edbc8e2a8697c15331677e6ebf0bff00",
                "nonce" : "0x00",
                "storage" : {
                }
            }
        },
        "sealEngine" : "NoProof"
    },
    "extCodeHashSubcallSuicide_d0g0v0_Prague" : {
        "_info" : {
            "comment" : "transaction to B | B call to A | A delegatecall/callcode to C (C has selfdestruct) | A selfdestructed. returned to B. now we could check extcodehash of A (in account B code)",
            "filling-rpc-server" : "evmone-t8n 0.14.0-13+commit.4d363c36",
            "filling-tool-version" : "retesteth-0.3.2-legacy+commit.ca7f4c79.Linux.g++",
            "fixture-format" : "blockchain_test",
            "generatedTestHash" : "d8222270872a0c5a8ca70a49617be4816f667017e644461dc51fcc046aa0e409",
            "lllcversion" : "Version: 0.5.14-develop.2024.11.5+commit.b2b86751.mod.Linux.g++",
            "solidity" : "Version: 0.8.24+commit.e11b9ed9.Linux.g++",
            "source" : "src/GeneralStateTestsFiller/stExtCodeHash/extCodeHashSubcallSuicideFiller.yml",
            "sourceHash" : "d59c0a1e1fb9cf5a015302c7b5ece0d9f0327714490bec02ea98e56c20b90e8e"
        },
        "blocks" : [
            {
                "blockHeader" : {
                    "baseFeePerGas" : "0x0a",
                    "bloom" : "0x00000000000000000000000000000000000000000000000000000000000000000000000000000000000000000000000000000000000000000000000000000000000000000000000000000000000000000000000000000000000000000000000000000000000000000000000000000000000000000000000000000000000000000000000000000000000000000000000000000000000000000000000000000000000000000000000000000000000000000000000000000000000000000000000000000000000000000000000000000000000000000000000000000000000000000000000000000000000000000000000000000000000000000000000000000000",
                    "coinbase" : "0x2adc25665018aa1fe0e6bc666dac8fc2697ff9ba",
                    "extraData" : "0x00",
                    "gasLimit" : "0x989680",
                    "gasUsed" : "0x02ed84",
                    "hash" : "0xb32cbb9568437143b5593046e3e8927c9e838797b83a4c2f6158c95ff571be0e",
                    "mixHash" : "0x0000000000000000000000000000000000000000000000000000000000020000",
                    "nonce" : "0x0000000000000000",
                    "number" : "0x01",
                    "parentBeaconBlockRoot" : "0x0000000000000000000000000000000000000000000000000000000000000000",
                    "parentHash" : "0xa6f14172493f4b66413eea0b25619de3a650a82064de33526d3951c58f0dcaa7",
                    "receiptTrie" : "0x1637006da0387d228be95e18bb581e55aa90e42bc0af6686653f9af28ec7b0e8",
                    "requestsHash" : "0xe3b0c44298fc1c149afbf4c8996fb92427ae41e4649b934ca495991b7852b855",
                    "stateRoot" : "0x3c4c6597f3581a44a31d9ded9bdd919031355979fa35c8fc03a875ea21b133ec",
                    "timestamp" : "0x03e8",
                    "transactionsTrie" : "0x2565e2f1e35bebd5a681eac42515b5cb6c4e4ded7c4f213397f0c31f32af80b5",
                    "withdrawalsRoot" : "0x56e81f171bcc55a6ff8345e692c0f86e5b48e01b996cadc001622fb5e363b421"
                },
                "rlp" : "0xf902c4f9025ba0a6f14172493f4b66413eea0b25619de3a650a82064de33526d3951c58f0dcaa7a01dcc4de8dec75d7aab85b567b6ccd41ad312451b948a7413f0a142fd40d49347942adc25665018aa1fe0e6bc666dac8fc2697ff9baa03c4c6597f3581a44a31d9ded9bdd919031355979fa35c8fc03a875ea21b133eca02565e2f1e35bebd5a681eac42515b5cb6c4e4ded7c4f213397f0c31f32af80b5a01637006da0387d228be95e18bb581e55aa90e42bc0af6686653f9af28ec7b0e8b90100000000000000000000000000000000000000000000000000000000000000000000000000000000000000000000000000000000000000000000000000000000000000000000000000000000000000000000000000000000000000000000000000000000000000000000000000000000000000000000000000000000000000000000000000000000000000000000000000000000000000000000000000000000000000000000000000000000000000000000000000000000000000000000000000000000000000000000000000000000000000000000000000000000000000000000000000000000000000000000000000000000000000000000000000000000008001839896808302ed848203e800a000000000000000000000000000000000000000000000000000000000000200008800000000000000000aa056e81f171bcc55a6ff8345e692c0f86e5b48e01b996cadc001622fb5e363b4218080a00000000000000000000000000000000000000000000000000000000000000000a0e3b0c44298fc1c149afbf4c8996fb92427ae41e4649b934ca495991b7852b855f862f860800a8307a12094b00000000000000000000000000000000000000001801ca0d8e6d3c19b21e9f96f6bef54c1ea9331c55247a3a9ac863ef311adbac7de4ceea07e1be33933cee04eb197f8a44efca7d1356f81ac7030c4d902090cda90e13225c0c0",
                "transactions" : [
                    {
                        "data" : "0x",
                        "gasLimit" : "0x07a120",
                        "gasPrice" : "0x0a",
                        "nonce" : "0x00",
                        "r" : "0xd8e6d3c19b21e9f96f6bef54c1ea9331c55247a3a9ac863ef311adbac7de4cee",
                        "s" : "0x7e1be33933cee04eb197f8a44efca7d1356f81ac7030c4d902090cda90e13225",
                        "sender" : "0xa94f5374fce5edbc8e2a8697c15331677e6ebf0b",
                        "to" : "0xb000000000000000000000000000000000000000",
                        "v" : "0x1c",
                        "value" : "0x01"
                    }
                ],
                "uncleHeaders" : [
                ],
                "withdrawals" : [
                ]
            }
        ],
        "config" : {
            "blobSchedule" : {
                "Prague" : {
                    "baseFeeUpdateFraction" : "0x4c6964",
                    "max" : "0x09",
                    "target" : "0x06"
                }
            },
            "chainid" : "0x01",
            "network" : "Prague"
        },
        "genesisBlockHeader" : {
            "baseFeePerGas" : "0x0b",
            "bloom" : "0x00000000000000000000000000000000000000000000000000000000000000000000000000000000000000000000000000000000000000000000000000000000000000000000000000000000000000000000000000000000000000000000000000000000000000000000000000000000000000000000000000000000000000000000000000000000000000000000000000000000000000000000000000000000000000000000000000000000000000000000000000000000000000000000000000000000000000000000000000000000000000000000000000000000000000000000000000000000000000000000000000000000000000000000000000000000",
            "coinbase" : "0x2adc25665018aa1fe0e6bc666dac8fc2697ff9ba",
            "extraData" : "0x00",
            "gasLimit" : "0x989680",
            "gasUsed" : "0x00",
            "hash" : "0xa6f14172493f4b66413eea0b25619de3a650a82064de33526d3951c58f0dcaa7",
            "mixHash" : "0x0000000000000000000000000000000000000000000000000000000000020000",
            "nonce" : "0x0000000000000000",
            "number" : "0x00",
            "parentBeaconBlockRoot" : "0x0000000000000000000000000000000000000000000000000000000000000000",
            "parentHash" : "0x0000000000000000000000000000000000000000000000000000000000000000",
            "receiptTrie" : "0x56e81f171bcc55a6ff8345e692c0f86e5b48e01b996cadc001622fb5e363b421",
            "requestsHash" : "0xe3b0c44298fc1c149afbf4c8996fb92427ae41e4649b934ca495991b7852b855",
            "stateRoot" : "0xea858d483cf6c1fa4eeae6e56e24e25eeb4d899771266d2cd0d777c47ddc4b55",
            "timestamp" : "0x00",
            "transactionsTrie" : "0x56e81f171bcc55a6ff8345e692c0f86e5b48e01b996cadc001622fb5e363b421",
            "withdrawalsRoot" : "0x56e81f171bcc55a6ff8345e692c0f86e5b48e01b996cadc001622fb5e363b421"
        },
        "genesisRLP" : "0xf9025ff90259a00000000000000000000000000000000000000000000000000000000000000000a01dcc4de8dec75d7aab85b567b6ccd41ad312451b948a7413f0a142fd40d49347942adc25665018aa1fe0e6bc666dac8fc2697ff9baa0ea858d483cf6c1fa4eeae6e56e24e25eeb4d899771266d2cd0d777c47ddc4b55a056e81f171bcc55a6ff8345e692c0f86e5b48e01b996cadc001622fb5e363b421a056e81f171bcc55a6ff8345e692c0f86e5b48e01b996cadc001622fb5e363b421b9010000000000000000000000000000000000000000000000000000000000000000000000000000000000000000000000000000000000000000000000000000000000000000000000000000000000000000000000000000000000000000000000000000000000000000000000000000000000000000000000000000000000000000000000000000000000000000000000000000000000000000000000000000000000000000000000000000000000000000000000000000000000000000000000000000000000000000000000000000000000000000000000000000000000000000000000000000000000000000000000000000000000000000000000000000000000808083989680808000a000000000000000000000000000000000000000000000000000000000000200008800000000000000000ba056e81f171bcc55a6ff8345e692c0f86e5b48e01b996cadc001622fb5e363b4218083060000a00000000000000000000000000000000000000000000000000000000000000000a0e3b0c44298fc1c149afbf4c8996fb92427ae41e4649b934ca495991b7852b855c0c0c0",
        "lastblockhash" : "0xb32cbb9568437143b5593046e3e8927c9e838797b83a4c2f6158c95ff571be0e",
        "network" : "Prague",
        "postState" : {
            "0x0000f90827f1c53a10cb7a02335b175320002935" : {
                "balance" : "0x00",
                "code" : "0x3373fffffffffffffffffffffffffffffffffffffffe14604657602036036042575f35600143038111604257611fff81430311604257611fff9006545f5260205ff35b5f5ffd5b5f35611fff60014303065500",
                "nonce" : "0x01",
                "storage" : {
                    "0x00" : "0xa6f14172493f4b66413eea0b25619de3a650a82064de33526d3951c58f0dcaa7"
                }
            },
            "0x000f3df6d732807ef1319fb7b8bb8522d0beac02" : {
                "balance" : "0x00",
                "code" : "0x3373fffffffffffffffffffffffffffffffffffffffe14604d57602036146024575f5ffd5b5f35801560495762001fff810690815414603c575f5ffd5b62001fff01545f5260205ff35b5f5ffd5b62001fff42064281555f359062001fff015500",
                "nonce" : "0x01",
                "storage" : {
                    "0x03e8" : "0x03e8"
                }
            },
            "0xa000000000000000000000000000000000000000" : {
                "balance" : "0x00",
                "code" : "0x6020600060006000600073c00000000000000000000000000000000000000062055730f200",
                "nonce" : "0x00",
                "storage" : {
                }
            },
            "0xa94f5374fce5edbc8e2a8697c15331677e6ebf0b" : {
                "balance" : "0x1bc16d674eaab8d7",
                "code" : "0x",
                "nonce" : "0x01",
                "storage" : {
                }
            },
            "0xb000000000000000000000000000000000000000" : {
                "balance" : "0x0de0b6b3a7640001",
                "code" : "0x73a0000000000000000000000000000000000000003f60015573a0000000000000000000000000000000000000003b60025560206000600073a0000000000000000000000000000000000000003c6000516003556020600060006000600073a00000000000000000000000000000000000000062055730f15073a0000000000000000000000000000000000000003f60045573a0000000000000000000000000000000000000003b60055560206000600073a0000000000000000000000000000000000000003c6000516006556020600060006000600073a00000000000000000000000000000000000000062055730f160075500",
                "nonce" : "0x00",
                "storage" : {
                    "0x01" : "0x367d3c0e810bbdebc72c25e80dcb9a337c7c87e3a36e6fae87d1d51b3c745d24",
                    "0x02" : "0x25",
                    "0x03" : "0x6020600060006000600073c00000000000000000000000000000000000000062",
                    "0x04" : "0x367d3c0e810bbdebc72c25e80dcb9a337c7c87e3a36e6fae87d1d51b3c745d24",
                    "0x05" : "0x25",
                    "0x06" : "0x6020600060006000600073c00000000000000000000000000000000000000062",
                    "0x07" : "0x01"
                }
            },
            "0xc000000000000000000000000000000000000000" : {
                "balance" : "0x0de0b6b3a7640000",
                "code" : "0x73a94f5374fce5edbc8e2a8697c15331677e6ebf0bff00",
                "nonce" : "0x00",
                "storage" : {
                }
            }
        },
        "pre" : {
            "0x0000f90827f1c53a10cb7a02335b175320002935" : {
                "balance" : "0x00",
                "code" : "0x3373fffffffffffffffffffffffffffffffffffffffe14604657602036036042575f35600143038111604257611fff81430311604257611fff9006545f5260205ff35b5f5ffd5b5f35611fff60014303065500",
                "nonce" : "0x01",
                "storage" : {
                }
            },
            "0x000f3df6d732807ef1319fb7b8bb8522d0beac02" : {
                "balance" : "0x00",
                "code" : "0x3373fffffffffffffffffffffffffffffffffffffffe14604d57602036146024575f5ffd5b5f35801560495762001fff810690815414603c575f5ffd5b62001fff01545f5260205ff35b5f5ffd5b62001fff42064281555f359062001fff015500",
                "nonce" : "0x01",
                "storage" : {
                }
            },
            "0xa000000000000000000000000000000000000000" : {
                "balance" : "0x0de0b6b3a7640000",
                "code" : "0x6020600060006000600073c00000000000000000000000000000000000000062055730f200",
                "nonce" : "0x00",
                "storage" : {
                }
            },
            "0xa94f5374fce5edbc8e2a8697c15331677e6ebf0b" : {
                "balance" : "0x0de0b6b3a7640000",
                "code" : "0x",
                "nonce" : "0x00",
                "storage" : {
                }
            },
            "0xb000000000000000000000000000000000000000" : {
                "balance" : "0x0de0b6b3a7640000",
                "code" : "0x73a0000000000000000000000000000000000000003f60015573a0000000000000000000000000000000000000003b60025560206000600073a0000000000000000000000000000000000000003c6000516003556020600060006000600073a00000000000000000000000000000000000000062055730f15073a0000000000000000000000000000000000000003f60045573a0000000000000000000000000000000000000003b60055560206000600073a0000000000000000000000000000000000000003c6000516006556020600060006000600073a00000000000000000000000000000000000000062055730f160075500",
                "nonce" : "0x00",
                "storage" : {
                }
            },
            "0xc000000000000000000000000000000000000000" : {
                "balance" : "0x0de0b6b3a7640000",
                "code" : "0x73a94f5374fce5edbc8e2a8697c15331677e6ebf0bff00",
                "nonce" : "0x00",
                "storage" : {
                }
            }
        },
        "sealEngine" : "NoProof"
    }
}