{
    "extCodeHashDeletedAccount_d0g0v0_Cancun" : {
        "_info" : {
            "comment" : "Get account A (aaaaaaaa00000000000000000000000000000000) code hash, code size, and code\nCalls Account A's code which causes self destruction of A\nGet account A codehash, code size and code\nIt is still getting the same values because selfdestruct is performed\nat the end of transaction during state finalization stage.\n",
            "filling-rpc-server" : "evmone-t8n 0.14.0-13+commit.4d363c36",
            "filling-tool-version" : "retesteth-0.3.2-legacy+commit.ca7f4c79.Linux.g++",
            "fixture-format" : "blockchain_test",
            "generatedTestHash" : "10a8c9cc975bb0e06dfa5f7879ff3e6818b35b8672c44e42e9962d4a2f5db3ef",
            "lllcversion" : "Version: 0.5.14-develop.2024.11.5+commit.b2b86751.mod.Linux.g++",
            "hyperion" : "Version: 0.8.24+commit.e11b9ed9.Linux.g++",
            "source" : "src/GeneralStateTestsFiller/stExtCodeHash/extCodeHashDeletedAccountFiller.yml",
            "sourceHash" : "4c4446856abcfafd0e9195972b7a9d9a0a9a99f5d09083b1498f38161dbe4553"
        },
        "blocks" : [
            {
                "blockHeader" : {
                    "baseFeePerGas" : "0x0a",
                    "bloom" : "0x00000000000000000000000000000000000000000000000000000000000000000000000000000000000000000000000000000000000000000000000000000000000000000000000000000000000000000000000000000000000000000000000000000000000000000000000000000000000000000000000000000000000000000000000000000000000000000000000000000000000000000000000000000000000000000000000000000000000000000000000000000000000000000000000000000000000000000000000000000000000000000000000000000000000000000000000000000000000000000000000000000000000000000000000000000000",
                    "coinbase" : "Z2adc25665018aa1fe0e6bc666dac8fc2697ff9ba",
                    "extraData" : "0x00",
                    "gasLimit" : "0x0f4240",
                    "gasUsed" : "0x029a23",
                    "hash" : "0x3d566d3b4d6fc5c0f8c15f2dc5908b38130c629ee80ae6ecda99ad7702b4f5ca",
                    "mixHash" : "0x0000000000000000000000000000000000000000000000000000000000020000",
                    "nonce" : "0x0000000000000000",
                    "number" : "0x01",
                    "parentHash" : "0xfe4d24db9c62d038b0927077e9e5ce6f4e12dc56b3fcc8f3496d759a04f2c427",
                    "receiptTrie" : "0xc97852573e8a20a398f3298c38908d253cc33688637a35d8770c3a4bb2aff0a0",
                    "stateRoot" : "0x5d0b666d85673c8b2d238c8a306d9e57e3e8693ecd3ffb536c54eca76ad02277",
                    "timestamp" : "0x03e8",
                    "transactionsTrie" : "0x174ccc4f3050aca8eb96ee492d7f77c48698de3988b3a422e2bc6974348182c0",
                    "withdrawalsRoot" : "0x56e81f171bcc55a6ff8345e692c0f86e5b48e01b996cadc001622fb5e363b421"
                },
                "rlp" : "0xf902a3f9023aa0fe4d24db9c62d038b0927077e9e5ce6f4e12dc56b3fcc8f3496d759a04f2c427a01dcc4de8dec75d7aab85b567b6ccd41ad312451b948a7413f0a142fd40d49347942adc25665018aa1fe0e6bc666dac8fc2697ff9baa05d0b666d85673c8b2d238c8a306d9e57e3e8693ecd3ffb536c54eca76ad02277a0174ccc4f3050aca8eb96ee492d7f77c48698de3988b3a422e2bc6974348182c0a0c97852573e8a20a398f3298c38908d253cc33688637a35d8770c3a4bb2aff0a0b90100000000000000000000000000000000000000000000000000000000000000000000000000000000000000000000000000000000000000000000000000000000000000000000000000000000000000000000000000000000000000000000000000000000000000000000000000000000000000000000000000000000000000000000000000000000000000000000000000000000000000000000000000000000000000000000000000000000000000000000000000000000000000000000000000000000000000000000000000000000000000000000000000000000000000000000000000000000000000000000000000000000000000000000000000000000008001830f424083029a238203e800a000000000000000000000000000000000000000000000000000000000000200008800000000000000000aa056e81f171bcc55a6ff8345e692c0f86e5b48e01b996cadc001622fb5e363b4218080a00000000000000000000000000000000000000000000000000000000000000000f862f860800a83061a8094095e7baea6a6c7c4c2dfeb977efac326af552d8701801ca09d46b87169053cc40670aef750b032c895cde3e35c2c7f5a37c059272e0914c7a04d4a94b67b2776cc3e0fca2ed9503c10fd92ec79f1b2dcbb85df9634c7de3119c0c0",
                "transactions" : [
                    {
                        "data" : "0x",
                        "gasLimit" : "0x061a80",
                        "gasPrice" : "0x0a",
                        "nonce" : "0x00",
                        "signature" : "0x9d46b87169053cc40670aef750b032c895cde3e35c2c7f5a37c059272e0914c7",
                        "publicKey" : "0x4d4a94b67b2776cc3e0fca2ed9503c10fd92ec79f1b2dcbb85df9634c7de3119",
                        "sender" : "Za94f5374fce5edbc8e2a8697c15331677e6ebf0b",
                        "to" : "0x095e7baea6a6c7c4c2dfeb977efac326af552d87",
                        "v" : "0x1c",
                        "value" : "0x01"
                    }
                ],
                "uncleHeaders" : [
                ],
                "withdrawals" : [
                ]
            }
        ],
        "config" : {
            "blobSchedule" : {
                "Cancun" : {
                    "baseFeeUpdateFraction" : "0x32f0ed",
                    "max" : "0x06",
                    "target" : "0x03"
                }
            },
            "chainid" : "0x01",
            "network" : "Cancun"
        },
        "genesisBlockHeader" : {
            "baseFeePerGas" : "0x0b",
            "bloom" : "0x00000000000000000000000000000000000000000000000000000000000000000000000000000000000000000000000000000000000000000000000000000000000000000000000000000000000000000000000000000000000000000000000000000000000000000000000000000000000000000000000000000000000000000000000000000000000000000000000000000000000000000000000000000000000000000000000000000000000000000000000000000000000000000000000000000000000000000000000000000000000000000000000000000000000000000000000000000000000000000000000000000000000000000000000000000000",
            "coinbase" : "Z2adc25665018aa1fe0e6bc666dac8fc2697ff9ba",
            "extraData" : "0x00",
            "gasLimit" : "0x0f4240",
            "gasUsed" : "0x00",
            "hash" : "0xfe4d24db9c62d038b0927077e9e5ce6f4e12dc56b3fcc8f3496d759a04f2c427",
            "mixHash" : "0x0000000000000000000000000000000000000000000000000000000000020000",
            "nonce" : "0x0000000000000000",
            "number" : "0x00",
            "parentHash" : "0x0000000000000000000000000000000000000000000000000000000000000000",
            "receiptTrie" : "0x56e81f171bcc55a6ff8345e692c0f86e5b48e01b996cadc001622fb5e363b421",
            "stateRoot" : "0x53d1421f7d4ec4ada18304f3f9aed014d6a24734ac56ff002c6374e3561f15db",
            "timestamp" : "0x00",
            "transactionsTrie" : "0x56e81f171bcc55a6ff8345e692c0f86e5b48e01b996cadc001622fb5e363b421",
            "withdrawalsRoot" : "0x56e81f171bcc55a6ff8345e692c0f86e5b48e01b996cadc001622fb5e363b421"
        },
        "genesisRLP" : "0xf9023ef90238a00000000000000000000000000000000000000000000000000000000000000000a01dcc4de8dec75d7aab85b567b6ccd41ad312451b948a7413f0a142fd40d49347942adc25665018aa1fe0e6bc666dac8fc2697ff9baa053d1421f7d4ec4ada18304f3f9aed014d6a24734ac56ff002c6374e3561f15dba056e81f171bcc55a6ff8345e692c0f86e5b48e01b996cadc001622fb5e363b421a056e81f171bcc55a6ff8345e692c0f86e5b48e01b996cadc001622fb5e363b421b90100000000000000000000000000000000000000000000000000000000000000000000000000000000000000000000000000000000000000000000000000000000000000000000000000000000000000000000000000000000000000000000000000000000000000000000000000000000000000000000000000000000000000000000000000000000000000000000000000000000000000000000000000000000000000000000000000000000000000000000000000000000000000000000000000000000000000000000000000000000000000000000000000000000000000000000000000000000000000000000000000000000000000000000000000000000008080830f4240808000a000000000000000000000000000000000000000000000000000000000000200008800000000000000000ba056e81f171bcc55a6ff8345e692c0f86e5b48e01b996cadc001622fb5e363b4218083060000a00000000000000000000000000000000000000000000000000000000000000000c0c0c0",
        "lastblockhash" : "0x3d566d3b4d6fc5c0f8c15f2dc5908b38130c629ee80ae6ecda99ad7702b4f5ca",
        "network" : "Cancun",
        "postState" : {
            "Z000f3df6d732807ef1319fb7b8bb8522d0beac02" : {
                "balance" : "0x00",
                "code" : "0x3373fffffffffffffffffffffffffffffffffffffffe14604d57602036146024575f5ffd5b5f35801560495762001fff810690815414603c575f5ffd5b62001fff01545f5260205ff35b5f5ffd5b62001fff42064281555f359062001fff015500",
                "nonce" : "0x01",
                "storage" : {
                    "0x03e8" : "0x03e8"
                }
            },
            "Z095e7baea6a6c7c4c2dfeb977efac326af552d87" : {
                "balance" : "0x0de0b6b3a7640001",
                "code" : "0x6020600060006000600073deadbeef00000000000000000000000000000000620249f0f1506020600060003e6000516000556020600060006000600073deadbeef00000000000000000000000000000001620249f0f1506020600060003e6000516001556020600060006000600073deadbeef00000000000000000000000000000002620249f0f1506020600060003e6000516002556020600060006000600073aaaaaaaa00000000000000000000000000000000620249f0f1506020600060006000600073deadbeef00000000000000000000000000000000620249f0f1506020600060003e6000516003556020600060006000600073deadbeef00000000000000000000000000000001620249f0f1506020600060003e6000516004556020600060006000600073deadbeef00000000000000000000000000000002620249f0f1506020600060003e60005160055500",
                "nonce" : "0x00",
                "storage" : {
                    "0x00" : "0xaa174f6647c45e8a984f39062ca89ccc3588c787d91106cfd57df387bd504efc",
                    "0x01" : "0x17",
                    "0x02" : "0x73deadbeef00000000000000000000000000000000ff00000000000000000000",
                    "0x03" : "0xaa174f6647c45e8a984f39062ca89ccc3588c787d91106cfd57df387bd504efc",
                    "0x04" : "0x17",
                    "0x05" : "0x73deadbeef00000000000000000000000000000000ff00000000000000000000"
                }
            },
            "Za94f5374fce5edbc8e2a8697c15331677e6ebf0b" : {
                "balance" : "0x0de0b6b3a749faa1",
                "code" : "0x",
                "nonce" : "0x01",
                "storage" : {
                }
            },
            "Zaaaaaaaa00000000000000000000000000000000" : {
                "balance" : "0x00",
                "code" : "0x73deadbeef00000000000000000000000000000000ff00",
                "nonce" : "0x00",
                "storage" : {
                }
            },
            "Zdeadbeef00000000000000000000000000000000" : {
                "balance" : "0x1bc16d674ec80000",
                "code" : "0x73aaaaaaaa000000000000000000000000000000003f60005260206000f300",
                "nonce" : "0x00",
                "storage" : {
                }
            },
            "Zdeadbeef00000000000000000000000000000001" : {
                "balance" : "0x0de0b6b3a7640000",
                "code" : "0x73aaaaaaaa000000000000000000000000000000003b60005260206000f300",
                "nonce" : "0x00",
                "storage" : {
                }
            },
            "Zdeadbeef00000000000000000000000000000002" : {
                "balance" : "0x0de0b6b3a7640000",
                "code" : "0x73aaaaaaaa000000000000000000000000000000003b6000600073aaaaaaaa000000000000000000000000000000003c60206000f300",
                "nonce" : "0x00",
                "storage" : {
                }
            }
        },
        "pre" : {
            "Z000f3df6d732807ef1319fb7b8bb8522d0beac02" : {
                "balance" : "0x00",
                "code" : "0x3373fffffffffffffffffffffffffffffffffffffffe14604d57602036146024575f5ffd5b5f35801560495762001fff810690815414603c575f5ffd5b62001fff01545f5260205ff35b5f5ffd5b62001fff42064281555f359062001fff015500",
                "nonce" : "0x01",
                "storage" : {
                }
            },
            "Z095e7baea6a6c7c4c2dfeb977efac326af552d87" : {
                "balance" : "0x0de0b6b3a7640000",
                "code" : "0x6020600060006000600073deadbeef00000000000000000000000000000000620249f0f1506020600060003e6000516000556020600060006000600073deadbeef00000000000000000000000000000001620249f0f1506020600060003e6000516001556020600060006000600073deadbeef00000000000000000000000000000002620249f0f1506020600060003e6000516002556020600060006000600073aaaaaaaa00000000000000000000000000000000620249f0f1506020600060006000600073deadbeef00000000000000000000000000000000620249f0f1506020600060003e6000516003556020600060006000600073deadbeef00000000000000000000000000000001620249f0f1506020600060003e6000516004556020600060006000600073deadbeef00000000000000000000000000000002620249f0f1506020600060003e60005160055500",
                "nonce" : "0x00",
                "storage" : {
                }
            },
            "Za94f5374fce5edbc8e2a8697c15331677e6ebf0b" : {
                "balance" : "0x0de0b6b3a7640000",
                "code" : "0x",
                "nonce" : "0x00",
                "storage" : {
                }
            },
            "Zaaaaaaaa00000000000000000000000000000000" : {
                "balance" : "0x0de0b6b3a7640000",
                "code" : "0x73deadbeef00000000000000000000000000000000ff00",
                "nonce" : "0x00",
                "storage" : {
                }
            },
            "Zdeadbeef00000000000000000000000000000000" : {
                "balance" : "0x0de0b6b3a7640000",
                "code" : "0x73aaaaaaaa000000000000000000000000000000003f60005260206000f300",
                "nonce" : "0x00",
                "storage" : {
                }
            },
            "Zdeadbeef00000000000000000000000000000001" : {
                "balance" : "0x0de0b6b3a7640000",
                "code" : "0x73aaaaaaaa000000000000000000000000000000003b60005260206000f300",
                "nonce" : "0x00",
                "storage" : {
                }
            },
            "Zdeadbeef00000000000000000000000000000002" : {
                "balance" : "0x0de0b6b3a7640000",
                "code" : "0x73aaaaaaaa000000000000000000000000000000003b6000600073aaaaaaaa000000000000000000000000000000003c60206000f300",
                "nonce" : "0x00",
                "storage" : {
                }
            }
        },
        "sealEngine" : "NoProof"
    },
    "extCodeHashDeletedAccount_d0g0v0_Prague" : {
        "_info" : {
            "comment" : "Get account A (aaaaaaaa00000000000000000000000000000000) code hash, code size, and code\nCalls Account A's code which causes self destruction of A\nGet account A codehash, code size and code\nIt is still getting the same values because selfdestruct is performed\nat the end of transaction during state finalization stage.\n",
            "filling-rpc-server" : "evmone-t8n 0.14.0-13+commit.4d363c36",
            "filling-tool-version" : "retesteth-0.3.2-legacy+commit.ca7f4c79.Linux.g++",
            "fixture-format" : "blockchain_test",
            "generatedTestHash" : "ed41f6715e377066a6c979287b48ac40eaf1883b05d3c5a221050069f7466472",
            "lllcversion" : "Version: 0.5.14-develop.2024.11.5+commit.b2b86751.mod.Linux.g++",
            "hyperion" : "Version: 0.8.24+commit.e11b9ed9.Linux.g++",
            "source" : "src/GeneralStateTestsFiller/stExtCodeHash/extCodeHashDeletedAccountFiller.yml",
            "sourceHash" : "4c4446856abcfafd0e9195972b7a9d9a0a9a99f5d09083b1498f38161dbe4553"
        },
        "blocks" : [
            {
                "blockHeader" : {
                    "baseFeePerGas" : "0x0a",
                    "bloom" : "0x00000000000000000000000000000000000000000000000000000000000000000000000000000000000000000000000000000000000000000000000000000000000000000000000000000000000000000000000000000000000000000000000000000000000000000000000000000000000000000000000000000000000000000000000000000000000000000000000000000000000000000000000000000000000000000000000000000000000000000000000000000000000000000000000000000000000000000000000000000000000000000000000000000000000000000000000000000000000000000000000000000000000000000000000000000000",
                    "coinbase" : "Z2adc25665018aa1fe0e6bc666dac8fc2697ff9ba",
                    "extraData" : "0x00",
                    "gasLimit" : "0x0f4240",
                    "gasUsed" : "0x029a23",
                    "hash" : "0x3e521b6649eaa5a8c8474bff7a049470108075d2d1e6a577b9dbf6f32b0931c9",
                    "mixHash" : "0x0000000000000000000000000000000000000000000000000000000000020000",
                    "nonce" : "0x0000000000000000",
                    "number" : "0x01",
                    "parentHash" : "0x384eb6ff648f3db6c2c92570ab794e7e12d40b35e2668e2f967afcdb46dcef8f",
                    "receiptTrie" : "0xc97852573e8a20a398f3298c38908d253cc33688637a35d8770c3a4bb2aff0a0",
                    "requestsHash" : "0xe3b0c44298fc1c149afbf4c8996fb92427ae41e4649b934ca495991b7852b855",
                    "stateRoot" : "0x01deae76abbc85cce241902a7a8976fe29c6827b0f1e350c5454076ceecff647",
                    "timestamp" : "0x03e8",
                    "transactionsTrie" : "0x174ccc4f3050aca8eb96ee492d7f77c48698de3988b3a422e2bc6974348182c0",
                    "withdrawalsRoot" : "0x56e81f171bcc55a6ff8345e692c0f86e5b48e01b996cadc001622fb5e363b421"
                },
                "rlp" : "0xf902c4f9025ba0384eb6ff648f3db6c2c92570ab794e7e12d40b35e2668e2f967afcdb46dcef8fa01dcc4de8dec75d7aab85b567b6ccd41ad312451b948a7413f0a142fd40d49347942adc25665018aa1fe0e6bc666dac8fc2697ff9baa001deae76abbc85cce241902a7a8976fe29c6827b0f1e350c5454076ceecff647a0174ccc4f3050aca8eb96ee492d7f77c48698de3988b3a422e2bc6974348182c0a0c97852573e8a20a398f3298c38908d253cc33688637a35d8770c3a4bb2aff0a0b90100000000000000000000000000000000000000000000000000000000000000000000000000000000000000000000000000000000000000000000000000000000000000000000000000000000000000000000000000000000000000000000000000000000000000000000000000000000000000000000000000000000000000000000000000000000000000000000000000000000000000000000000000000000000000000000000000000000000000000000000000000000000000000000000000000000000000000000000000000000000000000000000000000000000000000000000000000000000000000000000000000000000000000000000000000000008001830f424083029a238203e800a000000000000000000000000000000000000000000000000000000000000200008800000000000000000aa056e81f171bcc55a6ff8345e692c0f86e5b48e01b996cadc001622fb5e363b4218080a00000000000000000000000000000000000000000000000000000000000000000a0e3b0c44298fc1c149afbf4c8996fb92427ae41e4649b934ca495991b7852b855f862f860800a83061a8094095e7baea6a6c7c4c2dfeb977efac326af552d8701801ca09d46b87169053cc40670aef750b032c895cde3e35c2c7f5a37c059272e0914c7a04d4a94b67b2776cc3e0fca2ed9503c10fd92ec79f1b2dcbb85df9634c7de3119c0c0",
                "transactions" : [
                    {
                        "data" : "0x",
                        "gasLimit" : "0x061a80",
                        "gasPrice" : "0x0a",
                        "nonce" : "0x00",
                        "signature" : "0x9d46b87169053cc40670aef750b032c895cde3e35c2c7f5a37c059272e0914c7",
                        "publicKey" : "0x4d4a94b67b2776cc3e0fca2ed9503c10fd92ec79f1b2dcbb85df9634c7de3119",
                        "sender" : "Za94f5374fce5edbc8e2a8697c15331677e6ebf0b",
                        "to" : "0x095e7baea6a6c7c4c2dfeb977efac326af552d87",
                        "v" : "0x1c",
                        "value" : "0x01"
                    }
                ],
                "uncleHeaders" : [
                ],
                "withdrawals" : [
                ]
            }
        ],
        "config" : {
            "blobSchedule" : {
                "Prague" : {
                    "baseFeeUpdateFraction" : "0x4c6964",
                    "max" : "0x09",
                    "target" : "0x06"
                }
            },
            "chainid" : "0x01",
            "network" : "Prague"
        },
        "genesisBlockHeader" : {
            "baseFeePerGas" : "0x0b",
            "bloom" : "0x00000000000000000000000000000000000000000000000000000000000000000000000000000000000000000000000000000000000000000000000000000000000000000000000000000000000000000000000000000000000000000000000000000000000000000000000000000000000000000000000000000000000000000000000000000000000000000000000000000000000000000000000000000000000000000000000000000000000000000000000000000000000000000000000000000000000000000000000000000000000000000000000000000000000000000000000000000000000000000000000000000000000000000000000000000000",
            "coinbase" : "Z2adc25665018aa1fe0e6bc666dac8fc2697ff9ba",
            "extraData" : "0x00",
            "gasLimit" : "0x0f4240",
            "gasUsed" : "0x00",
            "hash" : "0x384eb6ff648f3db6c2c92570ab794e7e12d40b35e2668e2f967afcdb46dcef8f",
            "mixHash" : "0x0000000000000000000000000000000000000000000000000000000000020000",
            "nonce" : "0x0000000000000000",
            "number" : "0x00",
            "parentHash" : "0x0000000000000000000000000000000000000000000000000000000000000000",
            "receiptTrie" : "0x56e81f171bcc55a6ff8345e692c0f86e5b48e01b996cadc001622fb5e363b421",
            "requestsHash" : "0xe3b0c44298fc1c149afbf4c8996fb92427ae41e4649b934ca495991b7852b855",
            "stateRoot" : "0x48355ece88d38fb396509bfede7523c42a734dbf0640afd370f10be79650bbbc",
            "timestamp" : "0x00",
            "transactionsTrie" : "0x56e81f171bcc55a6ff8345e692c0f86e5b48e01b996cadc001622fb5e363b421",
            "withdrawalsRoot" : "0x56e81f171bcc55a6ff8345e692c0f86e5b48e01b996cadc001622fb5e363b421"
        },
        "genesisRLP" : "0xf9025ff90259a00000000000000000000000000000000000000000000000000000000000000000a01dcc4de8dec75d7aab85b567b6ccd41ad312451b948a7413f0a142fd40d49347942adc25665018aa1fe0e6bc666dac8fc2697ff9baa048355ece88d38fb396509bfede7523c42a734dbf0640afd370f10be79650bbbca056e81f171bcc55a6ff8345e692c0f86e5b48e01b996cadc001622fb5e363b421a056e81f171bcc55a6ff8345e692c0f86e5b48e01b996cadc001622fb5e363b421b90100000000000000000000000000000000000000000000000000000000000000000000000000000000000000000000000000000000000000000000000000000000000000000000000000000000000000000000000000000000000000000000000000000000000000000000000000000000000000000000000000000000000000000000000000000000000000000000000000000000000000000000000000000000000000000000000000000000000000000000000000000000000000000000000000000000000000000000000000000000000000000000000000000000000000000000000000000000000000000000000000000000000000000000000000000000008080830f4240808000a000000000000000000000000000000000000000000000000000000000000200008800000000000000000ba056e81f171bcc55a6ff8345e692c0f86e5b48e01b996cadc001622fb5e363b4218083060000a00000000000000000000000000000000000000000000000000000000000000000a0e3b0c44298fc1c149afbf4c8996fb92427ae41e4649b934ca495991b7852b855c0c0c0",
        "lastblockhash" : "0x3e521b6649eaa5a8c8474bff7a049470108075d2d1e6a577b9dbf6f32b0931c9",
        "network" : "Prague",
        "postState" : {
            "Z0000f90827f1c53a10cb7a02335b175320002935" : {
                "balance" : "0x00",
                "code" : "0x3373fffffffffffffffffffffffffffffffffffffffe14604657602036036042575f35600143038111604257611fff81430311604257611fff9006545f5260205ff35b5f5ffd5b5f35611fff60014303065500",
                "nonce" : "0x01",
                "storage" : {
                    "0x00" : "0x384eb6ff648f3db6c2c92570ab794e7e12d40b35e2668e2f967afcdb46dcef8f"
                }
            },
            "Z000f3df6d732807ef1319fb7b8bb8522d0beac02" : {
                "balance" : "0x00",
                "code" : "0x3373fffffffffffffffffffffffffffffffffffffffe14604d57602036146024575f5ffd5b5f35801560495762001fff810690815414603c575f5ffd5b62001fff01545f5260205ff35b5f5ffd5b62001fff42064281555f359062001fff015500",
                "nonce" : "0x01",
                "storage" : {
                    "0x03e8" : "0x03e8"
                }
            },
            "Z095e7baea6a6c7c4c2dfeb977efac326af552d87" : {
                "balance" : "0x0de0b6b3a7640001",
                "code" : "0x6020600060006000600073deadbeef00000000000000000000000000000000620249f0f1506020600060003e6000516000556020600060006000600073deadbeef00000000000000000000000000000001620249f0f1506020600060003e6000516001556020600060006000600073deadbeef00000000000000000000000000000002620249f0f1506020600060003e6000516002556020600060006000600073aaaaaaaa00000000000000000000000000000000620249f0f1506020600060006000600073deadbeef00000000000000000000000000000000620249f0f1506020600060003e6000516003556020600060006000600073deadbeef00000000000000000000000000000001620249f0f1506020600060003e6000516004556020600060006000600073deadbeef00000000000000000000000000000002620249f0f1506020600060003e60005160055500",
                "nonce" : "0x00",
                "storage" : {
                    "0x00" : "0xaa174f6647c45e8a984f39062ca89ccc3588c787d91106cfd57df387bd504efc",
                    "0x01" : "0x17",
                    "0x02" : "0x73deadbeef00000000000000000000000000000000ff00000000000000000000",
                    "0x03" : "0xaa174f6647c45e8a984f39062ca89ccc3588c787d91106cfd57df387bd504efc",
                    "0x04" : "0x17",
                    "0x05" : "0x73deadbeef00000000000000000000000000000000ff00000000000000000000"
                }
            },
            "Za94f5374fce5edbc8e2a8697c15331677e6ebf0b" : {
                "balance" : "0x0de0b6b3a749faa1",
                "code" : "0x",
                "nonce" : "0x01",
                "storage" : {
                }
            },
            "Zaaaaaaaa00000000000000000000000000000000" : {
                "balance" : "0x00",
                "code" : "0x73deadbeef00000000000000000000000000000000ff00",
                "nonce" : "0x00",
                "storage" : {
                }
            },
            "Zdeadbeef00000000000000000000000000000000" : {
                "balance" : "0x1bc16d674ec80000",
                "code" : "0x73aaaaaaaa000000000000000000000000000000003f60005260206000f300",
                "nonce" : "0x00",
                "storage" : {
                }
            },
            "Zdeadbeef00000000000000000000000000000001" : {
                "balance" : "0x0de0b6b3a7640000",
                "code" : "0x73aaaaaaaa000000000000000000000000000000003b60005260206000f300",
                "nonce" : "0x00",
                "storage" : {
                }
            },
            "Zdeadbeef00000000000000000000000000000002" : {
                "balance" : "0x0de0b6b3a7640000",
                "code" : "0x73aaaaaaaa000000000000000000000000000000003b6000600073aaaaaaaa000000000000000000000000000000003c60206000f300",
                "nonce" : "0x00",
                "storage" : {
                }
            }
        },
        "pre" : {
            "Z0000f90827f1c53a10cb7a02335b175320002935" : {
                "balance" : "0x00",
                "code" : "0x3373fffffffffffffffffffffffffffffffffffffffe14604657602036036042575f35600143038111604257611fff81430311604257611fff9006545f5260205ff35b5f5ffd5b5f35611fff60014303065500",
                "nonce" : "0x01",
                "storage" : {
                }
            },
            "Z000f3df6d732807ef1319fb7b8bb8522d0beac02" : {
                "balance" : "0x00",
                "code" : "0x3373fffffffffffffffffffffffffffffffffffffffe14604d57602036146024575f5ffd5b5f35801560495762001fff810690815414603c575f5ffd5b62001fff01545f5260205ff35b5f5ffd5b62001fff42064281555f359062001fff015500",
                "nonce" : "0x01",
                "storage" : {
                }
            },
            "Z095e7baea6a6c7c4c2dfeb977efac326af552d87" : {
                "balance" : "0x0de0b6b3a7640000",
                "code" : "0x6020600060006000600073deadbeef00000000000000000000000000000000620249f0f1506020600060003e6000516000556020600060006000600073deadbeef00000000000000000000000000000001620249f0f1506020600060003e6000516001556020600060006000600073deadbeef00000000000000000000000000000002620249f0f1506020600060003e6000516002556020600060006000600073aaaaaaaa00000000000000000000000000000000620249f0f1506020600060006000600073deadbeef00000000000000000000000000000000620249f0f1506020600060003e6000516003556020600060006000600073deadbeef00000000000000000000000000000001620249f0f1506020600060003e6000516004556020600060006000600073deadbeef00000000000000000000000000000002620249f0f1506020600060003e60005160055500",
                "nonce" : "0x00",
                "storage" : {
                }
            },
            "Za94f5374fce5edbc8e2a8697c15331677e6ebf0b" : {
                "balance" : "0x0de0b6b3a7640000",
                "code" : "0x",
                "nonce" : "0x00",
                "storage" : {
                }
            },
            "Zaaaaaaaa00000000000000000000000000000000" : {
                "balance" : "0x0de0b6b3a7640000",
                "code" : "0x73deadbeef00000000000000000000000000000000ff00",
                "nonce" : "0x00",
                "storage" : {
                }
            },
            "Zdeadbeef00000000000000000000000000000000" : {
                "balance" : "0x0de0b6b3a7640000",
                "code" : "0x73aaaaaaaa000000000000000000000000000000003f60005260206000f300",
                "nonce" : "0x00",
                "storage" : {
                }
            },
            "Zdeadbeef00000000000000000000000000000001" : {
                "balance" : "0x0de0b6b3a7640000",
                "code" : "0x73aaaaaaaa000000000000000000000000000000003b60005260206000f300",
                "nonce" : "0x00",
                "storage" : {
                }
            },
            "Zdeadbeef00000000000000000000000000000002" : {
                "balance" : "0x0de0b6b3a7640000",
                "code" : "0x73aaaaaaaa000000000000000000000000000000003b6000600073aaaaaaaa000000000000000000000000000000003c60206000f300",
                "nonce" : "0x00",
                "storage" : {
                }
            }
        },
        "sealEngine" : "NoProof"
    }
}