{
    "extCodeHashDeletedAccountCancun_d0g0v0_Cancun" : {
        "_info" : {
            "comment" : "Get account A (aaaaaaaa00000000000000000000000000000000) code hash, code size, and code\nCalls Account A's code which causes self destruction of A\nGet account A codehash, code size and code\nIt is still getting the same values because selfdestruct is performed\nat the end of transaction during state finalization stage.\nSame as extCodeHashDeletedAccount test but with dynamic account suicide for Cancun\n",
            "filling-rpc-server" : "evmone-t8n 0.14.0-13+commit.4d363c36",
            "filling-tool-version" : "retesteth-0.3.2-legacy+commit.ca7f4c79.Linux.g++",
            "fixture-format" : "blockchain_test",
            "generatedTestHash" : "ecc1ca12d49478b202d5d7899110187eaf7946da3460155f38711a0e4b88d5f7",
            "lllcversion" : "Version: 0.5.14-develop.2024.11.5+commit.b2b86751.mod.Linux.g++",
            "solidity" : "Version: 0.8.24+commit.e11b9ed9.Linux.g++",
            "source" : "src/GeneralStateTestsFiller/stExtCodeHash/extCodeHashDeletedAccountCancunFiller.yml",
            "sourceHash" : "fd77f2881bfe683d46e01aa0366d1d1ceffa89af875904f1ea37aa7a9b88a792"
        },
        "blocks" : [
            {
                "blockHeader" : {
                    "baseFeePerGas" : "0x0a",
                    "bloom" : "0x00000000000000000000000000000000000000000000000000000000000000000000000000000000000000000000000000000000000000000000000000000000000000000000000000000000000000000000000000000000000000000000000000000000000000000000000000000000000000000000000000000000000000000000000000000000000000000000000000000000000000000000000000000000000000000000000000000000000000000000000000000000000000000000000000000000000000000000000000000000000000000000000000000000000000000000000000000000000000000000000000000000000000000000000000000000",
                    "coinbase" : "0x2adc25665018aa1fe0e6bc666dac8fc2697ff9ba",
                    "extraData" : "0x00",
                    "gasLimit" : "0x0f4240",
                    "gasUsed" : "0x038034",
                    "hash" : "0xefcf334766420ec4cabd180cb7601dcc970b14cce90ecc7300419bebd93d2c6a",
                    "mixHash" : "0x0000000000000000000000000000000000000000000000000000000000020000",
                    "nonce" : "0x0000000000000000",
                    "number" : "0x01",
                    "parentBeaconBlockRoot" : "0x0000000000000000000000000000000000000000000000000000000000000000",
                    "parentHash" : "0x0db0d2191caa66a4707c5d9ff69835d0151b6988079aa7b19fb3cb510d32a000",
                    "receiptTrie" : "0x39c80eb3749ed7d8eb71323441ef89e5a86b6d0850f2d653c87ebf1b6c06ca26",
                    "stateRoot" : "0x6ce46c8100c0d932e269ae022d84855a1a544798f8cca25b734da7d10282ff95",
                    "timestamp" : "0x03e8",
                    "transactionsTrie" : "0x174ccc4f3050aca8eb96ee492d7f77c48698de3988b3a422e2bc6974348182c0",
                    "withdrawalsRoot" : "0x56e81f171bcc55a6ff8345e692c0f86e5b48e01b996cadc001622fb5e363b421"
                },
                "rlp" : "0xf902a3f9023aa00db0d2191caa66a4707c5d9ff69835d0151b6988079aa7b19fb3cb510d32a000a01dcc4de8dec75d7aab85b567b6ccd41ad312451b948a7413f0a142fd40d49347942adc25665018aa1fe0e6bc666dac8fc2697ff9baa06ce46c8100c0d932e269ae022d84855a1a544798f8cca25b734da7d10282ff95a0174ccc4f3050aca8eb96ee492d7f77c48698de3988b3a422e2bc6974348182c0a039c80eb3749ed7d8eb71323441ef89e5a86b6d0850f2d653c87ebf1b6c06ca26b90100000000000000000000000000000000000000000000000000000000000000000000000000000000000000000000000000000000000000000000000000000000000000000000000000000000000000000000000000000000000000000000000000000000000000000000000000000000000000000000000000000000000000000000000000000000000000000000000000000000000000000000000000000000000000000000000000000000000000000000000000000000000000000000000000000000000000000000000000000000000000000000000000000000000000000000000000000000000000000000000000000000000000000000000000000000008001830f4240830380348203e800a000000000000000000000000000000000000000000000000000000000000200008800000000000000000aa056e81f171bcc55a6ff8345e692c0f86e5b48e01b996cadc001622fb5e363b4218080a00000000000000000000000000000000000000000000000000000000000000000f862f860800a83061a8094095e7baea6a6c7c4c2dfeb977efac326af552d8701801ca09d46b87169053cc40670aef750b032c895cde3e35c2c7f5a37c059272e0914c7a04d4a94b67b2776cc3e0fca2ed9503c10fd92ec79f1b2dcbb85df9634c7de3119c0c0",
                "transactions" : [
                    {
                        "data" : "0x",
                        "gasLimit" : "0x061a80",
                        "gasPrice" : "0x0a",
                        "nonce" : "0x00",
                        "r" : "0x9d46b87169053cc40670aef750b032c895cde3e35c2c7f5a37c059272e0914c7",
                        "s" : "0x4d4a94b67b2776cc3e0fca2ed9503c10fd92ec79f1b2dcbb85df9634c7de3119",
                        "sender" : "0xa94f5374fce5edbc8e2a8697c15331677e6ebf0b",
                        "to" : "0x095e7baea6a6c7c4c2dfeb977efac326af552d87",
                        "v" : "0x1c",
                        "value" : "0x01"
                    }
                ],
                "uncleHeaders" : [
                ],
                "withdrawals" : [
                ]
            }
        ],
        "config" : {
            "blobSchedule" : {
                "Cancun" : {
                    "baseFeeUpdateFraction" : "0x32f0ed",
                    "max" : "0x06",
                    "target" : "0x03"
                }
            },
            "chainid" : "0x01",
            "network" : "Cancun"
        },
        "genesisBlockHeader" : {
            "baseFeePerGas" : "0x0b",
            "bloom" : "0x00000000000000000000000000000000000000000000000000000000000000000000000000000000000000000000000000000000000000000000000000000000000000000000000000000000000000000000000000000000000000000000000000000000000000000000000000000000000000000000000000000000000000000000000000000000000000000000000000000000000000000000000000000000000000000000000000000000000000000000000000000000000000000000000000000000000000000000000000000000000000000000000000000000000000000000000000000000000000000000000000000000000000000000000000000000",
            "coinbase" : "0x2adc25665018aa1fe0e6bc666dac8fc2697ff9ba",
            "extraData" : "0x00",
            "gasLimit" : "0x0f4240",
            "gasUsed" : "0x00",
            "hash" : "0x0db0d2191caa66a4707c5d9ff69835d0151b6988079aa7b19fb3cb510d32a000",
            "mixHash" : "0x0000000000000000000000000000000000000000000000000000000000020000",
            "nonce" : "0x0000000000000000",
            "number" : "0x00",
            "parentBeaconBlockRoot" : "0x0000000000000000000000000000000000000000000000000000000000000000",
            "parentHash" : "0x0000000000000000000000000000000000000000000000000000000000000000",
            "receiptTrie" : "0x56e81f171bcc55a6ff8345e692c0f86e5b48e01b996cadc001622fb5e363b421",
            "stateRoot" : "0xe0e7a633e3b67360505c895cada73dc6e9e213440c24513d98847ae3b4b81be2",
            "timestamp" : "0x00",
            "transactionsTrie" : "0x56e81f171bcc55a6ff8345e692c0f86e5b48e01b996cadc001622fb5e363b421",
            "withdrawalsRoot" : "0x56e81f171bcc55a6ff8345e692c0f86e5b48e01b996cadc001622fb5e363b421"
        },
        "genesisRLP" : "0xf9023ef90238a00000000000000000000000000000000000000000000000000000000000000000a01dcc4de8dec75d7aab85b567b6ccd41ad312451b948a7413f0a142fd40d49347942adc25665018aa1fe0e6bc666dac8fc2697ff9baa0e0e7a633e3b67360505c895cada73dc6e9e213440c24513d98847ae3b4b81be2a056e81f171bcc55a6ff8345e692c0f86e5b48e01b996cadc001622fb5e363b421a056e81f171bcc55a6ff8345e692c0f86e5b48e01b996cadc001622fb5e363b421b90100000000000000000000000000000000000000000000000000000000000000000000000000000000000000000000000000000000000000000000000000000000000000000000000000000000000000000000000000000000000000000000000000000000000000000000000000000000000000000000000000000000000000000000000000000000000000000000000000000000000000000000000000000000000000000000000000000000000000000000000000000000000000000000000000000000000000000000000000000000000000000000000000000000000000000000000000000000000000000000000000000000000000000000000000000000008080830f4240808000a000000000000000000000000000000000000000000000000000000000000200008800000000000000000ba056e81f171bcc55a6ff8345e692c0f86e5b48e01b996cadc001622fb5e363b4218083060000a00000000000000000000000000000000000000000000000000000000000000000c0c0c0",
        "lastblockhash" : "0xefcf334766420ec4cabd180cb7601dcc970b14cce90ecc7300419bebd93d2c6a",
        "network" : "Cancun",
        "postState" : {
            "0x000f3df6d732807ef1319fb7b8bb8522d0beac02" : {
                "balance" : "0x00",
                "code" : "0x3373fffffffffffffffffffffffffffffffffffffffe14604d57602036146024575f5ffd5b5f35801560495762001fff810690815414603c575f5ffd5b62001fff01545f5260205ff35b5f5ffd5b62001fff42064281555f359062001fff015500",
                "nonce" : "0x01",
                "storage" : {
                    "0x03e8" : "0x03e8"
                }
            },
            "0x095e7baea6a6c7c4c2dfeb977efac326af552d87" : {
                "balance" : "0x0de0b6b3a7640001",
                "code" : "0x6049806101696000396000670de0b6b3a7640000f0506020600060006000600073deadbeef00000000000000000000000000000000620249f0f1506020600060003e6000516000556020600060006000600073deadbeef00000000000000000000000000000001620249f0f1506020600060003e6000516001556020600060006000600073deadbeef00000000000000000000000000000002620249f0f1506020600060003e6000516002556020600060006000600073d2571607e241ecf590ed94b12d87c94babe36db6620249f0f1506020600060006000600073deadbeef00000000000000000000000000000000620249f0f1506020600060003e6000516003556020600060006000600073deadbeef00000000000000000000000000000001620249f0f1506020600060003e6000516004556020600060006000600073deadbeef00000000000000000000000000000002620249f0f1506020600060003e60005160055500fe6000600060006000600073bbbbbbbb00000000000000000000000000000000620186a0f15060178060326000396000f300fe73deadbeef00000000000000000000000000000000ff00",
                "nonce" : "0x01",
                "storage" : {
                    "0x00" : "0xaa174f6647c45e8a984f39062ca89ccc3588c787d91106cfd57df387bd504efc",
                    "0x01" : "0x17",
                    "0x02" : "0x73deadbeef00000000000000000000000000000000ff00000000000000000000",
                    "0x03" : "0xaa174f6647c45e8a984f39062ca89ccc3588c787d91106cfd57df387bd504efc",
                    "0x04" : "0x17",
                    "0x05" : "0x73deadbeef00000000000000000000000000000000ff00000000000000000000"
                }
            },
            "0xa94f5374fce5edbc8e2a8697c15331677e6ebf0b" : {
                "balance" : "0x0de0b6b3a740fdf7",
                "code" : "0x",
                "nonce" : "0x01",
                "storage" : {
                }
            },
            "0xbbbbbbbb00000000000000000000000000000000" : {
                "balance" : "0x0de0b6b3a7640000",
                "code" : "0x600160015500",
                "nonce" : "0x00",
                "storage" : {
                    "0x01" : "0x01"
                }
            },
            "0xdeadbeef00000000000000000000000000000000" : {
                "balance" : "0x1bc16d674ec80000",
                "code" : "0x73d2571607e241ecf590ed94b12d87c94babe36db63f60005260206000f300",
                "nonce" : "0x00",
                "storage" : {
                }
            },
            "0xdeadbeef00000000000000000000000000000001" : {
                "balance" : "0x0de0b6b3a7640000",
                "code" : "0x73d2571607e241ecf590ed94b12d87c94babe36db63b60005260206000f300",
                "nonce" : "0x00",
                "storage" : {
                }
            },
            "0xdeadbeef00000000000000000000000000000002" : {
                "balance" : "0x0de0b6b3a7640000",
                "code" : "0x73d2571607e241ecf590ed94b12d87c94babe36db63b6000600073d2571607e241ecf590ed94b12d87c94babe36db63c60206000f300",
                "nonce" : "0x00",
                "storage" : {
                }
            }
        },
        "pre" : {
            "0x000f3df6d732807ef1319fb7b8bb8522d0beac02" : {
                "balance" : "0x00",
                "code" : "0x3373fffffffffffffffffffffffffffffffffffffffe14604d57602036146024575f5ffd5b5f35801560495762001fff810690815414603c575f5ffd5b62001fff01545f5260205ff35b5f5ffd5b62001fff42064281555f359062001fff015500",
                "nonce" : "0x01",
                "storage" : {
                }
            },
            "0x095e7baea6a6c7c4c2dfeb977efac326af552d87" : {
                "balance" : "0x1bc16d674ec80000",
                "code" : "0x6049806101696000396000670de0b6b3a7640000f0506020600060006000600073deadbeef00000000000000000000000000000000620249f0f1506020600060003e6000516000556020600060006000600073deadbeef00000000000000000000000000000001620249f0f1506020600060003e6000516001556020600060006000600073deadbeef00000000000000000000000000000002620249f0f1506020600060003e6000516002556020600060006000600073d2571607e241ecf590ed94b12d87c94babe36db6620249f0f1506020600060006000600073deadbeef00000000000000000000000000000000620249f0f1506020600060003e6000516003556020600060006000600073deadbeef00000000000000000000000000000001620249f0f1506020600060003e6000516004556020600060006000600073deadbeef00000000000000000000000000000002620249f0f1506020600060003e60005160055500fe6000600060006000600073bbbbbbbb00000000000000000000000000000000620186a0f15060178060326000396000f300fe73deadbeef00000000000000000000000000000000ff00",
                "nonce" : "0x00",
                "storage" : {
                }
            },
            "0xa94f5374fce5edbc8e2a8697c15331677e6ebf0b" : {
                "balance" : "0x0de0b6b3a7640000",
                "code" : "0x",
                "nonce" : "0x00",
                "storage" : {
                }
            },
            "0xbbbbbbbb00000000000000000000000000000000" : {
                "balance" : "0x0de0b6b3a7640000",
                "code" : "0x600160015500",
                "nonce" : "0x00",
                "storage" : {
                }
            },
            "0xdeadbeef00000000000000000000000000000000" : {
                "balance" : "0x0de0b6b3a7640000",
                "code" : "0x73d2571607e241ecf590ed94b12d87c94babe36db63f60005260206000f300",
                "nonce" : "0x00",
                "storage" : {
                }
            },
            "0xdeadbeef00000000000000000000000000000001" : {
                "balance" : "0x0de0b6b3a7640000",
                "code" : "0x73d2571607e241ecf590ed94b12d87c94babe36db63b60005260206000f300",
                "nonce" : "0x00",
                "storage" : {
                }
            },
            "0xdeadbeef00000000000000000000000000000002" : {
                "balance" : "0x0de0b6b3a7640000",
                "code" : "0x73d2571607e241ecf590ed94b12d87c94babe36db63b6000600073d2571607e241ecf590ed94b12d87c94babe36db63c60206000f300",
                "nonce" : "0x00",
                "storage" : {
                }
            }
        },
        "sealEngine" : "NoProof"
    },
    "extCodeHashDeletedAccountCancun_d0g0v0_Prague" : {
        "_info" : {
            "comment" : "Get account A (aaaaaaaa00000000000000000000000000000000) code hash, code size, and code\nCalls Account A's code which causes self destruction of A\nGet account A codehash, code size and code\nIt is still getting the same values because selfdestruct is performed\nat the end of transaction during state finalization stage.\nSame as extCodeHashDeletedAccount test but with dynamic account suicide for Cancun\n",
            "filling-rpc-server" : "evmone-t8n 0.14.0-13+commit.4d363c36",
            "filling-tool-version" : "retesteth-0.3.2-legacy+commit.ca7f4c79.Linux.g++",
            "fixture-format" : "blockchain_test",
            "generatedTestHash" : "f4a1e0b68cd15609d42f9b9e89f00646ff3bcdbf3dc373ce7a29338e59fad9ab",
            "lllcversion" : "Version: 0.5.14-develop.2024.11.5+commit.b2b86751.mod.Linux.g++",
            "solidity" : "Version: 0.8.24+commit.e11b9ed9.Linux.g++",
            "source" : "src/GeneralStateTestsFiller/stExtCodeHash/extCodeHashDeletedAccountCancunFiller.yml",
            "sourceHash" : "fd77f2881bfe683d46e01aa0366d1d1ceffa89af875904f1ea37aa7a9b88a792"
        },
        "blocks" : [
            {
                "blockHeader" : {
                    "baseFeePerGas" : "0x0a",
                    "bloom" : "0x00000000000000000000000000000000000000000000000000000000000000000000000000000000000000000000000000000000000000000000000000000000000000000000000000000000000000000000000000000000000000000000000000000000000000000000000000000000000000000000000000000000000000000000000000000000000000000000000000000000000000000000000000000000000000000000000000000000000000000000000000000000000000000000000000000000000000000000000000000000000000000000000000000000000000000000000000000000000000000000000000000000000000000000000000000000",
                    "coinbase" : "0x2adc25665018aa1fe0e6bc666dac8fc2697ff9ba",
                    "extraData" : "0x00",
                    "gasLimit" : "0x0f4240",
                    "gasUsed" : "0x038034",
                    "hash" : "0x4763f76370372b69c7c579358de9f975636b69e79b199a4f13ba6b6400699af4",
                    "mixHash" : "0x0000000000000000000000000000000000000000000000000000000000020000",
                    "nonce" : "0x0000000000000000",
                    "number" : "0x01",
                    "parentBeaconBlockRoot" : "0x0000000000000000000000000000000000000000000000000000000000000000",
                    "parentHash" : "0x893de5cbadb0c878495a72aba66eb28eaa716d9069e059d5c59a76cb00ea1920",
                    "receiptTrie" : "0x39c80eb3749ed7d8eb71323441ef89e5a86b6d0850f2d653c87ebf1b6c06ca26",
                    "requestsHash" : "0xe3b0c44298fc1c149afbf4c8996fb92427ae41e4649b934ca495991b7852b855",
                    "stateRoot" : "0x408543f155fcf8ebe3d03ba2dbf200247db242085d959627d64b843a265a0d97",
                    "timestamp" : "0x03e8",
                    "transactionsTrie" : "0x174ccc4f3050aca8eb96ee492d7f77c48698de3988b3a422e2bc6974348182c0",
                    "withdrawalsRoot" : "0x56e81f171bcc55a6ff8345e692c0f86e5b48e01b996cadc001622fb5e363b421"
                },
                "rlp" : "0xf902c4f9025ba0893de5cbadb0c878495a72aba66eb28eaa716d9069e059d5c59a76cb00ea1920a01dcc4de8dec75d7aab85b567b6ccd41ad312451b948a7413f0a142fd40d49347942adc25665018aa1fe0e6bc666dac8fc2697ff9baa0408543f155fcf8ebe3d03ba2dbf200247db242085d959627d64b843a265a0d97a0174ccc4f3050aca8eb96ee492d7f77c48698de3988b3a422e2bc6974348182c0a039c80eb3749ed7d8eb71323441ef89e5a86b6d0850f2d653c87ebf1b6c06ca26b90100000000000000000000000000000000000000000000000000000000000000000000000000000000000000000000000000000000000000000000000000000000000000000000000000000000000000000000000000000000000000000000000000000000000000000000000000000000000000000000000000000000000000000000000000000000000000000000000000000000000000000000000000000000000000000000000000000000000000000000000000000000000000000000000000000000000000000000000000000000000000000000000000000000000000000000000000000000000000000000000000000000000000000000000000000000008001830f4240830380348203e800a000000000000000000000000000000000000000000000000000000000000200008800000000000000000aa056e81f171bcc55a6ff8345e692c0f86e5b48e01b996cadc001622fb5e363b4218080a00000000000000000000000000000000000000000000000000000000000000000a0e3b0c44298fc1c149afbf4c8996fb92427ae41e4649b934ca495991b7852b855f862f860800a83061a8094095e7baea6a6c7c4c2dfeb977efac326af552d8701801ca09d46b87169053cc40670aef750b032c895cde3e35c2c7f5a37c059272e0914c7a04d4a94b67b2776cc3e0fca2ed9503c10fd92ec79f1b2dcbb85df9634c7de3119c0c0",
                "transactions" : [
                    {
                        "data" : "0x",
                        "gasLimit" : "0x061a80",
                        "gasPrice" : "0x0a",
                        "nonce" : "0x00",
                        "r" : "0x9d46b87169053cc40670aef750b032c895cde3e35c2c7f5a37c059272e0914c7",
                        "s" : "0x4d4a94b67b2776cc3e0fca2ed9503c10fd92ec79f1b2dcbb85df9634c7de3119",
                        "sender" : "0xa94f5374fce5edbc8e2a8697c15331677e6ebf0b",
                        "to" : "0x095e7baea6a6c7c4c2dfeb977efac326af552d87",
                        "v" : "0x1c",
                        "value" : "0x01"
                    }
                ],
                "uncleHeaders" : [
                ],
                "withdrawals" : [
                ]
            }
        ],
        "config" : {
            "blobSchedule" : {
                "Prague" : {
                    "baseFeeUpdateFraction" : "0x4c6964",
                    "max" : "0x09",
                    "target" : "0x06"
                }
            },
            "chainid" : "0x01",
            "network" : "Prague"
        },
        "genesisBlockHeader" : {
            "baseFeePerGas" : "0x0b",
            "bloom" : "0x00000000000000000000000000000000000000000000000000000000000000000000000000000000000000000000000000000000000000000000000000000000000000000000000000000000000000000000000000000000000000000000000000000000000000000000000000000000000000000000000000000000000000000000000000000000000000000000000000000000000000000000000000000000000000000000000000000000000000000000000000000000000000000000000000000000000000000000000000000000000000000000000000000000000000000000000000000000000000000000000000000000000000000000000000000000",
            "coinbase" : "0x2adc25665018aa1fe0e6bc666dac8fc2697ff9ba",
            "extraData" : "0x00",
            "gasLimit" : "0x0f4240",
            "gasUsed" : "0x00",
            "hash" : "0x893de5cbadb0c878495a72aba66eb28eaa716d9069e059d5c59a76cb00ea1920",
            "mixHash" : "0x0000000000000000000000000000000000000000000000000000000000020000",
            "nonce" : "0x0000000000000000",
            "number" : "0x00",
            "parentBeaconBlockRoot" : "0x0000000000000000000000000000000000000000000000000000000000000000",
            "parentHash" : "0x0000000000000000000000000000000000000000000000000000000000000000",
            "receiptTrie" : "0x56e81f171bcc55a6ff8345e692c0f86e5b48e01b996cadc001622fb5e363b421",
            "requestsHash" : "0xe3b0c44298fc1c149afbf4c8996fb92427ae41e4649b934ca495991b7852b855",
            "stateRoot" : "0xdd19fbf2a60e660e4ba1c093177374a083997220dace34278d37ee1733d6577e",
            "timestamp" : "0x00",
            "transactionsTrie" : "0x56e81f171bcc55a6ff8345e692c0f86e5b48e01b996cadc001622fb5e363b421",
            "withdrawalsRoot" : "0x56e81f171bcc55a6ff8345e692c0f86e5b48e01b996cadc001622fb5e363b421"
        },
        "genesisRLP" : "0xf9025ff90259a00000000000000000000000000000000000000000000000000000000000000000a01dcc4de8dec75d7aab85b567b6ccd41ad312451b948a7413f0a142fd40d49347942adc25665018aa1fe0e6bc666dac8fc2697ff9baa0dd19fbf2a60e660e4ba1c093177374a083997220dace34278d37ee1733d6577ea056e81f171bcc55a6ff8345e692c0f86e5b48e01b996cadc001622fb5e363b421a056e81f171bcc55a6ff8345e692c0f86e5b48e01b996cadc001622fb5e363b421b90100000000000000000000000000000000000000000000000000000000000000000000000000000000000000000000000000000000000000000000000000000000000000000000000000000000000000000000000000000000000000000000000000000000000000000000000000000000000000000000000000000000000000000000000000000000000000000000000000000000000000000000000000000000000000000000000000000000000000000000000000000000000000000000000000000000000000000000000000000000000000000000000000000000000000000000000000000000000000000000000000000000000000000000000000000000008080830f4240808000a000000000000000000000000000000000000000000000000000000000000200008800000000000000000ba056e81f171bcc55a6ff8345e692c0f86e5b48e01b996cadc001622fb5e363b4218083060000a00000000000000000000000000000000000000000000000000000000000000000a0e3b0c44298fc1c149afbf4c8996fb92427ae41e4649b934ca495991b7852b855c0c0c0",
        "lastblockhash" : "0x4763f76370372b69c7c579358de9f975636b69e79b199a4f13ba6b6400699af4",
        "network" : "Prague",
        "postState" : {
            "0x0000f90827f1c53a10cb7a02335b175320002935" : {
                "balance" : "0x00",
                "code" : "0x3373fffffffffffffffffffffffffffffffffffffffe14604657602036036042575f35600143038111604257611fff81430311604257611fff9006545f5260205ff35b5f5ffd5b5f35611fff60014303065500",
                "nonce" : "0x01",
                "storage" : {
                    "0x00" : "0x893de5cbadb0c878495a72aba66eb28eaa716d9069e059d5c59a76cb00ea1920"
                }
            },
            "0x000f3df6d732807ef1319fb7b8bb8522d0beac02" : {
                "balance" : "0x00",
                "code" : "0x3373fffffffffffffffffffffffffffffffffffffffe14604d57602036146024575f5ffd5b5f35801560495762001fff810690815414603c575f5ffd5b62001fff01545f5260205ff35b5f5ffd5b62001fff42064281555f359062001fff015500",
                "nonce" : "0x01",
                "storage" : {
                    "0x03e8" : "0x03e8"
                }
            },
            "0x095e7baea6a6c7c4c2dfeb977efac326af552d87" : {
                "balance" : "0x0de0b6b3a7640001",
                "code" : "0x6049806101696000396000670de0b6b3a7640000f0506020600060006000600073deadbeef00000000000000000000000000000000620249f0f1506020600060003e6000516000556020600060006000600073deadbeef00000000000000000000000000000001620249f0f1506020600060003e6000516001556020600060006000600073deadbeef00000000000000000000000000000002620249f0f1506020600060003e6000516002556020600060006000600073d2571607e241ecf590ed94b12d87c94babe36db6620249f0f1506020600060006000600073deadbeef00000000000000000000000000000000620249f0f1506020600060003e6000516003556020600060006000600073deadbeef00000000000000000000000000000001620249f0f1506020600060003e6000516004556020600060006000600073deadbeef00000000000000000000000000000002620249f0f1506020600060003e60005160055500fe6000600060006000600073bbbbbbbb00000000000000000000000000000000620186a0f15060178060326000396000f300fe73deadbeef00000000000000000000000000000000ff00",
                "nonce" : "0x01",
                "storage" : {
                    "0x00" : "0xaa174f6647c45e8a984f39062ca89ccc3588c787d91106cfd57df387bd504efc",
                    "0x01" : "0x17",
                    "0x02" : "0x73deadbeef00000000000000000000000000000000ff00000000000000000000",
                    "0x03" : "0xaa174f6647c45e8a984f39062ca89ccc3588c787d91106cfd57df387bd504efc",
                    "0x04" : "0x17",
                    "0x05" : "0x73deadbeef00000000000000000000000000000000ff00000000000000000000"
                }
            },
            "0xa94f5374fce5edbc8e2a8697c15331677e6ebf0b" : {
                "balance" : "0x0de0b6b3a740fdf7",
                "code" : "0x",
                "nonce" : "0x01",
                "storage" : {
                }
            },
            "0xbbbbbbbb00000000000000000000000000000000" : {
                "balance" : "0x0de0b6b3a7640000",
                "code" : "0x600160015500",
                "nonce" : "0x00",
                "storage" : {
                    "0x01" : "0x01"
                }
            },
            "0xdeadbeef00000000000000000000000000000000" : {
                "balance" : "0x1bc16d674ec80000",
                "code" : "0x73d2571607e241ecf590ed94b12d87c94babe36db63f60005260206000f300",
                "nonce" : "0x00",
                "storage" : {
                }
            },
            "0xdeadbeef00000000000000000000000000000001" : {
                "balance" : "0x0de0b6b3a7640000",
                "code" : "0x73d2571607e241ecf590ed94b12d87c94babe36db63b60005260206000f300",
                "nonce" : "0x00",
                "storage" : {
                }
            },
            "0xdeadbeef00000000000000000000000000000002" : {
                "balance" : "0x0de0b6b3a7640000",
                "code" : "0x73d2571607e241ecf590ed94b12d87c94babe36db63b6000600073d2571607e241ecf590ed94b12d87c94babe36db63c60206000f300",
                "nonce" : "0x00",
                "storage" : {
                }
            }
        },
        "pre" : {
            "0x0000f90827f1c53a10cb7a02335b175320002935" : {
                "balance" : "0x00",
                "code" : "0x3373fffffffffffffffffffffffffffffffffffffffe14604657602036036042575f35600143038111604257611fff81430311604257611fff9006545f5260205ff35b5f5ffd5b5f35611fff60014303065500",
                "nonce" : "0x01",
                "storage" : {
                }
            },
            "0x000f3df6d732807ef1319fb7b8bb8522d0beac02" : {
                "balance" : "0x00",
                "code" : "0x3373fffffffffffffffffffffffffffffffffffffffe14604d57602036146024575f5ffd5b5f35801560495762001fff810690815414603c575f5ffd5b62001fff01545f5260205ff35b5f5ffd5b62001fff42064281555f359062001fff015500",
                "nonce" : "0x01",
                "storage" : {
                }
            },
            "0x095e7baea6a6c7c4c2dfeb977efac326af552d87" : {
                "balance" : "0x1bc16d674ec80000",
                "code" : "0x6049806101696000396000670de0b6b3a7640000f0506020600060006000600073deadbeef00000000000000000000000000000000620249f0f1506020600060003e6000516000556020600060006000600073deadbeef00000000000000000000000000000001620249f0f1506020600060003e6000516001556020600060006000600073deadbeef00000000000000000000000000000002620249f0f1506020600060003e6000516002556020600060006000600073d2571607e241ecf590ed94b12d87c94babe36db6620249f0f1506020600060006000600073deadbeef00000000000000000000000000000000620249f0f1506020600060003e6000516003556020600060006000600073deadbeef00000000000000000000000000000001620249f0f1506020600060003e6000516004556020600060006000600073deadbeef00000000000000000000000000000002620249f0f1506020600060003e60005160055500fe6000600060006000600073bbbbbbbb00000000000000000000000000000000620186a0f15060178060326000396000f300fe73deadbeef00000000000000000000000000000000ff00",
                "nonce" : "0x00",
                "storage" : {
                }
            },
            "0xa94f5374fce5edbc8e2a8697c15331677e6ebf0b" : {
                "balance" : "0x0de0b6b3a7640000",
                "code" : "0x",
                "nonce" : "0x00",
                "storage" : {
                }
            },
            "0xbbbbbbbb00000000000000000000000000000000" : {
                "balance" : "0x0de0b6b3a7640000",
                "code" : "0x600160015500",
                "nonce" : "0x00",
                "storage" : {
                }
            },
            "0xdeadbeef00000000000000000000000000000000" : {
                "balance" : "0x0de0b6b3a7640000",
                "code" : "0x73d2571607e241ecf590ed94b12d87c94babe36db63f60005260206000f300",
                "nonce" : "0x00",
                "storage" : {
                }
            },
            "0xdeadbeef00000000000000000000000000000001" : {
                "balance" : "0x0de0b6b3a7640000",
                "code" : "0x73d2571607e241ecf590ed94b12d87c94babe36db63b60005260206000f300",
                "nonce" : "0x00",
                "storage" : {
                }
            },
            "0xdeadbeef00000000000000000000000000000002" : {
                "balance" : "0x0de0b6b3a7640000",
                "code" : "0x73d2571607e241ecf590ed94b12d87c94babe36db63b6000600073d2571607e241ecf590ed94b12d87c94babe36db63c60206000f300",
                "nonce" : "0x00",
                "storage" : {
                }
            }
        },
        "sealEngine" : "NoProof"
    }
}