{
    "extCodeHashDELEGATECALL_d0g0v0_Cancun" : {
        "_info" : {
            "comment" : "EXTCODEHASH of an account during a DELEGATECALL",
            "filling-rpc-server" : "evmone-t8n 0.14.0-13+commit.4d363c36",
            "filling-tool-version" : "retesteth-0.3.2-legacy+commit.ca7f4c79.Linux.g++",
            "fixture-format" : "blockchain_test",
            "generatedTestHash" : "080ecbf524aafc6a680695b6aa577f12112cfcfa81d51cc5890a1cb42845d377",
            "lllcversion" : "Version: 0.5.14-develop.2024.11.5+commit.b2b86751.mod.Linux.g++",
            "solidity" : "Version: 0.8.24+commit.e11b9ed9.Linux.g++",
            "source" : "src/GeneralStateTestsFiller/stExtCodeHash/extCodeHashDELEGATECALLFiller.json",
            "sourceHash" : "e73e87553c77110aab58d7809830df2feb0c6425d7d4e759916d08de3f0aec57"
        },
        "blocks" : [
            {
                "blockHeader" : {
                    "baseFeePerGas" : "0x0a",
                    "blobGasUsed" : "0x00",
                    "bloom" : "0x00000000000000000000000000000000000000000000000000000000000000000000000000000000000000000000000000000000000000000000000000000000000000000000000000000000000000000000000000000000000000000000000000000000000000000000000000000000000000000000000000000000000000000000000000000000000000000000000000000000000000000000000000000000000000000000000000000000000000000000000000000000000000000000000000000000000000000000000000000000000000000000000000000000000000000000000000000000000000000000000000000000000000000000000000000000",
                    "coinbase" : "0x2adc25665018aa1fe0e6bc666dac8fc2697ff9ba",
                    "difficulty" : "0x00",
                    "excessBlobGas" : "0x00",
                    "extraData" : "0x00",
                    "gasLimit" : "0x0f4240",
                    "gasUsed" : "0xdb3f",
                    "hash" : "0x5df7176fe5e677b70bd535d8e18afe2690c4cdf8fb5d3687d0d203027bb6ac57",
                    "mixHash" : "0x0000000000000000000000000000000000000000000000000000000000020000",
                    "nonce" : "0x0000000000000000",
                    "number" : "0x01",
                    "parentBeaconBlockRoot" : "0x0000000000000000000000000000000000000000000000000000000000000000",
                    "parentHash" : "0x7f03c35e2e8640eb0631fae75051ef2e9a0b39ec8b3586e79c3d27bc352cad76",
                    "receiptTrie" : "0x18571b7ea8f74e63ae721c3179b91e11595dbcb88da5bef957b4ed73cfbf3762",
                    "stateRoot" : "0x59c4977d1797ed50fbe0648f21d56d47b5cb9c9a724d7b6b7eb14b84a317e862",
                    "timestamp" : "0x03e8",
                    "transactionsTrie" : "0x174ccc4f3050aca8eb96ee492d7f77c48698de3988b3a422e2bc6974348182c0",
                    "uncleHash" : "0x1dcc4de8dec75d7aab85b567b6ccd41ad312451b948a7413f0a142fd40d49347",
                    "withdrawalsRoot" : "0x56e81f171bcc55a6ff8345e692c0f86e5b48e01b996cadc001622fb5e363b421"
                },
                "rlp" : "0xf902a2f90239a07f03c35e2e8640eb0631fae75051ef2e9a0b39ec8b3586e79c3d27bc352cad76a01dcc4de8dec75d7aab85b567b6ccd41ad312451b948a7413f0a142fd40d49347942adc25665018aa1fe0e6bc666dac8fc2697ff9baa059c4977d1797ed50fbe0648f21d56d47b5cb9c9a724d7b6b7eb14b84a317e862a0174ccc4f3050aca8eb96ee492d7f77c48698de3988b3a422e2bc6974348182c0a018571b7ea8f74e63ae721c3179b91e11595dbcb88da5bef957b4ed73cfbf3762b90100000000000000000000000000000000000000000000000000000000000000000000000000000000000000000000000000000000000000000000000000000000000000000000000000000000000000000000000000000000000000000000000000000000000000000000000000000000000000000000000000000000000000000000000000000000000000000000000000000000000000000000000000000000000000000000000000000000000000000000000000000000000000000000000000000000000000000000000000000000000000000000000000000000000000000000000000000000000000000000000000000000000000000000000000000000008001830f424082db3f8203e800a000000000000000000000000000000000000000000000000000000000000200008800000000000000000aa056e81f171bcc55a6ff8345e692c0f86e5b48e01b996cadc001622fb5e363b4218080a00000000000000000000000000000000000000000000000000000000000000000f862f860800a83061a8094095e7baea6a6c7c4c2dfeb977efac326af552d8701801ca09d46b87169053cc40670aef750b032c895cde3e35c2c7f5a37c059272e0914c7a04d4a94b67b2776cc3e0fca2ed9503c10fd92ec79f1b2dcbb85df9634c7de3119c0c0",
                "transactions" : [
                    {
                        "data" : "0x",
                        "gasLimit" : "0x061a80",
                        "gasPrice" : "0x0a",
                        "nonce" : "0x00",
                        "r" : "0x9d46b87169053cc40670aef750b032c895cde3e35c2c7f5a37c059272e0914c7",
                        "s" : "0x4d4a94b67b2776cc3e0fca2ed9503c10fd92ec79f1b2dcbb85df9634c7de3119",
                        "sender" : "0xa94f5374fce5edbc8e2a8697c15331677e6ebf0b",
                        "to" : "0x095e7baea6a6c7c4c2dfeb977efac326af552d87",
                        "v" : "0x1c",
                        "value" : "0x01"
                    }
                ],
                "uncleHeaders" : [
                ],
                "withdrawals" : [
                ]
            }
        ],
        "config" : {
            "blobSchedule" : {
                "Cancun" : {
                    "baseFeeUpdateFraction" : "0x32f0ed",
                    "max" : "0x06",
                    "target" : "0x03"
                }
            },
            "chainid" : "0x01",
            "network" : "Cancun"
        },
        "genesisBlockHeader" : {
            "baseFeePerGas" : "0x0b",
            "blobGasUsed" : "0x00",
            "bloom" : "0x00000000000000000000000000000000000000000000000000000000000000000000000000000000000000000000000000000000000000000000000000000000000000000000000000000000000000000000000000000000000000000000000000000000000000000000000000000000000000000000000000000000000000000000000000000000000000000000000000000000000000000000000000000000000000000000000000000000000000000000000000000000000000000000000000000000000000000000000000000000000000000000000000000000000000000000000000000000000000000000000000000000000000000000000000000000",
            "coinbase" : "0x2adc25665018aa1fe0e6bc666dac8fc2697ff9ba",
            "difficulty" : "0x00",
            "excessBlobGas" : "0x060000",
            "extraData" : "0x00",
            "gasLimit" : "0x0f4240",
            "gasUsed" : "0x00",
            "hash" : "0x7f03c35e2e8640eb0631fae75051ef2e9a0b39ec8b3586e79c3d27bc352cad76",
            "mixHash" : "0x0000000000000000000000000000000000000000000000000000000000020000",
            "nonce" : "0x0000000000000000",
            "number" : "0x00",
            "parentBeaconBlockRoot" : "0x0000000000000000000000000000000000000000000000000000000000000000",
            "parentHash" : "0x0000000000000000000000000000000000000000000000000000000000000000",
            "receiptTrie" : "0x56e81f171bcc55a6ff8345e692c0f86e5b48e01b996cadc001622fb5e363b421",
            "stateRoot" : "0x9305e1551bc54af2c278e4911aea0c9480715eec326426670afcea87efbb05d5",
            "timestamp" : "0x00",
            "transactionsTrie" : "0x56e81f171bcc55a6ff8345e692c0f86e5b48e01b996cadc001622fb5e363b421",
            "uncleHash" : "0x1dcc4de8dec75d7aab85b567b6ccd41ad312451b948a7413f0a142fd40d49347",
            "withdrawalsRoot" : "0x56e81f171bcc55a6ff8345e692c0f86e5b48e01b996cadc001622fb5e363b421"
        },
        "genesisRLP" : "0xf9023ef90238a00000000000000000000000000000000000000000000000000000000000000000a01dcc4de8dec75d7aab85b567b6ccd41ad312451b948a7413f0a142fd40d49347942adc25665018aa1fe0e6bc666dac8fc2697ff9baa09305e1551bc54af2c278e4911aea0c9480715eec326426670afcea87efbb05d5a056e81f171bcc55a6ff8345e692c0f86e5b48e01b996cadc001622fb5e363b421a056e81f171bcc55a6ff8345e692c0f86e5b48e01b996cadc001622fb5e363b421b90100000000000000000000000000000000000000000000000000000000000000000000000000000000000000000000000000000000000000000000000000000000000000000000000000000000000000000000000000000000000000000000000000000000000000000000000000000000000000000000000000000000000000000000000000000000000000000000000000000000000000000000000000000000000000000000000000000000000000000000000000000000000000000000000000000000000000000000000000000000000000000000000000000000000000000000000000000000000000000000000000000000000000000000000000000000008080830f4240808000a000000000000000000000000000000000000000000000000000000000000200008800000000000000000ba056e81f171bcc55a6ff8345e692c0f86e5b48e01b996cadc001622fb5e363b4218083060000a00000000000000000000000000000000000000000000000000000000000000000c0c0c0",
        "lastblockhash" : "0x5df7176fe5e677b70bd535d8e18afe2690c4cdf8fb5d3687d0d203027bb6ac57",
        "network" : "Cancun",
        "postState" : {
            "0x000f3df6d732807ef1319fb7b8bb8522d0beac02" : {
                "balance" : "0x00",
                "code" : "0x3373fffffffffffffffffffffffffffffffffffffffe14604d57602036146024575f5ffd5b5f35801560495762001fff810690815414603c575f5ffd5b62001fff01545f5260205ff35b5f5ffd5b62001fff42064281555f359062001fff015500",
                "nonce" : "0x01",
                "storage" : {
                    "0x03e8" : "0x03e8"
                }
            },
            "0x095e7baea6a6c7c4c2dfeb977efac326af552d87" : {
                "balance" : "0x0de0b6b3a7640001",
                "code" : "0x602060006000600073deadbeef00000000000000000000000000000000620249f0f4506020600060003e600051600055602060006000600073aeadbeef00000000000000000000000000000000620249f0f4506020600060003e60005160015500",
                "nonce" : "0x00",
                "storage" : {
                    "0x00" : "0x56570de287d73cd1cb6092bb8fdee6173974955fdef345ae579ee9f475ea7432",
                    "0x01" : "0x02"
                }
            },
            "0xa94f5374fce5edbc8e2a8697c15331677e6ebf0b" : {
                "balance" : "0x0de0b6b3a75b6f89",
                "code" : "0x",
                "nonce" : "0x01",
                "storage" : {
                }
            },
            "0xaeadbeef00000000000000000000000000000000" : {
                "balance" : "0x0de0b6b3a7640000",
                "code" : "0x73deadbeef000000000000000000000000000000013b60005260206000f300",
                "nonce" : "0x00",
                "storage" : {
                    "0x00" : "0xdeadbeef"
                }
            },
            "0xdeadbeef00000000000000000000000000000000" : {
                "balance" : "0x0de0b6b3a7640000",
                "code" : "0x73deadbeef000000000000000000000000000000013f60005260206000f300",
                "nonce" : "0x00",
                "storage" : {
                    "0x00" : "0xdeadbeef"
                }
            },
            "0xdeadbeef00000000000000000000000000000001" : {
                "balance" : "0x0de0b6b3a7640000",
                "code" : "0x1234",
                "nonce" : "0x00",
                "storage" : {
                }
            }
        },
        "pre" : {
            "0x000f3df6d732807ef1319fb7b8bb8522d0beac02" : {
                "balance" : "0x00",
                "code" : "0x3373fffffffffffffffffffffffffffffffffffffffe14604d57602036146024575f5ffd5b5f35801560495762001fff810690815414603c575f5ffd5b62001fff01545f5260205ff35b5f5ffd5b62001fff42064281555f359062001fff015500",
                "nonce" : "0x01",
                "storage" : {
                }
            },
            "0x095e7baea6a6c7c4c2dfeb977efac326af552d87" : {
                "balance" : "0x0de0b6b3a7640000",
                "code" : "0x602060006000600073deadbeef00000000000000000000000000000000620249f0f4506020600060003e600051600055602060006000600073aeadbeef00000000000000000000000000000000620249f0f4506020600060003e60005160015500",
                "nonce" : "0x00",
                "storage" : {
                    "0x00" : "0xdeadbeef"
                }
            },
            "0xa94f5374fce5edbc8e2a8697c15331677e6ebf0b" : {
                "balance" : "0x0de0b6b3a7640000",
                "code" : "0x",
                "nonce" : "0x00",
                "storage" : {
                }
            },
            "0xaeadbeef00000000000000000000000000000000" : {
                "balance" : "0x0de0b6b3a7640000",
                "code" : "0x73deadbeef000000000000000000000000000000013b60005260206000f300",
                "nonce" : "0x00",
                "storage" : {
                    "0x00" : "0xdeadbeef"
                }
            },
            "0xdeadbeef00000000000000000000000000000000" : {
                "balance" : "0x0de0b6b3a7640000",
                "code" : "0x73deadbeef000000000000000000000000000000013f60005260206000f300",
                "nonce" : "0x00",
                "storage" : {
                    "0x00" : "0xdeadbeef"
                }
            },
            "0xdeadbeef00000000000000000000000000000001" : {
                "balance" : "0x0de0b6b3a7640000",
                "code" : "0x1234",
                "nonce" : "0x00",
                "storage" : {
                }
            }
        },
        "sealEngine" : "NoProof"
    },
    "extCodeHashDELEGATECALL_d0g0v0_Prague" : {
        "_info" : {
            "comment" : "EXTCODEHASH of an account during a DELEGATECALL",
            "filling-rpc-server" : "evmone-t8n 0.14.0-13+commit.4d363c36",
            "filling-tool-version" : "retesteth-0.3.2-legacy+commit.ca7f4c79.Linux.g++",
            "fixture-format" : "blockchain_test",
            "generatedTestHash" : "3d00e1d2bcefbf8d0dbc97aa3bd8b89aa43e9af2dfd6ec371da4a48863e44a59",
            "lllcversion" : "Version: 0.5.14-develop.2024.11.5+commit.b2b86751.mod.Linux.g++",
            "solidity" : "Version: 0.8.24+commit.e11b9ed9.Linux.g++",
            "source" : "src/GeneralStateTestsFiller/stExtCodeHash/extCodeHashDELEGATECALLFiller.json",
            "sourceHash" : "e73e87553c77110aab58d7809830df2feb0c6425d7d4e759916d08de3f0aec57"
        },
        "blocks" : [
            {
                "blockHeader" : {
                    "baseFeePerGas" : "0x0a",
                    "blobGasUsed" : "0x00",
                    "bloom" : "0x00000000000000000000000000000000000000000000000000000000000000000000000000000000000000000000000000000000000000000000000000000000000000000000000000000000000000000000000000000000000000000000000000000000000000000000000000000000000000000000000000000000000000000000000000000000000000000000000000000000000000000000000000000000000000000000000000000000000000000000000000000000000000000000000000000000000000000000000000000000000000000000000000000000000000000000000000000000000000000000000000000000000000000000000000000000",
                    "coinbase" : "0x2adc25665018aa1fe0e6bc666dac8fc2697ff9ba",
                    "difficulty" : "0x00",
                    "excessBlobGas" : "0x00",
                    "extraData" : "0x00",
                    "gasLimit" : "0x0f4240",
                    "gasUsed" : "0xdb3f",
                    "hash" : "0xa7dd16119d640738b138f9f51dadc30af695496fdf42b082746debc99b3c1c82",
                    "mixHash" : "0x0000000000000000000000000000000000000000000000000000000000020000",
                    "nonce" : "0x0000000000000000",
                    "number" : "0x01",
                    "parentBeaconBlockRoot" : "0x0000000000000000000000000000000000000000000000000000000000000000",
                    "parentHash" : "0xb1933bc7e2a4d985e10db318b45c838d4bea78b3e4d2545baf0b2864cb7e63b9",
                    "receiptTrie" : "0x18571b7ea8f74e63ae721c3179b91e11595dbcb88da5bef957b4ed73cfbf3762",
                    "requestsHash" : "0xe3b0c44298fc1c149afbf4c8996fb92427ae41e4649b934ca495991b7852b855",
                    "stateRoot" : "0x65c7e4c1af5cc1a37a40c08228213d926f95122a71d66a644e6c42ddebffc13f",
                    "timestamp" : "0x03e8",
                    "transactionsTrie" : "0x174ccc4f3050aca8eb96ee492d7f77c48698de3988b3a422e2bc6974348182c0",
                    "uncleHash" : "0x1dcc4de8dec75d7aab85b567b6ccd41ad312451b948a7413f0a142fd40d49347",
                    "withdrawalsRoot" : "0x56e81f171bcc55a6ff8345e692c0f86e5b48e01b996cadc001622fb5e363b421"
                },
                "rlp" : "0xf902c3f9025aa0b1933bc7e2a4d985e10db318b45c838d4bea78b3e4d2545baf0b2864cb7e63b9a01dcc4de8dec75d7aab85b567b6ccd41ad312451b948a7413f0a142fd40d49347942adc25665018aa1fe0e6bc666dac8fc2697ff9baa065c7e4c1af5cc1a37a40c08228213d926f95122a71d66a644e6c42ddebffc13fa0174ccc4f3050aca8eb96ee492d7f77c48698de3988b3a422e2bc6974348182c0a018571b7ea8f74e63ae721c3179b91e11595dbcb88da5bef957b4ed73cfbf3762b90100000000000000000000000000000000000000000000000000000000000000000000000000000000000000000000000000000000000000000000000000000000000000000000000000000000000000000000000000000000000000000000000000000000000000000000000000000000000000000000000000000000000000000000000000000000000000000000000000000000000000000000000000000000000000000000000000000000000000000000000000000000000000000000000000000000000000000000000000000000000000000000000000000000000000000000000000000000000000000000000000000000000000000000000000000000008001830f424082db3f8203e800a000000000000000000000000000000000000000000000000000000000000200008800000000000000000aa056e81f171bcc55a6ff8345e692c0f86e5b48e01b996cadc001622fb5e363b4218080a00000000000000000000000000000000000000000000000000000000000000000a0e3b0c44298fc1c149afbf4c8996fb92427ae41e4649b934ca495991b7852b855f862f860800a83061a8094095e7baea6a6c7c4c2dfeb977efac326af552d8701801ca09d46b87169053cc40670aef750b032c895cde3e35c2c7f5a37c059272e0914c7a04d4a94b67b2776cc3e0fca2ed9503c10fd92ec79f1b2dcbb85df9634c7de3119c0c0",
                "transactions" : [
                    {
                        "data" : "0x",
                        "gasLimit" : "0x061a80",
                        "gasPrice" : "0x0a",
                        "nonce" : "0x00",
                        "r" : "0x9d46b87169053cc40670aef750b032c895cde3e35c2c7f5a37c059272e0914c7",
                        "s" : "0x4d4a94b67b2776cc3e0fca2ed9503c10fd92ec79f1b2dcbb85df9634c7de3119",
                        "sender" : "0xa94f5374fce5edbc8e2a8697c15331677e6ebf0b",
                        "to" : "0x095e7baea6a6c7c4c2dfeb977efac326af552d87",
                        "v" : "0x1c",
                        "value" : "0x01"
                    }
                ],
                "uncleHeaders" : [
                ],
                "withdrawals" : [
                ]
            }
        ],
        "config" : {
            "blobSchedule" : {
                "Prague" : {
                    "baseFeeUpdateFraction" : "0x4c6964",
                    "max" : "0x09",
                    "target" : "0x06"
                }
            },
            "chainid" : "0x01",
            "network" : "Prague"
        },
        "genesisBlockHeader" : {
            "baseFeePerGas" : "0x0b",
            "blobGasUsed" : "0x00",
            "bloom" : "0x00000000000000000000000000000000000000000000000000000000000000000000000000000000000000000000000000000000000000000000000000000000000000000000000000000000000000000000000000000000000000000000000000000000000000000000000000000000000000000000000000000000000000000000000000000000000000000000000000000000000000000000000000000000000000000000000000000000000000000000000000000000000000000000000000000000000000000000000000000000000000000000000000000000000000000000000000000000000000000000000000000000000000000000000000000000",
            "coinbase" : "0x2adc25665018aa1fe0e6bc666dac8fc2697ff9ba",
            "difficulty" : "0x00",
            "excessBlobGas" : "0x060000",
            "extraData" : "0x00",
            "gasLimit" : "0x0f4240",
            "gasUsed" : "0x00",
            "hash" : "0xb1933bc7e2a4d985e10db318b45c838d4bea78b3e4d2545baf0b2864cb7e63b9",
            "mixHash" : "0x0000000000000000000000000000000000000000000000000000000000020000",
            "nonce" : "0x0000000000000000",
            "number" : "0x00",
            "parentBeaconBlockRoot" : "0x0000000000000000000000000000000000000000000000000000000000000000",
            "parentHash" : "0x0000000000000000000000000000000000000000000000000000000000000000",
            "receiptTrie" : "0x56e81f171bcc55a6ff8345e692c0f86e5b48e01b996cadc001622fb5e363b421",
            "requestsHash" : "0xe3b0c44298fc1c149afbf4c8996fb92427ae41e4649b934ca495991b7852b855",
            "stateRoot" : "0xc7a2049e6de76a06a0a41c6b245b1f407e3afc8ff8426e27e6f7e67fd94ee756",
            "timestamp" : "0x00",
            "transactionsTrie" : "0x56e81f171bcc55a6ff8345e692c0f86e5b48e01b996cadc001622fb5e363b421",
            "uncleHash" : "0x1dcc4de8dec75d7aab85b567b6ccd41ad312451b948a7413f0a142fd40d49347",
            "withdrawalsRoot" : "0x56e81f171bcc55a6ff8345e692c0f86e5b48e01b996cadc001622fb5e363b421"
        },
        "genesisRLP" : "0xf9025ff90259a00000000000000000000000000000000000000000000000000000000000000000a01dcc4de8dec75d7aab85b567b6ccd41ad312451b948a7413f0a142fd40d49347942adc25665018aa1fe0e6bc666dac8fc2697ff9baa0c7a2049e6de76a06a0a41c6b245b1f407e3afc8ff8426e27e6f7e67fd94ee756a056e81f171bcc55a6ff8345e692c0f86e5b48e01b996cadc001622fb5e363b421a056e81f171bcc55a6ff8345e692c0f86e5b48e01b996cadc001622fb5e363b421b90100000000000000000000000000000000000000000000000000000000000000000000000000000000000000000000000000000000000000000000000000000000000000000000000000000000000000000000000000000000000000000000000000000000000000000000000000000000000000000000000000000000000000000000000000000000000000000000000000000000000000000000000000000000000000000000000000000000000000000000000000000000000000000000000000000000000000000000000000000000000000000000000000000000000000000000000000000000000000000000000000000000000000000000000000000000008080830f4240808000a000000000000000000000000000000000000000000000000000000000000200008800000000000000000ba056e81f171bcc55a6ff8345e692c0f86e5b48e01b996cadc001622fb5e363b4218083060000a00000000000000000000000000000000000000000000000000000000000000000a0e3b0c44298fc1c149afbf4c8996fb92427ae41e4649b934ca495991b7852b855c0c0c0",
        "lastblockhash" : "0xa7dd16119d640738b138f9f51dadc30af695496fdf42b082746debc99b3c1c82",
        "network" : "Prague",
        "postState" : {
            "0x0000f90827f1c53a10cb7a02335b175320002935" : {
                "balance" : "0x00",
                "code" : "0x3373fffffffffffffffffffffffffffffffffffffffe14604657602036036042575f35600143038111604257611fff81430311604257611fff9006545f5260205ff35b5f5ffd5b5f35611fff60014303065500",
                "nonce" : "0x01",
                "storage" : {
                    "0x00" : "0xb1933bc7e2a4d985e10db318b45c838d4bea78b3e4d2545baf0b2864cb7e63b9"
                }
            },
            "0x000f3df6d732807ef1319fb7b8bb8522d0beac02" : {
                "balance" : "0x00",
                "code" : "0x3373fffffffffffffffffffffffffffffffffffffffe14604d57602036146024575f5ffd5b5f35801560495762001fff810690815414603c575f5ffd5b62001fff01545f5260205ff35b5f5ffd5b62001fff42064281555f359062001fff015500",
                "nonce" : "0x01",
                "storage" : {
                    "0x03e8" : "0x03e8"
                }
            },
            "0x095e7baea6a6c7c4c2dfeb977efac326af552d87" : {
                "balance" : "0x0de0b6b3a7640001",
                "code" : "0x602060006000600073deadbeef00000000000000000000000000000000620249f0f4506020600060003e600051600055602060006000600073aeadbeef00000000000000000000000000000000620249f0f4506020600060003e60005160015500",
                "nonce" : "0x00",
                "storage" : {
                    "0x00" : "0x56570de287d73cd1cb6092bb8fdee6173974955fdef345ae579ee9f475ea7432",
                    "0x01" : "0x02"
                }
            },
            "0xa94f5374fce5edbc8e2a8697c15331677e6ebf0b" : {
                "balance" : "0x0de0b6b3a75b6f89",
                "code" : "0x",
                "nonce" : "0x01",
                "storage" : {
                }
            },
            "0xaeadbeef00000000000000000000000000000000" : {
                "balance" : "0x0de0b6b3a7640000",
                "code" : "0x73deadbeef000000000000000000000000000000013b60005260206000f300",
                "nonce" : "0x00",
                "storage" : {
                    "0x00" : "0xdeadbeef"
                }
            },
            "0xdeadbeef00000000000000000000000000000000" : {
                "balance" : "0x0de0b6b3a7640000",
                "code" : "0x73deadbeef000000000000000000000000000000013f60005260206000f300",
                "nonce" : "0x00",
                "storage" : {
                    "0x00" : "0xdeadbeef"
                }
            },
            "0xdeadbeef00000000000000000000000000000001" : {
                "balance" : "0x0de0b6b3a7640000",
                "code" : "0x1234",
                "nonce" : "0x00",
                "storage" : {
                }
            }
        },
        "pre" : {
            "0x0000f90827f1c53a10cb7a02335b175320002935" : {
                "balance" : "0x00",
                "code" : "0x3373fffffffffffffffffffffffffffffffffffffffe14604657602036036042575f35600143038111604257611fff81430311604257611fff9006545f5260205ff35b5f5ffd5b5f35611fff60014303065500",
                "nonce" : "0x01",
                "storage" : {
                }
            },
            "0x000f3df6d732807ef1319fb7b8bb8522d0beac02" : {
                "balance" : "0x00",
                "code" : "0x3373fffffffffffffffffffffffffffffffffffffffe14604d57602036146024575f5ffd5b5f35801560495762001fff810690815414603c575f5ffd5b62001fff01545f5260205ff35b5f5ffd5b62001fff42064281555f359062001fff015500",
                "nonce" : "0x01",
                "storage" : {
                }
            },
            "0x095e7baea6a6c7c4c2dfeb977efac326af552d87" : {
                "balance" : "0x0de0b6b3a7640000",
                "code" : "0x602060006000600073deadbeef00000000000000000000000000000000620249f0f4506020600060003e600051600055602060006000600073aeadbeef00000000000000000000000000000000620249f0f4506020600060003e60005160015500",
                "nonce" : "0x00",
                "storage" : {
                    "0x00" : "0xdeadbeef"
                }
            },
            "0xa94f5374fce5edbc8e2a8697c15331677e6ebf0b" : {
                "balance" : "0x0de0b6b3a7640000",
                "code" : "0x",
                "nonce" : "0x00",
                "storage" : {
                }
            },
            "0xaeadbeef00000000000000000000000000000000" : {
                "balance" : "0x0de0b6b3a7640000",
                "code" : "0x73deadbeef000000000000000000000000000000013b60005260206000f300",
                "nonce" : "0x00",
                "storage" : {
                    "0x00" : "0xdeadbeef"
                }
            },
            "0xdeadbeef00000000000000000000000000000000" : {
                "balance" : "0x0de0b6b3a7640000",
                "code" : "0x73deadbeef000000000000000000000000000000013f60005260206000f300",
                "nonce" : "0x00",
                "storage" : {
                    "0x00" : "0xdeadbeef"
                }
            },
            "0xdeadbeef00000000000000000000000000000001" : {
                "balance" : "0x0de0b6b3a7640000",
                "code" : "0x1234",
                "nonce" : "0x00",
                "storage" : {
                }
            }
        },
        "sealEngine" : "NoProof"
    }
}