{
    "signextNonConst_d0g0v0_Cancun" : {
        "_info" : {
            "comment" : "",
            "filling-rpc-server" : "evmone-t8n 0.14.0-13+commit.4d363c36",
            "filling-tool-version" : "retesteth-0.3.2-legacy+commit.ca7f4c79.Linux.g++",
            "fixture-format" : "blockchain_test",
            "generatedTestHash" : "8647ebc5289e397c71f333ac7f1e3e90c1a418bcee9328e83b9a8e53da20f026",
            "lllcversion" : "Version: 0.5.14-develop.2024.11.5+commit.b2b86751.mod.Linux.g++",
            "hyperion" : "Version: 0.8.24+commit.e11b9ed9.Linux.g++",
            "source" : "src/GeneralStateTestsFiller/stArgsZeroOneBalance/signextNonConstFiller.yml",
            "sourceHash" : "9e39a7a9a80dca4911470b65b217afb94760119adadbf469911409a0f5151711"
        },
        "blocks" : [
            {
                "blockHeader" : {
                    "baseFeePerGas" : "0x0a",
                    "bloom" : "0x00000000000000000000000000000000000000000000000000000000000000000000000000000000000000000000000000000000000000000000000000000000000000000000000000000000000000000000000000000000000000000000000000000000000000000000000000000000000000000000000000000000000000000000000000000000000000000000000000000000000000000000000000000000000000000000000000000000000000000000000000000000000000000000000000000000000000000000000000000000000000000000000000000000000000000000000000000000000000000000000000000000000000000000000000000000",
                    "coinbase" : "Z2adc25665018aa1fe0e6bc666dac8fc2697ff9ba",
                    "extraData" : "0x00",
                    "gasLimit" : "0x0f4240",
                    "gasUsed" : "0x5b76",
                    "hash" : "0x3f5f6737dd628a3586c3abfb28bfa00f8ec1e4189512983c2d08fb6d35970b13",
                    "mixHash" : "0x0000000000000000000000000000000000000000000000000000000000020000",
                    "nonce" : "0x0000000000000000",
                    "number" : "0x01",
                    "parentHash" : "0xdcc15736666d8b8218daa45a1fe21607f3371a8f72d5f541b8cc3ec72e418743",
                    "receiptTrie" : "0x26e053bccc882ac8cd75f089ce094b3b93a0930a62ffec79c39de3c1a6aa09ff",
                    "stateRoot" : "0x34cb8af85b8199c1af28caf6d73c933874165033a74ec9443fa2063a833ee263",
                    "timestamp" : "0x03e8",
                    "transactionsTrie" : "0x0967f09ef1dfed20c0eacfaa94d5cd4002eda3242ac47eae68972d07b106d192",
                    "withdrawalsRoot" : "0x56e81f171bcc55a6ff8345e692c0f86e5b48e01b996cadc001622fb5e363b421"
                },
                "rlp" : "0xf902a2f90239a0dcc15736666d8b8218daa45a1fe21607f3371a8f72d5f541b8cc3ec72e418743a01dcc4de8dec75d7aab85b567b6ccd41ad312451b948a7413f0a142fd40d49347942adc25665018aa1fe0e6bc666dac8fc2697ff9baa034cb8af85b8199c1af28caf6d73c933874165033a74ec9443fa2063a833ee263a00967f09ef1dfed20c0eacfaa94d5cd4002eda3242ac47eae68972d07b106d192a026e053bccc882ac8cd75f089ce094b3b93a0930a62ffec79c39de3c1a6aa09ffb90100000000000000000000000000000000000000000000000000000000000000000000000000000000000000000000000000000000000000000000000000000000000000000000000000000000000000000000000000000000000000000000000000000000000000000000000000000000000000000000000000000000000000000000000000000000000000000000000000000000000000000000000000000000000000000000000000000000000000000000000000000000000000000000000000000000000000000000000000000000000000000000000000000000000000000000000000000000000000000000000000000000000000000000000000000000008001830f4240825b768203e800a000000000000000000000000000000000000000000000000000000000000200008800000000000000000aa056e81f171bcc55a6ff8345e692c0f86e5b48e01b996cadc001622fb5e363b4218080a00000000000000000000000000000000000000000000000000000000000000000f862f860800a83061a8094095e7baea6a6c7c4c2dfeb977efac326af552d8780801ba072ed817487b84ba367d15d2f039b5fc5f087d0a8882fbdf73e8cb49357e1ce30a0403d800545b8fc544f92ce8124e2255f8c3c6af93f28243a120585d4c4c6a2a3c0c0",
                "transactions" : [
                    {
                        "data" : "0x",
                        "gasLimit" : "0x061a80",
                        "gasPrice" : "0x0a",
                        "nonce" : "0x00",
                        "signature" : "0x72ed817487b84ba367d15d2f039b5fc5f087d0a8882fbdf73e8cb49357e1ce30",
                        "publicKey" : "0x403d800545b8fc544f92ce8124e2255f8c3c6af93f28243a120585d4c4c6a2a3",
                        "sender" : "Za94f5374fce5edbc8e2a8697c15331677e6ebf0b",
                        "to" : "Z095e7baea6a6c7c4c2dfeb977efac326af552d87",
                        "v" : "0x1b",
                        "value" : "0x00"
                    }
                ],

                "withdrawals" : [
                ]
            }
        ],
        "config" : {
            "blobSchedule" : {
                "Cancun" : {
                    "baseFeeUpdateFraction" : "0x32f0ed",
                    "max" : "0x06",
                    "target" : "0x03"
                }
            },
            "chainid" : "0x01",
            "network" : "Cancun"
        },
        "genesisBlockHeader" : {
            "baseFeePerGas" : "0x0b",
            "bloom" : "0x00000000000000000000000000000000000000000000000000000000000000000000000000000000000000000000000000000000000000000000000000000000000000000000000000000000000000000000000000000000000000000000000000000000000000000000000000000000000000000000000000000000000000000000000000000000000000000000000000000000000000000000000000000000000000000000000000000000000000000000000000000000000000000000000000000000000000000000000000000000000000000000000000000000000000000000000000000000000000000000000000000000000000000000000000000000",
            "coinbase" : "Z2adc25665018aa1fe0e6bc666dac8fc2697ff9ba",
            "extraData" : "0x00",
            "gasLimit" : "0x0f4240",
            "gasUsed" : "0x00",
            "hash" : "0xdcc15736666d8b8218daa45a1fe21607f3371a8f72d5f541b8cc3ec72e418743",
            "mixHash" : "0x0000000000000000000000000000000000000000000000000000000000020000",
            "nonce" : "0x0000000000000000",
            "number" : "0x00",
            "parentHash" : "0x0000000000000000000000000000000000000000000000000000000000000000",
            "receiptTrie" : "0x56e81f171bcc55a6ff8345e692c0f86e5b48e01b996cadc001622fb5e363b421",
            "stateRoot" : "0xcc3a06e6cdd7a60122fe038c36d8bfb4fa9d1cd27f1bde81fe3d31d2dfd7f53c",
            "timestamp" : "0x00",
            "transactionsTrie" : "0x56e81f171bcc55a6ff8345e692c0f86e5b48e01b996cadc001622fb5e363b421",
            "withdrawalsRoot" : "0x56e81f171bcc55a6ff8345e692c0f86e5b48e01b996cadc001622fb5e363b421"
        },
        "genesisRLP" : "0xf9023ef90238a00000000000000000000000000000000000000000000000000000000000000000a01dcc4de8dec75d7aab85b567b6ccd41ad312451b948a7413f0a142fd40d49347942adc25665018aa1fe0e6bc666dac8fc2697ff9baa0cc3a06e6cdd7a60122fe038c36d8bfb4fa9d1cd27f1bde81fe3d31d2dfd7f53ca056e81f171bcc55a6ff8345e692c0f86e5b48e01b996cadc001622fb5e363b421a056e81f171bcc55a6ff8345e692c0f86e5b48e01b996cadc001622fb5e363b421b90100000000000000000000000000000000000000000000000000000000000000000000000000000000000000000000000000000000000000000000000000000000000000000000000000000000000000000000000000000000000000000000000000000000000000000000000000000000000000000000000000000000000000000000000000000000000000000000000000000000000000000000000000000000000000000000000000000000000000000000000000000000000000000000000000000000000000000000000000000000000000000000000000000000000000000000000000000000000000000000000000000000000000000000000000000000008080830f4240808000a000000000000000000000000000000000000000000000000000000000000200008800000000000000000ba056e81f171bcc55a6ff8345e692c0f86e5b48e01b996cadc001622fb5e363b4218083060000a00000000000000000000000000000000000000000000000000000000000000000c0c0c0",
        "lastblockhash" : "0x3f5f6737dd628a3586c3abfb28bfa00f8ec1e4189512983c2d08fb6d35970b13",
        "network" : "Cancun",
        "postState" : {
            "Z000f3df6d732807ef1319fb7b8bb8522d0beac02" : {
                "balance" : "0x00",
                "code" : "0x3373fffffffffffffffffffffffffffffffffffffffe14604d57602036146024575f5ffd5b5f35801560495762001fff810690815414603c575f5ffd5b62001fff01545f5260205ff35b5f5ffd5b62001fff42064281555f359062001fff015500",
                "nonce" : "0x01",
                "storage" : {
                    "0x03e8" : "0x03e8"
                }
            },
            "0x095e7baea6a6c7c4c2dfeb977efac326af552d87" : {
                "balance" : "0x00",
                "code" : "0x73095e7baea6a6c7c4c2dfeb977efac326af552d873173095e7baea6a6c7c4c2dfeb977efac326af552d87310b60005500",
                "nonce" : "0x00",
                "storage" : {
                }
            },
            "0xa94f5374fce5edbc8e2a8697c15331677e6ebf0b" : {
                "balance" : "0x0de0b6b3a7606d64",
                "code" : "0x",
                "nonce" : "0x01",
                "storage" : {
                }
            }
        },
        "pre" : {
            "Z000f3df6d732807ef1319fb7b8bb8522d0beac02" : {
                "balance" : "0x00",
                "code" : "0x3373fffffffffffffffffffffffffffffffffffffffe14604d57602036146024575f5ffd5b5f35801560495762001fff810690815414603c575f5ffd5b62001fff01545f5260205ff35b5f5ffd5b62001fff42064281555f359062001fff015500",
                "nonce" : "0x01",
                "storage" : {
                }
            },
            "0x095e7baea6a6c7c4c2dfeb977efac326af552d87" : {
                "balance" : "0x00",
                "code" : "0x73095e7baea6a6c7c4c2dfeb977efac326af552d873173095e7baea6a6c7c4c2dfeb977efac326af552d87310b60005500",
                "nonce" : "0x00",
                "storage" : {
                }
            },
            "0xa94f5374fce5edbc8e2a8697c15331677e6ebf0b" : {
                "balance" : "0x0de0b6b3a7640000",
                "code" : "0x",
                "nonce" : "0x00",
                "storage" : {
                }
            }
        },
        "sealEngine" : "NoProof"
    },
    "signextNonConst_d0g0v0_Prague" : {
        "_info" : {
            "comment" : "",
            "filling-rpc-server" : "evmone-t8n 0.14.0-13+commit.4d363c36",
            "filling-tool-version" : "retesteth-0.3.2-legacy+commit.ca7f4c79.Linux.g++",
            "fixture-format" : "blockchain_test",
            "generatedTestHash" : "ba03710e57e1677e599476bf6dc69852a45cd45487f091e306370e47d3e822e5",
            "lllcversion" : "Version: 0.5.14-develop.2024.11.5+commit.b2b86751.mod.Linux.g++",
            "hyperion" : "Version: 0.8.24+commit.e11b9ed9.Linux.g++",
            "source" : "src/GeneralStateTestsFiller/stArgsZeroOneBalance/signextNonConstFiller.yml",
            "sourceHash" : "9e39a7a9a80dca4911470b65b217afb94760119adadbf469911409a0f5151711"
        },
        "blocks" : [
            {
                "blockHeader" : {
                    "baseFeePerGas" : "0x0a",
                    "bloom" : "0x00000000000000000000000000000000000000000000000000000000000000000000000000000000000000000000000000000000000000000000000000000000000000000000000000000000000000000000000000000000000000000000000000000000000000000000000000000000000000000000000000000000000000000000000000000000000000000000000000000000000000000000000000000000000000000000000000000000000000000000000000000000000000000000000000000000000000000000000000000000000000000000000000000000000000000000000000000000000000000000000000000000000000000000000000000000",
                    "coinbase" : "Z2adc25665018aa1fe0e6bc666dac8fc2697ff9ba",
                    "extraData" : "0x00",
                    "gasLimit" : "0x0f4240",
                    "gasUsed" : "0x5b76",
                    "hash" : "0x7b803b785c6eb68c086322ddef8d82634f3d9be73135902d2552b48dd8cc282f",
                    "mixHash" : "0x0000000000000000000000000000000000000000000000000000000000020000",
                    "nonce" : "0x0000000000000000",
                    "number" : "0x01",
                    "parentHash" : "0x4b9b08f03f0171c8f8188d661f17dfd1081af467d0001bfdda05674668016a2a",
                    "receiptTrie" : "0x26e053bccc882ac8cd75f089ce094b3b93a0930a62ffec79c39de3c1a6aa09ff",
                    "requestsHash" : "0xe3b0c44298fc1c149afbf4c8996fb92427ae41e4649b934ca495991b7852b855",
                    "stateRoot" : "0x5d081bec3006ed45a6a71f796b4fcb6c9376e58a8305314babcb112e4ab270f4",
                    "timestamp" : "0x03e8",
                    "transactionsTrie" : "0x0967f09ef1dfed20c0eacfaa94d5cd4002eda3242ac47eae68972d07b106d192",
                    "withdrawalsRoot" : "0x56e81f171bcc55a6ff8345e692c0f86e5b48e01b996cadc001622fb5e363b421"
                },
                "rlp" : "0xf902c3f9025aa04b9b08f03f0171c8f8188d661f17dfd1081af467d0001bfdda05674668016a2aa01dcc4de8dec75d7aab85b567b6ccd41ad312451b948a7413f0a142fd40d49347942adc25665018aa1fe0e6bc666dac8fc2697ff9baa05d081bec3006ed45a6a71f796b4fcb6c9376e58a8305314babcb112e4ab270f4a00967f09ef1dfed20c0eacfaa94d5cd4002eda3242ac47eae68972d07b106d192a026e053bccc882ac8cd75f089ce094b3b93a0930a62ffec79c39de3c1a6aa09ffb90100000000000000000000000000000000000000000000000000000000000000000000000000000000000000000000000000000000000000000000000000000000000000000000000000000000000000000000000000000000000000000000000000000000000000000000000000000000000000000000000000000000000000000000000000000000000000000000000000000000000000000000000000000000000000000000000000000000000000000000000000000000000000000000000000000000000000000000000000000000000000000000000000000000000000000000000000000000000000000000000000000000000000000000000000000000008001830f4240825b768203e800a000000000000000000000000000000000000000000000000000000000000200008800000000000000000aa056e81f171bcc55a6ff8345e692c0f86e5b48e01b996cadc001622fb5e363b4218080a00000000000000000000000000000000000000000000000000000000000000000a0e3b0c44298fc1c149afbf4c8996fb92427ae41e4649b934ca495991b7852b855f862f860800a83061a8094095e7baea6a6c7c4c2dfeb977efac326af552d8780801ba072ed817487b84ba367d15d2f039b5fc5f087d0a8882fbdf73e8cb49357e1ce30a0403d800545b8fc544f92ce8124e2255f8c3c6af93f28243a120585d4c4c6a2a3c0c0",
                "transactions" : [
                    {
                        "data" : "0x",
                        "gasLimit" : "0x061a80",
                        "gasPrice" : "0x0a",
                        "nonce" : "0x00",
                        "signature" : "0x72ed817487b84ba367d15d2f039b5fc5f087d0a8882fbdf73e8cb49357e1ce30",
                        "publicKey" : "0x403d800545b8fc544f92ce8124e2255f8c3c6af93f28243a120585d4c4c6a2a3",
                        "sender" : "Za94f5374fce5edbc8e2a8697c15331677e6ebf0b",
                        "to" : "Z095e7baea6a6c7c4c2dfeb977efac326af552d87",
                        "v" : "0x1b",
                        "value" : "0x00"
                    }
                ],

                "withdrawals" : [
                ]
            }
        ],
        "config" : {
            "blobSchedule" : {
                "Prague" : {
                    "baseFeeUpdateFraction" : "0x4c6964",
                    "max" : "0x09",
                    "target" : "0x06"
                }
            },
            "chainid" : "0x01",
            "network" : "Prague"
        },
        "genesisBlockHeader" : {
            "baseFeePerGas" : "0x0b",
            "bloom" : "0x00000000000000000000000000000000000000000000000000000000000000000000000000000000000000000000000000000000000000000000000000000000000000000000000000000000000000000000000000000000000000000000000000000000000000000000000000000000000000000000000000000000000000000000000000000000000000000000000000000000000000000000000000000000000000000000000000000000000000000000000000000000000000000000000000000000000000000000000000000000000000000000000000000000000000000000000000000000000000000000000000000000000000000000000000000000",
            "coinbase" : "Z2adc25665018aa1fe0e6bc666dac8fc2697ff9ba",
            "extraData" : "0x00",
            "gasLimit" : "0x0f4240",
            "gasUsed" : "0x00",
            "hash" : "0x4b9b08f03f0171c8f8188d661f17dfd1081af467d0001bfdda05674668016a2a",
            "mixHash" : "0x0000000000000000000000000000000000000000000000000000000000020000",
            "nonce" : "0x0000000000000000",
            "number" : "0x00",
            "parentHash" : "0x0000000000000000000000000000000000000000000000000000000000000000",
            "receiptTrie" : "0x56e81f171bcc55a6ff8345e692c0f86e5b48e01b996cadc001622fb5e363b421",
            "requestsHash" : "0xe3b0c44298fc1c149afbf4c8996fb92427ae41e4649b934ca495991b7852b855",
            "stateRoot" : "0xc4269d106fbe616eb6fbe96c18aafc65603d0dcc799aa57fa0c86e37e70a2767",
            "timestamp" : "0x00",
            "transactionsTrie" : "0x56e81f171bcc55a6ff8345e692c0f86e5b48e01b996cadc001622fb5e363b421",
            "withdrawalsRoot" : "0x56e81f171bcc55a6ff8345e692c0f86e5b48e01b996cadc001622fb5e363b421"
        },
        "genesisRLP" : "0xf9025ff90259a00000000000000000000000000000000000000000000000000000000000000000a01dcc4de8dec75d7aab85b567b6ccd41ad312451b948a7413f0a142fd40d49347942adc25665018aa1fe0e6bc666dac8fc2697ff9baa0c4269d106fbe616eb6fbe96c18aafc65603d0dcc799aa57fa0c86e37e70a2767a056e81f171bcc55a6ff8345e692c0f86e5b48e01b996cadc001622fb5e363b421a056e81f171bcc55a6ff8345e692c0f86e5b48e01b996cadc001622fb5e363b421b90100000000000000000000000000000000000000000000000000000000000000000000000000000000000000000000000000000000000000000000000000000000000000000000000000000000000000000000000000000000000000000000000000000000000000000000000000000000000000000000000000000000000000000000000000000000000000000000000000000000000000000000000000000000000000000000000000000000000000000000000000000000000000000000000000000000000000000000000000000000000000000000000000000000000000000000000000000000000000000000000000000000000000000000000000000000008080830f4240808000a000000000000000000000000000000000000000000000000000000000000200008800000000000000000ba056e81f171bcc55a6ff8345e692c0f86e5b48e01b996cadc001622fb5e363b4218083060000a00000000000000000000000000000000000000000000000000000000000000000a0e3b0c44298fc1c149afbf4c8996fb92427ae41e4649b934ca495991b7852b855c0c0c0",
        "lastblockhash" : "0x7b803b785c6eb68c086322ddef8d82634f3d9be73135902d2552b48dd8cc282f",
        "network" : "Prague",
        "postState" : {
            "Z0000f90827f1c53a10cb7a02335b175320002935" : {
                "balance" : "0x00",
                "code" : "0x3373fffffffffffffffffffffffffffffffffffffffe14604657602036036042575f35600143038111604257611fff81430311604257611fff9006545f5260205ff35b5f5ffd5b5f35611fff60014303065500",
                "nonce" : "0x01",
                "storage" : {
                    "0x00" : "0x4b9b08f03f0171c8f8188d661f17dfd1081af467d0001bfdda05674668016a2a"
                }
            },
            "0x000f3df6d732807ef1319fb7b8bb8522d0beac02" : {
                "balance" : "0x00",
                "code" : "0x3373fffffffffffffffffffffffffffffffffffffffe14604d57602036146024575f5ffd5b5f35801560495762001fff810690815414603c575f5ffd5b62001fff01545f5260205ff35b5f5ffd5b62001fff42064281555f359062001fff015500",
                "nonce" : "0x01",
                "storage" : {
                    "0x03e8" : "0x03e8"
                }
            },
            "0x095e7baea6a6c7c4c2dfeb977efac326af552d87" : {
                "balance" : "0x00",
                "code" : "0x73095e7baea6a6c7c4c2dfeb977efac326af552d873173095e7baea6a6c7c4c2dfeb977efac326af552d87310b60005500",
                "nonce" : "0x00",
                "storage" : {
                }
            },
            "0xa94f5374fce5edbc8e2a8697c15331677e6ebf0b" : {
                "balance" : "0x0de0b6b3a7606d64",
                "code" : "0x",
                "nonce" : "0x01",
                "storage" : {
                }
            }
        },
        "pre" : {
            "Z0000f90827f1c53a10cb7a02335b175320002935" : {
                "balance" : "0x00",
                "code" : "0x3373fffffffffffffffffffffffffffffffffffffffe14604657602036036042575f35600143038111604257611fff81430311604257611fff9006545f5260205ff35b5f5ffd5b5f35611fff60014303065500",
                "nonce" : "0x01",
                "storage" : {
                }
            },
            "0x000f3df6d732807ef1319fb7b8bb8522d0beac02" : {
                "balance" : "0x00",
                "code" : "0x3373fffffffffffffffffffffffffffffffffffffffe14604d57602036146024575f5ffd5b5f35801560495762001fff810690815414603c575f5ffd5b62001fff01545f5260205ff35b5f5ffd5b62001fff42064281555f359062001fff015500",
                "nonce" : "0x01",
                "storage" : {
                }
            },
            "0x095e7baea6a6c7c4c2dfeb977efac326af552d87" : {
                "balance" : "0x00",
                "code" : "0x73095e7baea6a6c7c4c2dfeb977efac326af552d873173095e7baea6a6c7c4c2dfeb977efac326af552d87310b60005500",
                "nonce" : "0x00",
                "storage" : {
                }
            },
            "0xa94f5374fce5edbc8e2a8697c15331677e6ebf0b" : {
                "balance" : "0x0de0b6b3a7640000",
                "code" : "0x",
                "nonce" : "0x00",
                "storage" : {
                }
            }
        },
        "sealEngine" : "NoProof"
    },
    "signextNonConst_d0g0v1_Cancun" : {
        "_info" : {
            "comment" : "",
            "filling-rpc-server" : "evmone-t8n 0.14.0-13+commit.4d363c36",
            "filling-tool-version" : "retesteth-0.3.2-legacy+commit.ca7f4c79.Linux.g++",
            "fixture-format" : "blockchain_test",
            "generatedTestHash" : "15ab9091a19151b7c07e27a7e07f00f60f7ff602083e678f909384958427088e",
            "lllcversion" : "Version: 0.5.14-develop.2024.11.5+commit.b2b86751.mod.Linux.g++",
            "hyperion" : "Version: 0.8.24+commit.e11b9ed9.Linux.g++",
            "source" : "src/GeneralStateTestsFiller/stArgsZeroOneBalance/signextNonConstFiller.yml",
            "sourceHash" : "9e39a7a9a80dca4911470b65b217afb94760119adadbf469911409a0f5151711"
        },
        "blocks" : [
            {
                "blockHeader" : {
                    "baseFeePerGas" : "0x0a",
                    "bloom" : "0x00000000000000000000000000000000000000000000000000000000000000000000000000000000000000000000000000000000000000000000000000000000000000000000000000000000000000000000000000000000000000000000000000000000000000000000000000000000000000000000000000000000000000000000000000000000000000000000000000000000000000000000000000000000000000000000000000000000000000000000000000000000000000000000000000000000000000000000000000000000000000000000000000000000000000000000000000000000000000000000000000000000000000000000000000000000",
                    "coinbase" : "Z2adc25665018aa1fe0e6bc666dac8fc2697ff9ba",
                    "extraData" : "0x00",
                    "gasLimit" : "0x0f4240",
                    "gasUsed" : "0xa932",
                    "hash" : "0x4d78794614baffb4bb1f0929f9a49c224e775a3f820cd8db0e87b094de7d2166",
                    "mixHash" : "0x0000000000000000000000000000000000000000000000000000000000020000",
                    "nonce" : "0x0000000000000000",
                    "number" : "0x01",
                    "parentHash" : "0xdcc15736666d8b8218daa45a1fe21607f3371a8f72d5f541b8cc3ec72e418743",
                    "receiptTrie" : "0xfcdd00f0501bd53e52ca424f03372344c81fa4635db36f1928a72d0e710cd94b",
                    "stateRoot" : "0x88519e77dbee9cd701847aa44320f9d442fb5259309a0704d3daa9f597b6fc23",
                    "timestamp" : "0x03e8",
                    "transactionsTrie" : "0x174ccc4f3050aca8eb96ee492d7f77c48698de3988b3a422e2bc6974348182c0",
                    "withdrawalsRoot" : "0x56e81f171bcc55a6ff8345e692c0f86e5b48e01b996cadc001622fb5e363b421"
                },
                "rlp" : "0xf902a2f90239a0dcc15736666d8b8218daa45a1fe21607f3371a8f72d5f541b8cc3ec72e418743a01dcc4de8dec75d7aab85b567b6ccd41ad312451b948a7413f0a142fd40d49347942adc25665018aa1fe0e6bc666dac8fc2697ff9baa088519e77dbee9cd701847aa44320f9d442fb5259309a0704d3daa9f597b6fc23a0174ccc4f3050aca8eb96ee492d7f77c48698de3988b3a422e2bc6974348182c0a0fcdd00f0501bd53e52ca424f03372344c81fa4635db36f1928a72d0e710cd94bb90100000000000000000000000000000000000000000000000000000000000000000000000000000000000000000000000000000000000000000000000000000000000000000000000000000000000000000000000000000000000000000000000000000000000000000000000000000000000000000000000000000000000000000000000000000000000000000000000000000000000000000000000000000000000000000000000000000000000000000000000000000000000000000000000000000000000000000000000000000000000000000000000000000000000000000000000000000000000000000000000000000000000000000000000000000000008001830f424082a9328203e800a000000000000000000000000000000000000000000000000000000000000200008800000000000000000aa056e81f171bcc55a6ff8345e692c0f86e5b48e01b996cadc001622fb5e363b4218080a00000000000000000000000000000000000000000000000000000000000000000f862f860800a83061a8094095e7baea6a6c7c4c2dfeb977efac326af552d8701801ca09d46b87169053cc40670aef750b032c895cde3e35c2c7f5a37c059272e0914c7a04d4a94b67b2776cc3e0fca2ed9503c10fd92ec79f1b2dcbb85df9634c7de3119c0c0",
                "transactions" : [
                    {
                        "data" : "0x",
                        "gasLimit" : "0x061a80",
                        "gasPrice" : "0x0a",
                        "nonce" : "0x00",
                        "signature" : "0x9d46b87169053cc40670aef750b032c895cde3e35c2c7f5a37c059272e0914c7",
                        "publicKey" : "0x4d4a94b67b2776cc3e0fca2ed9503c10fd92ec79f1b2dcbb85df9634c7de3119",
                        "sender" : "Za94f5374fce5edbc8e2a8697c15331677e6ebf0b",
                        "to" : "Z095e7baea6a6c7c4c2dfeb977efac326af552d87",
                        "v" : "0x1c",
                        "value" : "0x01"
                    }
                ],

                "withdrawals" : [
                ]
            }
        ],
        "config" : {
            "blobSchedule" : {
                "Cancun" : {
                    "baseFeeUpdateFraction" : "0x32f0ed",
                    "max" : "0x06",
                    "target" : "0x03"
                }
            },
            "chainid" : "0x01",
            "network" : "Cancun"
        },
        "genesisBlockHeader" : {
            "baseFeePerGas" : "0x0b",
            "bloom" : "0x00000000000000000000000000000000000000000000000000000000000000000000000000000000000000000000000000000000000000000000000000000000000000000000000000000000000000000000000000000000000000000000000000000000000000000000000000000000000000000000000000000000000000000000000000000000000000000000000000000000000000000000000000000000000000000000000000000000000000000000000000000000000000000000000000000000000000000000000000000000000000000000000000000000000000000000000000000000000000000000000000000000000000000000000000000000",
            "coinbase" : "Z2adc25665018aa1fe0e6bc666dac8fc2697ff9ba",
            "extraData" : "0x00",
            "gasLimit" : "0x0f4240",
            "gasUsed" : "0x00",
            "hash" : "0xdcc15736666d8b8218daa45a1fe21607f3371a8f72d5f541b8cc3ec72e418743",
            "mixHash" : "0x0000000000000000000000000000000000000000000000000000000000020000",
            "nonce" : "0x0000000000000000",
            "number" : "0x00",
            "parentHash" : "0x0000000000000000000000000000000000000000000000000000000000000000",
            "receiptTrie" : "0x56e81f171bcc55a6ff8345e692c0f86e5b48e01b996cadc001622fb5e363b421",
            "stateRoot" : "0xcc3a06e6cdd7a60122fe038c36d8bfb4fa9d1cd27f1bde81fe3d31d2dfd7f53c",
            "timestamp" : "0x00",
            "transactionsTrie" : "0x56e81f171bcc55a6ff8345e692c0f86e5b48e01b996cadc001622fb5e363b421",
            "withdrawalsRoot" : "0x56e81f171bcc55a6ff8345e692c0f86e5b48e01b996cadc001622fb5e363b421"
        },
        "genesisRLP" : "0xf9023ef90238a00000000000000000000000000000000000000000000000000000000000000000a01dcc4de8dec75d7aab85b567b6ccd41ad312451b948a7413f0a142fd40d49347942adc25665018aa1fe0e6bc666dac8fc2697ff9baa0cc3a06e6cdd7a60122fe038c36d8bfb4fa9d1cd27f1bde81fe3d31d2dfd7f53ca056e81f171bcc55a6ff8345e692c0f86e5b48e01b996cadc001622fb5e363b421a056e81f171bcc55a6ff8345e692c0f86e5b48e01b996cadc001622fb5e363b421b90100000000000000000000000000000000000000000000000000000000000000000000000000000000000000000000000000000000000000000000000000000000000000000000000000000000000000000000000000000000000000000000000000000000000000000000000000000000000000000000000000000000000000000000000000000000000000000000000000000000000000000000000000000000000000000000000000000000000000000000000000000000000000000000000000000000000000000000000000000000000000000000000000000000000000000000000000000000000000000000000000000000000000000000000000000000008080830f4240808000a000000000000000000000000000000000000000000000000000000000000200008800000000000000000ba056e81f171bcc55a6ff8345e692c0f86e5b48e01b996cadc001622fb5e363b4218083060000a00000000000000000000000000000000000000000000000000000000000000000c0c0c0",
        "lastblockhash" : "0x4d78794614baffb4bb1f0929f9a49c224e775a3f820cd8db0e87b094de7d2166",
        "network" : "Cancun",
        "postState" : {
            "Z000f3df6d732807ef1319fb7b8bb8522d0beac02" : {
                "balance" : "0x00",
                "code" : "0x3373fffffffffffffffffffffffffffffffffffffffe14604d57602036146024575f5ffd5b5f35801560495762001fff810690815414603c575f5ffd5b62001fff01545f5260205ff35b5f5ffd5b62001fff42064281555f359062001fff015500",
                "nonce" : "0x01",
                "storage" : {
                    "0x03e8" : "0x03e8"
                }
            },
            "0x095e7baea6a6c7c4c2dfeb977efac326af552d87" : {
                "balance" : "0x01",
                "code" : "0x73095e7baea6a6c7c4c2dfeb977efac326af552d873173095e7baea6a6c7c4c2dfeb977efac326af552d87310b60005500",
                "nonce" : "0x00",
                "storage" : {
                    "0x00" : "0x01"
                }
            },
            "0xa94f5374fce5edbc8e2a8697c15331677e6ebf0b" : {
                "balance" : "0x0de0b6b3a75d640b",
                "code" : "0x",
                "nonce" : "0x01",
                "storage" : {
                }
            }
        },
        "pre" : {
            "Z000f3df6d732807ef1319fb7b8bb8522d0beac02" : {
                "balance" : "0x00",
                "code" : "0x3373fffffffffffffffffffffffffffffffffffffffe14604d57602036146024575f5ffd5b5f35801560495762001fff810690815414603c575f5ffd5b62001fff01545f5260205ff35b5f5ffd5b62001fff42064281555f359062001fff015500",
                "nonce" : "0x01",
                "storage" : {
                }
            },
            "0x095e7baea6a6c7c4c2dfeb977efac326af552d87" : {
                "balance" : "0x00",
                "code" : "0x73095e7baea6a6c7c4c2dfeb977efac326af552d873173095e7baea6a6c7c4c2dfeb977efac326af552d87310b60005500",
                "nonce" : "0x00",
                "storage" : {
                }
            },
            "0xa94f5374fce5edbc8e2a8697c15331677e6ebf0b" : {
                "balance" : "0x0de0b6b3a7640000",
                "code" : "0x",
                "nonce" : "0x00",
                "storage" : {
                }
            }
        },
        "sealEngine" : "NoProof"
    },
    "signextNonConst_d0g0v1_Prague" : {
        "_info" : {
            "comment" : "",
            "filling-rpc-server" : "evmone-t8n 0.14.0-13+commit.4d363c36",
            "filling-tool-version" : "retesteth-0.3.2-legacy+commit.ca7f4c79.Linux.g++",
            "fixture-format" : "blockchain_test",
            "generatedTestHash" : "b848acf4b4eab993479be85449933365766d32494a32d6c5f8fae0edd504545b",
            "lllcversion" : "Version: 0.5.14-develop.2024.11.5+commit.b2b86751.mod.Linux.g++",
            "hyperion" : "Version: 0.8.24+commit.e11b9ed9.Linux.g++",
            "source" : "src/GeneralStateTestsFiller/stArgsZeroOneBalance/signextNonConstFiller.yml",
            "sourceHash" : "9e39a7a9a80dca4911470b65b217afb94760119adadbf469911409a0f5151711"
        },
        "blocks" : [
            {
                "blockHeader" : {
                    "baseFeePerGas" : "0x0a",
                    "bloom" : "0x00000000000000000000000000000000000000000000000000000000000000000000000000000000000000000000000000000000000000000000000000000000000000000000000000000000000000000000000000000000000000000000000000000000000000000000000000000000000000000000000000000000000000000000000000000000000000000000000000000000000000000000000000000000000000000000000000000000000000000000000000000000000000000000000000000000000000000000000000000000000000000000000000000000000000000000000000000000000000000000000000000000000000000000000000000000",
                    "coinbase" : "Z2adc25665018aa1fe0e6bc666dac8fc2697ff9ba",
                    "extraData" : "0x00",
                    "gasLimit" : "0x0f4240",
                    "gasUsed" : "0xa932",
                    "hash" : "0x2a00c285c23e730e57c3617eb8b5a1ea6d81f8216b149cd6069003a48aa856a1",
                    "mixHash" : "0x0000000000000000000000000000000000000000000000000000000000020000",
                    "nonce" : "0x0000000000000000",
                    "number" : "0x01",
                    "parentHash" : "0x4b9b08f03f0171c8f8188d661f17dfd1081af467d0001bfdda05674668016a2a",
                    "receiptTrie" : "0xfcdd00f0501bd53e52ca424f03372344c81fa4635db36f1928a72d0e710cd94b",
                    "requestsHash" : "0xe3b0c44298fc1c149afbf4c8996fb92427ae41e4649b934ca495991b7852b855",
                    "stateRoot" : "0x2c60b214b607d326ff617bcb00ffd741aff35094a70026d77f8b191092765fdb",
                    "timestamp" : "0x03e8",
                    "transactionsTrie" : "0x174ccc4f3050aca8eb96ee492d7f77c48698de3988b3a422e2bc6974348182c0",
                    "withdrawalsRoot" : "0x56e81f171bcc55a6ff8345e692c0f86e5b48e01b996cadc001622fb5e363b421"
                },
                "rlp" : "0xf902c3f9025aa04b9b08f03f0171c8f8188d661f17dfd1081af467d0001bfdda05674668016a2aa01dcc4de8dec75d7aab85b567b6ccd41ad312451b948a7413f0a142fd40d49347942adc25665018aa1fe0e6bc666dac8fc2697ff9baa02c60b214b607d326ff617bcb00ffd741aff35094a70026d77f8b191092765fdba0174ccc4f3050aca8eb96ee492d7f77c48698de3988b3a422e2bc6974348182c0a0fcdd00f0501bd53e52ca424f03372344c81fa4635db36f1928a72d0e710cd94bb90100000000000000000000000000000000000000000000000000000000000000000000000000000000000000000000000000000000000000000000000000000000000000000000000000000000000000000000000000000000000000000000000000000000000000000000000000000000000000000000000000000000000000000000000000000000000000000000000000000000000000000000000000000000000000000000000000000000000000000000000000000000000000000000000000000000000000000000000000000000000000000000000000000000000000000000000000000000000000000000000000000000000000000000000000000000008001830f424082a9328203e800a000000000000000000000000000000000000000000000000000000000000200008800000000000000000aa056e81f171bcc55a6ff8345e692c0f86e5b48e01b996cadc001622fb5e363b4218080a00000000000000000000000000000000000000000000000000000000000000000a0e3b0c44298fc1c149afbf4c8996fb92427ae41e4649b934ca495991b7852b855f862f860800a83061a8094095e7baea6a6c7c4c2dfeb977efac326af552d8701801ca09d46b87169053cc40670aef750b032c895cde3e35c2c7f5a37c059272e0914c7a04d4a94b67b2776cc3e0fca2ed9503c10fd92ec79f1b2dcbb85df9634c7de3119c0c0",
                "transactions" : [
                    {
                        "data" : "0x",
                        "gasLimit" : "0x061a80",
                        "gasPrice" : "0x0a",
                        "nonce" : "0x00",
                        "signature" : "0x9d46b87169053cc40670aef750b032c895cde3e35c2c7f5a37c059272e0914c7",
                        "publicKey" : "0x4d4a94b67b2776cc3e0fca2ed9503c10fd92ec79f1b2dcbb85df9634c7de3119",
                        "sender" : "Za94f5374fce5edbc8e2a8697c15331677e6ebf0b",
                        "to" : "Z095e7baea6a6c7c4c2dfeb977efac326af552d87",
                        "v" : "0x1c",
                        "value" : "0x01"
                    }
                ],

                "withdrawals" : [
                ]
            }
        ],
        "config" : {
            "blobSchedule" : {
                "Prague" : {
                    "baseFeeUpdateFraction" : "0x4c6964",
                    "max" : "0x09",
                    "target" : "0x06"
                }
            },
            "chainid" : "0x01",
            "network" : "Prague"
        },
        "genesisBlockHeader" : {
            "baseFeePerGas" : "0x0b",
            "bloom" : "0x00000000000000000000000000000000000000000000000000000000000000000000000000000000000000000000000000000000000000000000000000000000000000000000000000000000000000000000000000000000000000000000000000000000000000000000000000000000000000000000000000000000000000000000000000000000000000000000000000000000000000000000000000000000000000000000000000000000000000000000000000000000000000000000000000000000000000000000000000000000000000000000000000000000000000000000000000000000000000000000000000000000000000000000000000000000",
            "coinbase" : "Z2adc25665018aa1fe0e6bc666dac8fc2697ff9ba",
            "extraData" : "0x00",
            "gasLimit" : "0x0f4240",
            "gasUsed" : "0x00",
            "hash" : "0x4b9b08f03f0171c8f8188d661f17dfd1081af467d0001bfdda05674668016a2a",
            "mixHash" : "0x0000000000000000000000000000000000000000000000000000000000020000",
            "nonce" : "0x0000000000000000",
            "number" : "0x00",
            "parentHash" : "0x0000000000000000000000000000000000000000000000000000000000000000",
            "receiptTrie" : "0x56e81f171bcc55a6ff8345e692c0f86e5b48e01b996cadc001622fb5e363b421",
            "requestsHash" : "0xe3b0c44298fc1c149afbf4c8996fb92427ae41e4649b934ca495991b7852b855",
            "stateRoot" : "0xc4269d106fbe616eb6fbe96c18aafc65603d0dcc799aa57fa0c86e37e70a2767",
            "timestamp" : "0x00",
            "transactionsTrie" : "0x56e81f171bcc55a6ff8345e692c0f86e5b48e01b996cadc001622fb5e363b421",
            "withdrawalsRoot" : "0x56e81f171bcc55a6ff8345e692c0f86e5b48e01b996cadc001622fb5e363b421"
        },
        "genesisRLP" : "0xf9025ff90259a00000000000000000000000000000000000000000000000000000000000000000a01dcc4de8dec75d7aab85b567b6ccd41ad312451b948a7413f0a142fd40d49347942adc25665018aa1fe0e6bc666dac8fc2697ff9baa0c4269d106fbe616eb6fbe96c18aafc65603d0dcc799aa57fa0c86e37e70a2767a056e81f171bcc55a6ff8345e692c0f86e5b48e01b996cadc001622fb5e363b421a056e81f171bcc55a6ff8345e692c0f86e5b48e01b996cadc001622fb5e363b421b90100000000000000000000000000000000000000000000000000000000000000000000000000000000000000000000000000000000000000000000000000000000000000000000000000000000000000000000000000000000000000000000000000000000000000000000000000000000000000000000000000000000000000000000000000000000000000000000000000000000000000000000000000000000000000000000000000000000000000000000000000000000000000000000000000000000000000000000000000000000000000000000000000000000000000000000000000000000000000000000000000000000000000000000000000000000008080830f4240808000a000000000000000000000000000000000000000000000000000000000000200008800000000000000000ba056e81f171bcc55a6ff8345e692c0f86e5b48e01b996cadc001622fb5e363b4218083060000a00000000000000000000000000000000000000000000000000000000000000000a0e3b0c44298fc1c149afbf4c8996fb92427ae41e4649b934ca495991b7852b855c0c0c0",
        "lastblockhash" : "0x2a00c285c23e730e57c3617eb8b5a1ea6d81f8216b149cd6069003a48aa856a1",
        "network" : "Prague",
        "postState" : {
            "Z0000f90827f1c53a10cb7a02335b175320002935" : {
                "balance" : "0x00",
                "code" : "0x3373fffffffffffffffffffffffffffffffffffffffe14604657602036036042575f35600143038111604257611fff81430311604257611fff9006545f5260205ff35b5f5ffd5b5f35611fff60014303065500",
                "nonce" : "0x01",
                "storage" : {
                    "0x00" : "0x4b9b08f03f0171c8f8188d661f17dfd1081af467d0001bfdda05674668016a2a"
                }
            },
            "0x000f3df6d732807ef1319fb7b8bb8522d0beac02" : {
                "balance" : "0x00",
                "code" : "0x3373fffffffffffffffffffffffffffffffffffffffe14604d57602036146024575f5ffd5b5f35801560495762001fff810690815414603c575f5ffd5b62001fff01545f5260205ff35b5f5ffd5b62001fff42064281555f359062001fff015500",
                "nonce" : "0x01",
                "storage" : {
                    "0x03e8" : "0x03e8"
                }
            },
            "0x095e7baea6a6c7c4c2dfeb977efac326af552d87" : {
                "balance" : "0x01",
                "code" : "0x73095e7baea6a6c7c4c2dfeb977efac326af552d873173095e7baea6a6c7c4c2dfeb977efac326af552d87310b60005500",
                "nonce" : "0x00",
                "storage" : {
                    "0x00" : "0x01"
                }
            },
            "0xa94f5374fce5edbc8e2a8697c15331677e6ebf0b" : {
                "balance" : "0x0de0b6b3a75d640b",
                "code" : "0x",
                "nonce" : "0x01",
                "storage" : {
                }
            }
        },
        "pre" : {
            "Z0000f90827f1c53a10cb7a02335b175320002935" : {
                "balance" : "0x00",
                "code" : "0x3373fffffffffffffffffffffffffffffffffffffffe14604657602036036042575f35600143038111604257611fff81430311604257611fff9006545f5260205ff35b5f5ffd5b5f35611fff60014303065500",
                "nonce" : "0x01",
                "storage" : {
                }
            },
            "0x000f3df6d732807ef1319fb7b8bb8522d0beac02" : {
                "balance" : "0x00",
                "code" : "0x3373fffffffffffffffffffffffffffffffffffffffe14604d57602036146024575f5ffd5b5f35801560495762001fff810690815414603c575f5ffd5b62001fff01545f5260205ff35b5f5ffd5b62001fff42064281555f359062001fff015500",
                "nonce" : "0x01",
                "storage" : {
                }
            },
            "0x095e7baea6a6c7c4c2dfeb977efac326af552d87" : {
                "balance" : "0x00",
                "code" : "0x73095e7baea6a6c7c4c2dfeb977efac326af552d873173095e7baea6a6c7c4c2dfeb977efac326af552d87310b60005500",
                "nonce" : "0x00",
                "storage" : {
                }
            },
            "0xa94f5374fce5edbc8e2a8697c15331677e6ebf0b" : {
                "balance" : "0x0de0b6b3a7640000",
                "code" : "0x",
                "nonce" : "0x00",
                "storage" : {
                }
            }
        },
        "sealEngine" : "NoProof"
    }
}