{
    "ContractStoreClearsOOG_d0g0v0_Cancun" : {
        "_info" : {
            "comment" : "",
            "filling-rpc-server" : "evmone-t8n 0.14.0-13+commit.4d363c36",
            "filling-tool-version" : "retesteth-0.3.2-legacy+commit.ca7f4c79.Linux.g++",
            "fixture-format" : "blockchain_test",
            "generatedTestHash" : "e5220786914be1396ed8da88dd0f8cd46323ae3486deaf996bdea05f4d04f1ad",
            "lllcversion" : "Version: 0.5.14-develop.2024.11.5+commit.b2b86751.mod.Linux.g++",
            "solidity" : "Version: 0.8.24+commit.e11b9ed9.Linux.g++",
            "source" : "src/GeneralStateTestsFiller/stTransactionTest/ContractStoreClearsOOGFiller.json",
            "sourceHash" : "654acc6b5d4046f9615913327479d4e0233e6537051bc4d9ce666fd8004f8ef8"
        },
        "blocks" : [
            {
                "blockHeader" : {
                    "baseFeePerGas" : "0x0a",
                    "blobGasUsed" : "0x00",
                    "bloom" : "0x00000000000000000000000000000000000000000000000000000000000000000000000000000000000000000000000000000000000000000000000000000000000000000000000000000000000000000000000000000000000000000000000000000000000000000000000000000000000000000000000000000000000000000000000000000000000000000000000000000000000000000000000000000000000000000000000000000000000000000000000000000000000000000000000000000000000000000000000000000000000000000000000000000000000000000000000000000000000000000000000000000000000000000000000000000000",
                    "coinbase" : "0xb94f5374fce5edbc8e2a8697c15331677e6ebf0b",
                    "difficulty" : "0x00",
                    "excessBlobGas" : "0x00",
                    "extraData" : "0x00",
                    "gasLimit" : "0x0186a0",
                    "gasUsed" : "0x59d8",
                    "hash" : "0x32c183d23c31fb60047db7267aa151a38b28408720ccce086910481981c39ce8",
                    "mixHash" : "0x0000000000000000000000000000000000000000000000000000000000020000",
                    "nonce" : "0x0000000000000000",
                    "number" : "0x01",
                    "parentBeaconBlockRoot" : "0x0000000000000000000000000000000000000000000000000000000000000000",
                    "parentHash" : "0x24c4c9f5bc356d96bd8105f57b2cfa7a3677990952e00bbd6037a4a063f18863",
                    "receiptTrie" : "0x373de1da75dd9d50e359596d3e8cc328b712dc555a823b1bebbe593a1ba54051",
                    "stateRoot" : "0xf1fc7aceb835ce312368a34148585a3f19248a6b9b0e7abdc6bef7b0c29138ad",
                    "timestamp" : "0x03e8",
                    "transactionsTrie" : "0xc00534952fbed06fcb28be73f4a182ee29de53087063bb329d211daa6c308705",
                    "uncleHash" : "0x1dcc4de8dec75d7aab85b567b6ccd41ad312451b948a7413f0a142fd40d49347",
                    "withdrawalsRoot" : "0x56e81f171bcc55a6ff8345e692c0f86e5b48e01b996cadc001622fb5e363b421"
                },
                "rlp" : "0xf902a1f90239a024c4c9f5bc356d96bd8105f57b2cfa7a3677990952e00bbd6037a4a063f18863a01dcc4de8dec75d7aab85b567b6ccd41ad312451b948a7413f0a142fd40d4934794b94f5374fce5edbc8e2a8697c15331677e6ebf0ba0f1fc7aceb835ce312368a34148585a3f19248a6b9b0e7abdc6bef7b0c29138ada0c00534952fbed06fcb28be73f4a182ee29de53087063bb329d211daa6c308705a0373de1da75dd9d50e359596d3e8cc328b712dc555a823b1bebbe593a1ba54051b90100000000000000000000000000000000000000000000000000000000000000000000000000000000000000000000000000000000000000000000000000000000000000000000000000000000000000000000000000000000000000000000000000000000000000000000000000000000000000000000000000000000000000000000000000000000000000000000000000000000000000000000000000000000000000000000000000000000000000000000000000000000000000000000000000000000000000000000000000000000000000000000000000000000000000000000000000000000000000000000000000000000000000000000000000000000008001830186a08259d88203e800a000000000000000000000000000000000000000000000000000000000000200008800000000000000000aa056e81f171bcc55a6ff8345e692c0f86e5b48e01b996cadc001622fb5e363b4218080a00000000000000000000000000000000000000000000000000000000000000000f861f85f800a8259d894d2571607e241ecf590ed94b12d87c94babe36db60a801ba0f1fba05f1d0dea1dd212bceeb0cca49f9746df353c5851d63ae78061b53a2ef7a067faa7b1fbd181a4280cc7bfc7e7892ad3a7c50d986d4d5bbfab345c581a8fe4c0c0",
                "transactions" : [
                    {
                        "data" : "0x",
                        "gasLimit" : "0x59d8",
                        "gasPrice" : "0x0a",
                        "nonce" : "0x00",
                        "r" : "0xf1fba05f1d0dea1dd212bceeb0cca49f9746df353c5851d63ae78061b53a2ef7",
                        "s" : "0x67faa7b1fbd181a4280cc7bfc7e7892ad3a7c50d986d4d5bbfab345c581a8fe4",
                        "sender" : "0xa94f5374fce5edbc8e2a8697c15331677e6ebf0b",
                        "to" : "0xd2571607e241ecf590ed94b12d87c94babe36db6",
                        "v" : "0x1b",
                        "value" : "0x0a"
                    }
                ],
                "uncleHeaders" : [
                ],
                "withdrawals" : [
                ]
            }
        ],
        "config" : {
            "blobSchedule" : {
                "Cancun" : {
                    "baseFeeUpdateFraction" : "0x32f0ed",
                    "max" : "0x06",
                    "target" : "0x03"
                }
            },
            "chainid" : "0x01",
            "network" : "Cancun"
        },
        "genesisBlockHeader" : {
            "baseFeePerGas" : "0x0b",
            "blobGasUsed" : "0x00",
            "bloom" : "0x00000000000000000000000000000000000000000000000000000000000000000000000000000000000000000000000000000000000000000000000000000000000000000000000000000000000000000000000000000000000000000000000000000000000000000000000000000000000000000000000000000000000000000000000000000000000000000000000000000000000000000000000000000000000000000000000000000000000000000000000000000000000000000000000000000000000000000000000000000000000000000000000000000000000000000000000000000000000000000000000000000000000000000000000000000000",
            "coinbase" : "0xb94f5374fce5edbc8e2a8697c15331677e6ebf0b",
            "difficulty" : "0x00",
            "excessBlobGas" : "0x060000",
            "extraData" : "0x00",
            "gasLimit" : "0x0186a0",
            "gasUsed" : "0x00",
            "hash" : "0x24c4c9f5bc356d96bd8105f57b2cfa7a3677990952e00bbd6037a4a063f18863",
            "mixHash" : "0x0000000000000000000000000000000000000000000000000000000000020000",
            "nonce" : "0x0000000000000000",
            "number" : "0x00",
            "parentBeaconBlockRoot" : "0x0000000000000000000000000000000000000000000000000000000000000000",
            "parentHash" : "0x0000000000000000000000000000000000000000000000000000000000000000",
            "receiptTrie" : "0x56e81f171bcc55a6ff8345e692c0f86e5b48e01b996cadc001622fb5e363b421",
            "stateRoot" : "0xe410e21fa5abc0dd1530587a79a273abe4ec39742419b1918f07cc5d4ced53d6",
            "timestamp" : "0x00",
            "transactionsTrie" : "0x56e81f171bcc55a6ff8345e692c0f86e5b48e01b996cadc001622fb5e363b421",
            "uncleHash" : "0x1dcc4de8dec75d7aab85b567b6ccd41ad312451b948a7413f0a142fd40d49347",
            "withdrawalsRoot" : "0x56e81f171bcc55a6ff8345e692c0f86e5b48e01b996cadc001622fb5e363b421"
        },
        "genesisRLP" : "0xf9023ef90238a00000000000000000000000000000000000000000000000000000000000000000a01dcc4de8dec75d7aab85b567b6ccd41ad312451b948a7413f0a142fd40d4934794b94f5374fce5edbc8e2a8697c15331677e6ebf0ba0e410e21fa5abc0dd1530587a79a273abe4ec39742419b1918f07cc5d4ced53d6a056e81f171bcc55a6ff8345e692c0f86e5b48e01b996cadc001622fb5e363b421a056e81f171bcc55a6ff8345e692c0f86e5b48e01b996cadc001622fb5e363b421b90100000000000000000000000000000000000000000000000000000000000000000000000000000000000000000000000000000000000000000000000000000000000000000000000000000000000000000000000000000000000000000000000000000000000000000000000000000000000000000000000000000000000000000000000000000000000000000000000000000000000000000000000000000000000000000000000000000000000000000000000000000000000000000000000000000000000000000000000000000000000000000000000000000000000000000000000000000000000000000000000000000000000000000000000000000000008080830186a0808000a000000000000000000000000000000000000000000000000000000000000200008800000000000000000ba056e81f171bcc55a6ff8345e692c0f86e5b48e01b996cadc001622fb5e363b4218083060000a00000000000000000000000000000000000000000000000000000000000000000c0c0c0",
        "lastblockhash" : "0x32c183d23c31fb60047db7267aa151a38b28408720ccce086910481981c39ce8",
        "network" : "Cancun",
        "postState" : {
            "0x000f3df6d732807ef1319fb7b8bb8522d0beac02" : {
                "balance" : "0x00",
                "code" : "0x3373fffffffffffffffffffffffffffffffffffffffe14604d57602036146024575f5ffd5b5f35801560495762001fff810690815414603c575f5ffd5b62001fff01545f5260205ff35b5f5ffd5b62001fff42064281555f359062001fff015500",
                "nonce" : "0x01",
                "storage" : {
                    "0x03e8" : "0x03e8"
                }
            },
            "0xa94f5374fce5edbc8e2a8697c15331677e6ebf0b" : {
                "balance" : "0x01c64110",
                "code" : "0x",
                "nonce" : "0x01",
                "storage" : {
                }
            },
            "0xd2571607e241ecf590ed94b12d87c94babe36db6" : {
                "balance" : "0x00",
                "code" : "0x600060005560006001556000600255600060035560006004556000600555600060065560006007556000600855600c60095500",
                "nonce" : "0x00",
                "storage" : {
                    "0x00" : "0x0c",
                    "0x01" : "0x0c",
                    "0x02" : "0x0c",
                    "0x03" : "0x0c",
                    "0x04" : "0x0c",
                    "0x05" : "0x0c",
                    "0x06" : "0x0c",
                    "0x07" : "0x0c",
                    "0x08" : "0x0c",
                    "0x09" : "0x0c"
                }
            }
        },
        "pre" : {
            "0x000f3df6d732807ef1319fb7b8bb8522d0beac02" : {
                "balance" : "0x00",
                "code" : "0x3373fffffffffffffffffffffffffffffffffffffffe14604d57602036146024575f5ffd5b5f35801560495762001fff810690815414603c575f5ffd5b62001fff01545f5260205ff35b5f5ffd5b62001fff42064281555f359062001fff015500",
                "nonce" : "0x01",
                "storage" : {
                }
            },
            "0xa94f5374fce5edbc8e2a8697c15331677e6ebf0b" : {
                "balance" : "0x01c9c380",
                "code" : "0x",
                "nonce" : "0x00",
                "storage" : {
                }
            },
            "0xd2571607e241ecf590ed94b12d87c94babe36db6" : {
                "balance" : "0x00",
                "code" : "0x600060005560006001556000600255600060035560006004556000600555600060065560006007556000600855600c60095500",
                "nonce" : "0x00",
                "storage" : {
                    "0x00" : "0x0c",
                    "0x01" : "0x0c",
                    "0x02" : "0x0c",
                    "0x03" : "0x0c",
                    "0x04" : "0x0c",
                    "0x05" : "0x0c",
                    "0x06" : "0x0c",
                    "0x07" : "0x0c",
                    "0x08" : "0x0c",
                    "0x09" : "0x0c"
                }
            }
        },
        "sealEngine" : "NoProof"
    },
    "ContractStoreClearsOOG_d0g0v0_Prague" : {
        "_info" : {
            "comment" : "",
            "filling-rpc-server" : "evmone-t8n 0.14.0-13+commit.4d363c36",
            "filling-tool-version" : "retesteth-0.3.2-legacy+commit.ca7f4c79.Linux.g++",
            "fixture-format" : "blockchain_test",
            "generatedTestHash" : "1273b03e35616df9041b52b9d544eb0ba21d5b0861977ec1b8104f06c4c0494b",
            "lllcversion" : "Version: 0.5.14-develop.2024.11.5+commit.b2b86751.mod.Linux.g++",
            "solidity" : "Version: 0.8.24+commit.e11b9ed9.Linux.g++",
            "source" : "src/GeneralStateTestsFiller/stTransactionTest/ContractStoreClearsOOGFiller.json",
            "sourceHash" : "654acc6b5d4046f9615913327479d4e0233e6537051bc4d9ce666fd8004f8ef8"
        },
        "blocks" : [
            {
                "blockHeader" : {
                    "baseFeePerGas" : "0x0a",
                    "blobGasUsed" : "0x00",
                    "bloom" : "0x00000000000000000000000000000000000000000000000000000000000000000000000000000000000000000000000000000000000000000000000000000000000000000000000000000000000000000000000000000000000000000000000000000000000000000000000000000000000000000000000000000000000000000000000000000000000000000000000000000000000000000000000000000000000000000000000000000000000000000000000000000000000000000000000000000000000000000000000000000000000000000000000000000000000000000000000000000000000000000000000000000000000000000000000000000000",
                    "coinbase" : "0xb94f5374fce5edbc8e2a8697c15331677e6ebf0b",
                    "difficulty" : "0x00",
                    "excessBlobGas" : "0x00",
                    "extraData" : "0x00",
                    "gasLimit" : "0x0186a0",
                    "gasUsed" : "0x59d8",
                    "hash" : "0x0e26c74ba583625b797e727e168d197604c633ddcd0bc0e6e912aedd10cf992e",
                    "mixHash" : "0x0000000000000000000000000000000000000000000000000000000000020000",
                    "nonce" : "0x0000000000000000",
                    "number" : "0x01",
                    "parentBeaconBlockRoot" : "0x0000000000000000000000000000000000000000000000000000000000000000",
                    "parentHash" : "0x8ea594e7379dae0fdd9cc65155c4b9bc6ed1d54bbd5b4699415920c54248f7fc",
                    "receiptTrie" : "0x373de1da75dd9d50e359596d3e8cc328b712dc555a823b1bebbe593a1ba54051",
                    "requestsHash" : "0xe3b0c44298fc1c149afbf4c8996fb92427ae41e4649b934ca495991b7852b855",
                    "stateRoot" : "0xca6a89244e94dde487335ae2580edee7627a4825baf719a5fdce192548f191db",
                    "timestamp" : "0x03e8",
                    "transactionsTrie" : "0xc00534952fbed06fcb28be73f4a182ee29de53087063bb329d211daa6c308705",
                    "uncleHash" : "0x1dcc4de8dec75d7aab85b567b6ccd41ad312451b948a7413f0a142fd40d49347",
                    "withdrawalsRoot" : "0x56e81f171bcc55a6ff8345e692c0f86e5b48e01b996cadc001622fb5e363b421"
                },
                "rlp" : "0xf902c2f9025aa08ea594e7379dae0fdd9cc65155c4b9bc6ed1d54bbd5b4699415920c54248f7fca01dcc4de8dec75d7aab85b567b6ccd41ad312451b948a7413f0a142fd40d4934794b94f5374fce5edbc8e2a8697c15331677e6ebf0ba0ca6a89244e94dde487335ae2580edee7627a4825baf719a5fdce192548f191dba0c00534952fbed06fcb28be73f4a182ee29de53087063bb329d211daa6c308705a0373de1da75dd9d50e359596d3e8cc328b712dc555a823b1bebbe593a1ba54051b90100000000000000000000000000000000000000000000000000000000000000000000000000000000000000000000000000000000000000000000000000000000000000000000000000000000000000000000000000000000000000000000000000000000000000000000000000000000000000000000000000000000000000000000000000000000000000000000000000000000000000000000000000000000000000000000000000000000000000000000000000000000000000000000000000000000000000000000000000000000000000000000000000000000000000000000000000000000000000000000000000000000000000000000000000000000008001830186a08259d88203e800a000000000000000000000000000000000000000000000000000000000000200008800000000000000000aa056e81f171bcc55a6ff8345e692c0f86e5b48e01b996cadc001622fb5e363b4218080a00000000000000000000000000000000000000000000000000000000000000000a0e3b0c44298fc1c149afbf4c8996fb92427ae41e4649b934ca495991b7852b855f861f85f800a8259d894d2571607e241ecf590ed94b12d87c94babe36db60a801ba0f1fba05f1d0dea1dd212bceeb0cca49f9746df353c5851d63ae78061b53a2ef7a067faa7b1fbd181a4280cc7bfc7e7892ad3a7c50d986d4d5bbfab345c581a8fe4c0c0",
                "transactions" : [
                    {
                        "data" : "0x",
                        "gasLimit" : "0x59d8",
                        "gasPrice" : "0x0a",
                        "nonce" : "0x00",
                        "r" : "0xf1fba05f1d0dea1dd212bceeb0cca49f9746df353c5851d63ae78061b53a2ef7",
                        "s" : "0x67faa7b1fbd181a4280cc7bfc7e7892ad3a7c50d986d4d5bbfab345c581a8fe4",
                        "sender" : "0xa94f5374fce5edbc8e2a8697c15331677e6ebf0b",
                        "to" : "0xd2571607e241ecf590ed94b12d87c94babe36db6",
                        "v" : "0x1b",
                        "value" : "0x0a"
                    }
                ],
                "uncleHeaders" : [
                ],
                "withdrawals" : [
                ]
            }
        ],
        "config" : {
            "blobSchedule" : {
                "Prague" : {
                    "baseFeeUpdateFraction" : "0x4c6964",
                    "max" : "0x09",
                    "target" : "0x06"
                }
            },
            "chainid" : "0x01",
            "network" : "Prague"
        },
        "genesisBlockHeader" : {
            "baseFeePerGas" : "0x0b",
            "blobGasUsed" : "0x00",
            "bloom" : "0x00000000000000000000000000000000000000000000000000000000000000000000000000000000000000000000000000000000000000000000000000000000000000000000000000000000000000000000000000000000000000000000000000000000000000000000000000000000000000000000000000000000000000000000000000000000000000000000000000000000000000000000000000000000000000000000000000000000000000000000000000000000000000000000000000000000000000000000000000000000000000000000000000000000000000000000000000000000000000000000000000000000000000000000000000000000",
            "coinbase" : "0xb94f5374fce5edbc8e2a8697c15331677e6ebf0b",
            "difficulty" : "0x00",
            "excessBlobGas" : "0x060000",
            "extraData" : "0x00",
            "gasLimit" : "0x0186a0",
            "gasUsed" : "0x00",
            "hash" : "0x8ea594e7379dae0fdd9cc65155c4b9bc6ed1d54bbd5b4699415920c54248f7fc",
            "mixHash" : "0x0000000000000000000000000000000000000000000000000000000000020000",
            "nonce" : "0x0000000000000000",
            "number" : "0x00",
            "parentBeaconBlockRoot" : "0x0000000000000000000000000000000000000000000000000000000000000000",
            "parentHash" : "0x0000000000000000000000000000000000000000000000000000000000000000",
            "receiptTrie" : "0x56e81f171bcc55a6ff8345e692c0f86e5b48e01b996cadc001622fb5e363b421",
            "requestsHash" : "0xe3b0c44298fc1c149afbf4c8996fb92427ae41e4649b934ca495991b7852b855",
            "stateRoot" : "0x4a708cb8ebefc2b9caf2c632abde888df3f4fc942800eb28c0403cec3bb3ad61",
            "timestamp" : "0x00",
            "transactionsTrie" : "0x56e81f171bcc55a6ff8345e692c0f86e5b48e01b996cadc001622fb5e363b421",
            "uncleHash" : "0x1dcc4de8dec75d7aab85b567b6ccd41ad312451b948a7413f0a142fd40d49347",
            "withdrawalsRoot" : "0x56e81f171bcc55a6ff8345e692c0f86e5b48e01b996cadc001622fb5e363b421"
        },
        "genesisRLP" : "0xf9025ff90259a00000000000000000000000000000000000000000000000000000000000000000a01dcc4de8dec75d7aab85b567b6ccd41ad312451b948a7413f0a142fd40d4934794b94f5374fce5edbc8e2a8697c15331677e6ebf0ba04a708cb8ebefc2b9caf2c632abde888df3f4fc942800eb28c0403cec3bb3ad61a056e81f171bcc55a6ff8345e692c0f86e5b48e01b996cadc001622fb5e363b421a056e81f171bcc55a6ff8345e692c0f86e5b48e01b996cadc001622fb5e363b421b90100000000000000000000000000000000000000000000000000000000000000000000000000000000000000000000000000000000000000000000000000000000000000000000000000000000000000000000000000000000000000000000000000000000000000000000000000000000000000000000000000000000000000000000000000000000000000000000000000000000000000000000000000000000000000000000000000000000000000000000000000000000000000000000000000000000000000000000000000000000000000000000000000000000000000000000000000000000000000000000000000000000000000000000000000000000008080830186a0808000a000000000000000000000000000000000000000000000000000000000000200008800000000000000000ba056e81f171bcc55a6ff8345e692c0f86e5b48e01b996cadc001622fb5e363b4218083060000a00000000000000000000000000000000000000000000000000000000000000000a0e3b0c44298fc1c149afbf4c8996fb92427ae41e4649b934ca495991b7852b855c0c0c0",
        "lastblockhash" : "0x0e26c74ba583625b797e727e168d197604c633ddcd0bc0e6e912aedd10cf992e",
        "network" : "Prague",
        "postState" : {
            "0x0000f90827f1c53a10cb7a02335b175320002935" : {
                "balance" : "0x00",
                "code" : "0x3373fffffffffffffffffffffffffffffffffffffffe14604657602036036042575f35600143038111604257611fff81430311604257611fff9006545f5260205ff35b5f5ffd5b5f35611fff60014303065500",
                "nonce" : "0x01",
                "storage" : {
                    "0x00" : "0x8ea594e7379dae0fdd9cc65155c4b9bc6ed1d54bbd5b4699415920c54248f7fc"
                }
            },
            "0x000f3df6d732807ef1319fb7b8bb8522d0beac02" : {
                "balance" : "0x00",
                "code" : "0x3373fffffffffffffffffffffffffffffffffffffffe14604d57602036146024575f5ffd5b5f35801560495762001fff810690815414603c575f5ffd5b62001fff01545f5260205ff35b5f5ffd5b62001fff42064281555f359062001fff015500",
                "nonce" : "0x01",
                "storage" : {
                    "0x03e8" : "0x03e8"
                }
            },
            "0xa94f5374fce5edbc8e2a8697c15331677e6ebf0b" : {
                "balance" : "0x01c64110",
                "code" : "0x",
                "nonce" : "0x01",
                "storage" : {
                }
            },
            "0xd2571607e241ecf590ed94b12d87c94babe36db6" : {
                "balance" : "0x00",
                "code" : "0x600060005560006001556000600255600060035560006004556000600555600060065560006007556000600855600c60095500",
                "nonce" : "0x00",
                "storage" : {
                    "0x00" : "0x0c",
                    "0x01" : "0x0c",
                    "0x02" : "0x0c",
                    "0x03" : "0x0c",
                    "0x04" : "0x0c",
                    "0x05" : "0x0c",
                    "0x06" : "0x0c",
                    "0x07" : "0x0c",
                    "0x08" : "0x0c",
                    "0x09" : "0x0c"
                }
            }
        },
        "pre" : {
            "0x0000f90827f1c53a10cb7a02335b175320002935" : {
                "balance" : "0x00",
                "code" : "0x3373fffffffffffffffffffffffffffffffffffffffe14604657602036036042575f35600143038111604257611fff81430311604257611fff9006545f5260205ff35b5f5ffd5b5f35611fff60014303065500",
                "nonce" : "0x01",
                "storage" : {
                }
            },
            "0x000f3df6d732807ef1319fb7b8bb8522d0beac02" : {
                "balance" : "0x00",
                "code" : "0x3373fffffffffffffffffffffffffffffffffffffffe14604d57602036146024575f5ffd5b5f35801560495762001fff810690815414603c575f5ffd5b62001fff01545f5260205ff35b5f5ffd5b62001fff42064281555f359062001fff015500",
                "nonce" : "0x01",
                "storage" : {
                }
            },
            "0xa94f5374fce5edbc8e2a8697c15331677e6ebf0b" : {
                "balance" : "0x01c9c380",
                "code" : "0x",
                "nonce" : "0x00",
                "storage" : {
                }
            },
            "0xd2571607e241ecf590ed94b12d87c94babe36db6" : {
                "balance" : "0x00",
                "code" : "0x600060005560006001556000600255600060035560006004556000600555600060065560006007556000600855600c60095500",
                "nonce" : "0x00",
                "storage" : {
                    "0x00" : "0x0c",
                    "0x01" : "0x0c",
                    "0x02" : "0x0c",
                    "0x03" : "0x0c",
                    "0x04" : "0x0c",
                    "0x05" : "0x0c",
                    "0x06" : "0x0c",
                    "0x07" : "0x0c",
                    "0x08" : "0x0c",
                    "0x09" : "0x0c"
                }
            }
        },
        "sealEngine" : "NoProof"
    }
}