{
    "HighGasPriceParis_d0g0v0_Cancun" : {
        "_info" : {
            "comment" : "",
            "filling-rpc-server" : "evmone-t8n 0.14.0-13+commit.4d363c36",
            "filling-tool-version" : "retesteth-0.3.2-legacy+commit.ca7f4c79.Linux.g++",
            "fixture-format" : "blockchain_test",
            "generatedTestHash" : "84b09820d0fdb41109f4044a5c27f7079f3bc025696a137ffa80c70852bd13b0",
            "lllcversion" : "Version: 0.5.14-develop.2024.11.5+commit.b2b86751.mod.Linux.g++",
            "solidity" : "Version: 0.8.24+commit.e11b9ed9.Linux.g++",
            "source" : "src/GeneralStateTestsFiller/stTransactionTest/HighGasPriceParisFiller.yml",
            "sourceHash" : "d4d19c018057c5cbfd11181ce42e15c59050e13395e831a7bbcd4014a0ae451e"
        },
        "blocks" : [
            {
                "expectException" : "TransactionException.INSUFFICIENT_ACCOUNT_FUNDS|TransactionException.GASLIMIT_PRICE_PRODUCT_OVERFLOW",
                "rlp" : "0xf902bff90238a074fad09332d063d9214ca23695764e441333db04f758b89460314a82258e6909a01dcc4de8dec75d7aab85b567b6ccd41ad312451b948a7413f0a142fd40d49347942adc25665018aa1fe0e6bc666dac8fc2697ff9baa075fe401706b859a081fa054ec39a614212781102d4590f78bf4e7dcb00091be8a056e81f171bcc55a6ff8345e692c0f86e5b48e01b996cadc001622fb5e363b421a056e81f171bcc55a6ff8345e692c0f86e5b48e01b996cadc001622fb5e363b421b901000000000000000000000000000000000000000000000000000000000000000000000000000000000000000000000000000000000000000000000000000000000000000000000000000000000000000000000000000000000000000000000000000000000000000000000000000000000000000000000000000000000000000000000000000000000000000000000000000000000000000000000000000000000000000000000000000000000000000000000000000000000000000000000000000000000000000000000000000000000000000000000000000000000000000000000000000000000000000000000000000000000000000000000000000000000080018405500000808203e800a000000000000000000000000000000000000000000000000000000000000200008800000000000000000aa056e81f171bcc55a6ff8345e692c0f86e5b48e01b996cadc001622fb5e363b4218080a00000000000000000000000000000000000000000000000000000000000000000f880f87e809f031eea408f8e1799cb883da2927b1336521d73c2c14accfebb70d5c5af006c82520894d0d0d0d0d0d0d0d0d0d0d0d0d0d0d0d0d0d0d0d001801ca039b081ab7094dff1b3ac79cbf8e381adc9f7a4e16290d7abc42dd006e5e062c5a033af00e26e5eb4431dcad601b2c8bf12d51eef2bd037d14681f22692ffab1ccdc0c0",
                "rlp_decoded" : {
                    "blockHeader" : {
                        "baseFeePerGas" : "0x0a",
                        "bloom" : "0x00000000000000000000000000000000000000000000000000000000000000000000000000000000000000000000000000000000000000000000000000000000000000000000000000000000000000000000000000000000000000000000000000000000000000000000000000000000000000000000000000000000000000000000000000000000000000000000000000000000000000000000000000000000000000000000000000000000000000000000000000000000000000000000000000000000000000000000000000000000000000000000000000000000000000000000000000000000000000000000000000000000000000000000000000000000",
                        "coinbase" : "0x2adc25665018aa1fe0e6bc666dac8fc2697ff9ba",
                        "extraData" : "0x00",
                        "gasLimit" : "0x05500000",
                        "gasUsed" : "0x00",
                        "hash" : "0x69ece51321c7a3eff42a28231e4ea492d2a4c1f5ebd17a954170db3102c4cd4f",
                        "mixHash" : "0x0000000000000000000000000000000000000000000000000000000000020000",
                        "nonce" : "0x0000000000000000",
                        "number" : "0x01",
                        "parentBeaconBlockRoot" : "0x0000000000000000000000000000000000000000000000000000000000000000",
                        "parentHash" : "0x74fad09332d063d9214ca23695764e441333db04f758b89460314a82258e6909",
                        "receiptTrie" : "0x56e81f171bcc55a6ff8345e692c0f86e5b48e01b996cadc001622fb5e363b421",
                        "stateRoot" : "0x75fe401706b859a081fa054ec39a614212781102d4590f78bf4e7dcb00091be8",
                        "timestamp" : "0x03e8",
                        "transactionsTrie" : "0x56e81f171bcc55a6ff8345e692c0f86e5b48e01b996cadc001622fb5e363b421",
                        "withdrawalsRoot" : "0x56e81f171bcc55a6ff8345e692c0f86e5b48e01b996cadc001622fb5e363b421"
                    },
                    "transactions" : [
                        {
                            "data" : "0x",
                            "gasLimit" : "0x5208",
                            "gasPrice" : "0x031eea408f8e1799cb883da2927b1336521d73c2c14accfebb70d5c5af006c",
                            "nonce" : "0x00",
                            "r" : "0x39b081ab7094dff1b3ac79cbf8e381adc9f7a4e16290d7abc42dd006e5e062c5",
                            "s" : "0x33af00e26e5eb4431dcad601b2c8bf12d51eef2bd037d14681f22692ffab1ccd",
                            "to" : "0xd0d0d0d0d0d0d0d0d0d0d0d0d0d0d0d0d0d0d0d0",
                            "v" : "0x1c",
                            "value" : "0x01"
                        }
                    ],
                    "uncleHeaders" : [
                    ],
                    "withdrawals" : [
                    ]
                },
                "transactionSequence" : [
                    {
                        "exception" : "TransactionException.INSUFFICIENT_ACCOUNT_FUNDS|TransactionException.GASLIMIT_PRICE_PRODUCT_OVERFLOW",
                        "rawBytes" : "0xf87e809f031eea408f8e1799cb883da2927b1336521d73c2c14accfebb70d5c5af006c82520894d0d0d0d0d0d0d0d0d0d0d0d0d0d0d0d0d0d0d0d001801ca039b081ab7094dff1b3ac79cbf8e381adc9f7a4e16290d7abc42dd006e5e062c5a033af00e26e5eb4431dcad601b2c8bf12d51eef2bd037d14681f22692ffab1ccd",
                        "valid" : "false"
                    }
                ]
            }
        ],
        "config" : {
            "blobSchedule" : {
                "Cancun" : {
                    "baseFeeUpdateFraction" : "0x32f0ed",
                    "max" : "0x06",
                    "target" : "0x03"
                }
            },
            "chainid" : "0x01",
            "network" : "Cancun"
        },
        "genesisBlockHeader" : {
            "baseFeePerGas" : "0x0b",
            "bloom" : "0x00000000000000000000000000000000000000000000000000000000000000000000000000000000000000000000000000000000000000000000000000000000000000000000000000000000000000000000000000000000000000000000000000000000000000000000000000000000000000000000000000000000000000000000000000000000000000000000000000000000000000000000000000000000000000000000000000000000000000000000000000000000000000000000000000000000000000000000000000000000000000000000000000000000000000000000000000000000000000000000000000000000000000000000000000000000",
            "coinbase" : "0x2adc25665018aa1fe0e6bc666dac8fc2697ff9ba",
            "extraData" : "0x00",
            "gasLimit" : "0x05500000",
            "gasUsed" : "0x00",
            "hash" : "0x74fad09332d063d9214ca23695764e441333db04f758b89460314a82258e6909",
            "mixHash" : "0x0000000000000000000000000000000000000000000000000000000000020000",
            "nonce" : "0x0000000000000000",
            "number" : "0x00",
            "parentBeaconBlockRoot" : "0x0000000000000000000000000000000000000000000000000000000000000000",
            "parentHash" : "0x0000000000000000000000000000000000000000000000000000000000000000",
            "receiptTrie" : "0x56e81f171bcc55a6ff8345e692c0f86e5b48e01b996cadc001622fb5e363b421",
            "stateRoot" : "0x13e446849a93f55cafcb212d134337ecf0d0ad5bed1781a9f687ddf357d4f959",
            "timestamp" : "0x00",
            "transactionsTrie" : "0x56e81f171bcc55a6ff8345e692c0f86e5b48e01b996cadc001622fb5e363b421",
            "withdrawalsRoot" : "0x56e81f171bcc55a6ff8345e692c0f86e5b48e01b996cadc001622fb5e363b421"
        },
        "genesisRLP" : "0xf9023ff90239a00000000000000000000000000000000000000000000000000000000000000000a01dcc4de8dec75d7aab85b567b6ccd41ad312451b948a7413f0a142fd40d49347942adc25665018aa1fe0e6bc666dac8fc2697ff9baa013e446849a93f55cafcb212d134337ecf0d0ad5bed1781a9f687ddf357d4f959a056e81f171bcc55a6ff8345e692c0f86e5b48e01b996cadc001622fb5e363b421a056e81f171bcc55a6ff8345e692c0f86e5b48e01b996cadc001622fb5e363b421b901000000000000000000000000000000000000000000000000000000000000000000000000000000000000000000000000000000000000000000000000000000000000000000000000000000000000000000000000000000000000000000000000000000000000000000000000000000000000000000000000000000000000000000000000000000000000000000000000000000000000000000000000000000000000000000000000000000000000000000000000000000000000000000000000000000000000000000000000000000000000000000000000000000000000000000000000000000000000000000000000000000000000000000000000000000000080808405500000808000a000000000000000000000000000000000000000000000000000000000000200008800000000000000000ba056e81f171bcc55a6ff8345e692c0f86e5b48e01b996cadc001622fb5e363b4218083060000a00000000000000000000000000000000000000000000000000000000000000000c0c0c0",
        "lastblockhash" : "0x74fad09332d063d9214ca23695764e441333db04f758b89460314a82258e6909",
        "network" : "Cancun",
        "postState" : {
            "0x000f3df6d732807ef1319fb7b8bb8522d0beac02" : {
                "balance" : "0x00",
                "code" : "0x3373fffffffffffffffffffffffffffffffffffffffe14604d57602036146024575f5ffd5b5f35801560495762001fff810690815414603c575f5ffd5b62001fff01545f5260205ff35b5f5ffd5b62001fff42064281555f359062001fff015500",
                "nonce" : "0x01",
                "storage" : {
                }
            },
            "0xa94f5374fce5edbc8e2a8697c15331677e6ebf0b" : {
                "balance" : "0x3b9aca00",
                "code" : "0x",
                "nonce" : "0x00",
                "storage" : {
                }
            },
            "0xd0d0d0d0d0d0d0d0d0d0d0d0d0d0d0d0d0d0d0d0" : {
                "balance" : "0x0a",
                "code" : "0x",
                "nonce" : "0x00",
                "storage" : {
                }
            }
        },
        "pre" : {
            "0x000f3df6d732807ef1319fb7b8bb8522d0beac02" : {
                "balance" : "0x00",
                "code" : "0x3373fffffffffffffffffffffffffffffffffffffffe14604d57602036146024575f5ffd5b5f35801560495762001fff810690815414603c575f5ffd5b62001fff01545f5260205ff35b5f5ffd5b62001fff42064281555f359062001fff015500",
                "nonce" : "0x01",
                "storage" : {
                }
            },
            "0xa94f5374fce5edbc8e2a8697c15331677e6ebf0b" : {
                "balance" : "0x3b9aca00",
                "code" : "0x",
                "nonce" : "0x00",
                "storage" : {
                }
            },
            "0xd0d0d0d0d0d0d0d0d0d0d0d0d0d0d0d0d0d0d0d0" : {
                "balance" : "0x0a",
                "code" : "0x",
                "nonce" : "0x00",
                "storage" : {
                }
            }
        },
        "sealEngine" : "NoProof"
    },
    "HighGasPriceParis_d0g0v0_Prague" : {
        "_info" : {
            "comment" : "",
            "filling-rpc-server" : "evmone-t8n 0.14.0-13+commit.4d363c36",
            "filling-tool-version" : "retesteth-0.3.2-legacy+commit.ca7f4c79.Linux.g++",
            "fixture-format" : "blockchain_test",
            "generatedTestHash" : "c0a16701fc8c221a4d018dbdda7d233ea5e50e293e2b78fbcd3f9526e3b19367",
            "lllcversion" : "Version: 0.5.14-develop.2024.11.5+commit.b2b86751.mod.Linux.g++",
            "solidity" : "Version: 0.8.24+commit.e11b9ed9.Linux.g++",
            "source" : "src/GeneralStateTestsFiller/stTransactionTest/HighGasPriceParisFiller.yml",
            "sourceHash" : "d4d19c018057c5cbfd11181ce42e15c59050e13395e831a7bbcd4014a0ae451e"
        },
        "blocks" : [
            {
                "expectException" : "TransactionException.INSUFFICIENT_ACCOUNT_FUNDS|TransactionException.GASLIMIT_PRICE_PRODUCT_OVERFLOW",
                "rlp" : "0xf902e0f90259a0d2133e51fbb810a99eb3887de09a6091264b93851812492b2c106fa09a563886a01dcc4de8dec75d7aab85b567b6ccd41ad312451b948a7413f0a142fd40d49347942adc25665018aa1fe0e6bc666dac8fc2697ff9baa0a754b21caf81099ba4e0357f5f17569ce4aa1974e2815e6415a3c2abe2e9a2eda056e81f171bcc55a6ff8345e692c0f86e5b48e01b996cadc001622fb5e363b421a056e81f171bcc55a6ff8345e692c0f86e5b48e01b996cadc001622fb5e363b421b901000000000000000000000000000000000000000000000000000000000000000000000000000000000000000000000000000000000000000000000000000000000000000000000000000000000000000000000000000000000000000000000000000000000000000000000000000000000000000000000000000000000000000000000000000000000000000000000000000000000000000000000000000000000000000000000000000000000000000000000000000000000000000000000000000000000000000000000000000000000000000000000000000000000000000000000000000000000000000000000000000000000000000000000000000000000080018405500000808203e800a000000000000000000000000000000000000000000000000000000000000200008800000000000000000aa056e81f171bcc55a6ff8345e692c0f86e5b48e01b996cadc001622fb5e363b4218080a00000000000000000000000000000000000000000000000000000000000000000a0e3b0c44298fc1c149afbf4c8996fb92427ae41e4649b934ca495991b7852b855f880f87e809f031eea408f8e1799cb883da2927b1336521d73c2c14accfebb70d5c5af006c82520894d0d0d0d0d0d0d0d0d0d0d0d0d0d0d0d0d0d0d0d001801ca039b081ab7094dff1b3ac79cbf8e381adc9f7a4e16290d7abc42dd006e5e062c5a033af00e26e5eb4431dcad601b2c8bf12d51eef2bd037d14681f22692ffab1ccdc0c0",
                "rlp_decoded" : {
                    "blockHeader" : {
                        "baseFeePerGas" : "0x0a",
                        "bloom" : "0x00000000000000000000000000000000000000000000000000000000000000000000000000000000000000000000000000000000000000000000000000000000000000000000000000000000000000000000000000000000000000000000000000000000000000000000000000000000000000000000000000000000000000000000000000000000000000000000000000000000000000000000000000000000000000000000000000000000000000000000000000000000000000000000000000000000000000000000000000000000000000000000000000000000000000000000000000000000000000000000000000000000000000000000000000000000",
                        "coinbase" : "0x2adc25665018aa1fe0e6bc666dac8fc2697ff9ba",
                        "extraData" : "0x00",
                        "gasLimit" : "0x05500000",
                        "gasUsed" : "0x00",
                        "hash" : "0xae34498e17c52373a4f23451e42e61af4e5122443076440881be2ae1f61f7a72",
                        "mixHash" : "0x0000000000000000000000000000000000000000000000000000000000020000",
                        "nonce" : "0x0000000000000000",
                        "number" : "0x01",
                        "parentBeaconBlockRoot" : "0x0000000000000000000000000000000000000000000000000000000000000000",
                        "parentHash" : "0xd2133e51fbb810a99eb3887de09a6091264b93851812492b2c106fa09a563886",
                        "receiptTrie" : "0x56e81f171bcc55a6ff8345e692c0f86e5b48e01b996cadc001622fb5e363b421",
                        "requestsHash" : "0xe3b0c44298fc1c149afbf4c8996fb92427ae41e4649b934ca495991b7852b855",
                        "stateRoot" : "0xa754b21caf81099ba4e0357f5f17569ce4aa1974e2815e6415a3c2abe2e9a2ed",
                        "timestamp" : "0x03e8",
                        "transactionsTrie" : "0x56e81f171bcc55a6ff8345e692c0f86e5b48e01b996cadc001622fb5e363b421",
                        "withdrawalsRoot" : "0x56e81f171bcc55a6ff8345e692c0f86e5b48e01b996cadc001622fb5e363b421"
                    },
                    "transactions" : [
                        {
                            "data" : "0x",
                            "gasLimit" : "0x5208",
                            "gasPrice" : "0x031eea408f8e1799cb883da2927b1336521d73c2c14accfebb70d5c5af006c",
                            "nonce" : "0x00",
                            "r" : "0x39b081ab7094dff1b3ac79cbf8e381adc9f7a4e16290d7abc42dd006e5e062c5",
                            "s" : "0x33af00e26e5eb4431dcad601b2c8bf12d51eef2bd037d14681f22692ffab1ccd",
                            "to" : "0xd0d0d0d0d0d0d0d0d0d0d0d0d0d0d0d0d0d0d0d0",
                            "v" : "0x1c",
                            "value" : "0x01"
                        }
                    ],
                    "uncleHeaders" : [
                    ],
                    "withdrawals" : [
                    ]
                },
                "transactionSequence" : [
                    {
                        "exception" : "TransactionException.INSUFFICIENT_ACCOUNT_FUNDS|TransactionException.GASLIMIT_PRICE_PRODUCT_OVERFLOW",
                        "rawBytes" : "0xf87e809f031eea408f8e1799cb883da2927b1336521d73c2c14accfebb70d5c5af006c82520894d0d0d0d0d0d0d0d0d0d0d0d0d0d0d0d0d0d0d0d001801ca039b081ab7094dff1b3ac79cbf8e381adc9f7a4e16290d7abc42dd006e5e062c5a033af00e26e5eb4431dcad601b2c8bf12d51eef2bd037d14681f22692ffab1ccd",
                        "valid" : "false"
                    }
                ]
            }
        ],
        "config" : {
            "blobSchedule" : {
                "Prague" : {
                    "baseFeeUpdateFraction" : "0x4c6964",
                    "max" : "0x09",
                    "target" : "0x06"
                }
            },
            "chainid" : "0x01",
            "network" : "Prague"
        },
        "genesisBlockHeader" : {
            "baseFeePerGas" : "0x0b",
            "bloom" : "0x00000000000000000000000000000000000000000000000000000000000000000000000000000000000000000000000000000000000000000000000000000000000000000000000000000000000000000000000000000000000000000000000000000000000000000000000000000000000000000000000000000000000000000000000000000000000000000000000000000000000000000000000000000000000000000000000000000000000000000000000000000000000000000000000000000000000000000000000000000000000000000000000000000000000000000000000000000000000000000000000000000000000000000000000000000000",
            "coinbase" : "0x2adc25665018aa1fe0e6bc666dac8fc2697ff9ba",
            "extraData" : "0x00",
            "gasLimit" : "0x05500000",
            "gasUsed" : "0x00",
            "hash" : "0xd2133e51fbb810a99eb3887de09a6091264b93851812492b2c106fa09a563886",
            "mixHash" : "0x0000000000000000000000000000000000000000000000000000000000020000",
            "nonce" : "0x0000000000000000",
            "number" : "0x00",
            "parentBeaconBlockRoot" : "0x0000000000000000000000000000000000000000000000000000000000000000",
            "parentHash" : "0x0000000000000000000000000000000000000000000000000000000000000000",
            "receiptTrie" : "0x56e81f171bcc55a6ff8345e692c0f86e5b48e01b996cadc001622fb5e363b421",
            "requestsHash" : "0xe3b0c44298fc1c149afbf4c8996fb92427ae41e4649b934ca495991b7852b855",
            "stateRoot" : "0xace58c6283ec0a9c883b42f864339dcda03aabf9f21de4a11745a1f5a031ac65",
            "timestamp" : "0x00",
            "transactionsTrie" : "0x56e81f171bcc55a6ff8345e692c0f86e5b48e01b996cadc001622fb5e363b421",
            "withdrawalsRoot" : "0x56e81f171bcc55a6ff8345e692c0f86e5b48e01b996cadc001622fb5e363b421"
        },
        "genesisRLP" : "0xf90260f9025aa00000000000000000000000000000000000000000000000000000000000000000a01dcc4de8dec75d7aab85b567b6ccd41ad312451b948a7413f0a142fd40d49347942adc25665018aa1fe0e6bc666dac8fc2697ff9baa0ace58c6283ec0a9c883b42f864339dcda03aabf9f21de4a11745a1f5a031ac65a056e81f171bcc55a6ff8345e692c0f86e5b48e01b996cadc001622fb5e363b421a056e81f171bcc55a6ff8345e692c0f86e5b48e01b996cadc001622fb5e363b421b901000000000000000000000000000000000000000000000000000000000000000000000000000000000000000000000000000000000000000000000000000000000000000000000000000000000000000000000000000000000000000000000000000000000000000000000000000000000000000000000000000000000000000000000000000000000000000000000000000000000000000000000000000000000000000000000000000000000000000000000000000000000000000000000000000000000000000000000000000000000000000000000000000000000000000000000000000000000000000000000000000000000000000000000000000000000080808405500000808000a000000000000000000000000000000000000000000000000000000000000200008800000000000000000ba056e81f171bcc55a6ff8345e692c0f86e5b48e01b996cadc001622fb5e363b4218083060000a00000000000000000000000000000000000000000000000000000000000000000a0e3b0c44298fc1c149afbf4c8996fb92427ae41e4649b934ca495991b7852b855c0c0c0",
        "lastblockhash" : "0xd2133e51fbb810a99eb3887de09a6091264b93851812492b2c106fa09a563886",
        "network" : "Prague",
        "postState" : {
            "0x0000f90827f1c53a10cb7a02335b175320002935" : {
                "balance" : "0x00",
                "code" : "0x3373fffffffffffffffffffffffffffffffffffffffe14604657602036036042575f35600143038111604257611fff81430311604257611fff9006545f5260205ff35b5f5ffd5b5f35611fff60014303065500",
                "nonce" : "0x01",
                "storage" : {
                }
            },
            "0x000f3df6d732807ef1319fb7b8bb8522d0beac02" : {
                "balance" : "0x00",
                "code" : "0x3373fffffffffffffffffffffffffffffffffffffffe14604d57602036146024575f5ffd5b5f35801560495762001fff810690815414603c575f5ffd5b62001fff01545f5260205ff35b5f5ffd5b62001fff42064281555f359062001fff015500",
                "nonce" : "0x01",
                "storage" : {
                }
            },
            "0xa94f5374fce5edbc8e2a8697c15331677e6ebf0b" : {
                "balance" : "0x3b9aca00",
                "code" : "0x",
                "nonce" : "0x00",
                "storage" : {
                }
            },
            "0xd0d0d0d0d0d0d0d0d0d0d0d0d0d0d0d0d0d0d0d0" : {
                "balance" : "0x0a",
                "code" : "0x",
                "nonce" : "0x00",
                "storage" : {
                }
            }
        },
        "pre" : {
            "0x0000f90827f1c53a10cb7a02335b175320002935" : {
                "balance" : "0x00",
                "code" : "0x3373fffffffffffffffffffffffffffffffffffffffe14604657602036036042575f35600143038111604257611fff81430311604257611fff9006545f5260205ff35b5f5ffd5b5f35611fff60014303065500",
                "nonce" : "0x01",
                "storage" : {
                }
            },
            "0x000f3df6d732807ef1319fb7b8bb8522d0beac02" : {
                "balance" : "0x00",
                "code" : "0x3373fffffffffffffffffffffffffffffffffffffffe14604d57602036146024575f5ffd5b5f35801560495762001fff810690815414603c575f5ffd5b62001fff01545f5260205ff35b5f5ffd5b62001fff42064281555f359062001fff015500",
                "nonce" : "0x01",
                "storage" : {
                }
            },
            "0xa94f5374fce5edbc8e2a8697c15331677e6ebf0b" : {
                "balance" : "0x3b9aca00",
                "code" : "0x",
                "nonce" : "0x00",
                "storage" : {
                }
            },
            "0xd0d0d0d0d0d0d0d0d0d0d0d0d0d0d0d0d0d0d0d0" : {
                "balance" : "0x0a",
                "code" : "0x",
                "nonce" : "0x00",
                "storage" : {
                }
            }
        },
        "sealEngine" : "NoProof"
    }
}