{
    "static_callcodecallcodecall_110_SuicideMiddle2_d0g0v0_Cancun" : {
        "_info" : {
            "comment" : "",
            "filling-rpc-server" : "evmone-t8n 0.14.0-13+commit.4d363c36",
            "filling-tool-version" : "retesteth-0.3.2-legacy+commit.ca7f4c79.Linux.g++",
            "fixture-format" : "blockchain_test",
            "generatedTestHash" : "f88346219d6fe264c2cca7998c30d10220134a872718c72c17123a207f9c91c2",
            "lllcversion" : "Version: 0.5.14-develop.2024.11.5+commit.b2b86751.mod.Linux.g++",
            "hyperion" : "Version: 0.8.24+commit.e11b9ed9.Linux.g++",
            "source" : "src/GeneralStateTestsFiller/stStaticCall/static_callcodecallcodecall_110_SuicideMiddle2Filler.json",
            "sourceHash" : "6e19321e9b148d1d887eb0b2f323a2f631f80b4c8cdd4a82cbb7ac1697efa230"
        },
        "blocks" : [
            {
                "blockHeader" : {
                    "baseFeePerGas" : "0x0a",
                    "bloom" : "0x00000000000000000000000000000000000000000000000000000000000000000000000000000000000000000000000000000000000000000000000000000000000000000000000000000000000000000000000000000000000000000000000000000000000000000000000000000000000000000000000000000000000000000000000000000000000000000000000000000000000000000000000000000000000000000000000000000000000000000000000000000000000000000000000000000000000000000000000000000000000000000000000000000000000000000000000000000000000000000000000000000000000000000000000000000000",
                    "coinbase" : "0x2adc25665018aa1fe0e6bc666dac8fc2697ff9ba",
                    "extraData" : "0x00",
                    "gasLimit" : "0x01c9c380",
                    "gasUsed" : "0x0126c7",
                    "hash" : "0xfe8ec1396025dc33e6b12cd827a8b92eb1224d6f9cbaf30df8313f63a55f2399",
                    "mixHash" : "0x0000000000000000000000000000000000000000000000000000000000020000",
                    "nonce" : "0x0000000000000000",
                    "number" : "0x01",
                    "parentHash" : "0xe1ed716899da1de954ccdf3cd8ff46ecf75c4ca7e1e4a843a02486f0210d6b69",
                    "receiptTrie" : "0x883a729346217ffad6c0491d67d46d21bf7b246224086224fd8e11d20011e18c",
                    "stateRoot" : "0x8419f239cc8c6e3281f8bafce15e1959659ec503a9b6054ea565d8f73d81c855",
                    "timestamp" : "0x03e8",
                    "transactionsTrie" : "0xa02cfaaef253dee0e8c7e6cfcc1960f4566d266cf1081772f1446d2109838efb",
                    "withdrawalsRoot" : "0x56e81f171bcc55a6ff8345e692c0f86e5b48e01b996cadc001622fb5e363b421"
                },
                "rlp" : "0xf902a4f9023ba0e1ed716899da1de954ccdf3cd8ff46ecf75c4ca7e1e4a843a02486f0210d6b69a01dcc4de8dec75d7aab85b567b6ccd41ad312451b948a7413f0a142fd40d49347942adc25665018aa1fe0e6bc666dac8fc2697ff9baa08419f239cc8c6e3281f8bafce15e1959659ec503a9b6054ea565d8f73d81c855a0a02cfaaef253dee0e8c7e6cfcc1960f4566d266cf1081772f1446d2109838efba0883a729346217ffad6c0491d67d46d21bf7b246224086224fd8e11d20011e18cb901000000000000000000000000000000000000000000000000000000000000000000000000000000000000000000000000000000000000000000000000000000000000000000000000000000000000000000000000000000000000000000000000000000000000000000000000000000000000000000000000000000000000000000000000000000000000000000000000000000000000000000000000000000000000000000000000000000000000000000000000000000000000000000000000000000000000000000000000000000000000000000000000000000000000000000000000000000000000000000000000000000000000000000000000000000000080018401c9c380830126c78203e800a000000000000000000000000000000000000000000000000000000000000200008800000000000000000aa056e81f171bcc55a6ff8345e692c0f86e5b48e01b996cadc001622fb5e363b4218080a00000000000000000000000000000000000000000000000000000000000000000f862f860800a832dc6c094100000000000000000000000000000000000000080801ba07763c200d265ba0050627c8c7b4c19bf118b3581a3de22dbcebdfcb6e8565790a0514908f638ddc4b1402230e34692f43bb92713ff2cad3627814cf6fb19ac2e43c0c0",
                "transactions" : [
                    {
                        "data" : "0x",
                        "gasLimit" : "0x2dc6c0",
                        "gasPrice" : "0x0a",
                        "nonce" : "0x00",
                        "r" : "0x7763c200d265ba0050627c8c7b4c19bf118b3581a3de22dbcebdfcb6e8565790",
                        "s" : "0x514908f638ddc4b1402230e34692f43bb92713ff2cad3627814cf6fb19ac2e43",
                        "sender" : "0xa94f5374fce5edbc8e2a8697c15331677e6ebf0b",
                        "to" : "0x1000000000000000000000000000000000000000",
                        "v" : "0x1b",
                        "value" : "0x00"
                    }
                ],
                "uncleHeaders" : [
                ],
                "withdrawals" : [
                ]
            }
        ],
        "config" : {
            "blobSchedule" : {
                "Cancun" : {
                    "baseFeeUpdateFraction" : "0x32f0ed",
                    "max" : "0x06",
                    "target" : "0x03"
                }
            },
            "chainid" : "0x01",
            "network" : "Cancun"
        },
        "genesisBlockHeader" : {
            "baseFeePerGas" : "0x0b",
            "bloom" : "0x00000000000000000000000000000000000000000000000000000000000000000000000000000000000000000000000000000000000000000000000000000000000000000000000000000000000000000000000000000000000000000000000000000000000000000000000000000000000000000000000000000000000000000000000000000000000000000000000000000000000000000000000000000000000000000000000000000000000000000000000000000000000000000000000000000000000000000000000000000000000000000000000000000000000000000000000000000000000000000000000000000000000000000000000000000000",
            "coinbase" : "0x2adc25665018aa1fe0e6bc666dac8fc2697ff9ba",
            "extraData" : "0x00",
            "gasLimit" : "0x01c9c380",
            "gasUsed" : "0x00",
            "hash" : "0xe1ed716899da1de954ccdf3cd8ff46ecf75c4ca7e1e4a843a02486f0210d6b69",
            "mixHash" : "0x0000000000000000000000000000000000000000000000000000000000020000",
            "nonce" : "0x0000000000000000",
            "number" : "0x00",
            "parentHash" : "0x0000000000000000000000000000000000000000000000000000000000000000",
            "receiptTrie" : "0x56e81f171bcc55a6ff8345e692c0f86e5b48e01b996cadc001622fb5e363b421",
            "stateRoot" : "0x5f69677696cc59699300c9f41b1005209f5854b76109e8b6cc7e5ec340aba1cf",
            "timestamp" : "0x00",
            "transactionsTrie" : "0x56e81f171bcc55a6ff8345e692c0f86e5b48e01b996cadc001622fb5e363b421",
            "withdrawalsRoot" : "0x56e81f171bcc55a6ff8345e692c0f86e5b48e01b996cadc001622fb5e363b421"
        },
        "genesisRLP" : "0xf9023ff90239a00000000000000000000000000000000000000000000000000000000000000000a01dcc4de8dec75d7aab85b567b6ccd41ad312451b948a7413f0a142fd40d49347942adc25665018aa1fe0e6bc666dac8fc2697ff9baa05f69677696cc59699300c9f41b1005209f5854b76109e8b6cc7e5ec340aba1cfa056e81f171bcc55a6ff8345e692c0f86e5b48e01b996cadc001622fb5e363b421a056e81f171bcc55a6ff8345e692c0f86e5b48e01b996cadc001622fb5e363b421b901000000000000000000000000000000000000000000000000000000000000000000000000000000000000000000000000000000000000000000000000000000000000000000000000000000000000000000000000000000000000000000000000000000000000000000000000000000000000000000000000000000000000000000000000000000000000000000000000000000000000000000000000000000000000000000000000000000000000000000000000000000000000000000000000000000000000000000000000000000000000000000000000000000000000000000000000000000000000000000000000000000000000000000000000000000000080808401c9c380808000a000000000000000000000000000000000000000000000000000000000000200008800000000000000000ba056e81f171bcc55a6ff8345e692c0f86e5b48e01b996cadc001622fb5e363b4218083060000a00000000000000000000000000000000000000000000000000000000000000000c0c0c0",
        "lastblockhash" : "0xfe8ec1396025dc33e6b12cd827a8b92eb1224d6f9cbaf30df8313f63a55f2399",
        "network" : "Cancun",
        "postState" : {
            "0x000f3df6d732807ef1319fb7b8bb8522d0beac02" : {
                "balance" : "0x00",
                "code" : "0x3373fffffffffffffffffffffffffffffffffffffffe14604d57602036146024575f5ffd5b5f35801560495762001fff810690815414603c575f5ffd5b62001fff01545f5260205ff35b5f5ffd5b62001fff42064281555f359062001fff015500",
                "nonce" : "0x01",
                "storage" : {
                    "0x03e8" : "0x03e8"
                }
            },
            "0x1000000000000000000000000000000000000000" : {
                "balance" : "0x0de0b6b3a7640000",
                "code" : "0x604060006040600034731000000000000000000000000000000000000001620249f0f26000555a60015500",
                "nonce" : "0x00",
                "storage" : {
                    "0x00" : "0x01",
                    "0x01" : "0x2cf650"
                }
            },
            "0x1000000000000000000000000000000000000001" : {
                "balance" : "0x02540be400",
                "code" : "0x604060006040600034731000000000000000000000000000000000000002620186a0f200",
                "nonce" : "0x00",
                "storage" : {
                }
            },
            "0x1000000000000000000000000000000000000002" : {
                "balance" : "0x02540be400",
                "code" : "0x731000000000000000000000000000000000000000ff604060006040600073100000000000000000000000000000000000000361c350fa00",
                "nonce" : "0x00",
                "storage" : {
                }
            },
            "0x1000000000000000000000000000000000000003" : {
                "balance" : "0x02540be400",
                "code" : "0x600160035200",
                "nonce" : "0x00",
                "storage" : {
                }
            },
            "0xa94f5374fce5edbc8e2a8697c15331677e6ebf0b" : {
                "balance" : "0x0de0b6b3a7587c3a",
                "code" : "0x",
                "nonce" : "0x01",
                "storage" : {
                }
            }
        },
        "pre" : {
            "0x000f3df6d732807ef1319fb7b8bb8522d0beac02" : {
                "balance" : "0x00",
                "code" : "0x3373fffffffffffffffffffffffffffffffffffffffe14604d57602036146024575f5ffd5b5f35801560495762001fff810690815414603c575f5ffd5b62001fff01545f5260205ff35b5f5ffd5b62001fff42064281555f359062001fff015500",
                "nonce" : "0x01",
                "storage" : {
                }
            },
            "0x1000000000000000000000000000000000000000" : {
                "balance" : "0x0de0b6b3a7640000",
                "code" : "0x604060006040600034731000000000000000000000000000000000000001620249f0f26000555a60015500",
                "nonce" : "0x00",
                "storage" : {
                }
            },
            "0x1000000000000000000000000000000000000001" : {
                "balance" : "0x02540be400",
                "code" : "0x604060006040600034731000000000000000000000000000000000000002620186a0f200",
                "nonce" : "0x00",
                "storage" : {
                }
            },
            "0x1000000000000000000000000000000000000002" : {
                "balance" : "0x02540be400",
                "code" : "0x731000000000000000000000000000000000000000ff604060006040600073100000000000000000000000000000000000000361c350fa00",
                "nonce" : "0x00",
                "storage" : {
                }
            },
            "0x1000000000000000000000000000000000000003" : {
                "balance" : "0x02540be400",
                "code" : "0x600160035200",
                "nonce" : "0x00",
                "storage" : {
                }
            },
            "0xa94f5374fce5edbc8e2a8697c15331677e6ebf0b" : {
                "balance" : "0x0de0b6b3a7640000",
                "code" : "0x",
                "nonce" : "0x00",
                "storage" : {
                }
            }
        },
        "sealEngine" : "NoProof"
    },
    "static_callcodecallcodecall_110_SuicideMiddle2_d0g0v0_Prague" : {
        "_info" : {
            "comment" : "",
            "filling-rpc-server" : "evmone-t8n 0.14.0-13+commit.4d363c36",
            "filling-tool-version" : "retesteth-0.3.2-legacy+commit.ca7f4c79.Linux.g++",
            "fixture-format" : "blockchain_test",
            "generatedTestHash" : "d020e706ca817fced398ae058d188f25321d3364a7b9ffa2d65e502eb6763e23",
            "lllcversion" : "Version: 0.5.14-develop.2024.11.5+commit.b2b86751.mod.Linux.g++",
            "hyperion" : "Version: 0.8.24+commit.e11b9ed9.Linux.g++",
            "source" : "src/GeneralStateTestsFiller/stStaticCall/static_callcodecallcodecall_110_SuicideMiddle2Filler.json",
            "sourceHash" : "6e19321e9b148d1d887eb0b2f323a2f631f80b4c8cdd4a82cbb7ac1697efa230"
        },
        "blocks" : [
            {
                "blockHeader" : {
                    "baseFeePerGas" : "0x0a",
                    "bloom" : "0x00000000000000000000000000000000000000000000000000000000000000000000000000000000000000000000000000000000000000000000000000000000000000000000000000000000000000000000000000000000000000000000000000000000000000000000000000000000000000000000000000000000000000000000000000000000000000000000000000000000000000000000000000000000000000000000000000000000000000000000000000000000000000000000000000000000000000000000000000000000000000000000000000000000000000000000000000000000000000000000000000000000000000000000000000000000",
                    "coinbase" : "0x2adc25665018aa1fe0e6bc666dac8fc2697ff9ba",
                    "extraData" : "0x00",
                    "gasLimit" : "0x01c9c380",
                    "gasUsed" : "0x0126c7",
                    "hash" : "0xcf7429b66acac8bf9f1b8ab0fe8634b2df043a86baa2e457bb995c299aea3123",
                    "mixHash" : "0x0000000000000000000000000000000000000000000000000000000000020000",
                    "nonce" : "0x0000000000000000",
                    "number" : "0x01",
                    "parentHash" : "0x8fd5c9e02b5bcd126c04c23b223c4294c4c20f5bb2cece84359f4e552ad28f22",
                    "receiptTrie" : "0x883a729346217ffad6c0491d67d46d21bf7b246224086224fd8e11d20011e18c",
                    "requestsHash" : "0xe3b0c44298fc1c149afbf4c8996fb92427ae41e4649b934ca495991b7852b855",
                    "stateRoot" : "0x9e8d7fc360d6bcd52ef0882f8af4f303d99feda01509783bd6060b10e33dca3e",
                    "timestamp" : "0x03e8",
                    "transactionsTrie" : "0xa02cfaaef253dee0e8c7e6cfcc1960f4566d266cf1081772f1446d2109838efb",
                    "withdrawalsRoot" : "0x56e81f171bcc55a6ff8345e692c0f86e5b48e01b996cadc001622fb5e363b421"
                },
                "rlp" : "0xf902c5f9025ca08fd5c9e02b5bcd126c04c23b223c4294c4c20f5bb2cece84359f4e552ad28f22a01dcc4de8dec75d7aab85b567b6ccd41ad312451b948a7413f0a142fd40d49347942adc25665018aa1fe0e6bc666dac8fc2697ff9baa09e8d7fc360d6bcd52ef0882f8af4f303d99feda01509783bd6060b10e33dca3ea0a02cfaaef253dee0e8c7e6cfcc1960f4566d266cf1081772f1446d2109838efba0883a729346217ffad6c0491d67d46d21bf7b246224086224fd8e11d20011e18cb901000000000000000000000000000000000000000000000000000000000000000000000000000000000000000000000000000000000000000000000000000000000000000000000000000000000000000000000000000000000000000000000000000000000000000000000000000000000000000000000000000000000000000000000000000000000000000000000000000000000000000000000000000000000000000000000000000000000000000000000000000000000000000000000000000000000000000000000000000000000000000000000000000000000000000000000000000000000000000000000000000000000000000000000000000000000080018401c9c380830126c78203e800a000000000000000000000000000000000000000000000000000000000000200008800000000000000000aa056e81f171bcc55a6ff8345e692c0f86e5b48e01b996cadc001622fb5e363b4218080a00000000000000000000000000000000000000000000000000000000000000000a0e3b0c44298fc1c149afbf4c8996fb92427ae41e4649b934ca495991b7852b855f862f860800a832dc6c094100000000000000000000000000000000000000080801ba07763c200d265ba0050627c8c7b4c19bf118b3581a3de22dbcebdfcb6e8565790a0514908f638ddc4b1402230e34692f43bb92713ff2cad3627814cf6fb19ac2e43c0c0",
                "transactions" : [
                    {
                        "data" : "0x",
                        "gasLimit" : "0x2dc6c0",
                        "gasPrice" : "0x0a",
                        "nonce" : "0x00",
                        "r" : "0x7763c200d265ba0050627c8c7b4c19bf118b3581a3de22dbcebdfcb6e8565790",
                        "s" : "0x514908f638ddc4b1402230e34692f43bb92713ff2cad3627814cf6fb19ac2e43",
                        "sender" : "0xa94f5374fce5edbc8e2a8697c15331677e6ebf0b",
                        "to" : "0x1000000000000000000000000000000000000000",
                        "v" : "0x1b",
                        "value" : "0x00"
                    }
                ],
                "uncleHeaders" : [
                ],
                "withdrawals" : [
                ]
            }
        ],
        "config" : {
            "blobSchedule" : {
                "Prague" : {
                    "baseFeeUpdateFraction" : "0x4c6964",
                    "max" : "0x09",
                    "target" : "0x06"
                }
            },
            "chainid" : "0x01",
            "network" : "Prague"
        },
        "genesisBlockHeader" : {
            "baseFeePerGas" : "0x0b",
            "bloom" : "0x00000000000000000000000000000000000000000000000000000000000000000000000000000000000000000000000000000000000000000000000000000000000000000000000000000000000000000000000000000000000000000000000000000000000000000000000000000000000000000000000000000000000000000000000000000000000000000000000000000000000000000000000000000000000000000000000000000000000000000000000000000000000000000000000000000000000000000000000000000000000000000000000000000000000000000000000000000000000000000000000000000000000000000000000000000000",
            "coinbase" : "0x2adc25665018aa1fe0e6bc666dac8fc2697ff9ba",
            "extraData" : "0x00",
            "gasLimit" : "0x01c9c380",
            "gasUsed" : "0x00",
            "hash" : "0x8fd5c9e02b5bcd126c04c23b223c4294c4c20f5bb2cece84359f4e552ad28f22",
            "mixHash" : "0x0000000000000000000000000000000000000000000000000000000000020000",
            "nonce" : "0x0000000000000000",
            "number" : "0x00",
            "parentHash" : "0x0000000000000000000000000000000000000000000000000000000000000000",
            "receiptTrie" : "0x56e81f171bcc55a6ff8345e692c0f86e5b48e01b996cadc001622fb5e363b421",
            "requestsHash" : "0xe3b0c44298fc1c149afbf4c8996fb92427ae41e4649b934ca495991b7852b855",
            "stateRoot" : "0xc8bdc916a5a3f28154409d425742e2e19ead55cb5ec8d5a4e0a1e25059dff60b",
            "timestamp" : "0x00",
            "transactionsTrie" : "0x56e81f171bcc55a6ff8345e692c0f86e5b48e01b996cadc001622fb5e363b421",
            "withdrawalsRoot" : "0x56e81f171bcc55a6ff8345e692c0f86e5b48e01b996cadc001622fb5e363b421"
        },
        "genesisRLP" : "0xf90260f9025aa00000000000000000000000000000000000000000000000000000000000000000a01dcc4de8dec75d7aab85b567b6ccd41ad312451b948a7413f0a142fd40d49347942adc25665018aa1fe0e6bc666dac8fc2697ff9baa0c8bdc916a5a3f28154409d425742e2e19ead55cb5ec8d5a4e0a1e25059dff60ba056e81f171bcc55a6ff8345e692c0f86e5b48e01b996cadc001622fb5e363b421a056e81f171bcc55a6ff8345e692c0f86e5b48e01b996cadc001622fb5e363b421b901000000000000000000000000000000000000000000000000000000000000000000000000000000000000000000000000000000000000000000000000000000000000000000000000000000000000000000000000000000000000000000000000000000000000000000000000000000000000000000000000000000000000000000000000000000000000000000000000000000000000000000000000000000000000000000000000000000000000000000000000000000000000000000000000000000000000000000000000000000000000000000000000000000000000000000000000000000000000000000000000000000000000000000000000000000000080808401c9c380808000a000000000000000000000000000000000000000000000000000000000000200008800000000000000000ba056e81f171bcc55a6ff8345e692c0f86e5b48e01b996cadc001622fb5e363b4218083060000a00000000000000000000000000000000000000000000000000000000000000000a0e3b0c44298fc1c149afbf4c8996fb92427ae41e4649b934ca495991b7852b855c0c0c0",
        "lastblockhash" : "0xcf7429b66acac8bf9f1b8ab0fe8634b2df043a86baa2e457bb995c299aea3123",
        "network" : "Prague",
        "postState" : {
            "0x0000f90827f1c53a10cb7a02335b175320002935" : {
                "balance" : "0x00",
                "code" : "0x3373fffffffffffffffffffffffffffffffffffffffe14604657602036036042575f35600143038111604257611fff81430311604257611fff9006545f5260205ff35b5f5ffd5b5f35611fff60014303065500",
                "nonce" : "0x01",
                "storage" : {
                    "0x00" : "0x8fd5c9e02b5bcd126c04c23b223c4294c4c20f5bb2cece84359f4e552ad28f22"
                }
            },
            "0x000f3df6d732807ef1319fb7b8bb8522d0beac02" : {
                "balance" : "0x00",
                "code" : "0x3373fffffffffffffffffffffffffffffffffffffffe14604d57602036146024575f5ffd5b5f35801560495762001fff810690815414603c575f5ffd5b62001fff01545f5260205ff35b5f5ffd5b62001fff42064281555f359062001fff015500",
                "nonce" : "0x01",
                "storage" : {
                    "0x03e8" : "0x03e8"
                }
            },
            "0x1000000000000000000000000000000000000000" : {
                "balance" : "0x0de0b6b3a7640000",
                "code" : "0x604060006040600034731000000000000000000000000000000000000001620249f0f26000555a60015500",
                "nonce" : "0x00",
                "storage" : {
                    "0x00" : "0x01",
                    "0x01" : "0x2cf650"
                }
            },
            "0x1000000000000000000000000000000000000001" : {
                "balance" : "0x02540be400",
                "code" : "0x604060006040600034731000000000000000000000000000000000000002620186a0f200",
                "nonce" : "0x00",
                "storage" : {
                }
            },
            "0x1000000000000000000000000000000000000002" : {
                "balance" : "0x02540be400",
                "code" : "0x731000000000000000000000000000000000000000ff604060006040600073100000000000000000000000000000000000000361c350fa00",
                "nonce" : "0x00",
                "storage" : {
                }
            },
            "0x1000000000000000000000000000000000000003" : {
                "balance" : "0x02540be400",
                "code" : "0x600160035200",
                "nonce" : "0x00",
                "storage" : {
                }
            },
            "0xa94f5374fce5edbc8e2a8697c15331677e6ebf0b" : {
                "balance" : "0x0de0b6b3a7587c3a",
                "code" : "0x",
                "nonce" : "0x01",
                "storage" : {
                }
            }
        },
        "pre" : {
            "0x0000f90827f1c53a10cb7a02335b175320002935" : {
                "balance" : "0x00",
                "code" : "0x3373fffffffffffffffffffffffffffffffffffffffe14604657602036036042575f35600143038111604257611fff81430311604257611fff9006545f5260205ff35b5f5ffd5b5f35611fff60014303065500",
                "nonce" : "0x01",
                "storage" : {
                }
            },
            "0x000f3df6d732807ef1319fb7b8bb8522d0beac02" : {
                "balance" : "0x00",
                "code" : "0x3373fffffffffffffffffffffffffffffffffffffffe14604d57602036146024575f5ffd5b5f35801560495762001fff810690815414603c575f5ffd5b62001fff01545f5260205ff35b5f5ffd5b62001fff42064281555f359062001fff015500",
                "nonce" : "0x01",
                "storage" : {
                }
            },
            "0x1000000000000000000000000000000000000000" : {
                "balance" : "0x0de0b6b3a7640000",
                "code" : "0x604060006040600034731000000000000000000000000000000000000001620249f0f26000555a60015500",
                "nonce" : "0x00",
                "storage" : {
                }
            },
            "0x1000000000000000000000000000000000000001" : {
                "balance" : "0x02540be400",
                "code" : "0x604060006040600034731000000000000000000000000000000000000002620186a0f200",
                "nonce" : "0x00",
                "storage" : {
                }
            },
            "0x1000000000000000000000000000000000000002" : {
                "balance" : "0x02540be400",
                "code" : "0x731000000000000000000000000000000000000000ff604060006040600073100000000000000000000000000000000000000361c350fa00",
                "nonce" : "0x00",
                "storage" : {
                }
            },
            "0x1000000000000000000000000000000000000003" : {
                "balance" : "0x02540be400",
                "code" : "0x600160035200",
                "nonce" : "0x00",
                "storage" : {
                }
            },
            "0xa94f5374fce5edbc8e2a8697c15331677e6ebf0b" : {
                "balance" : "0x0de0b6b3a7640000",
                "code" : "0x",
                "nonce" : "0x00",
                "storage" : {
                }
            }
        },
        "sealEngine" : "NoProof"
    }
}