{
    "static_RETURN_Bounds_d0g0v0_Cancun" : {
        "_info" : {
            "comment" : "",
            "filling-rpc-server" : "evmone-t8n 0.14.0-13+commit.4d363c36",
            "filling-tool-version" : "retesteth-0.3.2-legacy+commit.ca7f4c79.Linux.g++",
            "fixture-format" : "blockchain_test",
            "generatedTestHash" : "fce91451af3e27ef34613f7c31e4769df6cf1362439e6648fff623b57978c978",
            "lllcversion" : "Version: 0.5.14-develop.2024.11.5+commit.b2b86751.mod.Linux.g++",
            "solidity" : "Version: 0.8.24+commit.e11b9ed9.Linux.g++",
            "source" : "src/GeneralStateTestsFiller/stStaticCall/static_RETURN_BoundsFiller.json",
            "sourceHash" : "d9e725c1d6ea6c00e6c305fdfa148cbb1b0f830d41c09bb1890abee1804cdbd3"
        },
        "blocks" : [
            {
                "blockHeader" : {
                    "baseFeePerGas" : "0x0a",
                    "blobGasUsed" : "0x00",
                    "bloom" : "0x00000000000000000000000000000000000000000000000000000000000000000000000000000000000000000000000000000000000000000000000000000000000000000000000000000000000000000000000000000000000000000000000000000000000000000000000000000000000000000000000000000000000000000000000000000000000000000000000000000000000000000000000000000000000000000000000000000000000000000000000000000000000000000000000000000000000000000000000000000000000000000000000000000000000000000000000000000000000000000000000000000000000000000000000000000000",
                    "coinbase" : "0x2adc25665018aa1fe0e6bc666dac8fc2697ff9ba",
                    "difficulty" : "0x00",
                    "excessBlobGas" : "0x00",
                    "extraData" : "0x00",
                    "gasLimit" : "0x7fffffffffffffff",
                    "gasUsed" : "0x05f9d0",
                    "hash" : "0x4484b11a9ea7e859cf219428198b6eaaf5bca647a872ffeaf6e8676e58f7328d",
                    "mixHash" : "0x0000000000000000000000000000000000000000000000000000000000020000",
                    "nonce" : "0x0000000000000000",
                    "number" : "0x01",
                    "parentBeaconBlockRoot" : "0x0000000000000000000000000000000000000000000000000000000000000000",
                    "parentHash" : "0x4820f56dc85dfef4dfa7dbbe4f2affdce124cd2f253cc2da93f11763e0ad70e7",
                    "receiptTrie" : "0x2afc92207afd66233c97a3947a40f65bdb20e748d499159bfd1e725613c48512",
                    "stateRoot" : "0xa986a831520c09ea55f67f40a00b3f6f6eb51041764f716eb2692e99e3cd9467",
                    "timestamp" : "0x03e8",
                    "transactionsTrie" : "0xa287dc3a52b7b16fc820d5b52b594dc5d05217bf157092eaae0d739ce0498846",
                    "uncleHash" : "0x1dcc4de8dec75d7aab85b567b6ccd41ad312451b948a7413f0a142fd40d49347",
                    "withdrawalsRoot" : "0x56e81f171bcc55a6ff8345e692c0f86e5b48e01b996cadc001622fb5e363b421"
                },
                "rlp" : "0xf902a8f9023fa04820f56dc85dfef4dfa7dbbe4f2affdce124cd2f253cc2da93f11763e0ad70e7a01dcc4de8dec75d7aab85b567b6ccd41ad312451b948a7413f0a142fd40d49347942adc25665018aa1fe0e6bc666dac8fc2697ff9baa0a986a831520c09ea55f67f40a00b3f6f6eb51041764f716eb2692e99e3cd9467a0a287dc3a52b7b16fc820d5b52b594dc5d05217bf157092eaae0d739ce0498846a02afc92207afd66233c97a3947a40f65bdb20e748d499159bfd1e725613c48512b90100000000000000000000000000000000000000000000000000000000000000000000000000000000000000000000000000000000000000000000000000000000000000000000000000000000000000000000000000000000000000000000000000000000000000000000000000000000000000000000000000000000000000000000000000000000000000000000000000000000000000000000000000000000000000000000000000000000000000000000000000000000000000000000000000000000000000000000000000000000000000000000000000000000000000000000000000000000000000000000000000000000000000000000000000000000008001887fffffffffffffff8305f9d08203e800a000000000000000000000000000000000000000000000000000000000000200008800000000000000000aa056e81f171bcc55a6ff8345e692c0f86e5b48e01b996cadc001622fb5e363b4218080a00000000000000000000000000000000000000000000000000000000000000000f862f860800a83e4e1c094100000000000000000000000000000000000000001801ca02e11c64679a2e918f62444a04a0ce6c97966543d24d6567a2ec61019821d00bda0576332402517902aacbb6871851a4e85bb970996109a78e10db30582decd03a8c0c0",
                "transactions" : [
                    {
                        "data" : "0x",
                        "gasLimit" : "0xe4e1c0",
                        "gasPrice" : "0x0a",
                        "nonce" : "0x00",
                        "r" : "0x2e11c64679a2e918f62444a04a0ce6c97966543d24d6567a2ec61019821d00bd",
                        "s" : "0x576332402517902aacbb6871851a4e85bb970996109a78e10db30582decd03a8",
                        "sender" : "0xa94f5374fce5edbc8e2a8697c15331677e6ebf0b",
                        "to" : "0x1000000000000000000000000000000000000000",
                        "v" : "0x1c",
                        "value" : "0x01"
                    }
                ],
                "uncleHeaders" : [
                ],
                "withdrawals" : [
                ]
            }
        ],
        "config" : {
            "blobSchedule" : {
                "Cancun" : {
                    "baseFeeUpdateFraction" : "0x32f0ed",
                    "max" : "0x06",
                    "target" : "0x03"
                }
            },
            "chainid" : "0x01",
            "network" : "Cancun"
        },
        "genesisBlockHeader" : {
            "baseFeePerGas" : "0x0b",
            "blobGasUsed" : "0x00",
            "bloom" : "0x00000000000000000000000000000000000000000000000000000000000000000000000000000000000000000000000000000000000000000000000000000000000000000000000000000000000000000000000000000000000000000000000000000000000000000000000000000000000000000000000000000000000000000000000000000000000000000000000000000000000000000000000000000000000000000000000000000000000000000000000000000000000000000000000000000000000000000000000000000000000000000000000000000000000000000000000000000000000000000000000000000000000000000000000000000000",
            "coinbase" : "0x2adc25665018aa1fe0e6bc666dac8fc2697ff9ba",
            "difficulty" : "0x00",
            "excessBlobGas" : "0x060000",
            "extraData" : "0x00",
            "gasLimit" : "0x7fffffffffffffff",
            "gasUsed" : "0x00",
            "hash" : "0x4820f56dc85dfef4dfa7dbbe4f2affdce124cd2f253cc2da93f11763e0ad70e7",
            "mixHash" : "0x0000000000000000000000000000000000000000000000000000000000020000",
            "nonce" : "0x0000000000000000",
            "number" : "0x00",
            "parentBeaconBlockRoot" : "0x0000000000000000000000000000000000000000000000000000000000000000",
            "parentHash" : "0x0000000000000000000000000000000000000000000000000000000000000000",
            "receiptTrie" : "0x56e81f171bcc55a6ff8345e692c0f86e5b48e01b996cadc001622fb5e363b421",
            "stateRoot" : "0x9292957e7bb820575ce86a608e05769fd4081fa8904839fb5be4224c1d8f1fdf",
            "timestamp" : "0x00",
            "transactionsTrie" : "0x56e81f171bcc55a6ff8345e692c0f86e5b48e01b996cadc001622fb5e363b421",
            "uncleHash" : "0x1dcc4de8dec75d7aab85b567b6ccd41ad312451b948a7413f0a142fd40d49347",
            "withdrawalsRoot" : "0x56e81f171bcc55a6ff8345e692c0f86e5b48e01b996cadc001622fb5e363b421"
        },
        "genesisRLP" : "0xf90243f9023da00000000000000000000000000000000000000000000000000000000000000000a01dcc4de8dec75d7aab85b567b6ccd41ad312451b948a7413f0a142fd40d49347942adc25665018aa1fe0e6bc666dac8fc2697ff9baa09292957e7bb820575ce86a608e05769fd4081fa8904839fb5be4224c1d8f1fdfa056e81f171bcc55a6ff8345e692c0f86e5b48e01b996cadc001622fb5e363b421a056e81f171bcc55a6ff8345e692c0f86e5b48e01b996cadc001622fb5e363b421b90100000000000000000000000000000000000000000000000000000000000000000000000000000000000000000000000000000000000000000000000000000000000000000000000000000000000000000000000000000000000000000000000000000000000000000000000000000000000000000000000000000000000000000000000000000000000000000000000000000000000000000000000000000000000000000000000000000000000000000000000000000000000000000000000000000000000000000000000000000000000000000000000000000000000000000000000000000000000000000000000000000000000000000000000000000000008080887fffffffffffffff808000a000000000000000000000000000000000000000000000000000000000000200008800000000000000000ba056e81f171bcc55a6ff8345e692c0f86e5b48e01b996cadc001622fb5e363b4218083060000a00000000000000000000000000000000000000000000000000000000000000000c0c0c0",
        "lastblockhash" : "0x4484b11a9ea7e859cf219428198b6eaaf5bca647a872ffeaf6e8676e58f7328d",
        "network" : "Cancun",
        "postState" : {
            "0x000f3df6d732807ef1319fb7b8bb8522d0beac02" : {
                "balance" : "0x00",
                "code" : "0x3373fffffffffffffffffffffffffffffffffffffffe14604d57602036146024575f5ffd5b5f35801560495762001fff810690815414603c575f5ffd5b62001fff01545f5260205ff35b5f5ffd5b62001fff42064281555f359062001fff015500",
                "nonce" : "0x01",
                "storage" : {
                    "0x03e8" : "0x03e8"
                }
            },
            "0x1000000000000000000000000000000000000000" : {
                "balance" : "0x01",
                "code" : "0x60006000600060007310000000000000000000000000000000000000016707fffffffffffffffa60015560006000600060007310000000000000000000000000000000000000026707fffffffffffffffa60025560006000600060007310000000000000000000000000000000000000036707fffffffffffffffa60035560006000600060007310000000000000000000000000000000000000046707fffffffffffffffa60045560006000600060007310000000000000000000000000000000000000056707fffffffffffffffa60055560006000600060007310000000000000000000000000000000000000066707fffffffffffffffa60065560006000600060007310000000000000000000000000000000000000066707fffffffffffffffa60075560006000600060007310000000000000000000000000000000000000066707fffffffffffffffa60085560006000600060007310000000000000000000000000000000000000066707fffffffffffffffa60095560006000600060007310000000000000000000000000000000000000066707fffffffffffffffa600a5560006000600060007310000000000000000000000000000000000000066707fffffffffffffffa600b5560006000600060007310000000000000000000000000000000000000066707fffffffffffffffa600c5560006000600060007310000000000000000000000000000000000000066707fffffffffffffffa600d5560006000600060007310000000000000000000000000000000000000066707fffffffffffffffa600e5560006000600060007310000000000000000000000000000000000000066707fffffffffffffffa600f5560006000600060007310000000000000000000000000000000000000066707fffffffffffffffa60105500",
                "nonce" : "0x00",
                "storage" : {
                    "0x01" : "0x01",
                    "0x02" : "0x01",
                    "0x03" : "0x01",
                    "0x04" : "0x01",
                    "0x05" : "0x01",
                    "0x06" : "0x01",
                    "0x07" : "0x01",
                    "0x08" : "0x01",
                    "0x09" : "0x01",
                    "0x0a" : "0x01",
                    "0x0b" : "0x01",
                    "0x0c" : "0x01",
                    "0x0d" : "0x01",
                    "0x0e" : "0x01",
                    "0x0f" : "0x01",
                    "0x10" : "0x01"
                }
            },
            "0x1000000000000000000000000000000000000001" : {
                "balance" : "0x00",
                "code" : "0x60006000f300",
                "nonce" : "0x00",
                "storage" : {
                }
            },
            "0x1000000000000000000000000000000000000002" : {
                "balance" : "0x00",
                "code" : "0x6000630ffffffff300",
                "nonce" : "0x00",
                "storage" : {
                }
            },
            "0x1000000000000000000000000000000000000003" : {
                "balance" : "0x00",
                "code" : "0x600063fffffffff300",
                "nonce" : "0x00",
                "storage" : {
                }
            },
            "0x1000000000000000000000000000000000000004" : {
                "balance" : "0x00",
                "code" : "0x600067fffffffffffffffff300",
                "nonce" : "0x00",
                "storage" : {
                }
            },
            "0x1000000000000000000000000000000000000005" : {
                "balance" : "0x00",
                "code" : "0x60006d0ffffffffffffffffffffffffffff300",
                "nonce" : "0x00",
                "storage" : {
                }
            },
            "0x1000000000000000000000000000000000000006" : {
                "balance" : "0x00",
                "code" : "0x60007ffffffffffffffffffffffffffffffffffffffffffffffffffffffffffffffffff300",
                "nonce" : "0x00",
                "storage" : {
                }
            },
            "0x1000000000000000000000000000000000000007" : {
                "balance" : "0x00",
                "code" : "0x630fffffff6000f300",
                "nonce" : "0x00",
                "storage" : {
                }
            },
            "0x1000000000000000000000000000000000000008" : {
                "balance" : "0x00",
                "code" : "0x63ffffffff6000f300",
                "nonce" : "0x00",
                "storage" : {
                }
            },
            "0x1000000000000000000000000000000000000009" : {
                "balance" : "0x00",
                "code" : "0x67ffffffffffffffff6000f300",
                "nonce" : "0x00",
                "storage" : {
                }
            },
            "0x1000000000000000000000000000000000000010" : {
                "balance" : "0x00",
                "code" : "0x6d0fffffffffffffffffffffffffff6000f300",
                "nonce" : "0x00",
                "storage" : {
                }
            },
            "0x1000000000000000000000000000000000000011" : {
                "balance" : "0x00",
                "code" : "0x7fffffffffffffffffffffffffffffffffffffffffffffffffffffffffffffffff6000f300",
                "nonce" : "0x00",
                "storage" : {
                }
            },
            "0x1000000000000000000000000000000000000012" : {
                "balance" : "0x00",
                "code" : "0x630fffffff630ffffffff300",
                "nonce" : "0x00",
                "storage" : {
                }
            },
            "0x1000000000000000000000000000000000000013" : {
                "balance" : "0x00",
                "code" : "0x63ffffffff63fffffffff300",
                "nonce" : "0x00",
                "storage" : {
                }
            },
            "0x1000000000000000000000000000000000000014" : {
                "balance" : "0x00",
                "code" : "0x67ffffffffffffffff67fffffffffffffffff300",
                "nonce" : "0x00",
                "storage" : {
                }
            },
            "0x1000000000000000000000000000000000000015" : {
                "balance" : "0x00",
                "code" : "0x6d0fffffffffffffffffffffffffff6d0ffffffffffffffffffffffffffff300",
                "nonce" : "0x00",
                "storage" : {
                }
            },
            "0x1000000000000000000000000000000000000016" : {
                "balance" : "0x00",
                "code" : "0x7fffffffffffffffffffffffffffffffffffffffffffffffffffffffffffffffff7ffffffffffffffffffffffffffffffffffffffffffffffffffffffffffffffffff300",
                "nonce" : "0x00",
                "storage" : {
                }
            },
            "0xa94f5374fce5edbc8e2a8697c15331677e6ebf0b" : {
                "balance" : "0xffffffffffffffffffffffffffffffffffffffffffffffffffffffffffc43dde",
                "code" : "0x",
                "nonce" : "0x01",
                "storage" : {
                }
            }
        },
        "pre" : {
            "0x000f3df6d732807ef1319fb7b8bb8522d0beac02" : {
                "balance" : "0x00",
                "code" : "0x3373fffffffffffffffffffffffffffffffffffffffe14604d57602036146024575f5ffd5b5f35801560495762001fff810690815414603c575f5ffd5b62001fff01545f5260205ff35b5f5ffd5b62001fff42064281555f359062001fff015500",
                "nonce" : "0x01",
                "storage" : {
                }
            },
            "0x1000000000000000000000000000000000000000" : {
                "balance" : "0x00",
                "code" : "0x60006000600060007310000000000000000000000000000000000000016707fffffffffffffffa60015560006000600060007310000000000000000000000000000000000000026707fffffffffffffffa60025560006000600060007310000000000000000000000000000000000000036707fffffffffffffffa60035560006000600060007310000000000000000000000000000000000000046707fffffffffffffffa60045560006000600060007310000000000000000000000000000000000000056707fffffffffffffffa60055560006000600060007310000000000000000000000000000000000000066707fffffffffffffffa60065560006000600060007310000000000000000000000000000000000000066707fffffffffffffffa60075560006000600060007310000000000000000000000000000000000000066707fffffffffffffffa60085560006000600060007310000000000000000000000000000000000000066707fffffffffffffffa60095560006000600060007310000000000000000000000000000000000000066707fffffffffffffffa600a5560006000600060007310000000000000000000000000000000000000066707fffffffffffffffa600b5560006000600060007310000000000000000000000000000000000000066707fffffffffffffffa600c5560006000600060007310000000000000000000000000000000000000066707fffffffffffffffa600d5560006000600060007310000000000000000000000000000000000000066707fffffffffffffffa600e5560006000600060007310000000000000000000000000000000000000066707fffffffffffffffa600f5560006000600060007310000000000000000000000000000000000000066707fffffffffffffffa60105500",
                "nonce" : "0x00",
                "storage" : {
                }
            },
            "0x1000000000000000000000000000000000000001" : {
                "balance" : "0x00",
                "code" : "0x60006000f300",
                "nonce" : "0x00",
                "storage" : {
                }
            },
            "0x1000000000000000000000000000000000000002" : {
                "balance" : "0x00",
                "code" : "0x6000630ffffffff300",
                "nonce" : "0x00",
                "storage" : {
                }
            },
            "0x1000000000000000000000000000000000000003" : {
                "balance" : "0x00",
                "code" : "0x600063fffffffff300",
                "nonce" : "0x00",
                "storage" : {
                }
            },
            "0x1000000000000000000000000000000000000004" : {
                "balance" : "0x00",
                "code" : "0x600067fffffffffffffffff300",
                "nonce" : "0x00",
                "storage" : {
                }
            },
            "0x1000000000000000000000000000000000000005" : {
                "balance" : "0x00",
                "code" : "0x60006d0ffffffffffffffffffffffffffff300",
                "nonce" : "0x00",
                "storage" : {
                }
            },
            "0x1000000000000000000000000000000000000006" : {
                "balance" : "0x00",
                "code" : "0x60007ffffffffffffffffffffffffffffffffffffffffffffffffffffffffffffffffff300",
                "nonce" : "0x00",
                "storage" : {
                }
            },
            "0x1000000000000000000000000000000000000007" : {
                "balance" : "0x00",
                "code" : "0x630fffffff6000f300",
                "nonce" : "0x00",
                "storage" : {
                }
            },
            "0x1000000000000000000000000000000000000008" : {
                "balance" : "0x00",
                "code" : "0x63ffffffff6000f300",
                "nonce" : "0x00",
                "storage" : {
                }
            },
            "0x1000000000000000000000000000000000000009" : {
                "balance" : "0x00",
                "code" : "0x67ffffffffffffffff6000f300",
                "nonce" : "0x00",
                "storage" : {
                }
            },
            "0x1000000000000000000000000000000000000010" : {
                "balance" : "0x00",
                "code" : "0x6d0fffffffffffffffffffffffffff6000f300",
                "nonce" : "0x00",
                "storage" : {
                }
            },
            "0x1000000000000000000000000000000000000011" : {
                "balance" : "0x00",
                "code" : "0x7fffffffffffffffffffffffffffffffffffffffffffffffffffffffffffffffff6000f300",
                "nonce" : "0x00",
                "storage" : {
                }
            },
            "0x1000000000000000000000000000000000000012" : {
                "balance" : "0x00",
                "code" : "0x630fffffff630ffffffff300",
                "nonce" : "0x00",
                "storage" : {
                }
            },
            "0x1000000000000000000000000000000000000013" : {
                "balance" : "0x00",
                "code" : "0x63ffffffff63fffffffff300",
                "nonce" : "0x00",
                "storage" : {
                }
            },
            "0x1000000000000000000000000000000000000014" : {
                "balance" : "0x00",
                "code" : "0x67ffffffffffffffff67fffffffffffffffff300",
                "nonce" : "0x00",
                "storage" : {
                }
            },
            "0x1000000000000000000000000000000000000015" : {
                "balance" : "0x00",
                "code" : "0x6d0fffffffffffffffffffffffffff6d0ffffffffffffffffffffffffffff300",
                "nonce" : "0x00",
                "storage" : {
                }
            },
            "0x1000000000000000000000000000000000000016" : {
                "balance" : "0x00",
                "code" : "0x7fffffffffffffffffffffffffffffffffffffffffffffffffffffffffffffffff7ffffffffffffffffffffffffffffffffffffffffffffffffffffffffffffffffff300",
                "nonce" : "0x00",
                "storage" : {
                }
            },
            "0xa94f5374fce5edbc8e2a8697c15331677e6ebf0b" : {
                "balance" : "0xffffffffffffffffffffffffffffffffffffffffffffffffffffffffffffffff",
                "code" : "0x",
                "nonce" : "0x00",
                "storage" : {
                }
            }
        },
        "sealEngine" : "NoProof"
    },
    "static_RETURN_Bounds_d0g0v0_Prague" : {
        "_info" : {
            "comment" : "",
            "filling-rpc-server" : "evmone-t8n 0.14.0-13+commit.4d363c36",
            "filling-tool-version" : "retesteth-0.3.2-legacy+commit.ca7f4c79.Linux.g++",
            "fixture-format" : "blockchain_test",
            "generatedTestHash" : "5dc3bc3002468d495dbb112586cf0b9a5900f9770b09c43fe0d4fbbf79660b11",
            "lllcversion" : "Version: 0.5.14-develop.2024.11.5+commit.b2b86751.mod.Linux.g++",
            "solidity" : "Version: 0.8.24+commit.e11b9ed9.Linux.g++",
            "source" : "src/GeneralStateTestsFiller/stStaticCall/static_RETURN_BoundsFiller.json",
            "sourceHash" : "d9e725c1d6ea6c00e6c305fdfa148cbb1b0f830d41c09bb1890abee1804cdbd3"
        },
        "blocks" : [
            {
                "blockHeader" : {
                    "baseFeePerGas" : "0x0a",
                    "blobGasUsed" : "0x00",
                    "bloom" : "0x00000000000000000000000000000000000000000000000000000000000000000000000000000000000000000000000000000000000000000000000000000000000000000000000000000000000000000000000000000000000000000000000000000000000000000000000000000000000000000000000000000000000000000000000000000000000000000000000000000000000000000000000000000000000000000000000000000000000000000000000000000000000000000000000000000000000000000000000000000000000000000000000000000000000000000000000000000000000000000000000000000000000000000000000000000000",
                    "coinbase" : "0x2adc25665018aa1fe0e6bc666dac8fc2697ff9ba",
                    "difficulty" : "0x00",
                    "excessBlobGas" : "0x00",
                    "extraData" : "0x00",
                    "gasLimit" : "0x7fffffffffffffff",
                    "gasUsed" : "0x05f9d0",
                    "hash" : "0x2fb7879837232da4087409827bbbb84680a8f7fbf0fcc1cb0a671290912e6840",
                    "mixHash" : "0x0000000000000000000000000000000000000000000000000000000000020000",
                    "nonce" : "0x0000000000000000",
                    "number" : "0x01",
                    "parentBeaconBlockRoot" : "0x0000000000000000000000000000000000000000000000000000000000000000",
                    "parentHash" : "0x1422438f98c90459ae1d4fcd5db3688d1746969116c84ce6de02799fc997e991",
                    "receiptTrie" : "0x2afc92207afd66233c97a3947a40f65bdb20e748d499159bfd1e725613c48512",
                    "requestsHash" : "0xe3b0c44298fc1c149afbf4c8996fb92427ae41e4649b934ca495991b7852b855",
                    "stateRoot" : "0x58654f6c669cad6e87b327fcb84d78b2b9bd08ae8dce669f3cb09429e25d3817",
                    "timestamp" : "0x03e8",
                    "transactionsTrie" : "0xa287dc3a52b7b16fc820d5b52b594dc5d05217bf157092eaae0d739ce0498846",
                    "uncleHash" : "0x1dcc4de8dec75d7aab85b567b6ccd41ad312451b948a7413f0a142fd40d49347",
                    "withdrawalsRoot" : "0x56e81f171bcc55a6ff8345e692c0f86e5b48e01b996cadc001622fb5e363b421"
                },
                "rlp" : "0xf902c9f90260a01422438f98c90459ae1d4fcd5db3688d1746969116c84ce6de02799fc997e991a01dcc4de8dec75d7aab85b567b6ccd41ad312451b948a7413f0a142fd40d49347942adc25665018aa1fe0e6bc666dac8fc2697ff9baa058654f6c669cad6e87b327fcb84d78b2b9bd08ae8dce669f3cb09429e25d3817a0a287dc3a52b7b16fc820d5b52b594dc5d05217bf157092eaae0d739ce0498846a02afc92207afd66233c97a3947a40f65bdb20e748d499159bfd1e725613c48512b90100000000000000000000000000000000000000000000000000000000000000000000000000000000000000000000000000000000000000000000000000000000000000000000000000000000000000000000000000000000000000000000000000000000000000000000000000000000000000000000000000000000000000000000000000000000000000000000000000000000000000000000000000000000000000000000000000000000000000000000000000000000000000000000000000000000000000000000000000000000000000000000000000000000000000000000000000000000000000000000000000000000000000000000000000000000008001887fffffffffffffff8305f9d08203e800a000000000000000000000000000000000000000000000000000000000000200008800000000000000000aa056e81f171bcc55a6ff8345e692c0f86e5b48e01b996cadc001622fb5e363b4218080a00000000000000000000000000000000000000000000000000000000000000000a0e3b0c44298fc1c149afbf4c8996fb92427ae41e4649b934ca495991b7852b855f862f860800a83e4e1c094100000000000000000000000000000000000000001801ca02e11c64679a2e918f62444a04a0ce6c97966543d24d6567a2ec61019821d00bda0576332402517902aacbb6871851a4e85bb970996109a78e10db30582decd03a8c0c0",
                "transactions" : [
                    {
                        "data" : "0x",
                        "gasLimit" : "0xe4e1c0",
                        "gasPrice" : "0x0a",
                        "nonce" : "0x00",
                        "r" : "0x2e11c64679a2e918f62444a04a0ce6c97966543d24d6567a2ec61019821d00bd",
                        "s" : "0x576332402517902aacbb6871851a4e85bb970996109a78e10db30582decd03a8",
                        "sender" : "0xa94f5374fce5edbc8e2a8697c15331677e6ebf0b",
                        "to" : "0x1000000000000000000000000000000000000000",
                        "v" : "0x1c",
                        "value" : "0x01"
                    }
                ],
                "uncleHeaders" : [
                ],
                "withdrawals" : [
                ]
            }
        ],
        "config" : {
            "blobSchedule" : {
                "Prague" : {
                    "baseFeeUpdateFraction" : "0x4c6964",
                    "max" : "0x09",
                    "target" : "0x06"
                }
            },
            "chainid" : "0x01",
            "network" : "Prague"
        },
        "genesisBlockHeader" : {
            "baseFeePerGas" : "0x0b",
            "blobGasUsed" : "0x00",
            "bloom" : "0x00000000000000000000000000000000000000000000000000000000000000000000000000000000000000000000000000000000000000000000000000000000000000000000000000000000000000000000000000000000000000000000000000000000000000000000000000000000000000000000000000000000000000000000000000000000000000000000000000000000000000000000000000000000000000000000000000000000000000000000000000000000000000000000000000000000000000000000000000000000000000000000000000000000000000000000000000000000000000000000000000000000000000000000000000000000",
            "coinbase" : "0x2adc25665018aa1fe0e6bc666dac8fc2697ff9ba",
            "difficulty" : "0x00",
            "excessBlobGas" : "0x060000",
            "extraData" : "0x00",
            "gasLimit" : "0x7fffffffffffffff",
            "gasUsed" : "0x00",
            "hash" : "0x1422438f98c90459ae1d4fcd5db3688d1746969116c84ce6de02799fc997e991",
            "mixHash" : "0x0000000000000000000000000000000000000000000000000000000000020000",
            "nonce" : "0x0000000000000000",
            "number" : "0x00",
            "parentBeaconBlockRoot" : "0x0000000000000000000000000000000000000000000000000000000000000000",
            "parentHash" : "0x0000000000000000000000000000000000000000000000000000000000000000",
            "receiptTrie" : "0x56e81f171bcc55a6ff8345e692c0f86e5b48e01b996cadc001622fb5e363b421",
            "requestsHash" : "0xe3b0c44298fc1c149afbf4c8996fb92427ae41e4649b934ca495991b7852b855",
            "stateRoot" : "0x1ac2d5436497514f917a02579056e467e624c98b902dcb0e748542c441486e66",
            "timestamp" : "0x00",
            "transactionsTrie" : "0x56e81f171bcc55a6ff8345e692c0f86e5b48e01b996cadc001622fb5e363b421",
            "uncleHash" : "0x1dcc4de8dec75d7aab85b567b6ccd41ad312451b948a7413f0a142fd40d49347",
            "withdrawalsRoot" : "0x56e81f171bcc55a6ff8345e692c0f86e5b48e01b996cadc001622fb5e363b421"
        },
        "genesisRLP" : "0xf90264f9025ea00000000000000000000000000000000000000000000000000000000000000000a01dcc4de8dec75d7aab85b567b6ccd41ad312451b948a7413f0a142fd40d49347942adc25665018aa1fe0e6bc666dac8fc2697ff9baa01ac2d5436497514f917a02579056e467e624c98b902dcb0e748542c441486e66a056e81f171bcc55a6ff8345e692c0f86e5b48e01b996cadc001622fb5e363b421a056e81f171bcc55a6ff8345e692c0f86e5b48e01b996cadc001622fb5e363b421b90100000000000000000000000000000000000000000000000000000000000000000000000000000000000000000000000000000000000000000000000000000000000000000000000000000000000000000000000000000000000000000000000000000000000000000000000000000000000000000000000000000000000000000000000000000000000000000000000000000000000000000000000000000000000000000000000000000000000000000000000000000000000000000000000000000000000000000000000000000000000000000000000000000000000000000000000000000000000000000000000000000000000000000000000000000000008080887fffffffffffffff808000a000000000000000000000000000000000000000000000000000000000000200008800000000000000000ba056e81f171bcc55a6ff8345e692c0f86e5b48e01b996cadc001622fb5e363b4218083060000a00000000000000000000000000000000000000000000000000000000000000000a0e3b0c44298fc1c149afbf4c8996fb92427ae41e4649b934ca495991b7852b855c0c0c0",
        "lastblockhash" : "0x2fb7879837232da4087409827bbbb84680a8f7fbf0fcc1cb0a671290912e6840",
        "network" : "Prague",
        "postState" : {
            "0x0000f90827f1c53a10cb7a02335b175320002935" : {
                "balance" : "0x00",
                "code" : "0x3373fffffffffffffffffffffffffffffffffffffffe14604657602036036042575f35600143038111604257611fff81430311604257611fff9006545f5260205ff35b5f5ffd5b5f35611fff60014303065500",
                "nonce" : "0x01",
                "storage" : {
                    "0x00" : "0x1422438f98c90459ae1d4fcd5db3688d1746969116c84ce6de02799fc997e991"
                }
            },
            "0x000f3df6d732807ef1319fb7b8bb8522d0beac02" : {
                "balance" : "0x00",
                "code" : "0x3373fffffffffffffffffffffffffffffffffffffffe14604d57602036146024575f5ffd5b5f35801560495762001fff810690815414603c575f5ffd5b62001fff01545f5260205ff35b5f5ffd5b62001fff42064281555f359062001fff015500",
                "nonce" : "0x01",
                "storage" : {
                    "0x03e8" : "0x03e8"
                }
            },
            "0x1000000000000000000000000000000000000000" : {
                "balance" : "0x01",
                "code" : "0x60006000600060007310000000000000000000000000000000000000016707fffffffffffffffa60015560006000600060007310000000000000000000000000000000000000026707fffffffffffffffa60025560006000600060007310000000000000000000000000000000000000036707fffffffffffffffa60035560006000600060007310000000000000000000000000000000000000046707fffffffffffffffa60045560006000600060007310000000000000000000000000000000000000056707fffffffffffffffa60055560006000600060007310000000000000000000000000000000000000066707fffffffffffffffa60065560006000600060007310000000000000000000000000000000000000066707fffffffffffffffa60075560006000600060007310000000000000000000000000000000000000066707fffffffffffffffa60085560006000600060007310000000000000000000000000000000000000066707fffffffffffffffa60095560006000600060007310000000000000000000000000000000000000066707fffffffffffffffa600a5560006000600060007310000000000000000000000000000000000000066707fffffffffffffffa600b5560006000600060007310000000000000000000000000000000000000066707fffffffffffffffa600c5560006000600060007310000000000000000000000000000000000000066707fffffffffffffffa600d5560006000600060007310000000000000000000000000000000000000066707fffffffffffffffa600e5560006000600060007310000000000000000000000000000000000000066707fffffffffffffffa600f5560006000600060007310000000000000000000000000000000000000066707fffffffffffffffa60105500",
                "nonce" : "0x00",
                "storage" : {
                    "0x01" : "0x01",
                    "0x02" : "0x01",
                    "0x03" : "0x01",
                    "0x04" : "0x01",
                    "0x05" : "0x01",
                    "0x06" : "0x01",
                    "0x07" : "0x01",
                    "0x08" : "0x01",
                    "0x09" : "0x01",
                    "0x0a" : "0x01",
                    "0x0b" : "0x01",
                    "0x0c" : "0x01",
                    "0x0d" : "0x01",
                    "0x0e" : "0x01",
                    "0x0f" : "0x01",
                    "0x10" : "0x01"
                }
            },
            "0x1000000000000000000000000000000000000001" : {
                "balance" : "0x00",
                "code" : "0x60006000f300",
                "nonce" : "0x00",
                "storage" : {
                }
            },
            "0x1000000000000000000000000000000000000002" : {
                "balance" : "0x00",
                "code" : "0x6000630ffffffff300",
                "nonce" : "0x00",
                "storage" : {
                }
            },
            "0x1000000000000000000000000000000000000003" : {
                "balance" : "0x00",
                "code" : "0x600063fffffffff300",
                "nonce" : "0x00",
                "storage" : {
                }
            },
            "0x1000000000000000000000000000000000000004" : {
                "balance" : "0x00",
                "code" : "0x600067fffffffffffffffff300",
                "nonce" : "0x00",
                "storage" : {
                }
            },
            "0x1000000000000000000000000000000000000005" : {
                "balance" : "0x00",
                "code" : "0x60006d0ffffffffffffffffffffffffffff300",
                "nonce" : "0x00",
                "storage" : {
                }
            },
            "0x1000000000000000000000000000000000000006" : {
                "balance" : "0x00",
                "code" : "0x60007ffffffffffffffffffffffffffffffffffffffffffffffffffffffffffffffffff300",
                "nonce" : "0x00",
                "storage" : {
                }
            },
            "0x1000000000000000000000000000000000000007" : {
                "balance" : "0x00",
                "code" : "0x630fffffff6000f300",
                "nonce" : "0x00",
                "storage" : {
                }
            },
            "0x1000000000000000000000000000000000000008" : {
                "balance" : "0x00",
                "code" : "0x63ffffffff6000f300",
                "nonce" : "0x00",
                "storage" : {
                }
            },
            "0x1000000000000000000000000000000000000009" : {
                "balance" : "0x00",
                "code" : "0x67ffffffffffffffff6000f300",
                "nonce" : "0x00",
                "storage" : {
                }
            },
            "0x1000000000000000000000000000000000000010" : {
                "balance" : "0x00",
                "code" : "0x6d0fffffffffffffffffffffffffff6000f300",
                "nonce" : "0x00",
                "storage" : {
                }
            },
            "0x1000000000000000000000000000000000000011" : {
                "balance" : "0x00",
                "code" : "0x7fffffffffffffffffffffffffffffffffffffffffffffffffffffffffffffffff6000f300",
                "nonce" : "0x00",
                "storage" : {
                }
            },
            "0x1000000000000000000000000000000000000012" : {
                "balance" : "0x00",
                "code" : "0x630fffffff630ffffffff300",
                "nonce" : "0x00",
                "storage" : {
                }
            },
            "0x1000000000000000000000000000000000000013" : {
                "balance" : "0x00",
                "code" : "0x63ffffffff63fffffffff300",
                "nonce" : "0x00",
                "storage" : {
                }
            },
            "0x1000000000000000000000000000000000000014" : {
                "balance" : "0x00",
                "code" : "0x67ffffffffffffffff67fffffffffffffffff300",
                "nonce" : "0x00",
                "storage" : {
                }
            },
            "0x1000000000000000000000000000000000000015" : {
                "balance" : "0x00",
                "code" : "0x6d0fffffffffffffffffffffffffff6d0ffffffffffffffffffffffffffff300",
                "nonce" : "0x00",
                "storage" : {
                }
            },
            "0x1000000000000000000000000000000000000016" : {
                "balance" : "0x00",
                "code" : "0x7fffffffffffffffffffffffffffffffffffffffffffffffffffffffffffffffff7ffffffffffffffffffffffffffffffffffffffffffffffffffffffffffffffffff300",
                "nonce" : "0x00",
                "storage" : {
                }
            },
            "0xa94f5374fce5edbc8e2a8697c15331677e6ebf0b" : {
                "balance" : "0xffffffffffffffffffffffffffffffffffffffffffffffffffffffffffc43dde",
                "code" : "0x",
                "nonce" : "0x01",
                "storage" : {
                }
            }
        },
        "pre" : {
            "0x0000f90827f1c53a10cb7a02335b175320002935" : {
                "balance" : "0x00",
                "code" : "0x3373fffffffffffffffffffffffffffffffffffffffe14604657602036036042575f35600143038111604257611fff81430311604257611fff9006545f5260205ff35b5f5ffd5b5f35611fff60014303065500",
                "nonce" : "0x01",
                "storage" : {
                }
            },
            "0x000f3df6d732807ef1319fb7b8bb8522d0beac02" : {
                "balance" : "0x00",
                "code" : "0x3373fffffffffffffffffffffffffffffffffffffffe14604d57602036146024575f5ffd5b5f35801560495762001fff810690815414603c575f5ffd5b62001fff01545f5260205ff35b5f5ffd5b62001fff42064281555f359062001fff015500",
                "nonce" : "0x01",
                "storage" : {
                }
            },
            "0x1000000000000000000000000000000000000000" : {
                "balance" : "0x00",
                "code" : "0x60006000600060007310000000000000000000000000000000000000016707fffffffffffffffa60015560006000600060007310000000000000000000000000000000000000026707fffffffffffffffa60025560006000600060007310000000000000000000000000000000000000036707fffffffffffffffa60035560006000600060007310000000000000000000000000000000000000046707fffffffffffffffa60045560006000600060007310000000000000000000000000000000000000056707fffffffffffffffa60055560006000600060007310000000000000000000000000000000000000066707fffffffffffffffa60065560006000600060007310000000000000000000000000000000000000066707fffffffffffffffa60075560006000600060007310000000000000000000000000000000000000066707fffffffffffffffa60085560006000600060007310000000000000000000000000000000000000066707fffffffffffffffa60095560006000600060007310000000000000000000000000000000000000066707fffffffffffffffa600a5560006000600060007310000000000000000000000000000000000000066707fffffffffffffffa600b5560006000600060007310000000000000000000000000000000000000066707fffffffffffffffa600c5560006000600060007310000000000000000000000000000000000000066707fffffffffffffffa600d5560006000600060007310000000000000000000000000000000000000066707fffffffffffffffa600e5560006000600060007310000000000000000000000000000000000000066707fffffffffffffffa600f5560006000600060007310000000000000000000000000000000000000066707fffffffffffffffa60105500",
                "nonce" : "0x00",
                "storage" : {
                }
            },
            "0x1000000000000000000000000000000000000001" : {
                "balance" : "0x00",
                "code" : "0x60006000f300",
                "nonce" : "0x00",
                "storage" : {
                }
            },
            "0x1000000000000000000000000000000000000002" : {
                "balance" : "0x00",
                "code" : "0x6000630ffffffff300",
                "nonce" : "0x00",
                "storage" : {
                }
            },
            "0x1000000000000000000000000000000000000003" : {
                "balance" : "0x00",
                "code" : "0x600063fffffffff300",
                "nonce" : "0x00",
                "storage" : {
                }
            },
            "0x1000000000000000000000000000000000000004" : {
                "balance" : "0x00",
                "code" : "0x600067fffffffffffffffff300",
                "nonce" : "0x00",
                "storage" : {
                }
            },
            "0x1000000000000000000000000000000000000005" : {
                "balance" : "0x00",
                "code" : "0x60006d0ffffffffffffffffffffffffffff300",
                "nonce" : "0x00",
                "storage" : {
                }
            },
            "0x1000000000000000000000000000000000000006" : {
                "balance" : "0x00",
                "code" : "0x60007ffffffffffffffffffffffffffffffffffffffffffffffffffffffffffffffffff300",
                "nonce" : "0x00",
                "storage" : {
                }
            },
            "0x1000000000000000000000000000000000000007" : {
                "balance" : "0x00",
                "code" : "0x630fffffff6000f300",
                "nonce" : "0x00",
                "storage" : {
                }
            },
            "0x1000000000000000000000000000000000000008" : {
                "balance" : "0x00",
                "code" : "0x63ffffffff6000f300",
                "nonce" : "0x00",
                "storage" : {
                }
            },
            "0x1000000000000000000000000000000000000009" : {
                "balance" : "0x00",
                "code" : "0x67ffffffffffffffff6000f300",
                "nonce" : "0x00",
                "storage" : {
                }
            },
            "0x1000000000000000000000000000000000000010" : {
                "balance" : "0x00",
                "code" : "0x6d0fffffffffffffffffffffffffff6000f300",
                "nonce" : "0x00",
                "storage" : {
                }
            },
            "0x1000000000000000000000000000000000000011" : {
                "balance" : "0x00",
                "code" : "0x7fffffffffffffffffffffffffffffffffffffffffffffffffffffffffffffffff6000f300",
                "nonce" : "0x00",
                "storage" : {
                }
            },
            "0x1000000000000000000000000000000000000012" : {
                "balance" : "0x00",
                "code" : "0x630fffffff630ffffffff300",
                "nonce" : "0x00",
                "storage" : {
                }
            },
            "0x1000000000000000000000000000000000000013" : {
                "balance" : "0x00",
                "code" : "0x63ffffffff63fffffffff300",
                "nonce" : "0x00",
                "storage" : {
                }
            },
            "0x1000000000000000000000000000000000000014" : {
                "balance" : "0x00",
                "code" : "0x67ffffffffffffffff67fffffffffffffffff300",
                "nonce" : "0x00",
                "storage" : {
                }
            },
            "0x1000000000000000000000000000000000000015" : {
                "balance" : "0x00",
                "code" : "0x6d0fffffffffffffffffffffffffff6d0ffffffffffffffffffffffffffff300",
                "nonce" : "0x00",
                "storage" : {
                }
            },
            "0x1000000000000000000000000000000000000016" : {
                "balance" : "0x00",
                "code" : "0x7fffffffffffffffffffffffffffffffffffffffffffffffffffffffffffffffff7ffffffffffffffffffffffffffffffffffffffffffffffffffffffffffffffffff300",
                "nonce" : "0x00",
                "storage" : {
                }
            },
            "0xa94f5374fce5edbc8e2a8697c15331677e6ebf0b" : {
                "balance" : "0xffffffffffffffffffffffffffffffffffffffffffffffffffffffffffffffff",
                "code" : "0x",
                "nonce" : "0x00",
                "storage" : {
                }
            }
        },
        "sealEngine" : "NoProof"
    }
}