{
    "static_Call50000_identity2_d0g0v0_Cancun" : {
        "_info" : {
            "comment" : "",
            "filling-rpc-server" : "evmone-t8n 0.14.0-13+commit.4d363c36",
            "filling-tool-version" : "retesteth-0.3.2-legacy+commit.ca7f4c79.Linux.g++",
            "fixture-format" : "blockchain_test",
            "generatedTestHash" : "070ae332a3b29d5409ff4499d4c3f8220ab4be177140269300d4a979ef8ba5c4",
            "lllcversion" : "Version: 0.5.14-develop.2024.11.5+commit.b2b86751.mod.Linux.g++",
            "hyperion" : "Version: 0.8.24+commit.e11b9ed9.Linux.g++",
            "source" : "src/GeneralStateTestsFiller/stStaticCall/static_Call50000_identity2Filler.json",
            "sourceHash" : "bb83d7bb51b5b2ab8d30a27ab18acc15ed11be9a4d5829657c831ce6f3a72478"
        },
        "blocks" : [
            {
                "blockHeader" : {
                    "baseFeePerGas" : "0x0a",
                    "bloom" : "0x00000000000000000000000000000000000000000000000000000000000000000000000000000000000000000000000000000000000000000000000000000000000000000000000000000000000000000000000000000000000000000000000000000000000000000000000000000000000000000000000000000000000000000000000000000000000000000000000000000000000000000000000000000000000000000000000000000000000000000000000000000000000000000000000000000000000000000000000000000000000000000000000000000000000000000000000000000000000000000000000000000000000000000000000000000000",
                    "coinbase" : "0xb94f5374fce5edbc8e2a8697c15331677e6ebf0b",
                    "extraData" : "0x00",
                    "gasLimit" : "0x0213f8b140",
                    "gasUsed" : "0x0580178c",
                    "hash" : "0xa19336b60fa8a5385fe41206bed9d52dc60ec2f1605434ef4beded75677d4140",
                    "mixHash" : "0x0000000000000000000000000000000000000000000000000000000000020000",
                    "nonce" : "0x0000000000000000",
                    "number" : "0x01",
                    "parentHash" : "0x423b54f4dae4f69022fa1d8f3944dcb259eebfccdf23f1b67cbb5b219a261ce6",
                    "receiptTrie" : "0xb75c0967fe60f61e608a76420de5afbd85d03a4c7bf329e96de855ebe5f708a6",
                    "stateRoot" : "0x31861fb91aa4c408c09dabb54164f43fd974e80c8f64d740e164f3f8f5f9b0cb",
                    "timestamp" : "0x03e8",
                    "transactionsTrie" : "0x51f2183e74b357f1f8db731439086da509791705f2379faba9804be06f70ebcf",
                    "withdrawalsRoot" : "0x56e81f171bcc55a6ff8345e692c0f86e5b48e01b996cadc001622fb5e363b421"
                },
                "rlp" : "0xf902c7f9023da0423b54f4dae4f69022fa1d8f3944dcb259eebfccdf23f1b67cbb5b219a261ce6a01dcc4de8dec75d7aab85b567b6ccd41ad312451b948a7413f0a142fd40d4934794b94f5374fce5edbc8e2a8697c15331677e6ebf0ba031861fb91aa4c408c09dabb54164f43fd974e80c8f64d740e164f3f8f5f9b0cba051f2183e74b357f1f8db731439086da509791705f2379faba9804be06f70ebcfa0b75c0967fe60f61e608a76420de5afbd85d03a4c7bf329e96de855ebe5f708a6b90100000000000000000000000000000000000000000000000000000000000000000000000000000000000000000000000000000000000000000000000000000000000000000000000000000000000000000000000000000000000000000000000000000000000000000000000000000000000000000000000000000000000000000000000000000000000000000000000000000000000000000000000000000000000000000000000000000000000000000000000000000000000000000000000000000000000000000000000000000000000000000000000000000000000000000000000000000000000000000000000000000000000000000000000000000000008001850213f8b140840580178c8203e800a000000000000000000000000000000000000000000000000000000000000200008800000000000000000aa056e81f171bcc55a6ff8345e692c0f86e5b48e01b996cadc001622fb5e363b4218080a00000000000000000000000000000000000000000000000000000000000000000f883f881800a843499e1a09410000000000000000000000000000000000000000aa0000000000000000000000000bbbf5374fce5edbc8e2a8697c15331677e6ebf0b1ca074b14a7e04e816067f045836e9e8f857a97945e67bb6a5bc9255b170da2ee078a03c74db129e0d6de7c7b55e539c7c7755fdb7332868294e1a71af32aa28739624c0c0",
                "transactions" : [
                    {
                        "data" : "0x000000000000000000000000bbbf5374fce5edbc8e2a8697c15331677e6ebf0b",
                        "gasLimit" : "0x3499e1a0",
                        "gasPrice" : "0x0a",
                        "nonce" : "0x00",
                        "r" : "0x74b14a7e04e816067f045836e9e8f857a97945e67bb6a5bc9255b170da2ee078",
                        "s" : "0x3c74db129e0d6de7c7b55e539c7c7755fdb7332868294e1a71af32aa28739624",
                        "sender" : "0xa94f5374fce5edbc8e2a8697c15331677e6ebf0b",
                        "to" : "0x1000000000000000000000000000000000000000",
                        "v" : "0x1c",
                        "value" : "0x0a"
                    }
                ],

                "withdrawals" : [
                ]
            }
        ],
        "config" : {
            "blobSchedule" : {
                "Cancun" : {
                    "baseFeeUpdateFraction" : "0x32f0ed",
                    "max" : "0x06",
                    "target" : "0x03"
                }
            },
            "chainid" : "0x01",
            "network" : "Cancun"
        },
        "genesisBlockHeader" : {
            "baseFeePerGas" : "0x0b",
            "bloom" : "0x00000000000000000000000000000000000000000000000000000000000000000000000000000000000000000000000000000000000000000000000000000000000000000000000000000000000000000000000000000000000000000000000000000000000000000000000000000000000000000000000000000000000000000000000000000000000000000000000000000000000000000000000000000000000000000000000000000000000000000000000000000000000000000000000000000000000000000000000000000000000000000000000000000000000000000000000000000000000000000000000000000000000000000000000000000000",
            "coinbase" : "0xb94f5374fce5edbc8e2a8697c15331677e6ebf0b",
            "extraData" : "0x00",
            "gasLimit" : "0x0213f8b140",
            "gasUsed" : "0x00",
            "hash" : "0x423b54f4dae4f69022fa1d8f3944dcb259eebfccdf23f1b67cbb5b219a261ce6",
            "mixHash" : "0x0000000000000000000000000000000000000000000000000000000000020000",
            "nonce" : "0x0000000000000000",
            "number" : "0x00",
            "parentHash" : "0x0000000000000000000000000000000000000000000000000000000000000000",
            "receiptTrie" : "0x56e81f171bcc55a6ff8345e692c0f86e5b48e01b996cadc001622fb5e363b421",
            "stateRoot" : "0xc97819ead396d957a2bd484a6564ecd82096121db3b2f83c958aeda00653b6d1",
            "timestamp" : "0x00",
            "transactionsTrie" : "0x56e81f171bcc55a6ff8345e692c0f86e5b48e01b996cadc001622fb5e363b421",
            "withdrawalsRoot" : "0x56e81f171bcc55a6ff8345e692c0f86e5b48e01b996cadc001622fb5e363b421"
        },
        "genesisRLP" : "0xf90240f9023aa00000000000000000000000000000000000000000000000000000000000000000a01dcc4de8dec75d7aab85b567b6ccd41ad312451b948a7413f0a142fd40d4934794b94f5374fce5edbc8e2a8697c15331677e6ebf0ba0c97819ead396d957a2bd484a6564ecd82096121db3b2f83c958aeda00653b6d1a056e81f171bcc55a6ff8345e692c0f86e5b48e01b996cadc001622fb5e363b421a056e81f171bcc55a6ff8345e692c0f86e5b48e01b996cadc001622fb5e363b421b90100000000000000000000000000000000000000000000000000000000000000000000000000000000000000000000000000000000000000000000000000000000000000000000000000000000000000000000000000000000000000000000000000000000000000000000000000000000000000000000000000000000000000000000000000000000000000000000000000000000000000000000000000000000000000000000000000000000000000000000000000000000000000000000000000000000000000000000000000000000000000000000000000000000000000000000000000000000000000000000000000000000000000000000000000000000008080850213f8b140808000a000000000000000000000000000000000000000000000000000000000000200008800000000000000000ba056e81f171bcc55a6ff8345e692c0f86e5b48e01b996cadc001622fb5e363b4218083060000a00000000000000000000000000000000000000000000000000000000000000000c0c0c0",
        "lastblockhash" : "0xa19336b60fa8a5385fe41206bed9d52dc60ec2f1605434ef4beded75677d4140",
        "network" : "Cancun",
        "postState" : {
            "0x000f3df6d732807ef1319fb7b8bb8522d0beac02" : {
                "balance" : "0x00",
                "code" : "0x3373fffffffffffffffffffffffffffffffffffffffe14604d57602036146024575f5ffd5b5f35801560495762001fff810690815414603c575f5ffd5b62001fff01545f5260205ff35b5f5ffd5b62001fff42064281555f359062001fff015500",
                "nonce" : "0x01",
                "storage" : {
                    "0x03e8" : "0x03e8"
                }
            },
            "0x1000000000000000000000000000000000000000" : {
                "balance" : "0x00",
                "code" : "0x6000600060006000346000355af1600055600160015500",
                "nonce" : "0x00",
                "storage" : {
                    "0x00" : "0x01",
                    "0x01" : "0x01"
                }
            },
            "0xa94f5374fce5edbc8e2a8697c15331677e6ebf0b" : {
                "balance" : "0xffffffffffffffffffffffffc8ff147d",
                "code" : "0x",
                "nonce" : "0x01",
                "storage" : {
                }
            },
            "0xbbbf5374fce5edbc8e2a8697c15331677e6ebf0b" : {
                "balance" : "0x10000000000009",
                "code" : "0x602a6001525b61c350608051101560305761c350600161c3506000600461061cfa6000556001608051016080526005565b60805160015560015160025500",
                "nonce" : "0x00",
                "storage" : {
                    "0x01" : "0xc350",
                    "0x02" : "0x2a"
                }
            },
            "0xcccf5374fce5edbc8e2a8697c15331677e6ebf0b" : {
                "balance" : "0x0fffffffffffff",
                "code" : "0x602a6001525b61c350608051101560305761c350600161c3506000600461061cfa6000526001608051016080526005565b60805160205260015160405200",
                "nonce" : "0x00",
                "storage" : {
                }
            }
        },
        "pre" : {
            "0x000f3df6d732807ef1319fb7b8bb8522d0beac02" : {
                "balance" : "0x00",
                "code" : "0x3373fffffffffffffffffffffffffffffffffffffffe14604d57602036146024575f5ffd5b5f35801560495762001fff810690815414603c575f5ffd5b62001fff01545f5260205ff35b5f5ffd5b62001fff42064281555f359062001fff015500",
                "nonce" : "0x01",
                "storage" : {
                }
            },
            "0x1000000000000000000000000000000000000000" : {
                "balance" : "0x00",
                "code" : "0x6000600060006000346000355af1600055600160015500",
                "nonce" : "0x00",
                "storage" : {
                }
            },
            "0xa94f5374fce5edbc8e2a8697c15331677e6ebf0b" : {
                "balance" : "0xffffffffffffffffffffffffffffffff",
                "code" : "0x",
                "nonce" : "0x00",
                "storage" : {
                }
            },
            "0xbbbf5374fce5edbc8e2a8697c15331677e6ebf0b" : {
                "balance" : "0x0fffffffffffff",
                "code" : "0x602a6001525b61c350608051101560305761c350600161c3506000600461061cfa6000556001608051016080526005565b60805160015560015160025500",
                "nonce" : "0x00",
                "storage" : {
                }
            },
            "0xcccf5374fce5edbc8e2a8697c15331677e6ebf0b" : {
                "balance" : "0x0fffffffffffff",
                "code" : "0x602a6001525b61c350608051101560305761c350600161c3506000600461061cfa6000526001608051016080526005565b60805160205260015160405200",
                "nonce" : "0x00",
                "storage" : {
                }
            }
        },
        "sealEngine" : "NoProof"
    },
    "static_Call50000_identity2_d0g0v0_Prague" : {
        "_info" : {
            "comment" : "",
            "filling-rpc-server" : "evmone-t8n 0.14.0-13+commit.4d363c36",
            "filling-tool-version" : "retesteth-0.3.2-legacy+commit.ca7f4c79.Linux.g++",
            "fixture-format" : "blockchain_test",
            "generatedTestHash" : "9d8b416c0f0ddedc2d731fe64eb842b7ccec77fa2c9a1bd93acbe5e7fd329922",
            "lllcversion" : "Version: 0.5.14-develop.2024.11.5+commit.b2b86751.mod.Linux.g++",
            "hyperion" : "Version: 0.8.24+commit.e11b9ed9.Linux.g++",
            "source" : "src/GeneralStateTestsFiller/stStaticCall/static_Call50000_identity2Filler.json",
            "sourceHash" : "bb83d7bb51b5b2ab8d30a27ab18acc15ed11be9a4d5829657c831ce6f3a72478"
        },
        "blocks" : [
            {
                "blockHeader" : {
                    "baseFeePerGas" : "0x0a",
                    "bloom" : "0x00000000000000000000000000000000000000000000000000000000000000000000000000000000000000000000000000000000000000000000000000000000000000000000000000000000000000000000000000000000000000000000000000000000000000000000000000000000000000000000000000000000000000000000000000000000000000000000000000000000000000000000000000000000000000000000000000000000000000000000000000000000000000000000000000000000000000000000000000000000000000000000000000000000000000000000000000000000000000000000000000000000000000000000000000000000",
                    "coinbase" : "0xb94f5374fce5edbc8e2a8697c15331677e6ebf0b",
                    "extraData" : "0x00",
                    "gasLimit" : "0x0213f8b140",
                    "gasUsed" : "0x0580178c",
                    "hash" : "0x5dce2f517971c10cb0734c17d67e4851afdc560c3ca1117dd391c4abe7b2a149",
                    "mixHash" : "0x0000000000000000000000000000000000000000000000000000000000020000",
                    "nonce" : "0x0000000000000000",
                    "number" : "0x01",
                    "parentHash" : "0x4b628fc40950e4a0d94f7a021e4f595babc320fea069b92b865c258934fb4ccd",
                    "receiptTrie" : "0xb75c0967fe60f61e608a76420de5afbd85d03a4c7bf329e96de855ebe5f708a6",
                    "requestsHash" : "0xe3b0c44298fc1c149afbf4c8996fb92427ae41e4649b934ca495991b7852b855",
                    "stateRoot" : "0x43edc919545f734b3d7a711cb6ed0ab4418edf881a4833fa8301d199fac11708",
                    "timestamp" : "0x03e8",
                    "transactionsTrie" : "0x51f2183e74b357f1f8db731439086da509791705f2379faba9804be06f70ebcf",
                    "withdrawalsRoot" : "0x56e81f171bcc55a6ff8345e692c0f86e5b48e01b996cadc001622fb5e363b421"
                },
                "rlp" : "0xf902e8f9025ea04b628fc40950e4a0d94f7a021e4f595babc320fea069b92b865c258934fb4ccda01dcc4de8dec75d7aab85b567b6ccd41ad312451b948a7413f0a142fd40d4934794b94f5374fce5edbc8e2a8697c15331677e6ebf0ba043edc919545f734b3d7a711cb6ed0ab4418edf881a4833fa8301d199fac11708a051f2183e74b357f1f8db731439086da509791705f2379faba9804be06f70ebcfa0b75c0967fe60f61e608a76420de5afbd85d03a4c7bf329e96de855ebe5f708a6b90100000000000000000000000000000000000000000000000000000000000000000000000000000000000000000000000000000000000000000000000000000000000000000000000000000000000000000000000000000000000000000000000000000000000000000000000000000000000000000000000000000000000000000000000000000000000000000000000000000000000000000000000000000000000000000000000000000000000000000000000000000000000000000000000000000000000000000000000000000000000000000000000000000000000000000000000000000000000000000000000000000000000000000000000000000000008001850213f8b140840580178c8203e800a000000000000000000000000000000000000000000000000000000000000200008800000000000000000aa056e81f171bcc55a6ff8345e692c0f86e5b48e01b996cadc001622fb5e363b4218080a00000000000000000000000000000000000000000000000000000000000000000a0e3b0c44298fc1c149afbf4c8996fb92427ae41e4649b934ca495991b7852b855f883f881800a843499e1a09410000000000000000000000000000000000000000aa0000000000000000000000000bbbf5374fce5edbc8e2a8697c15331677e6ebf0b1ca074b14a7e04e816067f045836e9e8f857a97945e67bb6a5bc9255b170da2ee078a03c74db129e0d6de7c7b55e539c7c7755fdb7332868294e1a71af32aa28739624c0c0",
                "transactions" : [
                    {
                        "data" : "0x000000000000000000000000bbbf5374fce5edbc8e2a8697c15331677e6ebf0b",
                        "gasLimit" : "0x3499e1a0",
                        "gasPrice" : "0x0a",
                        "nonce" : "0x00",
                        "r" : "0x74b14a7e04e816067f045836e9e8f857a97945e67bb6a5bc9255b170da2ee078",
                        "s" : "0x3c74db129e0d6de7c7b55e539c7c7755fdb7332868294e1a71af32aa28739624",
                        "sender" : "0xa94f5374fce5edbc8e2a8697c15331677e6ebf0b",
                        "to" : "0x1000000000000000000000000000000000000000",
                        "v" : "0x1c",
                        "value" : "0x0a"
                    }
                ],

                "withdrawals" : [
                ]
            }
        ],
        "config" : {
            "blobSchedule" : {
                "Prague" : {
                    "baseFeeUpdateFraction" : "0x4c6964",
                    "max" : "0x09",
                    "target" : "0x06"
                }
            },
            "chainid" : "0x01",
            "network" : "Prague"
        },
        "genesisBlockHeader" : {
            "baseFeePerGas" : "0x0b",
            "bloom" : "0x00000000000000000000000000000000000000000000000000000000000000000000000000000000000000000000000000000000000000000000000000000000000000000000000000000000000000000000000000000000000000000000000000000000000000000000000000000000000000000000000000000000000000000000000000000000000000000000000000000000000000000000000000000000000000000000000000000000000000000000000000000000000000000000000000000000000000000000000000000000000000000000000000000000000000000000000000000000000000000000000000000000000000000000000000000000",
            "coinbase" : "0xb94f5374fce5edbc8e2a8697c15331677e6ebf0b",
            "extraData" : "0x00",
            "gasLimit" : "0x0213f8b140",
            "gasUsed" : "0x00",
            "hash" : "0x4b628fc40950e4a0d94f7a021e4f595babc320fea069b92b865c258934fb4ccd",
            "mixHash" : "0x0000000000000000000000000000000000000000000000000000000000020000",
            "nonce" : "0x0000000000000000",
            "number" : "0x00",
            "parentHash" : "0x0000000000000000000000000000000000000000000000000000000000000000",
            "receiptTrie" : "0x56e81f171bcc55a6ff8345e692c0f86e5b48e01b996cadc001622fb5e363b421",
            "requestsHash" : "0xe3b0c44298fc1c149afbf4c8996fb92427ae41e4649b934ca495991b7852b855",
            "stateRoot" : "0xf052594da77d6a9bc8e9d8a92c1e705974037d8e6161182c667375af8ed56c08",
            "timestamp" : "0x00",
            "transactionsTrie" : "0x56e81f171bcc55a6ff8345e692c0f86e5b48e01b996cadc001622fb5e363b421",
            "withdrawalsRoot" : "0x56e81f171bcc55a6ff8345e692c0f86e5b48e01b996cadc001622fb5e363b421"
        },
        "genesisRLP" : "0xf90261f9025ba00000000000000000000000000000000000000000000000000000000000000000a01dcc4de8dec75d7aab85b567b6ccd41ad312451b948a7413f0a142fd40d4934794b94f5374fce5edbc8e2a8697c15331677e6ebf0ba0f052594da77d6a9bc8e9d8a92c1e705974037d8e6161182c667375af8ed56c08a056e81f171bcc55a6ff8345e692c0f86e5b48e01b996cadc001622fb5e363b421a056e81f171bcc55a6ff8345e692c0f86e5b48e01b996cadc001622fb5e363b421b90100000000000000000000000000000000000000000000000000000000000000000000000000000000000000000000000000000000000000000000000000000000000000000000000000000000000000000000000000000000000000000000000000000000000000000000000000000000000000000000000000000000000000000000000000000000000000000000000000000000000000000000000000000000000000000000000000000000000000000000000000000000000000000000000000000000000000000000000000000000000000000000000000000000000000000000000000000000000000000000000000000000000000000000000000000000008080850213f8b140808000a000000000000000000000000000000000000000000000000000000000000200008800000000000000000ba056e81f171bcc55a6ff8345e692c0f86e5b48e01b996cadc001622fb5e363b4218083060000a00000000000000000000000000000000000000000000000000000000000000000a0e3b0c44298fc1c149afbf4c8996fb92427ae41e4649b934ca495991b7852b855c0c0c0",
        "lastblockhash" : "0x5dce2f517971c10cb0734c17d67e4851afdc560c3ca1117dd391c4abe7b2a149",
        "network" : "Prague",
        "postState" : {
            "0x0000f90827f1c53a10cb7a02335b175320002935" : {
                "balance" : "0x00",
                "code" : "0x3373fffffffffffffffffffffffffffffffffffffffe14604657602036036042575f35600143038111604257611fff81430311604257611fff9006545f5260205ff35b5f5ffd5b5f35611fff60014303065500",
                "nonce" : "0x01",
                "storage" : {
                    "0x00" : "0x4b628fc40950e4a0d94f7a021e4f595babc320fea069b92b865c258934fb4ccd"
                }
            },
            "0x000f3df6d732807ef1319fb7b8bb8522d0beac02" : {
                "balance" : "0x00",
                "code" : "0x3373fffffffffffffffffffffffffffffffffffffffe14604d57602036146024575f5ffd5b5f35801560495762001fff810690815414603c575f5ffd5b62001fff01545f5260205ff35b5f5ffd5b62001fff42064281555f359062001fff015500",
                "nonce" : "0x01",
                "storage" : {
                    "0x03e8" : "0x03e8"
                }
            },
            "0x1000000000000000000000000000000000000000" : {
                "balance" : "0x00",
                "code" : "0x6000600060006000346000355af1600055600160015500",
                "nonce" : "0x00",
                "storage" : {
                    "0x00" : "0x01",
                    "0x01" : "0x01"
                }
            },
            "0xa94f5374fce5edbc8e2a8697c15331677e6ebf0b" : {
                "balance" : "0xffffffffffffffffffffffffc8ff147d",
                "code" : "0x",
                "nonce" : "0x01",
                "storage" : {
                }
            },
            "0xbbbf5374fce5edbc8e2a8697c15331677e6ebf0b" : {
                "balance" : "0x10000000000009",
                "code" : "0x602a6001525b61c350608051101560305761c350600161c3506000600461061cfa6000556001608051016080526005565b60805160015560015160025500",
                "nonce" : "0x00",
                "storage" : {
                    "0x01" : "0xc350",
                    "0x02" : "0x2a"
                }
            },
            "0xcccf5374fce5edbc8e2a8697c15331677e6ebf0b" : {
                "balance" : "0x0fffffffffffff",
                "code" : "0x602a6001525b61c350608051101560305761c350600161c3506000600461061cfa6000526001608051016080526005565b60805160205260015160405200",
                "nonce" : "0x00",
                "storage" : {
                }
            }
        },
        "pre" : {
            "0x0000f90827f1c53a10cb7a02335b175320002935" : {
                "balance" : "0x00",
                "code" : "0x3373fffffffffffffffffffffffffffffffffffffffe14604657602036036042575f35600143038111604257611fff81430311604257611fff9006545f5260205ff35b5f5ffd5b5f35611fff60014303065500",
                "nonce" : "0x01",
                "storage" : {
                }
            },
            "0x000f3df6d732807ef1319fb7b8bb8522d0beac02" : {
                "balance" : "0x00",
                "code" : "0x3373fffffffffffffffffffffffffffffffffffffffe14604d57602036146024575f5ffd5b5f35801560495762001fff810690815414603c575f5ffd5b62001fff01545f5260205ff35b5f5ffd5b62001fff42064281555f359062001fff015500",
                "nonce" : "0x01",
                "storage" : {
                }
            },
            "0x1000000000000000000000000000000000000000" : {
                "balance" : "0x00",
                "code" : "0x6000600060006000346000355af1600055600160015500",
                "nonce" : "0x00",
                "storage" : {
                }
            },
            "0xa94f5374fce5edbc8e2a8697c15331677e6ebf0b" : {
                "balance" : "0xffffffffffffffffffffffffffffffff",
                "code" : "0x",
                "nonce" : "0x00",
                "storage" : {
                }
            },
            "0xbbbf5374fce5edbc8e2a8697c15331677e6ebf0b" : {
                "balance" : "0x0fffffffffffff",
                "code" : "0x602a6001525b61c350608051101560305761c350600161c3506000600461061cfa6000556001608051016080526005565b60805160015560015160025500",
                "nonce" : "0x00",
                "storage" : {
                }
            },
            "0xcccf5374fce5edbc8e2a8697c15331677e6ebf0b" : {
                "balance" : "0x0fffffffffffff",
                "code" : "0x602a6001525b61c350608051101560305761c350600161c3506000600461061cfa6000526001608051016080526005565b60805160205260015160405200",
                "nonce" : "0x00",
                "storage" : {
                }
            }
        },
        "sealEngine" : "NoProof"
    },
    "static_Call50000_identity2_d1g0v0_Cancun" : {
        "_info" : {
            "comment" : "",
            "filling-rpc-server" : "evmone-t8n 0.14.0-13+commit.4d363c36",
            "filling-tool-version" : "retesteth-0.3.2-legacy+commit.ca7f4c79.Linux.g++",
            "fixture-format" : "blockchain_test",
            "generatedTestHash" : "350e01774f7c60a48cf1a2d6da28e4638f16af3e4d1283801d600dbfa1b5388b",
            "lllcversion" : "Version: 0.5.14-develop.2024.11.5+commit.b2b86751.mod.Linux.g++",
            "hyperion" : "Version: 0.8.24+commit.e11b9ed9.Linux.g++",
            "source" : "src/GeneralStateTestsFiller/stStaticCall/static_Call50000_identity2Filler.json",
            "sourceHash" : "bb83d7bb51b5b2ab8d30a27ab18acc15ed11be9a4d5829657c831ce6f3a72478"
        },
        "blocks" : [
            {
                "blockHeader" : {
                    "baseFeePerGas" : "0x0a",
                    "bloom" : "0x00000000000000000000000000000000000000000000000000000000000000000000000000000000000000000000000000000000000000000000000000000000000000000000000000000000000000000000000000000000000000000000000000000000000000000000000000000000000000000000000000000000000000000000000000000000000000000000000000000000000000000000000000000000000000000000000000000000000000000000000000000000000000000000000000000000000000000000000000000000000000000000000000000000000000000000000000000000000000000000000000000000000000000000000000000000",
                    "coinbase" : "0xb94f5374fce5edbc8e2a8697c15331677e6ebf0b",
                    "extraData" : "0x00",
                    "gasLimit" : "0x0213f8b140",
                    "gasUsed" : "0x05356166",
                    "hash" : "0x5c8e4dc3bd1c673e72166599bf27c593428c02789e30dc056f59e6c988152fe7",
                    "mixHash" : "0x0000000000000000000000000000000000000000000000000000000000020000",
                    "nonce" : "0x0000000000000000",
                    "number" : "0x01",
                    "parentHash" : "0x423b54f4dae4f69022fa1d8f3944dcb259eebfccdf23f1b67cbb5b219a261ce6",
                    "receiptTrie" : "0xad4869984f8394f06fa0f44372673291a4e7a3d6b4950af812099204684600dc",
                    "stateRoot" : "0x53ebb6b8727dfc988cdb0715f29a8b66ed7304077cb0a2bfaa548a40745dd984",
                    "timestamp" : "0x03e8",
                    "transactionsTrie" : "0xd7831ed04136d967600d9106a9b75ab98a8ae6b2dc0b1069b77c5b1a689b81d8",
                    "withdrawalsRoot" : "0x56e81f171bcc55a6ff8345e692c0f86e5b48e01b996cadc001622fb5e363b421"
                },
                "rlp" : "0xf902c7f9023da0423b54f4dae4f69022fa1d8f3944dcb259eebfccdf23f1b67cbb5b219a261ce6a01dcc4de8dec75d7aab85b567b6ccd41ad312451b948a7413f0a142fd40d4934794b94f5374fce5edbc8e2a8697c15331677e6ebf0ba053ebb6b8727dfc988cdb0715f29a8b66ed7304077cb0a2bfaa548a40745dd984a0d7831ed04136d967600d9106a9b75ab98a8ae6b2dc0b1069b77c5b1a689b81d8a0ad4869984f8394f06fa0f44372673291a4e7a3d6b4950af812099204684600dcb90100000000000000000000000000000000000000000000000000000000000000000000000000000000000000000000000000000000000000000000000000000000000000000000000000000000000000000000000000000000000000000000000000000000000000000000000000000000000000000000000000000000000000000000000000000000000000000000000000000000000000000000000000000000000000000000000000000000000000000000000000000000000000000000000000000000000000000000000000000000000000000000000000000000000000000000000000000000000000000000000000000000000000000000000000000000008001850213f8b14084053561668203e800a000000000000000000000000000000000000000000000000000000000000200008800000000000000000aa056e81f171bcc55a6ff8345e692c0f86e5b48e01b996cadc001622fb5e363b4218080a00000000000000000000000000000000000000000000000000000000000000000f883f881800a843499e1a09410000000000000000000000000000000000000000aa0000000000000000000000000cccf5374fce5edbc8e2a8697c15331677e6ebf0b1ca0920ebf90ef33bd18398aa029b04fd5fb7982713b73332237573ce560d17f3d17a01df147c4db87ebcb9bae145c6055d648305c635478fab0249f46186c0538f3a3c0c0",
                "transactions" : [
                    {
                        "data" : "0x000000000000000000000000cccf5374fce5edbc8e2a8697c15331677e6ebf0b",
                        "gasLimit" : "0x3499e1a0",
                        "gasPrice" : "0x0a",
                        "nonce" : "0x00",
                        "r" : "0x920ebf90ef33bd18398aa029b04fd5fb7982713b73332237573ce560d17f3d17",
                        "s" : "0x1df147c4db87ebcb9bae145c6055d648305c635478fab0249f46186c0538f3a3",
                        "sender" : "0xa94f5374fce5edbc8e2a8697c15331677e6ebf0b",
                        "to" : "0x1000000000000000000000000000000000000000",
                        "v" : "0x1c",
                        "value" : "0x0a"
                    }
                ],

                "withdrawals" : [
                ]
            }
        ],
        "config" : {
            "blobSchedule" : {
                "Cancun" : {
                    "baseFeeUpdateFraction" : "0x32f0ed",
                    "max" : "0x06",
                    "target" : "0x03"
                }
            },
            "chainid" : "0x01",
            "network" : "Cancun"
        },
        "genesisBlockHeader" : {
            "baseFeePerGas" : "0x0b",
            "bloom" : "0x00000000000000000000000000000000000000000000000000000000000000000000000000000000000000000000000000000000000000000000000000000000000000000000000000000000000000000000000000000000000000000000000000000000000000000000000000000000000000000000000000000000000000000000000000000000000000000000000000000000000000000000000000000000000000000000000000000000000000000000000000000000000000000000000000000000000000000000000000000000000000000000000000000000000000000000000000000000000000000000000000000000000000000000000000000000",
            "coinbase" : "0xb94f5374fce5edbc8e2a8697c15331677e6ebf0b",
            "extraData" : "0x00",
            "gasLimit" : "0x0213f8b140",
            "gasUsed" : "0x00",
            "hash" : "0x423b54f4dae4f69022fa1d8f3944dcb259eebfccdf23f1b67cbb5b219a261ce6",
            "mixHash" : "0x0000000000000000000000000000000000000000000000000000000000020000",
            "nonce" : "0x0000000000000000",
            "number" : "0x00",
            "parentHash" : "0x0000000000000000000000000000000000000000000000000000000000000000",
            "receiptTrie" : "0x56e81f171bcc55a6ff8345e692c0f86e5b48e01b996cadc001622fb5e363b421",
            "stateRoot" : "0xc97819ead396d957a2bd484a6564ecd82096121db3b2f83c958aeda00653b6d1",
            "timestamp" : "0x00",
            "transactionsTrie" : "0x56e81f171bcc55a6ff8345e692c0f86e5b48e01b996cadc001622fb5e363b421",
            "withdrawalsRoot" : "0x56e81f171bcc55a6ff8345e692c0f86e5b48e01b996cadc001622fb5e363b421"
        },
        "genesisRLP" : "0xf90240f9023aa00000000000000000000000000000000000000000000000000000000000000000a01dcc4de8dec75d7aab85b567b6ccd41ad312451b948a7413f0a142fd40d4934794b94f5374fce5edbc8e2a8697c15331677e6ebf0ba0c97819ead396d957a2bd484a6564ecd82096121db3b2f83c958aeda00653b6d1a056e81f171bcc55a6ff8345e692c0f86e5b48e01b996cadc001622fb5e363b421a056e81f171bcc55a6ff8345e692c0f86e5b48e01b996cadc001622fb5e363b421b90100000000000000000000000000000000000000000000000000000000000000000000000000000000000000000000000000000000000000000000000000000000000000000000000000000000000000000000000000000000000000000000000000000000000000000000000000000000000000000000000000000000000000000000000000000000000000000000000000000000000000000000000000000000000000000000000000000000000000000000000000000000000000000000000000000000000000000000000000000000000000000000000000000000000000000000000000000000000000000000000000000000000000000000000000000000008080850213f8b140808000a000000000000000000000000000000000000000000000000000000000000200008800000000000000000ba056e81f171bcc55a6ff8345e692c0f86e5b48e01b996cadc001622fb5e363b4218083060000a00000000000000000000000000000000000000000000000000000000000000000c0c0c0",
        "lastblockhash" : "0x5c8e4dc3bd1c673e72166599bf27c593428c02789e30dc056f59e6c988152fe7",
        "network" : "Cancun",
        "postState" : {
            "0x000f3df6d732807ef1319fb7b8bb8522d0beac02" : {
                "balance" : "0x00",
                "code" : "0x3373fffffffffffffffffffffffffffffffffffffffe14604d57602036146024575f5ffd5b5f35801560495762001fff810690815414603c575f5ffd5b62001fff01545f5260205ff35b5f5ffd5b62001fff42064281555f359062001fff015500",
                "nonce" : "0x01",
                "storage" : {
                    "0x03e8" : "0x03e8"
                }
            },
            "0x1000000000000000000000000000000000000000" : {
                "balance" : "0x00",
                "code" : "0x6000600060006000346000355af1600055600160015500",
                "nonce" : "0x00",
                "storage" : {
                    "0x00" : "0x01",
                    "0x01" : "0x01"
                }
            },
            "0xa94f5374fce5edbc8e2a8697c15331677e6ebf0b" : {
                "balance" : "0xffffffffffffffffffffffffcbea31f9",
                "code" : "0x",
                "nonce" : "0x01",
                "storage" : {
                }
            },
            "0xbbbf5374fce5edbc8e2a8697c15331677e6ebf0b" : {
                "balance" : "0x0fffffffffffff",
                "code" : "0x602a6001525b61c350608051101560305761c350600161c3506000600461061cfa6000556001608051016080526005565b60805160015560015160025500",
                "nonce" : "0x00",
                "storage" : {
                }
            },
            "0xcccf5374fce5edbc8e2a8697c15331677e6ebf0b" : {
                "balance" : "0x10000000000009",
                "code" : "0x602a6001525b61c350608051101560305761c350600161c3506000600461061cfa6000526001608051016080526005565b60805160205260015160405200",
                "nonce" : "0x00",
                "storage" : {
                }
            }
        },
        "pre" : {
            "0x000f3df6d732807ef1319fb7b8bb8522d0beac02" : {
                "balance" : "0x00",
                "code" : "0x3373fffffffffffffffffffffffffffffffffffffffe14604d57602036146024575f5ffd5b5f35801560495762001fff810690815414603c575f5ffd5b62001fff01545f5260205ff35b5f5ffd5b62001fff42064281555f359062001fff015500",
                "nonce" : "0x01",
                "storage" : {
                }
            },
            "0x1000000000000000000000000000000000000000" : {
                "balance" : "0x00",
                "code" : "0x6000600060006000346000355af1600055600160015500",
                "nonce" : "0x00",
                "storage" : {
                }
            },
            "0xa94f5374fce5edbc8e2a8697c15331677e6ebf0b" : {
                "balance" : "0xffffffffffffffffffffffffffffffff",
                "code" : "0x",
                "nonce" : "0x00",
                "storage" : {
                }
            },
            "0xbbbf5374fce5edbc8e2a8697c15331677e6ebf0b" : {
                "balance" : "0x0fffffffffffff",
                "code" : "0x602a6001525b61c350608051101560305761c350600161c3506000600461061cfa6000556001608051016080526005565b60805160015560015160025500",
                "nonce" : "0x00",
                "storage" : {
                }
            },
            "0xcccf5374fce5edbc8e2a8697c15331677e6ebf0b" : {
                "balance" : "0x0fffffffffffff",
                "code" : "0x602a6001525b61c350608051101560305761c350600161c3506000600461061cfa6000526001608051016080526005565b60805160205260015160405200",
                "nonce" : "0x00",
                "storage" : {
                }
            }
        },
        "sealEngine" : "NoProof"
    },
    "static_Call50000_identity2_d1g0v0_Prague" : {
        "_info" : {
            "comment" : "",
            "filling-rpc-server" : "evmone-t8n 0.14.0-13+commit.4d363c36",
            "filling-tool-version" : "retesteth-0.3.2-legacy+commit.ca7f4c79.Linux.g++",
            "fixture-format" : "blockchain_test",
            "generatedTestHash" : "3deea8d9c7b1a1f6ee9f34eb4786bfba47fd5a56cbc27649793b2e6928bfa192",
            "lllcversion" : "Version: 0.5.14-develop.2024.11.5+commit.b2b86751.mod.Linux.g++",
            "hyperion" : "Version: 0.8.24+commit.e11b9ed9.Linux.g++",
            "source" : "src/GeneralStateTestsFiller/stStaticCall/static_Call50000_identity2Filler.json",
            "sourceHash" : "bb83d7bb51b5b2ab8d30a27ab18acc15ed11be9a4d5829657c831ce6f3a72478"
        },
        "blocks" : [
            {
                "blockHeader" : {
                    "baseFeePerGas" : "0x0a",
                    "bloom" : "0x00000000000000000000000000000000000000000000000000000000000000000000000000000000000000000000000000000000000000000000000000000000000000000000000000000000000000000000000000000000000000000000000000000000000000000000000000000000000000000000000000000000000000000000000000000000000000000000000000000000000000000000000000000000000000000000000000000000000000000000000000000000000000000000000000000000000000000000000000000000000000000000000000000000000000000000000000000000000000000000000000000000000000000000000000000000",
                    "coinbase" : "0xb94f5374fce5edbc8e2a8697c15331677e6ebf0b",
                    "extraData" : "0x00",
                    "gasLimit" : "0x0213f8b140",
                    "gasUsed" : "0x05356166",
                    "hash" : "0xd8bef6e08da8c4d14c288eac5b1ce9339c744d5996985bc6ae468a78e0d5a3f7",
                    "mixHash" : "0x0000000000000000000000000000000000000000000000000000000000020000",
                    "nonce" : "0x0000000000000000",
                    "number" : "0x01",
                    "parentHash" : "0x4b628fc40950e4a0d94f7a021e4f595babc320fea069b92b865c258934fb4ccd",
                    "receiptTrie" : "0xad4869984f8394f06fa0f44372673291a4e7a3d6b4950af812099204684600dc",
                    "requestsHash" : "0xe3b0c44298fc1c149afbf4c8996fb92427ae41e4649b934ca495991b7852b855",
                    "stateRoot" : "0x4b60ec1f2ef3f87e1b3395f04d9e1c4a95d85d31f3de29750d2c9392e64a1c84",
                    "timestamp" : "0x03e8",
                    "transactionsTrie" : "0xd7831ed04136d967600d9106a9b75ab98a8ae6b2dc0b1069b77c5b1a689b81d8",
                    "withdrawalsRoot" : "0x56e81f171bcc55a6ff8345e692c0f86e5b48e01b996cadc001622fb5e363b421"
                },
                "rlp" : "0xf902e8f9025ea04b628fc40950e4a0d94f7a021e4f595babc320fea069b92b865c258934fb4ccda01dcc4de8dec75d7aab85b567b6ccd41ad312451b948a7413f0a142fd40d4934794b94f5374fce5edbc8e2a8697c15331677e6ebf0ba04b60ec1f2ef3f87e1b3395f04d9e1c4a95d85d31f3de29750d2c9392e64a1c84a0d7831ed04136d967600d9106a9b75ab98a8ae6b2dc0b1069b77c5b1a689b81d8a0ad4869984f8394f06fa0f44372673291a4e7a3d6b4950af812099204684600dcb90100000000000000000000000000000000000000000000000000000000000000000000000000000000000000000000000000000000000000000000000000000000000000000000000000000000000000000000000000000000000000000000000000000000000000000000000000000000000000000000000000000000000000000000000000000000000000000000000000000000000000000000000000000000000000000000000000000000000000000000000000000000000000000000000000000000000000000000000000000000000000000000000000000000000000000000000000000000000000000000000000000000000000000000000000000000008001850213f8b14084053561668203e800a000000000000000000000000000000000000000000000000000000000000200008800000000000000000aa056e81f171bcc55a6ff8345e692c0f86e5b48e01b996cadc001622fb5e363b4218080a00000000000000000000000000000000000000000000000000000000000000000a0e3b0c44298fc1c149afbf4c8996fb92427ae41e4649b934ca495991b7852b855f883f881800a843499e1a09410000000000000000000000000000000000000000aa0000000000000000000000000cccf5374fce5edbc8e2a8697c15331677e6ebf0b1ca0920ebf90ef33bd18398aa029b04fd5fb7982713b73332237573ce560d17f3d17a01df147c4db87ebcb9bae145c6055d648305c635478fab0249f46186c0538f3a3c0c0",
                "transactions" : [
                    {
                        "data" : "0x000000000000000000000000cccf5374fce5edbc8e2a8697c15331677e6ebf0b",
                        "gasLimit" : "0x3499e1a0",
                        "gasPrice" : "0x0a",
                        "nonce" : "0x00",
                        "r" : "0x920ebf90ef33bd18398aa029b04fd5fb7982713b73332237573ce560d17f3d17",
                        "s" : "0x1df147c4db87ebcb9bae145c6055d648305c635478fab0249f46186c0538f3a3",
                        "sender" : "0xa94f5374fce5edbc8e2a8697c15331677e6ebf0b",
                        "to" : "0x1000000000000000000000000000000000000000",
                        "v" : "0x1c",
                        "value" : "0x0a"
                    }
                ],

                "withdrawals" : [
                ]
            }
        ],
        "config" : {
            "blobSchedule" : {
                "Prague" : {
                    "baseFeeUpdateFraction" : "0x4c6964",
                    "max" : "0x09",
                    "target" : "0x06"
                }
            },
            "chainid" : "0x01",
            "network" : "Prague"
        },
        "genesisBlockHeader" : {
            "baseFeePerGas" : "0x0b",
            "bloom" : "0x00000000000000000000000000000000000000000000000000000000000000000000000000000000000000000000000000000000000000000000000000000000000000000000000000000000000000000000000000000000000000000000000000000000000000000000000000000000000000000000000000000000000000000000000000000000000000000000000000000000000000000000000000000000000000000000000000000000000000000000000000000000000000000000000000000000000000000000000000000000000000000000000000000000000000000000000000000000000000000000000000000000000000000000000000000000",
            "coinbase" : "0xb94f5374fce5edbc8e2a8697c15331677e6ebf0b",
            "extraData" : "0x00",
            "gasLimit" : "0x0213f8b140",
            "gasUsed" : "0x00",
            "hash" : "0x4b628fc40950e4a0d94f7a021e4f595babc320fea069b92b865c258934fb4ccd",
            "mixHash" : "0x0000000000000000000000000000000000000000000000000000000000020000",
            "nonce" : "0x0000000000000000",
            "number" : "0x00",
            "parentHash" : "0x0000000000000000000000000000000000000000000000000000000000000000",
            "receiptTrie" : "0x56e81f171bcc55a6ff8345e692c0f86e5b48e01b996cadc001622fb5e363b421",
            "requestsHash" : "0xe3b0c44298fc1c149afbf4c8996fb92427ae41e4649b934ca495991b7852b855",
            "stateRoot" : "0xf052594da77d6a9bc8e9d8a92c1e705974037d8e6161182c667375af8ed56c08",
            "timestamp" : "0x00",
            "transactionsTrie" : "0x56e81f171bcc55a6ff8345e692c0f86e5b48e01b996cadc001622fb5e363b421",
            "withdrawalsRoot" : "0x56e81f171bcc55a6ff8345e692c0f86e5b48e01b996cadc001622fb5e363b421"
        },
        "genesisRLP" : "0xf90261f9025ba00000000000000000000000000000000000000000000000000000000000000000a01dcc4de8dec75d7aab85b567b6ccd41ad312451b948a7413f0a142fd40d4934794b94f5374fce5edbc8e2a8697c15331677e6ebf0ba0f052594da77d6a9bc8e9d8a92c1e705974037d8e6161182c667375af8ed56c08a056e81f171bcc55a6ff8345e692c0f86e5b48e01b996cadc001622fb5e363b421a056e81f171bcc55a6ff8345e692c0f86e5b48e01b996cadc001622fb5e363b421b90100000000000000000000000000000000000000000000000000000000000000000000000000000000000000000000000000000000000000000000000000000000000000000000000000000000000000000000000000000000000000000000000000000000000000000000000000000000000000000000000000000000000000000000000000000000000000000000000000000000000000000000000000000000000000000000000000000000000000000000000000000000000000000000000000000000000000000000000000000000000000000000000000000000000000000000000000000000000000000000000000000000000000000000000000000000008080850213f8b140808000a000000000000000000000000000000000000000000000000000000000000200008800000000000000000ba056e81f171bcc55a6ff8345e692c0f86e5b48e01b996cadc001622fb5e363b4218083060000a00000000000000000000000000000000000000000000000000000000000000000a0e3b0c44298fc1c149afbf4c8996fb92427ae41e4649b934ca495991b7852b855c0c0c0",
        "lastblockhash" : "0xd8bef6e08da8c4d14c288eac5b1ce9339c744d5996985bc6ae468a78e0d5a3f7",
        "network" : "Prague",
        "postState" : {
            "0x0000f90827f1c53a10cb7a02335b175320002935" : {
                "balance" : "0x00",
                "code" : "0x3373fffffffffffffffffffffffffffffffffffffffe14604657602036036042575f35600143038111604257611fff81430311604257611fff9006545f5260205ff35b5f5ffd5b5f35611fff60014303065500",
                "nonce" : "0x01",
                "storage" : {
                    "0x00" : "0x4b628fc40950e4a0d94f7a021e4f595babc320fea069b92b865c258934fb4ccd"
                }
            },
            "0x000f3df6d732807ef1319fb7b8bb8522d0beac02" : {
                "balance" : "0x00",
                "code" : "0x3373fffffffffffffffffffffffffffffffffffffffe14604d57602036146024575f5ffd5b5f35801560495762001fff810690815414603c575f5ffd5b62001fff01545f5260205ff35b5f5ffd5b62001fff42064281555f359062001fff015500",
                "nonce" : "0x01",
                "storage" : {
                    "0x03e8" : "0x03e8"
                }
            },
            "0x1000000000000000000000000000000000000000" : {
                "balance" : "0x00",
                "code" : "0x6000600060006000346000355af1600055600160015500",
                "nonce" : "0x00",
                "storage" : {
                    "0x00" : "0x01",
                    "0x01" : "0x01"
                }
            },
            "0xa94f5374fce5edbc8e2a8697c15331677e6ebf0b" : {
                "balance" : "0xffffffffffffffffffffffffcbea31f9",
                "code" : "0x",
                "nonce" : "0x01",
                "storage" : {
                }
            },
            "0xbbbf5374fce5edbc8e2a8697c15331677e6ebf0b" : {
                "balance" : "0x0fffffffffffff",
                "code" : "0x602a6001525b61c350608051101560305761c350600161c3506000600461061cfa6000556001608051016080526005565b60805160015560015160025500",
                "nonce" : "0x00",
                "storage" : {
                }
            },
            "0xcccf5374fce5edbc8e2a8697c15331677e6ebf0b" : {
                "balance" : "0x10000000000009",
                "code" : "0x602a6001525b61c350608051101560305761c350600161c3506000600461061cfa6000526001608051016080526005565b60805160205260015160405200",
                "nonce" : "0x00",
                "storage" : {
                }
            }
        },
        "pre" : {
            "0x0000f90827f1c53a10cb7a02335b175320002935" : {
                "balance" : "0x00",
                "code" : "0x3373fffffffffffffffffffffffffffffffffffffffe14604657602036036042575f35600143038111604257611fff81430311604257611fff9006545f5260205ff35b5f5ffd5b5f35611fff60014303065500",
                "nonce" : "0x01",
                "storage" : {
                }
            },
            "0x000f3df6d732807ef1319fb7b8bb8522d0beac02" : {
                "balance" : "0x00",
                "code" : "0x3373fffffffffffffffffffffffffffffffffffffffe14604d57602036146024575f5ffd5b5f35801560495762001fff810690815414603c575f5ffd5b62001fff01545f5260205ff35b5f5ffd5b62001fff42064281555f359062001fff015500",
                "nonce" : "0x01",
                "storage" : {
                }
            },
            "0x1000000000000000000000000000000000000000" : {
                "balance" : "0x00",
                "code" : "0x6000600060006000346000355af1600055600160015500",
                "nonce" : "0x00",
                "storage" : {
                }
            },
            "0xa94f5374fce5edbc8e2a8697c15331677e6ebf0b" : {
                "balance" : "0xffffffffffffffffffffffffffffffff",
                "code" : "0x",
                "nonce" : "0x00",
                "storage" : {
                }
            },
            "0xbbbf5374fce5edbc8e2a8697c15331677e6ebf0b" : {
                "balance" : "0x0fffffffffffff",
                "code" : "0x602a6001525b61c350608051101560305761c350600161c3506000600461061cfa6000556001608051016080526005565b60805160015560015160025500",
                "nonce" : "0x00",
                "storage" : {
                }
            },
            "0xcccf5374fce5edbc8e2a8697c15331677e6ebf0b" : {
                "balance" : "0x0fffffffffffff",
                "code" : "0x602a6001525b61c350608051101560305761c350600161c3506000600461061cfa6000526001608051016080526005565b60805160205260015160405200",
                "nonce" : "0x00",
                "storage" : {
                }
            }
        },
        "sealEngine" : "NoProof"
    }
}