{
    "TransactionGasHigherThanLimit2p63m1_Cancun" : {
        "_info" : {
            "comment" : "",
            "filling-rpc-server" : "evmone-t8n 0.14.0-13+commit.4d363c36",
            "filling-tool-version" : "retesteth-0.3.2-legacy+commit.ca7f4c79.Linux.g++",
            "fixture-format" : "blockchain_test",
            "generatedTestHash" : "dccf0263cfe302838ee06f1081968c8c82337e874b5e4d35f9fa14e850bbfbe5",
            "lllcversion" : "Version: 0.5.14-develop.2024.11.5+commit.b2b86751.mod.Linux.g++",
            "hyperion" : "Version: 0.8.24+commit.e11b9ed9.Linux.g++",
            "source" : "src/BlockchainTestsFiller/ValidBlocks/bcBlockGasLimitTest/TransactionGasHigherThanLimit2p63m1Filler.json",
            "sourceHash" : "b5033752e399eeb6ce2a62c0088b82bf9e883b5f27fe756f4c579cbd85eef284"
        },
        "blocks" : [
            {
                "blockHeader" : {
                    "baseFeePerGas" : "0x0e",
                    "bloom" : "0x00000000000000000000000000000000000000000000000000000000000000000000000000000000000000000000000000000000000000000000000000000000000000000000000000000000000000000000000000000000000000000000000000000000000000000000000000000000000000000000000000000000000000000000000000000000000000000000000000000000000000000000000000000000000000000000000000000000000000000000000000000000000000000000000000000000000000000000000000000000000000000000000000000000000000000000000000000000000000000000000000000000000000000000000000000000",
                    "coinbase" : "Z8888f1f195afa192cfee860698584c030f4c9db1",
                    "extraData" : "0x42",
                    "gasLimit" : "0x7fffffffffffffff",
                    "gasUsed" : "0x023e38",
                    "hash" : "0x6e29659a21d3eb453e5e007d7ab42d66ed645addf07f59905274c751fc5d1872",
                    "mixHash" : "0x0000000000000000000000000000000000000000000000000000000000020000",
                    "nonce" : "0x0000000000000000",
                    "number" : "0x01",
                    "parentHash" : "0xa85dba21ae34652546ce486a53bceb5b3b2186d082874e336cfd94fd8ab9daa6",
                    "receiptTrie" : "0x3b20ef68d6c58564b0864d53956edaa113c0f0bcae99d5f2b2797cc020a9ab37",
                    "stateRoot" : "0x37eb0f0a8a5f0b2926542d8bce9f4e636102cbe0b80fcd81d3e3cc04bfc97752",
                    "timestamp" : "0x54c99069",
                    "transactionsTrie" : "0x3d2d610c77ee6474a729e6bb1acad6dc81fa3f1e6139fc82044862ec886aa117",
                    "withdrawalsRoot" : "0x56e81f171bcc55a6ff8345e692c0f86e5b48e01b996cadc001622fb5e363b421"
                },
                "blocknumber" : "1",
                "chainname" : "default",
                "rlp" : "0xf90522f90241a0a85dba21ae34652546ce486a53bceb5b3b2186d082874e336cfd94fd8ab9daa6a01dcc4de8dec75d7aab85b567b6ccd41ad312451b948a7413f0a142fd40d49347948888f1f195afa192cfee860698584c030f4c9db1a037eb0f0a8a5f0b2926542d8bce9f4e636102cbe0b80fcd81d3e3cc04bfc97752a03d2d610c77ee6474a729e6bb1acad6dc81fa3f1e6139fc82044862ec886aa117a03b20ef68d6c58564b0864d53956edaa113c0f0bcae99d5f2b2797cc020a9ab37b90100000000000000000000000000000000000000000000000000000000000000000000000000000000000000000000000000000000000000000000000000000000000000000000000000000000000000000000000000000000000000000000000000000000000000000000000000000000000000000000000000000000000000000000000000000000000000000000000000000000000000000000000000000000000000000000000000000000000000000000000000000000000000000000000000000000000000000000000000000000000000000000000000000000000000000000000000000000000000000000000000000000000000000000000000000000008001887fffffffffffffff83023e388454c9906942a000000000000000000000000000000000000000000000000000000000000200008800000000000000000ea056e81f171bcc55a6ff8345e692c0f86e5b48e01b996cadc001622fb5e363b4218080a00000000000000000000000000000000000000000000000000000000000000000f902d9f867808203e888199999999999999994aaaf5374fce5edbc8e2a8697c15331677e6ebf0b0a801ca08956111f06df323b59c3f6e0f13cae20e0971f08a9ff564f519d7c77952489b9a00f1e7504b08e4deb93bcf4d51c76c881fc6a80aa0dbd9297022f43ecc4cdd1ccf867018203e888199999999999999994aaaf5374fce5edbc8e2a8697c15331677e6ebf0b0a801ba0ff77dfbe0dd9fe8ba30a6f32bea244f7147597d6ad9bad7985b3c0b7daa25f70a0111584c4e93b74e2180c4afb2f67d545eb4ff09ac160d8704e2361aee9aa22fcf866028203e888199999999999999994aaaf5374fce5edbc8e2a8697c15331677e6ebf0b0a801ba0acf38f1819e3cde57ae3c30c69b5d9d9966dbe057d5a774029e5633827fb8b0f9fb1fad558ce2da5b030787cf658249b44a1ac20a5860c61049b3eb4cb47c786f867038203e888199999999999999994aaaf5374fce5edbc8e2a8697c15331677e6ebf0b0a801ca0d34d8f7f3eece3c61c5f40d338306d40a09ff2ba8ac79f2a522229c2150e294da06e0144aea16ff6a86a647bc0ea9fc7d33d8f16548a3600b6cecc7bba59628428f867048203e888199999999999999994aaaf5374fce5edbc8e2a8697c15331677e6ebf0b0a801ba0f58a4c7c9cafe24891ae8c16f6e80bec813e1dfa1e663e80ad9df116b1479f7ea005489de5b6775e28344623d527ee734090e3901ad64927ef0e7601fcad73929df867058203e888199999999999999994aaaf5374fce5edbc8e2a8697c15331677e6ebf0b0a801ca0501300245e959b5e60dab0111f86ebfae9d730c7ae2b011d09b60d19ecf2a7a7a020f3787dff422a4a8f625da9217a005dd93256c65cbb790033c0993f26672478f862068203e88398968094aaaf5374fce5edbc8e2a8697c15331677e6ebf0b0a801ba0902e0f1c119657916619689f06799b68fd3b968f6d008f954ced9098bd5619aea0176a4c13ff8561516221267d043dafd5c8e482a197e6dd94ca45c6bdcbe71508c0c0",
                "transactions" : [
                    {
                        "data" : "0x",
                        "gasLimit" : "0x1999999999999999",
                        "gasPrice" : "0x03e8",
                        "nonce" : "0x00",
                        "signature" : "0x8956111f06df323b59c3f6e0f13cae20e0971f08a9ff564f519d7c77952489b9",
                        "s" : "0x0f1e7504b08e4deb93bcf4d51c76c881fc6a80aa0dbd9297022f43ecc4cdd1cc",
                        "sender" : "Za94f5374fce5edbc8e2a8697c15331677e6ebf0b",
                        "to" : "Zaaaf5374fce5edbc8e2a8697c15331677e6ebf0b",
                        "v" : "0x1c",
                        "value" : "0x0a"
                    },
                    {
                        "data" : "0x",
                        "gasLimit" : "0x1999999999999999",
                        "gasPrice" : "0x03e8",
                        "nonce" : "0x01",
                        "signature" : "0xff77dfbe0dd9fe8ba30a6f32bea244f7147597d6ad9bad7985b3c0b7daa25f70",
                        "s" : "0x111584c4e93b74e2180c4afb2f67d545eb4ff09ac160d8704e2361aee9aa22fc",
                        "sender" : "Za94f5374fce5edbc8e2a8697c15331677e6ebf0b",
                        "to" : "Zaaaf5374fce5edbc8e2a8697c15331677e6ebf0b",
                        "v" : "0x1b",
                        "value" : "0x0a"
                    },
                    {
                        "data" : "0x",
                        "gasLimit" : "0x1999999999999999",
                        "gasPrice" : "0x03e8",
                        "nonce" : "0x02",
                        "signature" : "0xacf38f1819e3cde57ae3c30c69b5d9d9966dbe057d5a774029e5633827fb8b0f",
                        "s" : "0xb1fad558ce2da5b030787cf658249b44a1ac20a5860c61049b3eb4cb47c786",
                        "sender" : "Za94f5374fce5edbc8e2a8697c15331677e6ebf0b",
                        "to" : "Zaaaf5374fce5edbc8e2a8697c15331677e6ebf0b",
                        "v" : "0x1b",
                        "value" : "0x0a"
                    },
                    {
                        "data" : "0x",
                        "gasLimit" : "0x1999999999999999",
                        "gasPrice" : "0x03e8",
                        "nonce" : "0x03",
                        "signature" : "0xd34d8f7f3eece3c61c5f40d338306d40a09ff2ba8ac79f2a522229c2150e294d",
                        "s" : "0x6e0144aea16ff6a86a647bc0ea9fc7d33d8f16548a3600b6cecc7bba59628428",
                        "sender" : "Za94f5374fce5edbc8e2a8697c15331677e6ebf0b",
                        "to" : "Zaaaf5374fce5edbc8e2a8697c15331677e6ebf0b",
                        "v" : "0x1c",
                        "value" : "0x0a"
                    },
                    {
                        "data" : "0x",
                        "gasLimit" : "0x1999999999999999",
                        "gasPrice" : "0x03e8",
                        "nonce" : "0x04",
                        "signature" : "0xf58a4c7c9cafe24891ae8c16f6e80bec813e1dfa1e663e80ad9df116b1479f7e",
                        "s" : "0x05489de5b6775e28344623d527ee734090e3901ad64927ef0e7601fcad73929d",
                        "sender" : "Za94f5374fce5edbc8e2a8697c15331677e6ebf0b",
                        "to" : "Zaaaf5374fce5edbc8e2a8697c15331677e6ebf0b",
                        "v" : "0x1b",
                        "value" : "0x0a"
                    },
                    {
                        "data" : "0x",
                        "gasLimit" : "0x1999999999999999",
                        "gasPrice" : "0x03e8",
                        "nonce" : "0x05",
                        "signature" : "0x501300245e959b5e60dab0111f86ebfae9d730c7ae2b011d09b60d19ecf2a7a7",
                        "s" : "0x20f3787dff422a4a8f625da9217a005dd93256c65cbb790033c0993f26672478",
                        "sender" : "Za94f5374fce5edbc8e2a8697c15331677e6ebf0b",
                        "to" : "Zaaaf5374fce5edbc8e2a8697c15331677e6ebf0b",
                        "v" : "0x1c",
                        "value" : "0x0a"
                    },
                    {
                        "data" : "0x",
                        "gasLimit" : "0x989680",
                        "gasPrice" : "0x03e8",
                        "nonce" : "0x06",
                        "signature" : "0x902e0f1c119657916619689f06799b68fd3b968f6d008f954ced9098bd5619ae",
                        "s" : "0x176a4c13ff8561516221267d043dafd5c8e482a197e6dd94ca45c6bdcbe71508",
                        "sender" : "Za94f5374fce5edbc8e2a8697c15331677e6ebf0b",
                        "to" : "Zaaaf5374fce5edbc8e2a8697c15331677e6ebf0b",
                        "v" : "0x1b",
                        "value" : "0x0a"
                    }
                ],
                "uncleHeaders" : [
                ],
                "withdrawals" : [
                ]
            }
        ],
        "config" : {
            "blobSchedule" : {
                "Cancun" : {
                    "baseFeeUpdateFraction" : "0x32f0ed",
                    "max" : "0x06",
                    "target" : "0x03"
                }
            },
            "chainid" : "0x01",
            "network" : "Cancun"
        },
        "genesisBlockHeader" : {
            "baseFeePerGas" : "0x10",
            "bloom" : "0x00000000000000000000000000000000000000000000000000000000000000000000000000000000000000000000000000000000000000000000000000000000000000000000000000000000000000000000000000000000000000000000000000000000000000000000000000000000000000000000000000000000000000000000000000000000000000000000000000000000000000000000000000000000000000000000000000000000000000000000000000000000000000000000000000000000000000000000000000000000000000000000000000000000000000000000000000000000000000000000000000000000000000000000000000000000",
            "coinbase" : "Z8888f1f195afa192cfee860698584c030f4c9db1",
            "extraData" : "0x42",
            "gasLimit" : "0x7fffffffffffffff",
            "gasUsed" : "0x00",
            "hash" : "0xa85dba21ae34652546ce486a53bceb5b3b2186d082874e336cfd94fd8ab9daa6",
            "mixHash" : "0x0000000000000000000000000000000000000000000000000000000000020000",
            "nonce" : "0x0000000000000000",
            "number" : "0x00",
            "parentHash" : "0x0000000000000000000000000000000000000000000000000000000000000000",
            "receiptTrie" : "0x56e81f171bcc55a6ff8345e692c0f86e5b48e01b996cadc001622fb5e363b421",
            "stateRoot" : "0xddb58e2c42a9c584402e10b7fd904317c6e87def2c208cb549577d44a1bb6e31",
            "timestamp" : "0x54c98c81",
            "transactionsTrie" : "0x56e81f171bcc55a6ff8345e692c0f86e5b48e01b996cadc001622fb5e363b421",
            "withdrawalsRoot" : "0x56e81f171bcc55a6ff8345e692c0f86e5b48e01b996cadc001622fb5e363b421"
        },
        "genesisRLP" : "0xf90244f9023ea00000000000000000000000000000000000000000000000000000000000000000a01dcc4de8dec75d7aab85b567b6ccd41ad312451b948a7413f0a142fd40d49347948888f1f195afa192cfee860698584c030f4c9db1a0ddb58e2c42a9c584402e10b7fd904317c6e87def2c208cb549577d44a1bb6e31a056e81f171bcc55a6ff8345e692c0f86e5b48e01b996cadc001622fb5e363b421a056e81f171bcc55a6ff8345e692c0f86e5b48e01b996cadc001622fb5e363b421b90100000000000000000000000000000000000000000000000000000000000000000000000000000000000000000000000000000000000000000000000000000000000000000000000000000000000000000000000000000000000000000000000000000000000000000000000000000000000000000000000000000000000000000000000000000000000000000000000000000000000000000000000000000000000000000000000000000000000000000000000000000000000000000000000000000000000000000000000000000000000000000000000000000000000000000000000000000000000000000000000000000000000000000000000000000000008080887fffffffffffffff808454c98c8142a0000000000000000000000000000000000000000000000000000000000002000088000000000000000010a056e81f171bcc55a6ff8345e692c0f86e5b48e01b996cadc001622fb5e363b4218080a00000000000000000000000000000000000000000000000000000000000000000c0c0c0",
        "lastblockhash" : "0x6e29659a21d3eb453e5e007d7ab42d66ed645addf07f59905274c751fc5d1872",
        "network" : "Cancun",
        "postState" : {
            "0x000f3df6d732807ef1319fb7b8bb8522d0beac02" : {
                "balance" : "0x00",
                "code" : "0x3373fffffffffffffffffffffffffffffffffffffffe14604d57602036146024575f5ffd5b5f35801560495762001fff810690815414603c575f5ffd5b62001fff01545f5260205ff35b5f5ffd5b62001fff42064281555f359062001fff015500",
                "nonce" : "0x01",
                "storage" : {
                    "0x12e2" : "0x54c98c81",
                    "0x16ca" : "0x54c99069"
                }
            },
            "0x8888f1f195afa192cfee860698584c030f4c9db1" : {
                "balance" : "0x08a3a3b0",
                "code" : "0x",
                "nonce" : "0x00",
                "storage" : {
                }
            },
            "0xa94f5374fce5edbc8e2a8697c15331677e6ebf0b" : {
                "balance" : "0x4a723dc6b40b8a913cf4fa",
                "code" : "0x",
                "nonce" : "0x07",
                "storage" : {
                }
            },
            "0xaaaf5374fce5edbc8e2a8697c15331677e6ebf0b" : {
                "balance" : "0x46",
                "code" : "0x",
                "nonce" : "0x01",
                "storage" : {
                }
            }
        },
        "pre" : {
            "0x000f3df6d732807ef1319fb7b8bb8522d0beac02" : {
                "balance" : "0x00",
                "code" : "0x3373fffffffffffffffffffffffffffffffffffffffe14604d57602036146024575f5ffd5b5f35801560495762001fff810690815414603c575f5ffd5b62001fff01545f5260205ff35b5f5ffd5b62001fff42064281555f359062001fff015500",
                "nonce" : "0x01",
                "storage" : {
                    "0x12e2" : "0x54c98c81"
                }
            },
            "0xa94f5374fce5edbc8e2a8697c15331677e6ebf0b" : {
                "balance" : "0x4a723dc6b40b8a9a000000",
                "code" : "0x",
                "nonce" : "0x00",
                "storage" : {
                }
            },
            "0xaaaf5374fce5edbc8e2a8697c15331677e6ebf0b" : {
                "balance" : "0x00",
                "code" : "0x",
                "nonce" : "0x01",
                "storage" : {
                }
            }
        },
        "sealEngine" : "NoProof"
    },
    "TransactionGasHigherThanLimit2p63m1_Prague" : {
        "_info" : {
            "comment" : "",
            "filling-rpc-server" : "evmone-t8n 0.14.0-13+commit.4d363c36",
            "filling-tool-version" : "retesteth-0.3.2-legacy+commit.ca7f4c79.Linux.g++",
            "fixture-format" : "blockchain_test",
            "generatedTestHash" : "130df1fce74bb097746ac27219fa8815fe4fb366dd19cd3081b8aa077cd4d7bf",
            "lllcversion" : "Version: 0.5.14-develop.2024.11.5+commit.b2b86751.mod.Linux.g++",
            "hyperion" : "Version: 0.8.24+commit.e11b9ed9.Linux.g++",
            "source" : "src/BlockchainTestsFiller/ValidBlocks/bcBlockGasLimitTest/TransactionGasHigherThanLimit2p63m1Filler.json",
            "sourceHash" : "b5033752e399eeb6ce2a62c0088b82bf9e883b5f27fe756f4c579cbd85eef284"
        },
        "blocks" : [
            {
                "blockHeader" : {
                    "baseFeePerGas" : "0x0e",
                    "bloom" : "0x00000000000000000000000000000000000000000000000000000000000000000000000000000000000000000000000000000000000000000000000000000000000000000000000000000000000000000000000000000000000000000000000000000000000000000000000000000000000000000000000000000000000000000000000000000000000000000000000000000000000000000000000000000000000000000000000000000000000000000000000000000000000000000000000000000000000000000000000000000000000000000000000000000000000000000000000000000000000000000000000000000000000000000000000000000000",
                    "coinbase" : "Z8888f1f195afa192cfee860698584c030f4c9db1",
                    "extraData" : "0x42",
                    "gasLimit" : "0x7fffffffffffffff",
                    "gasUsed" : "0x023e38",
                    "hash" : "0x9b8610e7cd6160d21ceaf16ad55cfc210c4f2ffbca3110893f02665ce21c4e38",
                    "mixHash" : "0x0000000000000000000000000000000000000000000000000000000000020000",
                    "nonce" : "0x0000000000000000",
                    "number" : "0x01",
                    "parentHash" : "0x7f69fd9e7e7fcab11e9bff1e4bad019ccf20caaaeec93475ae01f923404e6a1d",
                    "receiptTrie" : "0x3b20ef68d6c58564b0864d53956edaa113c0f0bcae99d5f2b2797cc020a9ab37",
                    "requestsHash" : "0xe3b0c44298fc1c149afbf4c8996fb92427ae41e4649b934ca495991b7852b855",
                    "stateRoot" : "0xc7a65166ca8dddda340e01d379f89c69e156a58c6b235f5869e89aeb8fb7bc37",
                    "timestamp" : "0x54c99069",
                    "transactionsTrie" : "0x3d2d610c77ee6474a729e6bb1acad6dc81fa3f1e6139fc82044862ec886aa117",
                    "withdrawalsRoot" : "0x56e81f171bcc55a6ff8345e692c0f86e5b48e01b996cadc001622fb5e363b421"
                },
                "blocknumber" : "1",
                "chainname" : "default",
                "rlp" : "0xf90543f90262a07f69fd9e7e7fcab11e9bff1e4bad019ccf20caaaeec93475ae01f923404e6a1da01dcc4de8dec75d7aab85b567b6ccd41ad312451b948a7413f0a142fd40d49347948888f1f195afa192cfee860698584c030f4c9db1a0c7a65166ca8dddda340e01d379f89c69e156a58c6b235f5869e89aeb8fb7bc37a03d2d610c77ee6474a729e6bb1acad6dc81fa3f1e6139fc82044862ec886aa117a03b20ef68d6c58564b0864d53956edaa113c0f0bcae99d5f2b2797cc020a9ab37b90100000000000000000000000000000000000000000000000000000000000000000000000000000000000000000000000000000000000000000000000000000000000000000000000000000000000000000000000000000000000000000000000000000000000000000000000000000000000000000000000000000000000000000000000000000000000000000000000000000000000000000000000000000000000000000000000000000000000000000000000000000000000000000000000000000000000000000000000000000000000000000000000000000000000000000000000000000000000000000000000000000000000000000000000000000000008001887fffffffffffffff83023e388454c9906942a000000000000000000000000000000000000000000000000000000000000200008800000000000000000ea056e81f171bcc55a6ff8345e692c0f86e5b48e01b996cadc001622fb5e363b4218080a00000000000000000000000000000000000000000000000000000000000000000a0e3b0c44298fc1c149afbf4c8996fb92427ae41e4649b934ca495991b7852b855f902d9f867808203e888199999999999999994aaaf5374fce5edbc8e2a8697c15331677e6ebf0b0a801ca08956111f06df323b59c3f6e0f13cae20e0971f08a9ff564f519d7c77952489b9a00f1e7504b08e4deb93bcf4d51c76c881fc6a80aa0dbd9297022f43ecc4cdd1ccf867018203e888199999999999999994aaaf5374fce5edbc8e2a8697c15331677e6ebf0b0a801ba0ff77dfbe0dd9fe8ba30a6f32bea244f7147597d6ad9bad7985b3c0b7daa25f70a0111584c4e93b74e2180c4afb2f67d545eb4ff09ac160d8704e2361aee9aa22fcf866028203e888199999999999999994aaaf5374fce5edbc8e2a8697c15331677e6ebf0b0a801ba0acf38f1819e3cde57ae3c30c69b5d9d9966dbe057d5a774029e5633827fb8b0f9fb1fad558ce2da5b030787cf658249b44a1ac20a5860c61049b3eb4cb47c786f867038203e888199999999999999994aaaf5374fce5edbc8e2a8697c15331677e6ebf0b0a801ca0d34d8f7f3eece3c61c5f40d338306d40a09ff2ba8ac79f2a522229c2150e294da06e0144aea16ff6a86a647bc0ea9fc7d33d8f16548a3600b6cecc7bba59628428f867048203e888199999999999999994aaaf5374fce5edbc8e2a8697c15331677e6ebf0b0a801ba0f58a4c7c9cafe24891ae8c16f6e80bec813e1dfa1e663e80ad9df116b1479f7ea005489de5b6775e28344623d527ee734090e3901ad64927ef0e7601fcad73929df867058203e888199999999999999994aaaf5374fce5edbc8e2a8697c15331677e6ebf0b0a801ca0501300245e959b5e60dab0111f86ebfae9d730c7ae2b011d09b60d19ecf2a7a7a020f3787dff422a4a8f625da9217a005dd93256c65cbb790033c0993f26672478f862068203e88398968094aaaf5374fce5edbc8e2a8697c15331677e6ebf0b0a801ba0902e0f1c119657916619689f06799b68fd3b968f6d008f954ced9098bd5619aea0176a4c13ff8561516221267d043dafd5c8e482a197e6dd94ca45c6bdcbe71508c0c0",
                "transactions" : [
                    {
                        "data" : "0x",
                        "gasLimit" : "0x1999999999999999",
                        "gasPrice" : "0x03e8",
                        "nonce" : "0x00",
                        "signature" : "0x8956111f06df323b59c3f6e0f13cae20e0971f08a9ff564f519d7c77952489b9",
                        "s" : "0x0f1e7504b08e4deb93bcf4d51c76c881fc6a80aa0dbd9297022f43ecc4cdd1cc",
                        "sender" : "Za94f5374fce5edbc8e2a8697c15331677e6ebf0b",
                        "to" : "Zaaaf5374fce5edbc8e2a8697c15331677e6ebf0b",
                        "v" : "0x1c",
                        "value" : "0x0a"
                    },
                    {
                        "data" : "0x",
                        "gasLimit" : "0x1999999999999999",
                        "gasPrice" : "0x03e8",
                        "nonce" : "0x01",
                        "signature" : "0xff77dfbe0dd9fe8ba30a6f32bea244f7147597d6ad9bad7985b3c0b7daa25f70",
                        "s" : "0x111584c4e93b74e2180c4afb2f67d545eb4ff09ac160d8704e2361aee9aa22fc",
                        "sender" : "Za94f5374fce5edbc8e2a8697c15331677e6ebf0b",
                        "to" : "Zaaaf5374fce5edbc8e2a8697c15331677e6ebf0b",
                        "v" : "0x1b",
                        "value" : "0x0a"
                    },
                    {
                        "data" : "0x",
                        "gasLimit" : "0x1999999999999999",
                        "gasPrice" : "0x03e8",
                        "nonce" : "0x02",
                        "signature" : "0xacf38f1819e3cde57ae3c30c69b5d9d9966dbe057d5a774029e5633827fb8b0f",
                        "s" : "0xb1fad558ce2da5b030787cf658249b44a1ac20a5860c61049b3eb4cb47c786",
                        "sender" : "Za94f5374fce5edbc8e2a8697c15331677e6ebf0b",
                        "to" : "Zaaaf5374fce5edbc8e2a8697c15331677e6ebf0b",
                        "v" : "0x1b",
                        "value" : "0x0a"
                    },
                    {
                        "data" : "0x",
                        "gasLimit" : "0x1999999999999999",
                        "gasPrice" : "0x03e8",
                        "nonce" : "0x03",
                        "signature" : "0xd34d8f7f3eece3c61c5f40d338306d40a09ff2ba8ac79f2a522229c2150e294d",
                        "s" : "0x6e0144aea16ff6a86a647bc0ea9fc7d33d8f16548a3600b6cecc7bba59628428",
                        "sender" : "Za94f5374fce5edbc8e2a8697c15331677e6ebf0b",
                        "to" : "Zaaaf5374fce5edbc8e2a8697c15331677e6ebf0b",
                        "v" : "0x1c",
                        "value" : "0x0a"
                    },
                    {
                        "data" : "0x",
                        "gasLimit" : "0x1999999999999999",
                        "gasPrice" : "0x03e8",
                        "nonce" : "0x04",
                        "signature" : "0xf58a4c7c9cafe24891ae8c16f6e80bec813e1dfa1e663e80ad9df116b1479f7e",
                        "s" : "0x05489de5b6775e28344623d527ee734090e3901ad64927ef0e7601fcad73929d",
                        "sender" : "Za94f5374fce5edbc8e2a8697c15331677e6ebf0b",
                        "to" : "Zaaaf5374fce5edbc8e2a8697c15331677e6ebf0b",
                        "v" : "0x1b",
                        "value" : "0x0a"
                    },
                    {
                        "data" : "0x",
                        "gasLimit" : "0x1999999999999999",
                        "gasPrice" : "0x03e8",
                        "nonce" : "0x05",
                        "signature" : "0x501300245e959b5e60dab0111f86ebfae9d730c7ae2b011d09b60d19ecf2a7a7",
                        "s" : "0x20f3787dff422a4a8f625da9217a005dd93256c65cbb790033c0993f26672478",
                        "sender" : "Za94f5374fce5edbc8e2a8697c15331677e6ebf0b",
                        "to" : "Zaaaf5374fce5edbc8e2a8697c15331677e6ebf0b",
                        "v" : "0x1c",
                        "value" : "0x0a"
                    },
                    {
                        "data" : "0x",
                        "gasLimit" : "0x989680",
                        "gasPrice" : "0x03e8",
                        "nonce" : "0x06",
                        "signature" : "0x902e0f1c119657916619689f06799b68fd3b968f6d008f954ced9098bd5619ae",
                        "s" : "0x176a4c13ff8561516221267d043dafd5c8e482a197e6dd94ca45c6bdcbe71508",
                        "sender" : "Za94f5374fce5edbc8e2a8697c15331677e6ebf0b",
                        "to" : "Zaaaf5374fce5edbc8e2a8697c15331677e6ebf0b",
                        "v" : "0x1b",
                        "value" : "0x0a"
                    }
                ],
                "uncleHeaders" : [
                ],
                "withdrawals" : [
                ]
            }
        ],
        "config" : {
            "blobSchedule" : {
                "Prague" : {
                    "baseFeeUpdateFraction" : "0x4c6964",
                    "max" : "0x09",
                    "target" : "0x06"
                }
            },
            "chainid" : "0x01",
            "network" : "Prague"
        },
        "genesisBlockHeader" : {
            "baseFeePerGas" : "0x10",
            "bloom" : "0x00000000000000000000000000000000000000000000000000000000000000000000000000000000000000000000000000000000000000000000000000000000000000000000000000000000000000000000000000000000000000000000000000000000000000000000000000000000000000000000000000000000000000000000000000000000000000000000000000000000000000000000000000000000000000000000000000000000000000000000000000000000000000000000000000000000000000000000000000000000000000000000000000000000000000000000000000000000000000000000000000000000000000000000000000000000",
            "coinbase" : "Z8888f1f195afa192cfee860698584c030f4c9db1",
            "extraData" : "0x42",
            "gasLimit" : "0x7fffffffffffffff",
            "gasUsed" : "0x00",
            "hash" : "0x7f69fd9e7e7fcab11e9bff1e4bad019ccf20caaaeec93475ae01f923404e6a1d",
            "mixHash" : "0x0000000000000000000000000000000000000000000000000000000000020000",
            "nonce" : "0x0000000000000000",
            "number" : "0x00",
            "parentHash" : "0x0000000000000000000000000000000000000000000000000000000000000000",
            "receiptTrie" : "0x56e81f171bcc55a6ff8345e692c0f86e5b48e01b996cadc001622fb5e363b421",
            "requestsHash" : "0xe3b0c44298fc1c149afbf4c8996fb92427ae41e4649b934ca495991b7852b855",
            "stateRoot" : "0x5e19228870eee02a0fb4650974265a3e21e22dd7c8ec047abfb98ef650691ac3",
            "timestamp" : "0x54c98c81",
            "transactionsTrie" : "0x56e81f171bcc55a6ff8345e692c0f86e5b48e01b996cadc001622fb5e363b421",
            "withdrawalsRoot" : "0x56e81f171bcc55a6ff8345e692c0f86e5b48e01b996cadc001622fb5e363b421"
        },
        "genesisRLP" : "0xf90265f9025fa00000000000000000000000000000000000000000000000000000000000000000a01dcc4de8dec75d7aab85b567b6ccd41ad312451b948a7413f0a142fd40d49347948888f1f195afa192cfee860698584c030f4c9db1a05e19228870eee02a0fb4650974265a3e21e22dd7c8ec047abfb98ef650691ac3a056e81f171bcc55a6ff8345e692c0f86e5b48e01b996cadc001622fb5e363b421a056e81f171bcc55a6ff8345e692c0f86e5b48e01b996cadc001622fb5e363b421b90100000000000000000000000000000000000000000000000000000000000000000000000000000000000000000000000000000000000000000000000000000000000000000000000000000000000000000000000000000000000000000000000000000000000000000000000000000000000000000000000000000000000000000000000000000000000000000000000000000000000000000000000000000000000000000000000000000000000000000000000000000000000000000000000000000000000000000000000000000000000000000000000000000000000000000000000000000000000000000000000000000000000000000000000000000000008080887fffffffffffffff808454c98c8142a0000000000000000000000000000000000000000000000000000000000002000088000000000000000010a056e81f171bcc55a6ff8345e692c0f86e5b48e01b996cadc001622fb5e363b4218080a00000000000000000000000000000000000000000000000000000000000000000a0e3b0c44298fc1c149afbf4c8996fb92427ae41e4649b934ca495991b7852b855c0c0c0",
        "lastblockhash" : "0x9b8610e7cd6160d21ceaf16ad55cfc210c4f2ffbca3110893f02665ce21c4e38",
        "network" : "Prague",
        "postState" : {
            "0x0000f90827f1c53a10cb7a02335b175320002935" : {
                "balance" : "0x00",
                "code" : "0x3373fffffffffffffffffffffffffffffffffffffffe14604657602036036042575f35600143038111604257611fff81430311604257611fff9006545f5260205ff35b5f5ffd5b5f35611fff60014303065500",
                "nonce" : "0x01",
                "storage" : {
                    "0x00" : "0x7f69fd9e7e7fcab11e9bff1e4bad019ccf20caaaeec93475ae01f923404e6a1d"
                }
            },
            "0x000f3df6d732807ef1319fb7b8bb8522d0beac02" : {
                "balance" : "0x00",
                "code" : "0x3373fffffffffffffffffffffffffffffffffffffffe14604d57602036146024575f5ffd5b5f35801560495762001fff810690815414603c575f5ffd5b62001fff01545f5260205ff35b5f5ffd5b62001fff42064281555f359062001fff015500",
                "nonce" : "0x01",
                "storage" : {
                    "0x12e2" : "0x54c98c81",
                    "0x16ca" : "0x54c99069"
                }
            },
            "0x8888f1f195afa192cfee860698584c030f4c9db1" : {
                "balance" : "0x08a3a3b0",
                "code" : "0x",
                "nonce" : "0x00",
                "storage" : {
                }
            },
            "0xa94f5374fce5edbc8e2a8697c15331677e6ebf0b" : {
                "balance" : "0x4a723dc6b40b8a913cf4fa",
                "code" : "0x",
                "nonce" : "0x07",
                "storage" : {
                }
            },
            "0xaaaf5374fce5edbc8e2a8697c15331677e6ebf0b" : {
                "balance" : "0x46",
                "code" : "0x",
                "nonce" : "0x01",
                "storage" : {
                }
            }
        },
        "pre" : {
            "0x0000f90827f1c53a10cb7a02335b175320002935" : {
                "balance" : "0x00",
                "code" : "0x3373fffffffffffffffffffffffffffffffffffffffe14604657602036036042575f35600143038111604257611fff81430311604257611fff9006545f5260205ff35b5f5ffd5b5f35611fff60014303065500",
                "nonce" : "0x01",
                "storage" : {
                }
            },
            "0x000f3df6d732807ef1319fb7b8bb8522d0beac02" : {
                "balance" : "0x00",
                "code" : "0x3373fffffffffffffffffffffffffffffffffffffffe14604d57602036146024575f5ffd5b5f35801560495762001fff810690815414603c575f5ffd5b62001fff01545f5260205ff35b5f5ffd5b62001fff42064281555f359062001fff015500",
                "nonce" : "0x01",
                "storage" : {
                    "0x12e2" : "0x54c98c81"
                }
            },
            "0xa94f5374fce5edbc8e2a8697c15331677e6ebf0b" : {
                "balance" : "0x4a723dc6b40b8a9a000000",
                "code" : "0x",
                "nonce" : "0x00",
                "storage" : {
                }
            },
            "0xaaaf5374fce5edbc8e2a8697c15331677e6ebf0b" : {
                "balance" : "0x00",
                "code" : "0x",
                "nonce" : "0x01",
                "storage" : {
                }
            }
        },
        "sealEngine" : "NoProof"
    }
}