{
    "SstoreCallToSelfSubRefundBelowZero_d0g0v0_Cancun" : {
        "_info" : {
            "comment" : "Test where accnt has slot 1 value of '2', is cleared, then calls itself and overwrites with '3', causing a refund-deduction in second call context",
            "filling-rpc-server" : "evmone-t8n 0.14.0-13+commit.4d363c36",
            "filling-tool-version" : "retesteth-0.3.2-legacy+commit.ca7f4c79.Linux.g++",
            "fixture-format" : "blockchain_test",
            "generatedTestHash" : "c131fe149f9d71b5edf094b0c0994da1ad0f957ad6e431a35d47a25b78eada34",
            "lllcversion" : "Version: 0.5.14-develop.2024.11.5+commit.b2b86751.mod.Linux.g++",
            "hyperion" : "Version: 0.8.24+commit.e11b9ed9.Linux.g++",
            "source" : "src/GeneralStateTestsFiller/stSStoreTest/SstoreCallToSelfSubRefundBelowZeroFiller.json",
            "sourceHash" : "4096f8bdbeff6a744c618ef9bf1c97b4615045401d3e4fd346a4fa69829c9146"
        },
        "blocks" : [
            {
                "blockHeader" : {
                    "baseFeePerGas" : "0x0a",
                    "bloom" : "0x00000000000000000000000000000000000000000000000000000000000000000000000000000000000000000000000000000000000000000000000000000000000000000000000000000000000000000000000000000000000000000000000000000000000000000000000000000000000000000000000000000000000000000000000000000000000000000000000000000000000000000000000000000000000000000000000000000000000000000000000000000000000000000000000000000000000000000000000000000000000000000000000000000000000000000000000000000000000000000000000000000000000000000000000000000000",
                    "coinbase" : "Z2adc25665018aa1fe0e6bc666dac8fc2697ff9ba",
                    "extraData" : "0x00",
                    "gasLimit" : "0x1000000000",
                    "gasUsed" : "0x66a0",
                    "hash" : "0xb1ff1df7614e9bb11d39449623f8f0c70ef35e04519b5674fee67dc9c321773a",
                    "mixHash" : "0x0000000000000000000000000000000000000000000000000000000000020000",
                    "nonce" : "0x0000000000000000",
                    "number" : "0x01",
                    "parentHash" : "0xd73467bdde54027bb8e120ee2b574da007154e33aae420e12f0993dbef7c77c3",
                    "receiptTrie" : "0x97b2d63c140dbec3f69631e5001af31ba6541603b5513eb4e9b5e59215abd618",
                    "stateRoot" : "0x0bc2d57da8e5dec596b5c9a589e34d33dc8f45e5049c400a6d1ef71cf82b82ad",
                    "timestamp" : "0x03e8",
                    "transactionsTrie" : "0x433e30fb9026df6794f48d6adf02d12c677e7c379d040918da722b84f4741475",
                    "withdrawalsRoot" : "0x56e81f171bcc55a6ff8345e692c0f86e5b48e01b996cadc001622fb5e363b421"
                },
                "rlp" : "0xf902a4f9023ba0d73467bdde54027bb8e120ee2b574da007154e33aae420e12f0993dbef7c77c3a01dcc4de8dec75d7aab85b567b6ccd41ad312451b948a7413f0a142fd40d49347942adc25665018aa1fe0e6bc666dac8fc2697ff9baa00bc2d57da8e5dec596b5c9a589e34d33dc8f45e5049c400a6d1ef71cf82b82ada0433e30fb9026df6794f48d6adf02d12c677e7c379d040918da722b84f4741475a097b2d63c140dbec3f69631e5001af31ba6541603b5513eb4e9b5e59215abd618b901000000000000000000000000000000000000000000000000000000000000000000000000000000000000000000000000000000000000000000000000000000000000000000000000000000000000000000000000000000000000000000000000000000000000000000000000000000000000000000000000000000000000000000000000000000000000000000000000000000000000000000000000000000000000000000000000000000000000000000000000000000000000000000000000000000000000000000000000000000000000000000000000000000000000000000000000000000000000000000000000000000000000000000000000000000000080018510000000008266a08203e800a000000000000000000000000000000000000000000000000000000000000200008800000000000000000aa056e81f171bcc55a6ff8345e692c0f86e5b48e01b996cadc001622fb5e363b4218080a00000000000000000000000000000000000000000000000000000000000000000f862f860800a83241eb294e12d6474ac4964b9f23812bf3375c1fe637ad3b680801ca0a741ffeab77b8649b366d54b4606b872893f71fc29e79128a87856e46f3f2d3aa01b562e9e99ba1325376209f4e774e91a8f6ad7d638070b550d32d5c471ec3fe9c0c0",
                "transactions" : [
                    {
                        "data" : "0x",
                        "gasLimit" : "0x241eb2",
                        "gasPrice" : "0x0a",
                        "nonce" : "0x00",
                        "signature" : "0xa741ffeab77b8649b366d54b4606b872893f71fc29e79128a87856e46f3f2d3a",
                        "publicKey" : "0x1b562e9e99ba1325376209f4e774e91a8f6ad7d638070b550d32d5c471ec3fe9",
                        "sender" : "Za94f5374fce5edbc8e2a8697c15331677e6ebf0b",
                        "to" : "Ze12d6474ac4964b9f23812bf3375c1fe637ad3b6",
                        "v" : "0x1c",
                        "value" : "0x00"
                    }
                ],

                "withdrawals" : [
                ]
            }
        ],
        "config" : {
            "blobSchedule" : {
                "Cancun" : {
                    "baseFeeUpdateFraction" : "0x32f0ed",
                    "max" : "0x06",
                    "target" : "0x03"
                }
            },
            "chainid" : "0x01",
            "network" : "Cancun"
        },
        "genesisBlockHeader" : {
            "baseFeePerGas" : "0x0b",
            "bloom" : "0x00000000000000000000000000000000000000000000000000000000000000000000000000000000000000000000000000000000000000000000000000000000000000000000000000000000000000000000000000000000000000000000000000000000000000000000000000000000000000000000000000000000000000000000000000000000000000000000000000000000000000000000000000000000000000000000000000000000000000000000000000000000000000000000000000000000000000000000000000000000000000000000000000000000000000000000000000000000000000000000000000000000000000000000000000000000",
            "coinbase" : "Z2adc25665018aa1fe0e6bc666dac8fc2697ff9ba",
            "extraData" : "0x00",
            "gasLimit" : "0x1000000000",
            "gasUsed" : "0x00",
            "hash" : "0xd73467bdde54027bb8e120ee2b574da007154e33aae420e12f0993dbef7c77c3",
            "mixHash" : "0x0000000000000000000000000000000000000000000000000000000000020000",
            "nonce" : "0x0000000000000000",
            "number" : "0x00",
            "parentHash" : "0x0000000000000000000000000000000000000000000000000000000000000000",
            "receiptTrie" : "0x56e81f171bcc55a6ff8345e692c0f86e5b48e01b996cadc001622fb5e363b421",
            "stateRoot" : "0xe074beb63f54706feecfdf142dc978472126cf8b2eb729a37c823902486fced4",
            "timestamp" : "0x00",
            "transactionsTrie" : "0x56e81f171bcc55a6ff8345e692c0f86e5b48e01b996cadc001622fb5e363b421",
            "withdrawalsRoot" : "0x56e81f171bcc55a6ff8345e692c0f86e5b48e01b996cadc001622fb5e363b421"
        },
        "genesisRLP" : "0xf90240f9023aa00000000000000000000000000000000000000000000000000000000000000000a01dcc4de8dec75d7aab85b567b6ccd41ad312451b948a7413f0a142fd40d49347942adc25665018aa1fe0e6bc666dac8fc2697ff9baa0e074beb63f54706feecfdf142dc978472126cf8b2eb729a37c823902486fced4a056e81f171bcc55a6ff8345e692c0f86e5b48e01b996cadc001622fb5e363b421a056e81f171bcc55a6ff8345e692c0f86e5b48e01b996cadc001622fb5e363b421b90100000000000000000000000000000000000000000000000000000000000000000000000000000000000000000000000000000000000000000000000000000000000000000000000000000000000000000000000000000000000000000000000000000000000000000000000000000000000000000000000000000000000000000000000000000000000000000000000000000000000000000000000000000000000000000000000000000000000000000000000000000000000000000000000000000000000000000000000000000000000000000000000000000000000000000000000000000000000000000000000000000000000000000000000000000000008080851000000000808000a000000000000000000000000000000000000000000000000000000000000200008800000000000000000ba056e81f171bcc55a6ff8345e692c0f86e5b48e01b996cadc001622fb5e363b4218083060000a00000000000000000000000000000000000000000000000000000000000000000c0c0c0",
        "lastblockhash" : "0xb1ff1df7614e9bb11d39449623f8f0c70ef35e04519b5674fee67dc9c321773a",
        "network" : "Cancun",
        "postState" : {
            "0x000f3df6d732807ef1319fb7b8bb8522d0beac02" : {
                "balance" : "0x00",
                "code" : "0x3373fffffffffffffffffffffffffffffffffffffffe14604d57602036146024575f5ffd5b5f35801560495762001fff810690815414603c575f5ffd5b62001fff01545f5260205ff35b5f5ffd5b62001fff42064281555f359062001fff015500",
                "nonce" : "0x01",
                "storage" : {
                    "0x03e8" : "0x03e8"
                }
            },
            "0xa94f5374fce5edbc8e2a8697c15331677e6ebf0b" : {
                "balance" : "0xfffffffffffbfdbf",
                "code" : "0x",
                "nonce" : "0x01",
                "storage" : {
                }
            },
            "0xe12d6474ac4964b9f23812bf3375c1fe637ad3b6" : {
                "balance" : "0x00",
                "code" : "0x3330146015576000600155600080808080305af1005b600360015500",
                "nonce" : "0x00",
                "storage" : {
                    "0x01" : "0x03"
                }
            }
        },
        "pre" : {
            "0x000f3df6d732807ef1319fb7b8bb8522d0beac02" : {
                "balance" : "0x00",
                "code" : "0x3373fffffffffffffffffffffffffffffffffffffffe14604d57602036146024575f5ffd5b5f35801560495762001fff810690815414603c575f5ffd5b62001fff01545f5260205ff35b5f5ffd5b62001fff42064281555f359062001fff015500",
                "nonce" : "0x01",
                "storage" : {
                }
            },
            "0xa94f5374fce5edbc8e2a8697c15331677e6ebf0b" : {
                "balance" : "0xffffffffffffffff",
                "code" : "0x",
                "nonce" : "0x00",
                "storage" : {
                }
            },
            "0xe12d6474ac4964b9f23812bf3375c1fe637ad3b6" : {
                "balance" : "0x00",
                "code" : "0x3330146015576000600155600080808080305af1005b600360015500",
                "nonce" : "0x00",
                "storage" : {
                    "0x01" : "0x02"
                }
            }
        },
        "sealEngine" : "NoProof"
    },
    "SstoreCallToSelfSubRefundBelowZero_d0g0v0_Prague" : {
        "_info" : {
            "comment" : "Test where accnt has slot 1 value of '2', is cleared, then calls itself and overwrites with '3', causing a refund-deduction in second call context",
            "filling-rpc-server" : "evmone-t8n 0.14.0-13+commit.4d363c36",
            "filling-tool-version" : "retesteth-0.3.2-legacy+commit.ca7f4c79.Linux.g++",
            "fixture-format" : "blockchain_test",
            "generatedTestHash" : "59c6060319dfc12aaed65f5821eca48b4387552d10dbd76f1e8a36571ea4cfae",
            "lllcversion" : "Version: 0.5.14-develop.2024.11.5+commit.b2b86751.mod.Linux.g++",
            "hyperion" : "Version: 0.8.24+commit.e11b9ed9.Linux.g++",
            "source" : "src/GeneralStateTestsFiller/stSStoreTest/SstoreCallToSelfSubRefundBelowZeroFiller.json",
            "sourceHash" : "4096f8bdbeff6a744c618ef9bf1c97b4615045401d3e4fd346a4fa69829c9146"
        },
        "blocks" : [
            {
                "blockHeader" : {
                    "baseFeePerGas" : "0x0a",
                    "bloom" : "0x00000000000000000000000000000000000000000000000000000000000000000000000000000000000000000000000000000000000000000000000000000000000000000000000000000000000000000000000000000000000000000000000000000000000000000000000000000000000000000000000000000000000000000000000000000000000000000000000000000000000000000000000000000000000000000000000000000000000000000000000000000000000000000000000000000000000000000000000000000000000000000000000000000000000000000000000000000000000000000000000000000000000000000000000000000000",
                    "coinbase" : "Z2adc25665018aa1fe0e6bc666dac8fc2697ff9ba",
                    "extraData" : "0x00",
                    "gasLimit" : "0x1000000000",
                    "gasUsed" : "0x66a0",
                    "hash" : "0x1092e95a94712309cab0423bde7ea4e896fbf5363a072e4a0ef97334c22edb6c",
                    "mixHash" : "0x0000000000000000000000000000000000000000000000000000000000020000",
                    "nonce" : "0x0000000000000000",
                    "number" : "0x01",
                    "parentHash" : "0xd73b2f88095279dd064a9d2cc2c65c46d17f734af1a617a578c6fe597ce3a4c6",
                    "receiptTrie" : "0x97b2d63c140dbec3f69631e5001af31ba6541603b5513eb4e9b5e59215abd618",
                    "requestsHash" : "0xe3b0c44298fc1c149afbf4c8996fb92427ae41e4649b934ca495991b7852b855",
                    "stateRoot" : "0x266c33f931f8bc3b2d99d33ab2967f0704295b89010780bdb93c2b80a35e3405",
                    "timestamp" : "0x03e8",
                    "transactionsTrie" : "0x433e30fb9026df6794f48d6adf02d12c677e7c379d040918da722b84f4741475",
                    "withdrawalsRoot" : "0x56e81f171bcc55a6ff8345e692c0f86e5b48e01b996cadc001622fb5e363b421"
                },
                "rlp" : "0xf902c5f9025ca0d73b2f88095279dd064a9d2cc2c65c46d17f734af1a617a578c6fe597ce3a4c6a01dcc4de8dec75d7aab85b567b6ccd41ad312451b948a7413f0a142fd40d49347942adc25665018aa1fe0e6bc666dac8fc2697ff9baa0266c33f931f8bc3b2d99d33ab2967f0704295b89010780bdb93c2b80a35e3405a0433e30fb9026df6794f48d6adf02d12c677e7c379d040918da722b84f4741475a097b2d63c140dbec3f69631e5001af31ba6541603b5513eb4e9b5e59215abd618b901000000000000000000000000000000000000000000000000000000000000000000000000000000000000000000000000000000000000000000000000000000000000000000000000000000000000000000000000000000000000000000000000000000000000000000000000000000000000000000000000000000000000000000000000000000000000000000000000000000000000000000000000000000000000000000000000000000000000000000000000000000000000000000000000000000000000000000000000000000000000000000000000000000000000000000000000000000000000000000000000000000000000000000000000000000000080018510000000008266a08203e800a000000000000000000000000000000000000000000000000000000000000200008800000000000000000aa056e81f171bcc55a6ff8345e692c0f86e5b48e01b996cadc001622fb5e363b4218080a00000000000000000000000000000000000000000000000000000000000000000a0e3b0c44298fc1c149afbf4c8996fb92427ae41e4649b934ca495991b7852b855f862f860800a83241eb294e12d6474ac4964b9f23812bf3375c1fe637ad3b680801ca0a741ffeab77b8649b366d54b4606b872893f71fc29e79128a87856e46f3f2d3aa01b562e9e99ba1325376209f4e774e91a8f6ad7d638070b550d32d5c471ec3fe9c0c0",
                "transactions" : [
                    {
                        "data" : "0x",
                        "gasLimit" : "0x241eb2",
                        "gasPrice" : "0x0a",
                        "nonce" : "0x00",
                        "signature" : "0xa741ffeab77b8649b366d54b4606b872893f71fc29e79128a87856e46f3f2d3a",
                        "publicKey" : "0x1b562e9e99ba1325376209f4e774e91a8f6ad7d638070b550d32d5c471ec3fe9",
                        "sender" : "Za94f5374fce5edbc8e2a8697c15331677e6ebf0b",
                        "to" : "Ze12d6474ac4964b9f23812bf3375c1fe637ad3b6",
                        "v" : "0x1c",
                        "value" : "0x00"
                    }
                ],

                "withdrawals" : [
                ]
            }
        ],
        "config" : {
            "blobSchedule" : {
                "Prague" : {
                    "baseFeeUpdateFraction" : "0x4c6964",
                    "max" : "0x09",
                    "target" : "0x06"
                }
            },
            "chainid" : "0x01",
            "network" : "Prague"
        },
        "genesisBlockHeader" : {
            "baseFeePerGas" : "0x0b",
            "bloom" : "0x00000000000000000000000000000000000000000000000000000000000000000000000000000000000000000000000000000000000000000000000000000000000000000000000000000000000000000000000000000000000000000000000000000000000000000000000000000000000000000000000000000000000000000000000000000000000000000000000000000000000000000000000000000000000000000000000000000000000000000000000000000000000000000000000000000000000000000000000000000000000000000000000000000000000000000000000000000000000000000000000000000000000000000000000000000000",
            "coinbase" : "Z2adc25665018aa1fe0e6bc666dac8fc2697ff9ba",
            "extraData" : "0x00",
            "gasLimit" : "0x1000000000",
            "gasUsed" : "0x00",
            "hash" : "0xd73b2f88095279dd064a9d2cc2c65c46d17f734af1a617a578c6fe597ce3a4c6",
            "mixHash" : "0x0000000000000000000000000000000000000000000000000000000000020000",
            "nonce" : "0x0000000000000000",
            "number" : "0x00",
            "parentHash" : "0x0000000000000000000000000000000000000000000000000000000000000000",
            "receiptTrie" : "0x56e81f171bcc55a6ff8345e692c0f86e5b48e01b996cadc001622fb5e363b421",
            "requestsHash" : "0xe3b0c44298fc1c149afbf4c8996fb92427ae41e4649b934ca495991b7852b855",
            "stateRoot" : "0x7f20dfc1f15ca0d0651880f505e778c17e9206c3b5ed6e348a13571ffa1407b7",
            "timestamp" : "0x00",
            "transactionsTrie" : "0x56e81f171bcc55a6ff8345e692c0f86e5b48e01b996cadc001622fb5e363b421",
            "withdrawalsRoot" : "0x56e81f171bcc55a6ff8345e692c0f86e5b48e01b996cadc001622fb5e363b421"
        },
        "genesisRLP" : "0xf90261f9025ba00000000000000000000000000000000000000000000000000000000000000000a01dcc4de8dec75d7aab85b567b6ccd41ad312451b948a7413f0a142fd40d49347942adc25665018aa1fe0e6bc666dac8fc2697ff9baa07f20dfc1f15ca0d0651880f505e778c17e9206c3b5ed6e348a13571ffa1407b7a056e81f171bcc55a6ff8345e692c0f86e5b48e01b996cadc001622fb5e363b421a056e81f171bcc55a6ff8345e692c0f86e5b48e01b996cadc001622fb5e363b421b90100000000000000000000000000000000000000000000000000000000000000000000000000000000000000000000000000000000000000000000000000000000000000000000000000000000000000000000000000000000000000000000000000000000000000000000000000000000000000000000000000000000000000000000000000000000000000000000000000000000000000000000000000000000000000000000000000000000000000000000000000000000000000000000000000000000000000000000000000000000000000000000000000000000000000000000000000000000000000000000000000000000000000000000000000000000008080851000000000808000a000000000000000000000000000000000000000000000000000000000000200008800000000000000000ba056e81f171bcc55a6ff8345e692c0f86e5b48e01b996cadc001622fb5e363b4218083060000a00000000000000000000000000000000000000000000000000000000000000000a0e3b0c44298fc1c149afbf4c8996fb92427ae41e4649b934ca495991b7852b855c0c0c0",
        "lastblockhash" : "0x1092e95a94712309cab0423bde7ea4e896fbf5363a072e4a0ef97334c22edb6c",
        "network" : "Prague",
        "postState" : {
            "0x0000f90827f1c53a10cb7a02335b175320002935" : {
                "balance" : "0x00",
                "code" : "0x3373fffffffffffffffffffffffffffffffffffffffe14604657602036036042575f35600143038111604257611fff81430311604257611fff9006545f5260205ff35b5f5ffd5b5f35611fff60014303065500",
                "nonce" : "0x01",
                "storage" : {
                    "0x00" : "0xd73b2f88095279dd064a9d2cc2c65c46d17f734af1a617a578c6fe597ce3a4c6"
                }
            },
            "0x000f3df6d732807ef1319fb7b8bb8522d0beac02" : {
                "balance" : "0x00",
                "code" : "0x3373fffffffffffffffffffffffffffffffffffffffe14604d57602036146024575f5ffd5b5f35801560495762001fff810690815414603c575f5ffd5b62001fff01545f5260205ff35b5f5ffd5b62001fff42064281555f359062001fff015500",
                "nonce" : "0x01",
                "storage" : {
                    "0x03e8" : "0x03e8"
                }
            },
            "0xa94f5374fce5edbc8e2a8697c15331677e6ebf0b" : {
                "balance" : "0xfffffffffffbfdbf",
                "code" : "0x",
                "nonce" : "0x01",
                "storage" : {
                }
            },
            "0xe12d6474ac4964b9f23812bf3375c1fe637ad3b6" : {
                "balance" : "0x00",
                "code" : "0x3330146015576000600155600080808080305af1005b600360015500",
                "nonce" : "0x00",
                "storage" : {
                    "0x01" : "0x03"
                }
            }
        },
        "pre" : {
            "0x0000f90827f1c53a10cb7a02335b175320002935" : {
                "balance" : "0x00",
                "code" : "0x3373fffffffffffffffffffffffffffffffffffffffe14604657602036036042575f35600143038111604257611fff81430311604257611fff9006545f5260205ff35b5f5ffd5b5f35611fff60014303065500",
                "nonce" : "0x01",
                "storage" : {
                }
            },
            "0x000f3df6d732807ef1319fb7b8bb8522d0beac02" : {
                "balance" : "0x00",
                "code" : "0x3373fffffffffffffffffffffffffffffffffffffffe14604d57602036146024575f5ffd5b5f35801560495762001fff810690815414603c575f5ffd5b62001fff01545f5260205ff35b5f5ffd5b62001fff42064281555f359062001fff015500",
                "nonce" : "0x01",
                "storage" : {
                }
            },
            "0xa94f5374fce5edbc8e2a8697c15331677e6ebf0b" : {
                "balance" : "0xffffffffffffffff",
                "code" : "0x",
                "nonce" : "0x00",
                "storage" : {
                }
            },
            "0xe12d6474ac4964b9f23812bf3375c1fe637ad3b6" : {
                "balance" : "0x00",
                "code" : "0x3330146015576000600155600080808080305af1005b600360015500",
                "nonce" : "0x00",
                "storage" : {
                    "0x01" : "0x02"
                }
            }
        },
        "sealEngine" : "NoProof"
    }
}