{
    "coinbaseT2_d0g0v0_Cancun" : {
        "_info" : {
            "comment" : "Ori Pomerantz qbzzt1@gmail.com",
            "filling-rpc-server" : "evmone-t8n 0.14.0-13+commit.4d363c36",
            "filling-tool-version" : "retesteth-0.3.2-legacy+commit.ca7f4c79.Linux.g++",
            "fixture-format" : "blockchain_test",
            "generatedTestHash" : "9f96b9531727c0e7cfb8f481dff17f3d12199382819864e1e30a51ccbbfb1374",
            "lllcversion" : "Version: 0.5.14-develop.2024.11.5+commit.b2b86751.mod.Linux.g++",
            "hyperion" : "Version: 0.8.24+commit.e11b9ed9.Linux.g++",
            "source" : "src/GeneralStateTestsFiller/stEIP2930/coinbaseT2Filler.yml",
            "sourceHash" : "82c4e11f49c27922afb28f1988bc1e9d5e0b5a8dcf31680007acc78a587b5b3f"
        },
        "blocks" : [
            {
                "blockHeader" : {
                    "baseFeePerGas" : "0x64",
                    "bloom" : "0x00000000000000000000000000000000000000000000000000000000000000000000000000000000000000000000000000000000000000000000000000000000000000000000000000000000000000000000000000000000000000000000000000000000000000000000000000000000000000000000000000000000000000000000000000000000000000000000000000000000000000000000000000000000000000000000000000000000000000000000000000000000000000000000000000000000000000000000000000000000000000000000000000000000000000000000000000000000000000000000000000000000000000000000000000000000",
                    "coinbase" : "Z000000000000000000000000000000000000ba5e",
                    "extraData" : "0x00",
                    "gasLimit" : "0xff112233445566",
                    "gasUsed" : "0xcd50",
                    "hash" : "0x982fb09608cb778967df37e6a9b47f740b11954f3a3bf09f8d27f39dadffb21a",
                    "mixHash" : "0x0000000000000000000000000000000000000000000000000000000000020000",
                    "nonce" : "0x0000000000000000",
                    "number" : "0x01",
                    "parentHash" : "0x3464170dda0a9b23c535a0930c65edffe37ced38709035eb7c21396dc543250f",
                    "receiptTrie" : "0x5f50e43d4cb6276aa201928ef364c6174c37dfd9882f19ba9f037320a4e406d7",
                    "stateRoot" : "0x4fb23b4ccd2579d49ad8f8ff580c9bc2a775c1b774bcb3d38d0a466e0c679302",
                    "timestamp" : "0x03e8",
                    "transactionsTrie" : "0xb56fa9b054b1b9e4dbef267e609bf6555127b04529e81e3bf75672d367eb63e6",
                    "withdrawalsRoot" : "0x56e81f171bcc55a6ff8345e692c0f86e5b48e01b996cadc001622fb5e363b421"
                },
                "rlp" : "0xf902eaf9023da03464170dda0a9b23c535a0930c65edffe37ced38709035eb7c21396dc543250fa01dcc4de8dec75d7aab85b567b6ccd41ad312451b948a7413f0a142fd40d4934794000000000000000000000000000000000000ba5ea04fb23b4ccd2579d49ad8f8ff580c9bc2a775c1b774bcb3d38d0a466e0c679302a0b56fa9b054b1b9e4dbef267e609bf6555127b04529e81e3bf75672d367eb63e6a05f50e43d4cb6276aa201928ef364c6174c37dfd9882f19ba9f037320a4e406d7b9010000000000000000000000000000000000000000000000000000000000000000000000000000000000000000000000000000000000000000000000000000000000000000000000000000000000000000000000000000000000000000000000000000000000000000000000000000000000000000000000000000000000000000000000000000000000000000000000000000000000000000000000000000000000000000000000000000000000000000000000000000000000000000000000000000000000000000000000000000000000000000000000000000000000000000000000000000000000000000000000000000000000000000000000000000000000800187ff11223344556682cd508203e800a0000000000000000000000000000000000000000000000000000000000002000088000000000000000064a056e81f171bcc55a6ff8345e692c0f86e5b48e01b996cadc001622fb5e363b4218080a00000000000000000000000000000000000000000000000000000000000000000f8a6b8a402f8a10101648227108402625a0094000000000000000000000000000000000000c0de80a4693c61390000000000000000000000000000000000000000000000000000000000000000d7d694000000000000000000000000000000000000ba5ec080a0d5a3052a8cc387f35ffdebe832afdfdd45980cdcbb9b926dee7fb9b1d9a4ee08a06210d404eb6aecd05bc214b120959a71ede9fadcae4b769c96c58bffa216f205c0c0",
                "transactions" : [
                    {
                        "accessList" : [
                            {
                                "address" : "0x000000000000000000000000000000000000ba5e",
                                "storageKeys" : [
                                ]
                            }
                        ],
                        "chainId" : "0x01",
                        "data" : "0x693c61390000000000000000000000000000000000000000000000000000000000000000",
                        "gasLimit" : "0x02625a00",
                        "maxFeePerGas" : "0x2710",
                        "maxPriorityFeePerGas" : "0x64",
                        "nonce" : "0x01",
                        "signature" : "0xd5a3052a8cc387f35ffdebe832afdfdd45980cdcbb9b926dee7fb9b1d9a4ee08",
                        "s" : "0x6210d404eb6aecd05bc214b120959a71ede9fadcae4b769c96c58bffa216f205",
                        "sender" : "Za94f5374fce5edbc8e2a8697c15331677e6ebf0b",
                        "to" : "0x000000000000000000000000000000000000c0de",
                        "type" : "0x02",
                        "v" : "0x00",
                        "value" : "0x00"
                    }
                ],
                "uncleHeaders" : [
                ],
                "withdrawals" : [
                ]
            }
        ],
        "config" : {
            "blobSchedule" : {
                "Cancun" : {
                    "baseFeeUpdateFraction" : "0x32f0ed",
                    "max" : "0x06",
                    "target" : "0x03"
                }
            },
            "chainid" : "0x01",
            "network" : "Cancun"
        },
        "genesisBlockHeader" : {
            "baseFeePerGas" : "0x72",
            "bloom" : "0x00000000000000000000000000000000000000000000000000000000000000000000000000000000000000000000000000000000000000000000000000000000000000000000000000000000000000000000000000000000000000000000000000000000000000000000000000000000000000000000000000000000000000000000000000000000000000000000000000000000000000000000000000000000000000000000000000000000000000000000000000000000000000000000000000000000000000000000000000000000000000000000000000000000000000000000000000000000000000000000000000000000000000000000000000000000",
            "coinbase" : "Z000000000000000000000000000000000000ba5e",
            "extraData" : "0x00",
            "gasLimit" : "0xff112233445566",
            "gasUsed" : "0x00",
            "hash" : "0x3464170dda0a9b23c535a0930c65edffe37ced38709035eb7c21396dc543250f",
            "mixHash" : "0x0000000000000000000000000000000000000000000000000000000000020000",
            "nonce" : "0x0000000000000000",
            "number" : "0x00",
            "parentHash" : "0x0000000000000000000000000000000000000000000000000000000000000000",
            "receiptTrie" : "0x56e81f171bcc55a6ff8345e692c0f86e5b48e01b996cadc001622fb5e363b421",
            "stateRoot" : "0x9d1fb42e610c06fdc52307c39af9f07c950b0d98f5b46c35ce32c266706dff4f",
            "timestamp" : "0x00",
            "transactionsTrie" : "0x56e81f171bcc55a6ff8345e692c0f86e5b48e01b996cadc001622fb5e363b421",
            "withdrawalsRoot" : "0x56e81f171bcc55a6ff8345e692c0f86e5b48e01b996cadc001622fb5e363b421"
        },
        "genesisRLP" : "0xf90242f9023ca00000000000000000000000000000000000000000000000000000000000000000a01dcc4de8dec75d7aab85b567b6ccd41ad312451b948a7413f0a142fd40d4934794000000000000000000000000000000000000ba5ea09d1fb42e610c06fdc52307c39af9f07c950b0d98f5b46c35ce32c266706dff4fa056e81f171bcc55a6ff8345e692c0f86e5b48e01b996cadc001622fb5e363b421a056e81f171bcc55a6ff8345e692c0f86e5b48e01b996cadc001622fb5e363b421b9010000000000000000000000000000000000000000000000000000000000000000000000000000000000000000000000000000000000000000000000000000000000000000000000000000000000000000000000000000000000000000000000000000000000000000000000000000000000000000000000000000000000000000000000000000000000000000000000000000000000000000000000000000000000000000000000000000000000000000000000000000000000000000000000000000000000000000000000000000000000000000000000000000000000000000000000000000000000000000000000000000000000000000000000000000000000808087ff112233445566808000a0000000000000000000000000000000000000000000000000000000000002000088000000000000000072a056e81f171bcc55a6ff8345e692c0f86e5b48e01b996cadc001622fb5e363b4218083060000a00000000000000000000000000000000000000000000000000000000000000000c0c0c0",
        "lastblockhash" : "0x982fb09608cb778967df37e6a9b47f740b11954f3a3bf09f8d27f39dadffb21a",
        "network" : "Cancun",
        "postState" : {
            "0x000000000000000000000000000000000000ba5e" : {
                "balance" : "0x5f7580",
                "code" : "0x",
                "nonce" : "0x01",
                "storage" : {
                }
            },
            "0x000000000000000000000000000000000000c0de" : {
                "balance" : "0x0de0b6b3a754bdc0",
                "code" : "0x5a6000526000808080620f424061ba5e5af1505a6020526021602051600051030360005500",
                "nonce" : "0x01",
                "storage" : {
                    "0x00" : "0x1a90"
                }
            },
            "0x000f3df6d732807ef1319fb7b8bb8522d0beac02" : {
                "balance" : "0x00",
                "code" : "0x3373fffffffffffffffffffffffffffffffffffffffe14604d57602036146024575f5ffd5b5f35801560495762001fff810690815414603c575f5ffd5b62001fff01545f5260205ff35b5f5ffd5b62001fff42064281555f359062001fff015500",
                "nonce" : "0x01",
                "storage" : {
                    "0x03e8" : "0x03e8"
                }
            },
            "0xa94f5374fce5edbc8e2a8697c15331677e6ebf0b" : {
                "balance" : "0x0de0b6b3a6c39980",
                "code" : "0x",
                "nonce" : "0x02",
                "storage" : {
                }
            }
        },
        "pre" : {
            "0x000000000000000000000000000000000000ba5e" : {
                "balance" : "0x00",
                "code" : "0x",
                "nonce" : "0x01",
                "storage" : {
                }
            },
            "0x000000000000000000000000000000000000c0de" : {
                "balance" : "0x0de0b6b3a7640000",
                "code" : "0x5a6000526000808080620f424061ba5e5af1505a6020526021602051600051030360005500",
                "nonce" : "0x01",
                "storage" : {
                }
            },
            "0x000f3df6d732807ef1319fb7b8bb8522d0beac02" : {
                "balance" : "0x00",
                "code" : "0x3373fffffffffffffffffffffffffffffffffffffffe14604d57602036146024575f5ffd5b5f35801560495762001fff810690815414603c575f5ffd5b62001fff01545f5260205ff35b5f5ffd5b62001fff42064281555f359062001fff015500",
                "nonce" : "0x01",
                "storage" : {
                }
            },
            "0xa94f5374fce5edbc8e2a8697c15331677e6ebf0b" : {
                "balance" : "0x0de0b6b3a7640000",
                "code" : "0x",
                "nonce" : "0x01",
                "storage" : {
                }
            }
        },
        "sealEngine" : "NoProof"
    },
    "coinbaseT2_d0g0v0_Prague" : {
        "_info" : {
            "comment" : "Ori Pomerantz qbzzt1@gmail.com",
            "filling-rpc-server" : "evmone-t8n 0.14.0-13+commit.4d363c36",
            "filling-tool-version" : "retesteth-0.3.2-legacy+commit.ca7f4c79.Linux.g++",
            "fixture-format" : "blockchain_test",
            "generatedTestHash" : "00c0e541aeb33bc76a5d2e42a12891bddbb6a3ccc49c34f4afa5b5d2d9616c14",
            "lllcversion" : "Version: 0.5.14-develop.2024.11.5+commit.b2b86751.mod.Linux.g++",
            "hyperion" : "Version: 0.8.24+commit.e11b9ed9.Linux.g++",
            "source" : "src/GeneralStateTestsFiller/stEIP2930/coinbaseT2Filler.yml",
            "sourceHash" : "82c4e11f49c27922afb28f1988bc1e9d5e0b5a8dcf31680007acc78a587b5b3f"
        },
        "blocks" : [
            {
                "blockHeader" : {
                    "baseFeePerGas" : "0x64",
                    "bloom" : "0x00000000000000000000000000000000000000000000000000000000000000000000000000000000000000000000000000000000000000000000000000000000000000000000000000000000000000000000000000000000000000000000000000000000000000000000000000000000000000000000000000000000000000000000000000000000000000000000000000000000000000000000000000000000000000000000000000000000000000000000000000000000000000000000000000000000000000000000000000000000000000000000000000000000000000000000000000000000000000000000000000000000000000000000000000000000",
                    "coinbase" : "Z000000000000000000000000000000000000ba5e",
                    "extraData" : "0x00",
                    "gasLimit" : "0xff112233445566",
                    "gasUsed" : "0xcd50",
                    "hash" : "0x7e2c59646b7eadf8c1d5c95e762e343987a8404a8be77e49c20a7e1db07eb605",
                    "mixHash" : "0x0000000000000000000000000000000000000000000000000000000000020000",
                    "nonce" : "0x0000000000000000",
                    "number" : "0x01",
                    "parentHash" : "0x477905fd6b1e1093868c24035730c3ff4353ee08d72b9bad1bec3690bc38aec3",
                    "receiptTrie" : "0x5f50e43d4cb6276aa201928ef364c6174c37dfd9882f19ba9f037320a4e406d7",
                    "requestsHash" : "0xe3b0c44298fc1c149afbf4c8996fb92427ae41e4649b934ca495991b7852b855",
                    "stateRoot" : "0x4fbf942c5c81871122da82945afc7d783275a7cb54c1de1d63603224f4ca2274",
                    "timestamp" : "0x03e8",
                    "transactionsTrie" : "0xb56fa9b054b1b9e4dbef267e609bf6555127b04529e81e3bf75672d367eb63e6",
                    "withdrawalsRoot" : "0x56e81f171bcc55a6ff8345e692c0f86e5b48e01b996cadc001622fb5e363b421"
                },
                "rlp" : "0xf9030bf9025ea0477905fd6b1e1093868c24035730c3ff4353ee08d72b9bad1bec3690bc38aec3a01dcc4de8dec75d7aab85b567b6ccd41ad312451b948a7413f0a142fd40d4934794000000000000000000000000000000000000ba5ea04fbf942c5c81871122da82945afc7d783275a7cb54c1de1d63603224f4ca2274a0b56fa9b054b1b9e4dbef267e609bf6555127b04529e81e3bf75672d367eb63e6a05f50e43d4cb6276aa201928ef364c6174c37dfd9882f19ba9f037320a4e406d7b9010000000000000000000000000000000000000000000000000000000000000000000000000000000000000000000000000000000000000000000000000000000000000000000000000000000000000000000000000000000000000000000000000000000000000000000000000000000000000000000000000000000000000000000000000000000000000000000000000000000000000000000000000000000000000000000000000000000000000000000000000000000000000000000000000000000000000000000000000000000000000000000000000000000000000000000000000000000000000000000000000000000000000000000000000000000000800187ff11223344556682cd508203e800a0000000000000000000000000000000000000000000000000000000000002000088000000000000000064a056e81f171bcc55a6ff8345e692c0f86e5b48e01b996cadc001622fb5e363b4218080a00000000000000000000000000000000000000000000000000000000000000000a0e3b0c44298fc1c149afbf4c8996fb92427ae41e4649b934ca495991b7852b855f8a6b8a402f8a10101648227108402625a0094000000000000000000000000000000000000c0de80a4693c61390000000000000000000000000000000000000000000000000000000000000000d7d694000000000000000000000000000000000000ba5ec080a0d5a3052a8cc387f35ffdebe832afdfdd45980cdcbb9b926dee7fb9b1d9a4ee08a06210d404eb6aecd05bc214b120959a71ede9fadcae4b769c96c58bffa216f205c0c0",
                "transactions" : [
                    {
                        "accessList" : [
                            {
                                "address" : "0x000000000000000000000000000000000000ba5e",
                                "storageKeys" : [
                                ]
                            }
                        ],
                        "chainId" : "0x01",
                        "data" : "0x693c61390000000000000000000000000000000000000000000000000000000000000000",
                        "gasLimit" : "0x02625a00",
                        "maxFeePerGas" : "0x2710",
                        "maxPriorityFeePerGas" : "0x64",
                        "nonce" : "0x01",
                        "signature" : "0xd5a3052a8cc387f35ffdebe832afdfdd45980cdcbb9b926dee7fb9b1d9a4ee08",
                        "s" : "0x6210d404eb6aecd05bc214b120959a71ede9fadcae4b769c96c58bffa216f205",
                        "sender" : "Za94f5374fce5edbc8e2a8697c15331677e6ebf0b",
                        "to" : "0x000000000000000000000000000000000000c0de",
                        "type" : "0x02",
                        "v" : "0x00",
                        "value" : "0x00"
                    }
                ],
                "uncleHeaders" : [
                ],
                "withdrawals" : [
                ]
            }
        ],
        "config" : {
            "blobSchedule" : {
                "Prague" : {
                    "baseFeeUpdateFraction" : "0x4c6964",
                    "max" : "0x09",
                    "target" : "0x06"
                }
            },
            "chainid" : "0x01",
            "network" : "Prague"
        },
        "genesisBlockHeader" : {
            "baseFeePerGas" : "0x72",
            "bloom" : "0x00000000000000000000000000000000000000000000000000000000000000000000000000000000000000000000000000000000000000000000000000000000000000000000000000000000000000000000000000000000000000000000000000000000000000000000000000000000000000000000000000000000000000000000000000000000000000000000000000000000000000000000000000000000000000000000000000000000000000000000000000000000000000000000000000000000000000000000000000000000000000000000000000000000000000000000000000000000000000000000000000000000000000000000000000000000",
            "coinbase" : "Z000000000000000000000000000000000000ba5e",
            "extraData" : "0x00",
            "gasLimit" : "0xff112233445566",
            "gasUsed" : "0x00",
            "hash" : "0x477905fd6b1e1093868c24035730c3ff4353ee08d72b9bad1bec3690bc38aec3",
            "mixHash" : "0x0000000000000000000000000000000000000000000000000000000000020000",
            "nonce" : "0x0000000000000000",
            "number" : "0x00",
            "parentHash" : "0x0000000000000000000000000000000000000000000000000000000000000000",
            "receiptTrie" : "0x56e81f171bcc55a6ff8345e692c0f86e5b48e01b996cadc001622fb5e363b421",
            "requestsHash" : "0xe3b0c44298fc1c149afbf4c8996fb92427ae41e4649b934ca495991b7852b855",
            "stateRoot" : "0x522c458370447a2691fb8738d949613d60cfed89c67710767052a135767350ed",
            "timestamp" : "0x00",
            "transactionsTrie" : "0x56e81f171bcc55a6ff8345e692c0f86e5b48e01b996cadc001622fb5e363b421",
            "withdrawalsRoot" : "0x56e81f171bcc55a6ff8345e692c0f86e5b48e01b996cadc001622fb5e363b421"
        },
        "genesisRLP" : "0xf90263f9025da00000000000000000000000000000000000000000000000000000000000000000a01dcc4de8dec75d7aab85b567b6ccd41ad312451b948a7413f0a142fd40d4934794000000000000000000000000000000000000ba5ea0522c458370447a2691fb8738d949613d60cfed89c67710767052a135767350eda056e81f171bcc55a6ff8345e692c0f86e5b48e01b996cadc001622fb5e363b421a056e81f171bcc55a6ff8345e692c0f86e5b48e01b996cadc001622fb5e363b421b9010000000000000000000000000000000000000000000000000000000000000000000000000000000000000000000000000000000000000000000000000000000000000000000000000000000000000000000000000000000000000000000000000000000000000000000000000000000000000000000000000000000000000000000000000000000000000000000000000000000000000000000000000000000000000000000000000000000000000000000000000000000000000000000000000000000000000000000000000000000000000000000000000000000000000000000000000000000000000000000000000000000000000000000000000000000000808087ff112233445566808000a0000000000000000000000000000000000000000000000000000000000002000088000000000000000072a056e81f171bcc55a6ff8345e692c0f86e5b48e01b996cadc001622fb5e363b4218083060000a00000000000000000000000000000000000000000000000000000000000000000a0e3b0c44298fc1c149afbf4c8996fb92427ae41e4649b934ca495991b7852b855c0c0c0",
        "lastblockhash" : "0x7e2c59646b7eadf8c1d5c95e762e343987a8404a8be77e49c20a7e1db07eb605",
        "network" : "Prague",
        "postState" : {
            "0x000000000000000000000000000000000000ba5e" : {
                "balance" : "0x5f7580",
                "code" : "0x",
                "nonce" : "0x01",
                "storage" : {
                }
            },
            "0x000000000000000000000000000000000000c0de" : {
                "balance" : "0x0de0b6b3a754bdc0",
                "code" : "0x5a6000526000808080620f424061ba5e5af1505a6020526021602051600051030360005500",
                "nonce" : "0x01",
                "storage" : {
                    "0x00" : "0x1a90"
                }
            },
            "0x0000f90827f1c53a10cb7a02335b175320002935" : {
                "balance" : "0x00",
                "code" : "0x3373fffffffffffffffffffffffffffffffffffffffe14604657602036036042575f35600143038111604257611fff81430311604257611fff9006545f5260205ff35b5f5ffd5b5f35611fff60014303065500",
                "nonce" : "0x01",
                "storage" : {
                    "0x00" : "0x477905fd6b1e1093868c24035730c3ff4353ee08d72b9bad1bec3690bc38aec3"
                }
            },
            "0x000f3df6d732807ef1319fb7b8bb8522d0beac02" : {
                "balance" : "0x00",
                "code" : "0x3373fffffffffffffffffffffffffffffffffffffffe14604d57602036146024575f5ffd5b5f35801560495762001fff810690815414603c575f5ffd5b62001fff01545f5260205ff35b5f5ffd5b62001fff42064281555f359062001fff015500",
                "nonce" : "0x01",
                "storage" : {
                    "0x03e8" : "0x03e8"
                }
            },
            "0xa94f5374fce5edbc8e2a8697c15331677e6ebf0b" : {
                "balance" : "0x0de0b6b3a6c39980",
                "code" : "0x",
                "nonce" : "0x02",
                "storage" : {
                }
            }
        },
        "pre" : {
            "0x000000000000000000000000000000000000ba5e" : {
                "balance" : "0x00",
                "code" : "0x",
                "nonce" : "0x01",
                "storage" : {
                }
            },
            "0x000000000000000000000000000000000000c0de" : {
                "balance" : "0x0de0b6b3a7640000",
                "code" : "0x5a6000526000808080620f424061ba5e5af1505a6020526021602051600051030360005500",
                "nonce" : "0x01",
                "storage" : {
                }
            },
            "0x0000f90827f1c53a10cb7a02335b175320002935" : {
                "balance" : "0x00",
                "code" : "0x3373fffffffffffffffffffffffffffffffffffffffe14604657602036036042575f35600143038111604257611fff81430311604257611fff9006545f5260205ff35b5f5ffd5b5f35611fff60014303065500",
                "nonce" : "0x01",
                "storage" : {
                }
            },
            "0x000f3df6d732807ef1319fb7b8bb8522d0beac02" : {
                "balance" : "0x00",
                "code" : "0x3373fffffffffffffffffffffffffffffffffffffffe14604d57602036146024575f5ffd5b5f35801560495762001fff810690815414603c575f5ffd5b62001fff01545f5260205ff35b5f5ffd5b62001fff42064281555f359062001fff015500",
                "nonce" : "0x01",
                "storage" : {
                }
            },
            "0xa94f5374fce5edbc8e2a8697c15331677e6ebf0b" : {
                "balance" : "0x0de0b6b3a7640000",
                "code" : "0x",
                "nonce" : "0x01",
                "storage" : {
                }
            }
        },
        "sealEngine" : "NoProof"
    },
    "coinbaseT2_d1g0v0_Cancun" : {
        "_info" : {
            "comment" : "Ori Pomerantz qbzzt1@gmail.com",
            "filling-rpc-server" : "evmone-t8n 0.14.0-13+commit.4d363c36",
            "filling-tool-version" : "retesteth-0.3.2-legacy+commit.ca7f4c79.Linux.g++",
            "fixture-format" : "blockchain_test",
            "generatedTestHash" : "317c9c618d8c5847234797245173dea5a7e5cf62ec692b50d52d18093634a223",
            "lllcversion" : "Version: 0.5.14-develop.2024.11.5+commit.b2b86751.mod.Linux.g++",
            "hyperion" : "Version: 0.8.24+commit.e11b9ed9.Linux.g++",
            "source" : "src/GeneralStateTestsFiller/stEIP2930/coinbaseT2Filler.yml",
            "sourceHash" : "82c4e11f49c27922afb28f1988bc1e9d5e0b5a8dcf31680007acc78a587b5b3f"
        },
        "blocks" : [
            {
                "blockHeader" : {
                    "baseFeePerGas" : "0x64",
                    "bloom" : "0x00000000000000000000000000000000000000000000000000000000000000000000000000000000000000000000000000000000000000000000000000000000000000000000000000000000000000000000000000000000000000000000000000000000000000000000000000000000000000000000000000000000000000000000000000000000000000000000000000000000000000000000000000000000000000000000000000000000000000000000000000000000000000000000000000000000000000000000000000000000000000000000000000000000000000000000000000000000000000000000000000000000000000000000000000000000",
                    "coinbase" : "Z000000000000000000000000000000000000ba5e",
                    "extraData" : "0x00",
                    "gasLimit" : "0xff112233445566",
                    "gasUsed" : "0xcd50",
                    "hash" : "0xc75649ee595633f8e40f25c7e42d84a39db4daffb021f394604e5cbd3c2f17e8",
                    "mixHash" : "0x0000000000000000000000000000000000000000000000000000000000020000",
                    "nonce" : "0x0000000000000000",
                    "number" : "0x01",
                    "parentHash" : "0x3464170dda0a9b23c535a0930c65edffe37ced38709035eb7c21396dc543250f",
                    "receiptTrie" : "0x5f50e43d4cb6276aa201928ef364c6174c37dfd9882f19ba9f037320a4e406d7",
                    "stateRoot" : "0x4fb23b4ccd2579d49ad8f8ff580c9bc2a775c1b774bcb3d38d0a466e0c679302",
                    "timestamp" : "0x03e8",
                    "transactionsTrie" : "0xdd9c3e20d562b8371a8cbed14bd3523760976987f1a70a86eb693516dee1d8c3",
                    "withdrawalsRoot" : "0x56e81f171bcc55a6ff8345e692c0f86e5b48e01b996cadc001622fb5e363b421"
                },
                "rlp" : "0xf902eaf9023da03464170dda0a9b23c535a0930c65edffe37ced38709035eb7c21396dc543250fa01dcc4de8dec75d7aab85b567b6ccd41ad312451b948a7413f0a142fd40d4934794000000000000000000000000000000000000ba5ea04fb23b4ccd2579d49ad8f8ff580c9bc2a775c1b774bcb3d38d0a466e0c679302a0dd9c3e20d562b8371a8cbed14bd3523760976987f1a70a86eb693516dee1d8c3a05f50e43d4cb6276aa201928ef364c6174c37dfd9882f19ba9f037320a4e406d7b9010000000000000000000000000000000000000000000000000000000000000000000000000000000000000000000000000000000000000000000000000000000000000000000000000000000000000000000000000000000000000000000000000000000000000000000000000000000000000000000000000000000000000000000000000000000000000000000000000000000000000000000000000000000000000000000000000000000000000000000000000000000000000000000000000000000000000000000000000000000000000000000000000000000000000000000000000000000000000000000000000000000000000000000000000000000000800187ff11223344556682cd508203e800a0000000000000000000000000000000000000000000000000000000000002000088000000000000000064a056e81f171bcc55a6ff8345e692c0f86e5b48e01b996cadc001622fb5e363b4218080a00000000000000000000000000000000000000000000000000000000000000000f8a6b8a402f8a10101648227108402625a0094000000000000000000000000000000000000c0de80a4693c61390000000000000000000000000000000000000000000000000000000000000000d7d694000000000000000000000000000000000000ba5ac080a041870d7c20b48b485d76c28565c7da72ff32b28901157b4e815b2481795edb64a02923e080922a492542d9aaba935f81441a85df4465cacd3c204de6d38cd7ce03c0c0",
                "transactions" : [
                    {
                        "accessList" : [
                            {
                                "address" : "0x000000000000000000000000000000000000ba5a",
                                "storageKeys" : [
                                ]
                            }
                        ],
                        "chainId" : "0x01",
                        "data" : "0x693c61390000000000000000000000000000000000000000000000000000000000000000",
                        "gasLimit" : "0x02625a00",
                        "maxFeePerGas" : "0x2710",
                        "maxPriorityFeePerGas" : "0x64",
                        "nonce" : "0x01",
                        "signature" : "0x41870d7c20b48b485d76c28565c7da72ff32b28901157b4e815b2481795edb64",
                        "s" : "0x2923e080922a492542d9aaba935f81441a85df4465cacd3c204de6d38cd7ce03",
                        "sender" : "Za94f5374fce5edbc8e2a8697c15331677e6ebf0b",
                        "to" : "0x000000000000000000000000000000000000c0de",
                        "type" : "0x02",
                        "v" : "0x00",
                        "value" : "0x00"
                    }
                ],
                "uncleHeaders" : [
                ],
                "withdrawals" : [
                ]
            }
        ],
        "config" : {
            "blobSchedule" : {
                "Cancun" : {
                    "baseFeeUpdateFraction" : "0x32f0ed",
                    "max" : "0x06",
                    "target" : "0x03"
                }
            },
            "chainid" : "0x01",
            "network" : "Cancun"
        },
        "genesisBlockHeader" : {
            "baseFeePerGas" : "0x72",
            "bloom" : "0x00000000000000000000000000000000000000000000000000000000000000000000000000000000000000000000000000000000000000000000000000000000000000000000000000000000000000000000000000000000000000000000000000000000000000000000000000000000000000000000000000000000000000000000000000000000000000000000000000000000000000000000000000000000000000000000000000000000000000000000000000000000000000000000000000000000000000000000000000000000000000000000000000000000000000000000000000000000000000000000000000000000000000000000000000000000",
            "coinbase" : "Z000000000000000000000000000000000000ba5e",
            "extraData" : "0x00",
            "gasLimit" : "0xff112233445566",
            "gasUsed" : "0x00",
            "hash" : "0x3464170dda0a9b23c535a0930c65edffe37ced38709035eb7c21396dc543250f",
            "mixHash" : "0x0000000000000000000000000000000000000000000000000000000000020000",
            "nonce" : "0x0000000000000000",
            "number" : "0x00",
            "parentHash" : "0x0000000000000000000000000000000000000000000000000000000000000000",
            "receiptTrie" : "0x56e81f171bcc55a6ff8345e692c0f86e5b48e01b996cadc001622fb5e363b421",
            "stateRoot" : "0x9d1fb42e610c06fdc52307c39af9f07c950b0d98f5b46c35ce32c266706dff4f",
            "timestamp" : "0x00",
            "transactionsTrie" : "0x56e81f171bcc55a6ff8345e692c0f86e5b48e01b996cadc001622fb5e363b421",
            "withdrawalsRoot" : "0x56e81f171bcc55a6ff8345e692c0f86e5b48e01b996cadc001622fb5e363b421"
        },
        "genesisRLP" : "0xf90242f9023ca00000000000000000000000000000000000000000000000000000000000000000a01dcc4de8dec75d7aab85b567b6ccd41ad312451b948a7413f0a142fd40d4934794000000000000000000000000000000000000ba5ea09d1fb42e610c06fdc52307c39af9f07c950b0d98f5b46c35ce32c266706dff4fa056e81f171bcc55a6ff8345e692c0f86e5b48e01b996cadc001622fb5e363b421a056e81f171bcc55a6ff8345e692c0f86e5b48e01b996cadc001622fb5e363b421b9010000000000000000000000000000000000000000000000000000000000000000000000000000000000000000000000000000000000000000000000000000000000000000000000000000000000000000000000000000000000000000000000000000000000000000000000000000000000000000000000000000000000000000000000000000000000000000000000000000000000000000000000000000000000000000000000000000000000000000000000000000000000000000000000000000000000000000000000000000000000000000000000000000000000000000000000000000000000000000000000000000000000000000000000000000000000808087ff112233445566808000a0000000000000000000000000000000000000000000000000000000000002000088000000000000000072a056e81f171bcc55a6ff8345e692c0f86e5b48e01b996cadc001622fb5e363b4218083060000a00000000000000000000000000000000000000000000000000000000000000000c0c0c0",
        "lastblockhash" : "0xc75649ee595633f8e40f25c7e42d84a39db4daffb021f394604e5cbd3c2f17e8",
        "network" : "Cancun",
        "postState" : {
            "0x000000000000000000000000000000000000ba5e" : {
                "balance" : "0x5f7580",
                "code" : "0x",
                "nonce" : "0x01",
                "storage" : {
                }
            },
            "0x000000000000000000000000000000000000c0de" : {
                "balance" : "0x0de0b6b3a754bdc0",
                "code" : "0x5a6000526000808080620f424061ba5e5af1505a6020526021602051600051030360005500",
                "nonce" : "0x01",
                "storage" : {
                    "0x00" : "0x1a90"
                }
            },
            "0x000f3df6d732807ef1319fb7b8bb8522d0beac02" : {
                "balance" : "0x00",
                "code" : "0x3373fffffffffffffffffffffffffffffffffffffffe14604d57602036146024575f5ffd5b5f35801560495762001fff810690815414603c575f5ffd5b62001fff01545f5260205ff35b5f5ffd5b62001fff42064281555f359062001fff015500",
                "nonce" : "0x01",
                "storage" : {
                    "0x03e8" : "0x03e8"
                }
            },
            "0xa94f5374fce5edbc8e2a8697c15331677e6ebf0b" : {
                "balance" : "0x0de0b6b3a6c39980",
                "code" : "0x",
                "nonce" : "0x02",
                "storage" : {
                }
            }
        },
        "pre" : {
            "0x000000000000000000000000000000000000ba5e" : {
                "balance" : "0x00",
                "code" : "0x",
                "nonce" : "0x01",
                "storage" : {
                }
            },
            "0x000000000000000000000000000000000000c0de" : {
                "balance" : "0x0de0b6b3a7640000",
                "code" : "0x5a6000526000808080620f424061ba5e5af1505a6020526021602051600051030360005500",
                "nonce" : "0x01",
                "storage" : {
                }
            },
            "0x000f3df6d732807ef1319fb7b8bb8522d0beac02" : {
                "balance" : "0x00",
                "code" : "0x3373fffffffffffffffffffffffffffffffffffffffe14604d57602036146024575f5ffd5b5f35801560495762001fff810690815414603c575f5ffd5b62001fff01545f5260205ff35b5f5ffd5b62001fff42064281555f359062001fff015500",
                "nonce" : "0x01",
                "storage" : {
                }
            },
            "0xa94f5374fce5edbc8e2a8697c15331677e6ebf0b" : {
                "balance" : "0x0de0b6b3a7640000",
                "code" : "0x",
                "nonce" : "0x01",
                "storage" : {
                }
            }
        },
        "sealEngine" : "NoProof"
    },
    "coinbaseT2_d1g0v0_Prague" : {
        "_info" : {
            "comment" : "Ori Pomerantz qbzzt1@gmail.com",
            "filling-rpc-server" : "evmone-t8n 0.14.0-13+commit.4d363c36",
            "filling-tool-version" : "retesteth-0.3.2-legacy+commit.ca7f4c79.Linux.g++",
            "fixture-format" : "blockchain_test",
            "generatedTestHash" : "ae05630950730e566df59bebd561ca66ae6e4b27a7ab4d5c6494ac5652cd83df",
            "lllcversion" : "Version: 0.5.14-develop.2024.11.5+commit.b2b86751.mod.Linux.g++",
            "hyperion" : "Version: 0.8.24+commit.e11b9ed9.Linux.g++",
            "source" : "src/GeneralStateTestsFiller/stEIP2930/coinbaseT2Filler.yml",
            "sourceHash" : "82c4e11f49c27922afb28f1988bc1e9d5e0b5a8dcf31680007acc78a587b5b3f"
        },
        "blocks" : [
            {
                "blockHeader" : {
                    "baseFeePerGas" : "0x64",
                    "bloom" : "0x00000000000000000000000000000000000000000000000000000000000000000000000000000000000000000000000000000000000000000000000000000000000000000000000000000000000000000000000000000000000000000000000000000000000000000000000000000000000000000000000000000000000000000000000000000000000000000000000000000000000000000000000000000000000000000000000000000000000000000000000000000000000000000000000000000000000000000000000000000000000000000000000000000000000000000000000000000000000000000000000000000000000000000000000000000000",
                    "coinbase" : "Z000000000000000000000000000000000000ba5e",
                    "extraData" : "0x00",
                    "gasLimit" : "0xff112233445566",
                    "gasUsed" : "0xcd50",
                    "hash" : "0xa8e4df6e49fa3118016bc5fb098eacfb0d4a211376b4f40609f233ae7293d1d9",
                    "mixHash" : "0x0000000000000000000000000000000000000000000000000000000000020000",
                    "nonce" : "0x0000000000000000",
                    "number" : "0x01",
                    "parentHash" : "0x477905fd6b1e1093868c24035730c3ff4353ee08d72b9bad1bec3690bc38aec3",
                    "receiptTrie" : "0x5f50e43d4cb6276aa201928ef364c6174c37dfd9882f19ba9f037320a4e406d7",
                    "requestsHash" : "0xe3b0c44298fc1c149afbf4c8996fb92427ae41e4649b934ca495991b7852b855",
                    "stateRoot" : "0x4fbf942c5c81871122da82945afc7d783275a7cb54c1de1d63603224f4ca2274",
                    "timestamp" : "0x03e8",
                    "transactionsTrie" : "0xdd9c3e20d562b8371a8cbed14bd3523760976987f1a70a86eb693516dee1d8c3",
                    "withdrawalsRoot" : "0x56e81f171bcc55a6ff8345e692c0f86e5b48e01b996cadc001622fb5e363b421"
                },
                "rlp" : "0xf9030bf9025ea0477905fd6b1e1093868c24035730c3ff4353ee08d72b9bad1bec3690bc38aec3a01dcc4de8dec75d7aab85b567b6ccd41ad312451b948a7413f0a142fd40d4934794000000000000000000000000000000000000ba5ea04fbf942c5c81871122da82945afc7d783275a7cb54c1de1d63603224f4ca2274a0dd9c3e20d562b8371a8cbed14bd3523760976987f1a70a86eb693516dee1d8c3a05f50e43d4cb6276aa201928ef364c6174c37dfd9882f19ba9f037320a4e406d7b9010000000000000000000000000000000000000000000000000000000000000000000000000000000000000000000000000000000000000000000000000000000000000000000000000000000000000000000000000000000000000000000000000000000000000000000000000000000000000000000000000000000000000000000000000000000000000000000000000000000000000000000000000000000000000000000000000000000000000000000000000000000000000000000000000000000000000000000000000000000000000000000000000000000000000000000000000000000000000000000000000000000000000000000000000000000000800187ff11223344556682cd508203e800a0000000000000000000000000000000000000000000000000000000000002000088000000000000000064a056e81f171bcc55a6ff8345e692c0f86e5b48e01b996cadc001622fb5e363b4218080a00000000000000000000000000000000000000000000000000000000000000000a0e3b0c44298fc1c149afbf4c8996fb92427ae41e4649b934ca495991b7852b855f8a6b8a402f8a10101648227108402625a0094000000000000000000000000000000000000c0de80a4693c61390000000000000000000000000000000000000000000000000000000000000000d7d694000000000000000000000000000000000000ba5ac080a041870d7c20b48b485d76c28565c7da72ff32b28901157b4e815b2481795edb64a02923e080922a492542d9aaba935f81441a85df4465cacd3c204de6d38cd7ce03c0c0",
                "transactions" : [
                    {
                        "accessList" : [
                            {
                                "address" : "0x000000000000000000000000000000000000ba5a",
                                "storageKeys" : [
                                ]
                            }
                        ],
                        "chainId" : "0x01",
                        "data" : "0x693c61390000000000000000000000000000000000000000000000000000000000000000",
                        "gasLimit" : "0x02625a00",
                        "maxFeePerGas" : "0x2710",
                        "maxPriorityFeePerGas" : "0x64",
                        "nonce" : "0x01",
                        "signature" : "0x41870d7c20b48b485d76c28565c7da72ff32b28901157b4e815b2481795edb64",
                        "s" : "0x2923e080922a492542d9aaba935f81441a85df4465cacd3c204de6d38cd7ce03",
                        "sender" : "Za94f5374fce5edbc8e2a8697c15331677e6ebf0b",
                        "to" : "0x000000000000000000000000000000000000c0de",
                        "type" : "0x02",
                        "v" : "0x00",
                        "value" : "0x00"
                    }
                ],
                "uncleHeaders" : [
                ],
                "withdrawals" : [
                ]
            }
        ],
        "config" : {
            "blobSchedule" : {
                "Prague" : {
                    "baseFeeUpdateFraction" : "0x4c6964",
                    "max" : "0x09",
                    "target" : "0x06"
                }
            },
            "chainid" : "0x01",
            "network" : "Prague"
        },
        "genesisBlockHeader" : {
            "baseFeePerGas" : "0x72",
            "bloom" : "0x00000000000000000000000000000000000000000000000000000000000000000000000000000000000000000000000000000000000000000000000000000000000000000000000000000000000000000000000000000000000000000000000000000000000000000000000000000000000000000000000000000000000000000000000000000000000000000000000000000000000000000000000000000000000000000000000000000000000000000000000000000000000000000000000000000000000000000000000000000000000000000000000000000000000000000000000000000000000000000000000000000000000000000000000000000000",
            "coinbase" : "Z000000000000000000000000000000000000ba5e",
            "extraData" : "0x00",
            "gasLimit" : "0xff112233445566",
            "gasUsed" : "0x00",
            "hash" : "0x477905fd6b1e1093868c24035730c3ff4353ee08d72b9bad1bec3690bc38aec3",
            "mixHash" : "0x0000000000000000000000000000000000000000000000000000000000020000",
            "nonce" : "0x0000000000000000",
            "number" : "0x00",
            "parentHash" : "0x0000000000000000000000000000000000000000000000000000000000000000",
            "receiptTrie" : "0x56e81f171bcc55a6ff8345e692c0f86e5b48e01b996cadc001622fb5e363b421",
            "requestsHash" : "0xe3b0c44298fc1c149afbf4c8996fb92427ae41e4649b934ca495991b7852b855",
            "stateRoot" : "0x522c458370447a2691fb8738d949613d60cfed89c67710767052a135767350ed",
            "timestamp" : "0x00",
            "transactionsTrie" : "0x56e81f171bcc55a6ff8345e692c0f86e5b48e01b996cadc001622fb5e363b421",
            "withdrawalsRoot" : "0x56e81f171bcc55a6ff8345e692c0f86e5b48e01b996cadc001622fb5e363b421"
        },
        "genesisRLP" : "0xf90263f9025da00000000000000000000000000000000000000000000000000000000000000000a01dcc4de8dec75d7aab85b567b6ccd41ad312451b948a7413f0a142fd40d4934794000000000000000000000000000000000000ba5ea0522c458370447a2691fb8738d949613d60cfed89c67710767052a135767350eda056e81f171bcc55a6ff8345e692c0f86e5b48e01b996cadc001622fb5e363b421a056e81f171bcc55a6ff8345e692c0f86e5b48e01b996cadc001622fb5e363b421b9010000000000000000000000000000000000000000000000000000000000000000000000000000000000000000000000000000000000000000000000000000000000000000000000000000000000000000000000000000000000000000000000000000000000000000000000000000000000000000000000000000000000000000000000000000000000000000000000000000000000000000000000000000000000000000000000000000000000000000000000000000000000000000000000000000000000000000000000000000000000000000000000000000000000000000000000000000000000000000000000000000000000000000000000000000000000808087ff112233445566808000a0000000000000000000000000000000000000000000000000000000000002000088000000000000000072a056e81f171bcc55a6ff8345e692c0f86e5b48e01b996cadc001622fb5e363b4218083060000a00000000000000000000000000000000000000000000000000000000000000000a0e3b0c44298fc1c149afbf4c8996fb92427ae41e4649b934ca495991b7852b855c0c0c0",
        "lastblockhash" : "0xa8e4df6e49fa3118016bc5fb098eacfb0d4a211376b4f40609f233ae7293d1d9",
        "network" : "Prague",
        "postState" : {
            "0x000000000000000000000000000000000000ba5e" : {
                "balance" : "0x5f7580",
                "code" : "0x",
                "nonce" : "0x01",
                "storage" : {
                }
            },
            "0x000000000000000000000000000000000000c0de" : {
                "balance" : "0x0de0b6b3a754bdc0",
                "code" : "0x5a6000526000808080620f424061ba5e5af1505a6020526021602051600051030360005500",
                "nonce" : "0x01",
                "storage" : {
                    "0x00" : "0x1a90"
                }
            },
            "0x0000f90827f1c53a10cb7a02335b175320002935" : {
                "balance" : "0x00",
                "code" : "0x3373fffffffffffffffffffffffffffffffffffffffe14604657602036036042575f35600143038111604257611fff81430311604257611fff9006545f5260205ff35b5f5ffd5b5f35611fff60014303065500",
                "nonce" : "0x01",
                "storage" : {
                    "0x00" : "0x477905fd6b1e1093868c24035730c3ff4353ee08d72b9bad1bec3690bc38aec3"
                }
            },
            "0x000f3df6d732807ef1319fb7b8bb8522d0beac02" : {
                "balance" : "0x00",
                "code" : "0x3373fffffffffffffffffffffffffffffffffffffffe14604d57602036146024575f5ffd5b5f35801560495762001fff810690815414603c575f5ffd5b62001fff01545f5260205ff35b5f5ffd5b62001fff42064281555f359062001fff015500",
                "nonce" : "0x01",
                "storage" : {
                    "0x03e8" : "0x03e8"
                }
            },
            "0xa94f5374fce5edbc8e2a8697c15331677e6ebf0b" : {
                "balance" : "0x0de0b6b3a6c39980",
                "code" : "0x",
                "nonce" : "0x02",
                "storage" : {
                }
            }
        },
        "pre" : {
            "0x000000000000000000000000000000000000ba5e" : {
                "balance" : "0x00",
                "code" : "0x",
                "nonce" : "0x01",
                "storage" : {
                }
            },
            "0x000000000000000000000000000000000000c0de" : {
                "balance" : "0x0de0b6b3a7640000",
                "code" : "0x5a6000526000808080620f424061ba5e5af1505a6020526021602051600051030360005500",
                "nonce" : "0x01",
                "storage" : {
                }
            },
            "0x0000f90827f1c53a10cb7a02335b175320002935" : {
                "balance" : "0x00",
                "code" : "0x3373fffffffffffffffffffffffffffffffffffffffe14604657602036036042575f35600143038111604257611fff81430311604257611fff9006545f5260205ff35b5f5ffd5b5f35611fff60014303065500",
                "nonce" : "0x01",
                "storage" : {
                }
            },
            "0x000f3df6d732807ef1319fb7b8bb8522d0beac02" : {
                "balance" : "0x00",
                "code" : "0x3373fffffffffffffffffffffffffffffffffffffffe14604d57602036146024575f5ffd5b5f35801560495762001fff810690815414603c575f5ffd5b62001fff01545f5260205ff35b5f5ffd5b62001fff42064281555f359062001fff015500",
                "nonce" : "0x01",
                "storage" : {
                }
            },
            "0xa94f5374fce5edbc8e2a8697c15331677e6ebf0b" : {
                "balance" : "0x0de0b6b3a7640000",
                "code" : "0x",
                "nonce" : "0x01",
                "storage" : {
                }
            }
        },
        "sealEngine" : "NoProof"
    }
}