{
    "lowFeeCap_d0g0v0_Cancun" : {
        "_info" : {
            "comment" : "Ori Pomerantz qbzzt1@gmail.com",
            "filling-rpc-server" : "evmone-t8n 0.14.0-13+commit.4d363c36",
            "filling-tool-version" : "retesteth-0.3.2-legacy+commit.ca7f4c79.Linux.g++",
            "fixture-format" : "blockchain_test",
            "generatedTestHash" : "06db888e6aeb2366c429488934abb2d83534e500409edefb4aa688cea4dfd0c9",
            "lllcversion" : "Version: 0.5.14-develop.2024.11.5+commit.b2b86751.mod.Linux.g++",
            "hyperion" : "Version: 0.8.24+commit.e11b9ed9.Linux.g++",
            "source" : "src/GeneralStateTestsFiller/stEIP1559/lowFeeCapFiller.yml",
            "sourceHash" : "5af31560be7da57dfec7b0234ffe583a776e9c25758f0a213413a953208bb8f4"
        },
        "blocks" : [
            {
                "expectException" : "TransactionException.INSUFFICIENT_MAX_FEE_PER_GAS",
                "rlp" : "0xf902b1f9023da083fb27c2bcb23b46cb26b278604e5fc81819a4192c7d0a7cadc864904f5230e5a01dcc4de8dec75d7aab85b567b6ccd41ad312451b948a7413f0a142fd40d49347942adc25665018aa1fe0e6bc666dac8fc2697ff9baa0580c94292d42b6eb500be91792f96075ed484c72bfe09fed10e64c505a0f1178a056e81f171bcc55a6ff8345e692c0f86e5b48e01b996cadc001622fb5e363b421a056e81f171bcc55a6ff8345e692c0f86e5b48e01b996cadc001622fb5e363b421b9010000000000000000000000000000000000000000000000000000000000000000000000000000000000000000000000000000000000000000000000000000000000000000000000000000000000000000000000000000000000000000000000000000000000000000000000000000000000000000000000000000000000000000000000000000000000000000000000000000000000000000000000000000000000000000000000000000000000000000000000000000000000000000000000000000000000000000000000000000000000000000000000000000000000000000000000000000000000000000000000000000000000000000000000000000000000800187ff112233445566808203e800a000000000000000000000000000000000000000000000000000000000000200008800000000000000008203e8a056e81f171bcc55a6ff8345e692c0f86e5b48e01b996cadc001622fb5e363b4218080a00000000000000000000000000000000000000000000000000000000000000000f86db86b02f8680101648203e783061a8094cccccccccccccccccccccccccccccccccccccccc830186a000c080a0a0c75b311bd40cb10835e4ef967a6629e01352001bd7cc3b5b4cba0c3ca35722a00ed43a4b0bd8161baa12da82564ead82f3edf051e3d2cfeb57003db712fcfd16c0c0",
                "rlp_decoded" : {
                    "blockHeader" : {
                        "baseFeePerGas" : "0x03e8",
                        "bloom" : "0x00000000000000000000000000000000000000000000000000000000000000000000000000000000000000000000000000000000000000000000000000000000000000000000000000000000000000000000000000000000000000000000000000000000000000000000000000000000000000000000000000000000000000000000000000000000000000000000000000000000000000000000000000000000000000000000000000000000000000000000000000000000000000000000000000000000000000000000000000000000000000000000000000000000000000000000000000000000000000000000000000000000000000000000000000000000",
                        "coinbase" : "Z2adc25665018aa1fe0e6bc666dac8fc2697ff9ba",
                        "extraData" : "0x00",
                        "gasLimit" : "0xff112233445566",
                        "gasUsed" : "0x00",
                        "hash" : "0xe17bfbd2b61f54b4fd634824bcba28b31ea6c05aa389cc5c1ea7f7aefc9662a3",
                        "mixHash" : "0x0000000000000000000000000000000000000000000000000000000000020000",
                        "nonce" : "0x0000000000000000",
                        "number" : "0x01",
                        "parentHash" : "0x83fb27c2bcb23b46cb26b278604e5fc81819a4192c7d0a7cadc864904f5230e5",
                        "receiptTrie" : "0x56e81f171bcc55a6ff8345e692c0f86e5b48e01b996cadc001622fb5e363b421",
                        "stateRoot" : "0x580c94292d42b6eb500be91792f96075ed484c72bfe09fed10e64c505a0f1178",
                        "timestamp" : "0x03e8",
                        "transactionsTrie" : "0x56e81f171bcc55a6ff8345e692c0f86e5b48e01b996cadc001622fb5e363b421",
                        "withdrawalsRoot" : "0x56e81f171bcc55a6ff8345e692c0f86e5b48e01b996cadc001622fb5e363b421"
                    },
                    "transactions" : [
                        {
                            "accessList" : [
                            ],
                            "chainId" : "0x01",
                            "data" : "0x00",
                            "gasLimit" : "0x061a80",
                            "maxFeePerGas" : "0x03e7",
                            "maxPriorityFeePerGas" : "0x64",
                            "nonce" : "0x01",
                            "signature" : "0xa0c75b311bd40cb10835e4ef967a6629e01352001bd7cc3b5b4cba0c3ca35722",
                            "publicKey" : "0x0ed43a4b0bd8161baa12da82564ead82f3edf051e3d2cfeb57003db712fcfd16",
                            "to" : "Zcccccccccccccccccccccccccccccccccccccccc",
                            "type" : "0x02",
                            "v" : "0x00",
                            "value" : "0x0186a0"
                        }
                    ],
                    "uncleHeaders" : [
                    ],
                    "withdrawals" : [
                    ]
                },
                "transactionSequence" : [
                    {
                        "exception" : "TransactionException.INSUFFICIENT_MAX_FEE_PER_GAS",
                        "rawBytes" : "0x02f8680101648203e783061a8094cccccccccccccccccccccccccccccccccccccccc830186a000c080a0a0c75b311bd40cb10835e4ef967a6629e01352001bd7cc3b5b4cba0c3ca35722a00ed43a4b0bd8161baa12da82564ead82f3edf051e3d2cfeb57003db712fcfd16",
                        "valid" : "false"
                    }
                ]
            }
        ],
        "config" : {
            "blobSchedule" : {
                "Cancun" : {
                    "baseFeeUpdateFraction" : "0x32f0ed",
                    "max" : "0x06",
                    "target" : "0x03"
                }
            },
            "chainid" : "0x01",
            "network" : "Cancun"
        },
        "genesisBlockHeader" : {
            "baseFeePerGas" : "0x0476",
            "bloom" : "0x00000000000000000000000000000000000000000000000000000000000000000000000000000000000000000000000000000000000000000000000000000000000000000000000000000000000000000000000000000000000000000000000000000000000000000000000000000000000000000000000000000000000000000000000000000000000000000000000000000000000000000000000000000000000000000000000000000000000000000000000000000000000000000000000000000000000000000000000000000000000000000000000000000000000000000000000000000000000000000000000000000000000000000000000000000000",
            "coinbase" : "Z2adc25665018aa1fe0e6bc666dac8fc2697ff9ba",
            "extraData" : "0x00",
            "gasLimit" : "0xff112233445566",
            "gasUsed" : "0x00",
            "hash" : "0x83fb27c2bcb23b46cb26b278604e5fc81819a4192c7d0a7cadc864904f5230e5",
            "mixHash" : "0x0000000000000000000000000000000000000000000000000000000000020000",
            "nonce" : "0x0000000000000000",
            "number" : "0x00",
            "parentHash" : "0x0000000000000000000000000000000000000000000000000000000000000000",
            "receiptTrie" : "0x56e81f171bcc55a6ff8345e692c0f86e5b48e01b996cadc001622fb5e363b421",
            "stateRoot" : "0xb7d1104782d1787ab40414a216f2166ded929a65ed4dd2da4993ea2a0a24b1d6",
            "timestamp" : "0x00",
            "transactionsTrie" : "0x56e81f171bcc55a6ff8345e692c0f86e5b48e01b996cadc001622fb5e363b421",
            "withdrawalsRoot" : "0x56e81f171bcc55a6ff8345e692c0f86e5b48e01b996cadc001622fb5e363b421"
        },
        "genesisRLP" : "0xf90244f9023ea00000000000000000000000000000000000000000000000000000000000000000a01dcc4de8dec75d7aab85b567b6ccd41ad312451b948a7413f0a142fd40d49347942adc25665018aa1fe0e6bc666dac8fc2697ff9baa0b7d1104782d1787ab40414a216f2166ded929a65ed4dd2da4993ea2a0a24b1d6a056e81f171bcc55a6ff8345e692c0f86e5b48e01b996cadc001622fb5e363b421a056e81f171bcc55a6ff8345e692c0f86e5b48e01b996cadc001622fb5e363b421b9010000000000000000000000000000000000000000000000000000000000000000000000000000000000000000000000000000000000000000000000000000000000000000000000000000000000000000000000000000000000000000000000000000000000000000000000000000000000000000000000000000000000000000000000000000000000000000000000000000000000000000000000000000000000000000000000000000000000000000000000000000000000000000000000000000000000000000000000000000000000000000000000000000000000000000000000000000000000000000000000000000000000000000000000000000000000808087ff112233445566808000a00000000000000000000000000000000000000000000000000000000000020000880000000000000000820476a056e81f171bcc55a6ff8345e692c0f86e5b48e01b996cadc001622fb5e363b4218083060000a00000000000000000000000000000000000000000000000000000000000000000c0c0c0",
        "lastblockhash" : "0x83fb27c2bcb23b46cb26b278604e5fc81819a4192c7d0a7cadc864904f5230e5",
        "network" : "Cancun",
        "postState" : {
            "Z000f3df6d732807ef1319fb7b8bb8522d0beac02" : {
                "balance" : "0x00",
                "code" : "0x3373fffffffffffffffffffffffffffffffffffffffe14604d57602036146024575f5ffd5b5f35801560495762001fff810690815414603c575f5ffd5b62001fff01545f5260205ff35b5f5ffd5b62001fff42064281555f359062001fff015500",
                "nonce" : "0x01",
                "storage" : {
                }
            },
            "0xa94f5374fce5edbc8e2a8697c15331677e6ebf0b" : {
                "balance" : "0x0de0b6b3a7640000",
                "code" : "0x",
                "nonce" : "0x01",
                "storage" : {
                }
            },
            "0xcccccccccccccccccccccccccccccccccccccccc" : {
                "balance" : "0x0de0b6b3a7640000",
                "code" : "0x600260005500",
                "nonce" : "0x00",
                "storage" : {
                }
            }
        },
        "pre" : {
            "Z000f3df6d732807ef1319fb7b8bb8522d0beac02" : {
                "balance" : "0x00",
                "code" : "0x3373fffffffffffffffffffffffffffffffffffffffe14604d57602036146024575f5ffd5b5f35801560495762001fff810690815414603c575f5ffd5b62001fff01545f5260205ff35b5f5ffd5b62001fff42064281555f359062001fff015500",
                "nonce" : "0x01",
                "storage" : {
                }
            },
            "0xa94f5374fce5edbc8e2a8697c15331677e6ebf0b" : {
                "balance" : "0x0de0b6b3a7640000",
                "code" : "0x",
                "nonce" : "0x01",
                "storage" : {
                }
            },
            "0xcccccccccccccccccccccccccccccccccccccccc" : {
                "balance" : "0x0de0b6b3a7640000",
                "code" : "0x600260005500",
                "nonce" : "0x00",
                "storage" : {
                }
            }
        },
        "sealEngine" : "NoProof"
    },
    "lowFeeCap_d0g0v0_Prague" : {
        "_info" : {
            "comment" : "Ori Pomerantz qbzzt1@gmail.com",
            "filling-rpc-server" : "evmone-t8n 0.14.0-13+commit.4d363c36",
            "filling-tool-version" : "retesteth-0.3.2-legacy+commit.ca7f4c79.Linux.g++",
            "fixture-format" : "blockchain_test",
            "generatedTestHash" : "a26397a0eaf1499c5437151110f61be2de5e41c1d71738c56b70e4b04099fece",
            "lllcversion" : "Version: 0.5.14-develop.2024.11.5+commit.b2b86751.mod.Linux.g++",
            "hyperion" : "Version: 0.8.24+commit.e11b9ed9.Linux.g++",
            "source" : "src/GeneralStateTestsFiller/stEIP1559/lowFeeCapFiller.yml",
            "sourceHash" : "5af31560be7da57dfec7b0234ffe583a776e9c25758f0a213413a953208bb8f4"
        },
        "blocks" : [
            {
                "expectException" : "TransactionException.INSUFFICIENT_MAX_FEE_PER_GAS",
                "rlp" : "0xf902d2f9025ea0ad43d68a3bc2b4b11649dfc0fa3d745b0b2a1387cbe9f27d3010f8bde1bbcc12a01dcc4de8dec75d7aab85b567b6ccd41ad312451b948a7413f0a142fd40d49347942adc25665018aa1fe0e6bc666dac8fc2697ff9baa095a23ad34dfa3f76ed37df8a98210c93b23e899df56aca407ce775635573c2b9a056e81f171bcc55a6ff8345e692c0f86e5b48e01b996cadc001622fb5e363b421a056e81f171bcc55a6ff8345e692c0f86e5b48e01b996cadc001622fb5e363b421b9010000000000000000000000000000000000000000000000000000000000000000000000000000000000000000000000000000000000000000000000000000000000000000000000000000000000000000000000000000000000000000000000000000000000000000000000000000000000000000000000000000000000000000000000000000000000000000000000000000000000000000000000000000000000000000000000000000000000000000000000000000000000000000000000000000000000000000000000000000000000000000000000000000000000000000000000000000000000000000000000000000000000000000000000000000000000800187ff112233445566808203e800a000000000000000000000000000000000000000000000000000000000000200008800000000000000008203e8a056e81f171bcc55a6ff8345e692c0f86e5b48e01b996cadc001622fb5e363b4218080a00000000000000000000000000000000000000000000000000000000000000000a0e3b0c44298fc1c149afbf4c8996fb92427ae41e4649b934ca495991b7852b855f86db86b02f8680101648203e783061a8094cccccccccccccccccccccccccccccccccccccccc830186a000c080a0a0c75b311bd40cb10835e4ef967a6629e01352001bd7cc3b5b4cba0c3ca35722a00ed43a4b0bd8161baa12da82564ead82f3edf051e3d2cfeb57003db712fcfd16c0c0",
                "rlp_decoded" : {
                    "blockHeader" : {
                        "baseFeePerGas" : "0x03e8",
                        "bloom" : "0x00000000000000000000000000000000000000000000000000000000000000000000000000000000000000000000000000000000000000000000000000000000000000000000000000000000000000000000000000000000000000000000000000000000000000000000000000000000000000000000000000000000000000000000000000000000000000000000000000000000000000000000000000000000000000000000000000000000000000000000000000000000000000000000000000000000000000000000000000000000000000000000000000000000000000000000000000000000000000000000000000000000000000000000000000000000",
                        "coinbase" : "Z2adc25665018aa1fe0e6bc666dac8fc2697ff9ba",
                        "extraData" : "0x00",
                        "gasLimit" : "0xff112233445566",
                        "gasUsed" : "0x00",
                        "hash" : "0x42943973ba1a2c8593c62ddcb7d2956d2de9235a964c92414935f5c3365bb758",
                        "mixHash" : "0x0000000000000000000000000000000000000000000000000000000000020000",
                        "nonce" : "0x0000000000000000",
                        "number" : "0x01",
                        "parentHash" : "0xad43d68a3bc2b4b11649dfc0fa3d745b0b2a1387cbe9f27d3010f8bde1bbcc12",
                        "receiptTrie" : "0x56e81f171bcc55a6ff8345e692c0f86e5b48e01b996cadc001622fb5e363b421",
                        "requestsHash" : "0xe3b0c44298fc1c149afbf4c8996fb92427ae41e4649b934ca495991b7852b855",
                        "stateRoot" : "0x95a23ad34dfa3f76ed37df8a98210c93b23e899df56aca407ce775635573c2b9",
                        "timestamp" : "0x03e8",
                        "transactionsTrie" : "0x56e81f171bcc55a6ff8345e692c0f86e5b48e01b996cadc001622fb5e363b421",
                        "withdrawalsRoot" : "0x56e81f171bcc55a6ff8345e692c0f86e5b48e01b996cadc001622fb5e363b421"
                    },
                    "transactions" : [
                        {
                            "accessList" : [
                            ],
                            "chainId" : "0x01",
                            "data" : "0x00",
                            "gasLimit" : "0x061a80",
                            "maxFeePerGas" : "0x03e7",
                            "maxPriorityFeePerGas" : "0x64",
                            "nonce" : "0x01",
                            "signature" : "0xa0c75b311bd40cb10835e4ef967a6629e01352001bd7cc3b5b4cba0c3ca35722",
                            "publicKey" : "0x0ed43a4b0bd8161baa12da82564ead82f3edf051e3d2cfeb57003db712fcfd16",
                            "to" : "Zcccccccccccccccccccccccccccccccccccccccc",
                            "type" : "0x02",
                            "v" : "0x00",
                            "value" : "0x0186a0"
                        }
                    ],
                    "uncleHeaders" : [
                    ],
                    "withdrawals" : [
                    ]
                },
                "transactionSequence" : [
                    {
                        "exception" : "TransactionException.INSUFFICIENT_MAX_FEE_PER_GAS",
                        "rawBytes" : "0x02f8680101648203e783061a8094cccccccccccccccccccccccccccccccccccccccc830186a000c080a0a0c75b311bd40cb10835e4ef967a6629e01352001bd7cc3b5b4cba0c3ca35722a00ed43a4b0bd8161baa12da82564ead82f3edf051e3d2cfeb57003db712fcfd16",
                        "valid" : "false"
                    }
                ]
            }
        ],
        "config" : {
            "blobSchedule" : {
                "Prague" : {
                    "baseFeeUpdateFraction" : "0x4c6964",
                    "max" : "0x09",
                    "target" : "0x06"
                }
            },
            "chainid" : "0x01",
            "network" : "Prague"
        },
        "genesisBlockHeader" : {
            "baseFeePerGas" : "0x0476",
            "bloom" : "0x00000000000000000000000000000000000000000000000000000000000000000000000000000000000000000000000000000000000000000000000000000000000000000000000000000000000000000000000000000000000000000000000000000000000000000000000000000000000000000000000000000000000000000000000000000000000000000000000000000000000000000000000000000000000000000000000000000000000000000000000000000000000000000000000000000000000000000000000000000000000000000000000000000000000000000000000000000000000000000000000000000000000000000000000000000000",
            "coinbase" : "Z2adc25665018aa1fe0e6bc666dac8fc2697ff9ba",
            "extraData" : "0x00",
            "gasLimit" : "0xff112233445566",
            "gasUsed" : "0x00",
            "hash" : "0xad43d68a3bc2b4b11649dfc0fa3d745b0b2a1387cbe9f27d3010f8bde1bbcc12",
            "mixHash" : "0x0000000000000000000000000000000000000000000000000000000000020000",
            "nonce" : "0x0000000000000000",
            "number" : "0x00",
            "parentHash" : "0x0000000000000000000000000000000000000000000000000000000000000000",
            "receiptTrie" : "0x56e81f171bcc55a6ff8345e692c0f86e5b48e01b996cadc001622fb5e363b421",
            "requestsHash" : "0xe3b0c44298fc1c149afbf4c8996fb92427ae41e4649b934ca495991b7852b855",
            "stateRoot" : "0xd7387b6962ce7fd05c3c3c286c359932df0b2d791052a0ff5569e09bc637bcae",
            "timestamp" : "0x00",
            "transactionsTrie" : "0x56e81f171bcc55a6ff8345e692c0f86e5b48e01b996cadc001622fb5e363b421",
            "withdrawalsRoot" : "0x56e81f171bcc55a6ff8345e692c0f86e5b48e01b996cadc001622fb5e363b421"
        },
        "genesisRLP" : "0xf90265f9025fa00000000000000000000000000000000000000000000000000000000000000000a01dcc4de8dec75d7aab85b567b6ccd41ad312451b948a7413f0a142fd40d49347942adc25665018aa1fe0e6bc666dac8fc2697ff9baa0d7387b6962ce7fd05c3c3c286c359932df0b2d791052a0ff5569e09bc637bcaea056e81f171bcc55a6ff8345e692c0f86e5b48e01b996cadc001622fb5e363b421a056e81f171bcc55a6ff8345e692c0f86e5b48e01b996cadc001622fb5e363b421b9010000000000000000000000000000000000000000000000000000000000000000000000000000000000000000000000000000000000000000000000000000000000000000000000000000000000000000000000000000000000000000000000000000000000000000000000000000000000000000000000000000000000000000000000000000000000000000000000000000000000000000000000000000000000000000000000000000000000000000000000000000000000000000000000000000000000000000000000000000000000000000000000000000000000000000000000000000000000000000000000000000000000000000000000000000000000808087ff112233445566808000a00000000000000000000000000000000000000000000000000000000000020000880000000000000000820476a056e81f171bcc55a6ff8345e692c0f86e5b48e01b996cadc001622fb5e363b4218083060000a00000000000000000000000000000000000000000000000000000000000000000a0e3b0c44298fc1c149afbf4c8996fb92427ae41e4649b934ca495991b7852b855c0c0c0",
        "lastblockhash" : "0xad43d68a3bc2b4b11649dfc0fa3d745b0b2a1387cbe9f27d3010f8bde1bbcc12",
        "network" : "Prague",
        "postState" : {
            "Z0000f90827f1c53a10cb7a02335b175320002935" : {
                "balance" : "0x00",
                "code" : "0x3373fffffffffffffffffffffffffffffffffffffffe14604657602036036042575f35600143038111604257611fff81430311604257611fff9006545f5260205ff35b5f5ffd5b5f35611fff60014303065500",
                "nonce" : "0x01",
                "storage" : {
                }
            },
            "0x000f3df6d732807ef1319fb7b8bb8522d0beac02" : {
                "balance" : "0x00",
                "code" : "0x3373fffffffffffffffffffffffffffffffffffffffe14604d57602036146024575f5ffd5b5f35801560495762001fff810690815414603c575f5ffd5b62001fff01545f5260205ff35b5f5ffd5b62001fff42064281555f359062001fff015500",
                "nonce" : "0x01",
                "storage" : {
                }
            },
            "0xa94f5374fce5edbc8e2a8697c15331677e6ebf0b" : {
                "balance" : "0x0de0b6b3a7640000",
                "code" : "0x",
                "nonce" : "0x01",
                "storage" : {
                }
            },
            "0xcccccccccccccccccccccccccccccccccccccccc" : {
                "balance" : "0x0de0b6b3a7640000",
                "code" : "0x600260005500",
                "nonce" : "0x00",
                "storage" : {
                }
            }
        },
        "pre" : {
            "Z0000f90827f1c53a10cb7a02335b175320002935" : {
                "balance" : "0x00",
                "code" : "0x3373fffffffffffffffffffffffffffffffffffffffe14604657602036036042575f35600143038111604257611fff81430311604257611fff9006545f5260205ff35b5f5ffd5b5f35611fff60014303065500",
                "nonce" : "0x01",
                "storage" : {
                }
            },
            "0x000f3df6d732807ef1319fb7b8bb8522d0beac02" : {
                "balance" : "0x00",
                "code" : "0x3373fffffffffffffffffffffffffffffffffffffffe14604d57602036146024575f5ffd5b5f35801560495762001fff810690815414603c575f5ffd5b62001fff01545f5260205ff35b5f5ffd5b62001fff42064281555f359062001fff015500",
                "nonce" : "0x01",
                "storage" : {
                }
            },
            "0xa94f5374fce5edbc8e2a8697c15331677e6ebf0b" : {
                "balance" : "0x0de0b6b3a7640000",
                "code" : "0x",
                "nonce" : "0x01",
                "storage" : {
                }
            },
            "0xcccccccccccccccccccccccccccccccccccccccc" : {
                "balance" : "0x0de0b6b3a7640000",
                "code" : "0x600260005500",
                "nonce" : "0x00",
                "storage" : {
                }
            }
        },
        "sealEngine" : "NoProof"
    }
}