{
    "incorrectWithdrawalsRoot_Cancun" : {
        "_info" : {
            "comment" : "Test vectors BSHA0004",
            "filling-rpc-server" : "evmone-t8n 0.14.0-13+commit.4d363c36",
            "filling-tool-version" : "retesteth-0.3.2-legacy+commit.ca7f4c79.Linux.g++",
            "fixture-format" : "blockchain_test",
            "generatedTestHash" : "073984a00ef829608efdcb87824b4a0bae702f7558d6efe84778ac590aa046f1",
            "lllcversion" : "Version: 0.5.14-develop.2024.11.5+commit.b2b86751.mod.Linux.g++",
            "hyperion" : "Version: 0.8.24+commit.e11b9ed9.Linux.g++",
            "source" : "src/BlockchainTestsFiller/InvalidBlocks/bc4895-withdrawals/incorrectWithdrawalsRootFiller.json",
            "sourceHash" : "fabd456d5bb3f771989d744c6e32cb0a337baaed73268595c9fb9b9f8649b878"
        },
        "blocks" : [
            {
                "blocknumber" : "1",
                "chainname" : "default",
                "expectException" : "BlockException.INVALID_WITHDRAWALS_ROOT",
                "rlp" : "0xf902b5f9023fa0286a26a6c05ea12f11b541486c5eb8ef0a36ce29b61e86f2a98886a3886b202ca01dcc4de8dec75d7aab85b567b6ccd41ad312451b948a7413f0a142fd40d49347942adc25665018aa1fe0e6bc666dac8fc2697ff9baa0a328ab2b4b2e0195194262a116e904f804eef0d336b8114fc4106925e0326ffda071e515dd89e8a7973402c2e11646081b4e2209b2d3a1550df5095289dabcb3fba0ed9c51ea52c968e552e370a77a41dac98606e98b915092fb5f949d6452fce1c4b90100000000000000000000000000000000000000000000000000000000000000000000000000000000000000000000000000000000000000000000000000000000000000000000000000000000000000000000000000000000000000000000000000000000000000000000000000000000000000000000000000000000000000000000000000000000000000000000000000000000000000000000000000000000000000000000000000000000000000000000000000000000000000000000000000000000000000000000000000000000000000000000000000000000000000000000000000000000000000000000000000000000000000000000000000000000008001887fffffffffffffff830125b882079e42a056e81f171bcc55a6ff8345e692c0f86e5b48e01b996cadc001622fb5e363b42188000000000000000009a0bad81f171bcc55a6ff8345e692c0f86e5b48e01b996cadc001622fb5e363b4218080a00000000000000000000000000000000000000000000000000000000000000000f854f852802883061a808080866001600155001ba00b46eb2e2c914b99416e723a37be923605238a81c83c25b5f842544bebea8816a065730cb3fb806bd5260c1db09198459a2a2499e51b43a3780b48c1a3594133f2c0dbda808094c94f5374fce5edbc8e2a8697c15331677e6ebf0b822710",
                "rlp_decoded" : {
                    "blockHeader" : {
                        "baseFeePerGas" : "0x09",
                        "bloom" : "0x00000000000000000000000000000000000000000000000000000000000000000000000000000000000000000000000000000000000000000000000000000000000000000000000000000000000000000000000000000000000000000000000000000000000000000000000000000000000000000000000000000000000000000000000000000000000000000000000000000000000000000000000000000000000000000000000000000000000000000000000000000000000000000000000000000000000000000000000000000000000000000000000000000000000000000000000000000000000000000000000000000000000000000000000000000000",
                        "coinbase" : "Z2adc25665018aa1fe0e6bc666dac8fc2697ff9ba",
                        "extraData" : "0x42",
                        "gasLimit" : "0x7fffffffffffffff",
                        "gasUsed" : "0x0125b8",
                        "hash" : "0x4cbf8231589ba4ad811380f9299371c230a54a312da00be4f94e4953c975270c",
                        "mixHash" : "0x56e81f171bcc55a6ff8345e692c0f86e5b48e01b996cadc001622fb5e363b421",
                        "nonce" : "0x0000000000000000",
                        "number" : "0x01",
                        "parentHash" : "0x286a26a6c05ea12f11b541486c5eb8ef0a36ce29b61e86f2a98886a3886b202c",
                        "receiptTrie" : "0xed9c51ea52c968e552e370a77a41dac98606e98b915092fb5f949d6452fce1c4",
                        "stateRoot" : "0xa328ab2b4b2e0195194262a116e904f804eef0d336b8114fc4106925e0326ffd",
                        "timestamp" : "0x079e",
                        "transactionsTrie" : "0x71e515dd89e8a7973402c2e11646081b4e2209b2d3a1550df5095289dabcb3fb",
                        "withdrawalsRoot" : "0xbad81f171bcc55a6ff8345e692c0f86e5b48e01b996cadc001622fb5e363b421"
                    },
                    "transactions" : [
                        {
                            "data" : "0x600160015500",
                            "gasLimit" : "0x061a80",
                            "gasPrice" : "0x28",
                            "nonce" : "0x00",
                            "publicKey" : "0x0b46eb2e2c914b99416e723a37be923605238a81c83c25b5f842544bebea8816",
                            "signature" : "0x65730cb3fb806bd5260c1db09198459a2a2499e51b43a3780b48c1a3594133f2",
                            "to" : "",
                            "v" : "0x1b",
                            "value" : "0x00"
                        }
                    ],
                    "uncleHeaders" : [
                    ],
                    "withdrawals" : [
                        {
                            "address" : "0xc94f5374fce5edbc8e2a8697c15331677e6ebf0b",
                            "amount" : "0x2710",
                            "index" : "0x00",
                            "validatorIndex" : "0x00"
                        }
                    ]
                }
            },
            {
                "blocknumber" : "1",
                "chainname" : "default",
                "expectException" : "BlockException.INVALID_WITHDRAWALS_ROOT",
                "rlp" : "0xf9029af9023fa0286a26a6c05ea12f11b541486c5eb8ef0a36ce29b61e86f2a98886a3886b202ca01dcc4de8dec75d7aab85b567b6ccd41ad312451b948a7413f0a142fd40d49347942adc25665018aa1fe0e6bc666dac8fc2697ff9baa0e0f964be6b57cc67890cfdf64bf2b9533866b78aa0cd48a33a25768e2b32a6dda071e515dd89e8a7973402c2e11646081b4e2209b2d3a1550df5095289dabcb3fba0ed9c51ea52c968e552e370a77a41dac98606e98b915092fb5f949d6452fce1c4b90100000000000000000000000000000000000000000000000000000000000000000000000000000000000000000000000000000000000000000000000000000000000000000000000000000000000000000000000000000000000000000000000000000000000000000000000000000000000000000000000000000000000000000000000000000000000000000000000000000000000000000000000000000000000000000000000000000000000000000000000000000000000000000000000000000000000000000000000000000000000000000000000000000000000000000000000000000000000000000000000000000000000000000000000000000000008001887fffffffffffffff830125b882079e42a056e81f171bcc55a6ff8345e692c0f86e5b48e01b996cadc001622fb5e363b42188000000000000000009a0bad81f171bcc55a6ff8345e692c0f86e5b48e01b996cadc001622fb5e363b4218080a00000000000000000000000000000000000000000000000000000000000000000f854f852802883061a808080866001600155001ba00b46eb2e2c914b99416e723a37be923605238a81c83c25b5f842544bebea8816a065730cb3fb806bd5260c1db09198459a2a2499e51b43a3780b48c1a3594133f2c0c0",
                "rlp_decoded" : {
                    "blockHeader" : {
                        "baseFeePerGas" : "0x09",
                        "bloom" : "0x00000000000000000000000000000000000000000000000000000000000000000000000000000000000000000000000000000000000000000000000000000000000000000000000000000000000000000000000000000000000000000000000000000000000000000000000000000000000000000000000000000000000000000000000000000000000000000000000000000000000000000000000000000000000000000000000000000000000000000000000000000000000000000000000000000000000000000000000000000000000000000000000000000000000000000000000000000000000000000000000000000000000000000000000000000000",
                        "coinbase" : "Z2adc25665018aa1fe0e6bc666dac8fc2697ff9ba",
                        "extraData" : "0x42",
                        "gasLimit" : "0x7fffffffffffffff",
                        "gasUsed" : "0x0125b8",
                        "hash" : "0x120726b702f5609212f3debd63ee778c6922f66e43050f444edd1ef826cbb2b7",
                        "mixHash" : "0x56e81f171bcc55a6ff8345e692c0f86e5b48e01b996cadc001622fb5e363b421",
                        "nonce" : "0x0000000000000000",
                        "number" : "0x01",
                        "parentHash" : "0x286a26a6c05ea12f11b541486c5eb8ef0a36ce29b61e86f2a98886a3886b202c",
                        "receiptTrie" : "0xed9c51ea52c968e552e370a77a41dac98606e98b915092fb5f949d6452fce1c4",
                        "stateRoot" : "0xe0f964be6b57cc67890cfdf64bf2b9533866b78aa0cd48a33a25768e2b32a6dd",
                        "timestamp" : "0x079e",
                        "transactionsTrie" : "0x71e515dd89e8a7973402c2e11646081b4e2209b2d3a1550df5095289dabcb3fb",
                        "withdrawalsRoot" : "0xbad81f171bcc55a6ff8345e692c0f86e5b48e01b996cadc001622fb5e363b421"
                    },
                    "transactions" : [
                        {
                            "data" : "0x600160015500",
                            "gasLimit" : "0x061a80",
                            "gasPrice" : "0x28",
                            "nonce" : "0x00",
                            "publicKey" : "0x0b46eb2e2c914b99416e723a37be923605238a81c83c25b5f842544bebea8816",
                            "signature" : "0x65730cb3fb806bd5260c1db09198459a2a2499e51b43a3780b48c1a3594133f2",
                            "to" : "",
                            "v" : "0x1b",
                            "value" : "0x00"
                        }
                    ],
                    "uncleHeaders" : [
                    ],
                    "withdrawals" : [
                    ]
                }
            }
        ],
        "config" : {
            
            "chainid" : "0x01",
            "network" : "Shanghai"
        },
        "genesisBlockHeader" : {
            "baseFeePerGas" : "0x0a",
            "bloom" : "0x00000000000000000000000000000000000000000000000000000000000000000000000000000000000000000000000000000000000000000000000000000000000000000000000000000000000000000000000000000000000000000000000000000000000000000000000000000000000000000000000000000000000000000000000000000000000000000000000000000000000000000000000000000000000000000000000000000000000000000000000000000000000000000000000000000000000000000000000000000000000000000000000000000000000000000000000000000000000000000000000000000000000000000000000000000000",
            "coinbase" : "Z2adc25665018aa1fe0e6bc666dac8fc2697ff9ba",
            "extraData" : "0x42",
            "gasLimit" : "0x7fffffffffffffff",
            "gasUsed" : "0x00",
            "hash" : "0x286a26a6c05ea12f11b541486c5eb8ef0a36ce29b61e86f2a98886a3886b202c",
            "mixHash" : "0x56e81f171bcc55a6ff8345e692c0f86e5b48e01b996cadc001622fb5e363b421",
            "nonce" : "0x0000000000000000",
            "number" : "0x00",
            "parentHash" : "0x0000000000000000000000000000000000000000000000000000000000000000",
            "receiptTrie" : "0x56e81f171bcc55a6ff8345e692c0f86e5b48e01b996cadc001622fb5e363b421",
            "stateRoot" : "0xc9f38211bd47d18248e2bd461131b4b454dde6dd63ab70d57e157d2fe058b342",
            "timestamp" : "0x03b6",
            "transactionsTrie" : "0x56e81f171bcc55a6ff8345e692c0f86e5b48e01b996cadc001622fb5e363b421",
            "withdrawalsRoot" : "0x56e81f171bcc55a6ff8345e692c0f86e5b48e01b996cadc001622fb5e363b421"
        },
        "genesisRLP" : "0xf90242f9023ca00000000000000000000000000000000000000000000000000000000000000000a01dcc4de8dec75d7aab85b567b6ccd41ad312451b948a7413f0a142fd40d49347942adc25665018aa1fe0e6bc666dac8fc2697ff9baa0c9f38211bd47d18248e2bd461131b4b454dde6dd63ab70d57e157d2fe058b342a056e81f171bcc55a6ff8345e692c0f86e5b48e01b996cadc001622fb5e363b421a056e81f171bcc55a6ff8345e692c0f86e5b48e01b996cadc001622fb5e363b421b90100000000000000000000000000000000000000000000000000000000000000000000000000000000000000000000000000000000000000000000000000000000000000000000000000000000000000000000000000000000000000000000000000000000000000000000000000000000000000000000000000000000000000000000000000000000000000000000000000000000000000000000000000000000000000000000000000000000000000000000000000000000000000000000000000000000000000000000000000000000000000000000000000000000000000000000000000000000000000000000000000000000000000000000000000000000008080887fffffffffffffff808203b642a056e81f171bcc55a6ff8345e692c0f86e5b48e01b996cadc001622fb5e363b4218800000000000000000aa056e81f171bcc55a6ff8345e692c0f86e5b48e01b996cadc001622fb5e363b4218080a00000000000000000000000000000000000000000000000000000000000000000c0c0c0",
        "lastblockhash" : "0x286a26a6c05ea12f11b541486c5eb8ef0a36ce29b61e86f2a98886a3886b202c",
        "network" : "Shanghai",
        "postState" : {
            "Z000f3df6d732807ef1319fb7b8bb8522d0beac02" : {
                "balance" : "0x00",
                "code" : "0x3373fffffffffffffffffffffffffffffffffffffffe14604d57602036146024575f5ffd5b5f35801560495762001fff810690815414603c575f5ffd5b62001fff01545f5260205ff35b5f5ffd5b62001fff42064281555f359062001fff015500",
                "nonce" : "0x01",
                "storage" : {
                    "0x03b6" : "0x03b6"
                }
            },
            "Za94f5374fce5edbc8e2a8697c15331677e6ebf0b" : {
                "balance" : "0x016345785d8a0000",
                "code" : "0x",
                "nonce" : "0x00",
                "storage" : {
                }
            }
        },
        "pre" : {
            "Z000f3df6d732807ef1319fb7b8bb8522d0beac02" : {
                "balance" : "0x00",
                "code" : "0x3373fffffffffffffffffffffffffffffffffffffffe14604d57602036146024575f5ffd5b5f35801560495762001fff810690815414603c575f5ffd5b62001fff01545f5260205ff35b5f5ffd5b62001fff42064281555f359062001fff015500",
                "nonce" : "0x01",
                "storage" : {
                    "0x03b6" : "0x03b6"
                }
            },
            "Za94f5374fce5edbc8e2a8697c15331677e6ebf0b" : {
                "balance" : "0x016345785d8a0000",
                "code" : "0x",
                "nonce" : "0x00",
                "storage" : {
                }
            }
        },
        "sealEngine" : "NoProof"
    },
    "incorrectWithdrawalsRoot_Prague" : {
        "_info" : {
            "comment" : "Test vectors BSHA0004",
            "filling-rpc-server" : "evmone-t8n 0.14.0-13+commit.4d363c36",
            "filling-tool-version" : "retesteth-0.3.2-legacy+commit.ca7f4c79.Linux.g++",
            "fixture-format" : "blockchain_test",
            "generatedTestHash" : "050523ce52cc53bf1423da0e4937a03dc6f601ff6fe74ca97e137c95d3e7e947",
            "lllcversion" : "Version: 0.5.14-develop.2024.11.5+commit.b2b86751.mod.Linux.g++",
            "hyperion" : "Version: 0.8.24+commit.e11b9ed9.Linux.g++",
            "source" : "src/BlockchainTestsFiller/InvalidBlocks/bc4895-withdrawals/incorrectWithdrawalsRootFiller.json",
            "sourceHash" : "fabd456d5bb3f771989d744c6e32cb0a337baaed73268595c9fb9b9f8649b878"
        },
        "blocks" : [
            {
                "blocknumber" : "1",
                "chainname" : "default",
                "expectException" : "BlockException.INVALID_WITHDRAWALS_ROOT",
                "rlp" : "0xf902d6f90260a0c6ca6b16c871e6b4801bb442ff279a82047c27b1a917f3c465b517407e155805a01dcc4de8dec75d7aab85b567b6ccd41ad312451b948a7413f0a142fd40d49347942adc25665018aa1fe0e6bc666dac8fc2697ff9baa051d1fe14bdb93e01816f8857d39f4463d0a3208154022534c75259d4248e4b62a071e515dd89e8a7973402c2e11646081b4e2209b2d3a1550df5095289dabcb3fba0ed9c51ea52c968e552e370a77a41dac98606e98b915092fb5f949d6452fce1c4b90100000000000000000000000000000000000000000000000000000000000000000000000000000000000000000000000000000000000000000000000000000000000000000000000000000000000000000000000000000000000000000000000000000000000000000000000000000000000000000000000000000000000000000000000000000000000000000000000000000000000000000000000000000000000000000000000000000000000000000000000000000000000000000000000000000000000000000000000000000000000000000000000000000000000000000000000000000000000000000000000000000000000000000000000000000000008001887fffffffffffffff830125b882079e42a056e81f171bcc55a6ff8345e692c0f86e5b48e01b996cadc001622fb5e363b42188000000000000000009a0bad81f171bcc55a6ff8345e692c0f86e5b48e01b996cadc001622fb5e363b4218080a00000000000000000000000000000000000000000000000000000000000000000a0e3b0c44298fc1c149afbf4c8996fb92427ae41e4649b934ca495991b7852b855f854f852802883061a808080866001600155001ba00b46eb2e2c914b99416e723a37be923605238a81c83c25b5f842544bebea8816a065730cb3fb806bd5260c1db09198459a2a2499e51b43a3780b48c1a3594133f2c0dbda808094c94f5374fce5edbc8e2a8697c15331677e6ebf0b822710",
                "rlp_decoded" : {
                    "blockHeader" : {
                        "baseFeePerGas" : "0x09",
                        "bloom" : "0x00000000000000000000000000000000000000000000000000000000000000000000000000000000000000000000000000000000000000000000000000000000000000000000000000000000000000000000000000000000000000000000000000000000000000000000000000000000000000000000000000000000000000000000000000000000000000000000000000000000000000000000000000000000000000000000000000000000000000000000000000000000000000000000000000000000000000000000000000000000000000000000000000000000000000000000000000000000000000000000000000000000000000000000000000000000",
                        "coinbase" : "Z2adc25665018aa1fe0e6bc666dac8fc2697ff9ba",
                        "extraData" : "0x42",
                        "gasLimit" : "0x7fffffffffffffff",
                        "gasUsed" : "0x0125b8",
                        "hash" : "0xa8112b4e198e29389efd0a50878de2a3d57514430da23d3bd9d0dc5738f64cd8",
                        "mixHash" : "0x56e81f171bcc55a6ff8345e692c0f86e5b48e01b996cadc001622fb5e363b421",
                        "nonce" : "0x0000000000000000",
                        "number" : "0x01",
                        "parentHash" : "0xc6ca6b16c871e6b4801bb442ff279a82047c27b1a917f3c465b517407e155805",
                        "receiptTrie" : "0xed9c51ea52c968e552e370a77a41dac98606e98b915092fb5f949d6452fce1c4",
                        "requestsHash" : "0xe3b0c44298fc1c149afbf4c8996fb92427ae41e4649b934ca495991b7852b855",
                        "stateRoot" : "0x51d1fe14bdb93e01816f8857d39f4463d0a3208154022534c75259d4248e4b62",
                        "timestamp" : "0x079e",
                        "transactionsTrie" : "0x71e515dd89e8a7973402c2e11646081b4e2209b2d3a1550df5095289dabcb3fb",
                        "withdrawalsRoot" : "0xbad81f171bcc55a6ff8345e692c0f86e5b48e01b996cadc001622fb5e363b421"
                    },
                    "transactions" : [
                        {
                            "data" : "0x600160015500",
                            "gasLimit" : "0x061a80",
                            "gasPrice" : "0x28",
                            "nonce" : "0x00",
                            "publicKey" : "0x0b46eb2e2c914b99416e723a37be923605238a81c83c25b5f842544bebea8816",
                            "signature" : "0x65730cb3fb806bd5260c1db09198459a2a2499e51b43a3780b48c1a3594133f2",
                            "to" : "",
                            "v" : "0x1b",
                            "value" : "0x00"
                        }
                    ],
                    "uncleHeaders" : [
                    ],
                    "withdrawals" : [
                        {
                            "address" : "0xc94f5374fce5edbc8e2a8697c15331677e6ebf0b",
                            "amount" : "0x2710",
                            "index" : "0x00",
                            "validatorIndex" : "0x00"
                        }
                    ]
                }
            },
            {
                "blocknumber" : "1",
                "chainname" : "default",
                "expectException" : "BlockException.INVALID_WITHDRAWALS_ROOT",
                "rlp" : "0xf902bbf90260a0c6ca6b16c871e6b4801bb442ff279a82047c27b1a917f3c465b517407e155805a01dcc4de8dec75d7aab85b567b6ccd41ad312451b948a7413f0a142fd40d49347942adc25665018aa1fe0e6bc666dac8fc2697ff9baa0b0e688c7543b2d7d2566636adddc46324c36d0fffe7464f6724c2ab0c90b49d0a071e515dd89e8a7973402c2e11646081b4e2209b2d3a1550df5095289dabcb3fba0ed9c51ea52c968e552e370a77a41dac98606e98b915092fb5f949d6452fce1c4b90100000000000000000000000000000000000000000000000000000000000000000000000000000000000000000000000000000000000000000000000000000000000000000000000000000000000000000000000000000000000000000000000000000000000000000000000000000000000000000000000000000000000000000000000000000000000000000000000000000000000000000000000000000000000000000000000000000000000000000000000000000000000000000000000000000000000000000000000000000000000000000000000000000000000000000000000000000000000000000000000000000000000000000000000000000000008001887fffffffffffffff830125b882079e42a056e81f171bcc55a6ff8345e692c0f86e5b48e01b996cadc001622fb5e363b42188000000000000000009a0bad81f171bcc55a6ff8345e692c0f86e5b48e01b996cadc001622fb5e363b4218080a00000000000000000000000000000000000000000000000000000000000000000a0e3b0c44298fc1c149afbf4c8996fb92427ae41e4649b934ca495991b7852b855f854f852802883061a808080866001600155001ba00b46eb2e2c914b99416e723a37be923605238a81c83c25b5f842544bebea8816a065730cb3fb806bd5260c1db09198459a2a2499e51b43a3780b48c1a3594133f2c0c0",
                "rlp_decoded" : {
                    "blockHeader" : {
                        "baseFeePerGas" : "0x09",
                        "bloom" : "0x00000000000000000000000000000000000000000000000000000000000000000000000000000000000000000000000000000000000000000000000000000000000000000000000000000000000000000000000000000000000000000000000000000000000000000000000000000000000000000000000000000000000000000000000000000000000000000000000000000000000000000000000000000000000000000000000000000000000000000000000000000000000000000000000000000000000000000000000000000000000000000000000000000000000000000000000000000000000000000000000000000000000000000000000000000000",
                        "coinbase" : "Z2adc25665018aa1fe0e6bc666dac8fc2697ff9ba",
                        "extraData" : "0x42",
                        "gasLimit" : "0x7fffffffffffffff",
                        "gasUsed" : "0x0125b8",
                        "hash" : "0x3b2b17cb15d0885161d1ce4d4a19d25b295d763eebb84fa1c3496d3350698112",
                        "mixHash" : "0x56e81f171bcc55a6ff8345e692c0f86e5b48e01b996cadc001622fb5e363b421",
                        "nonce" : "0x0000000000000000",
                        "number" : "0x01",
                        "parentHash" : "0xc6ca6b16c871e6b4801bb442ff279a82047c27b1a917f3c465b517407e155805",
                        "receiptTrie" : "0xed9c51ea52c968e552e370a77a41dac98606e98b915092fb5f949d6452fce1c4",
                        "requestsHash" : "0xe3b0c44298fc1c149afbf4c8996fb92427ae41e4649b934ca495991b7852b855",
                        "stateRoot" : "0xb0e688c7543b2d7d2566636adddc46324c36d0fffe7464f6724c2ab0c90b49d0",
                        "timestamp" : "0x079e",
                        "transactionsTrie" : "0x71e515dd89e8a7973402c2e11646081b4e2209b2d3a1550df5095289dabcb3fb",
                        "withdrawalsRoot" : "0xbad81f171bcc55a6ff8345e692c0f86e5b48e01b996cadc001622fb5e363b421"
                    },
                    "transactions" : [
                        {
                            "data" : "0x600160015500",
                            "gasLimit" : "0x061a80",
                            "gasPrice" : "0x28",
                            "nonce" : "0x00",
                            "publicKey" : "0x0b46eb2e2c914b99416e723a37be923605238a81c83c25b5f842544bebea8816",
                            "signature" : "0x65730cb3fb806bd5260c1db09198459a2a2499e51b43a3780b48c1a3594133f2",
                            "to" : "",
                            "v" : "0x1b",
                            "value" : "0x00"
                        }
                    ],
                    "uncleHeaders" : [
                    ],
                    "withdrawals" : [
                    ]
                }
            }
        ],
        "config" : {
            
            "chainid" : "0x01",
            "network" : "Shanghai"
        },
        "genesisBlockHeader" : {
            "baseFeePerGas" : "0x0a",
            "bloom" : "0x00000000000000000000000000000000000000000000000000000000000000000000000000000000000000000000000000000000000000000000000000000000000000000000000000000000000000000000000000000000000000000000000000000000000000000000000000000000000000000000000000000000000000000000000000000000000000000000000000000000000000000000000000000000000000000000000000000000000000000000000000000000000000000000000000000000000000000000000000000000000000000000000000000000000000000000000000000000000000000000000000000000000000000000000000000000",
            "coinbase" : "Z2adc25665018aa1fe0e6bc666dac8fc2697ff9ba",
            "extraData" : "0x42",
            "gasLimit" : "0x7fffffffffffffff",
            "gasUsed" : "0x00",
            "hash" : "0xc6ca6b16c871e6b4801bb442ff279a82047c27b1a917f3c465b517407e155805",
            "mixHash" : "0x56e81f171bcc55a6ff8345e692c0f86e5b48e01b996cadc001622fb5e363b421",
            "nonce" : "0x0000000000000000",
            "number" : "0x00",
            "parentHash" : "0x0000000000000000000000000000000000000000000000000000000000000000",
            "receiptTrie" : "0x56e81f171bcc55a6ff8345e692c0f86e5b48e01b996cadc001622fb5e363b421",
            "requestsHash" : "0xe3b0c44298fc1c149afbf4c8996fb92427ae41e4649b934ca495991b7852b855",
            "stateRoot" : "0xf27d42dc69aa3702e01d52675819850d9b18684b311c8c6dacc06b90f38b2a58",
            "timestamp" : "0x03b6",
            "transactionsTrie" : "0x56e81f171bcc55a6ff8345e692c0f86e5b48e01b996cadc001622fb5e363b421",
            "withdrawalsRoot" : "0x56e81f171bcc55a6ff8345e692c0f86e5b48e01b996cadc001622fb5e363b421"
        },
        "genesisRLP" : "0xf90263f9025da00000000000000000000000000000000000000000000000000000000000000000a01dcc4de8dec75d7aab85b567b6ccd41ad312451b948a7413f0a142fd40d49347942adc25665018aa1fe0e6bc666dac8fc2697ff9baa0f27d42dc69aa3702e01d52675819850d9b18684b311c8c6dacc06b90f38b2a58a056e81f171bcc55a6ff8345e692c0f86e5b48e01b996cadc001622fb5e363b421a056e81f171bcc55a6ff8345e692c0f86e5b48e01b996cadc001622fb5e363b421b90100000000000000000000000000000000000000000000000000000000000000000000000000000000000000000000000000000000000000000000000000000000000000000000000000000000000000000000000000000000000000000000000000000000000000000000000000000000000000000000000000000000000000000000000000000000000000000000000000000000000000000000000000000000000000000000000000000000000000000000000000000000000000000000000000000000000000000000000000000000000000000000000000000000000000000000000000000000000000000000000000000000000000000000000000000000008080887fffffffffffffff808203b642a056e81f171bcc55a6ff8345e692c0f86e5b48e01b996cadc001622fb5e363b4218800000000000000000aa056e81f171bcc55a6ff8345e692c0f86e5b48e01b996cadc001622fb5e363b4218080a00000000000000000000000000000000000000000000000000000000000000000a0e3b0c44298fc1c149afbf4c8996fb92427ae41e4649b934ca495991b7852b855c0c0c0",
        "lastblockhash" : "0xc6ca6b16c871e6b4801bb442ff279a82047c27b1a917f3c465b517407e155805",
        "network" : "Shanghai",
        "postState" : {
            "Z0000f90827f1c53a10cb7a02335b175320002935" : {
                "balance" : "0x00",
                "code" : "0x3373fffffffffffffffffffffffffffffffffffffffe14604657602036036042575f35600143038111604257611fff81430311604257611fff9006545f5260205ff35b5f5ffd5b5f35611fff60014303065500",
                "nonce" : "0x01",
                "storage" : {
                }
            },
            "Z000f3df6d732807ef1319fb7b8bb8522d0beac02" : {
                "balance" : "0x00",
                "code" : "0x3373fffffffffffffffffffffffffffffffffffffffe14604d57602036146024575f5ffd5b5f35801560495762001fff810690815414603c575f5ffd5b62001fff01545f5260205ff35b5f5ffd5b62001fff42064281555f359062001fff015500",
                "nonce" : "0x01",
                "storage" : {
                    "0x03b6" : "0x03b6"
                }
            },
            "Za94f5374fce5edbc8e2a8697c15331677e6ebf0b" : {
                "balance" : "0x016345785d8a0000",
                "code" : "0x",
                "nonce" : "0x00",
                "storage" : {
                }
            }
        },
        "pre" : {
            "Z0000f90827f1c53a10cb7a02335b175320002935" : {
                "balance" : "0x00",
                "code" : "0x3373fffffffffffffffffffffffffffffffffffffffe14604657602036036042575f35600143038111604257611fff81430311604257611fff9006545f5260205ff35b5f5ffd5b5f35611fff60014303065500",
                "nonce" : "0x01",
                "storage" : {
                }
            },
            "Z000f3df6d732807ef1319fb7b8bb8522d0beac02" : {
                "balance" : "0x00",
                "code" : "0x3373fffffffffffffffffffffffffffffffffffffffe14604d57602036146024575f5ffd5b5f35801560495762001fff810690815414603c575f5ffd5b62001fff01545f5260205ff35b5f5ffd5b62001fff42064281555f359062001fff015500",
                "nonce" : "0x01",
                "storage" : {
                    "0x03b6" : "0x03b6"
                }
            },
            "Za94f5374fce5edbc8e2a8697c15331677e6ebf0b" : {
                "balance" : "0x016345785d8a0000",
                "code" : "0x",
                "nonce" : "0x00",
                "storage" : {
                }
            }
        },
        "sealEngine" : "NoProof"
    }
}