{
    "GasUsedHigherThanBlockGasLimitButNotWithRefundsSuicideLast_Cancun" : {
        "_info" : {
            "comment" : "7 transactions require 148000 gas. but block have 147999, but last transaction do refund suicide with gas payback",
            "filling-rpc-server" : "evmone-t8n 0.14.0-13+commit.4d363c36",
            "filling-tool-version" : "retesteth-0.3.2-legacy+commit.ca7f4c79.Linux.g++",
            "fixture-format" : "blockchain_test",
            "generatedTestHash" : "e2b55fd98a4cff0c176f191ef8560e52ec5385d97cee9e2203c5ec702a7ec981",
            "lllcversion" : "Version: 0.5.14-develop.2024.11.5+commit.b2b86751.mod.Linux.g++",
            "hyperion" : "Version: 0.8.24+commit.e11b9ed9.Linux.g++",
            "source" : "src/BlockchainTestsFiller/InvalidBlocks/bcBlockGasLimitTest/GasUsedHigherThanBlockGasLimitButNotWithRefundsSuicideLastFiller.json",
            "sourceHash" : "63b6269eaa62876545aad041fce6e4f9ec8917dcba9c989aaee18638ef8a4e48"
        },
        "blocks" : [
            {
                "blocknumber" : "1",
                "chainname" : "default",
                "expectException" : "BlockException.GAS_USED_OVERFLOW",
                "rlp" : "0xf904f9f9023ca0cb2e7aa863563812c979ac74c4ef54baf66e96f2baf83e6bcf03b93486893189a01dcc4de8dec75d7aab85b567b6ccd41ad312451b948a7413f0a142fd40d49347948888f1f195afa192cfee860698584c030f4c9db1a0e0c233936aef661636cfb1a97786acc92904971aa41d2974dd21c45aaec0d944a04b8c5617e48aa262447119a6dd62209a5273e285c7c2e9d28c94d11294966116a0dcc94785d0897bff881411737e4ed6a48c27d045d9cc42043e35a52f992bca4eb901000000000000000000000000000000000000000000000000000000000000000000000000000000000000000000000000000000000000000000000000000000000000000000000000000000000000000000000000000000000000000000000000000000000000000000000000000000000000000000000000000000000000000000000000000000000000000000000000000000000000000000000000000000000000000000000000000000000000000000000000000000000000000000000000000000000000000000000000000000000000000000000000000000000000000000000000000000000000000000000000000000000000000000000000000000000080018302421f830242208454c9906942a000000000000000000000000000000000000000000000000000000000000200008800000000000000000ea056e81f171bcc55a6ff8345e692c0f86e5b48e01b996cadc001622fb5e363b4218080a00000000000000000000000000000000000000000000000000000000000000000f902b5f861808203e882520894bbbf5374fce5edbc8e2a8697c15331677e6ebf0b0a801ca05f7695292d57b510cd9ff967b1e026a37e7e432d0f23572c11f871da913c702ba05ce190270250ed44f27be21ab68135071eb84c2482cdc055ce99a642be718aaaf861018203e882520894bbbf5374fce5edbc8e2a8697c15331677e6ebf0b0a801ca098bd5f0c06f3645ab205bfb00a0fb15d101e879424904ce9891792001b02f043a05dfad5eac9272f278643eb0dabc37d2f246ced31b366fc807ff58b2c2b3c44abf861028203e882520894bbbf5374fce5edbc8e2a8697c15331677e6ebf0b0a801ca0b773c25c3e7f8fd5471f59fa041f7c599a4e879764c7a433c63ba804f4d3d001a05efcfad1a58852863bf290bad55ee3143e0b79133c62ef6d36c6409dd275e7e2f861038203e882520894bbbf5374fce5edbc8e2a8697c15331677e6ebf0b0a801ba06df49ddfbe6e8a26f79b1a1ced3fcf928d8f7fa1e6743b637d7d7e25c3a3aa9da0594a654aea98887af6a1f0cd33b331b39e2b3ddc930e4dca30e566d790cb9962f861048203e882520894bbbf5374fce5edbc8e2a8697c15331677e6ebf0b0a801ca0754071821febfbc080fe0a19629d36db40ca593ad163db05d25433fb15941e33a04f7b8945034d5cec59ea976dd0eb67b0eeca95ec0f55a2e257d08390e2897583f861058203e882520894bbbf5374fce5edbc8e2a8697c15331677e6ebf0b0a801ba08b705377b151c13985aafeee2a67bc8aa840735b43ba6ac8388fc56b5e7b335da0582cd1afbb929740f91fd4a2cae6ecbcd3352bd9d2031309cb2970e80fbebd9af861068203e88255f094aaaf5374fce5edbc8e2a8697c15331677e6ebf0b0a801ba08c9374e6778b212f708643cd8d70508341b957c189a00947c7cc782c70031497a03547ead4f10392538af113a86b9c58758450a4916c2882247880e42f6790f5abc0c0",
                "rlp_decoded" : {
                    "blockHeader" : {
                        "baseFeePerGas" : "0x0e",
                        "bloom" : "0x00000000000000000000000000000000000000000000000000000000000000000000000000000000000000000000000000000000000000000000000000000000000000000000000000000000000000000000000000000000000000000000000000000000000000000000000000000000000000000000000000000000000000000000000000000000000000000000000000000000000000000000000000000000000000000000000000000000000000000000000000000000000000000000000000000000000000000000000000000000000000000000000000000000000000000000000000000000000000000000000000000000000000000000000000000000",
                        "coinbase" : "0x8888f1f195afa192cfee860698584c030f4c9db1",
                        "extraData" : "0x42",
                        "gasLimit" : "0x02421f",
                        "gasUsed" : "0x024220",
                        "hash" : "0x15913e21fbe702ab0088b1d5a827a5189c0832590af0bfd2817ee21673ce13d1",
                        "mixHash" : "0x0000000000000000000000000000000000000000000000000000000000020000",
                        "nonce" : "0x0000000000000000",
                        "number" : "0x01",
                        "parentHash" : "0xcb2e7aa863563812c979ac74c4ef54baf66e96f2baf83e6bcf03b93486893189",
                        "receiptTrie" : "0xdcc94785d0897bff881411737e4ed6a48c27d045d9cc42043e35a52f992bca4e",
                        "stateRoot" : "0xe0c233936aef661636cfb1a97786acc92904971aa41d2974dd21c45aaec0d944",
                        "timestamp" : "0x54c99069",
                        "transactionsTrie" : "0x4b8c5617e48aa262447119a6dd62209a5273e285c7c2e9d28c94d11294966116",
                        "withdrawalsRoot" : "0x56e81f171bcc55a6ff8345e692c0f86e5b48e01b996cadc001622fb5e363b421"
                    },
                    "transactions" : [
                        {
                            "data" : "0x",
                            "gasLimit" : "0x5208",
                            "gasPrice" : "0x03e8",
                            "nonce" : "0x00",
                            "r" : "0x5f7695292d57b510cd9ff967b1e026a37e7e432d0f23572c11f871da913c702b",
                            "s" : "0x5ce190270250ed44f27be21ab68135071eb84c2482cdc055ce99a642be718aaa",
                            "to" : "0xbbbf5374fce5edbc8e2a8697c15331677e6ebf0b",
                            "v" : "0x1c",
                            "value" : "0x0a"
                        },
                        {
                            "data" : "0x",
                            "gasLimit" : "0x5208",
                            "gasPrice" : "0x03e8",
                            "nonce" : "0x01",
                            "r" : "0x98bd5f0c06f3645ab205bfb00a0fb15d101e879424904ce9891792001b02f043",
                            "s" : "0x5dfad5eac9272f278643eb0dabc37d2f246ced31b366fc807ff58b2c2b3c44ab",
                            "to" : "0xbbbf5374fce5edbc8e2a8697c15331677e6ebf0b",
                            "v" : "0x1c",
                            "value" : "0x0a"
                        },
                        {
                            "data" : "0x",
                            "gasLimit" : "0x5208",
                            "gasPrice" : "0x03e8",
                            "nonce" : "0x02",
                            "r" : "0xb773c25c3e7f8fd5471f59fa041f7c599a4e879764c7a433c63ba804f4d3d001",
                            "s" : "0x5efcfad1a58852863bf290bad55ee3143e0b79133c62ef6d36c6409dd275e7e2",
                            "to" : "0xbbbf5374fce5edbc8e2a8697c15331677e6ebf0b",
                            "v" : "0x1c",
                            "value" : "0x0a"
                        },
                        {
                            "data" : "0x",
                            "gasLimit" : "0x5208",
                            "gasPrice" : "0x03e8",
                            "nonce" : "0x03",
                            "r" : "0x6df49ddfbe6e8a26f79b1a1ced3fcf928d8f7fa1e6743b637d7d7e25c3a3aa9d",
                            "s" : "0x594a654aea98887af6a1f0cd33b331b39e2b3ddc930e4dca30e566d790cb9962",
                            "to" : "0xbbbf5374fce5edbc8e2a8697c15331677e6ebf0b",
                            "v" : "0x1b",
                            "value" : "0x0a"
                        },
                        {
                            "data" : "0x",
                            "gasLimit" : "0x5208",
                            "gasPrice" : "0x03e8",
                            "nonce" : "0x04",
                            "r" : "0x754071821febfbc080fe0a19629d36db40ca593ad163db05d25433fb15941e33",
                            "s" : "0x4f7b8945034d5cec59ea976dd0eb67b0eeca95ec0f55a2e257d08390e2897583",
                            "to" : "0xbbbf5374fce5edbc8e2a8697c15331677e6ebf0b",
                            "v" : "0x1c",
                            "value" : "0x0a"
                        },
                        {
                            "data" : "0x",
                            "gasLimit" : "0x5208",
                            "gasPrice" : "0x03e8",
                            "nonce" : "0x05",
                            "r" : "0x8b705377b151c13985aafeee2a67bc8aa840735b43ba6ac8388fc56b5e7b335d",
                            "s" : "0x582cd1afbb929740f91fd4a2cae6ecbcd3352bd9d2031309cb2970e80fbebd9a",
                            "to" : "0xbbbf5374fce5edbc8e2a8697c15331677e6ebf0b",
                            "v" : "0x1b",
                            "value" : "0x0a"
                        },
                        {
                            "data" : "0x",
                            "gasLimit" : "0x55f0",
                            "gasPrice" : "0x03e8",
                            "nonce" : "0x06",
                            "r" : "0x8c9374e6778b212f708643cd8d70508341b957c189a00947c7cc782c70031497",
                            "s" : "0x3547ead4f10392538af113a86b9c58758450a4916c2882247880e42f6790f5ab",
                            "to" : "0xaaaf5374fce5edbc8e2a8697c15331677e6ebf0b",
                            "v" : "0x1b",
                            "value" : "0x0a"
                        }
                    ],
                    "uncleHeaders" : [
                    ],
                    "withdrawals" : [
                    ]
                }
            }
        ],
        "config" : {
            "blobSchedule" : {
                "Cancun" : {
                    "baseFeeUpdateFraction" : "0x32f0ed",
                    "max" : "0x06",
                    "target" : "0x03"
                }
            },
            "chainid" : "0x01",
            "network" : "Cancun"
        },
        "genesisBlockHeader" : {
            "baseFeePerGas" : "0x10",
            "bloom" : "0x00000000000000000000000000000000000000000000000000000000000000000000000000000000000000000000000000000000000000000000000000000000000000000000000000000000000000000000000000000000000000000000000000000000000000000000000000000000000000000000000000000000000000000000000000000000000000000000000000000000000000000000000000000000000000000000000000000000000000000000000000000000000000000000000000000000000000000000000000000000000000000000000000000000000000000000000000000000000000000000000000000000000000000000000000000000",
            "coinbase" : "0x8888f1f195afa192cfee860698584c030f4c9db1",
            "extraData" : "0x42",
            "gasLimit" : "0x024220",
            "gasUsed" : "0x00",
            "hash" : "0xcb2e7aa863563812c979ac74c4ef54baf66e96f2baf83e6bcf03b93486893189",
            "mixHash" : "0x0000000000000000000000000000000000000000000000000000000000020000",
            "nonce" : "0x0000000000000000",
            "number" : "0x00",
            "parentHash" : "0x0000000000000000000000000000000000000000000000000000000000000000",
            "receiptTrie" : "0x56e81f171bcc55a6ff8345e692c0f86e5b48e01b996cadc001622fb5e363b421",
            "stateRoot" : "0x1c8f7d94849a8f982c544ea6187a1e768bfd039e19cd5546b35b73349eb63ee0",
            "timestamp" : "0x54c98c81",
            "transactionsTrie" : "0x56e81f171bcc55a6ff8345e692c0f86e5b48e01b996cadc001622fb5e363b421",
            "withdrawalsRoot" : "0x56e81f171bcc55a6ff8345e692c0f86e5b48e01b996cadc001622fb5e363b421"
        },
        "genesisRLP" : "0xf9023ff90239a00000000000000000000000000000000000000000000000000000000000000000a01dcc4de8dec75d7aab85b567b6ccd41ad312451b948a7413f0a142fd40d49347948888f1f195afa192cfee860698584c030f4c9db1a01c8f7d94849a8f982c544ea6187a1e768bfd039e19cd5546b35b73349eb63ee0a056e81f171bcc55a6ff8345e692c0f86e5b48e01b996cadc001622fb5e363b421a056e81f171bcc55a6ff8345e692c0f86e5b48e01b996cadc001622fb5e363b421b9010000000000000000000000000000000000000000000000000000000000000000000000000000000000000000000000000000000000000000000000000000000000000000000000000000000000000000000000000000000000000000000000000000000000000000000000000000000000000000000000000000000000000000000000000000000000000000000000000000000000000000000000000000000000000000000000000000000000000000000000000000000000000000000000000000000000000000000000000000000000000000000000000000000000000000000000000000000000000000000000000000000000000000000000000000000000808083024220808454c98c8142a0000000000000000000000000000000000000000000000000000000000002000088000000000000000010a056e81f171bcc55a6ff8345e692c0f86e5b48e01b996cadc001622fb5e363b4218080a00000000000000000000000000000000000000000000000000000000000000000c0c0c0",
        "lastblockhash" : "0xcb2e7aa863563812c979ac74c4ef54baf66e96f2baf83e6bcf03b93486893189",
        "network" : "Cancun",
        "postState" : {
            "0x000f3df6d732807ef1319fb7b8bb8522d0beac02" : {
                "balance" : "0x00",
                "code" : "0x3373fffffffffffffffffffffffffffffffffffffffe14604d57602036146024575f5ffd5b5f35801560495762001fff810690815414603c575f5ffd5b62001fff01545f5260205ff35b5f5ffd5b62001fff42064281555f359062001fff015500",
                "nonce" : "0x01",
                "storage" : {
                    "0x12e2" : "0x54c98c81"
                }
            },
            "0xa94f5374fce5edbc8e2a8697c15331677e6ebf0b" : {
                "balance" : "0x4a723dc6b40b8a9a000000",
                "code" : "0x",
                "nonce" : "0x00",
                "storage" : {
                }
            },
            "0xaaaf5374fce5edbc8e2a8697c15331677e6ebf0b" : {
                "balance" : "0x02540be400",
                "code" : "0x73a94f5374fce5edbc8e2a8697c15331677e6ebf0bff",
                "nonce" : "0x00",
                "storage" : {
                }
            }
        },
        "pre" : {
            "0x000f3df6d732807ef1319fb7b8bb8522d0beac02" : {
                "balance" : "0x00",
                "code" : "0x3373fffffffffffffffffffffffffffffffffffffffe14604d57602036146024575f5ffd5b5f35801560495762001fff810690815414603c575f5ffd5b62001fff01545f5260205ff35b5f5ffd5b62001fff42064281555f359062001fff015500",
                "nonce" : "0x01",
                "storage" : {
                    "0x12e2" : "0x54c98c81"
                }
            },
            "0xa94f5374fce5edbc8e2a8697c15331677e6ebf0b" : {
                "balance" : "0x4a723dc6b40b8a9a000000",
                "code" : "0x",
                "nonce" : "0x00",
                "storage" : {
                }
            },
            "0xaaaf5374fce5edbc8e2a8697c15331677e6ebf0b" : {
                "balance" : "0x02540be400",
                "code" : "0x73a94f5374fce5edbc8e2a8697c15331677e6ebf0bff",
                "nonce" : "0x00",
                "storage" : {
                }
            }
        },
        "sealEngine" : "NoProof"
    },
    "GasUsedHigherThanBlockGasLimitButNotWithRefundsSuicideLast_Prague" : {
        "_info" : {
            "comment" : "7 transactions require 148000 gas. but block have 147999, but last transaction do refund suicide with gas payback",
            "filling-rpc-server" : "evmone-t8n 0.14.0-13+commit.4d363c36",
            "filling-tool-version" : "retesteth-0.3.2-legacy+commit.ca7f4c79.Linux.g++",
            "fixture-format" : "blockchain_test",
            "generatedTestHash" : "e235abbd47d0cc23b9b8a7a082bf80f6a15cc0163c57a3f8e279ee9d18130a2c",
            "lllcversion" : "Version: 0.5.14-develop.2024.11.5+commit.b2b86751.mod.Linux.g++",
            "hyperion" : "Version: 0.8.24+commit.e11b9ed9.Linux.g++",
            "source" : "src/BlockchainTestsFiller/InvalidBlocks/bcBlockGasLimitTest/GasUsedHigherThanBlockGasLimitButNotWithRefundsSuicideLastFiller.json",
            "sourceHash" : "63b6269eaa62876545aad041fce6e4f9ec8917dcba9c989aaee18638ef8a4e48"
        },
        "blocks" : [
            {
                "blocknumber" : "1",
                "chainname" : "default",
                "expectException" : "BlockException.GAS_USED_OVERFLOW",
                "rlp" : "0xf9051af9025da0b8c2e8ba8df67a7b1461ea6ee1e4907c193c5b6954a18b3eb869c6bcb34dbf76a01dcc4de8dec75d7aab85b567b6ccd41ad312451b948a7413f0a142fd40d49347948888f1f195afa192cfee860698584c030f4c9db1a05f5296472c508c37000de414ce06128baaf4ef63268cd1f76344470bc24058bea04b8c5617e48aa262447119a6dd62209a5273e285c7c2e9d28c94d11294966116a0dcc94785d0897bff881411737e4ed6a48c27d045d9cc42043e35a52f992bca4eb901000000000000000000000000000000000000000000000000000000000000000000000000000000000000000000000000000000000000000000000000000000000000000000000000000000000000000000000000000000000000000000000000000000000000000000000000000000000000000000000000000000000000000000000000000000000000000000000000000000000000000000000000000000000000000000000000000000000000000000000000000000000000000000000000000000000000000000000000000000000000000000000000000000000000000000000000000000000000000000000000000000000000000000000000000000000080018302421f830242208454c9906942a000000000000000000000000000000000000000000000000000000000000200008800000000000000000ea056e81f171bcc55a6ff8345e692c0f86e5b48e01b996cadc001622fb5e363b4218080a00000000000000000000000000000000000000000000000000000000000000000a0e3b0c44298fc1c149afbf4c8996fb92427ae41e4649b934ca495991b7852b855f902b5f861808203e882520894bbbf5374fce5edbc8e2a8697c15331677e6ebf0b0a801ca05f7695292d57b510cd9ff967b1e026a37e7e432d0f23572c11f871da913c702ba05ce190270250ed44f27be21ab68135071eb84c2482cdc055ce99a642be718aaaf861018203e882520894bbbf5374fce5edbc8e2a8697c15331677e6ebf0b0a801ca098bd5f0c06f3645ab205bfb00a0fb15d101e879424904ce9891792001b02f043a05dfad5eac9272f278643eb0dabc37d2f246ced31b366fc807ff58b2c2b3c44abf861028203e882520894bbbf5374fce5edbc8e2a8697c15331677e6ebf0b0a801ca0b773c25c3e7f8fd5471f59fa041f7c599a4e879764c7a433c63ba804f4d3d001a05efcfad1a58852863bf290bad55ee3143e0b79133c62ef6d36c6409dd275e7e2f861038203e882520894bbbf5374fce5edbc8e2a8697c15331677e6ebf0b0a801ba06df49ddfbe6e8a26f79b1a1ced3fcf928d8f7fa1e6743b637d7d7e25c3a3aa9da0594a654aea98887af6a1f0cd33b331b39e2b3ddc930e4dca30e566d790cb9962f861048203e882520894bbbf5374fce5edbc8e2a8697c15331677e6ebf0b0a801ca0754071821febfbc080fe0a19629d36db40ca593ad163db05d25433fb15941e33a04f7b8945034d5cec59ea976dd0eb67b0eeca95ec0f55a2e257d08390e2897583f861058203e882520894bbbf5374fce5edbc8e2a8697c15331677e6ebf0b0a801ba08b705377b151c13985aafeee2a67bc8aa840735b43ba6ac8388fc56b5e7b335da0582cd1afbb929740f91fd4a2cae6ecbcd3352bd9d2031309cb2970e80fbebd9af861068203e88255f094aaaf5374fce5edbc8e2a8697c15331677e6ebf0b0a801ba08c9374e6778b212f708643cd8d70508341b957c189a00947c7cc782c70031497a03547ead4f10392538af113a86b9c58758450a4916c2882247880e42f6790f5abc0c0",
                "rlp_decoded" : {
                    "blockHeader" : {
                        "baseFeePerGas" : "0x0e",
                        "bloom" : "0x00000000000000000000000000000000000000000000000000000000000000000000000000000000000000000000000000000000000000000000000000000000000000000000000000000000000000000000000000000000000000000000000000000000000000000000000000000000000000000000000000000000000000000000000000000000000000000000000000000000000000000000000000000000000000000000000000000000000000000000000000000000000000000000000000000000000000000000000000000000000000000000000000000000000000000000000000000000000000000000000000000000000000000000000000000000",
                        "coinbase" : "0x8888f1f195afa192cfee860698584c030f4c9db1",
                        "extraData" : "0x42",
                        "gasLimit" : "0x02421f",
                        "gasUsed" : "0x024220",
                        "hash" : "0x09f7607414a7cc8c8f8a16d79bda3e78fb71c40c4277a19547557f99af78d640",
                        "mixHash" : "0x0000000000000000000000000000000000000000000000000000000000020000",
                        "nonce" : "0x0000000000000000",
                        "number" : "0x01",
                        "parentHash" : "0xb8c2e8ba8df67a7b1461ea6ee1e4907c193c5b6954a18b3eb869c6bcb34dbf76",
                        "receiptTrie" : "0xdcc94785d0897bff881411737e4ed6a48c27d045d9cc42043e35a52f992bca4e",
                        "requestsHash" : "0xe3b0c44298fc1c149afbf4c8996fb92427ae41e4649b934ca495991b7852b855",
                        "stateRoot" : "0x5f5296472c508c37000de414ce06128baaf4ef63268cd1f76344470bc24058be",
                        "timestamp" : "0x54c99069",
                        "transactionsTrie" : "0x4b8c5617e48aa262447119a6dd62209a5273e285c7c2e9d28c94d11294966116",
                        "withdrawalsRoot" : "0x56e81f171bcc55a6ff8345e692c0f86e5b48e01b996cadc001622fb5e363b421"
                    },
                    "transactions" : [
                        {
                            "data" : "0x",
                            "gasLimit" : "0x5208",
                            "gasPrice" : "0x03e8",
                            "nonce" : "0x00",
                            "r" : "0x5f7695292d57b510cd9ff967b1e026a37e7e432d0f23572c11f871da913c702b",
                            "s" : "0x5ce190270250ed44f27be21ab68135071eb84c2482cdc055ce99a642be718aaa",
                            "to" : "0xbbbf5374fce5edbc8e2a8697c15331677e6ebf0b",
                            "v" : "0x1c",
                            "value" : "0x0a"
                        },
                        {
                            "data" : "0x",
                            "gasLimit" : "0x5208",
                            "gasPrice" : "0x03e8",
                            "nonce" : "0x01",
                            "r" : "0x98bd5f0c06f3645ab205bfb00a0fb15d101e879424904ce9891792001b02f043",
                            "s" : "0x5dfad5eac9272f278643eb0dabc37d2f246ced31b366fc807ff58b2c2b3c44ab",
                            "to" : "0xbbbf5374fce5edbc8e2a8697c15331677e6ebf0b",
                            "v" : "0x1c",
                            "value" : "0x0a"
                        },
                        {
                            "data" : "0x",
                            "gasLimit" : "0x5208",
                            "gasPrice" : "0x03e8",
                            "nonce" : "0x02",
                            "r" : "0xb773c25c3e7f8fd5471f59fa041f7c599a4e879764c7a433c63ba804f4d3d001",
                            "s" : "0x5efcfad1a58852863bf290bad55ee3143e0b79133c62ef6d36c6409dd275e7e2",
                            "to" : "0xbbbf5374fce5edbc8e2a8697c15331677e6ebf0b",
                            "v" : "0x1c",
                            "value" : "0x0a"
                        },
                        {
                            "data" : "0x",
                            "gasLimit" : "0x5208",
                            "gasPrice" : "0x03e8",
                            "nonce" : "0x03",
                            "r" : "0x6df49ddfbe6e8a26f79b1a1ced3fcf928d8f7fa1e6743b637d7d7e25c3a3aa9d",
                            "s" : "0x594a654aea98887af6a1f0cd33b331b39e2b3ddc930e4dca30e566d790cb9962",
                            "to" : "0xbbbf5374fce5edbc8e2a8697c15331677e6ebf0b",
                            "v" : "0x1b",
                            "value" : "0x0a"
                        },
                        {
                            "data" : "0x",
                            "gasLimit" : "0x5208",
                            "gasPrice" : "0x03e8",
                            "nonce" : "0x04",
                            "r" : "0x754071821febfbc080fe0a19629d36db40ca593ad163db05d25433fb15941e33",
                            "s" : "0x4f7b8945034d5cec59ea976dd0eb67b0eeca95ec0f55a2e257d08390e2897583",
                            "to" : "0xbbbf5374fce5edbc8e2a8697c15331677e6ebf0b",
                            "v" : "0x1c",
                            "value" : "0x0a"
                        },
                        {
                            "data" : "0x",
                            "gasLimit" : "0x5208",
                            "gasPrice" : "0x03e8",
                            "nonce" : "0x05",
                            "r" : "0x8b705377b151c13985aafeee2a67bc8aa840735b43ba6ac8388fc56b5e7b335d",
                            "s" : "0x582cd1afbb929740f91fd4a2cae6ecbcd3352bd9d2031309cb2970e80fbebd9a",
                            "to" : "0xbbbf5374fce5edbc8e2a8697c15331677e6ebf0b",
                            "v" : "0x1b",
                            "value" : "0x0a"
                        },
                        {
                            "data" : "0x",
                            "gasLimit" : "0x55f0",
                            "gasPrice" : "0x03e8",
                            "nonce" : "0x06",
                            "r" : "0x8c9374e6778b212f708643cd8d70508341b957c189a00947c7cc782c70031497",
                            "s" : "0x3547ead4f10392538af113a86b9c58758450a4916c2882247880e42f6790f5ab",
                            "to" : "0xaaaf5374fce5edbc8e2a8697c15331677e6ebf0b",
                            "v" : "0x1b",
                            "value" : "0x0a"
                        }
                    ],
                    "uncleHeaders" : [
                    ],
                    "withdrawals" : [
                    ]
                }
            }
        ],
        "config" : {
            "blobSchedule" : {
                "Prague" : {
                    "baseFeeUpdateFraction" : "0x4c6964",
                    "max" : "0x09",
                    "target" : "0x06"
                }
            },
            "chainid" : "0x01",
            "network" : "Prague"
        },
        "genesisBlockHeader" : {
            "baseFeePerGas" : "0x10",
            "bloom" : "0x00000000000000000000000000000000000000000000000000000000000000000000000000000000000000000000000000000000000000000000000000000000000000000000000000000000000000000000000000000000000000000000000000000000000000000000000000000000000000000000000000000000000000000000000000000000000000000000000000000000000000000000000000000000000000000000000000000000000000000000000000000000000000000000000000000000000000000000000000000000000000000000000000000000000000000000000000000000000000000000000000000000000000000000000000000000",
            "coinbase" : "0x8888f1f195afa192cfee860698584c030f4c9db1",
            "extraData" : "0x42",
            "gasLimit" : "0x024220",
            "gasUsed" : "0x00",
            "hash" : "0xb8c2e8ba8df67a7b1461ea6ee1e4907c193c5b6954a18b3eb869c6bcb34dbf76",
            "mixHash" : "0x0000000000000000000000000000000000000000000000000000000000020000",
            "nonce" : "0x0000000000000000",
            "number" : "0x00",
            "parentHash" : "0x0000000000000000000000000000000000000000000000000000000000000000",
            "receiptTrie" : "0x56e81f171bcc55a6ff8345e692c0f86e5b48e01b996cadc001622fb5e363b421",
            "requestsHash" : "0xe3b0c44298fc1c149afbf4c8996fb92427ae41e4649b934ca495991b7852b855",
            "stateRoot" : "0x5ef0104f46030c91bf4e8c920e8da13e8a8498568620f4639f84cf40226932c2",
            "timestamp" : "0x54c98c81",
            "transactionsTrie" : "0x56e81f171bcc55a6ff8345e692c0f86e5b48e01b996cadc001622fb5e363b421",
            "withdrawalsRoot" : "0x56e81f171bcc55a6ff8345e692c0f86e5b48e01b996cadc001622fb5e363b421"
        },
        "genesisRLP" : "0xf90260f9025aa00000000000000000000000000000000000000000000000000000000000000000a01dcc4de8dec75d7aab85b567b6ccd41ad312451b948a7413f0a142fd40d49347948888f1f195afa192cfee860698584c030f4c9db1a05ef0104f46030c91bf4e8c920e8da13e8a8498568620f4639f84cf40226932c2a056e81f171bcc55a6ff8345e692c0f86e5b48e01b996cadc001622fb5e363b421a056e81f171bcc55a6ff8345e692c0f86e5b48e01b996cadc001622fb5e363b421b9010000000000000000000000000000000000000000000000000000000000000000000000000000000000000000000000000000000000000000000000000000000000000000000000000000000000000000000000000000000000000000000000000000000000000000000000000000000000000000000000000000000000000000000000000000000000000000000000000000000000000000000000000000000000000000000000000000000000000000000000000000000000000000000000000000000000000000000000000000000000000000000000000000000000000000000000000000000000000000000000000000000000000000000000000000000000808083024220808454c98c8142a0000000000000000000000000000000000000000000000000000000000002000088000000000000000010a056e81f171bcc55a6ff8345e692c0f86e5b48e01b996cadc001622fb5e363b4218080a00000000000000000000000000000000000000000000000000000000000000000a0e3b0c44298fc1c149afbf4c8996fb92427ae41e4649b934ca495991b7852b855c0c0c0",
        "lastblockhash" : "0xb8c2e8ba8df67a7b1461ea6ee1e4907c193c5b6954a18b3eb869c6bcb34dbf76",
        "network" : "Prague",
        "postState" : {
            "0x0000f90827f1c53a10cb7a02335b175320002935" : {
                "balance" : "0x00",
                "code" : "0x3373fffffffffffffffffffffffffffffffffffffffe14604657602036036042575f35600143038111604257611fff81430311604257611fff9006545f5260205ff35b5f5ffd5b5f35611fff60014303065500",
                "nonce" : "0x01",
                "storage" : {
                }
            },
            "0x000f3df6d732807ef1319fb7b8bb8522d0beac02" : {
                "balance" : "0x00",
                "code" : "0x3373fffffffffffffffffffffffffffffffffffffffe14604d57602036146024575f5ffd5b5f35801560495762001fff810690815414603c575f5ffd5b62001fff01545f5260205ff35b5f5ffd5b62001fff42064281555f359062001fff015500",
                "nonce" : "0x01",
                "storage" : {
                    "0x12e2" : "0x54c98c81"
                }
            },
            "0xa94f5374fce5edbc8e2a8697c15331677e6ebf0b" : {
                "balance" : "0x4a723dc6b40b8a9a000000",
                "code" : "0x",
                "nonce" : "0x00",
                "storage" : {
                }
            },
            "0xaaaf5374fce5edbc8e2a8697c15331677e6ebf0b" : {
                "balance" : "0x02540be400",
                "code" : "0x73a94f5374fce5edbc8e2a8697c15331677e6ebf0bff",
                "nonce" : "0x00",
                "storage" : {
                }
            }
        },
        "pre" : {
            "0x0000f90827f1c53a10cb7a02335b175320002935" : {
                "balance" : "0x00",
                "code" : "0x3373fffffffffffffffffffffffffffffffffffffffe14604657602036036042575f35600143038111604257611fff81430311604257611fff9006545f5260205ff35b5f5ffd5b5f35611fff60014303065500",
                "nonce" : "0x01",
                "storage" : {
                }
            },
            "0x000f3df6d732807ef1319fb7b8bb8522d0beac02" : {
                "balance" : "0x00",
                "code" : "0x3373fffffffffffffffffffffffffffffffffffffffe14604d57602036146024575f5ffd5b5f35801560495762001fff810690815414603c575f5ffd5b62001fff01545f5260205ff35b5f5ffd5b62001fff42064281555f359062001fff015500",
                "nonce" : "0x01",
                "storage" : {
                    "0x12e2" : "0x54c98c81"
                }
            },
            "0xa94f5374fce5edbc8e2a8697c15331677e6ebf0b" : {
                "balance" : "0x4a723dc6b40b8a9a000000",
                "code" : "0x",
                "nonce" : "0x00",
                "storage" : {
                }
            },
            "0xaaaf5374fce5edbc8e2a8697c15331677e6ebf0b" : {
                "balance" : "0x02540be400",
                "code" : "0x73a94f5374fce5edbc8e2a8697c15331677e6ebf0bff",
                "nonce" : "0x00",
                "storage" : {
                }
            }
        },
        "sealEngine" : "NoProof"
    }
}