{
    "Call1024BalanceTooLow_d0g0v0_Cancun" : {
        "_info" : {
            "comment" : "",
            "filling-rpc-server" : "evmone-t8n 0.14.0-13+commit.4d363c36",
            "filling-tool-version" : "retesteth-0.3.2-legacy+commit.ca7f4c79.Linux.g++",
            "fixture-format" : "blockchain_test",
            "generatedTestHash" : "3ca1293f388c8ed435b2f7192246049bd4fd8570f894b1ea1c85dc3f28596118",
            "lllcversion" : "Version: 0.5.14-develop.2024.11.5+commit.b2b86751.mod.Linux.g++",
            "hyperion" : "Version: 0.8.24+commit.e11b9ed9.Linux.g++",
            "source" : "src/GeneralStateTestsFiller/stDelegatecallTestHomestead/Call1024BalanceTooLowFiller.json",
            "sourceHash" : "40e28a1a94335907cd586ba011d54b8664dea19fed5eb3b6c6cdf06180e9755d"
        },
        "blocks" : [
            {
                "blockHeader" : {
                    "baseFeePerGas" : "0x0a",
                    "bloom" : "0x00000000000000000000000000000000000000000000000000000000000000000000000000000000000000000000000000000000000000000000000000000000000000000000000000000000000000000000000000000000000000000000000000000000000000000000000000000000000000000000000000000000000000000000000000000000000000000000000000000000000000000000000000000000000000000000000000000000000000000000000000000000000000000000000000000000000000000000000000000000000000000000000000000000000000000000000000000000000000000000000000000000000000000000000000000000",
                    "coinbase" : "Zb94f5374fce5edbc8e2a8697c15331677e6ebf0b",
                    "extraData" : "0x00",
                    "gasLimit" : "0x7fffffffffffffff",
                    "gasUsed" : "0x07c335",
                    "hash" : "0xeb598947d4e572a42020517d4d0bc2f0efaeaf3f6772bdd22dfb4ac3c641c572",
                    "mixHash" : "0x0000000000000000000000000000000000000000000000000000000000020000",
                    "nonce" : "0x0000000000000000",
                    "number" : "0x01",
                    "parentHash" : "0xdd4cf2601a0b6fcab28eed4b9a797c00767eba378f3eab4ee682a9d19d080842",
                    "receiptTrie" : "0xd94f9c0d70f495b1d9df4a16226a9c4c8198d13c44a72971a64f8de7784386cd",
                    "stateRoot" : "0x5dfbfe6f54d6fa0e09874842b45466cb37b5f6050c197d5bc0cf7aa307fd478a",
                    "timestamp" : "0x03e8",
                    "transactionsTrie" : "0xca109b85961c06df34b98fe41972c9701463304cd830c6765eeb81c91864f1f4",
                    "withdrawalsRoot" : "0x56e81f171bcc55a6ff8345e692c0f86e5b48e01b996cadc001622fb5e363b421"
                },
                "rlp" : "0xf902abf9023fa0dd4cf2601a0b6fcab28eed4b9a797c00767eba378f3eab4ee682a9d19d080842a01dcc4de8dec75d7aab85b567b6ccd41ad312451b948a7413f0a142fd40d4934794b94f5374fce5edbc8e2a8697c15331677e6ebf0ba05dfbfe6f54d6fa0e09874842b45466cb37b5f6050c197d5bc0cf7aa307fd478aa0ca109b85961c06df34b98fe41972c9701463304cd830c6765eeb81c91864f1f4a0d94f9c0d70f495b1d9df4a16226a9c4c8198d13c44a72971a64f8de7784386cdb90100000000000000000000000000000000000000000000000000000000000000000000000000000000000000000000000000000000000000000000000000000000000000000000000000000000000000000000000000000000000000000000000000000000000000000000000000000000000000000000000000000000000000000000000000000000000000000000000000000000000000000000000000000000000000000000000000000000000000000000000000000000000000000000000000000000000000000000000000000000000000000000000000000000000000000000000000000000000000000000000000000000000000000000000000000000008001887fffffffffffffff8307c3358203e800a000000000000000000000000000000000000000000000000000000000000200008800000000000000000aa056e81f171bcc55a6ff8345e692c0f86e5b48e01b996cadc001622fb5e363b4218080a00000000000000000000000000000000000000000000000000000000000000000f865f863800a8610000000d78894bbbf5374fce5edbc8e2a8697c15331677e6ebf0b0a801ba0fadbc513261a88f1e148f1955078ed31a9f37f452e45b15ad8ee2ba2f04a1868a06601bfd41c31244dbf89228d2b5d7cde692e93a8386b72b3834d1e47931ea8e4c0c0",
                "transactions" : [
                    {
                        "data" : "0x",
                        "gasLimit" : "0x10000000d788",
                        "gasPrice" : "0x0a",
                        "nonce" : "0x00",
                        "signature" : "0xfadbc513261a88f1e148f1955078ed31a9f37f452e45b15ad8ee2ba2f04a1868",
                        "publicKey" : "0x6601bfd41c31244dbf89228d2b5d7cde692e93a8386b72b3834d1e47931ea8e4",
                        "sender" : "Za94f5374fce5edbc8e2a8697c15331677e6ebf0b",
                        "to" : "Zbbbf5374fce5edbc8e2a8697c15331677e6ebf0b",
                        "v" : "0x1b",
                        "value" : "0x0a"
                    }
                ],

                "withdrawals" : [
                ]
            }
        ],
        "config" : {
            "blobSchedule" : {
                "Cancun" : {
                    "baseFeeUpdateFraction" : "0x32f0ed",
                    "max" : "0x06",
                    "target" : "0x03"
                }
            },
            "chainid" : "0x01",
            "network" : "Shanghai"
        },
        "genesisBlockHeader" : {
            "baseFeePerGas" : "0x0b",
            "bloom" : "0x00000000000000000000000000000000000000000000000000000000000000000000000000000000000000000000000000000000000000000000000000000000000000000000000000000000000000000000000000000000000000000000000000000000000000000000000000000000000000000000000000000000000000000000000000000000000000000000000000000000000000000000000000000000000000000000000000000000000000000000000000000000000000000000000000000000000000000000000000000000000000000000000000000000000000000000000000000000000000000000000000000000000000000000000000000000",
            "coinbase" : "Zb94f5374fce5edbc8e2a8697c15331677e6ebf0b",
            "extraData" : "0x00",
            "gasLimit" : "0x7fffffffffffffff",
            "gasUsed" : "0x00",
            "hash" : "0xdd4cf2601a0b6fcab28eed4b9a797c00767eba378f3eab4ee682a9d19d080842",
            "mixHash" : "0x0000000000000000000000000000000000000000000000000000000000020000",
            "nonce" : "0x0000000000000000",
            "number" : "0x00",
            "parentHash" : "0x0000000000000000000000000000000000000000000000000000000000000000",
            "receiptTrie" : "0x56e81f171bcc55a6ff8345e692c0f86e5b48e01b996cadc001622fb5e363b421",
            "stateRoot" : "0xf49b8b37d7d59da0a4432826a4e90205c3b490fa1ada0e8075af7a74fc5b95a2",
            "timestamp" : "0x00",
            "transactionsTrie" : "0x56e81f171bcc55a6ff8345e692c0f86e5b48e01b996cadc001622fb5e363b421",
            "withdrawalsRoot" : "0x56e81f171bcc55a6ff8345e692c0f86e5b48e01b996cadc001622fb5e363b421"
        },
        "genesisRLP" : "0xf90243f9023da00000000000000000000000000000000000000000000000000000000000000000a01dcc4de8dec75d7aab85b567b6ccd41ad312451b948a7413f0a142fd40d4934794b94f5374fce5edbc8e2a8697c15331677e6ebf0ba0f49b8b37d7d59da0a4432826a4e90205c3b490fa1ada0e8075af7a74fc5b95a2a056e81f171bcc55a6ff8345e692c0f86e5b48e01b996cadc001622fb5e363b421a056e81f171bcc55a6ff8345e692c0f86e5b48e01b996cadc001622fb5e363b421b90100000000000000000000000000000000000000000000000000000000000000000000000000000000000000000000000000000000000000000000000000000000000000000000000000000000000000000000000000000000000000000000000000000000000000000000000000000000000000000000000000000000000000000000000000000000000000000000000000000000000000000000000000000000000000000000000000000000000000000000000000000000000000000000000000000000000000000000000000000000000000000000000000000000000000000000000000000000000000000000000000000000000000000000000000000000008080887fffffffffffffff808000a000000000000000000000000000000000000000000000000000000000000200008800000000000000000ba056e81f171bcc55a6ff8345e692c0f86e5b48e01b996cadc001622fb5e363b4218083060000a00000000000000000000000000000000000000000000000000000000000000000c0c0c0",
        "lastblockhash" : "0xeb598947d4e572a42020517d4d0bc2f0efaeaf3f6772bdd22dfb4ac3c641c572",
        "network" : "Shanghai",
        "postState" : {
            "Z000f3df6d732807ef1319fb7b8bb8522d0beac02" : {
                "balance" : "0x00",
                "code" : "0x3373fffffffffffffffffffffffffffffffffffffffe14604d57602036146024575f5ffd5b5f35801560495762001fff810690815414603c575f5ffd5b62001fff01545f5260205ff35b5f5ffd5b62001fff42064281555f359062001fff015500",
                "nonce" : "0x01",
                "storage" : {
                    "0x03e8" : "0x03e8"
                }
            },
            "0xa94f5374fce5edbc8e2a8697c15331677e6ebf0b" : {
                "balance" : "0xffffffffffffffffffffffffffb25fe3",
                "code" : "0x",
                "nonce" : "0x01",
                "storage" : {
                }
            },
            "0xaaaf5374fce5edbc8e2a8697c15331677e6ebf0b" : {
                "balance" : "0x1b58",
                "code" : "0x",
                "nonce" : "0x00",
                "storage" : {
                }
            },
            "0xbbbf5374fce5edbc8e2a8697c15331677e6ebf0b" : {
                "balance" : "0x040a",
                "code" : "0x600160005401600055600060006000600073bbbf5374fce5edbc8e2a8697c15331677e6ebf0b650ffffffffffff460015500",
                "nonce" : "0x00",
                "storage" : {
                    "0x00" : "0x0401",
                    "0x01" : "0x01"
                }
            }
        },
        "pre" : {
            "Z000f3df6d732807ef1319fb7b8bb8522d0beac02" : {
                "balance" : "0x00",
                "code" : "0x3373fffffffffffffffffffffffffffffffffffffffe14604d57602036146024575f5ffd5b5f35801560495762001fff810690815414603c575f5ffd5b62001fff01545f5260205ff35b5f5ffd5b62001fff42064281555f359062001fff015500",
                "nonce" : "0x01",
                "storage" : {
                }
            },
            "0xa94f5374fce5edbc8e2a8697c15331677e6ebf0b" : {
                "balance" : "0xffffffffffffffffffffffffffffffff",
                "code" : "0x",
                "nonce" : "0x00",
                "storage" : {
                }
            },
            "0xaaaf5374fce5edbc8e2a8697c15331677e6ebf0b" : {
                "balance" : "0x1b58",
                "code" : "0x",
                "nonce" : "0x00",
                "storage" : {
                }
            },
            "0xbbbf5374fce5edbc8e2a8697c15331677e6ebf0b" : {
                "balance" : "0x0400",
                "code" : "0x600160005401600055600060006000600073bbbf5374fce5edbc8e2a8697c15331677e6ebf0b650ffffffffffff460015500",
                "nonce" : "0x00",
                "storage" : {
                }
            }
        },
        "sealEngine" : "NoProof"
    },
    "Call1024BalanceTooLow_d0g0v0_Prague" : {
        "_info" : {
            "comment" : "",
            "filling-rpc-server" : "evmone-t8n 0.14.0-13+commit.4d363c36",
            "filling-tool-version" : "retesteth-0.3.2-legacy+commit.ca7f4c79.Linux.g++",
            "fixture-format" : "blockchain_test",
            "generatedTestHash" : "6d9ee42e12d0815c1c06fcf2cabdc0531105d1104ea757f3498a1ef1162c9d2e",
            "lllcversion" : "Version: 0.5.14-develop.2024.11.5+commit.b2b86751.mod.Linux.g++",
            "hyperion" : "Version: 0.8.24+commit.e11b9ed9.Linux.g++",
            "source" : "src/GeneralStateTestsFiller/stDelegatecallTestHomestead/Call1024BalanceTooLowFiller.json",
            "sourceHash" : "40e28a1a94335907cd586ba011d54b8664dea19fed5eb3b6c6cdf06180e9755d"
        },
        "blocks" : [
            {
                "blockHeader" : {
                    "baseFeePerGas" : "0x0a",
                    "bloom" : "0x00000000000000000000000000000000000000000000000000000000000000000000000000000000000000000000000000000000000000000000000000000000000000000000000000000000000000000000000000000000000000000000000000000000000000000000000000000000000000000000000000000000000000000000000000000000000000000000000000000000000000000000000000000000000000000000000000000000000000000000000000000000000000000000000000000000000000000000000000000000000000000000000000000000000000000000000000000000000000000000000000000000000000000000000000000000",
                    "coinbase" : "Zb94f5374fce5edbc8e2a8697c15331677e6ebf0b",
                    "extraData" : "0x00",
                    "gasLimit" : "0x7fffffffffffffff",
                    "gasUsed" : "0x07c335",
                    "hash" : "0x810c5b2933147ec74e14310542900b353a8b45cac706f18df047abd677f9394e",
                    "mixHash" : "0x0000000000000000000000000000000000000000000000000000000000020000",
                    "nonce" : "0x0000000000000000",
                    "number" : "0x01",
                    "parentHash" : "0x6cab32265ee19e4081b5fc467866ff1e9ec0d627ecc3dc189728bbb3aec9ff56",
                    "receiptTrie" : "0xd94f9c0d70f495b1d9df4a16226a9c4c8198d13c44a72971a64f8de7784386cd",
                    "requestsHash" : "0xe3b0c44298fc1c149afbf4c8996fb92427ae41e4649b934ca495991b7852b855",
                    "stateRoot" : "0x5853b42db63064494509f094f870cb44f900253496f9582b2e66ef5dd4ad6e60",
                    "timestamp" : "0x03e8",
                    "transactionsTrie" : "0xca109b85961c06df34b98fe41972c9701463304cd830c6765eeb81c91864f1f4",
                    "withdrawalsRoot" : "0x56e81f171bcc55a6ff8345e692c0f86e5b48e01b996cadc001622fb5e363b421"
                },
                "rlp" : "0xf902ccf90260a06cab32265ee19e4081b5fc467866ff1e9ec0d627ecc3dc189728bbb3aec9ff56a01dcc4de8dec75d7aab85b567b6ccd41ad312451b948a7413f0a142fd40d4934794b94f5374fce5edbc8e2a8697c15331677e6ebf0ba05853b42db63064494509f094f870cb44f900253496f9582b2e66ef5dd4ad6e60a0ca109b85961c06df34b98fe41972c9701463304cd830c6765eeb81c91864f1f4a0d94f9c0d70f495b1d9df4a16226a9c4c8198d13c44a72971a64f8de7784386cdb90100000000000000000000000000000000000000000000000000000000000000000000000000000000000000000000000000000000000000000000000000000000000000000000000000000000000000000000000000000000000000000000000000000000000000000000000000000000000000000000000000000000000000000000000000000000000000000000000000000000000000000000000000000000000000000000000000000000000000000000000000000000000000000000000000000000000000000000000000000000000000000000000000000000000000000000000000000000000000000000000000000000000000000000000000000000008001887fffffffffffffff8307c3358203e800a000000000000000000000000000000000000000000000000000000000000200008800000000000000000aa056e81f171bcc55a6ff8345e692c0f86e5b48e01b996cadc001622fb5e363b4218080a00000000000000000000000000000000000000000000000000000000000000000a0e3b0c44298fc1c149afbf4c8996fb92427ae41e4649b934ca495991b7852b855f865f863800a8610000000d78894bbbf5374fce5edbc8e2a8697c15331677e6ebf0b0a801ba0fadbc513261a88f1e148f1955078ed31a9f37f452e45b15ad8ee2ba2f04a1868a06601bfd41c31244dbf89228d2b5d7cde692e93a8386b72b3834d1e47931ea8e4c0c0",
                "transactions" : [
                    {
                        "data" : "0x",
                        "gasLimit" : "0x10000000d788",
                        "gasPrice" : "0x0a",
                        "nonce" : "0x00",
                        "signature" : "0xfadbc513261a88f1e148f1955078ed31a9f37f452e45b15ad8ee2ba2f04a1868",
                        "publicKey" : "0x6601bfd41c31244dbf89228d2b5d7cde692e93a8386b72b3834d1e47931ea8e4",
                        "sender" : "Za94f5374fce5edbc8e2a8697c15331677e6ebf0b",
                        "to" : "Zbbbf5374fce5edbc8e2a8697c15331677e6ebf0b",
                        "v" : "0x1b",
                        "value" : "0x0a"
                    }
                ],

                "withdrawals" : [
                ]
            }
        ],
        "config" : {
            "blobSchedule" : {
                "Prague" : {
                    "baseFeeUpdateFraction" : "0x4c6964",
                    "max" : "0x09",
                    "target" : "0x06"
                }
            },
            "chainid" : "0x01",
            "network" : "Shanghai"
        },
        "genesisBlockHeader" : {
            "baseFeePerGas" : "0x0b",
            "bloom" : "0x00000000000000000000000000000000000000000000000000000000000000000000000000000000000000000000000000000000000000000000000000000000000000000000000000000000000000000000000000000000000000000000000000000000000000000000000000000000000000000000000000000000000000000000000000000000000000000000000000000000000000000000000000000000000000000000000000000000000000000000000000000000000000000000000000000000000000000000000000000000000000000000000000000000000000000000000000000000000000000000000000000000000000000000000000000000",
            "coinbase" : "Zb94f5374fce5edbc8e2a8697c15331677e6ebf0b",
            "extraData" : "0x00",
            "gasLimit" : "0x7fffffffffffffff",
            "gasUsed" : "0x00",
            "hash" : "0x6cab32265ee19e4081b5fc467866ff1e9ec0d627ecc3dc189728bbb3aec9ff56",
            "mixHash" : "0x0000000000000000000000000000000000000000000000000000000000020000",
            "nonce" : "0x0000000000000000",
            "number" : "0x00",
            "parentHash" : "0x0000000000000000000000000000000000000000000000000000000000000000",
            "receiptTrie" : "0x56e81f171bcc55a6ff8345e692c0f86e5b48e01b996cadc001622fb5e363b421",
            "requestsHash" : "0xe3b0c44298fc1c149afbf4c8996fb92427ae41e4649b934ca495991b7852b855",
            "stateRoot" : "0xede69760bb4da584a04cbba35d39d1df070817619d4f6f8f689f9169ceb80ece",
            "timestamp" : "0x00",
            "transactionsTrie" : "0x56e81f171bcc55a6ff8345e692c0f86e5b48e01b996cadc001622fb5e363b421",
            "withdrawalsRoot" : "0x56e81f171bcc55a6ff8345e692c0f86e5b48e01b996cadc001622fb5e363b421"
        },
        "genesisRLP" : "0xf90264f9025ea00000000000000000000000000000000000000000000000000000000000000000a01dcc4de8dec75d7aab85b567b6ccd41ad312451b948a7413f0a142fd40d4934794b94f5374fce5edbc8e2a8697c15331677e6ebf0ba0ede69760bb4da584a04cbba35d39d1df070817619d4f6f8f689f9169ceb80ecea056e81f171bcc55a6ff8345e692c0f86e5b48e01b996cadc001622fb5e363b421a056e81f171bcc55a6ff8345e692c0f86e5b48e01b996cadc001622fb5e363b421b90100000000000000000000000000000000000000000000000000000000000000000000000000000000000000000000000000000000000000000000000000000000000000000000000000000000000000000000000000000000000000000000000000000000000000000000000000000000000000000000000000000000000000000000000000000000000000000000000000000000000000000000000000000000000000000000000000000000000000000000000000000000000000000000000000000000000000000000000000000000000000000000000000000000000000000000000000000000000000000000000000000000000000000000000000000000008080887fffffffffffffff808000a000000000000000000000000000000000000000000000000000000000000200008800000000000000000ba056e81f171bcc55a6ff8345e692c0f86e5b48e01b996cadc001622fb5e363b4218083060000a00000000000000000000000000000000000000000000000000000000000000000a0e3b0c44298fc1c149afbf4c8996fb92427ae41e4649b934ca495991b7852b855c0c0c0",
        "lastblockhash" : "0x810c5b2933147ec74e14310542900b353a8b45cac706f18df047abd677f9394e",
        "network" : "Shanghai",
        "postState" : {
            "Z0000f90827f1c53a10cb7a02335b175320002935" : {
                "balance" : "0x00",
                "code" : "0x3373fffffffffffffffffffffffffffffffffffffffe14604657602036036042575f35600143038111604257611fff81430311604257611fff9006545f5260205ff35b5f5ffd5b5f35611fff60014303065500",
                "nonce" : "0x01",
                "storage" : {
                    "0x00" : "0x6cab32265ee19e4081b5fc467866ff1e9ec0d627ecc3dc189728bbb3aec9ff56"
                }
            },
            "0x000f3df6d732807ef1319fb7b8bb8522d0beac02" : {
                "balance" : "0x00",
                "code" : "0x3373fffffffffffffffffffffffffffffffffffffffe14604d57602036146024575f5ffd5b5f35801560495762001fff810690815414603c575f5ffd5b62001fff01545f5260205ff35b5f5ffd5b62001fff42064281555f359062001fff015500",
                "nonce" : "0x01",
                "storage" : {
                    "0x03e8" : "0x03e8"
                }
            },
            "0xa94f5374fce5edbc8e2a8697c15331677e6ebf0b" : {
                "balance" : "0xffffffffffffffffffffffffffb25fe3",
                "code" : "0x",
                "nonce" : "0x01",
                "storage" : {
                }
            },
            "0xaaaf5374fce5edbc8e2a8697c15331677e6ebf0b" : {
                "balance" : "0x1b58",
                "code" : "0x",
                "nonce" : "0x00",
                "storage" : {
                }
            },
            "0xbbbf5374fce5edbc8e2a8697c15331677e6ebf0b" : {
                "balance" : "0x040a",
                "code" : "0x600160005401600055600060006000600073bbbf5374fce5edbc8e2a8697c15331677e6ebf0b650ffffffffffff460015500",
                "nonce" : "0x00",
                "storage" : {
                    "0x00" : "0x0401",
                    "0x01" : "0x01"
                }
            }
        },
        "pre" : {
            "Z0000f90827f1c53a10cb7a02335b175320002935" : {
                "balance" : "0x00",
                "code" : "0x3373fffffffffffffffffffffffffffffffffffffffe14604657602036036042575f35600143038111604257611fff81430311604257611fff9006545f5260205ff35b5f5ffd5b5f35611fff60014303065500",
                "nonce" : "0x01",
                "storage" : {
                }
            },
            "0x000f3df6d732807ef1319fb7b8bb8522d0beac02" : {
                "balance" : "0x00",
                "code" : "0x3373fffffffffffffffffffffffffffffffffffffffe14604d57602036146024575f5ffd5b5f35801560495762001fff810690815414603c575f5ffd5b62001fff01545f5260205ff35b5f5ffd5b62001fff42064281555f359062001fff015500",
                "nonce" : "0x01",
                "storage" : {
                }
            },
            "0xa94f5374fce5edbc8e2a8697c15331677e6ebf0b" : {
                "balance" : "0xffffffffffffffffffffffffffffffff",
                "code" : "0x",
                "nonce" : "0x00",
                "storage" : {
                }
            },
            "0xaaaf5374fce5edbc8e2a8697c15331677e6ebf0b" : {
                "balance" : "0x1b58",
                "code" : "0x",
                "nonce" : "0x00",
                "storage" : {
                }
            },
            "0xbbbf5374fce5edbc8e2a8697c15331677e6ebf0b" : {
                "balance" : "0x0400",
                "code" : "0x600160005401600055600060006000600073bbbf5374fce5edbc8e2a8697c15331677e6ebf0b650ffffffffffff460015500",
                "nonce" : "0x00",
                "storage" : {
                }
            }
        },
        "sealEngine" : "NoProof"
    }
}