{
    "blockWithAllTransactionTypes_Cancun" : {
        "_info" : {
            "comment" : "",
            "filling-rpc-server" : "evmone-t8n 0.14.0-13+commit.4d363c36",
            "filling-tool-version" : "retesteth-0.3.2-legacy+commit.ca7f4c79.Linux.g++",
            "fixture-format" : "blockchain_test",
            "generatedTestHash" : "88e89356fb4d05162b503144608e52b48d2bd7510840558272f428129f465e73",
            "lllcversion" : "Version: 0.5.14-develop.2024.11.5+commit.b2b86751.mod.Linux.g++",
            "hyperion" : "Version: 0.8.24+commit.e11b9ed9.Linux.g++",
            "source" : "src/BlockchainTestsFiller/ValidBlocks/bcEIP4844-blobtransactions/blockWithAllTransactionTypesFiller.yml",
            "sourceHash" : "9c3f31270dce7ff39b16d216cca12af3d817fec59eceee1dc30ce20629216c5a"
        },
        "blocks" : [
            {
                "blockHeader" : {
                    "baseFeePerGas" : "0x0314",
                    "bloom" : "0x00000000000000000000000000000000000000000000000000000000000000000000000000000000000000000000000000000000000000000000000000000000000000000000000000000000000000000000000000000000000000000000000000000000000000000000000000000000000000000000000000000000000000000000000000000000000000000000000000000000000000000000000000000000000000000000000000000000000000000000000000000000000000000000000000000000000000000000000000000000000000000000000000000000000000000000000000000000000000000000000000000000000000000000000000000000",
                    "coinbase" : "Zba5e000000000000000000000000000000000000",
                    "extraData" : "0x42",
                    "gasLimit" : "0x016345785d8a0000",
                    "gasUsed" : "0x014820",
                    "hash" : "0x6243e029fb6bfef5226d2688cf5c880984a97c28ab9889a7dfae09c9c42eacfa",
                    "mixHash" : "0x0000000000000000000000000000000000000000000000000000000000020000",
                    "nonce" : "0x0000000000000000",
                    "number" : "0x01",
                    "parentHash" : "0x5eb7f6da0f3e237c62bcae48b7fb5f4506d392616b62890429c8b76b4a1d4104",
                    "receiptTrie" : "0x0c82719448356ba6807d6edfcd8e5aea575a5e97f36038ffb3e395749b26d41c",
                    "stateRoot" : "0x11639dcca0b44f2acb5b630a82c8a69cb82742b3711383ec4e111a554d27aea5",
                    "timestamp" : "0x079e",
                    "transactionsTrie" : "0x5cb644f722e31f9792a8ef6e2a762334e1a862e8b40c1612e1e9507fd7121ef9",
                    "withdrawalsRoot" : "0x56e81f171bcc55a6ff8345e692c0f86e5b48e01b996cadc001622fb5e363b421"
                },
                "blocknumber" : "1",
                "chainname" : "default",
                "rlp" : "0xf90417f90244a05eb7f6da0f3e237c62bcae48b7fb5f4506d392616b62890429c8b76b4a1d4104a01dcc4de8dec75d7aab85b567b6ccd41ad312451b948a7413f0a142fd40d4934794ba5e000000000000000000000000000000000000a011639dcca0b44f2acb5b630a82c8a69cb82742b3711383ec4e111a554d27aea5a05cb644f722e31f9792a8ef6e2a762334e1a862e8b40c1612e1e9507fd7121ef9a00c82719448356ba6807d6edfcd8e5aea575a5e97f36038ffb3e395749b26d41cb9010000000000000000000000000000000000000000000000000000000000000000000000000000000000000000000000000000000000000000000000000000000000000000000000000000000000000000000000000000000000000000000000000000000000000000000000000000000000000000000000000000000000000000000000000000000000000000000000000000000000000000000000000000000000000000000000000000000000000000000000000000000000000000000000000000000000000000000000000000000000000000000000000000000000000000000000000000000000000000000000000000000000000000000000000000000000800188016345785d8a00008301482082079e42a00000000000000000000000000000000000000000000000000000000000020000880000000000000000820314a056e81f171bcc55a6ff8345e692c0f86e5b48e01b996cadc001622fb5e363b4218302000080a00000000000000000000000000000000000000000000000000000000000000000f901cbf864808203e885e8d4a5100094100000000000000000000000000000000000000a01801ca09de4adda6288582a6700dbcd8eb70c0a4a7fc9487d965f7bf22424e0bd121095a01cdb078764cc3770d5db847e99e10333aa7c356247baaf09b03eae04d64e7926b86901f86601018203e885e8d4a5100094100000000000000000000000000000000000000a0380c080a025090740da12684493e4fb466a3979e365b194e8cf462edf3c2c3be2f130bb2ea034fa18fb4c1bff4d957d72e28535d27f1352517a942aeaca0ed944085f0cd8bbb86a02f8670102018203e885e8d4a5100094100000000000000000000000000000000000000a0580c080a0352a7be5002ce111bc5167f3addf97a75e2e0b810d826af71d2caae18aed284ea065d38f8a5c8948ce706842e8861fb21020b93a4d5e489162a0e6d419a457b735b88c03f8890103018203e885e8d4a5100094100000000000000000000000000000000000000a0780c00ae1a001a915e4d060149eb4365960e6a7a45f334393093061116b197e3240065ff2d8809f638144c46d5de7a9e630c0e7c5c63ae829ecfd8cc94715d9c29fe17c464de0a06c5fc54c3aa868ba35ef31a4e12431611631ab7bcdceb4214dd273d83f73b5e1c0c0",
                "transactions" : [
                    {
                        "data" : "0x",
                        "gasLimit" : "0xe8d4a51000",
                        "gasPrice" : "0x03e8",
                        "nonce" : "0x00",
                        "signature" : "0x9de4adda6288582a6700dbcd8eb70c0a4a7fc9487d965f7bf22424e0bd121095",
                        "s" : "0x1cdb078764cc3770d5db847e99e10333aa7c356247baaf09b03eae04d64e7926",
                        "sender" : "Za94f5374fce5edbc8e2a8697c15331677e6ebf0b",
                        "to" : "Z100000000000000000000000000000000000000a",
                        "v" : "0x1c",
                        "value" : "0x01"
                    },
                    {
                        "accessList" : [
                        ],
                        "chainId" : "0x01",
                        "data" : "0x",
                        "gasLimit" : "0xe8d4a51000",
                        "gasPrice" : "0x03e8",
                        "nonce" : "0x01",
                        "signature" : "0x25090740da12684493e4fb466a3979e365b194e8cf462edf3c2c3be2f130bb2e",
                        "s" : "0x34fa18fb4c1bff4d957d72e28535d27f1352517a942aeaca0ed944085f0cd8bb",
                        "sender" : "Za94f5374fce5edbc8e2a8697c15331677e6ebf0b",
                        "to" : "Z100000000000000000000000000000000000000a",
                        "type" : "0x01",
                        "v" : "0x00",
                        "value" : "0x03"
                    },
                    {
                        "accessList" : [
                        ],
                        "chainId" : "0x01",
                        "data" : "0x",
                        "gasLimit" : "0xe8d4a51000",
                        "maxFeePerGas" : "0x03e8",
                        "maxPriorityFeePerGas" : "0x01",
                        "nonce" : "0x02",
                        "signature" : "0x352a7be5002ce111bc5167f3addf97a75e2e0b810d826af71d2caae18aed284e",
                        "s" : "0x65d38f8a5c8948ce706842e8861fb21020b93a4d5e489162a0e6d419a457b735",
                        "sender" : "Za94f5374fce5edbc8e2a8697c15331677e6ebf0b",
                        "to" : "Z100000000000000000000000000000000000000a",
                        "type" : "0x02",
                        "v" : "0x00",
                        "value" : "0x05"
                    },
                    {
                        "accessList" : [
                        ],
                        "blobVersionedHashes" : [
                            "0x01a915e4d060149eb4365960e6a7a45f334393093061116b197e3240065ff2d8"
                        ],
                        "chainId" : "0x01",
                        "data" : "0x",
                        "gasLimit" : "0xe8d4a51000",
                        "maxFeePerBlobGas" : "0x0a",
                        "maxFeePerGas" : "0x03e8",
                        "maxPriorityFeePerGas" : "0x01",
                        "nonce" : "0x03",
                        "signature" : "0x638144c46d5de7a9e630c0e7c5c63ae829ecfd8cc94715d9c29fe17c464de0",
                        "s" : "0x6c5fc54c3aa868ba35ef31a4e12431611631ab7bcdceb4214dd273d83f73b5e1",
                        "sender" : "Za94f5374fce5edbc8e2a8697c15331677e6ebf0b",
                        "to" : "Z100000000000000000000000000000000000000a",
                        "type" : "0x03",
                        "v" : "0x00",
                        "value" : "0x07"
                    }
                ],

                "withdrawals" : [
                ]
            }
        ],
        "config" : {
            "blobSchedule" : {
                "Cancun" : {
                    "baseFeeUpdateFraction" : "0x32f0ed",
                    "max" : "0x06",
                    "target" : "0x03"
                }
            },
            "chainid" : "0x01",
            "network" : "Cancun"
        },
        "genesisBlockHeader" : {
            "baseFeePerGas" : "0x0384",
            "bloom" : "0x00000000000000000000000000000000000000000000000000000000000000000000000000000000000000000000000000000000000000000000000000000000000000000000000000000000000000000000000000000000000000000000000000000000000000000000000000000000000000000000000000000000000000000000000000000000000000000000000000000000000000000000000000000000000000000000000000000000000000000000000000000000000000000000000000000000000000000000000000000000000000000000000000000000000000000000000000000000000000000000000000000000000000000000000000000000",
            "coinbase" : "Zba5e000000000000000000000000000000000000",
            "extraData" : "0x42",
            "gasLimit" : "0x016345785d8a0000",
            "gasUsed" : "0x00",
            "hash" : "0x5eb7f6da0f3e237c62bcae48b7fb5f4506d392616b62890429c8b76b4a1d4104",
            "mixHash" : "0x0000000000000000000000000000000000000000000000000000000000020000",
            "nonce" : "0x0000000000000000",
            "number" : "0x00",
            "parentHash" : "0x0000000000000000000000000000000000000000000000000000000000000000",
            "receiptTrie" : "0x56e81f171bcc55a6ff8345e692c0f86e5b48e01b996cadc001622fb5e363b421",
            "stateRoot" : "0x96c7a471e05d95a962c9860f966ebcf96b1e3867321ec408e86ffd3bd50a1c62",
            "timestamp" : "0x03b6",
            "transactionsTrie" : "0x56e81f171bcc55a6ff8345e692c0f86e5b48e01b996cadc001622fb5e363b421",
            "withdrawalsRoot" : "0x56e81f171bcc55a6ff8345e692c0f86e5b48e01b996cadc001622fb5e363b421"
        },
        "genesisRLP" : "0xf90244f9023ea00000000000000000000000000000000000000000000000000000000000000000a01dcc4de8dec75d7aab85b567b6ccd41ad312451b948a7413f0a142fd40d4934794ba5e000000000000000000000000000000000000a096c7a471e05d95a962c9860f966ebcf96b1e3867321ec408e86ffd3bd50a1c62a056e81f171bcc55a6ff8345e692c0f86e5b48e01b996cadc001622fb5e363b421a056e81f171bcc55a6ff8345e692c0f86e5b48e01b996cadc001622fb5e363b421b9010000000000000000000000000000000000000000000000000000000000000000000000000000000000000000000000000000000000000000000000000000000000000000000000000000000000000000000000000000000000000000000000000000000000000000000000000000000000000000000000000000000000000000000000000000000000000000000000000000000000000000000000000000000000000000000000000000000000000000000000000000000000000000000000000000000000000000000000000000000000000000000000000000000000000000000000000000000000000000000000000000000000000000000000000000000000808088016345785d8a0000808203b642a00000000000000000000000000000000000000000000000000000000000020000880000000000000000820384a056e81f171bcc55a6ff8345e692c0f86e5b48e01b996cadc001622fb5e363b4218080a00000000000000000000000000000000000000000000000000000000000000000c0c0c0",
        "lastblockhash" : "0x6243e029fb6bfef5226d2688cf5c880984a97c28ab9889a7dfae09c9c42eacfa",
        "network" : "Cancun",
        "postState" : {
            "0x000f3df6d732807ef1319fb7b8bb8522d0beac02" : {
                "balance" : "0x00",
                "code" : "0x3373fffffffffffffffffffffffffffffffffffffffe14604d57602036146024575f5ffd5b5f35801560495762001fff810690815414603c575f5ffd5b62001fff01545f5260205ff35b5f5ffd5b62001fff42064281555f359062001fff015500",
                "nonce" : "0x01",
                "storage" : {
                    "0x03b6" : "0x03b6",
                    "0x079e" : "0x079e"
                }
            },
            "0x100000000000000000000000000000000000000a" : {
                "balance" : "0x10",
                "code" : "0x",
                "nonce" : "0x00",
                "storage" : {
                }
            },
            "0xa94f5374fce5edbc8e2a8697c15331677e6ebf0b" : {
                "balance" : "0xfffffffffffb837c20",
                "code" : "0x",
                "nonce" : "0x04",
                "storage" : {
                }
            },
            "0xba5e000000000000000000000000000000000000" : {
                "balance" : "0x888150",
                "code" : "0x",
                "nonce" : "0x00",
                "storage" : {
                }
            }
        },
        "pre" : {
            "0x000f3df6d732807ef1319fb7b8bb8522d0beac02" : {
                "balance" : "0x00",
                "code" : "0x3373fffffffffffffffffffffffffffffffffffffffe14604d57602036146024575f5ffd5b5f35801560495762001fff810690815414603c575f5ffd5b62001fff01545f5260205ff35b5f5ffd5b62001fff42064281555f359062001fff015500",
                "nonce" : "0x01",
                "storage" : {
                    "0x03b6" : "0x03b6"
                }
            },
            "0xa94f5374fce5edbc8e2a8697c15331677e6ebf0b" : {
                "balance" : "0x01000000000000000000",
                "code" : "0x",
                "nonce" : "0x00",
                "storage" : {
                }
            }
        },
        "sealEngine" : "NoProof"
    },
    "blockWithAllTransactionTypes_Prague" : {
        "_info" : {
            "comment" : "",
            "filling-rpc-server" : "evmone-t8n 0.14.0-13+commit.4d363c36",
            "filling-tool-version" : "retesteth-0.3.2-legacy+commit.ca7f4c79.Linux.g++",
            "fixture-format" : "blockchain_test",
            "generatedTestHash" : "3211ea23c60e32ce48052935a9b7cd03eb9e1efa167f90819ebd27318f6f7620",
            "lllcversion" : "Version: 0.5.14-develop.2024.11.5+commit.b2b86751.mod.Linux.g++",
            "hyperion" : "Version: 0.8.24+commit.e11b9ed9.Linux.g++",
            "source" : "src/BlockchainTestsFiller/ValidBlocks/bcEIP4844-blobtransactions/blockWithAllTransactionTypesFiller.yml",
            "sourceHash" : "9c3f31270dce7ff39b16d216cca12af3d817fec59eceee1dc30ce20629216c5a"
        },
        "blocks" : [
            {
                "blockHeader" : {
                    "baseFeePerGas" : "0x0314",
                    "bloom" : "0x00000000000000000000000000000000000000000000000000000000000000000000000000000000000000000000000000000000000000000000000000000000000000000000000000000000000000000000000000000000000000000000000000000000000000000000000000000000000000000000000000000000000000000000000000000000000000000000000000000000000000000000000000000000000000000000000000000000000000000000000000000000000000000000000000000000000000000000000000000000000000000000000000000000000000000000000000000000000000000000000000000000000000000000000000000000",
                    "coinbase" : "Zba5e000000000000000000000000000000000000",
                    "extraData" : "0x42",
                    "gasLimit" : "0x016345785d8a0000",
                    "gasUsed" : "0x014820",
                    "hash" : "0xa25cb98fcce9e778fa1c15d433772ad398ccaa31bd30bd0c018dd807bcd22d90",
                    "mixHash" : "0x0000000000000000000000000000000000000000000000000000000000020000",
                    "nonce" : "0x0000000000000000",
                    "number" : "0x01",
                    "parentHash" : "0x886dc3f6aa1b140d6b1145aa376c833821a75b35926e3528a30db0967fca3125",
                    "receiptTrie" : "0x0c82719448356ba6807d6edfcd8e5aea575a5e97f36038ffb3e395749b26d41c",
                    "requestsHash" : "0xe3b0c44298fc1c149afbf4c8996fb92427ae41e4649b934ca495991b7852b855",
                    "stateRoot" : "0x4cdf7b6174fe8c2133b7c5b0f10f9f17c0fdc27337b796895588c41b9463acaa",
                    "timestamp" : "0x079e",
                    "transactionsTrie" : "0x5cb644f722e31f9792a8ef6e2a762334e1a862e8b40c1612e1e9507fd7121ef9",
                    "withdrawalsRoot" : "0x56e81f171bcc55a6ff8345e692c0f86e5b48e01b996cadc001622fb5e363b421"
                },
                "blocknumber" : "1",
                "chainname" : "default",
                "rlp" : "0xf90438f90265a0886dc3f6aa1b140d6b1145aa376c833821a75b35926e3528a30db0967fca3125a01dcc4de8dec75d7aab85b567b6ccd41ad312451b948a7413f0a142fd40d4934794ba5e000000000000000000000000000000000000a04cdf7b6174fe8c2133b7c5b0f10f9f17c0fdc27337b796895588c41b9463acaaa05cb644f722e31f9792a8ef6e2a762334e1a862e8b40c1612e1e9507fd7121ef9a00c82719448356ba6807d6edfcd8e5aea575a5e97f36038ffb3e395749b26d41cb9010000000000000000000000000000000000000000000000000000000000000000000000000000000000000000000000000000000000000000000000000000000000000000000000000000000000000000000000000000000000000000000000000000000000000000000000000000000000000000000000000000000000000000000000000000000000000000000000000000000000000000000000000000000000000000000000000000000000000000000000000000000000000000000000000000000000000000000000000000000000000000000000000000000000000000000000000000000000000000000000000000000000000000000000000000000000800188016345785d8a00008301482082079e42a00000000000000000000000000000000000000000000000000000000000020000880000000000000000820314a056e81f171bcc55a6ff8345e692c0f86e5b48e01b996cadc001622fb5e363b4218302000080a00000000000000000000000000000000000000000000000000000000000000000a0e3b0c44298fc1c149afbf4c8996fb92427ae41e4649b934ca495991b7852b855f901cbf864808203e885e8d4a5100094100000000000000000000000000000000000000a01801ca09de4adda6288582a6700dbcd8eb70c0a4a7fc9487d965f7bf22424e0bd121095a01cdb078764cc3770d5db847e99e10333aa7c356247baaf09b03eae04d64e7926b86901f86601018203e885e8d4a5100094100000000000000000000000000000000000000a0380c080a025090740da12684493e4fb466a3979e365b194e8cf462edf3c2c3be2f130bb2ea034fa18fb4c1bff4d957d72e28535d27f1352517a942aeaca0ed944085f0cd8bbb86a02f8670102018203e885e8d4a5100094100000000000000000000000000000000000000a0580c080a0352a7be5002ce111bc5167f3addf97a75e2e0b810d826af71d2caae18aed284ea065d38f8a5c8948ce706842e8861fb21020b93a4d5e489162a0e6d419a457b735b88c03f8890103018203e885e8d4a5100094100000000000000000000000000000000000000a0780c00ae1a001a915e4d060149eb4365960e6a7a45f334393093061116b197e3240065ff2d8809f638144c46d5de7a9e630c0e7c5c63ae829ecfd8cc94715d9c29fe17c464de0a06c5fc54c3aa868ba35ef31a4e12431611631ab7bcdceb4214dd273d83f73b5e1c0c0",
                "transactions" : [
                    {
                        "data" : "0x",
                        "gasLimit" : "0xe8d4a51000",
                        "gasPrice" : "0x03e8",
                        "nonce" : "0x00",
                        "signature" : "0x9de4adda6288582a6700dbcd8eb70c0a4a7fc9487d965f7bf22424e0bd121095",
                        "s" : "0x1cdb078764cc3770d5db847e99e10333aa7c356247baaf09b03eae04d64e7926",
                        "sender" : "Za94f5374fce5edbc8e2a8697c15331677e6ebf0b",
                        "to" : "Z100000000000000000000000000000000000000a",
                        "v" : "0x1c",
                        "value" : "0x01"
                    },
                    {
                        "accessList" : [
                        ],
                        "chainId" : "0x01",
                        "data" : "0x",
                        "gasLimit" : "0xe8d4a51000",
                        "gasPrice" : "0x03e8",
                        "nonce" : "0x01",
                        "signature" : "0x25090740da12684493e4fb466a3979e365b194e8cf462edf3c2c3be2f130bb2e",
                        "s" : "0x34fa18fb4c1bff4d957d72e28535d27f1352517a942aeaca0ed944085f0cd8bb",
                        "sender" : "Za94f5374fce5edbc8e2a8697c15331677e6ebf0b",
                        "to" : "Z100000000000000000000000000000000000000a",
                        "type" : "0x01",
                        "v" : "0x00",
                        "value" : "0x03"
                    },
                    {
                        "accessList" : [
                        ],
                        "chainId" : "0x01",
                        "data" : "0x",
                        "gasLimit" : "0xe8d4a51000",
                        "maxFeePerGas" : "0x03e8",
                        "maxPriorityFeePerGas" : "0x01",
                        "nonce" : "0x02",
                        "signature" : "0x352a7be5002ce111bc5167f3addf97a75e2e0b810d826af71d2caae18aed284e",
                        "s" : "0x65d38f8a5c8948ce706842e8861fb21020b93a4d5e489162a0e6d419a457b735",
                        "sender" : "Za94f5374fce5edbc8e2a8697c15331677e6ebf0b",
                        "to" : "Z100000000000000000000000000000000000000a",
                        "type" : "0x02",
                        "v" : "0x00",
                        "value" : "0x05"
                    },
                    {
                        "accessList" : [
                        ],
                        "blobVersionedHashes" : [
                            "0x01a915e4d060149eb4365960e6a7a45f334393093061116b197e3240065ff2d8"
                        ],
                        "chainId" : "0x01",
                        "data" : "0x",
                        "gasLimit" : "0xe8d4a51000",
                        "maxFeePerBlobGas" : "0x0a",
                        "maxFeePerGas" : "0x03e8",
                        "maxPriorityFeePerGas" : "0x01",
                        "nonce" : "0x03",
                        "signature" : "0x638144c46d5de7a9e630c0e7c5c63ae829ecfd8cc94715d9c29fe17c464de0",
                        "s" : "0x6c5fc54c3aa868ba35ef31a4e12431611631ab7bcdceb4214dd273d83f73b5e1",
                        "sender" : "Za94f5374fce5edbc8e2a8697c15331677e6ebf0b",
                        "to" : "Z100000000000000000000000000000000000000a",
                        "type" : "0x03",
                        "v" : "0x00",
                        "value" : "0x07"
                    }
                ],

                "withdrawals" : [
                ]
            }
        ],
        "config" : {
            "blobSchedule" : {
                "Prague" : {
                    "baseFeeUpdateFraction" : "0x4c6964",
                    "max" : "0x09",
                    "target" : "0x06"
                }
            },
            "chainid" : "0x01",
            "network" : "Prague"
        },
        "genesisBlockHeader" : {
            "baseFeePerGas" : "0x0384",
            "bloom" : "0x00000000000000000000000000000000000000000000000000000000000000000000000000000000000000000000000000000000000000000000000000000000000000000000000000000000000000000000000000000000000000000000000000000000000000000000000000000000000000000000000000000000000000000000000000000000000000000000000000000000000000000000000000000000000000000000000000000000000000000000000000000000000000000000000000000000000000000000000000000000000000000000000000000000000000000000000000000000000000000000000000000000000000000000000000000000",
            "coinbase" : "Zba5e000000000000000000000000000000000000",
            "extraData" : "0x42",
            "gasLimit" : "0x016345785d8a0000",
            "gasUsed" : "0x00",
            "hash" : "0x886dc3f6aa1b140d6b1145aa376c833821a75b35926e3528a30db0967fca3125",
            "mixHash" : "0x0000000000000000000000000000000000000000000000000000000000020000",
            "nonce" : "0x0000000000000000",
            "number" : "0x00",
            "parentHash" : "0x0000000000000000000000000000000000000000000000000000000000000000",
            "receiptTrie" : "0x56e81f171bcc55a6ff8345e692c0f86e5b48e01b996cadc001622fb5e363b421",
            "requestsHash" : "0xe3b0c44298fc1c149afbf4c8996fb92427ae41e4649b934ca495991b7852b855",
            "stateRoot" : "0xc56f95f0c598c24eccb5a2ad3459cbe2ff27c686db28eccb847b81371203f913",
            "timestamp" : "0x03b6",
            "transactionsTrie" : "0x56e81f171bcc55a6ff8345e692c0f86e5b48e01b996cadc001622fb5e363b421",
            "withdrawalsRoot" : "0x56e81f171bcc55a6ff8345e692c0f86e5b48e01b996cadc001622fb5e363b421"
        },
        "genesisRLP" : "0xf90265f9025fa00000000000000000000000000000000000000000000000000000000000000000a01dcc4de8dec75d7aab85b567b6ccd41ad312451b948a7413f0a142fd40d4934794ba5e000000000000000000000000000000000000a0c56f95f0c598c24eccb5a2ad3459cbe2ff27c686db28eccb847b81371203f913a056e81f171bcc55a6ff8345e692c0f86e5b48e01b996cadc001622fb5e363b421a056e81f171bcc55a6ff8345e692c0f86e5b48e01b996cadc001622fb5e363b421b9010000000000000000000000000000000000000000000000000000000000000000000000000000000000000000000000000000000000000000000000000000000000000000000000000000000000000000000000000000000000000000000000000000000000000000000000000000000000000000000000000000000000000000000000000000000000000000000000000000000000000000000000000000000000000000000000000000000000000000000000000000000000000000000000000000000000000000000000000000000000000000000000000000000000000000000000000000000000000000000000000000000000000000000000000000000000808088016345785d8a0000808203b642a00000000000000000000000000000000000000000000000000000000000020000880000000000000000820384a056e81f171bcc55a6ff8345e692c0f86e5b48e01b996cadc001622fb5e363b4218080a00000000000000000000000000000000000000000000000000000000000000000a0e3b0c44298fc1c149afbf4c8996fb92427ae41e4649b934ca495991b7852b855c0c0c0",
        "lastblockhash" : "0xa25cb98fcce9e778fa1c15d433772ad398ccaa31bd30bd0c018dd807bcd22d90",
        "network" : "Prague",
        "postState" : {
            "0x0000f90827f1c53a10cb7a02335b175320002935" : {
                "balance" : "0x00",
                "code" : "0x3373fffffffffffffffffffffffffffffffffffffffe14604657602036036042575f35600143038111604257611fff81430311604257611fff9006545f5260205ff35b5f5ffd5b5f35611fff60014303065500",
                "nonce" : "0x01",
                "storage" : {
                    "0x00" : "0x886dc3f6aa1b140d6b1145aa376c833821a75b35926e3528a30db0967fca3125"
                }
            },
            "0x000f3df6d732807ef1319fb7b8bb8522d0beac02" : {
                "balance" : "0x00",
                "code" : "0x3373fffffffffffffffffffffffffffffffffffffffe14604d57602036146024575f5ffd5b5f35801560495762001fff810690815414603c575f5ffd5b62001fff01545f5260205ff35b5f5ffd5b62001fff42064281555f359062001fff015500",
                "nonce" : "0x01",
                "storage" : {
                    "0x03b6" : "0x03b6",
                    "0x079e" : "0x079e"
                }
            },
            "0x100000000000000000000000000000000000000a" : {
                "balance" : "0x10",
                "code" : "0x",
                "nonce" : "0x00",
                "storage" : {
                }
            },
            "0xa94f5374fce5edbc8e2a8697c15331677e6ebf0b" : {
                "balance" : "0xfffffffffffb837c20",
                "code" : "0x",
                "nonce" : "0x04",
                "storage" : {
                }
            },
            "0xba5e000000000000000000000000000000000000" : {
                "balance" : "0x888150",
                "code" : "0x",
                "nonce" : "0x00",
                "storage" : {
                }
            }
        },
        "pre" : {
            "0x0000f90827f1c53a10cb7a02335b175320002935" : {
                "balance" : "0x00",
                "code" : "0x3373fffffffffffffffffffffffffffffffffffffffe14604657602036036042575f35600143038111604257611fff81430311604257611fff9006545f5260205ff35b5f5ffd5b5f35611fff60014303065500",
                "nonce" : "0x01",
                "storage" : {
                }
            },
            "0x000f3df6d732807ef1319fb7b8bb8522d0beac02" : {
                "balance" : "0x00",
                "code" : "0x3373fffffffffffffffffffffffffffffffffffffffe14604d57602036146024575f5ffd5b5f35801560495762001fff810690815414603c575f5ffd5b62001fff01545f5260205ff35b5f5ffd5b62001fff42064281555f359062001fff015500",
                "nonce" : "0x01",
                "storage" : {
                    "0x03b6" : "0x03b6"
                }
            },
            "0xa94f5374fce5edbc8e2a8697c15331677e6ebf0b" : {
                "balance" : "0x01000000000000000000",
                "code" : "0x",
                "nonce" : "0x00",
                "storage" : {
                }
            }
        },
        "sealEngine" : "NoProof"
    }
}