{
    "callcallcode_01" : {
        "_info" : {
            "comment" : "",
            "filling-rpc-server" : "evmone-t8n 0.14.0-13+commit.4d363c36",
            "filling-tool-version" : "retesteth-0.3.2-legacy+commit.ca7f4c79.Linux.g++",
            "fixture-format" : "state_test",
            "generatedTestHash" : "947ca07bbd2e63691acd7bd9897547c8afdf594de11c449197f762691157c58c",
            "lllcversion" : "Version: 0.5.14-develop.2024.11.5+commit.b2b86751.mod.Linux.g++",
            "hyperion" : "Version: 0.8.24+commit.e11b9ed9.Linux.g++",
            "source" : "src/GeneralStateTestsFiller/stCallDelegateCodesCallCodeHomestead/callcallcode_01Filler.json",
            "sourceHash" : "62c52e5416f6ee671f47714d6c9a39ea1f74ec9ebe98798001785ff0d88f19fb"
        },
        "config" : {
            
            "chainid" : "0x01"
        },
        "env" : {
            "currentBaseFee" : "0x0a",
            "currentCoinbase" : "Z2adc25665018aa1fe0e6bc666dac8fc2697ff9ba",
            "currentGasLimit" : "0x01c9c380",
            "currentNumber" : "0x01",
            "currentRandom" : "0x0000000000000000000000000000000000000000000000000000000000020000",
            "currentTimestamp" : "0x03e8"
        },
        "post" : {
            "Cancun" : [
                {
                    "hash" : "0x50e3018f73ab8dba1e3352e23bffd8a41dc37c2876246c7445e841f13a3e4558",
                    "indexes" : {
                        "data" : 0,
                        "gas" : 0,
                        "value" : 0
                    },
                    "logs" : "0x1dcc4de8dec75d7aab85b567b6ccd41ad312451b948a7413f0a142fd40d49347",
                    "state" : {
                        "Z1000000000000000000000000000000000000000" : {
                            "balance" : "0x0de0b6b3a7640000",
                            "code" : "0x6040600060406000600173100000000000000000000000000000000000000162055730f260005500",
                            "nonce" : "0x00",
                            "storage" : {
                                "0x00" : "0x01",
                                "0x01" : "0x01",
                                "0x02" : "0x01",
                                "0x04" : "0x1000000000000000000000000000000000000000",
                                "0x05" : "0x01",
                                "0xe6" : "0x1000000000000000000000000000000000000000",
                                "0xe8" : "0xa94f5374fce5edbc8e2a8697c15331677e6ebf0b",
                                "0xec" : "0x40",
                                "0xee" : "0x22",
                                "0xf0" : "0x0a"
                            }
                        },
                        "Z1000000000000000000000000000000000000001" : {
                            "balance" : "0x0de0b6b3a7640000",
                            "code" : "0x60406000604060007310000000000000000000000000000000000000026203d090f460015500",
                            "nonce" : "0x00",
                            "storage" : {
                            }
                        },
                        "Z1000000000000000000000000000000000000002" : {
                            "balance" : "0x00",
                            "code" : "0x600160025533600455346005553060e6553260e8553660ec553860ee553a60f05500",
                            "nonce" : "0x00",
                            "storage" : {
                            }
                        },
                        "Za94f5374fce5edbc8e2a8697c15331677e6ebf0b" : {
                            "balance" : "0x0de0b6b3a73d3e34",
                            "code" : "0x",
                            "nonce" : "0x01",
                            "storage" : {
                            }
                        }
                    },
                    "txbytes" : "0xf860800a832dc6c094100000000000000000000000000000000000000080801ba07763c200d265ba0050627c8c7b4c19bf118b3581a3de22dbcebdfcb6e8565790a0514908f638ddc4b1402230e34692f43bb92713ff2cad3627814cf6fb19ac2e43"
                }
            ],
            "Shanghai" : [
                {
                    "hash" : "0x50e3018f73ab8dba1e3352e23bffd8a41dc37c2876246c7445e841f13a3e4558",
                    "indexes" : {
                        "data" : 0,
                        "gas" : 0,
                        "value" : 0
                    },
                    "logs" : "0x1dcc4de8dec75d7aab85b567b6ccd41ad312451b948a7413f0a142fd40d49347",
                    "state" : {
                        "Z1000000000000000000000000000000000000000" : {
                            "balance" : "0x0de0b6b3a7640000",
                            "code" : "0x6040600060406000600173100000000000000000000000000000000000000162055730f260005500",
                            "nonce" : "0x00",
                            "storage" : {
                                "0x00" : "0x01",
                                "0x01" : "0x01",
                                "0x02" : "0x01",
                                "0x04" : "0x1000000000000000000000000000000000000000",
                                "0x05" : "0x01",
                                "0xe6" : "0x1000000000000000000000000000000000000000",
                                "0xe8" : "0xa94f5374fce5edbc8e2a8697c15331677e6ebf0b",
                                "0xec" : "0x40",
                                "0xee" : "0x22",
                                "0xf0" : "0x0a"
                            }
                        },
                        "Z1000000000000000000000000000000000000001" : {
                            "balance" : "0x0de0b6b3a7640000",
                            "code" : "0x60406000604060007310000000000000000000000000000000000000026203d090f460015500",
                            "nonce" : "0x00",
                            "storage" : {
                            }
                        },
                        "Z1000000000000000000000000000000000000002" : {
                            "balance" : "0x00",
                            "code" : "0x600160025533600455346005553060e6553260e8553660ec553860ee553a60f05500",
                            "nonce" : "0x00",
                            "storage" : {
                            }
                        },
                        "Za94f5374fce5edbc8e2a8697c15331677e6ebf0b" : {
                            "balance" : "0x0de0b6b3a73d3e34",
                            "code" : "0x",
                            "nonce" : "0x01",
                            "storage" : {
                            }
                        }
                    },
                    "txbytes" : "0xf860800a832dc6c094100000000000000000000000000000000000000080801ba07763c200d265ba0050627c8c7b4c19bf118b3581a3de22dbcebdfcb6e8565790a0514908f638ddc4b1402230e34692f43bb92713ff2cad3627814cf6fb19ac2e43"
                }
            ]
        },
        "pre" : {
            "Z1000000000000000000000000000000000000000" : {
                "balance" : "0x0de0b6b3a7640000",
                "code" : "0x6040600060406000600173100000000000000000000000000000000000000162055730f260005500",
                "nonce" : "0x00",
                "storage" : {
                }
            },
            "Z1000000000000000000000000000000000000001" : {
                "balance" : "0x0de0b6b3a7640000",
                "code" : "0x60406000604060007310000000000000000000000000000000000000026203d090f460015500",
                "nonce" : "0x00",
                "storage" : {
                }
            },
            "Z1000000000000000000000000000000000000002" : {
                "balance" : "0x00",
                "code" : "0x600160025533600455346005553060e6553260e8553660ec553860ee553a60f05500",
                "nonce" : "0x00",
                "storage" : {
                }
            },
            "Za94f5374fce5edbc8e2a8697c15331677e6ebf0b" : {
                "balance" : "0x0de0b6b3a7640000",
                "code" : "0x",
                "nonce" : "0x00",
                "storage" : {
                }
            }
        },
        "transaction" : {
            "data" : [
                "0x"
            ],
            "gasLimit" : [
                "0x2dc6c0"
            ],
            "gasPrice" : "0x0a",
            "nonce" : "0x00",
            "secretKey" : "0x45a915e4d060149eb4365960e6a7a45f334393093061116b197e3240065ff2d8",
            "sender" : "Za94f5374fce5edbc8e2a8697c15331677e6ebf0b",
            "to" : "Z1000000000000000000000000000000000000000",
            "value" : [
                "0x00"
            ]
        }
    }
}