{
    "arith" : {
        "_info" : {
            "comment" : "Ori Pomerantz qbzzt1@gmail.com",
            "filling-rpc-server" : "evmone-t8n 0.14.0-13+commit.4d363c36",
            "filling-tool-version" : "retesteth-0.3.2-legacy+commit.ca7f4c79.Linux.g++",
            "fixture-format" : "state_test",
            "generatedTestHash" : "06a05649aa71393905af9edb83c5303434fc3a2dd861427742c2396367ad57b0",
            "lllcversion" : "Version: 0.5.14-develop.2024.11.5+commit.b2b86751.mod.Linux.g++",
            "hyperion" : "Version: 0.8.24+commit.e11b9ed9.Linux.g++",
            "source" : "src/GeneralStateTestsFiller/VMTests/vmArithmeticTest/arithFiller.yml",
            "sourceHash" : "74ee443f313778ef5b49e90c36415231cdc3db3830affdab7940d241b01583e9"
        },
        "config" : {
            "blobSchedule" : {
                "Cancun" : {
                    "baseFeeUpdateFraction" : "0x32f0ed",
                    "max" : "0x06",
                    "target" : "0x03"
                },
                "Prague" : {
                    "baseFeeUpdateFraction" : "0x4c6964",
                    "max" : "0x09",
                    "target" : "0x06"
                }
            },
            "chainid" : "0x01"
        },
        "env" : {
            "currentBaseFee" : "0x0a",
            "currentCoinbase" : "Z2adc25665018aa1fe0e6bc666dac8fc2697ff9ba",
            "currentExcessBlobGas" : "0x00",
            "currentGasLimit" : "0x05f5e100",
            "currentNumber" : "0x01",
            "currentRandom" : "0x0000000000000000000000000000000000000000000000000000000000020000",
            "currentTimestamp" : "0x03e8"
        },
        "post" : {
            "Cancun" : [
                {
                    "hash" : "0x4c6e15a60aaab17fd64cdb35d269c1a4035566d57a8f9f29a88271b703d94132",
                    "indexes" : {
                        "data" : 0,
                        "gas" : 0,
                        "value" : 0
                    },
                    "logs" : "0x1dcc4de8dec75d7aab85b567b6ccd41ad312451b948a7413f0a142fd40d49347",
                    "state" : {
                        "0xa94f5374fce5edbc8e2a8697c15331677e6ebf0b" : {
                            "balance" : "0x0ba1a9ce0b9b0faf",
                            "code" : "0x",
                            "nonce" : "0x01",
                            "storage" : {
                            }
                        },
                        "0xcccccccccccccccccccccccccccccccccccccccc" : {
                            "balance" : "0x0ba1a9ce0ba1a9cf",
                            "code" : "0x600160019001600702600501600290046004906021900560170160030260059007600303600960110a60005560086000f3",
                            "nonce" : "0x00",
                            "storage" : {
                                "0x00" : "0x1b9c636491"
                            }
                        }
                    },
                    "txbytes" : "0xf861800a8404c4b40094cccccccccccccccccccccccccccccccccccccccc01001ca06939410fcd80efd44b8d819c37a4e460b38e39f37d99e1f09ccd9c25753ef79aa017a79fccc1ede0aae2dbb9f810acc5d6ece485338b3d695742b607a3b886a2b1"
                }
            ],
            "Prague" : [
                {
                    "hash" : "0x4c6e15a60aaab17fd64cdb35d269c1a4035566d57a8f9f29a88271b703d94132",
                    "indexes" : {
                        "data" : 0,
                        "gas" : 0,
                        "value" : 0
                    },
                    "logs" : "0x1dcc4de8dec75d7aab85b567b6ccd41ad312451b948a7413f0a142fd40d49347",
                    "state" : {
                        "0xa94f5374fce5edbc8e2a8697c15331677e6ebf0b" : {
                            "balance" : "0x0ba1a9ce0b9b0faf",
                            "code" : "0x",
                            "nonce" : "0x01",
                            "storage" : {
                            }
                        },
                        "0xcccccccccccccccccccccccccccccccccccccccc" : {
                            "balance" : "0x0ba1a9ce0ba1a9cf",
                            "code" : "0x600160019001600702600501600290046004906021900560170160030260059007600303600960110a60005560086000f3",
                            "nonce" : "0x00",
                            "storage" : {
                                "0x00" : "0x1b9c636491"
                            }
                        }
                    },
                    "txbytes" : "0xf861800a8404c4b40094cccccccccccccccccccccccccccccccccccccccc01001ca06939410fcd80efd44b8d819c37a4e460b38e39f37d99e1f09ccd9c25753ef79aa017a79fccc1ede0aae2dbb9f810acc5d6ece485338b3d695742b607a3b886a2b1"
                }
            ]
        },
        "pre" : {
            "Za94f5374fce5edbc8e2a8697c15331677e6ebf0b" : {
                "balance" : "0x0ba1a9ce0ba1a9ce",
                "code" : "0x",
                "nonce" : "0x00",
                "storage" : {
                }
            },
            "Zcccccccccccccccccccccccccccccccccccccccc" : {
                "balance" : "0x0ba1a9ce0ba1a9ce",
                "code" : "0x600160019001600702600501600290046004906021900560170160030260059007600303600960110a60005560086000f3",
                "nonce" : "0x00",
                "storage" : {
                }
            }
        },
        "transaction" : {
            "data" : [
                "0x00"
            ],
            "gasLimit" : [
                "0x04c4b400"
            ],
            "gasPrice" : "0x0a",
            "nonce" : "0x00",
            "secretKey" : "0x45a915e4d060149eb4365960e6a7a45f334393093061116b197e3240065ff2d8",
            "sender" : "Za94f5374fce5edbc8e2a8697c15331677e6ebf0b",
            "to" : "Zcccccccccccccccccccccccccccccccccccccccc",
            "value" : [
                "0x01"
            ]
        }
    }
}