{
    "CreateTransactionHighNonce_d0g0v0_Cancun" : {
        "_info" : {
            "comment" : "The test check if the create transaction is reject if the origin's nonce is maximum value\n(and would overflow if increased by 1).\n",
            "filling-rpc-server" : "evmone-t8n 0.14.0-13+commit.4d363c36",
            "filling-tool-version" : "retesteth-0.3.2-legacy+commit.ca7f4c79.Linux.g++",
            "fixture-format" : "blockchain_test",
            "generatedTestHash" : "620c0fb8321a0e801cadfbb9346b79ffb3633701b47cec2a011aa87fda972785",
            "lllcversion" : "Version: 0.5.14-develop.2024.11.5+commit.b2b86751.mod.Linux.g++",
            "solidity" : "Version: 0.8.24+commit.e11b9ed9.Linux.g++",
            "source" : "src/GeneralStateTestsFiller/stCreateTest/CreateTransactionHighNonceFiller.yml",
            "sourceHash" : "9adeee404b04dc4ddc0a60beffdce348b333e4f11d8430d60a78494dc5fee118"
        },
        "blocks" : [
            {
                "expectException" : "TransactionException.NONCE_IS_MAX",
                "rlp" : "0xf90299f90237a0fd871a9d8df4e61eed34b26df4a79593d7b09697e58985c6c19cad162e795ae4a01dcc4de8dec75d7aab85b567b6ccd41ad312451b948a7413f0a142fd40d4934794a94f5374fce5edbc8e2a8697c15331677e6ebf0ba0d270c550172e6ef6ecf04c8fa9d09d15a63cab992617c304183f9ecca697c63ea056e81f171bcc55a6ff8345e692c0f86e5b48e01b996cadc001622fb5e363b421a056e81f171bcc55a6ff8345e692c0f86e5b48e01b996cadc001622fb5e363b421b90100000000000000000000000000000000000000000000000000000000000000000000000000000000000000000000000000000000000000000000000000000000000000000000000000000000000000000000000000000000000000000000000000000000000000000000000000000000000000000000000000000000000000000000000000000000000000000000000000000000000000000000000000000000000000000000000000000000000000000000000000000000000000000000000000000000000000000000000000000000000000000000000000000000000000000000000000000000000000000000000000000000000000000000000000000000008001830f4240808203e800a000000000000000000000000000000000000000000000000000000000000000018800000000000000000aa056e81f171bcc55a6ff8345e692c0f86e5b48e01b996cadc001622fb5e363b4218080a00000000000000000000000000000000000000000000000000000000000000000f85bf85988ffffffffffffffff0a83015f9080808560016000f31ca03bfef6a444fcead2d0db16eb8e1f52dab1c735bff73b805e39a91c0b941be81ca069fe69ac730ae0bbfa7b940a34635dd987516ce0898d37cfa29d145a238b92e8c0c0",
                "rlp_decoded" : {
                    "blockHeader" : {
                        "baseFeePerGas" : "0x0a",
                        "bloom" : "0x00000000000000000000000000000000000000000000000000000000000000000000000000000000000000000000000000000000000000000000000000000000000000000000000000000000000000000000000000000000000000000000000000000000000000000000000000000000000000000000000000000000000000000000000000000000000000000000000000000000000000000000000000000000000000000000000000000000000000000000000000000000000000000000000000000000000000000000000000000000000000000000000000000000000000000000000000000000000000000000000000000000000000000000000000000000",
                        "coinbase" : "0xa94f5374fce5edbc8e2a8697c15331677e6ebf0b",
                        "extraData" : "0x00",
                        "gasLimit" : "0x0f4240",
                        "gasUsed" : "0x00",
                        "hash" : "0x92fae935023560e35104d873115dca4191f64c3a4abebd7950d10c9b9921b914",
                        "mixHash" : "0x0000000000000000000000000000000000000000000000000000000000000001",
                        "nonce" : "0x0000000000000000",
                        "number" : "0x01",
                        "parentBeaconBlockRoot" : "0x0000000000000000000000000000000000000000000000000000000000000000",
                        "parentHash" : "0xfd871a9d8df4e61eed34b26df4a79593d7b09697e58985c6c19cad162e795ae4",
                        "receiptTrie" : "0x56e81f171bcc55a6ff8345e692c0f86e5b48e01b996cadc001622fb5e363b421",
                        "stateRoot" : "0xd270c550172e6ef6ecf04c8fa9d09d15a63cab992617c304183f9ecca697c63e",
                        "timestamp" : "0x03e8",
                        "transactionsTrie" : "0x56e81f171bcc55a6ff8345e692c0f86e5b48e01b996cadc001622fb5e363b421",
                        "withdrawalsRoot" : "0x56e81f171bcc55a6ff8345e692c0f86e5b48e01b996cadc001622fb5e363b421"
                    },
                    "transactions" : [
                        {
                            "data" : "0x60016000f3",
                            "gasLimit" : "0x015f90",
                            "gasPrice" : "0x0a",
                            "nonce" : "0xffffffffffffffff",
                            "r" : "0x3bfef6a444fcead2d0db16eb8e1f52dab1c735bff73b805e39a91c0b941be81c",
                            "s" : "0x69fe69ac730ae0bbfa7b940a34635dd987516ce0898d37cfa29d145a238b92e8",
                            "to" : "",
                            "v" : "0x1c",
                            "value" : "0x00"
                        }
                    ],
                    "uncleHeaders" : [
                    ],
                    "withdrawals" : [
                    ]
                },
                "transactionSequence" : [
                    {
                        "exception" : "TransactionException.NONCE_IS_MAX",
                        "rawBytes" : "0xf85988ffffffffffffffff0a83015f9080808560016000f31ca03bfef6a444fcead2d0db16eb8e1f52dab1c735bff73b805e39a91c0b941be81ca069fe69ac730ae0bbfa7b940a34635dd987516ce0898d37cfa29d145a238b92e8",
                        "valid" : "false"
                    }
                ]
            }
        ],
        "config" : {
            "blobSchedule" : {
                "Cancun" : {
                    "baseFeeUpdateFraction" : "0x32f0ed",
                    "max" : "0x06",
                    "target" : "0x03"
                }
            },
            "chainid" : "0x01",
            "network" : "Cancun"
        },
        "genesisBlockHeader" : {
            "baseFeePerGas" : "0x0b",
            "bloom" : "0x00000000000000000000000000000000000000000000000000000000000000000000000000000000000000000000000000000000000000000000000000000000000000000000000000000000000000000000000000000000000000000000000000000000000000000000000000000000000000000000000000000000000000000000000000000000000000000000000000000000000000000000000000000000000000000000000000000000000000000000000000000000000000000000000000000000000000000000000000000000000000000000000000000000000000000000000000000000000000000000000000000000000000000000000000000000",
            "coinbase" : "0xa94f5374fce5edbc8e2a8697c15331677e6ebf0b",
            "extraData" : "0x00",
            "gasLimit" : "0x0f4240",
            "gasUsed" : "0x00",
            "hash" : "0xfd871a9d8df4e61eed34b26df4a79593d7b09697e58985c6c19cad162e795ae4",
            "mixHash" : "0x0000000000000000000000000000000000000000000000000000000000000001",
            "nonce" : "0x0000000000000000",
            "number" : "0x00",
            "parentBeaconBlockRoot" : "0x0000000000000000000000000000000000000000000000000000000000000000",
            "parentHash" : "0x0000000000000000000000000000000000000000000000000000000000000000",
            "receiptTrie" : "0x56e81f171bcc55a6ff8345e692c0f86e5b48e01b996cadc001622fb5e363b421",
            "stateRoot" : "0x5c464b19ab6b66d31efa3fbb01eb1c0983c0b58849664f3afdda1aa1f082d9b8",
            "timestamp" : "0x00",
            "transactionsTrie" : "0x56e81f171bcc55a6ff8345e692c0f86e5b48e01b996cadc001622fb5e363b421",
            "withdrawalsRoot" : "0x56e81f171bcc55a6ff8345e692c0f86e5b48e01b996cadc001622fb5e363b421"
        },
        "genesisRLP" : "0xf9023ef90238a00000000000000000000000000000000000000000000000000000000000000000a01dcc4de8dec75d7aab85b567b6ccd41ad312451b948a7413f0a142fd40d4934794a94f5374fce5edbc8e2a8697c15331677e6ebf0ba05c464b19ab6b66d31efa3fbb01eb1c0983c0b58849664f3afdda1aa1f082d9b8a056e81f171bcc55a6ff8345e692c0f86e5b48e01b996cadc001622fb5e363b421a056e81f171bcc55a6ff8345e692c0f86e5b48e01b996cadc001622fb5e363b421b90100000000000000000000000000000000000000000000000000000000000000000000000000000000000000000000000000000000000000000000000000000000000000000000000000000000000000000000000000000000000000000000000000000000000000000000000000000000000000000000000000000000000000000000000000000000000000000000000000000000000000000000000000000000000000000000000000000000000000000000000000000000000000000000000000000000000000000000000000000000000000000000000000000000000000000000000000000000000000000000000000000000000000000000000000000000008080830f4240808000a000000000000000000000000000000000000000000000000000000000000000018800000000000000000ba056e81f171bcc55a6ff8345e692c0f86e5b48e01b996cadc001622fb5e363b4218083060000a00000000000000000000000000000000000000000000000000000000000000000c0c0c0",
        "lastblockhash" : "0xfd871a9d8df4e61eed34b26df4a79593d7b09697e58985c6c19cad162e795ae4",
        "network" : "Cancun",
        "postState" : {
            "0x000f3df6d732807ef1319fb7b8bb8522d0beac02" : {
                "balance" : "0x00",
                "code" : "0x3373fffffffffffffffffffffffffffffffffffffffe14604d57602036146024575f5ffd5b5f35801560495762001fff810690815414603c575f5ffd5b62001fff01545f5260205ff35b5f5ffd5b62001fff42064281555f359062001fff015500",
                "nonce" : "0x01",
                "storage" : {
                }
            },
            "0xa94f5374fce5edbc8e2a8697c15331677e6ebf0b" : {
                "balance" : "0x5af3107a4000",
                "code" : "0x",
                "nonce" : "0xffffffffffffffff",
                "storage" : {
                }
            }
        },
        "pre" : {
            "0x000f3df6d732807ef1319fb7b8bb8522d0beac02" : {
                "balance" : "0x00",
                "code" : "0x3373fffffffffffffffffffffffffffffffffffffffe14604d57602036146024575f5ffd5b5f35801560495762001fff810690815414603c575f5ffd5b62001fff01545f5260205ff35b5f5ffd5b62001fff42064281555f359062001fff015500",
                "nonce" : "0x01",
                "storage" : {
                }
            },
            "0xa94f5374fce5edbc8e2a8697c15331677e6ebf0b" : {
                "balance" : "0x5af3107a4000",
                "code" : "0x",
                "nonce" : "0xffffffffffffffff",
                "storage" : {
                }
            }
        },
        "sealEngine" : "NoProof"
    },
    "CreateTransactionHighNonce_d0g0v0_Prague" : {
        "_info" : {
            "comment" : "The test check if the create transaction is reject if the origin's nonce is maximum value\n(and would overflow if increased by 1).\n",
            "filling-rpc-server" : "evmone-t8n 0.14.0-13+commit.4d363c36",
            "filling-tool-version" : "retesteth-0.3.2-legacy+commit.ca7f4c79.Linux.g++",
            "fixture-format" : "blockchain_test",
            "generatedTestHash" : "31508cf75fba982c55c08f6a27319920ec869f71e644520c6abf467c682c9683",
            "lllcversion" : "Version: 0.5.14-develop.2024.11.5+commit.b2b86751.mod.Linux.g++",
            "solidity" : "Version: 0.8.24+commit.e11b9ed9.Linux.g++",
            "source" : "src/GeneralStateTestsFiller/stCreateTest/CreateTransactionHighNonceFiller.yml",
            "sourceHash" : "9adeee404b04dc4ddc0a60beffdce348b333e4f11d8430d60a78494dc5fee118"
        },
        "blocks" : [
            {
                "expectException" : "TransactionException.NONCE_IS_MAX",
                "rlp" : "0xf902baf90258a0d03df7525350a4d7d4b0ac0d498a7136becb778127d5ec6be428735ef75b9527a01dcc4de8dec75d7aab85b567b6ccd41ad312451b948a7413f0a142fd40d4934794a94f5374fce5edbc8e2a8697c15331677e6ebf0ba0d30483e976b2833ee61fa4b1beaf469309a52a607b59da22f7dafd7847a2ff84a056e81f171bcc55a6ff8345e692c0f86e5b48e01b996cadc001622fb5e363b421a056e81f171bcc55a6ff8345e692c0f86e5b48e01b996cadc001622fb5e363b421b90100000000000000000000000000000000000000000000000000000000000000000000000000000000000000000000000000000000000000000000000000000000000000000000000000000000000000000000000000000000000000000000000000000000000000000000000000000000000000000000000000000000000000000000000000000000000000000000000000000000000000000000000000000000000000000000000000000000000000000000000000000000000000000000000000000000000000000000000000000000000000000000000000000000000000000000000000000000000000000000000000000000000000000000000000000000008001830f4240808203e800a000000000000000000000000000000000000000000000000000000000000000018800000000000000000aa056e81f171bcc55a6ff8345e692c0f86e5b48e01b996cadc001622fb5e363b4218080a00000000000000000000000000000000000000000000000000000000000000000a0e3b0c44298fc1c149afbf4c8996fb92427ae41e4649b934ca495991b7852b855f85bf85988ffffffffffffffff0a83015f9080808560016000f31ca03bfef6a444fcead2d0db16eb8e1f52dab1c735bff73b805e39a91c0b941be81ca069fe69ac730ae0bbfa7b940a34635dd987516ce0898d37cfa29d145a238b92e8c0c0",
                "rlp_decoded" : {
                    "blockHeader" : {
                        "baseFeePerGas" : "0x0a",
                        "bloom" : "0x00000000000000000000000000000000000000000000000000000000000000000000000000000000000000000000000000000000000000000000000000000000000000000000000000000000000000000000000000000000000000000000000000000000000000000000000000000000000000000000000000000000000000000000000000000000000000000000000000000000000000000000000000000000000000000000000000000000000000000000000000000000000000000000000000000000000000000000000000000000000000000000000000000000000000000000000000000000000000000000000000000000000000000000000000000000",
                        "coinbase" : "0xa94f5374fce5edbc8e2a8697c15331677e6ebf0b",
                        "extraData" : "0x00",
                        "gasLimit" : "0x0f4240",
                        "gasUsed" : "0x00",
                        "hash" : "0x205a55d7b906fe359fe9906647bcf5d0802e7b2681901f6e7f1db494521b6052",
                        "mixHash" : "0x0000000000000000000000000000000000000000000000000000000000000001",
                        "nonce" : "0x0000000000000000",
                        "number" : "0x01",
                        "parentBeaconBlockRoot" : "0x0000000000000000000000000000000000000000000000000000000000000000",
                        "parentHash" : "0xd03df7525350a4d7d4b0ac0d498a7136becb778127d5ec6be428735ef75b9527",
                        "receiptTrie" : "0x56e81f171bcc55a6ff8345e692c0f86e5b48e01b996cadc001622fb5e363b421",
                        "requestsHash" : "0xe3b0c44298fc1c149afbf4c8996fb92427ae41e4649b934ca495991b7852b855",
                        "stateRoot" : "0xd30483e976b2833ee61fa4b1beaf469309a52a607b59da22f7dafd7847a2ff84",
                        "timestamp" : "0x03e8",
                        "transactionsTrie" : "0x56e81f171bcc55a6ff8345e692c0f86e5b48e01b996cadc001622fb5e363b421",
                        "withdrawalsRoot" : "0x56e81f171bcc55a6ff8345e692c0f86e5b48e01b996cadc001622fb5e363b421"
                    },
                    "transactions" : [
                        {
                            "data" : "0x60016000f3",
                            "gasLimit" : "0x015f90",
                            "gasPrice" : "0x0a",
                            "nonce" : "0xffffffffffffffff",
                            "r" : "0x3bfef6a444fcead2d0db16eb8e1f52dab1c735bff73b805e39a91c0b941be81c",
                            "s" : "0x69fe69ac730ae0bbfa7b940a34635dd987516ce0898d37cfa29d145a238b92e8",
                            "to" : "",
                            "v" : "0x1c",
                            "value" : "0x00"
                        }
                    ],
                    "uncleHeaders" : [
                    ],
                    "withdrawals" : [
                    ]
                },
                "transactionSequence" : [
                    {
                        "exception" : "TransactionException.NONCE_IS_MAX",
                        "rawBytes" : "0xf85988ffffffffffffffff0a83015f9080808560016000f31ca03bfef6a444fcead2d0db16eb8e1f52dab1c735bff73b805e39a91c0b941be81ca069fe69ac730ae0bbfa7b940a34635dd987516ce0898d37cfa29d145a238b92e8",
                        "valid" : "false"
                    }
                ]
            }
        ],
        "config" : {
            "blobSchedule" : {
                "Prague" : {
                    "baseFeeUpdateFraction" : "0x4c6964",
                    "max" : "0x09",
                    "target" : "0x06"
                }
            },
            "chainid" : "0x01",
            "network" : "Prague"
        },
        "genesisBlockHeader" : {
            "baseFeePerGas" : "0x0b",
            "bloom" : "0x00000000000000000000000000000000000000000000000000000000000000000000000000000000000000000000000000000000000000000000000000000000000000000000000000000000000000000000000000000000000000000000000000000000000000000000000000000000000000000000000000000000000000000000000000000000000000000000000000000000000000000000000000000000000000000000000000000000000000000000000000000000000000000000000000000000000000000000000000000000000000000000000000000000000000000000000000000000000000000000000000000000000000000000000000000000",
            "coinbase" : "0xa94f5374fce5edbc8e2a8697c15331677e6ebf0b",
            "extraData" : "0x00",
            "gasLimit" : "0x0f4240",
            "gasUsed" : "0x00",
            "hash" : "0xd03df7525350a4d7d4b0ac0d498a7136becb778127d5ec6be428735ef75b9527",
            "mixHash" : "0x0000000000000000000000000000000000000000000000000000000000000001",
            "nonce" : "0x0000000000000000",
            "number" : "0x00",
            "parentBeaconBlockRoot" : "0x0000000000000000000000000000000000000000000000000000000000000000",
            "parentHash" : "0x0000000000000000000000000000000000000000000000000000000000000000",
            "receiptTrie" : "0x56e81f171bcc55a6ff8345e692c0f86e5b48e01b996cadc001622fb5e363b421",
            "requestsHash" : "0xe3b0c44298fc1c149afbf4c8996fb92427ae41e4649b934ca495991b7852b855",
            "stateRoot" : "0xcae4e33f016da0eacb4a07280dc231c64a029add9fa1b3acf1654239cf529012",
            "timestamp" : "0x00",
            "transactionsTrie" : "0x56e81f171bcc55a6ff8345e692c0f86e5b48e01b996cadc001622fb5e363b421",
            "withdrawalsRoot" : "0x56e81f171bcc55a6ff8345e692c0f86e5b48e01b996cadc001622fb5e363b421"
        },
        "genesisRLP" : "0xf9025ff90259a00000000000000000000000000000000000000000000000000000000000000000a01dcc4de8dec75d7aab85b567b6ccd41ad312451b948a7413f0a142fd40d4934794a94f5374fce5edbc8e2a8697c15331677e6ebf0ba0cae4e33f016da0eacb4a07280dc231c64a029add9fa1b3acf1654239cf529012a056e81f171bcc55a6ff8345e692c0f86e5b48e01b996cadc001622fb5e363b421a056e81f171bcc55a6ff8345e692c0f86e5b48e01b996cadc001622fb5e363b421b90100000000000000000000000000000000000000000000000000000000000000000000000000000000000000000000000000000000000000000000000000000000000000000000000000000000000000000000000000000000000000000000000000000000000000000000000000000000000000000000000000000000000000000000000000000000000000000000000000000000000000000000000000000000000000000000000000000000000000000000000000000000000000000000000000000000000000000000000000000000000000000000000000000000000000000000000000000000000000000000000000000000000000000000000000000000008080830f4240808000a000000000000000000000000000000000000000000000000000000000000000018800000000000000000ba056e81f171bcc55a6ff8345e692c0f86e5b48e01b996cadc001622fb5e363b4218083060000a00000000000000000000000000000000000000000000000000000000000000000a0e3b0c44298fc1c149afbf4c8996fb92427ae41e4649b934ca495991b7852b855c0c0c0",
        "lastblockhash" : "0xd03df7525350a4d7d4b0ac0d498a7136becb778127d5ec6be428735ef75b9527",
        "network" : "Prague",
        "postState" : {
            "0x0000f90827f1c53a10cb7a02335b175320002935" : {
                "balance" : "0x00",
                "code" : "0x3373fffffffffffffffffffffffffffffffffffffffe14604657602036036042575f35600143038111604257611fff81430311604257611fff9006545f5260205ff35b5f5ffd5b5f35611fff60014303065500",
                "nonce" : "0x01",
                "storage" : {
                }
            },
            "0x000f3df6d732807ef1319fb7b8bb8522d0beac02" : {
                "balance" : "0x00",
                "code" : "0x3373fffffffffffffffffffffffffffffffffffffffe14604d57602036146024575f5ffd5b5f35801560495762001fff810690815414603c575f5ffd5b62001fff01545f5260205ff35b5f5ffd5b62001fff42064281555f359062001fff015500",
                "nonce" : "0x01",
                "storage" : {
                }
            },
            "0xa94f5374fce5edbc8e2a8697c15331677e6ebf0b" : {
                "balance" : "0x5af3107a4000",
                "code" : "0x",
                "nonce" : "0xffffffffffffffff",
                "storage" : {
                }
            }
        },
        "pre" : {
            "0x0000f90827f1c53a10cb7a02335b175320002935" : {
                "balance" : "0x00",
                "code" : "0x3373fffffffffffffffffffffffffffffffffffffffe14604657602036036042575f35600143038111604257611fff81430311604257611fff9006545f5260205ff35b5f5ffd5b5f35611fff60014303065500",
                "nonce" : "0x01",
                "storage" : {
                }
            },
            "0x000f3df6d732807ef1319fb7b8bb8522d0beac02" : {
                "balance" : "0x00",
                "code" : "0x3373fffffffffffffffffffffffffffffffffffffffe14604d57602036146024575f5ffd5b5f35801560495762001fff810690815414603c575f5ffd5b62001fff01545f5260205ff35b5f5ffd5b62001fff42064281555f359062001fff015500",
                "nonce" : "0x01",
                "storage" : {
                }
            },
            "0xa94f5374fce5edbc8e2a8697c15331677e6ebf0b" : {
                "balance" : "0x5af3107a4000",
                "code" : "0x",
                "nonce" : "0xffffffffffffffff",
                "storage" : {
                }
            }
        },
        "sealEngine" : "NoProof"
    },
    "CreateTransactionHighNonce_d0g0v1_Cancun" : {
        "_info" : {
            "comment" : "The test check if the create transaction is reject if the origin's nonce is maximum value\n(and would overflow if increased by 1).\n",
            "filling-rpc-server" : "evmone-t8n 0.14.0-13+commit.4d363c36",
            "filling-tool-version" : "retesteth-0.3.2-legacy+commit.ca7f4c79.Linux.g++",
            "fixture-format" : "blockchain_test",
            "generatedTestHash" : "647657b816140da0699cc46ccdf61ca68222b807c02d63899e24246655a95ecf",
            "lllcversion" : "Version: 0.5.14-develop.2024.11.5+commit.b2b86751.mod.Linux.g++",
            "solidity" : "Version: 0.8.24+commit.e11b9ed9.Linux.g++",
            "source" : "src/GeneralStateTestsFiller/stCreateTest/CreateTransactionHighNonceFiller.yml",
            "sourceHash" : "9adeee404b04dc4ddc0a60beffdce348b333e4f11d8430d60a78494dc5fee118"
        },
        "blocks" : [
            {
                "expectException" : "TransactionException.NONCE_IS_MAX",
                "rlp" : "0xf90299f90237a0fd871a9d8df4e61eed34b26df4a79593d7b09697e58985c6c19cad162e795ae4a01dcc4de8dec75d7aab85b567b6ccd41ad312451b948a7413f0a142fd40d4934794a94f5374fce5edbc8e2a8697c15331677e6ebf0ba0d270c550172e6ef6ecf04c8fa9d09d15a63cab992617c304183f9ecca697c63ea056e81f171bcc55a6ff8345e692c0f86e5b48e01b996cadc001622fb5e363b421a056e81f171bcc55a6ff8345e692c0f86e5b48e01b996cadc001622fb5e363b421b90100000000000000000000000000000000000000000000000000000000000000000000000000000000000000000000000000000000000000000000000000000000000000000000000000000000000000000000000000000000000000000000000000000000000000000000000000000000000000000000000000000000000000000000000000000000000000000000000000000000000000000000000000000000000000000000000000000000000000000000000000000000000000000000000000000000000000000000000000000000000000000000000000000000000000000000000000000000000000000000000000000000000000000000000000000000008001830f4240808203e800a000000000000000000000000000000000000000000000000000000000000000018800000000000000000aa056e81f171bcc55a6ff8345e692c0f86e5b48e01b996cadc001622fb5e363b4218080a00000000000000000000000000000000000000000000000000000000000000000f85bf85988ffffffffffffffff0a83015f9080018560016000f31ba0d154e5b04a2c660a597398d67cd85358e8fe9b9bf2a649883ed170e1b56b2dada005568798db9c655c634562bcbb61ae0c0dc81d8d4c0cfe3c7b4464aa6f1679f6c0c0",
                "rlp_decoded" : {
                    "blockHeader" : {
                        "baseFeePerGas" : "0x0a",
                        "bloom" : "0x00000000000000000000000000000000000000000000000000000000000000000000000000000000000000000000000000000000000000000000000000000000000000000000000000000000000000000000000000000000000000000000000000000000000000000000000000000000000000000000000000000000000000000000000000000000000000000000000000000000000000000000000000000000000000000000000000000000000000000000000000000000000000000000000000000000000000000000000000000000000000000000000000000000000000000000000000000000000000000000000000000000000000000000000000000000",
                        "coinbase" : "0xa94f5374fce5edbc8e2a8697c15331677e6ebf0b",
                        "extraData" : "0x00",
                        "gasLimit" : "0x0f4240",
                        "gasUsed" : "0x00",
                        "hash" : "0x92fae935023560e35104d873115dca4191f64c3a4abebd7950d10c9b9921b914",
                        "mixHash" : "0x0000000000000000000000000000000000000000000000000000000000000001",
                        "nonce" : "0x0000000000000000",
                        "number" : "0x01",
                        "parentBeaconBlockRoot" : "0x0000000000000000000000000000000000000000000000000000000000000000",
                        "parentHash" : "0xfd871a9d8df4e61eed34b26df4a79593d7b09697e58985c6c19cad162e795ae4",
                        "receiptTrie" : "0x56e81f171bcc55a6ff8345e692c0f86e5b48e01b996cadc001622fb5e363b421",
                        "stateRoot" : "0xd270c550172e6ef6ecf04c8fa9d09d15a63cab992617c304183f9ecca697c63e",
                        "timestamp" : "0x03e8",
                        "transactionsTrie" : "0x56e81f171bcc55a6ff8345e692c0f86e5b48e01b996cadc001622fb5e363b421",
                        "withdrawalsRoot" : "0x56e81f171bcc55a6ff8345e692c0f86e5b48e01b996cadc001622fb5e363b421"
                    },
                    "transactions" : [
                        {
                            "data" : "0x60016000f3",
                            "gasLimit" : "0x015f90",
                            "gasPrice" : "0x0a",
                            "nonce" : "0xffffffffffffffff",
                            "r" : "0xd154e5b04a2c660a597398d67cd85358e8fe9b9bf2a649883ed170e1b56b2dad",
                            "s" : "0x05568798db9c655c634562bcbb61ae0c0dc81d8d4c0cfe3c7b4464aa6f1679f6",
                            "to" : "",
                            "v" : "0x1b",
                            "value" : "0x01"
                        }
                    ],
                    "uncleHeaders" : [
                    ],
                    "withdrawals" : [
                    ]
                },
                "transactionSequence" : [
                    {
                        "exception" : "TransactionException.NONCE_IS_MAX",
                        "rawBytes" : "0xf85988ffffffffffffffff0a83015f9080018560016000f31ba0d154e5b04a2c660a597398d67cd85358e8fe9b9bf2a649883ed170e1b56b2dada005568798db9c655c634562bcbb61ae0c0dc81d8d4c0cfe3c7b4464aa6f1679f6",
                        "valid" : "false"
                    }
                ]
            }
        ],
        "config" : {
            "blobSchedule" : {
                "Cancun" : {
                    "baseFeeUpdateFraction" : "0x32f0ed",
                    "max" : "0x06",
                    "target" : "0x03"
                }
            },
            "chainid" : "0x01",
            "network" : "Cancun"
        },
        "genesisBlockHeader" : {
            "baseFeePerGas" : "0x0b",
            "bloom" : "0x00000000000000000000000000000000000000000000000000000000000000000000000000000000000000000000000000000000000000000000000000000000000000000000000000000000000000000000000000000000000000000000000000000000000000000000000000000000000000000000000000000000000000000000000000000000000000000000000000000000000000000000000000000000000000000000000000000000000000000000000000000000000000000000000000000000000000000000000000000000000000000000000000000000000000000000000000000000000000000000000000000000000000000000000000000000",
            "coinbase" : "0xa94f5374fce5edbc8e2a8697c15331677e6ebf0b",
            "extraData" : "0x00",
            "gasLimit" : "0x0f4240",
            "gasUsed" : "0x00",
            "hash" : "0xfd871a9d8df4e61eed34b26df4a79593d7b09697e58985c6c19cad162e795ae4",
            "mixHash" : "0x0000000000000000000000000000000000000000000000000000000000000001",
            "nonce" : "0x0000000000000000",
            "number" : "0x00",
            "parentBeaconBlockRoot" : "0x0000000000000000000000000000000000000000000000000000000000000000",
            "parentHash" : "0x0000000000000000000000000000000000000000000000000000000000000000",
            "receiptTrie" : "0x56e81f171bcc55a6ff8345e692c0f86e5b48e01b996cadc001622fb5e363b421",
            "stateRoot" : "0x5c464b19ab6b66d31efa3fbb01eb1c0983c0b58849664f3afdda1aa1f082d9b8",
            "timestamp" : "0x00",
            "transactionsTrie" : "0x56e81f171bcc55a6ff8345e692c0f86e5b48e01b996cadc001622fb5e363b421",
            "withdrawalsRoot" : "0x56e81f171bcc55a6ff8345e692c0f86e5b48e01b996cadc001622fb5e363b421"
        },
        "genesisRLP" : "0xf9023ef90238a00000000000000000000000000000000000000000000000000000000000000000a01dcc4de8dec75d7aab85b567b6ccd41ad312451b948a7413f0a142fd40d4934794a94f5374fce5edbc8e2a8697c15331677e6ebf0ba05c464b19ab6b66d31efa3fbb01eb1c0983c0b58849664f3afdda1aa1f082d9b8a056e81f171bcc55a6ff8345e692c0f86e5b48e01b996cadc001622fb5e363b421a056e81f171bcc55a6ff8345e692c0f86e5b48e01b996cadc001622fb5e363b421b90100000000000000000000000000000000000000000000000000000000000000000000000000000000000000000000000000000000000000000000000000000000000000000000000000000000000000000000000000000000000000000000000000000000000000000000000000000000000000000000000000000000000000000000000000000000000000000000000000000000000000000000000000000000000000000000000000000000000000000000000000000000000000000000000000000000000000000000000000000000000000000000000000000000000000000000000000000000000000000000000000000000000000000000000000000000008080830f4240808000a000000000000000000000000000000000000000000000000000000000000000018800000000000000000ba056e81f171bcc55a6ff8345e692c0f86e5b48e01b996cadc001622fb5e363b4218083060000a00000000000000000000000000000000000000000000000000000000000000000c0c0c0",
        "lastblockhash" : "0xfd871a9d8df4e61eed34b26df4a79593d7b09697e58985c6c19cad162e795ae4",
        "network" : "Cancun",
        "postState" : {
            "0x000f3df6d732807ef1319fb7b8bb8522d0beac02" : {
                "balance" : "0x00",
                "code" : "0x3373fffffffffffffffffffffffffffffffffffffffe14604d57602036146024575f5ffd5b5f35801560495762001fff810690815414603c575f5ffd5b62001fff01545f5260205ff35b5f5ffd5b62001fff42064281555f359062001fff015500",
                "nonce" : "0x01",
                "storage" : {
                }
            },
            "0xa94f5374fce5edbc8e2a8697c15331677e6ebf0b" : {
                "balance" : "0x5af3107a4000",
                "code" : "0x",
                "nonce" : "0xffffffffffffffff",
                "storage" : {
                }
            }
        },
        "pre" : {
            "0x000f3df6d732807ef1319fb7b8bb8522d0beac02" : {
                "balance" : "0x00",
                "code" : "0x3373fffffffffffffffffffffffffffffffffffffffe14604d57602036146024575f5ffd5b5f35801560495762001fff810690815414603c575f5ffd5b62001fff01545f5260205ff35b5f5ffd5b62001fff42064281555f359062001fff015500",
                "nonce" : "0x01",
                "storage" : {
                }
            },
            "0xa94f5374fce5edbc8e2a8697c15331677e6ebf0b" : {
                "balance" : "0x5af3107a4000",
                "code" : "0x",
                "nonce" : "0xffffffffffffffff",
                "storage" : {
                }
            }
        },
        "sealEngine" : "NoProof"
    },
    "CreateTransactionHighNonce_d0g0v1_Prague" : {
        "_info" : {
            "comment" : "The test check if the create transaction is reject if the origin's nonce is maximum value\n(and would overflow if increased by 1).\n",
            "filling-rpc-server" : "evmone-t8n 0.14.0-13+commit.4d363c36",
            "filling-tool-version" : "retesteth-0.3.2-legacy+commit.ca7f4c79.Linux.g++",
            "fixture-format" : "blockchain_test",
            "generatedTestHash" : "20dd1e8398fcab6ca8c71d3f59a11fb941e585cc9d770d9070e1e9879a1d4156",
            "lllcversion" : "Version: 0.5.14-develop.2024.11.5+commit.b2b86751.mod.Linux.g++",
            "solidity" : "Version: 0.8.24+commit.e11b9ed9.Linux.g++",
            "source" : "src/GeneralStateTestsFiller/stCreateTest/CreateTransactionHighNonceFiller.yml",
            "sourceHash" : "9adeee404b04dc4ddc0a60beffdce348b333e4f11d8430d60a78494dc5fee118"
        },
        "blocks" : [
            {
                "expectException" : "TransactionException.NONCE_IS_MAX",
                "rlp" : "0xf902baf90258a0d03df7525350a4d7d4b0ac0d498a7136becb778127d5ec6be428735ef75b9527a01dcc4de8dec75d7aab85b567b6ccd41ad312451b948a7413f0a142fd40d4934794a94f5374fce5edbc8e2a8697c15331677e6ebf0ba0d30483e976b2833ee61fa4b1beaf469309a52a607b59da22f7dafd7847a2ff84a056e81f171bcc55a6ff8345e692c0f86e5b48e01b996cadc001622fb5e363b421a056e81f171bcc55a6ff8345e692c0f86e5b48e01b996cadc001622fb5e363b421b90100000000000000000000000000000000000000000000000000000000000000000000000000000000000000000000000000000000000000000000000000000000000000000000000000000000000000000000000000000000000000000000000000000000000000000000000000000000000000000000000000000000000000000000000000000000000000000000000000000000000000000000000000000000000000000000000000000000000000000000000000000000000000000000000000000000000000000000000000000000000000000000000000000000000000000000000000000000000000000000000000000000000000000000000000000000008001830f4240808203e800a000000000000000000000000000000000000000000000000000000000000000018800000000000000000aa056e81f171bcc55a6ff8345e692c0f86e5b48e01b996cadc001622fb5e363b4218080a00000000000000000000000000000000000000000000000000000000000000000a0e3b0c44298fc1c149afbf4c8996fb92427ae41e4649b934ca495991b7852b855f85bf85988ffffffffffffffff0a83015f9080018560016000f31ba0d154e5b04a2c660a597398d67cd85358e8fe9b9bf2a649883ed170e1b56b2dada005568798db9c655c634562bcbb61ae0c0dc81d8d4c0cfe3c7b4464aa6f1679f6c0c0",
                "rlp_decoded" : {
                    "blockHeader" : {
                        "baseFeePerGas" : "0x0a",
                        "bloom" : "0x00000000000000000000000000000000000000000000000000000000000000000000000000000000000000000000000000000000000000000000000000000000000000000000000000000000000000000000000000000000000000000000000000000000000000000000000000000000000000000000000000000000000000000000000000000000000000000000000000000000000000000000000000000000000000000000000000000000000000000000000000000000000000000000000000000000000000000000000000000000000000000000000000000000000000000000000000000000000000000000000000000000000000000000000000000000",
                        "coinbase" : "0xa94f5374fce5edbc8e2a8697c15331677e6ebf0b",
                        "extraData" : "0x00",
                        "gasLimit" : "0x0f4240",
                        "gasUsed" : "0x00",
                        "hash" : "0x205a55d7b906fe359fe9906647bcf5d0802e7b2681901f6e7f1db494521b6052",
                        "mixHash" : "0x0000000000000000000000000000000000000000000000000000000000000001",
                        "nonce" : "0x0000000000000000",
                        "number" : "0x01",
                        "parentBeaconBlockRoot" : "0x0000000000000000000000000000000000000000000000000000000000000000",
                        "parentHash" : "0xd03df7525350a4d7d4b0ac0d498a7136becb778127d5ec6be428735ef75b9527",
                        "receiptTrie" : "0x56e81f171bcc55a6ff8345e692c0f86e5b48e01b996cadc001622fb5e363b421",
                        "requestsHash" : "0xe3b0c44298fc1c149afbf4c8996fb92427ae41e4649b934ca495991b7852b855",
                        "stateRoot" : "0xd30483e976b2833ee61fa4b1beaf469309a52a607b59da22f7dafd7847a2ff84",
                        "timestamp" : "0x03e8",
                        "transactionsTrie" : "0x56e81f171bcc55a6ff8345e692c0f86e5b48e01b996cadc001622fb5e363b421",
                        "withdrawalsRoot" : "0x56e81f171bcc55a6ff8345e692c0f86e5b48e01b996cadc001622fb5e363b421"
                    },
                    "transactions" : [
                        {
                            "data" : "0x60016000f3",
                            "gasLimit" : "0x015f90",
                            "gasPrice" : "0x0a",
                            "nonce" : "0xffffffffffffffff",
                            "r" : "0xd154e5b04a2c660a597398d67cd85358e8fe9b9bf2a649883ed170e1b56b2dad",
                            "s" : "0x05568798db9c655c634562bcbb61ae0c0dc81d8d4c0cfe3c7b4464aa6f1679f6",
                            "to" : "",
                            "v" : "0x1b",
                            "value" : "0x01"
                        }
                    ],
                    "uncleHeaders" : [
                    ],
                    "withdrawals" : [
                    ]
                },
                "transactionSequence" : [
                    {
                        "exception" : "TransactionException.NONCE_IS_MAX",
                        "rawBytes" : "0xf85988ffffffffffffffff0a83015f9080018560016000f31ba0d154e5b04a2c660a597398d67cd85358e8fe9b9bf2a649883ed170e1b56b2dada005568798db9c655c634562bcbb61ae0c0dc81d8d4c0cfe3c7b4464aa6f1679f6",
                        "valid" : "false"
                    }
                ]
            }
        ],
        "config" : {
            "blobSchedule" : {
                "Prague" : {
                    "baseFeeUpdateFraction" : "0x4c6964",
                    "max" : "0x09",
                    "target" : "0x06"
                }
            },
            "chainid" : "0x01",
            "network" : "Prague"
        },
        "genesisBlockHeader" : {
            "baseFeePerGas" : "0x0b",
            "bloom" : "0x00000000000000000000000000000000000000000000000000000000000000000000000000000000000000000000000000000000000000000000000000000000000000000000000000000000000000000000000000000000000000000000000000000000000000000000000000000000000000000000000000000000000000000000000000000000000000000000000000000000000000000000000000000000000000000000000000000000000000000000000000000000000000000000000000000000000000000000000000000000000000000000000000000000000000000000000000000000000000000000000000000000000000000000000000000000",
            "coinbase" : "0xa94f5374fce5edbc8e2a8697c15331677e6ebf0b",
            "extraData" : "0x00",
            "gasLimit" : "0x0f4240",
            "gasUsed" : "0x00",
            "hash" : "0xd03df7525350a4d7d4b0ac0d498a7136becb778127d5ec6be428735ef75b9527",
            "mixHash" : "0x0000000000000000000000000000000000000000000000000000000000000001",
            "nonce" : "0x0000000000000000",
            "number" : "0x00",
            "parentBeaconBlockRoot" : "0x0000000000000000000000000000000000000000000000000000000000000000",
            "parentHash" : "0x0000000000000000000000000000000000000000000000000000000000000000",
            "receiptTrie" : "0x56e81f171bcc55a6ff8345e692c0f86e5b48e01b996cadc001622fb5e363b421",
            "requestsHash" : "0xe3b0c44298fc1c149afbf4c8996fb92427ae41e4649b934ca495991b7852b855",
            "stateRoot" : "0xcae4e33f016da0eacb4a07280dc231c64a029add9fa1b3acf1654239cf529012",
            "timestamp" : "0x00",
            "transactionsTrie" : "0x56e81f171bcc55a6ff8345e692c0f86e5b48e01b996cadc001622fb5e363b421",
            "withdrawalsRoot" : "0x56e81f171bcc55a6ff8345e692c0f86e5b48e01b996cadc001622fb5e363b421"
        },
        "genesisRLP" : "0xf9025ff90259a00000000000000000000000000000000000000000000000000000000000000000a01dcc4de8dec75d7aab85b567b6ccd41ad312451b948a7413f0a142fd40d4934794a94f5374fce5edbc8e2a8697c15331677e6ebf0ba0cae4e33f016da0eacb4a07280dc231c64a029add9fa1b3acf1654239cf529012a056e81f171bcc55a6ff8345e692c0f86e5b48e01b996cadc001622fb5e363b421a056e81f171bcc55a6ff8345e692c0f86e5b48e01b996cadc001622fb5e363b421b90100000000000000000000000000000000000000000000000000000000000000000000000000000000000000000000000000000000000000000000000000000000000000000000000000000000000000000000000000000000000000000000000000000000000000000000000000000000000000000000000000000000000000000000000000000000000000000000000000000000000000000000000000000000000000000000000000000000000000000000000000000000000000000000000000000000000000000000000000000000000000000000000000000000000000000000000000000000000000000000000000000000000000000000000000000000008080830f4240808000a000000000000000000000000000000000000000000000000000000000000000018800000000000000000ba056e81f171bcc55a6ff8345e692c0f86e5b48e01b996cadc001622fb5e363b4218083060000a00000000000000000000000000000000000000000000000000000000000000000a0e3b0c44298fc1c149afbf4c8996fb92427ae41e4649b934ca495991b7852b855c0c0c0",
        "lastblockhash" : "0xd03df7525350a4d7d4b0ac0d498a7136becb778127d5ec6be428735ef75b9527",
        "network" : "Prague",
        "postState" : {
            "0x0000f90827f1c53a10cb7a02335b175320002935" : {
                "balance" : "0x00",
                "code" : "0x3373fffffffffffffffffffffffffffffffffffffffe14604657602036036042575f35600143038111604257611fff81430311604257611fff9006545f5260205ff35b5f5ffd5b5f35611fff60014303065500",
                "nonce" : "0x01",
                "storage" : {
                }
            },
            "0x000f3df6d732807ef1319fb7b8bb8522d0beac02" : {
                "balance" : "0x00",
                "code" : "0x3373fffffffffffffffffffffffffffffffffffffffe14604d57602036146024575f5ffd5b5f35801560495762001fff810690815414603c575f5ffd5b62001fff01545f5260205ff35b5f5ffd5b62001fff42064281555f359062001fff015500",
                "nonce" : "0x01",
                "storage" : {
                }
            },
            "0xa94f5374fce5edbc8e2a8697c15331677e6ebf0b" : {
                "balance" : "0x5af3107a4000",
                "code" : "0x",
                "nonce" : "0xffffffffffffffff",
                "storage" : {
                }
            }
        },
        "pre" : {
            "0x0000f90827f1c53a10cb7a02335b175320002935" : {
                "balance" : "0x00",
                "code" : "0x3373fffffffffffffffffffffffffffffffffffffffe14604657602036036042575f35600143038111604257611fff81430311604257611fff9006545f5260205ff35b5f5ffd5b5f35611fff60014303065500",
                "nonce" : "0x01",
                "storage" : {
                }
            },
            "0x000f3df6d732807ef1319fb7b8bb8522d0beac02" : {
                "balance" : "0x00",
                "code" : "0x3373fffffffffffffffffffffffffffffffffffffffe14604d57602036146024575f5ffd5b5f35801560495762001fff810690815414603c575f5ffd5b62001fff01545f5260205ff35b5f5ffd5b62001fff42064281555f359062001fff015500",
                "nonce" : "0x01",
                "storage" : {
                }
            },
            "0xa94f5374fce5edbc8e2a8697c15331677e6ebf0b" : {
                "balance" : "0x5af3107a4000",
                "code" : "0x",
                "nonce" : "0xffffffffffffffff",
                "storage" : {
                }
            }
        },
        "sealEngine" : "NoProof"
    }
}