{
    "CREATE_AcreateB_BSuicide_BStore_d0g0v0_Cancun" : {
        "_info" : {
            "comment" : "",
            "filling-rpc-server" : "evmone-t8n 0.14.0-13+commit.4d363c36",
            "filling-tool-version" : "retesteth-0.3.2-legacy+commit.ca7f4c79.Linux.g++",
            "fixture-format" : "blockchain_test",
            "generatedTestHash" : "72a4e131b83f7ef1a86096c2db85d500c261e215208e1c25b7a6dace0795f7dc",
            "lllcversion" : "Version: 0.5.14-develop.2024.11.5+commit.b2b86751.mod.Linux.g++",
            "solidity" : "Version: 0.8.24+commit.e11b9ed9.Linux.g++",
            "source" : "src/GeneralStateTestsFiller/stCreateTest/CREATE_AcreateB_BSuicide_BStoreFiller.json",
            "sourceHash" : "2bc679789fa8af43f6c96259c8c5b30d9d6feed445939801795410ea4918bc55"
        },
        "blocks" : [
            {
                "blockHeader" : {
                    "baseFeePerGas" : "0x0a",
                    "blobGasUsed" : "0x00",
                    "bloom" : "0x00000000000000000000000000000000000000000000000000000000000000000000000000000000000000000000000000000000000000000000000000000000000000000000000000000000000000000000000000000000000000000000000000000000000000000000000000000000000000000000000000000000000000000000000000000000000000000000000000000000000000000000000000000000000000000000000000000000000000000000000000000000000000000000000000000000000000000000000000000000000000000000000000000000000000000000000000000000000000000000000000000000000000000000000000000000",
                    "coinbase" : "0x2adc25665018aa1fe0e6bc666dac8fc2697ff9ba",
                    "difficulty" : "0x00",
                    "excessBlobGas" : "0x00",
                    "extraData" : "0x00",
                    "gasLimit" : "0x989680",
                    "gasUsed" : "0x028814",
                    "hash" : "0xabd72a49d852ac9627f484e5b4ffb302fc60c3484b0ca77eee6144b79ed08044",
                    "mixHash" : "0x0000000000000000000000000000000000000000000000000000000000020000",
                    "nonce" : "0x0000000000000000",
                    "number" : "0x01",
                    "parentBeaconBlockRoot" : "0x0000000000000000000000000000000000000000000000000000000000000000",
                    "parentHash" : "0x9751b1551122ad9f9772e1041bfe25d89b27858f7361d780ae936fdb9fae2c32",
                    "receiptTrie" : "0xf8e913cabc2b12d37b258896ffca0649a150e966dca9042a6837ddd40a12f49c",
                    "stateRoot" : "0xf60cc172d663b55f882f67bc321dd7146b8c70b9cedda9ed3164d6d0102e73b0",
                    "timestamp" : "0x03e8",
                    "transactionsTrie" : "0xa981d8cd0f9d4db6e4ba97d6e208a5bf5679a2627b134b59261c570f823d0385",
                    "uncleHash" : "0x1dcc4de8dec75d7aab85b567b6ccd41ad312451b948a7413f0a142fd40d49347",
                    "withdrawalsRoot" : "0x56e81f171bcc55a6ff8345e692c0f86e5b48e01b996cadc001622fb5e363b421"
                },
                "rlp" : "0xf902a7f9023aa09751b1551122ad9f9772e1041bfe25d89b27858f7361d780ae936fdb9fae2c32a01dcc4de8dec75d7aab85b567b6ccd41ad312451b948a7413f0a142fd40d49347942adc25665018aa1fe0e6bc666dac8fc2697ff9baa0f60cc172d663b55f882f67bc321dd7146b8c70b9cedda9ed3164d6d0102e73b0a0a981d8cd0f9d4db6e4ba97d6e208a5bf5679a2627b134b59261c570f823d0385a0f8e913cabc2b12d37b258896ffca0649a150e966dca9042a6837ddd40a12f49cb9010000000000000000000000000000000000000000000000000000000000000000000000000000000000000000000000000000000000000000000000000000000000000000000000000000000000000000000000000000000000000000000000000000000000000000000000000000000000000000000000000000000000000000000000000000000000000000000000000000000000000000000000000000000000000000000000000000000000000000000000000000000000000000000000000000000000000000000000000000000000000000000000000000000000000000000000000000000000000000000000000000000000000000000000000000000000800183989680830288148203e800a000000000000000000000000000000000000000000000000000000000000200008800000000000000000aa056e81f171bcc55a6ff8345e692c0f86e5b48e01b996cadc001622fb5e363b4218080a00000000000000000000000000000000000000000000000000000000000000000f866f864800a830927c094b94f5374fce5edbc8e2a8697c15331677e6ebf0b8084c04062261ca02533703e522920868c57dd13bf60c6f16e493cf32e3d0e84509b5f21ae242447a0437bd5ba83d1b45949c55e91c85d996bfbbeb34c6ad1abab1b741a7198b70deec0c0",
                "transactions" : [
                    {
                        "data" : "0xc0406226",
                        "gasLimit" : "0x0927c0",
                        "gasPrice" : "0x0a",
                        "nonce" : "0x00",
                        "r" : "0x2533703e522920868c57dd13bf60c6f16e493cf32e3d0e84509b5f21ae242447",
                        "s" : "0x437bd5ba83d1b45949c55e91c85d996bfbbeb34c6ad1abab1b741a7198b70dee",
                        "sender" : "0xa94f5374fce5edbc8e2a8697c15331677e6ebf0b",
                        "to" : "0xb94f5374fce5edbc8e2a8697c15331677e6ebf0b",
                        "v" : "0x1c",
                        "value" : "0x00"
                    }
                ],
                "uncleHeaders" : [
                ],
                "withdrawals" : [
                ]
            }
        ],
        "config" : {
            "blobSchedule" : {
                "Cancun" : {
                    "baseFeeUpdateFraction" : "0x32f0ed",
                    "max" : "0x06",
                    "target" : "0x03"
                }
            },
            "chainid" : "0x01",
            "network" : "Cancun"
        },
        "genesisBlockHeader" : {
            "baseFeePerGas" : "0x0b",
            "blobGasUsed" : "0x00",
            "bloom" : "0x00000000000000000000000000000000000000000000000000000000000000000000000000000000000000000000000000000000000000000000000000000000000000000000000000000000000000000000000000000000000000000000000000000000000000000000000000000000000000000000000000000000000000000000000000000000000000000000000000000000000000000000000000000000000000000000000000000000000000000000000000000000000000000000000000000000000000000000000000000000000000000000000000000000000000000000000000000000000000000000000000000000000000000000000000000000",
            "coinbase" : "0x2adc25665018aa1fe0e6bc666dac8fc2697ff9ba",
            "difficulty" : "0x00",
            "excessBlobGas" : "0x060000",
            "extraData" : "0x00",
            "gasLimit" : "0x989680",
            "gasUsed" : "0x00",
            "hash" : "0x9751b1551122ad9f9772e1041bfe25d89b27858f7361d780ae936fdb9fae2c32",
            "mixHash" : "0x0000000000000000000000000000000000000000000000000000000000020000",
            "nonce" : "0x0000000000000000",
            "number" : "0x00",
            "parentBeaconBlockRoot" : "0x0000000000000000000000000000000000000000000000000000000000000000",
            "parentHash" : "0x0000000000000000000000000000000000000000000000000000000000000000",
            "receiptTrie" : "0x56e81f171bcc55a6ff8345e692c0f86e5b48e01b996cadc001622fb5e363b421",
            "stateRoot" : "0xe18c739982bd36ed1e4cfc6b4fba14454249411b0010a1392c21953a18cc4a68",
            "timestamp" : "0x00",
            "transactionsTrie" : "0x56e81f171bcc55a6ff8345e692c0f86e5b48e01b996cadc001622fb5e363b421",
            "uncleHash" : "0x1dcc4de8dec75d7aab85b567b6ccd41ad312451b948a7413f0a142fd40d49347",
            "withdrawalsRoot" : "0x56e81f171bcc55a6ff8345e692c0f86e5b48e01b996cadc001622fb5e363b421"
        },
        "genesisRLP" : "0xf9023ef90238a00000000000000000000000000000000000000000000000000000000000000000a01dcc4de8dec75d7aab85b567b6ccd41ad312451b948a7413f0a142fd40d49347942adc25665018aa1fe0e6bc666dac8fc2697ff9baa0e18c739982bd36ed1e4cfc6b4fba14454249411b0010a1392c21953a18cc4a68a056e81f171bcc55a6ff8345e692c0f86e5b48e01b996cadc001622fb5e363b421a056e81f171bcc55a6ff8345e692c0f86e5b48e01b996cadc001622fb5e363b421b9010000000000000000000000000000000000000000000000000000000000000000000000000000000000000000000000000000000000000000000000000000000000000000000000000000000000000000000000000000000000000000000000000000000000000000000000000000000000000000000000000000000000000000000000000000000000000000000000000000000000000000000000000000000000000000000000000000000000000000000000000000000000000000000000000000000000000000000000000000000000000000000000000000000000000000000000000000000000000000000000000000000000000000000000000000000000808083989680808000a000000000000000000000000000000000000000000000000000000000000200008800000000000000000ba056e81f171bcc55a6ff8345e692c0f86e5b48e01b996cadc001622fb5e363b4218083060000a00000000000000000000000000000000000000000000000000000000000000000c0c0c0",
        "lastblockhash" : "0xabd72a49d852ac9627f484e5b4ffb302fc60c3484b0ca77eee6144b79ed08044",
        "network" : "Cancun",
        "postState" : {
            "0x000f3df6d732807ef1319fb7b8bb8522d0beac02" : {
                "balance" : "0x00",
                "code" : "0x3373fffffffffffffffffffffffffffffffffffffffe14604d57602036146024575f5ffd5b5f35801560495762001fff810690815414603c575f5ffd5b62001fff01545f5260205ff35b5f5ffd5b62001fff42064281555f359062001fff015500",
                "nonce" : "0x01",
                "storage" : {
                    "0x03e8" : "0x03e8"
                }
            },
            "0x1000000000000000000000000000000000000000" : {
                "balance" : "0x01",
                "code" : "0x",
                "nonce" : "0x00",
                "storage" : {
                }
            },
            "0xa94f5374fce5edbc8e2a8697c15331677e6ebf0b" : {
                "balance" : "0xe8d48bbf38",
                "code" : "0x",
                "nonce" : "0x01",
                "storage" : {
                }
            },
            "0xb94f5374fce5edbc8e2a8697c15331677e6ebf0b" : {
                "balance" : "0xe8d4a51000",
                "code" : "0x60606040526000357c010000000000000000000000000000000000000000000000000000000090048063c04062261461003c57610037565b610002565b346100025761004e6004805050610050565b005b600060405160c9806101d3833901809050604051809103906000f080156100025790508073ffffffffffffffffffffffffffffffffffffffff166369bda7aa604051817c0100000000000000000000000000000000000000000000000000000000028152600401809050600060405180830381600087803b156100025760325a03f115610002575050508073ffffffffffffffffffffffffffffffffffffffff16633ac6dff3604051817c0100000000000000000000000000000000000000000000000000000000028152600401809050600060405180830381600087803b156100025760325a03f115610002575050508073ffffffffffffffffffffffffffffffffffffffff16636f118b2b600060405160200152604051817c0100000000000000000000000000000000000000000000000000000000028152600401809050602060405180830381600087803b156100025760325a03f115610002575050506040518051906020015060016000508190555060016000600050819055505b5056606060405260b98060106000396000f360606040526000357c0100000000000000000000000000000000000000000000000000000000900480633ac6dff314604d57806369bda7aa14605e5780636f118b2b14606f576049565b6002565b34600257605c60048050506094565b005b34600257606d600480505060a2565b005b34600257607e600480505060a8565b6040518082815260200191505060405180910390f35b600c6000600050819055505b565b6011ff5b565b6000600060005054905060b6565b9056",
                "nonce" : "0x01",
                "storage" : {
                    "0x00" : "0x01",
                    "0x01" : "0x0c"
                }
            }
        },
        "pre" : {
            "0x000f3df6d732807ef1319fb7b8bb8522d0beac02" : {
                "balance" : "0x00",
                "code" : "0x3373fffffffffffffffffffffffffffffffffffffffe14604d57602036146024575f5ffd5b5f35801560495762001fff810690815414603c575f5ffd5b62001fff01545f5260205ff35b5f5ffd5b62001fff42064281555f359062001fff015500",
                "nonce" : "0x01",
                "storage" : {
                }
            },
            "0x1000000000000000000000000000000000000000" : {
                "balance" : "0x01",
                "code" : "0x",
                "nonce" : "0x00",
                "storage" : {
                }
            },
            "0xa94f5374fce5edbc8e2a8697c15331677e6ebf0b" : {
                "balance" : "0xe8d4a51000",
                "code" : "0x",
                "nonce" : "0x00",
                "storage" : {
                }
            },
            "0xb94f5374fce5edbc8e2a8697c15331677e6ebf0b" : {
                "balance" : "0xe8d4a51000",
                "code" : "0x60606040526000357c010000000000000000000000000000000000000000000000000000000090048063c04062261461003c57610037565b610002565b346100025761004e6004805050610050565b005b600060405160c9806101d3833901809050604051809103906000f080156100025790508073ffffffffffffffffffffffffffffffffffffffff166369bda7aa604051817c0100000000000000000000000000000000000000000000000000000000028152600401809050600060405180830381600087803b156100025760325a03f115610002575050508073ffffffffffffffffffffffffffffffffffffffff16633ac6dff3604051817c0100000000000000000000000000000000000000000000000000000000028152600401809050600060405180830381600087803b156100025760325a03f115610002575050508073ffffffffffffffffffffffffffffffffffffffff16636f118b2b600060405160200152604051817c0100000000000000000000000000000000000000000000000000000000028152600401809050602060405180830381600087803b156100025760325a03f115610002575050506040518051906020015060016000508190555060016000600050819055505b5056606060405260b98060106000396000f360606040526000357c0100000000000000000000000000000000000000000000000000000000900480633ac6dff314604d57806369bda7aa14605e5780636f118b2b14606f576049565b6002565b34600257605c60048050506094565b005b34600257606d600480505060a2565b005b34600257607e600480505060a8565b6040518082815260200191505060405180910390f35b600c6000600050819055505b565b6011ff5b565b6000600060005054905060b6565b9056",
                "nonce" : "0x00",
                "storage" : {
                }
            }
        },
        "sealEngine" : "NoProof"
    },
    "CREATE_AcreateB_BSuicide_BStore_d0g0v0_Prague" : {
        "_info" : {
            "comment" : "",
            "filling-rpc-server" : "evmone-t8n 0.14.0-13+commit.4d363c36",
            "filling-tool-version" : "retesteth-0.3.2-legacy+commit.ca7f4c79.Linux.g++",
            "fixture-format" : "blockchain_test",
            "generatedTestHash" : "7f9edadc6bf3afde946d155d3ccd6f8068c9574650feacd7cd386323eb27afa6",
            "lllcversion" : "Version: 0.5.14-develop.2024.11.5+commit.b2b86751.mod.Linux.g++",
            "solidity" : "Version: 0.8.24+commit.e11b9ed9.Linux.g++",
            "source" : "src/GeneralStateTestsFiller/stCreateTest/CREATE_AcreateB_BSuicide_BStoreFiller.json",
            "sourceHash" : "2bc679789fa8af43f6c96259c8c5b30d9d6feed445939801795410ea4918bc55"
        },
        "blocks" : [
            {
                "blockHeader" : {
                    "baseFeePerGas" : "0x0a",
                    "blobGasUsed" : "0x00",
                    "bloom" : "0x00000000000000000000000000000000000000000000000000000000000000000000000000000000000000000000000000000000000000000000000000000000000000000000000000000000000000000000000000000000000000000000000000000000000000000000000000000000000000000000000000000000000000000000000000000000000000000000000000000000000000000000000000000000000000000000000000000000000000000000000000000000000000000000000000000000000000000000000000000000000000000000000000000000000000000000000000000000000000000000000000000000000000000000000000000000",
                    "coinbase" : "0x2adc25665018aa1fe0e6bc666dac8fc2697ff9ba",
                    "difficulty" : "0x00",
                    "excessBlobGas" : "0x00",
                    "extraData" : "0x00",
                    "gasLimit" : "0x989680",
                    "gasUsed" : "0x027dec",
                    "hash" : "0x70096b214ac91038b02a967491724b99c6ff5412e8f7b6436317a2d1e6f4cfa6",
                    "mixHash" : "0x0000000000000000000000000000000000000000000000000000000000020000",
                    "nonce" : "0x0000000000000000",
                    "number" : "0x01",
                    "parentBeaconBlockRoot" : "0x0000000000000000000000000000000000000000000000000000000000000000",
                    "parentHash" : "0x1396f5d4feaa4cc88c546dab55ee856c6529f0f7178abb35ef607201b7521bf6",
                    "receiptTrie" : "0x1b62f2f60a77bbb5d12b27572d85edac7b3b3c31ee961512242f4fa39fb74ab6",
                    "requestsHash" : "0xe3b0c44298fc1c149afbf4c8996fb92427ae41e4649b934ca495991b7852b855",
                    "stateRoot" : "0x5e9a77ab7f5a2fb8bf4353e370cfd2326f3e94d8857829ad5dd7429a45b19d98",
                    "timestamp" : "0x03e8",
                    "transactionsTrie" : "0xa981d8cd0f9d4db6e4ba97d6e208a5bf5679a2627b134b59261c570f823d0385",
                    "uncleHash" : "0x1dcc4de8dec75d7aab85b567b6ccd41ad312451b948a7413f0a142fd40d49347",
                    "withdrawalsRoot" : "0x56e81f171bcc55a6ff8345e692c0f86e5b48e01b996cadc001622fb5e363b421"
                },
                "rlp" : "0xf902c8f9025ba01396f5d4feaa4cc88c546dab55ee856c6529f0f7178abb35ef607201b7521bf6a01dcc4de8dec75d7aab85b567b6ccd41ad312451b948a7413f0a142fd40d49347942adc25665018aa1fe0e6bc666dac8fc2697ff9baa05e9a77ab7f5a2fb8bf4353e370cfd2326f3e94d8857829ad5dd7429a45b19d98a0a981d8cd0f9d4db6e4ba97d6e208a5bf5679a2627b134b59261c570f823d0385a01b62f2f60a77bbb5d12b27572d85edac7b3b3c31ee961512242f4fa39fb74ab6b901000000000000000000000000000000000000000000000000000000000000000000000000000000000000000000000000000000000000000000000000000000000000000000000000000000000000000000000000000000000000000000000000000000000000000000000000000000000000000000000000000000000000000000000000000000000000000000000000000000000000000000000000000000000000000000000000000000000000000000000000000000000000000000000000000000000000000000000000000000000000000000000000000000000000000000000000000000000000000000000000000000000000000000000000000000000080018398968083027dec8203e800a000000000000000000000000000000000000000000000000000000000000200008800000000000000000aa056e81f171bcc55a6ff8345e692c0f86e5b48e01b996cadc001622fb5e363b4218080a00000000000000000000000000000000000000000000000000000000000000000a0e3b0c44298fc1c149afbf4c8996fb92427ae41e4649b934ca495991b7852b855f866f864800a830927c094b94f5374fce5edbc8e2a8697c15331677e6ebf0b8084c04062261ca02533703e522920868c57dd13bf60c6f16e493cf32e3d0e84509b5f21ae242447a0437bd5ba83d1b45949c55e91c85d996bfbbeb34c6ad1abab1b741a7198b70deec0c0",
                "transactions" : [
                    {
                        "data" : "0xc0406226",
                        "gasLimit" : "0x0927c0",
                        "gasPrice" : "0x0a",
                        "nonce" : "0x00",
                        "r" : "0x2533703e522920868c57dd13bf60c6f16e493cf32e3d0e84509b5f21ae242447",
                        "s" : "0x437bd5ba83d1b45949c55e91c85d996bfbbeb34c6ad1abab1b741a7198b70dee",
                        "sender" : "0xa94f5374fce5edbc8e2a8697c15331677e6ebf0b",
                        "to" : "0xb94f5374fce5edbc8e2a8697c15331677e6ebf0b",
                        "v" : "0x1c",
                        "value" : "0x00"
                    }
                ],
                "uncleHeaders" : [
                ],
                "withdrawals" : [
                ]
            }
        ],
        "config" : {
            "blobSchedule" : {
                "Prague" : {
                    "baseFeeUpdateFraction" : "0x4c6964",
                    "max" : "0x09",
                    "target" : "0x06"
                }
            },
            "chainid" : "0x01",
            "network" : "Prague"
        },
        "genesisBlockHeader" : {
            "baseFeePerGas" : "0x0b",
            "blobGasUsed" : "0x00",
            "bloom" : "0x00000000000000000000000000000000000000000000000000000000000000000000000000000000000000000000000000000000000000000000000000000000000000000000000000000000000000000000000000000000000000000000000000000000000000000000000000000000000000000000000000000000000000000000000000000000000000000000000000000000000000000000000000000000000000000000000000000000000000000000000000000000000000000000000000000000000000000000000000000000000000000000000000000000000000000000000000000000000000000000000000000000000000000000000000000000",
            "coinbase" : "0x2adc25665018aa1fe0e6bc666dac8fc2697ff9ba",
            "difficulty" : "0x00",
            "excessBlobGas" : "0x060000",
            "extraData" : "0x00",
            "gasLimit" : "0x989680",
            "gasUsed" : "0x00",
            "hash" : "0x1396f5d4feaa4cc88c546dab55ee856c6529f0f7178abb35ef607201b7521bf6",
            "mixHash" : "0x0000000000000000000000000000000000000000000000000000000000020000",
            "nonce" : "0x0000000000000000",
            "number" : "0x00",
            "parentBeaconBlockRoot" : "0x0000000000000000000000000000000000000000000000000000000000000000",
            "parentHash" : "0x0000000000000000000000000000000000000000000000000000000000000000",
            "receiptTrie" : "0x56e81f171bcc55a6ff8345e692c0f86e5b48e01b996cadc001622fb5e363b421",
            "requestsHash" : "0xe3b0c44298fc1c149afbf4c8996fb92427ae41e4649b934ca495991b7852b855",
            "stateRoot" : "0xb8e81703f4d01583c767d73936b78177af85c2fcb0dfd23e035fcdb876529d6f",
            "timestamp" : "0x00",
            "transactionsTrie" : "0x56e81f171bcc55a6ff8345e692c0f86e5b48e01b996cadc001622fb5e363b421",
            "uncleHash" : "0x1dcc4de8dec75d7aab85b567b6ccd41ad312451b948a7413f0a142fd40d49347",
            "withdrawalsRoot" : "0x56e81f171bcc55a6ff8345e692c0f86e5b48e01b996cadc001622fb5e363b421"
        },
        "genesisRLP" : "0xf9025ff90259a00000000000000000000000000000000000000000000000000000000000000000a01dcc4de8dec75d7aab85b567b6ccd41ad312451b948a7413f0a142fd40d49347942adc25665018aa1fe0e6bc666dac8fc2697ff9baa0b8e81703f4d01583c767d73936b78177af85c2fcb0dfd23e035fcdb876529d6fa056e81f171bcc55a6ff8345e692c0f86e5b48e01b996cadc001622fb5e363b421a056e81f171bcc55a6ff8345e692c0f86e5b48e01b996cadc001622fb5e363b421b9010000000000000000000000000000000000000000000000000000000000000000000000000000000000000000000000000000000000000000000000000000000000000000000000000000000000000000000000000000000000000000000000000000000000000000000000000000000000000000000000000000000000000000000000000000000000000000000000000000000000000000000000000000000000000000000000000000000000000000000000000000000000000000000000000000000000000000000000000000000000000000000000000000000000000000000000000000000000000000000000000000000000000000000000000000000000808083989680808000a000000000000000000000000000000000000000000000000000000000000200008800000000000000000ba056e81f171bcc55a6ff8345e692c0f86e5b48e01b996cadc001622fb5e363b4218083060000a00000000000000000000000000000000000000000000000000000000000000000a0e3b0c44298fc1c149afbf4c8996fb92427ae41e4649b934ca495991b7852b855c0c0c0",
        "lastblockhash" : "0x70096b214ac91038b02a967491724b99c6ff5412e8f7b6436317a2d1e6f4cfa6",
        "network" : "Prague",
        "postState" : {
            "0x0000f90827f1c53a10cb7a02335b175320002935" : {
                "balance" : "0x00",
                "code" : "0x3373fffffffffffffffffffffffffffffffffffffffe14604657602036036042575f35600143038111604257611fff81430311604257611fff9006545f5260205ff35b5f5ffd5b5f35611fff60014303065500",
                "nonce" : "0x01",
                "storage" : {
                    "0x00" : "0x1396f5d4feaa4cc88c546dab55ee856c6529f0f7178abb35ef607201b7521bf6"
                }
            },
            "0x000f3df6d732807ef1319fb7b8bb8522d0beac02" : {
                "balance" : "0x00",
                "code" : "0x3373fffffffffffffffffffffffffffffffffffffffe14604d57602036146024575f5ffd5b5f35801560495762001fff810690815414603c575f5ffd5b62001fff01545f5260205ff35b5f5ffd5b62001fff42064281555f359062001fff015500",
                "nonce" : "0x01",
                "storage" : {
                    "0x03e8" : "0x03e8"
                }
            },
            "0x1000000000000000000000000000000000000000" : {
                "balance" : "0x01",
                "code" : "0x",
                "nonce" : "0x00",
                "storage" : {
                }
            },
            "0xa94f5374fce5edbc8e2a8697c15331677e6ebf0b" : {
                "balance" : "0xe8d48c24c8",
                "code" : "0x",
                "nonce" : "0x01",
                "storage" : {
                }
            },
            "0xb94f5374fce5edbc8e2a8697c15331677e6ebf0b" : {
                "balance" : "0xe8d4a51000",
                "code" : "0x60606040526000357c010000000000000000000000000000000000000000000000000000000090048063c04062261461003c57610037565b610002565b346100025761004e6004805050610050565b005b600060405160c9806101d3833901809050604051809103906000f080156100025790508073ffffffffffffffffffffffffffffffffffffffff166369bda7aa604051817c0100000000000000000000000000000000000000000000000000000000028152600401809050600060405180830381600087803b156100025760325a03f115610002575050508073ffffffffffffffffffffffffffffffffffffffff16633ac6dff3604051817c0100000000000000000000000000000000000000000000000000000000028152600401809050600060405180830381600087803b156100025760325a03f115610002575050508073ffffffffffffffffffffffffffffffffffffffff16636f118b2b600060405160200152604051817c0100000000000000000000000000000000000000000000000000000000028152600401809050602060405180830381600087803b156100025760325a03f115610002575050506040518051906020015060016000508190555060016000600050819055505b5056606060405260b98060106000396000f360606040526000357c0100000000000000000000000000000000000000000000000000000000900480633ac6dff314604d57806369bda7aa14605e5780636f118b2b14606f576049565b6002565b34600257605c60048050506094565b005b34600257606d600480505060a2565b005b34600257607e600480505060a8565b6040518082815260200191505060405180910390f35b600c6000600050819055505b565b6011ff5b565b6000600060005054905060b6565b9056",
                "nonce" : "0x01",
                "storage" : {
                    "0x00" : "0x01",
                    "0x01" : "0x0c"
                }
            }
        },
        "pre" : {
            "0x0000f90827f1c53a10cb7a02335b175320002935" : {
                "balance" : "0x00",
                "code" : "0x3373fffffffffffffffffffffffffffffffffffffffe14604657602036036042575f35600143038111604257611fff81430311604257611fff9006545f5260205ff35b5f5ffd5b5f35611fff60014303065500",
                "nonce" : "0x01",
                "storage" : {
                }
            },
            "0x000f3df6d732807ef1319fb7b8bb8522d0beac02" : {
                "balance" : "0x00",
                "code" : "0x3373fffffffffffffffffffffffffffffffffffffffe14604d57602036146024575f5ffd5b5f35801560495762001fff810690815414603c575f5ffd5b62001fff01545f5260205ff35b5f5ffd5b62001fff42064281555f359062001fff015500",
                "nonce" : "0x01",
                "storage" : {
                }
            },
            "0x1000000000000000000000000000000000000000" : {
                "balance" : "0x01",
                "code" : "0x",
                "nonce" : "0x00",
                "storage" : {
                }
            },
            "0xa94f5374fce5edbc8e2a8697c15331677e6ebf0b" : {
                "balance" : "0xe8d4a51000",
                "code" : "0x",
                "nonce" : "0x00",
                "storage" : {
                }
            },
            "0xb94f5374fce5edbc8e2a8697c15331677e6ebf0b" : {
                "balance" : "0xe8d4a51000",
                "code" : "0x60606040526000357c010000000000000000000000000000000000000000000000000000000090048063c04062261461003c57610037565b610002565b346100025761004e6004805050610050565b005b600060405160c9806101d3833901809050604051809103906000f080156100025790508073ffffffffffffffffffffffffffffffffffffffff166369bda7aa604051817c0100000000000000000000000000000000000000000000000000000000028152600401809050600060405180830381600087803b156100025760325a03f115610002575050508073ffffffffffffffffffffffffffffffffffffffff16633ac6dff3604051817c0100000000000000000000000000000000000000000000000000000000028152600401809050600060405180830381600087803b156100025760325a03f115610002575050508073ffffffffffffffffffffffffffffffffffffffff16636f118b2b600060405160200152604051817c0100000000000000000000000000000000000000000000000000000000028152600401809050602060405180830381600087803b156100025760325a03f115610002575050506040518051906020015060016000508190555060016000600050819055505b5056606060405260b98060106000396000f360606040526000357c0100000000000000000000000000000000000000000000000000000000900480633ac6dff314604d57806369bda7aa14605e5780636f118b2b14606f576049565b6002565b34600257605c60048050506094565b005b34600257606d600480505060a2565b005b34600257607e600480505060a8565b6040518082815260200191505060405180910390f35b600c6000600050819055505b565b6011ff5b565b6000600060005054905060b6565b9056",
                "nonce" : "0x00",
                "storage" : {
                }
            }
        },
        "sealEngine" : "NoProof"
    }
}